{
  "transactions": [
    {
      "hash": "0x831bb218e785a4d65a9a35402d15a8c73fc90aa0762318e1edaf7554f199b794",
      "transactionType": "CALL",
      "contractName": null,
      "contractAddress": "0x429ba70129df741b2ca2a85bc3a2a3328e5c09b4",
      "function": "initializePool((address,address,uint24,int24,address),uint160)",
      "arguments": [
        "(0x0E42Efc341d5ef175dB4CE9516d13eecC379e9Ec, 0xf7eC23380BB7adEdaf4c69239B66e444B4aaffDb, 3000, 60, 0x0000000000000000000000000000000000000000)",
        "79228162514264337593543950336"
      ],
      "transaction": {
        "from": "0x3e723f6b81431f325e3f08e75544f254c182afe2",
        "to": "0x429ba70129df741b2ca2a85bc3a2a3328e5c09b4",
        "gas": "0x12e9d",
        "value": "0x0",
        "input": "0xf70204050000000000000000000000000e42efc341d5ef175db4ce9516d13eecc379e9ec000000000000000000000000f7ec23380bb7adedaf4c69239b66e444b4aaffdb0000000000000000000000000000000000000000000000000000000000000bb8000000000000000000000000000000000000000000000000000000000000003c00000000000000000000000000000000000000000000000000000000000000000000000000000000000000000000000000000001000000000000000000000000",
        "nonce": "0x56e",
        "chainId": "0xaa36a7"
      },
      "additionalContracts": [],
      "isFixedGasLimit": false
    },
    {
      "hash": "0x4a5f55e83ce0f31a65fa4fa14249fb958ed74c76b830c105cbb954f0f74f822e",
      "transactionType": "CALL",
      "contractName": null,
      "contractAddress": "0xf7ec23380bb7adedaf4c69239b66e444b4aaffdb",
      "function": "approve(address,uint256)",
      "arguments": [
        "0x0faF3047Dc05328c5251a7BeEF8408c4d3A23880",
        "115792089237316195423570985008687907853269984665640564039457584007913129639935"
      ],
      "transaction": {
        "from": "0x3e723f6b81431f325e3f08e75544f254c182afe2",
        "to": "0xf7ec23380bb7adedaf4c69239b66e444b4aaffdb",
        "gas": "0x96a4",
        "value": "0x0",
        "input": "0x095ea7b30000000000000000000000000faf3047dc05328c5251a7beef8408c4d3a23880ffffffffffffffffffffffffffffffffffffffffffffffffffffffffffffffff",
        "nonce": "0x56f",
        "chainId": "0xaa36a7"
      },
      "additionalContracts": [],
      "isFixedGasLimit": false
    },
    {
      "hash": "0x0805577a39fa2200bb4629e8963cd61f8bd62b65d54ef0784261ea5f4b7cec7f",
      "transactionType": "CALL",
      "contractName": null,
      "contractAddress": "0x0e42efc341d5ef175db4ce9516d13eecc379e9ec",
      "function": "approve(address,uint256)",
      "arguments": [
        "0x0faF3047Dc05328c5251a7BeEF8408c4d3A23880",
        "115792089237316195423570985008687907853269984665640564039457584007913129639935"
      ],
      "transaction": {
        "from": "0x3e723f6b81431f325e3f08e75544f254c182afe2",
        "to": "0x0e42efc341d5ef175db4ce9516d13eecc379e9ec",
        "gas": "0x96a4",
        "value": "0x0",
        "input": "0x095ea7b30000000000000000000000000faf3047dc05328c5251a7beef8408c4d3a23880ffffffffffffffffffffffffffffffffffffffffffffffffffffffffffffffff",
        "nonce": "0x570",
        "chainId": "0xaa36a7"
      },
      "additionalContracts": [],
      "isFixedGasLimit": false
    },
    {
      "hash": "0x18350d5a2228f3165eaa4a917db3add39e4a0f7dd11a98cf588d42a4ce153aee",
      "transactionType": "CALL",
      "contractName": null,
      "contractAddress": "0xf7ec23380bb7adedaf4c69239b66e444b4aaffdb",
      "function": "approve(address,uint256)",
      "arguments": [
        "0xE03A1074c86CFeDd5C142C4F04F1a1536e203543",
        "115792089237316195423570985008687907853269984665640564039457584007913129639935"
      ],
      "transaction": {
        "from": "0x3e723f6b81431f325e3f08e75544f254c182afe2",
        "to": "0xf7ec23380bb7adedaf4c69239b66e444b4aaffdb",
        "gas": "0x96a4",
        "value": "0x0",
        "input": "0x095ea7b3000000000000000000000000e03a1074c86cfedd5c142c4f04f1a1536e203543ffffffffffffffffffffffffffffffffffffffffffffffffffffffffffffffff",
        "nonce": "0x571",
        "chainId": "0xaa36a7"
      },
      "additionalContracts": [],
      "isFixedGasLimit": false
    },
    {
      "hash": "0x14a018c918e8c84915198c1f05e620f983abd3f70d6cc7671af4375358305687",
      "transactionType": "CALL",
      "contractName": null,
      "contractAddress": "0x0e42efc341d5ef175db4ce9516d13eecc379e9ec",
      "function": "approve(address,uint256)",
      "arguments": [
        "0xE03A1074c86CFeDd5C142C4F04F1a1536e203543",
        "115792089237316195423570985008687907853269984665640564039457584007913129639935"
      ],
      "transaction": {
        "from": "0x3e723f6b81431f325e3f08e75544f254c182afe2",
        "to": "0x0e42efc341d5ef175db4ce9516d13eecc379e9ec",
        "gas": "0x96a4",
        "value": "0x0",
        "input": "0x095ea7b3000000000000000000000000e03a1074c86cfedd5c142c4f04f1a1536e203543ffffffffffffffffffffffffffffffffffffffffffffffffffffffffffffffff",
        "nonce": "0x572",
        "chainId": "0xaa36a7"
      },
      "additionalContracts": [],
      "isFixedGasLimit": false
    },
    {
      "hash": "0x7a655ff1b3c6e54b351a4652e0aa9b9a0edcf271889094f27933a6b93aad68f2",
      "transactionType": "CALL",
      "contractName": null,
      "contractAddress": "0xf7ec23380bb7adedaf4c69239b66e444b4aaffdb",
      "function": "approve(address,uint256)",
      "arguments": [
        "0x429ba70129df741B2Ca2a85BC3A2a3328e5c09b4",
        "115792089237316195423570985008687907853269984665640564039457584007913129639935"
      ],
      "transaction": {
        "from": "0x3e723f6b81431f325e3f08e75544f254c182afe2",
        "to": "0xf7ec23380bb7adedaf4c69239b66e444b4aaffdb",
        "gas": "0x96a4",
        "value": "0x0",
        "input": "0x095ea7b3000000000000000000000000429ba70129df741b2ca2a85bc3a2a3328e5c09b4ffffffffffffffffffffffffffffffffffffffffffffffffffffffffffffffff",
        "nonce": "0x573",
        "chainId": "0xaa36a7"
      },
      "additionalContracts": [],
      "isFixedGasLimit": false
    },
    {
      "hash": "0xff99affaea6fe1d55f3e7112e2c8b62f8fdb737e8a8b5746b0c830eaf4f2ffc4",
      "transactionType": "CALL",
      "contractName": null,
      "contractAddress": "0x0e42efc341d5ef175db4ce9516d13eecc379e9ec",
      "function": "approve(address,uint256)",
      "arguments": [
        "0x429ba70129df741B2Ca2a85BC3A2a3328e5c09b4",
        "115792089237316195423570985008687907853269984665640564039457584007913129639935"
      ],
      "transaction": {
        "from": "0x3e723f6b81431f325e3f08e75544f254c182afe2",
        "to": "0x0e42efc341d5ef175db4ce9516d13eecc379e9ec",
        "gas": "0x96a4",
        "value": "0x0",
        "input": "0x095ea7b3000000000000000000000000429ba70129df741b2ca2a85bc3a2a3328e5c09b4ffffffffffffffffffffffffffffffffffffffffffffffffffffffffffffffff",
        "nonce": "0x574",
        "chainId": "0xaa36a7"
      },
      "additionalContracts": [],
      "isFixedGasLimit": false
    },
    {
      "hash": "0xf959461a0cb3af065843947badb377c82419d3120d22b26478989b74eba6a6ec",
      "transactionType": "CALL",
      "contractName": null,
      "contractAddress": "0xf7ec23380bb7adedaf4c69239b66e444b4aaffdb",
      "function": "approve(address,uint256)",
      "arguments": [
        "0x000000000022D473030F116dDEE9F6B43aC78BA3",
        "115792089237316195423570985008687907853269984665640564039457584007913129639935"
      ],
      "transaction": {
        "from": "0x3e723f6b81431f325e3f08e75544f254c182afe2",
        "to": "0xf7ec23380bb7adedaf4c69239b66e444b4aaffdb",
        "gas": "0x8df2",
        "value": "0x0",
        "input": "0x095ea7b3000000000000000000000000000000000022d473030f116ddee9f6b43ac78ba3ffffffffffffffffffffffffffffffffffffffffffffffffffffffffffffffff",
        "nonce": "0x575",
        "chainId": "0xaa36a7"
      },
      "additionalContracts": [],
      "isFixedGasLimit": false
    },
    {
      "hash": "0x3e8e047dab2b0ceb30988fc4cbb0cf601f40e0c6af78d383915821afd43bbe3e",
      "transactionType": "CALL",
      "contractName": null,
      "contractAddress": "0x000000000022d473030f116ddee9f6b43ac78ba3",
      "function": "approve(address,address,uint160,uint48)",
      "arguments": [
        "0xf7eC23380BB7adEdaf4c69239B66e444B4aaffDb",
        "0x429ba70129df741B2Ca2a85BC3A2a3328e5c09b4",
        "1461501637330902918203684832716283019655932542975",
        "281474976710655"
      ],
      "transaction": {
        "from": "0x3e723f6b81431f325e3f08e75544f254c182afe2",
        "to": "0x000000000022d473030f116ddee9f6b43ac78ba3",
        "gas": "0x96a0",
        "value": "0x0",
        "input": "0x87517c45000000000000000000000000f7ec23380bb7adedaf4c69239b66e444b4aaffdb000000000000000000000000429ba70129df741b2ca2a85bc3a2a3328e5c09b4000000000000000000000000ffffffffffffffffffffffffffffffffffffffff0000000000000000000000000000000000000000000000000000ffffffffffff",
        "nonce": "0x576",
        "chainId": "0xaa36a7"
      },
      "additionalContracts": [],
      "isFixedGasLimit": false
    },
    {
      "hash": "0x8d49a5b53e256d69af6dddc108674898c999af7545114c4f77ae5ea2349f649c",
      "transactionType": "CALL",
      "contractName": null,
      "contractAddress": "0x0e42efc341d5ef175db4ce9516d13eecc379e9ec",
      "function": "approve(address,uint256)",
      "arguments": [
        "0x000000000022D473030F116dDEE9F6B43aC78BA3",
        "115792089237316195423570985008687907853269984665640564039457584007913129639935"
      ],
      "transaction": {
        "from": "0x3e723f6b81431f325e3f08e75544f254c182afe2",
        "to": "0x0e42efc341d5ef175db4ce9516d13eecc379e9ec",
        "gas": "0x8df2",
        "value": "0x0",
        "input": "0x095ea7b3000000000000000000000000000000000022d473030f116ddee9f6b43ac78ba3ffffffffffffffffffffffffffffffffffffffffffffffffffffffffffffffff",
        "nonce": "0x577",
        "chainId": "0xaa36a7"
      },
      "additionalContracts": [],
      "isFixedGasLimit": false
    },
    {
      "hash": "0xb89901f830d951414d71cbfad6d8b0474da5af34f42a6d6ff76f674cc2d02a57",
      "transactionType": "CALL",
      "contractName": null,
      "contractAddress": "0x000000000022d473030f116ddee9f6b43ac78ba3",
      "function": "approve(address,address,uint160,uint48)",
      "arguments": [
        "0x0E42Efc341d5ef175dB4CE9516d13eecC379e9Ec",
        "0x429ba70129df741B2Ca2a85BC3A2a3328e5c09b4",
        "1461501637330902918203684832716283019655932542975",
        "281474976710655"
      ],
      "transaction": {
        "from": "0x3e723f6b81431f325e3f08e75544f254c182afe2",
        "to": "0x000000000022d473030f116ddee9f6b43ac78ba3",
        "gas": "0x96a0",
        "value": "0x0",
        "input": "0x87517c450000000000000000000000000e42efc341d5ef175db4ce9516d13eecc379e9ec000000000000000000000000429ba70129df741b2ca2a85bc3a2a3328e5c09b4000000000000000000000000ffffffffffffffffffffffffffffffffffffffff0000000000000000000000000000000000000000000000000000ffffffffffff",
        "nonce": "0x578",
        "chainId": "0xaa36a7"
      },
      "additionalContracts": [],
      "isFixedGasLimit": false
    },
    {
      "hash": "0x9838eeb097a500aa6a11286b8afa96dde6746c28a4b22fc2d31517e863e85b00",
      "transactionType": "CALL",
      "contractName": null,
      "contractAddress": "0x429ba70129df741b2ca2a85bc3a2a3328e5c09b4",
      "function": "modifyLiquidities(bytes,uint256)",
      "arguments": [
        "0x000000000000000000000000000000000000000000000000000000000000004000000000000000000000000000000000000000000000000000000000000000800000000000000000000000000000000000000000000000000000000000000004020d14140000000000000000000000000000000000000000000000000000000000000000000000000000000000000000000000000000000000000000000000040000000000000000000000000000000000000000000000000000000000000080000000000000000000000000000000000000000000000000000000000000024000000000000000000000000000000000000000000000000000000000000002a0000000000000000000000000000000000000000000000000000000000000030000000000000000000000000000000000000000000000000000000000000001a00000000000000000000000000e42efc341d5ef175db4ce9516d13eecc379e9ec000000000000000000000000f7ec23380bb7adedaf4c69239b66e444b4aaffdb0000000000000000000000000000000000000000000000000000000000000bb8000000000000000000000000000000000000000000000000000000000000003c0000000000000000000000000000000000000000000000000000000000000000fffffffffffffffffffffffffffffffffffffffffffffffffffffffffffffda800000000000000000000000000000000000000000000000000000000000002580000000000000000000000000000000000000000000000b76ef6d7d1e8594b010000000000000000000000000000000000000000000000056bc75e2d631000010000000000000000000000000000000000000000000000056bc75e2d631000010000000000000000000000003e723f6b81431f325e3f08e75544f254c182afe20000000000000000000000000000000000000000000000000000000000000180000000000000000000000000000000000000000000000000000000000000000000000000000000000000000000000000000000000000000000000000000000400000000000000000000000000e42efc341d5ef175db4ce9516d13eecc379e9ec000000000000000000000000f7ec23380bb7adedaf4c69239b66e444b4aaffdb00000000000000000000000000000000000000000000000000000000000000400000000000000000000000000e42efc341d5ef175db4ce9516d13eecc379e9ec0000000000000000000000003e723f6b81431f325e3f08e75544f254c182afe20000000000000000000000000000000000000000000000000000000000000040000000000000000000000000f7ec23380bb7adedaf4c69239b66e444b4aaffdb0000000000000000000000003e723f6b81431f325e3f08e75544f254c182afe2",
        "1758132180"
      ],
      "transaction": {
        "from": "0x3e723f6b81431f325e3f08e75544f254c182afe2",
        "to": "0x429ba70129df741b2ca2a85bc3a2a3328e5c09b4",
        "gas": "0x8720c",
        "value": "0x0",
        "input": "0xdd46508f00000000000000000000000000000000000000000000000000000000000000400000000000000000000000000000000000000000000000000000000068caf7d40000000000000000000000000000000000000000000000000000000000000400000000000000000000000000000000000000000000000000000000000000004000000000000000000000000000000000000000000000000000000000000000800000000000000000000000000000000000000000000000000000000000000004020d14140000000000000000000000000000000000000000000000000000000000000000000000000000000000000000000000000000000000000000000000040000000000000000000000000000000000000000000000000000000000000080000000000000000000000000000000000000000000000000000000000000024000000000000000000000000000000000000000000000000000000000000002a0000000000000000000000000000000000000000000000000000000000000030000000000000000000000000000000000000000000000000000000000000001a00000000000000000000000000e42efc341d5ef175db4ce9516d13eecc379e9ec000000000000000000000000f7ec23380bb7adedaf4c69239b66e444b4aaffdb0000000000000000000000000000000000000000000000000000000000000bb8000000000000000000000000000000000000000000000000000000000000003c0000000000000000000000000000000000000000000000000000000000000000fffffffffffffffffffffffffffffffffffffffffffffffffffffffffffffda800000000000000000000000000000000000000000000000000000000000002580000000000000000000000000000000000000000000000b76ef6d7d1e8594b010000000000000000000000000000000000000000000000056bc75e2d631000010000000000000000000000000000000000000000000000056bc75e2d631000010000000000000000000000003e723f6b81431f325e3f08e75544f254c182afe20000000000000000000000000000000000000000000000000000000000000180000000000000000000000000000000000000000000000000000000000000000000000000000000000000000000000000000000000000000000000000000000400000000000000000000000000e42efc341d5ef175db4ce9516d13eecc379e9ec000000000000000000000000f7ec23380bb7adedaf4c69239b66e444b4aaffdb00000000000000000000000000000000000000000000000000000000000000400000000000000000000000000e42efc341d5ef175db4ce9516d13eecc379e9ec0000000000000000000000003e723f6b81431f325e3f08e75544f254c182afe20000000000000000000000000000000000000000000000000000000000000040000000000000000000000000f7ec23380bb7adedaf4c69239b66e444b4aaffdb0000000000000000000000003e723f6b81431f325e3f08e75544f254c182afe2",
        "nonce": "0x579",
        "chainId": "0xaa36a7"
      },
      "additionalContracts": [],
      "isFixedGasLimit": false
    }
  ],
  "receipts": [
    {
      "status": "0x1",
      "cumulativeGasUsed": "0x1196e60",
      "logs": [
        {
          "address": "0xe03a1074c86cfedd5c142c4f04f1a1536e203543",
          "topics": [
            "0xdd466e674ea557f56295e2d0218a125ea4b4f0f6f3307b95f85e6110838d6438",
            "0x41a36aeca49dedb0ecb60f7f1051a4f6c02ccd756217aa04964655d2f245623c",
            "0x0000000000000000000000000e42efc341d5ef175db4ce9516d13eecc379e9ec",
            "0x000000000000000000000000f7ec23380bb7adedaf4c69239b66e444b4aaffdb"
          ],
          "data": "0x0000000000000000000000000000000000000000000000000000000000000bb8000000000000000000000000000000000000000000000000000000000000003c000000000000000000000000000000000000000000000000000000000000000000000000000000000000000000000000000000010000000000000000000000000000000000000000000000000000000000000000000000000000000000000000",
          "blockHash": "0x776c2d4d5f0b7b1f07ca9f7cac25c9dd460b8bd2cd4dfb0ff1916938372b0fc9",
          "blockNumber": "0x8cbd2b",
          "blockTimestamp": "0x68caf7b0",
          "transactionHash": "0x831bb218e785a4d65a9a35402d15a8c73fc90aa0762318e1edaf7554f199b794",
          "transactionIndex": "0x55",
          "logIndex": "0x12f",
          "removed": false
        }
      ],
      "logsBloom": "0x00000000000000000000000000000000000000000000000000000000200000000000000000000000000000000000000000000100000000000000000000000000000000000000000000000000000000000000000000000000000000000000000000040000000000000000000000000000000000000000104000008000000000000000000000000008000010000000000000000001008200000000000000200000000000000000000000000000000000000000000000000000000000000000000000000000000000000000000000100000000400000000000000000000000000001000000000000000000000000000000000000000000000000000000000000000",
      "type": "0x2",
      "transactionHash": "0x831bb218e785a4d65a9a35402d15a8c73fc90aa0762318e1edaf7554f199b794",
      "transactionIndex": "0x55",
      "blockHash": "0x776c2d4d5f0b7b1f07ca9f7cac25c9dd460b8bd2cd4dfb0ff1916938372b0fc9",
      "blockNumber": "0x8cbd2b",
      "gasUsed": "0xdb17",
      "effectiveGasPrice": "0x2e77a0f",
      "from": "0x3e723f6b81431f325e3f08e75544f254c182afe2",
      "to": "0x429ba70129df741b2ca2a85bc3a2a3328e5c09b4",
      "contractAddress": null
    },
    {
      "status": "0x1",
      "cumulativeGasUsed": "0x119d561",
      "logs": [
        {
          "address": "0xf7ec23380bb7adedaf4c69239b66e444b4aaffdb",
          "topics": [
            "0x8c5be1e5ebec7d5bd14f71427d1e84f3dd0314c0f7b2291e5b200ac8c7c3b925",
            "0x0000000000000000000000003e723f6b81431f325e3f08e75544f254c182afe2",
            "0x0000000000000000000000000faf3047dc05328c5251a7beef8408c4d3a23880"
          ],
          "data": "0xffffffffffffffffffffffffffffffffffffffffffffffffffffffffffffffff",
          "blockHash": "0x776c2d4d5f0b7b1f07ca9f7cac25c9dd460b8bd2cd4dfb0ff1916938372b0fc9",
          "blockNumber": "0x8cbd2b",
          "blockTimestamp": "0x68caf7b0",
          "transactionHash": "0x4a5f55e83ce0f31a65fa4fa14249fb958ed74c76b830c105cbb954f0f74f822e",
          "transactionIndex": "0x56",
          "logIndex": "0x130",
          "removed": false
        }
      ],
      "logsBloom": "0x00000000000000000000000000000000000000000000040000000000000000000000000000000000000000000000000020000000080000000000000000200000000010000000000000000100000000000000000000000000000000000000000000000000000000000000000000000000000100000000000000000000000000000000000000000000000000000000000000000000000000000000000000000000020000000000000080000000000000000000000000000000400010000000000000000000000000000000000000000000000000000000000000000000000000000010000000000000000000000000000000000000000000000000000000000000",
      "type": "0x2",
      "transactionHash": "0x4a5f55e83ce0f31a65fa4fa14249fb958ed74c76b830c105cbb954f0f74f822e",
      "transactionIndex": "0x56",
      "blockHash": "0x776c2d4d5f0b7b1f07ca9f7cac25c9dd460b8bd2cd4dfb0ff1916938372b0fc9",
      "blockNumber": "0x8cbd2b",
      "gasUsed": "0x6701",
      "effectiveGasPrice": "0x2e77a0f",
      "from": "0x3e723f6b81431f325e3f08e75544f254c182afe2",
      "to": "0xf7ec23380bb7adedaf4c69239b66e444b4aaffdb",
      "contractAddress": null
    },
    {
      "status": "0x1",
      "cumulativeGasUsed": "0x11a3c62",
      "logs": [
        {
          "address": "0x0e42efc341d5ef175db4ce9516d13eecc379e9ec",
          "topics": [
            "0x8c5be1e5ebec7d5bd14f71427d1e84f3dd0314c0f7b2291e5b200ac8c7c3b925",
            "0x0000000000000000000000003e723f6b81431f325e3f08e75544f254c182afe2",
            "0x0000000000000000000000000faf3047dc05328c5251a7beef8408c4d3a23880"
          ],
          "data": "0xffffffffffffffffffffffffffffffffffffffffffffffffffffffffffffffff",
          "blockHash": "0x776c2d4d5f0b7b1f07ca9f7cac25c9dd460b8bd2cd4dfb0ff1916938372b0fc9",
          "blockNumber": "0x8cbd2b",
          "blockTimestamp": "0x68caf7b0",
          "transactionHash": "0x0805577a39fa2200bb4629e8963cd61f8bd62b65d54ef0784261ea5f4b7cec7f",
          "transactionIndex": "0x57",
          "logIndex": "0x131",
          "removed": false
        }
      ],
      "logsBloom": "0x00000000080000000000000000000000000000000000000000000000000000000000000000000000000000000000080000000000080000000000000000200000000010000000000000000008000000000000000000000000000000000000000000000000000000000000000000000000000100000000000000000000000000000000000000000000000000000000000000000000000000000000000000000000020000000000000080000000000000000000000000000000400010000000000000000000000000000000000000000000000000000000000000000000000000000010000000000000000000000000000000000000000000000000000000000000",
      "type": "0x2",
      "transactionHash": "0x0805577a39fa2200bb4629e8963cd61f8bd62b65d54ef0784261ea5f4b7cec7f",
      "transactionIndex": "0x57",
      "blockHash": "0x776c2d4d5f0b7b1f07ca9f7cac25c9dd460b8bd2cd4dfb0ff1916938372b0fc9",
      "blockNumber": "0x8cbd2b",
      "gasUsed": "0x6701",
      "effectiveGasPrice": "0x2e77a0f",
      "from": "0x3e723f6b81431f325e3f08e75544f254c182afe2",
      "to": "0x0e42efc341d5ef175db4ce9516d13eecc379e9ec",
      "contractAddress": null
    },
    {
      "status": "0x1",
      "cumulativeGasUsed": "0x11aa363",
      "logs": [
        {
          "address": "0xf7ec23380bb7adedaf4c69239b66e444b4aaffdb",
          "topics": [
            "0x8c5be1e5ebec7d5bd14f71427d1e84f3dd0314c0f7b2291e5b200ac8c7c3b925",
            "0x0000000000000000000000003e723f6b81431f325e3f08e75544f254c182afe2",
            "0x000000000000000000000000e03a1074c86cfedd5c142c4f04f1a1536e203543"
          ],
          "data": "0xffffffffffffffffffffffffffffffffffffffffffffffffffffffffffffffff",
          "blockHash": "0x776c2d4d5f0b7b1f07ca9f7cac25c9dd460b8bd2cd4dfb0ff1916938372b0fc9",
          "blockNumber": "0x8cbd2b",
          "blockTimestamp": "0x68caf7b0",
          "transactionHash": "0x18350d5a2228f3165eaa4a917db3add39e4a0f7dd11a98cf588d42a4ce153aee",
          "transactionIndex": "0x58",
          "logIndex": "0x132",
          "removed": false
        }
      ],
      "logsBloom": "0x00000000000000000000000000000000000000000000040000000000000000000000000000000000000000000000000020000000080000000000000000200000000000000000000000000100000000000000000000000000000000000000000000000000000000000000000080000000000000000000000000000000000000000000000000000000000010000000000000000000000000000000000000000000020000000000000080000000000000000000000000000000000010000000000000000000000000000000000000000000000000000000000000001000000000000010000000000000000000000000000000000000000000000000000000000000",
      "type": "0x2",
      "transactionHash": "0x18350d5a2228f3165eaa4a917db3add39e4a0f7dd11a98cf588d42a4ce153aee",
      "transactionIndex": "0x58",
      "blockHash": "0x776c2d4d5f0b7b1f07ca9f7cac25c9dd460b8bd2cd4dfb0ff1916938372b0fc9",
      "blockNumber": "0x8cbd2b",
      "gasUsed": "0x6701",
      "effectiveGasPrice": "0x2e77a0f",
      "from": "0x3e723f6b81431f325e3f08e75544f254c182afe2",
      "to": "0xf7ec23380bb7adedaf4c69239b66e444b4aaffdb",
      "contractAddress": null
    },
    {
      "status": "0x1",
      "cumulativeGasUsed": "0x11b0a64",
      "logs": [
        {
          "address": "0x0e42efc341d5ef175db4ce9516d13eecc379e9ec",
          "topics": [
            "0x8c5be1e5ebec7d5bd14f71427d1e84f3dd0314c0f7b2291e5b200ac8c7c3b925",
            "0x0000000000000000000000003e723f6b81431f325e3f08e75544f254c182afe2",
            "0x000000000000000000000000e03a1074c86cfedd5c142c4f04f1a1536e203543"
          ],
          "data": "0xffffffffffffffffffffffffffffffffffffffffffffffffffffffffffffffff",
          "blockHash": "0x776c2d4d5f0b7b1f07ca9f7cac25c9dd460b8bd2cd4dfb0ff1916938372b0fc9",
          "blockNumber": "0x8cbd2b",
          "blockTimestamp": "0x68caf7b0",
          "transactionHash": "0x14a018c918e8c84915198c1f05e620f983abd3f70d6cc7671af4375358305687",
          "transactionIndex": "0x59",
          "logIndex": "0x133",
          "removed": false
        }
      ],
      "logsBloom": "0x00000000080000000000000000000000000000000000000000000000000000000000000000000000000000000000080000000000080000000000000000200000000000000000000000000008000000000000000000000000000000000000000000000000000000000000000080000000000000000000000000000000000000000000000000000000000010000000000000000000000000000000000000000000020000000000000080000000000000000000000000000000000010000000000000000000000000000000000000000000000000000000000000001000000000000010000000000000000000000000000000000000000000000000000000000000",
      "type": "0x2",
      "transactionHash": "0x14a018c918e8c84915198c1f05e620f983abd3f70d6cc7671af4375358305687",
      "transactionIndex": "0x59",
      "blockHash": "0x776c2d4d5f0b7b1f07ca9f7cac25c9dd460b8bd2cd4dfb0ff1916938372b0fc9",
      "blockNumber": "0x8cbd2b",
      "gasUsed": "0x6701",
      "effectiveGasPrice": "0x2e77a0f",
      "from": "0x3e723f6b81431f325e3f08e75544f254c182afe2",
      "to": "0x0e42efc341d5ef175db4ce9516d13eecc379e9ec",
      "contractAddress": null
    },
    {
      "status": "0x1",
      "cumulativeGasUsed": "0x11b7165",
      "logs": [
        {
          "address": "0xf7ec23380bb7adedaf4c69239b66e444b4aaffdb",
          "topics": [
            "0x8c5be1e5ebec7d5bd14f71427d1e84f3dd0314c0f7b2291e5b200ac8c7c3b925",
            "0x0000000000000000000000003e723f6b81431f325e3f08e75544f254c182afe2",
            "0x000000000000000000000000429ba70129df741b2ca2a85bc3a2a3328e5c09b4"
          ],
          "data": "0xffffffffffffffffffffffffffffffffffffffffffffffffffffffffffffffff",
          "blockHash": "0x776c2d4d5f0b7b1f07ca9f7cac25c9dd460b8bd2cd4dfb0ff1916938372b0fc9",
          "blockNumber": "0x8cbd2b",
          "blockTimestamp": "0x68caf7b0",
          "transactionHash": "0x7a655ff1b3c6e54b351a4652e0aa9b9a0edcf271889094f27933a6b93aad68f2",
          "transactionIndex": "0x5a",
          "logIndex": "0x134",
          "removed": false
        }
      ],
      "logsBloom": "0x00000000000000000000000000000000000000000000040000000000000000000000000000000040080000000000000020000000080000000000000000200000000000000000000000000100000000000000000000000000000000000000000000000000000000000000000000000000000000000000000000000800000000000000000000000000000000000000000000000000000000000000000000000000020000000000000080000000000000000000000000000000000010000000000000000000000000000000000000000000000000000000000000000000000000000010000000000000000000000000000000000000000000000000000000000000",
      "type": "0x2",
      "transactionHash": "0x7a655ff1b3c6e54b351a4652e0aa9b9a0edcf271889094f27933a6b93aad68f2",
      "transactionIndex": "0x5a",
      "blockHash": "0x776c2d4d5f0b7b1f07ca9f7cac25c9dd460b8bd2cd4dfb0ff1916938372b0fc9",
      "blockNumber": "0x8cbd2b",
      "gasUsed": "0x6701",
      "effectiveGasPrice": "0x2e77a0f",
      "from": "0x3e723f6b81431f325e3f08e75544f254c182afe2",
      "to": "0xf7ec23380bb7adedaf4c69239b66e444b4aaffdb",
      "contractAddress": null
    },
    {
      "status": "0x1",
      "cumulativeGasUsed": "0x11bd866",
      "logs": [
        {
          "address": "0x0e42efc341d5ef175db4ce9516d13eecc379e9ec",
          "topics": [
            "0x8c5be1e5ebec7d5bd14f71427d1e84f3dd0314c0f7b2291e5b200ac8c7c3b925",
            "0x0000000000000000000000003e723f6b81431f325e3f08e75544f254c182afe2",
            "0x000000000000000000000000429ba70129df741b2ca2a85bc3a2a3328e5c09b4"
          ],
          "data": "0xffffffffffffffffffffffffffffffffffffffffffffffffffffffffffffffff",
          "blockHash": "0x776c2d4d5f0b7b1f07ca9f7cac25c9dd460b8bd2cd4dfb0ff1916938372b0fc9",
          "blockNumber": "0x8cbd2b",
          "blockTimestamp": "0x68caf7b0",
          "transactionHash": "0xff99affaea6fe1d55f3e7112e2c8b62f8fdb737e8a8b5746b0c830eaf4f2ffc4",
          "transactionIndex": "0x5b",
          "logIndex": "0x135",
          "removed": false
        }
      ],
      "logsBloom": "0x00000000080000000000000000000000000000000000000000000000000000000000000000000040080000000000080000000000080000000000000000200000000000000000000000000008000000000000000000000000000000000000000000000000000000000000000000000000000000000000000000000800000000000000000000000000000000000000000000000000000000000000000000000000020000000000000080000000000000000000000000000000000010000000000000000000000000000000000000000000000000000000000000000000000000000010000000000000000000000000000000000000000000000000000000000000",
      "type": "0x2",
      "transactionHash": "0xff99affaea6fe1d55f3e7112e2c8b62f8fdb737e8a8b5746b0c830eaf4f2ffc4",
      "transactionIndex": "0x5b",
      "blockHash": "0x776c2d4d5f0b7b1f07ca9f7cac25c9dd460b8bd2cd4dfb0ff1916938372b0fc9",
      "blockNumber": "0x8cbd2b",
      "gasUsed": "0x6701",
      "effectiveGasPrice": "0x2e77a0f",
      "from": "0x3e723f6b81431f325e3f08e75544f254c182afe2",
      "to": "0x0e42efc341d5ef175db4ce9516d13eecc379e9ec",
      "contractAddress": null
    },
    {
      "status": "0x1",
      "cumulativeGasUsed": "0x11c3f2b",
      "logs": [
        {
          "address": "0xf7ec23380bb7adedaf4c69239b66e444b4aaffdb",
          "topics": [
            "0x8c5be1e5ebec7d5bd14f71427d1e84f3dd0314c0f7b2291e5b200ac8c7c3b925",
            "0x0000000000000000000000003e723f6b81431f325e3f08e75544f254c182afe2",
            "0x000000000000000000000000000000000022d473030f116ddee9f6b43ac78ba3"
          ],
          "data": "0xffffffffffffffffffffffffffffffffffffffffffffffffffffffffffffffff",
          "blockHash": "0x776c2d4d5f0b7b1f07ca9f7cac25c9dd460b8bd2cd4dfb0ff1916938372b0fc9",
          "blockNumber": "0x8cbd2b",
          "blockTimestamp": "0x68caf7b0",
          "transactionHash": "0xf959461a0cb3af065843947badb377c82419d3120d22b26478989b74eba6a6ec",
          "transactionIndex": "0x5c",
          "logIndex": "0x136",
          "removed": false
        }
      ],
      "logsBloom": "0x00000000000000000000000000000000000000000000040000000000000000000000000000000000000000000000000020000000880000000000000000200000000000000000000000004100000000000000000000000800000000000000000000000000000000000000000000000000000000000000000000000000000000000000000000000000000000000000000000000000000000000000000000000000020000000000000080000000000000000000000000000000000010000000000000000000000000000000000000000000000000000000000000000000000000000010000000000000000000000000000000000000000000000000000000000000",
      "type": "0x2",
      "transactionHash": "0xf959461a0cb3af065843947badb377c82419d3120d22b26478989b74eba6a6ec",
      "transactionIndex": "0x5c",
      "blockHash": "0x776c2d4d5f0b7b1f07ca9f7cac25c9dd460b8bd2cd4dfb0ff1916938372b0fc9",
      "blockNumber": "0x8cbd2b",
      "gasUsed": "0x66c5",
      "effectiveGasPrice": "0x2e77a0f",
      "from": "0x3e723f6b81431f325e3f08e75544f254c182afe2",
      "to": "0xf7ec23380bb7adedaf4c69239b66e444b4aaffdb",
      "contractAddress": null
    },
    {
      "status": "0x1",
      "cumulativeGasUsed": "0x11cac39",
      "logs": [
        {
          "address": "0x000000000022d473030f116ddee9f6b43ac78ba3",
          "topics": [
            "0xda9fa7c1b00402c17d0161b249b1ab8bbec047c5a52207b9c112deffd817036b",
            "0x0000000000000000000000003e723f6b81431f325e3f08e75544f254c182afe2",
            "0x000000000000000000000000f7ec23380bb7adedaf4c69239b66e444b4aaffdb",
            "0x000000000000000000000000429ba70129df741b2ca2a85bc3a2a3328e5c09b4"
          ],
          "data": "0x000000000000000000000000ffffffffffffffffffffffffffffffffffffffff0000000000000000000000000000000000000000000000000000ffffffffffff",
          "blockHash": "0x776c2d4d5f0b7b1f07ca9f7cac25c9dd460b8bd2cd4dfb0ff1916938372b0fc9",
          "blockNumber": "0x8cbd2b",
          "blockTimestamp": "0x68caf7b0",
          "transactionHash": "0x3e8e047dab2b0ceb30988fc4cbb0cf601f40e0c6af78d383915821afd43bbe3e",
          "transactionIndex": "0x5d",
          "logIndex": "0x137",
          "removed": false
        }
      ],
      "logsBloom": "0x00010000000000000000000000000000000000000000000000000000000000000000000000000040080000000000000000000000080000000000000000080000000000000000000000000000000000000000000000000000000000000000000000040000000000000000000000000000000000000000000000008800000000000020000000000000000000000000000000000000000000000000000000000000000000000000000080000000000000000000000000000000000010080000000000000000000000000000000000000000000400000000000040000000000000000000000000000000000000000000000000000000000000000000000000000400",
      "type": "0x2",
      "transactionHash": "0x3e8e047dab2b0ceb30988fc4cbb0cf601f40e0c6af78d383915821afd43bbe3e",
      "transactionIndex": "0x5d",
      "blockHash": "0x776c2d4d5f0b7b1f07ca9f7cac25c9dd460b8bd2cd4dfb0ff1916938372b0fc9",
      "blockNumber": "0x8cbd2b",
      "gasUsed": "0x6d0e",
      "effectiveGasPrice": "0x2e77a0f",
      "from": "0x3e723f6b81431f325e3f08e75544f254c182afe2",
      "to": "0x000000000022d473030f116ddee9f6b43ac78ba3",
      "contractAddress": null
    },
    {
      "status": "0x1",
      "cumulativeGasUsed": "0x11d12fe",
      "logs": [
        {
          "address": "0x0e42efc341d5ef175db4ce9516d13eecc379e9ec",
          "topics": [
            "0x8c5be1e5ebec7d5bd14f71427d1e84f3dd0314c0f7b2291e5b200ac8c7c3b925",
            "0x0000000000000000000000003e723f6b81431f325e3f08e75544f254c182afe2",
            "0x000000000000000000000000000000000022d473030f116ddee9f6b43ac78ba3"
          ],
          "data": "0xffffffffffffffffffffffffffffffffffffffffffffffffffffffffffffffff",
          "blockHash": "0x776c2d4d5f0b7b1f07ca9f7cac25c9dd460b8bd2cd4dfb0ff1916938372b0fc9",
          "blockNumber": "0x8cbd2b",
          "blockTimestamp": "0x68caf7b0",
          "transactionHash": "0x8d49a5b53e256d69af6dddc108674898c999af7545114c4f77ae5ea2349f649c",
          "transactionIndex": "0x5e",
          "logIndex": "0x138",
          "removed": false
        }
      ],
      "logsBloom": "0x00000000080000000000000000000000000000000000000000000000000000000000000000000000000000000000080000000000880000000000000000200000000000000000000000004008000000000000000000000800000000000000000000000000000000000000000000000000000000000000000000000000000000000000000000000000000000000000000000000000000000000000000000000000020000000000000080000000000000000000000000000000000010000000000000000000000000000000000000000000000000000000000000000000000000000010000000000000000000000000000000000000000000000000000000000000",
      "type": "0x2",
      "transactionHash": "0x8d49a5b53e256d69af6dddc108674898c999af7545114c4f77ae5ea2349f649c",
      "transactionIndex": "0x5e",
      "blockHash": "0x776c2d4d5f0b7b1f07ca9f7cac25c9dd460b8bd2cd4dfb0ff1916938372b0fc9",
      "blockNumber": "0x8cbd2b",
      "gasUsed": "0x66c5",
      "effectiveGasPrice": "0x2e77a0f",
      "from": "0x3e723f6b81431f325e3f08e75544f254c182afe2",
      "to": "0x0e42efc341d5ef175db4ce9516d13eecc379e9ec",
      "contractAddress": null
    },
    {
      "status": "0x1",
      "cumulativeGasUsed": "0x11d800c",
      "logs": [
        {
          "address": "0x000000000022d473030f116ddee9f6b43ac78ba3",
          "topics": [
            "0xda9fa7c1b00402c17d0161b249b1ab8bbec047c5a52207b9c112deffd817036b",
            "0x0000000000000000000000003e723f6b81431f325e3f08e75544f254c182afe2",
            "0x0000000000000000000000000e42efc341d5ef175db4ce9516d13eecc379e9ec",
            "0x000000000000000000000000429ba70129df741b2ca2a85bc3a2a3328e5c09b4"
          ],
          "data": "0x000000000000000000000000ffffffffffffffffffffffffffffffffffffffff0000000000000000000000000000000000000000000000000000ffffffffffff",
          "blockHash": "0x776c2d4d5f0b7b1f07ca9f7cac25c9dd460b8bd2cd4dfb0ff1916938372b0fc9",
          "blockNumber": "0x8cbd2b",
          "blockTimestamp": "0x68caf7b0",
          "transactionHash": "0xb89901f830d951414d71cbfad6d8b0474da5af34f42a6d6ff76f674cc2d02a57",
          "transactionIndex": "0x5f",
          "logIndex": "0x139",
          "removed": false
        }
      ],
      "logsBloom": "0x00010000000000000000000000000000000000000000000000000000000000000000000000000040080000000000000000000000080000000000000000080000000000000000000000000000000000000000000000000000000000000000000000000000000000000000000000000000000000000000004000000800000000000020000000000000000010000000000000000000000000000000000000000000000000000000000080000000000000000000000000000000000010080000000000000000000000000000000000100000000000000000000040000000000000000000000000000000000000000000000000000000000000000000000000000400",
      "type": "0x2",
      "transactionHash": "0xb89901f830d951414d71cbfad6d8b0474da5af34f42a6d6ff76f674cc2d02a57",
      "transactionIndex": "0x5f",
      "blockHash": "0x776c2d4d5f0b7b1f07ca9f7cac25c9dd460b8bd2cd4dfb0ff1916938372b0fc9",
      "blockNumber": "0x8cbd2b",
      "gasUsed": "0x6d0e",
      "effectiveGasPrice": "0x2e77a0f",
      "from": "0x3e723f6b81431f325e3f08e75544f254c182afe2",
      "to": "0x000000000022d473030f116ddee9f6b43ac78ba3",
      "contractAddress": null
    },
    {
      "status": "0x1",
      "cumulativeGasUsed": "0x123465f",
      "logs": [
        {
          "address": "0x429ba70129df741b2ca2a85bc3a2a3328e5c09b4",
          "topics": [
            "0xddf252ad1be2c89b69c2b068fc378daa952ba7f163c4a11628f55a4df523b3ef",
            "0x0000000000000000000000000000000000000000000000000000000000000000",
            "0x0000000000000000000000003e723f6b81431f325e3f08e75544f254c182afe2",
            "0x000000000000000000000000000000000000000000000000000000000000431d"
          ],
          "data": "0x",
          "blockHash": "0x776c2d4d5f0b7b1f07ca9f7cac25c9dd460b8bd2cd4dfb0ff1916938372b0fc9",
          "blockNumber": "0x8cbd2b",
          "blockTimestamp": "0x68caf7b0",
          "transactionHash": "0x9838eeb097a500aa6a11286b8afa96dde6746c28a4b22fc2d31517e863e85b00",
          "transactionIndex": "0x60",
          "logIndex": "0x13a",
          "removed": false
        },
        {
          "address": "0xe03a1074c86cfedd5c142c4f04f1a1536e203543",
          "topics": [
            "0xf208f4912782fd25c7f114ca3723a2d5dd6f3bcc3ac8db5af63baa85f711d5ec",
            "0x41a36aeca49dedb0ecb60f7f1051a4f6c02ccd756217aa04964655d2f245623c",
            "0x000000000000000000000000429ba70129df741b2ca2a85bc3a2a3328e5c09b4"
          ],
          "data": "0xfffffffffffffffffffffffffffffffffffffffffffffffffffffffffffffda800000000000000000000000000000000000000000000000000000000000002580000000000000000000000000000000000000000000000b76ef6d7d1e8594b01000000000000000000000000000000000000000000000000000000000000431d",
          "blockHash": "0x776c2d4d5f0b7b1f07ca9f7cac25c9dd460b8bd2cd4dfb0ff1916938372b0fc9",
          "blockNumber": "0x8cbd2b",
          "blockTimestamp": "0x68caf7b0",
          "transactionHash": "0x9838eeb097a500aa6a11286b8afa96dde6746c28a4b22fc2d31517e863e85b00",
          "transactionIndex": "0x60",
          "logIndex": "0x13b",
          "removed": false
        },
        {
          "address": "0x0e42efc341d5ef175db4ce9516d13eecc379e9ec",
          "topics": [
            "0xddf252ad1be2c89b69c2b068fc378daa952ba7f163c4a11628f55a4df523b3ef",
            "0x0000000000000000000000003e723f6b81431f325e3f08e75544f254c182afe2",
            "0x000000000000000000000000e03a1074c86cfedd5c142c4f04f1a1536e203543"
          ],
          "data": "0x0000000000000000000000000000000000000000000000056bc75e2d63100000",
          "blockHash": "0x776c2d4d5f0b7b1f07ca9f7cac25c9dd460b8bd2cd4dfb0ff1916938372b0fc9",
          "blockNumber": "0x8cbd2b",
          "blockTimestamp": "0x68caf7b0",
          "transactionHash": "0x9838eeb097a500aa6a11286b8afa96dde6746c28a4b22fc2d31517e863e85b00",
          "transactionIndex": "0x60",
          "logIndex": "0x13c",
          "removed": false
        },
        {
          "address": "0xf7ec23380bb7adedaf4c69239b66e444b4aaffdb",
          "topics": [
            "0xddf252ad1be2c89b69c2b068fc378daa952ba7f163c4a11628f55a4df523b3ef",
            "0x0000000000000000000000003e723f6b81431f325e3f08e75544f254c182afe2",
            "0x000000000000000000000000e03a1074c86cfedd5c142c4f04f1a1536e203543"
          ],
          "data": "0x0000000000000000000000000000000000000000000000056bc75e2d63100000",
          "blockHash": "0x776c2d4d5f0b7b1f07ca9f7cac25c9dd460b8bd2cd4dfb0ff1916938372b0fc9",
          "blockNumber": "0x8cbd2b",
          "blockTimestamp": "0x68caf7b0",
          "transactionHash": "0x9838eeb097a500aa6a11286b8afa96dde6746c28a4b22fc2d31517e863e85b00",
          "transactionIndex": "0x60",
          "logIndex": "0x13d",
          "removed": false
        }
      ],
      "logsBloom": "0x000000000800000000000010000000000000000000000400000000002800000000000000000000400800000000000800200001000c0000000000000000000000000000000000000000000108000000000000000000000000000000000000000000000000020000000000000080000800000000000000500000000810000000000000000001000000000010000000000000000000008200000000000000000000000004000000000080000000000000000000000000400000000010000000000400000002000000000000000000000000000000000000000000001000000020001000000000000000000000000000000004000000000000000000000000000000",
      "type": "0x2",
      "transactionHash": "0x9838eeb097a500aa6a11286b8afa96dde6746c28a4b22fc2d31517e863e85b00",
      "transactionIndex": "0x60",
      "blockHash": "0x776c2d4d5f0b7b1f07ca9f7cac25c9dd460b8bd2cd4dfb0ff1916938372b0fc9",
      "blockNumber": "0x8cbd2b",
      "gasUsed": "0x5c653",
      "effectiveGasPrice": "0x2e77a0f",
      "from": "0x3e723f6b81431f325e3f08e75544f254c182afe2",
      "to": "0x429ba70129df741b2ca2a85bc3a2a3328e5c09b4",
      "contractAddress": null
    }
  ],
  "libraries": [],
  "pending": [],
  "returns": {},
  "timestamp": 1758132146268,
  "chain": 11155111,
  "commit": "7b9c819"
}