{
  "transactions": [
    {
      "hash": "0x588731a5ac7b91bbe4cf75507ee97b822a20316708637a0a9c9047f052eba1d3",
      "transactionType": "CALL",
      "contractName": null,
      "contractAddress": "0x3e26f2e91b25ff5a9f9c54772ff616b1ea7c9e4f",
      "function": "approve(address,uint256)",
      "arguments": [
        "0x000000000022D473030F116dDEE9F6B43aC78BA3",
        "115792089237316195423570985008687907853269984665640564039457584007913129639935"
      ],
      "transaction": {
        "from": "0x3e723f6b81431f325e3f08e75544f254c182afe2",
        "to": "0x3e26f2e91b25ff5a9f9c54772ff616b1ea7c9e4f",
        "gas": "0xfe8e",
        "value": "0x0",
        "input": "0x095ea7b3000000000000000000000000000000000022d473030f116ddee9f6b43ac78ba3ffffffffffffffffffffffffffffffffffffffffffffffffffffffffffffffff",
        "nonce": "0x44a",
        "chainId": "0xaa36a7"
      },
      "additionalContracts": [],
      "isFixedGasLimit": false
    },
    {
      "hash": "0x5fb7e4a622460dfc3a40ab37d316bec592e79d548d445bc3e360a825ad766b70",
      "transactionType": "CALL",
      "contractName": null,
      "contractAddress": "0x000000000022d473030f116ddee9f6b43ac78ba3",
      "function": "approve(address,address,uint160,uint48)",
      "arguments": [
        "0x3e26F2e91B25Ff5A9F9C54772FF616B1ea7c9e4F",
        "0x429ba70129df741B2Ca2a85BC3A2a3328e5c09b4",
        "1461501637330902918203684832716283019655932542975",
        "281474976710655"
      ],
      "transaction": {
        "from": "0x3e723f6b81431f325e3f08e75544f254c182afe2",
        "to": "0x000000000022d473030f116ddee9f6b43ac78ba3",
        "gas": "0x1112d",
        "value": "0x0",
        "input": "0x87517c450000000000000000000000003e26f2e91b25ff5a9f9c54772ff616b1ea7c9e4f000000000000000000000000429ba70129df741b2ca2a85bc3a2a3328e5c09b4000000000000000000000000ffffffffffffffffffffffffffffffffffffffff0000000000000000000000000000000000000000000000000000ffffffffffff",
        "nonce": "0x44b",
        "chainId": "0xaa36a7"
      },
      "additionalContracts": [],
      "isFixedGasLimit": false
    },
    {
      "hash": "0xa782adf723bf0e5121fb46b6fd6c1f6c7e90f5b4fb7166995979cbeff085fd67",
      "transactionType": "CALL",
      "contractName": null,
      "contractAddress": "0xda96ef73bd5422c46c12c19d45011a1daf3cb61c",
      "function": "approve(address,uint256)",
      "arguments": [
        "0x000000000022D473030F116dDEE9F6B43aC78BA3",
        "115792089237316195423570985008687907853269984665640564039457584007913129639935"
      ],
      "transaction": {
        "from": "0x3e723f6b81431f325e3f08e75544f254c182afe2",
        "to": "0xda96ef73bd5422c46c12c19d45011a1daf3cb61c",
        "gas": "0xfe8e",
        "value": "0x0",
        "input": "0x095ea7b3000000000000000000000000000000000022d473030f116ddee9f6b43ac78ba3ffffffffffffffffffffffffffffffffffffffffffffffffffffffffffffffff",
        "nonce": "0x44c",
        "chainId": "0xaa36a7"
      },
      "additionalContracts": [],
      "isFixedGasLimit": false
    },
    {
      "hash": "0x0d347a021fe139f4ea3091e81b97ece4aa8f8c4c662d2b325ef3a36704a58eca",
      "transactionType": "CALL",
      "contractName": null,
      "contractAddress": "0x000000000022d473030f116ddee9f6b43ac78ba3",
      "function": "approve(address,address,uint160,uint48)",
      "arguments": [
        "0xDa96Ef73Bd5422c46c12C19D45011a1dAf3CB61C",
        "0x429ba70129df741B2Ca2a85BC3A2a3328e5c09b4",
        "1461501637330902918203684832716283019655932542975",
        "281474976710655"
      ],
      "transaction": {
        "from": "0x3e723f6b81431f325e3f08e75544f254c182afe2",
        "to": "0x000000000022d473030f116ddee9f6b43ac78ba3",
        "gas": "0x1112d",
        "value": "0x0",
        "input": "0x87517c45000000000000000000000000da96ef73bd5422c46c12c19d45011a1daf3cb61c000000000000000000000000429ba70129df741b2ca2a85bc3a2a3328e5c09b4000000000000000000000000ffffffffffffffffffffffffffffffffffffffff0000000000000000000000000000000000000000000000000000ffffffffffff",
        "nonce": "0x44d",
        "chainId": "0xaa36a7"
      },
      "additionalContracts": [],
      "isFixedGasLimit": false
    },
    {
      "hash": "0xac0a17530be854d94a3050d18b3ca63a1ddaaf4100424f56714abcda72ffe902",
      "transactionType": "CALL",
      "contractName": null,
      "contractAddress": "0x429ba70129df741b2ca2a85bc3a2a3328e5c09b4",
      "function": "multicall(bytes[])",
      "arguments": [
        "[0xf70204050000000000000000000000003e26f2e91b25ff5a9f9c54772ff616b1ea7c9e4f000000000000000000000000da96ef73bd5422c46c12c19d45011a1daf3cb61c0000000000000000000000000000000000000000000000000000000000000bb8000000000000000000000000000000000000000000000000000000000000003c0000000000000000000000009a4cff2dba4b9c86f352ca7358a157171d534ac0000000000000000000000000000000000000000100000000000000000000000000000000000000000000000000000000000000000000000000000000000000e00000000000000000000000000000000000000000000000000000000000000000, 0xdd46508f00000000000000000000000000000000000000000000000000000000000000400000000000000000000000000000000000000000000000000000000068c78d9c0000000000000000000000000000000000000000000000000000000000000400000000000000000000000000000000000000000000000000000000000000004000000000000000000000000000000000000000000000000000000000000000800000000000000000000000000000000000000000000000000000000000000004020d14140000000000000000000000000000000000000000000000000000000000000000000000000000000000000000000000000000000000000000000000040000000000000000000000000000000000000000000000000000000000000080000000000000000000000000000000000000000000000000000000000000024000000000000000000000000000000000000000000000000000000000000002a0000000000000000000000000000000000000000000000000000000000000030000000000000000000000000000000000000000000000000000000000000001a00000000000000000000000003e26f2e91b25ff5a9f9c54772ff616b1ea7c9e4f000000000000000000000000da96ef73bd5422c46c12c19d45011a1daf3cb61c0000000000000000000000000000000000000000000000000000000000000bb8000000000000000000000000000000000000000000000000000000000000003c0000000000000000000000009a4cff2dba4b9c86f352ca7358a157171d534ac0ffffffffffffffffffffffffffffffffffffffffffffffffffffffffffff5038000000000000000000000000000000000000000000000000000000000000afc80000000000000000000000000000000000000000000000000000000006a9ad120000000000000000000000000000000000000000000000056bc75e2d631000010000000000000000000000000000000000000000000000000000000005f5e1010000000000000000000000003e723f6b81431f325e3f08e75544f254c182afe20000000000000000000000000000000000000000000000000000000000000180000000000000000000000000000000000000000000000000000000000000000000000000000000000000000000000000000000000000000000000000000000400000000000000000000000003e26f2e91b25ff5a9f9c54772ff616b1ea7c9e4f000000000000000000000000da96ef73bd5422c46c12c19d45011a1daf3cb61c00000000000000000000000000000000000000000000000000000000000000400000000000000000000000003e26f2e91b25ff5a9f9c54772ff616b1ea7c9e4f0000000000000000000000003e723f6b81431f325e3f08e75544f254c182afe20000000000000000000000000000000000000000000000000000000000000040000000000000000000000000da96ef73bd5422c46c12c19d45011a1daf3cb61c0000000000000000000000003e723f6b81431f325e3f08e75544f254c182afe2]"
      ],
      "transaction": {
        "from": "0x3e723f6b81431f325e3f08e75544f254c182afe2",
        "to": "0x429ba70129df741b2ca2a85bc3a2a3328e5c09b4",
        "gas": "0xb3304",
        "value": "0x0",
        "input": "0xac9650d800000000000000000000000000000000000000000000000000000000000000200000000000000000000000000000000000000000000000000000000000000002000000000000000000000000000000000000000000000000000000000000004000000000000000000000000000000000000000000000000000000000000001800000000000000000000000000000000000000000000000000000000000000104f70204050000000000000000000000003e26f2e91b25ff5a9f9c54772ff616b1ea7c9e4f000000000000000000000000da96ef73bd5422c46c12c19d45011a1daf3cb61c0000000000000000000000000000000000000000000000000000000000000bb8000000000000000000000000000000000000000000000000000000000000003c0000000000000000000000009a4cff2dba4b9c86f352ca7358a157171d534ac0000000000000000000000000000000000000000100000000000000000000000000000000000000000000000000000000000000000000000000000000000000e00000000000000000000000000000000000000000000000000000000000000000000000000000000000000000000000000000000000000000000000000000000000000000000000000000000000000000000000000000000000000464dd46508f00000000000000000000000000000000000000000000000000000000000000400000000000000000000000000000000000000000000000000000000068c78d9c0000000000000000000000000000000000000000000000000000000000000400000000000000000000000000000000000000000000000000000000000000004000000000000000000000000000000000000000000000000000000000000000800000000000000000000000000000000000000000000000000000000000000004020d14140000000000000000000000000000000000000000000000000000000000000000000000000000000000000000000000000000000000000000000000040000000000000000000000000000000000000000000000000000000000000080000000000000000000000000000000000000000000000000000000000000024000000000000000000000000000000000000000000000000000000000000002a0000000000000000000000000000000000000000000000000000000000000030000000000000000000000000000000000000000000000000000000000000001a00000000000000000000000003e26f2e91b25ff5a9f9c54772ff616b1ea7c9e4f000000000000000000000000da96ef73bd5422c46c12c19d45011a1daf3cb61c0000000000000000000000000000000000000000000000000000000000000bb8000000000000000000000000000000000000000000000000000000000000003c0000000000000000000000009a4cff2dba4b9c86f352ca7358a157171d534ac0ffffffffffffffffffffffffffffffffffffffffffffffffffffffffffff5038000000000000000000000000000000000000000000000000000000000000afc80000000000000000000000000000000000000000000000000000000006a9ad120000000000000000000000000000000000000000000000056bc75e2d631000010000000000000000000000000000000000000000000000000000000005f5e1010000000000000000000000003e723f6b81431f325e3f08e75544f254c182afe20000000000000000000000000000000000000000000000000000000000000180000000000000000000000000000000000000000000000000000000000000000000000000000000000000000000000000000000000000000000000000000000400000000000000000000000003e26f2e91b25ff5a9f9c54772ff616b1ea7c9e4f000000000000000000000000da96ef73bd5422c46c12c19d45011a1daf3cb61c00000000000000000000000000000000000000000000000000000000000000400000000000000000000000003e26f2e91b25ff5a9f9c54772ff616b1ea7c9e4f0000000000000000000000003e723f6b81431f325e3f08e75544f254c182afe20000000000000000000000000000000000000000000000000000000000000040000000000000000000000000da96ef73bd5422c46c12c19d45011a1daf3cb61c0000000000000000000000003e723f6b81431f325e3f08e75544f254c182afe200000000000000000000000000000000000000000000000000000000",
        "nonce": "0x44e",
        "chainId": "0xaa36a7"
      },
      "additionalContracts": [],
      "isFixedGasLimit": false
    }
  ],
  "receipts": [
    {
      "status": "0x1",
      "cumulativeGasUsed": "0x145134e",
      "logs": [
        {
          "address": "0x3e26f2e91b25ff5a9f9c54772ff616b1ea7c9e4f",
          "topics": [
            "0x8c5be1e5ebec7d5bd14f71427d1e84f3dd0314c0f7b2291e5b200ac8c7c3b925",
            "0x0000000000000000000000003e723f6b81431f325e3f08e75544f254c182afe2",
            "0x000000000000000000000000000000000022d473030f116ddee9f6b43ac78ba3"
          ],
          "data": "0xffffffffffffffffffffffffffffffffffffffffffffffffffffffffffffffff",
          "blockHash": "0xd89493a3dc14e019d3a42fedf77b8008f977acac3427f8916df8269daa20ff33",
          "blockNumber": "0x8c786a",
          "blockTimestamp": "0x68c77fb0",
          "transactionHash": "0x588731a5ac7b91bbe4cf75507ee97b822a20316708637a0a9c9047f052eba1d3",
          "transactionIndex": "0xcc",
          "logIndex": "0x69",
          "removed": false
        }
      ],
      "logsBloom": "0x00000000000000000000000000000000000000000000000000000000000000000000000000000000000000000200000000000000880000000000000000200000000000000000000000004000000000000000000000000800000000000000000000000000000000000000000000000000000000000000000000000000000000000000000000000000000000000000000000000000000000000000000000100000020000000000000080000000000000000000000000000000000010000000000000000000000000000000000000000000000000000000000000000000000001000010000000000000000000000000000000000000000000000000000000000000",
      "type": "0x2",
      "transactionHash": "0x588731a5ac7b91bbe4cf75507ee97b822a20316708637a0a9c9047f052eba1d3",
      "transactionIndex": "0xcc",
      "blockHash": "0xd89493a3dc14e019d3a42fedf77b8008f977acac3427f8916df8269daa20ff33",
      "blockNumber": "0x8c786a",
      "gasUsed": "0xb84c",
      "effectiveGasPrice": "0x17319a",
      "from": "0x3e723f6b81431f325e3f08e75544f254c182afe2",
      "to": "0x3e26f2e91b25ff5a9f9c54772ff616b1ea7c9e4f",
      "contractAddress": null
    },
    {
      "status": "0x1",
      "cumulativeGasUsed": "0x145ce18",
      "logs": [
        {
          "address": "0x000000000022d473030f116ddee9f6b43ac78ba3",
          "topics": [
            "0xda9fa7c1b00402c17d0161b249b1ab8bbec047c5a52207b9c112deffd817036b",
            "0x0000000000000000000000003e723f6b81431f325e3f08e75544f254c182afe2",
            "0x0000000000000000000000003e26f2e91b25ff5a9f9c54772ff616b1ea7c9e4f",
            "0x000000000000000000000000429ba70129df741b2ca2a85bc3a2a3328e5c09b4"
          ],
          "data": "0x000000000000000000000000ffffffffffffffffffffffffffffffffffffffff0000000000000000000000000000000000000000000000000000ffffffffffff",
          "blockHash": "0xd89493a3dc14e019d3a42fedf77b8008f977acac3427f8916df8269daa20ff33",
          "blockNumber": "0x8c786a",
          "blockTimestamp": "0x68c77fb0",
          "transactionHash": "0x5fb7e4a622460dfc3a40ab37d316bec592e79d548d445bc3e360a825ad766b70",
          "transactionIndex": "0xcd",
          "logIndex": "0x6a",
          "removed": false
        }
      ],
      "logsBloom": "0x00010000000000000000000000000000000000000000000000000000000000000000000000000040080000000000000000000000080000000000000000080000000000000000000000000000000000000000000000000000000000000000000800000000000000000000000000000000000000000000000000000800000000000020000000000000000000000000000000000000000000000000000000000000000000000010000080000000000000000000000000000000000010080000000000000000000000000000000000000000000000000000000040002000000000000000000000000000000000000000000000000000000000000000000000000400",
      "type": "0x2",
      "transactionHash": "0x5fb7e4a622460dfc3a40ab37d316bec592e79d548d445bc3e360a825ad766b70",
      "transactionIndex": "0xcd",
      "blockHash": "0xd89493a3dc14e019d3a42fedf77b8008f977acac3427f8916df8269daa20ff33",
      "blockNumber": "0x8c786a",
      "gasUsed": "0xbaca",
      "effectiveGasPrice": "0x17319a",
      "from": "0x3e723f6b81431f325e3f08e75544f254c182afe2",
      "to": "0x000000000022d473030f116ddee9f6b43ac78ba3",
      "contractAddress": null
    },
    {
      "status": "0x1",
      "cumulativeGasUsed": "0x1468664",
      "logs": [
        {
          "address": "0xda96ef73bd5422c46c12c19d45011a1daf3cb61c",
          "topics": [
            "0x8c5be1e5ebec7d5bd14f71427d1e84f3dd0314c0f7b2291e5b200ac8c7c3b925",
            "0x0000000000000000000000003e723f6b81431f325e3f08e75544f254c182afe2",
            "0x000000000000000000000000000000000022d473030f116ddee9f6b43ac78ba3"
          ],
          "data": "0xffffffffffffffffffffffffffffffffffffffffffffffffffffffffffffffff",
          "blockHash": "0xd89493a3dc14e019d3a42fedf77b8008f977acac3427f8916df8269daa20ff33",
          "blockNumber": "0x8c786a",
          "blockTimestamp": "0x68c77fb0",
          "transactionHash": "0xa782adf723bf0e5121fb46b6fd6c1f6c7e90f5b4fb7166995979cbeff085fd67",
          "transactionIndex": "0xce",
          "logIndex": "0x6b",
          "removed": false
        }
      ],
      "logsBloom": "0x00000000000000000000000000000000000000000000000000000000000000000000000000000000000000000000000000000000880000000000000000200000000000000000000000004000000000000000000000010800000000000000000000000000000000000000000000000000000000000000000000000000000000000000000000000000000000000000000000000000000000000000000000000000020000000000000080000000000000000000000000000000000010000020000000000000000000000000000000000000000000000000000000000000000000000010000000000000000000000000000000000000000000000400000000000000",
      "type": "0x2",
      "transactionHash": "0xa782adf723bf0e5121fb46b6fd6c1f6c7e90f5b4fb7166995979cbeff085fd67",
      "transactionIndex": "0xce",
      "blockHash": "0xd89493a3dc14e019d3a42fedf77b8008f977acac3427f8916df8269daa20ff33",
      "blockNumber": "0x8c786a",
      "gasUsed": "0xb84c",
      "effectiveGasPrice": "0x17319a",
      "from": "0x3e723f6b81431f325e3f08e75544f254c182afe2",
      "to": "0xda96ef73bd5422c46c12c19d45011a1daf3cb61c",
      "contractAddress": null
    },
    {
      "status": "0x1",
      "cumulativeGasUsed": "0x147412e",
      "logs": [
        {
          "address": "0x000000000022d473030f116ddee9f6b43ac78ba3",
          "topics": [
            "0xda9fa7c1b00402c17d0161b249b1ab8bbec047c5a52207b9c112deffd817036b",
            "0x0000000000000000000000003e723f6b81431f325e3f08e75544f254c182afe2",
            "0x000000000000000000000000da96ef73bd5422c46c12c19d45011a1daf3cb61c",
            "0x000000000000000000000000429ba70129df741b2ca2a85bc3a2a3328e5c09b4"
          ],
          "data": "0x000000000000000000000000ffffffffffffffffffffffffffffffffffffffff0000000000000000000000000000000000000000000000000000ffffffffffff",
          "blockHash": "0xd89493a3dc14e019d3a42fedf77b8008f977acac3427f8916df8269daa20ff33",
          "blockNumber": "0x8c786a",
          "blockTimestamp": "0x68c77fb0",
          "transactionHash": "0x0d347a021fe139f4ea3091e81b97ece4aa8f8c4c662d2b325ef3a36704a58eca",
          "transactionIndex": "0xcf",
          "logIndex": "0x6c",
          "removed": false
        }
      ],
      "logsBloom": "0x00010000000000000000000000000000000000000000000000000000000000000000000000000040080000000000000000000000080000000000004100080000000000000000000000000000000000000000000000000000000000000000000000000000000000000000000000000000000000000000000000000800000000000020000000000000000000000000000000000000000000000000000000000000000000000000000080000000000000000000000000000000000010080080000000000000000000000000000000000000000000000000000040000000000000000000000000000000000000000000000000000000000000000000000000000400",
      "type": "0x2",
      "transactionHash": "0x0d347a021fe139f4ea3091e81b97ece4aa8f8c4c662d2b325ef3a36704a58eca",
      "transactionIndex": "0xcf",
      "blockHash": "0xd89493a3dc14e019d3a42fedf77b8008f977acac3427f8916df8269daa20ff33",
      "blockNumber": "0x8c786a",
      "gasUsed": "0xbaca",
      "effectiveGasPrice": "0x17319a",
      "from": "0x3e723f6b81431f325e3f08e75544f254c182afe2",
      "to": "0x000000000022d473030f116ddee9f6b43ac78ba3",
      "contractAddress": null
    },
    {
      "status": "0x1",
      "cumulativeGasUsed": "0x14ee989",
      "logs": [
        {
          "address": "0xe03a1074c86cfedd5c142c4f04f1a1536e203543",
          "topics": [
            "0xdd466e674ea557f56295e2d0218a125ea4b4f0f6f3307b95f85e6110838d6438",
            "0xa2ab8264de5ecdd03c591373340e278b022c8aee47a7895ea46f8c24e1e09953",
            "0x0000000000000000000000003e26f2e91b25ff5a9f9c54772ff616b1ea7c9e4f",
            "0x000000000000000000000000da96ef73bd5422c46c12c19d45011a1daf3cb61c"
          ],
          "data": "0x0000000000000000000000000000000000000000000000000000000000000bb8000000000000000000000000000000000000000000000000000000000000003c0000000000000000000000009a4cff2dba4b9c86f352ca7358a157171d534ac000000000000000000000000000000000000000010000000000000000000000000000000000000000000000000000000000000000000000000000000000000000",
          "blockHash": "0xd89493a3dc14e019d3a42fedf77b8008f977acac3427f8916df8269daa20ff33",
          "blockNumber": "0x8c786a",
          "blockTimestamp": "0x68c77fb0",
          "transactionHash": "0xac0a17530be854d94a3050d18b3ca63a1ddaaf4100424f56714abcda72ffe902",
          "transactionIndex": "0xd0",
          "logIndex": "0x6d",
          "removed": false
        },
        {
          "address": "0x429ba70129df741b2ca2a85bc3a2a3328e5c09b4",
          "topics": [
            "0xddf252ad1be2c89b69c2b068fc378daa952ba7f163c4a11628f55a4df523b3ef",
            "0x0000000000000000000000000000000000000000000000000000000000000000",
            "0x0000000000000000000000003e723f6b81431f325e3f08e75544f254c182afe2",
            "0x0000000000000000000000000000000000000000000000000000000000004267"
          ],
          "data": "0x",
          "blockHash": "0xd89493a3dc14e019d3a42fedf77b8008f977acac3427f8916df8269daa20ff33",
          "blockNumber": "0x8c786a",
          "blockTimestamp": "0x68c77fb0",
          "transactionHash": "0xac0a17530be854d94a3050d18b3ca63a1ddaaf4100424f56714abcda72ffe902",
          "transactionIndex": "0xd0",
          "logIndex": "0x6e",
          "removed": false
        },
        {
          "address": "0xe03a1074c86cfedd5c142c4f04f1a1536e203543",
          "topics": [
            "0xf208f4912782fd25c7f114ca3723a2d5dd6f3bcc3ac8db5af63baa85f711d5ec",
            "0xa2ab8264de5ecdd03c591373340e278b022c8aee47a7895ea46f8c24e1e09953",
            "0x000000000000000000000000429ba70129df741b2ca2a85bc3a2a3328e5c09b4"
          ],
          "data": "0xffffffffffffffffffffffffffffffffffffffffffffffffffffffffffff5038000000000000000000000000000000000000000000000000000000000000afc80000000000000000000000000000000000000000000000000000000006a9ad120000000000000000000000000000000000000000000000000000000000004267",
          "blockHash": "0xd89493a3dc14e019d3a42fedf77b8008f977acac3427f8916df8269daa20ff33",
          "blockNumber": "0x8c786a",
          "blockTimestamp": "0x68c77fb0",
          "transactionHash": "0xac0a17530be854d94a3050d18b3ca63a1ddaaf4100424f56714abcda72ffe902",
          "transactionIndex": "0xd0",
          "logIndex": "0x6f",
          "removed": false
        },
        {
          "address": "0x3e26f2e91b25ff5a9f9c54772ff616b1ea7c9e4f",
          "topics": [
            "0xddf252ad1be2c89b69c2b068fc378daa952ba7f163c4a11628f55a4df523b3ef",
            "0x0000000000000000000000003e723f6b81431f325e3f08e75544f254c182afe2",
            "0x000000000000000000000000e03a1074c86cfedd5c142c4f04f1a1536e203543"
          ],
          "data": "0x0000000000000000000000000000000000000000000000000000000005f5e100",
          "blockHash": "0xd89493a3dc14e019d3a42fedf77b8008f977acac3427f8916df8269daa20ff33",
          "blockNumber": "0x8c786a",
          "blockTimestamp": "0x68c77fb0",
          "transactionHash": "0xac0a17530be854d94a3050d18b3ca63a1ddaaf4100424f56714abcda72ffe902",
          "transactionIndex": "0xd0",
          "logIndex": "0x70",
          "removed": false
        },
        {
          "address": "0xda96ef73bd5422c46c12c19d45011a1daf3cb61c",
          "topics": [
            "0xddf252ad1be2c89b69c2b068fc378daa952ba7f163c4a11628f55a4df523b3ef",
            "0x0000000000000000000000003e723f6b81431f325e3f08e75544f254c182afe2",
            "0x000000000000000000000000e03a1074c86cfedd5c142c4f04f1a1536e203543"
          ],
          "data": "0x0000000000000000000000000000000000000000000000000000000005f5e100",
          "blockHash": "0xd89493a3dc14e019d3a42fedf77b8008f977acac3427f8916df8269daa20ff33",
          "blockNumber": "0x8c786a",
          "blockTimestamp": "0x68c77fb0",
          "transactionHash": "0xac0a17530be854d94a3050d18b3ca63a1ddaaf4100424f56714abcda72ffe902",
          "transactionIndex": "0xd0",
          "logIndex": "0x71",
          "removed": false
        }
      ],
      "logsBloom": "0x00000000000000000000001000000000000000000000000000000000080000000000000000000040080000000200000000010100080000000000004100000000000000000000000000000008000002000000000000010000000000000000000800000000020000000000000080000800000000000000100000000810000000000000000001000008000010000000000000000001000000000000000000300000a000040000100000800000000000000000000000004000000000100000a0000000000002000000000000000000004000100000000000000000003000000021001000000000000000000000000000000004000000000000000400000000000000",
      "type": "0x2",
      "transactionHash": "0xac0a17530be854d94a3050d18b3ca63a1ddaaf4100424f56714abcda72ffe902",
      "transactionIndex": "0xd0",
      "blockHash": "0xd89493a3dc14e019d3a42fedf77b8008f977acac3427f8916df8269daa20ff33",
      "blockNumber": "0x8c786a",
      "gasUsed": "0x7a85b",
      "effectiveGasPrice": "0x17319a",
      "from": "0x3e723f6b81431f325e3f08e75544f254c182afe2",
      "to": "0x429ba70129df741b2ca2a85bc3a2a3328e5c09b4",
      "contractAddress": null
    }
  ],
  "libraries": [],
  "pending": [],
  "returns": {},
  "timestamp": 1757904817997,
  "chain": 11155111,
  "commit": "1061392"
}