{
  "transactions": [
    {
      "hash": "0x5c9fac9b8934aa9cd0fe84fc1b2b269a9d5fdf04be196ff5ee12ed64ab0935ad",
      "transactionType": "CALL",
      "contractName": null,
      "contractAddress": "0xf7ec23380bb7adedaf4c69239b66e444b4aaffdb",
      "function": "approve(address,uint256)",
      "arguments": [
        "0x0faF3047Dc05328c5251a7BeEF8408c4d3A23880",
        "115792089237316195423570985008687907853269984665640564039457584007913129639935"
      ],
      "transaction": {
        "from": "0x3e723f6b81431f325e3f08e75544f254c182afe2",
        "to": "0xf7ec23380bb7adedaf4c69239b66e444b4aaffdb",
        "gas": "0x96a4",
        "value": "0x0",
        "input": "0x095ea7b30000000000000000000000000faf3047dc05328c5251a7beef8408c4d3a23880ffffffffffffffffffffffffffffffffffffffffffffffffffffffffffffffff",
        "nonce": "0x563",
        "chainId": "0xaa36a7"
      },
      "additionalContracts": [],
      "isFixedGasLimit": false
    },
    {
      "hash": "0x1a48dd8924c05365ee047045616ad7fef7900d996bbaf87457e5a6ca2a205dab",
      "transactionType": "CALL",
      "contractName": null,
      "contractAddress": "0x0e42efc341d5ef175db4ce9516d13eecc379e9ec",
      "function": "approve(address,uint256)",
      "arguments": [
        "0x0faF3047Dc05328c5251a7BeEF8408c4d3A23880",
        "115792089237316195423570985008687907853269984665640564039457584007913129639935"
      ],
      "transaction": {
        "from": "0x3e723f6b81431f325e3f08e75544f254c182afe2",
        "to": "0x0e42efc341d5ef175db4ce9516d13eecc379e9ec",
        "gas": "0x96a4",
        "value": "0x0",
        "input": "0x095ea7b30000000000000000000000000faf3047dc05328c5251a7beef8408c4d3a23880ffffffffffffffffffffffffffffffffffffffffffffffffffffffffffffffff",
        "nonce": "0x564",
        "chainId": "0xaa36a7"
      },
      "additionalContracts": [],
      "isFixedGasLimit": false
    },
    {
      "hash": "0x84d9d810c2f05eec0041f0552c2b342ebef2945e4c0cb2f2b350ac14a491ecb7",
      "transactionType": "CALL",
      "contractName": null,
      "contractAddress": "0xf7ec23380bb7adedaf4c69239b66e444b4aaffdb",
      "function": "approve(address,uint256)",
      "arguments": [
        "0xE03A1074c86CFeDd5C142C4F04F1a1536e203543",
        "115792089237316195423570985008687907853269984665640564039457584007913129639935"
      ],
      "transaction": {
        "from": "0x3e723f6b81431f325e3f08e75544f254c182afe2",
        "to": "0xf7ec23380bb7adedaf4c69239b66e444b4aaffdb",
        "gas": "0x96a4",
        "value": "0x0",
        "input": "0x095ea7b3000000000000000000000000e03a1074c86cfedd5c142c4f04f1a1536e203543ffffffffffffffffffffffffffffffffffffffffffffffffffffffffffffffff",
        "nonce": "0x565",
        "chainId": "0xaa36a7"
      },
      "additionalContracts": [],
      "isFixedGasLimit": false
    },
    {
      "hash": "0x398eb640c158c903cbb5eebe1f5dc69fb650a65302c9bdb88dcac356b18b9b46",
      "transactionType": "CALL",
      "contractName": null,
      "contractAddress": "0x0e42efc341d5ef175db4ce9516d13eecc379e9ec",
      "function": "approve(address,uint256)",
      "arguments": [
        "0xE03A1074c86CFeDd5C142C4F04F1a1536e203543",
        "115792089237316195423570985008687907853269984665640564039457584007913129639935"
      ],
      "transaction": {
        "from": "0x3e723f6b81431f325e3f08e75544f254c182afe2",
        "to": "0x0e42efc341d5ef175db4ce9516d13eecc379e9ec",
        "gas": "0x96a4",
        "value": "0x0",
        "input": "0x095ea7b3000000000000000000000000e03a1074c86cfedd5c142c4f04f1a1536e203543ffffffffffffffffffffffffffffffffffffffffffffffffffffffffffffffff",
        "nonce": "0x566",
        "chainId": "0xaa36a7"
      },
      "additionalContracts": [],
      "isFixedGasLimit": false
    },
    {
      "hash": "0x3e73d8c4f974749e40e32b34226a7925733070423c0b5214193c42db56569a90",
      "transactionType": "CALL",
      "contractName": null,
      "contractAddress": "0xf7ec23380bb7adedaf4c69239b66e444b4aaffdb",
      "function": "approve(address,uint256)",
      "arguments": [
        "0x429ba70129df741B2Ca2a85BC3A2a3328e5c09b4",
        "115792089237316195423570985008687907853269984665640564039457584007913129639935"
      ],
      "transaction": {
        "from": "0x3e723f6b81431f325e3f08e75544f254c182afe2",
        "to": "0xf7ec23380bb7adedaf4c69239b66e444b4aaffdb",
        "gas": "0x96a4",
        "value": "0x0",
        "input": "0x095ea7b3000000000000000000000000429ba70129df741b2ca2a85bc3a2a3328e5c09b4ffffffffffffffffffffffffffffffffffffffffffffffffffffffffffffffff",
        "nonce": "0x567",
        "chainId": "0xaa36a7"
      },
      "additionalContracts": [],
      "isFixedGasLimit": false
    },
    {
      "hash": "0x676561e9e50a66b039d040dae21ea1326a5b938fd1b3e290b52beaba655c0cf0",
      "transactionType": "CALL",
      "contractName": null,
      "contractAddress": "0x0e42efc341d5ef175db4ce9516d13eecc379e9ec",
      "function": "approve(address,uint256)",
      "arguments": [
        "0x429ba70129df741B2Ca2a85BC3A2a3328e5c09b4",
        "115792089237316195423570985008687907853269984665640564039457584007913129639935"
      ],
      "transaction": {
        "from": "0x3e723f6b81431f325e3f08e75544f254c182afe2",
        "to": "0x0e42efc341d5ef175db4ce9516d13eecc379e9ec",
        "gas": "0x96a4",
        "value": "0x0",
        "input": "0x095ea7b3000000000000000000000000429ba70129df741b2ca2a85bc3a2a3328e5c09b4ffffffffffffffffffffffffffffffffffffffffffffffffffffffffffffffff",
        "nonce": "0x568",
        "chainId": "0xaa36a7"
      },
      "additionalContracts": [],
      "isFixedGasLimit": false
    },
    {
      "hash": "0xfa7901593b0c1f4e93754a287d9b283315ca48fabf2cd43c883c9aa9758465b5",
      "transactionType": "CALL",
      "contractName": null,
      "contractAddress": "0xf7ec23380bb7adedaf4c69239b66e444b4aaffdb",
      "function": "approve(address,uint256)",
      "arguments": [
        "0x000000000022D473030F116dDEE9F6B43aC78BA3",
        "115792089237316195423570985008687907853269984665640564039457584007913129639935"
      ],
      "transaction": {
        "from": "0x3e723f6b81431f325e3f08e75544f254c182afe2",
        "to": "0xf7ec23380bb7adedaf4c69239b66e444b4aaffdb",
        "gas": "0x8df2",
        "value": "0x0",
        "input": "0x095ea7b3000000000000000000000000000000000022d473030f116ddee9f6b43ac78ba3ffffffffffffffffffffffffffffffffffffffffffffffffffffffffffffffff",
        "nonce": "0x569",
        "chainId": "0xaa36a7"
      },
      "additionalContracts": [],
      "isFixedGasLimit": false
    },
    {
      "hash": "0xdfb54bcdb891550ba3040179e672403575a00d2605a7a8fad9022e35fb4719f8",
      "transactionType": "CALL",
      "contractName": null,
      "contractAddress": "0x000000000022d473030f116ddee9f6b43ac78ba3",
      "function": "approve(address,address,uint160,uint48)",
      "arguments": [
        "0xf7eC23380BB7adEdaf4c69239B66e444B4aaffDb",
        "0x429ba70129df741B2Ca2a85BC3A2a3328e5c09b4",
        "1461501637330902918203684832716283019655932542975",
        "281474976710655"
      ],
      "transaction": {
        "from": "0x3e723f6b81431f325e3f08e75544f254c182afe2",
        "to": "0x000000000022d473030f116ddee9f6b43ac78ba3",
        "gas": "0x96a0",
        "value": "0x0",
        "input": "0x87517c45000000000000000000000000f7ec23380bb7adedaf4c69239b66e444b4aaffdb000000000000000000000000429ba70129df741b2ca2a85bc3a2a3328e5c09b4000000000000000000000000ffffffffffffffffffffffffffffffffffffffff0000000000000000000000000000000000000000000000000000ffffffffffff",
        "nonce": "0x56a",
        "chainId": "0xaa36a7"
      },
      "additionalContracts": [],
      "isFixedGasLimit": false
    },
    {
      "hash": "0x9dbef40dcb6b6fafe307de9f602ddff1ed7516b0669a93944c745761c3971067",
      "transactionType": "CALL",
      "contractName": null,
      "contractAddress": "0x0e42efc341d5ef175db4ce9516d13eecc379e9ec",
      "function": "approve(address,uint256)",
      "arguments": [
        "0x000000000022D473030F116dDEE9F6B43aC78BA3",
        "115792089237316195423570985008687907853269984665640564039457584007913129639935"
      ],
      "transaction": {
        "from": "0x3e723f6b81431f325e3f08e75544f254c182afe2",
        "to": "0x0e42efc341d5ef175db4ce9516d13eecc379e9ec",
        "gas": "0x8df2",
        "value": "0x0",
        "input": "0x095ea7b3000000000000000000000000000000000022d473030f116ddee9f6b43ac78ba3ffffffffffffffffffffffffffffffffffffffffffffffffffffffffffffffff",
        "nonce": "0x56b",
        "chainId": "0xaa36a7"
      },
      "additionalContracts": [],
      "isFixedGasLimit": false
    },
    {
      "hash": "0x804335956c3d51d12b289b0590b8af4a6addd1e8b405ca2e7dea8046d8974ae0",
      "transactionType": "CALL",
      "contractName": null,
      "contractAddress": "0x000000000022d473030f116ddee9f6b43ac78ba3",
      "function": "approve(address,address,uint160,uint48)",
      "arguments": [
        "0x0E42Efc341d5ef175dB4CE9516d13eecC379e9Ec",
        "0x429ba70129df741B2Ca2a85BC3A2a3328e5c09b4",
        "1461501637330902918203684832716283019655932542975",
        "281474976710655"
      ],
      "transaction": {
        "from": "0x3e723f6b81431f325e3f08e75544f254c182afe2",
        "to": "0x000000000022d473030f116ddee9f6b43ac78ba3",
        "gas": "0x96a0",
        "value": "0x0",
        "input": "0x87517c450000000000000000000000000e42efc341d5ef175db4ce9516d13eecc379e9ec000000000000000000000000429ba70129df741b2ca2a85bc3a2a3328e5c09b4000000000000000000000000ffffffffffffffffffffffffffffffffffffffff0000000000000000000000000000000000000000000000000000ffffffffffff",
        "nonce": "0x56c",
        "chainId": "0xaa36a7"
      },
      "additionalContracts": [],
      "isFixedGasLimit": false
    },
    {
      "hash": "0xa502c43de97ac68bb44554bf1a3eb26202ad6a3e12db6ea84977a0550953da9e",
      "transactionType": "CALL",
      "contractName": null,
      "contractAddress": "0x429ba70129df741b2ca2a85bc3a2a3328e5c09b4",
      "function": "modifyLiquidities(bytes,uint256)",
      "arguments": [
        "0x000000000000000000000000000000000000000000000000000000000000004000000000000000000000000000000000000000000000000000000000000000800000000000000000000000000000000000000000000000000000000000000004020d14140000000000000000000000000000000000000000000000000000000000000000000000000000000000000000000000000000000000000000000000040000000000000000000000000000000000000000000000000000000000000080000000000000000000000000000000000000000000000000000000000000024000000000000000000000000000000000000000000000000000000000000002a0000000000000000000000000000000000000000000000000000000000000030000000000000000000000000000000000000000000000000000000000000001a00000000000000000000000000e42efc341d5ef175db4ce9516d13eecc379e9ec000000000000000000000000f7ec23380bb7adedaf4c69239b66e444b4aaffdb0000000000000000000000000000000000000000000000000000000000000bb8000000000000000000000000000000000000000000000000000000000000003c0000000000000000000000000faf3047dc05328c5251a7beef8408c4d3a23880ffffffffffffffffffffffffffffffffffffffffffffffffffffffffffff5038000000000000000000000000000000000000000000000000000000000000afc80000000000000000000000000000000000000000000000060f4da7fe284f5dea0000000000000000000000000000000000000000000000056bc75e2d631000010000000000000000000000000000000000000000000000056bc75e2d631000010000000000000000000000003e723f6b81431f325e3f08e75544f254c182afe20000000000000000000000000000000000000000000000000000000000000180000000000000000000000000000000000000000000000000000000000000000000000000000000000000000000000000000000000000000000000000000000400000000000000000000000000e42efc341d5ef175db4ce9516d13eecc379e9ec000000000000000000000000f7ec23380bb7adedaf4c69239b66e444b4aaffdb00000000000000000000000000000000000000000000000000000000000000400000000000000000000000000e42efc341d5ef175db4ce9516d13eecc379e9ec0000000000000000000000003e723f6b81431f325e3f08e75544f254c182afe20000000000000000000000000000000000000000000000000000000000000040000000000000000000000000f7ec23380bb7adedaf4c69239b66e444b4aaffdb0000000000000000000000003e723f6b81431f325e3f08e75544f254c182afe2",
        "1758131592"
      ],
      "transaction": {
        "from": "0x3e723f6b81431f325e3f08e75544f254c182afe2",
        "to": "0x429ba70129df741b2ca2a85bc3a2a3328e5c09b4",
        "gas": "0xf5c7d",
        "value": "0x0",
        "input": "0xdd46508f00000000000000000000000000000000000000000000000000000000000000400000000000000000000000000000000000000000000000000000000068caf5880000000000000000000000000000000000000000000000000000000000000400000000000000000000000000000000000000000000000000000000000000004000000000000000000000000000000000000000000000000000000000000000800000000000000000000000000000000000000000000000000000000000000004020d14140000000000000000000000000000000000000000000000000000000000000000000000000000000000000000000000000000000000000000000000040000000000000000000000000000000000000000000000000000000000000080000000000000000000000000000000000000000000000000000000000000024000000000000000000000000000000000000000000000000000000000000002a0000000000000000000000000000000000000000000000000000000000000030000000000000000000000000000000000000000000000000000000000000001a00000000000000000000000000e42efc341d5ef175db4ce9516d13eecc379e9ec000000000000000000000000f7ec23380bb7adedaf4c69239b66e444b4aaffdb0000000000000000000000000000000000000000000000000000000000000bb8000000000000000000000000000000000000000000000000000000000000003c0000000000000000000000000faf3047dc05328c5251a7beef8408c4d3a23880ffffffffffffffffffffffffffffffffffffffffffffffffffffffffffff5038000000000000000000000000000000000000000000000000000000000000afc80000000000000000000000000000000000000000000000060f4da7fe284f5dea0000000000000000000000000000000000000000000000056bc75e2d631000010000000000000000000000000000000000000000000000056bc75e2d631000010000000000000000000000003e723f6b81431f325e3f08e75544f254c182afe20000000000000000000000000000000000000000000000000000000000000180000000000000000000000000000000000000000000000000000000000000000000000000000000000000000000000000000000000000000000000000000000400000000000000000000000000e42efc341d5ef175db4ce9516d13eecc379e9ec000000000000000000000000f7ec23380bb7adedaf4c69239b66e444b4aaffdb00000000000000000000000000000000000000000000000000000000000000400000000000000000000000000e42efc341d5ef175db4ce9516d13eecc379e9ec0000000000000000000000003e723f6b81431f325e3f08e75544f254c182afe20000000000000000000000000000000000000000000000000000000000000040000000000000000000000000f7ec23380bb7adedaf4c69239b66e444b4aaffdb0000000000000000000000003e723f6b81431f325e3f08e75544f254c182afe2",
        "nonce": "0x56d",
        "chainId": "0xaa36a7"
      },
      "additionalContracts": [],
      "isFixedGasLimit": false
    }
  ],
  "receipts": [
    {
      "status": "0x1",
      "cumulativeGasUsed": "0x2baa393",
      "logs": [
        {
          "address": "0xf7ec23380bb7adedaf4c69239b66e444b4aaffdb",
          "topics": [
            "0x8c5be1e5ebec7d5bd14f71427d1e84f3dd0314c0f7b2291e5b200ac8c7c3b925",
            "0x0000000000000000000000003e723f6b81431f325e3f08e75544f254c182afe2",
            "0x0000000000000000000000000faf3047dc05328c5251a7beef8408c4d3a23880"
          ],
          "data": "0xffffffffffffffffffffffffffffffffffffffffffffffffffffffffffffffff",
          "blockHash": "0xc604a0e11b59530c4603187f136f540933ef5de799ab2544240b6d242fe519de",
          "blockNumber": "0x8cbd01",
          "blockTimestamp": "0x68caf57c",
          "transactionHash": "0x5c9fac9b8934aa9cd0fe84fc1b2b269a9d5fdf04be196ff5ee12ed64ab0935ad",
          "transactionIndex": "0x9f",
          "logIndex": "0x28c",
          "removed": false
        }
      ],
      "logsBloom": "0x00000000000000000000000000000000000000000000040000000000000000000000000000000000000000000000000020000000080000000000000000200000000010000000000000000100000000000000000000000000000000000000000000000000000000000000000000000000000100000000000000000000000000000000000000000000000000000000000000000000000000000000000000000000020000000000000080000000000000000000000000000000400010000000000000000000000000000000000000000000000000000000000000000000000000000010000000000000000000000000000000000000000000000000000000000000",
      "type": "0x2",
      "transactionHash": "0x5c9fac9b8934aa9cd0fe84fc1b2b269a9d5fdf04be196ff5ee12ed64ab0935ad",
      "transactionIndex": "0x9f",
      "blockHash": "0xc604a0e11b59530c4603187f136f540933ef5de799ab2544240b6d242fe519de",
      "blockNumber": "0x8cbd01",
      "gasUsed": "0x6701",
      "effectiveGasPrice": "0xb43b9d",
      "from": "0x3e723f6b81431f325e3f08e75544f254c182afe2",
      "to": "0xf7ec23380bb7adedaf4c69239b66e444b4aaffdb",
      "contractAddress": null
    },
    {
      "status": "0x1",
      "cumulativeGasUsed": "0x2bb0a94",
      "logs": [
        {
          "address": "0x0e42efc341d5ef175db4ce9516d13eecc379e9ec",
          "topics": [
            "0x8c5be1e5ebec7d5bd14f71427d1e84f3dd0314c0f7b2291e5b200ac8c7c3b925",
            "0x0000000000000000000000003e723f6b81431f325e3f08e75544f254c182afe2",
            "0x0000000000000000000000000faf3047dc05328c5251a7beef8408c4d3a23880"
          ],
          "data": "0xffffffffffffffffffffffffffffffffffffffffffffffffffffffffffffffff",
          "blockHash": "0xc604a0e11b59530c4603187f136f540933ef5de799ab2544240b6d242fe519de",
          "blockNumber": "0x8cbd01",
          "blockTimestamp": "0x68caf57c",
          "transactionHash": "0x1a48dd8924c05365ee047045616ad7fef7900d996bbaf87457e5a6ca2a205dab",
          "transactionIndex": "0xa0",
          "logIndex": "0x28d",
          "removed": false
        }
      ],
      "logsBloom": "0x00000000080000000000000000000000000000000000000000000000000000000000000000000000000000000000080000000000080000000000000000200000000010000000000000000008000000000000000000000000000000000000000000000000000000000000000000000000000100000000000000000000000000000000000000000000000000000000000000000000000000000000000000000000020000000000000080000000000000000000000000000000400010000000000000000000000000000000000000000000000000000000000000000000000000000010000000000000000000000000000000000000000000000000000000000000",
      "type": "0x2",
      "transactionHash": "0x1a48dd8924c05365ee047045616ad7fef7900d996bbaf87457e5a6ca2a205dab",
      "transactionIndex": "0xa0",
      "blockHash": "0xc604a0e11b59530c4603187f136f540933ef5de799ab2544240b6d242fe519de",
      "blockNumber": "0x8cbd01",
      "gasUsed": "0x6701",
      "effectiveGasPrice": "0xb43b9d",
      "from": "0x3e723f6b81431f325e3f08e75544f254c182afe2",
      "to": "0x0e42efc341d5ef175db4ce9516d13eecc379e9ec",
      "contractAddress": null
    },
    {
      "status": "0x1",
      "cumulativeGasUsed": "0x2bb7195",
      "logs": [
        {
          "address": "0xf7ec23380bb7adedaf4c69239b66e444b4aaffdb",
          "topics": [
            "0x8c5be1e5ebec7d5bd14f71427d1e84f3dd0314c0f7b2291e5b200ac8c7c3b925",
            "0x0000000000000000000000003e723f6b81431f325e3f08e75544f254c182afe2",
            "0x000000000000000000000000e03a1074c86cfedd5c142c4f04f1a1536e203543"
          ],
          "data": "0xffffffffffffffffffffffffffffffffffffffffffffffffffffffffffffffff",
          "blockHash": "0xc604a0e11b59530c4603187f136f540933ef5de799ab2544240b6d242fe519de",
          "blockNumber": "0x8cbd01",
          "blockTimestamp": "0x68caf57c",
          "transactionHash": "0x84d9d810c2f05eec0041f0552c2b342ebef2945e4c0cb2f2b350ac14a491ecb7",
          "transactionIndex": "0xa1",
          "logIndex": "0x28e",
          "removed": false
        }
      ],
      "logsBloom": "0x00000000000000000000000000000000000000000000040000000000000000000000000000000000000000000000000020000000080000000000000000200000000000000000000000000100000000000000000000000000000000000000000000000000000000000000000080000000000000000000000000000000000000000000000000000000000010000000000000000000000000000000000000000000020000000000000080000000000000000000000000000000000010000000000000000000000000000000000000000000000000000000000000001000000000000010000000000000000000000000000000000000000000000000000000000000",
      "type": "0x2",
      "transactionHash": "0x84d9d810c2f05eec0041f0552c2b342ebef2945e4c0cb2f2b350ac14a491ecb7",
      "transactionIndex": "0xa1",
      "blockHash": "0xc604a0e11b59530c4603187f136f540933ef5de799ab2544240b6d242fe519de",
      "blockNumber": "0x8cbd01",
      "gasUsed": "0x6701",
      "effectiveGasPrice": "0xb43b9d",
      "from": "0x3e723f6b81431f325e3f08e75544f254c182afe2",
      "to": "0xf7ec23380bb7adedaf4c69239b66e444b4aaffdb",
      "contractAddress": null
    },
    {
      "status": "0x1",
      "cumulativeGasUsed": "0x2bbd896",
      "logs": [
        {
          "address": "0x0e42efc341d5ef175db4ce9516d13eecc379e9ec",
          "topics": [
            "0x8c5be1e5ebec7d5bd14f71427d1e84f3dd0314c0f7b2291e5b200ac8c7c3b925",
            "0x0000000000000000000000003e723f6b81431f325e3f08e75544f254c182afe2",
            "0x000000000000000000000000e03a1074c86cfedd5c142c4f04f1a1536e203543"
          ],
          "data": "0xffffffffffffffffffffffffffffffffffffffffffffffffffffffffffffffff",
          "blockHash": "0xc604a0e11b59530c4603187f136f540933ef5de799ab2544240b6d242fe519de",
          "blockNumber": "0x8cbd01",
          "blockTimestamp": "0x68caf57c",
          "transactionHash": "0x398eb640c158c903cbb5eebe1f5dc69fb650a65302c9bdb88dcac356b18b9b46",
          "transactionIndex": "0xa2",
          "logIndex": "0x28f",
          "removed": false
        }
      ],
      "logsBloom": "0x00000000080000000000000000000000000000000000000000000000000000000000000000000000000000000000080000000000080000000000000000200000000000000000000000000008000000000000000000000000000000000000000000000000000000000000000080000000000000000000000000000000000000000000000000000000000010000000000000000000000000000000000000000000020000000000000080000000000000000000000000000000000010000000000000000000000000000000000000000000000000000000000000001000000000000010000000000000000000000000000000000000000000000000000000000000",
      "type": "0x2",
      "transactionHash": "0x398eb640c158c903cbb5eebe1f5dc69fb650a65302c9bdb88dcac356b18b9b46",
      "transactionIndex": "0xa2",
      "blockHash": "0xc604a0e11b59530c4603187f136f540933ef5de799ab2544240b6d242fe519de",
      "blockNumber": "0x8cbd01",
      "gasUsed": "0x6701",
      "effectiveGasPrice": "0xb43b9d",
      "from": "0x3e723f6b81431f325e3f08e75544f254c182afe2",
      "to": "0x0e42efc341d5ef175db4ce9516d13eecc379e9ec",
      "contractAddress": null
    },
    {
      "status": "0x1",
      "cumulativeGasUsed": "0x2bc3f97",
      "logs": [
        {
          "address": "0xf7ec23380bb7adedaf4c69239b66e444b4aaffdb",
          "topics": [
            "0x8c5be1e5ebec7d5bd14f71427d1e84f3dd0314c0f7b2291e5b200ac8c7c3b925",
            "0x0000000000000000000000003e723f6b81431f325e3f08e75544f254c182afe2",
            "0x000000000000000000000000429ba70129df741b2ca2a85bc3a2a3328e5c09b4"
          ],
          "data": "0xffffffffffffffffffffffffffffffffffffffffffffffffffffffffffffffff",
          "blockHash": "0xc604a0e11b59530c4603187f136f540933ef5de799ab2544240b6d242fe519de",
          "blockNumber": "0x8cbd01",
          "blockTimestamp": "0x68caf57c",
          "transactionHash": "0x3e73d8c4f974749e40e32b34226a7925733070423c0b5214193c42db56569a90",
          "transactionIndex": "0xa3",
          "logIndex": "0x290",
          "removed": false
        }
      ],
      "logsBloom": "0x00000000000000000000000000000000000000000000040000000000000000000000000000000040080000000000000020000000080000000000000000200000000000000000000000000100000000000000000000000000000000000000000000000000000000000000000000000000000000000000000000000800000000000000000000000000000000000000000000000000000000000000000000000000020000000000000080000000000000000000000000000000000010000000000000000000000000000000000000000000000000000000000000000000000000000010000000000000000000000000000000000000000000000000000000000000",
      "type": "0x2",
      "transactionHash": "0x3e73d8c4f974749e40e32b34226a7925733070423c0b5214193c42db56569a90",
      "transactionIndex": "0xa3",
      "blockHash": "0xc604a0e11b59530c4603187f136f540933ef5de799ab2544240b6d242fe519de",
      "blockNumber": "0x8cbd01",
      "gasUsed": "0x6701",
      "effectiveGasPrice": "0xb43b9d",
      "from": "0x3e723f6b81431f325e3f08e75544f254c182afe2",
      "to": "0xf7ec23380bb7adedaf4c69239b66e444b4aaffdb",
      "contractAddress": null
    },
    {
      "status": "0x1",
      "cumulativeGasUsed": "0x2bca698",
      "logs": [
        {
          "address": "0x0e42efc341d5ef175db4ce9516d13eecc379e9ec",
          "topics": [
            "0x8c5be1e5ebec7d5bd14f71427d1e84f3dd0314c0f7b2291e5b200ac8c7c3b925",
            "0x0000000000000000000000003e723f6b81431f325e3f08e75544f254c182afe2",
            "0x000000000000000000000000429ba70129df741b2ca2a85bc3a2a3328e5c09b4"
          ],
          "data": "0xffffffffffffffffffffffffffffffffffffffffffffffffffffffffffffffff",
          "blockHash": "0xc604a0e11b59530c4603187f136f540933ef5de799ab2544240b6d242fe519de",
          "blockNumber": "0x8cbd01",
          "blockTimestamp": "0x68caf57c",
          "transactionHash": "0x676561e9e50a66b039d040dae21ea1326a5b938fd1b3e290b52beaba655c0cf0",
          "transactionIndex": "0xa4",
          "logIndex": "0x291",
          "removed": false
        }
      ],
      "logsBloom": "0x00000000080000000000000000000000000000000000000000000000000000000000000000000040080000000000080000000000080000000000000000200000000000000000000000000008000000000000000000000000000000000000000000000000000000000000000000000000000000000000000000000800000000000000000000000000000000000000000000000000000000000000000000000000020000000000000080000000000000000000000000000000000010000000000000000000000000000000000000000000000000000000000000000000000000000010000000000000000000000000000000000000000000000000000000000000",
      "type": "0x2",
      "transactionHash": "0x676561e9e50a66b039d040dae21ea1326a5b938fd1b3e290b52beaba655c0cf0",
      "transactionIndex": "0xa4",
      "blockHash": "0xc604a0e11b59530c4603187f136f540933ef5de799ab2544240b6d242fe519de",
      "blockNumber": "0x8cbd01",
      "gasUsed": "0x6701",
      "effectiveGasPrice": "0xb43b9d",
      "from": "0x3e723f6b81431f325e3f08e75544f254c182afe2",
      "to": "0x0e42efc341d5ef175db4ce9516d13eecc379e9ec",
      "contractAddress": null
    },
    {
      "status": "0x1",
      "cumulativeGasUsed": "0x2bd5f65",
      "logs": [
        {
          "address": "0xf7ec23380bb7adedaf4c69239b66e444b4aaffdb",
          "topics": [
            "0x8c5be1e5ebec7d5bd14f71427d1e84f3dd0314c0f7b2291e5b200ac8c7c3b925",
            "0x0000000000000000000000003e723f6b81431f325e3f08e75544f254c182afe2",
            "0x000000000000000000000000000000000022d473030f116ddee9f6b43ac78ba3"
          ],
          "data": "0xffffffffffffffffffffffffffffffffffffffffffffffffffffffffffffffff",
          "blockHash": "0xc604a0e11b59530c4603187f136f540933ef5de799ab2544240b6d242fe519de",
          "blockNumber": "0x8cbd01",
          "blockTimestamp": "0x68caf57c",
          "transactionHash": "0xfa7901593b0c1f4e93754a287d9b283315ca48fabf2cd43c883c9aa9758465b5",
          "transactionIndex": "0xa6",
          "logIndex": "0x292",
          "removed": false
        }
      ],
      "logsBloom": "0x00000000000000000000000000000000000000000000040000000000000000000000000000000000000000000000000020000000880000000000000000200000000000000000000000004100000000000000000000000800000000000000000000000000000000000000000000000000000000000000000000000000000000000000000000000000000000000000000000000000000000000000000000000000020000000000000080000000000000000000000000000000000010000000000000000000000000000000000000000000000000000000000000000000000000000010000000000000000000000000000000000000000000000000000000000000",
      "type": "0x2",
      "transactionHash": "0xfa7901593b0c1f4e93754a287d9b283315ca48fabf2cd43c883c9aa9758465b5",
      "transactionIndex": "0xa6",
      "blockHash": "0xc604a0e11b59530c4603187f136f540933ef5de799ab2544240b6d242fe519de",
      "blockNumber": "0x8cbd01",
      "gasUsed": "0x66c5",
      "effectiveGasPrice": "0xb43b9d",
      "from": "0x3e723f6b81431f325e3f08e75544f254c182afe2",
      "to": "0xf7ec23380bb7adedaf4c69239b66e444b4aaffdb",
      "contractAddress": null
    },
    {
      "status": "0x1",
      "cumulativeGasUsed": "0x2bdcc73",
      "logs": [
        {
          "address": "0x000000000022d473030f116ddee9f6b43ac78ba3",
          "topics": [
            "0xda9fa7c1b00402c17d0161b249b1ab8bbec047c5a52207b9c112deffd817036b",
            "0x0000000000000000000000003e723f6b81431f325e3f08e75544f254c182afe2",
            "0x000000000000000000000000f7ec23380bb7adedaf4c69239b66e444b4aaffdb",
            "0x000000000000000000000000429ba70129df741b2ca2a85bc3a2a3328e5c09b4"
          ],
          "data": "0x000000000000000000000000ffffffffffffffffffffffffffffffffffffffff0000000000000000000000000000000000000000000000000000ffffffffffff",
          "blockHash": "0xc604a0e11b59530c4603187f136f540933ef5de799ab2544240b6d242fe519de",
          "blockNumber": "0x8cbd01",
          "blockTimestamp": "0x68caf57c",
          "transactionHash": "0xdfb54bcdb891550ba3040179e672403575a00d2605a7a8fad9022e35fb4719f8",
          "transactionIndex": "0xa7",
          "logIndex": "0x293",
          "removed": false
        }
      ],
      "logsBloom": "0x00010000000000000000000000000000000000000000000000000000000000000000000000000040080000000000000000000000080000000000000000080000000000000000000000000000000000000000000000000000000000000000000000040000000000000000000000000000000000000000000000008800000000000020000000000000000000000000000000000000000000000000000000000000000000000000000080000000000000000000000000000000000010080000000000000000000000000000000000000000000400000000000040000000000000000000000000000000000000000000000000000000000000000000000000000400",
      "type": "0x2",
      "transactionHash": "0xdfb54bcdb891550ba3040179e672403575a00d2605a7a8fad9022e35fb4719f8",
      "transactionIndex": "0xa7",
      "blockHash": "0xc604a0e11b59530c4603187f136f540933ef5de799ab2544240b6d242fe519de",
      "blockNumber": "0x8cbd01",
      "gasUsed": "0x6d0e",
      "effectiveGasPrice": "0xb43b9d",
      "from": "0x3e723f6b81431f325e3f08e75544f254c182afe2",
      "to": "0x000000000022d473030f116ddee9f6b43ac78ba3",
      "contractAddress": null
    },
    {
      "status": "0x1",
      "cumulativeGasUsed": "0x2be3338",
      "logs": [
        {
          "address": "0x0e42efc341d5ef175db4ce9516d13eecc379e9ec",
          "topics": [
            "0x8c5be1e5ebec7d5bd14f71427d1e84f3dd0314c0f7b2291e5b200ac8c7c3b925",
            "0x0000000000000000000000003e723f6b81431f325e3f08e75544f254c182afe2",
            "0x000000000000000000000000000000000022d473030f116ddee9f6b43ac78ba3"
          ],
          "data": "0xffffffffffffffffffffffffffffffffffffffffffffffffffffffffffffffff",
          "blockHash": "0xc604a0e11b59530c4603187f136f540933ef5de799ab2544240b6d242fe519de",
          "blockNumber": "0x8cbd01",
          "blockTimestamp": "0x68caf57c",
          "transactionHash": "0x9dbef40dcb6b6fafe307de9f602ddff1ed7516b0669a93944c745761c3971067",
          "transactionIndex": "0xa8",
          "logIndex": "0x294",
          "removed": false
        }
      ],
      "logsBloom": "0x00000000080000000000000000000000000000000000000000000000000000000000000000000000000000000000080000000000880000000000000000200000000000000000000000004008000000000000000000000800000000000000000000000000000000000000000000000000000000000000000000000000000000000000000000000000000000000000000000000000000000000000000000000000020000000000000080000000000000000000000000000000000010000000000000000000000000000000000000000000000000000000000000000000000000000010000000000000000000000000000000000000000000000000000000000000",
      "type": "0x2",
      "transactionHash": "0x9dbef40dcb6b6fafe307de9f602ddff1ed7516b0669a93944c745761c3971067",
      "transactionIndex": "0xa8",
      "blockHash": "0xc604a0e11b59530c4603187f136f540933ef5de799ab2544240b6d242fe519de",
      "blockNumber": "0x8cbd01",
      "gasUsed": "0x66c5",
      "effectiveGasPrice": "0xb43b9d",
      "from": "0x3e723f6b81431f325e3f08e75544f254c182afe2",
      "to": "0x0e42efc341d5ef175db4ce9516d13eecc379e9ec",
      "contractAddress": null
    },
    {
      "status": "0x1",
      "cumulativeGasUsed": "0x2bea046",
      "logs": [
        {
          "address": "0x000000000022d473030f116ddee9f6b43ac78ba3",
          "topics": [
            "0xda9fa7c1b00402c17d0161b249b1ab8bbec047c5a52207b9c112deffd817036b",
            "0x0000000000000000000000003e723f6b81431f325e3f08e75544f254c182afe2",
            "0x0000000000000000000000000e42efc341d5ef175db4ce9516d13eecc379e9ec",
            "0x000000000000000000000000429ba70129df741b2ca2a85bc3a2a3328e5c09b4"
          ],
          "data": "0x000000000000000000000000ffffffffffffffffffffffffffffffffffffffff0000000000000000000000000000000000000000000000000000ffffffffffff",
          "blockHash": "0xc604a0e11b59530c4603187f136f540933ef5de799ab2544240b6d242fe519de",
          "blockNumber": "0x8cbd01",
          "blockTimestamp": "0x68caf57c",
          "transactionHash": "0x804335956c3d51d12b289b0590b8af4a6addd1e8b405ca2e7dea8046d8974ae0",
          "transactionIndex": "0xa9",
          "logIndex": "0x295",
          "removed": false
        }
      ],
      "logsBloom": "0x00010000000000000000000000000000000000000000000000000000000000000000000000000040080000000000000000000000080000000000000000080000000000000000000000000000000000000000000000000000000000000000000000000000000000000000000000000000000000000000004000000800000000000020000000000000000010000000000000000000000000000000000000000000000000000000000080000000000000000000000000000000000010080000000000000000000000000000000000100000000000000000000040000000000000000000000000000000000000000000000000000000000000000000000000000400",
      "type": "0x2",
      "transactionHash": "0x804335956c3d51d12b289b0590b8af4a6addd1e8b405ca2e7dea8046d8974ae0",
      "transactionIndex": "0xa9",
      "blockHash": "0xc604a0e11b59530c4603187f136f540933ef5de799ab2544240b6d242fe519de",
      "blockNumber": "0x8cbd01",
      "gasUsed": "0x6d0e",
      "effectiveGasPrice": "0xb43b9d",
      "from": "0x3e723f6b81431f325e3f08e75544f254c182afe2",
      "to": "0x000000000022d473030f116ddee9f6b43ac78ba3",
      "contractAddress": null
    },
    {
      "status": "0x1",
      "cumulativeGasUsed": "0x2c92128",
      "logs": [
        {
          "address": "0x429ba70129df741b2ca2a85bc3a2a3328e5c09b4",
          "topics": [
            "0xddf252ad1be2c89b69c2b068fc378daa952ba7f163c4a11628f55a4df523b3ef",
            "0x0000000000000000000000000000000000000000000000000000000000000000",
            "0x0000000000000000000000003e723f6b81431f325e3f08e75544f254c182afe2",
            "0x000000000000000000000000000000000000000000000000000000000000431c"
          ],
          "data": "0x",
          "blockHash": "0xc604a0e11b59530c4603187f136f540933ef5de799ab2544240b6d242fe519de",
          "blockNumber": "0x8cbd01",
          "blockTimestamp": "0x68caf57c",
          "transactionHash": "0xa502c43de97ac68bb44554bf1a3eb26202ad6a3e12db6ea84977a0550953da9e",
          "transactionIndex": "0xaa",
          "logIndex": "0x296",
          "removed": false
        },
        {
          "address": "0xea30c4b8b44078bbf8a6ef5b9f1ec1626c7848d9",
          "topics": [
            "0xe9de54a3e7ddf0c48cc6e1134185300d5a71acbf2d8c21fcdefa9d9dd9e20ac1"
          ],
          "data": "0x9b9a65e9cb1a0d5cd2bc317d58dc0f53ba0dc06b79f6845a609427044b51880000000000000000000000000000000000000000000000000000000000000000a00000000000000000000000000000000000000000000000060f4da7fe284f5dea00000000000000000000000000000000000000000000000000000000000000080000000000000000000000000000000000000000000000000000000000000000000000000000000000000000000000000000000000000000000000000000000e7472697669616c456e6372797074000000000000000000000000000000000000",
          "blockHash": "0xc604a0e11b59530c4603187f136f540933ef5de799ab2544240b6d242fe519de",
          "blockNumber": "0x8cbd01",
          "blockTimestamp": "0x68caf57c",
          "transactionHash": "0xa502c43de97ac68bb44554bf1a3eb26202ad6a3e12db6ea84977a0550953da9e",
          "transactionIndex": "0xaa",
          "logIndex": "0x297",
          "removed": false
        },
        {
          "address": "0xea30c4b8b44078bbf8a6ef5b9f1ec1626c7848d9",
          "topics": [
            "0xe9de54a3e7ddf0c48cc6e1134185300d5a71acbf2d8c21fcdefa9d9dd9e20ac1"
          ],
          "data": "0xd8d542465d641073d3a041fe1808c3ef4b840d59b78f9a8d96485189b1f2880000000000000000000000000000000000000000000000000000000000000000a0000000000000000000000000000000000000000000000000000000000000000000000000000000000000000000000000000000000000000000000000000000080000000000000000000000000000000000000000000000000000000000000000000000000000000000000000000000000000000000000000000000000000000e7472697669616c456e6372797074000000000000000000000000000000000000",
          "blockHash": "0xc604a0e11b59530c4603187f136f540933ef5de799ab2544240b6d242fe519de",
          "blockNumber": "0x8cbd01",
          "blockTimestamp": "0x68caf57c",
          "transactionHash": "0xa502c43de97ac68bb44554bf1a3eb26202ad6a3e12db6ea84977a0550953da9e",
          "transactionIndex": "0xaa",
          "logIndex": "0x298",
          "removed": false
        },
        {
          "address": "0xea30c4b8b44078bbf8a6ef5b9f1ec1626c7848d9",
          "topics": [
            "0xe9de54a3e7ddf0c48cc6e1134185300d5a71acbf2d8c21fcdefa9d9dd9e20ac1"
          ],
          "data": "0x0a764f9f30b716b368533695c2e77d7a81122e222bbd4d386416da09b6c0080000000000000000000000000000000000000000000000000000000000000000a0d8d542465d641073d3a041fe1808c3ef4b840d59b78f9a8d96485189b1f288009b9a65e9cb1a0d5cd2bc317d58dc0f53ba0dc06b79f6845a609427044b518800000000000000000000000000000000000000000000000000000000000000000000000000000000000000000000000000000000000000000000000000000000036164640000000000000000000000000000000000000000000000000000000000",
          "blockHash": "0xc604a0e11b59530c4603187f136f540933ef5de799ab2544240b6d242fe519de",
          "blockNumber": "0x8cbd01",
          "blockTimestamp": "0x68caf57c",
          "transactionHash": "0xa502c43de97ac68bb44554bf1a3eb26202ad6a3e12db6ea84977a0550953da9e",
          "transactionIndex": "0xaa",
          "logIndex": "0x299",
          "removed": false
        },
        {
          "address": "0xea30c4b8b44078bbf8a6ef5b9f1ec1626c7848d9",
          "topics": [
            "0xe9de54a3e7ddf0c48cc6e1134185300d5a71acbf2d8c21fcdefa9d9dd9e20ac1"
          ],
          "data": "0x9b9a65e9cb1a0d5cd2bc317d58dc0f53ba0dc06b79f6845a609427044b51880000000000000000000000000000000000000000000000000000000000000000a00000000000000000000000000000000000000000000000060f4da7fe284f5dea00000000000000000000000000000000000000000000000000000000000000080000000000000000000000000000000000000000000000000000000000000000000000000000000000000000000000000000000000000000000000000000000e7472697669616c456e6372797074000000000000000000000000000000000000",
          "blockHash": "0xc604a0e11b59530c4603187f136f540933ef5de799ab2544240b6d242fe519de",
          "blockNumber": "0x8cbd01",
          "blockTimestamp": "0x68caf57c",
          "transactionHash": "0xa502c43de97ac68bb44554bf1a3eb26202ad6a3e12db6ea84977a0550953da9e",
          "transactionIndex": "0xaa",
          "logIndex": "0x29a",
          "removed": false
        },
        {
          "address": "0xea30c4b8b44078bbf8a6ef5b9f1ec1626c7848d9",
          "topics": [
            "0xe9de54a3e7ddf0c48cc6e1134185300d5a71acbf2d8c21fcdefa9d9dd9e20ac1"
          ],
          "data": "0x0a764f9f30b716b368533695c2e77d7a81122e222bbd4d386416da09b6c0080000000000000000000000000000000000000000000000000000000000000000a0d8d542465d641073d3a041fe1808c3ef4b840d59b78f9a8d96485189b1f288009b9a65e9cb1a0d5cd2bc317d58dc0f53ba0dc06b79f6845a609427044b518800000000000000000000000000000000000000000000000000000000000000000000000000000000000000000000000000000000000000000000000000000000036164640000000000000000000000000000000000000000000000000000000000",
          "blockHash": "0xc604a0e11b59530c4603187f136f540933ef5de799ab2544240b6d242fe519de",
          "blockNumber": "0x8cbd01",
          "blockTimestamp": "0x68caf57c",
          "transactionHash": "0xa502c43de97ac68bb44554bf1a3eb26202ad6a3e12db6ea84977a0550953da9e",
          "transactionIndex": "0xaa",
          "logIndex": "0x29b",
          "removed": false
        },
        {
          "address": "0xea30c4b8b44078bbf8a6ef5b9f1ec1626c7848d9",
          "topics": [
            "0xe9de54a3e7ddf0c48cc6e1134185300d5a71acbf2d8c21fcdefa9d9dd9e20ac1"
          ],
          "data": "0xaf73fdf8112127ea7e45fdab98ca59e15c409bbbc082a39fed38a6520881840000000000000000000000000000000000000000000000000000000000000000a000000000000000000000000000000000000000000000000000000000ffff503800000000000000000000000000000000000000000000000000000000000000040000000000000000000000000000000000000000000000000000000000000000000000000000000000000000000000000000000000000000000000000000000e7472697669616c456e6372797074000000000000000000000000000000000000",
          "blockHash": "0xc604a0e11b59530c4603187f136f540933ef5de799ab2544240b6d242fe519de",
          "blockNumber": "0x8cbd01",
          "blockTimestamp": "0x68caf57c",
          "transactionHash": "0xa502c43de97ac68bb44554bf1a3eb26202ad6a3e12db6ea84977a0550953da9e",
          "transactionIndex": "0xaa",
          "logIndex": "0x29c",
          "removed": false
        },
        {
          "address": "0xea30c4b8b44078bbf8a6ef5b9f1ec1626c7848d9",
          "topics": [
            "0xe9de54a3e7ddf0c48cc6e1134185300d5a71acbf2d8c21fcdefa9d9dd9e20ac1"
          ],
          "data": "0x27ea05d57a24a85ea5876361e6fb694437bd04861b8de8d3e9e85ee4d94d840000000000000000000000000000000000000000000000000000000000000000a0000000000000000000000000000000000000000000000000000000000000afc800000000000000000000000000000000000000000000000000000000000000040000000000000000000000000000000000000000000000000000000000000000000000000000000000000000000000000000000000000000000000000000000e7472697669616c456e6372797074000000000000000000000000000000000000",
          "blockHash": "0xc604a0e11b59530c4603187f136f540933ef5de799ab2544240b6d242fe519de",
          "blockNumber": "0x8cbd01",
          "blockTimestamp": "0x68caf57c",
          "transactionHash": "0xa502c43de97ac68bb44554bf1a3eb26202ad6a3e12db6ea84977a0550953da9e",
          "transactionIndex": "0xaa",
          "logIndex": "0x29d",
          "removed": false
        },
        {
          "address": "0x0faf3047dc05328c5251a7beef8408c4d3a23880",
          "topics": [
            "0x2eb6b9f2d61ef09ebd58a3448a336321720cfcc2d29d35772d173c538af4a001",
            "0x07c01ba9ea6c38fed25d1b727430d1ca3e7f621782afc74d25e9f7648367e882",
            "0x000000000000000000000000429ba70129df741b2ca2a85bc3a2a3328e5c09b4"
          ],
          "data": "0x000000000000000000000000000000000000000000000000000000000000006000000000000000000000000000000000000000000000000000000000000000a000000000000000000000000000000000000000000000000000000000000000e000000000000000000000000000000000000000000000000000000000000000200a764f9f30b716b368533695c2e77d7a81122e222bbd4d386416da09b6c008000000000000000000000000000000000000000000000000000000000000000020af73fdf8112127ea7e45fdab98ca59e15c409bbbc082a39fed38a65208818400000000000000000000000000000000000000000000000000000000000000002027ea05d57a24a85ea5876361e6fb694437bd04861b8de8d3e9e85ee4d94d8400",
          "blockHash": "0xc604a0e11b59530c4603187f136f540933ef5de799ab2544240b6d242fe519de",
          "blockNumber": "0x8cbd01",
          "blockTimestamp": "0x68caf57c",
          "transactionHash": "0xa502c43de97ac68bb44554bf1a3eb26202ad6a3e12db6ea84977a0550953da9e",
          "transactionIndex": "0xaa",
          "logIndex": "0x29e",
          "removed": false
        },
        {
          "address": "0xe03a1074c86cfedd5c142c4f04f1a1536e203543",
          "topics": [
            "0xf208f4912782fd25c7f114ca3723a2d5dd6f3bcc3ac8db5af63baa85f711d5ec",
            "0x07c01ba9ea6c38fed25d1b727430d1ca3e7f621782afc74d25e9f7648367e882",
            "0x000000000000000000000000429ba70129df741b2ca2a85bc3a2a3328e5c09b4"
          ],
          "data": "0xffffffffffffffffffffffffffffffffffffffffffffffffffffffffffff5038000000000000000000000000000000000000000000000000000000000000afc80000000000000000000000000000000000000000000000060f4da7fe284f5dea000000000000000000000000000000000000000000000000000000000000431c",
          "blockHash": "0xc604a0e11b59530c4603187f136f540933ef5de799ab2544240b6d242fe519de",
          "blockNumber": "0x8cbd01",
          "blockTimestamp": "0x68caf57c",
          "transactionHash": "0xa502c43de97ac68bb44554bf1a3eb26202ad6a3e12db6ea84977a0550953da9e",
          "transactionIndex": "0xaa",
          "logIndex": "0x29f",
          "removed": false
        },
        {
          "address": "0x0e42efc341d5ef175db4ce9516d13eecc379e9ec",
          "topics": [
            "0xddf252ad1be2c89b69c2b068fc378daa952ba7f163c4a11628f55a4df523b3ef",
            "0x0000000000000000000000003e723f6b81431f325e3f08e75544f254c182afe2",
            "0x000000000000000000000000e03a1074c86cfedd5c142c4f04f1a1536e203543"
          ],
          "data": "0x0000000000000000000000000000000000000000000000056bc75e2d63100000",
          "blockHash": "0xc604a0e11b59530c4603187f136f540933ef5de799ab2544240b6d242fe519de",
          "blockNumber": "0x8cbd01",
          "blockTimestamp": "0x68caf57c",
          "transactionHash": "0xa502c43de97ac68bb44554bf1a3eb26202ad6a3e12db6ea84977a0550953da9e",
          "transactionIndex": "0xaa",
          "logIndex": "0x2a0",
          "removed": false
        },
        {
          "address": "0xf7ec23380bb7adedaf4c69239b66e444b4aaffdb",
          "topics": [
            "0xddf252ad1be2c89b69c2b068fc378daa952ba7f163c4a11628f55a4df523b3ef",
            "0x0000000000000000000000003e723f6b81431f325e3f08e75544f254c182afe2",
            "0x000000000000000000000000e03a1074c86cfedd5c142c4f04f1a1536e203543"
          ],
          "data": "0x0000000000000000000000000000000000000000000000056bc75e2d63100000",
          "blockHash": "0xc604a0e11b59530c4603187f136f540933ef5de799ab2544240b6d242fe519de",
          "blockNumber": "0x8cbd01",
          "blockTimestamp": "0x68caf57c",
          "transactionHash": "0xa502c43de97ac68bb44554bf1a3eb26202ad6a3e12db6ea84977a0550953da9e",
          "transactionIndex": "0xaa",
          "logIndex": "0x2a1",
          "removed": false
        }
      ],
      "logsBloom": "0x00000000080000000000001000000000080004000000040000000000080000000000000010400040080000000000080020000100088080000000000000000000000000100000000000000108000000000000000000000000000000000000000000000000020000000000000080000800000000000000100000000810000000000000000001000000800090000000000001080000000000800000000000000000000004000000000080000000000000000000000000400000000010000000800010000002000000000000000000000000000000000000000000001000000020001000000000000000400200000000000004000000000000000000020200000000",
      "type": "0x2",
      "transactionHash": "0xa502c43de97ac68bb44554bf1a3eb26202ad6a3e12db6ea84977a0550953da9e",
      "transactionIndex": "0xaa",
      "blockHash": "0xc604a0e11b59530c4603187f136f540933ef5de799ab2544240b6d242fe519de",
      "blockNumber": "0x8cbd01",
      "gasUsed": "0xa80e2",
      "effectiveGasPrice": "0xb43b9d",
      "from": "0x3e723f6b81431f325e3f08e75544f254c182afe2",
      "to": "0x429ba70129df741b2ca2a85bc3a2a3328e5c09b4",
      "contractAddress": null
    }
  ],
  "libraries": [],
  "pending": [],
  "returns": {},
  "timestamp": 1758131582013,
  "chain": 11155111,
  "commit": "7b9c819"
}