{
  "transactions": [
    {
      "hash": "0x3fe9a200758041151bcd8daa013815389516c865ee6255bc4822be22547ebbbe",
      "transactionType": "CALL",
      "contractName": null,
      "contractAddress": "0x429ba70129df741b2ca2a85bc3a2a3328e5c09b4",
      "function": "initializePool((address,address,uint24,int24,address),uint160)",
      "arguments": [
        "(0x0E42Efc341d5ef175dB4CE9516d13eecC379e9Ec, 0xf7eC23380BB7adEdaf4c69239B66e444B4aaffDb, 3000, 60, 0x0faF3047Dc05328c5251a7BeEF8408c4d3A23880)",
        "79228162514264337593543950336"
      ],
      "transaction": {
        "from": "0x3e723f6b81431f325e3f08e75544f254c182afe2",
        "to": "0x429ba70129df741b2ca2a85bc3a2a3328e5c09b4",
        "gas": "0x8aa86",
        "value": "0x0",
        "input": "0xf70204050000000000000000000000000e42efc341d5ef175db4ce9516d13eecc379e9ec000000000000000000000000f7ec23380bb7adedaf4c69239b66e444b4aaffdb0000000000000000000000000000000000000000000000000000000000000bb8000000000000000000000000000000000000000000000000000000000000003c0000000000000000000000000faf3047dc05328c5251a7beef8408c4d3a238800000000000000000000000000000000000000001000000000000000000000000",
        "nonce": "0x552",
        "chainId": "0xaa36a7"
      },
      "additionalContracts": [],
      "isFixedGasLimit": false
    },
    {
      "hash": "0xdda9377771f7d839bdc7f58af973d62a4964fc21973391b7afb46f4afba9f904",
      "transactionType": "CALL",
      "contractName": null,
      "contractAddress": "0xf7ec23380bb7adedaf4c69239b66e444b4aaffdb",
      "function": "approve(address,uint256)",
      "arguments": [
        "0x0faF3047Dc05328c5251a7BeEF8408c4d3A23880",
        "115792089237316195423570985008687907853269984665640564039457584007913129639935"
      ],
      "transaction": {
        "from": "0x3e723f6b81431f325e3f08e75544f254c182afe2",
        "to": "0xf7ec23380bb7adedaf4c69239b66e444b4aaffdb",
        "gas": "0xf9a4",
        "value": "0x0",
        "input": "0x095ea7b30000000000000000000000000faf3047dc05328c5251a7beef8408c4d3a23880ffffffffffffffffffffffffffffffffffffffffffffffffffffffffffffffff",
        "nonce": "0x553",
        "chainId": "0xaa36a7"
      },
      "additionalContracts": [],
      "isFixedGasLimit": false
    },
    {
      "hash": "0xbd448818e6c0047ab4a6795502084f5280902f322898eb5c80b7549295b18a03",
      "transactionType": "CALL",
      "contractName": null,
      "contractAddress": "0x0e42efc341d5ef175db4ce9516d13eecc379e9ec",
      "function": "approve(address,uint256)",
      "arguments": [
        "0x0faF3047Dc05328c5251a7BeEF8408c4d3A23880",
        "115792089237316195423570985008687907853269984665640564039457584007913129639935"
      ],
      "transaction": {
        "from": "0x3e723f6b81431f325e3f08e75544f254c182afe2",
        "to": "0x0e42efc341d5ef175db4ce9516d13eecc379e9ec",
        "gas": "0xf9a4",
        "value": "0x0",
        "input": "0x095ea7b30000000000000000000000000faf3047dc05328c5251a7beef8408c4d3a23880ffffffffffffffffffffffffffffffffffffffffffffffffffffffffffffffff",
        "nonce": "0x554",
        "chainId": "0xaa36a7"
      },
      "additionalContracts": [],
      "isFixedGasLimit": false
    },
    {
      "hash": "0xd528d0e4ba983614b6db271c2afc8291fa54e61e3644fe18b82c2e1c0bff70a0",
      "transactionType": "CALL",
      "contractName": null,
      "contractAddress": "0xf7ec23380bb7adedaf4c69239b66e444b4aaffdb",
      "function": "approve(address,uint256)",
      "arguments": [
        "0xE03A1074c86CFeDd5C142C4F04F1a1536e203543",
        "115792089237316195423570985008687907853269984665640564039457584007913129639935"
      ],
      "transaction": {
        "from": "0x3e723f6b81431f325e3f08e75544f254c182afe2",
        "to": "0xf7ec23380bb7adedaf4c69239b66e444b4aaffdb",
        "gas": "0xf9a4",
        "value": "0x0",
        "input": "0x095ea7b3000000000000000000000000e03a1074c86cfedd5c142c4f04f1a1536e203543ffffffffffffffffffffffffffffffffffffffffffffffffffffffffffffffff",
        "nonce": "0x555",
        "chainId": "0xaa36a7"
      },
      "additionalContracts": [],
      "isFixedGasLimit": false
    },
    {
      "hash": "0x912237a8d530b5be0157ef6419fd37f5a3334649f023ab47c3bece54f729380a",
      "transactionType": "CALL",
      "contractName": null,
      "contractAddress": "0x0e42efc341d5ef175db4ce9516d13eecc379e9ec",
      "function": "approve(address,uint256)",
      "arguments": [
        "0xE03A1074c86CFeDd5C142C4F04F1a1536e203543",
        "115792089237316195423570985008687907853269984665640564039457584007913129639935"
      ],
      "transaction": {
        "from": "0x3e723f6b81431f325e3f08e75544f254c182afe2",
        "to": "0x0e42efc341d5ef175db4ce9516d13eecc379e9ec",
        "gas": "0xf9a4",
        "value": "0x0",
        "input": "0x095ea7b3000000000000000000000000e03a1074c86cfedd5c142c4f04f1a1536e203543ffffffffffffffffffffffffffffffffffffffffffffffffffffffffffffffff",
        "nonce": "0x556",
        "chainId": "0xaa36a7"
      },
      "additionalContracts": [],
      "isFixedGasLimit": false
    }
  ],
  "receipts": [
    {
      "status": "0x1",
      "cumulativeGasUsed": "0x1766d01",
      "logs": [
        {
          "address": "0xea30c4b8b44078bbf8a6ef5b9f1ec1626c7848d9",
          "topics": [
            "0xe9de54a3e7ddf0c48cc6e1134185300d5a71acbf2d8c21fcdefa9d9dd9e20ac1"
          ],
          "data": "0xbb39351b2bc70ad6be41519c393ba92b7146cf5c8fcae77c8a1f6982d55c880000000000000000000000000000000000000000000000000000000000000000a0000000000000000000000000000000000000000000000000000000000000012c00000000000000000000000000000000000000000000000000000000000000080000000000000000000000000000000000000000000000000000000000000000000000000000000000000000000000000000000000000000000000000000000e7472697669616c456e6372797074000000000000000000000000000000000000",
          "blockHash": "0x9a748d6b8178ee9e50205a73cfb00e594065d7651d2ed0108e88fd93cef3bea7",
          "blockNumber": "0x8cbcca",
          "blockTimestamp": "0x68caf288",
          "transactionHash": "0x3fe9a200758041151bcd8daa013815389516c865ee6255bc4822be22547ebbbe",
          "transactionIndex": "0x47",
          "logIndex": "0x20a",
          "removed": false
        },
        {
          "address": "0xea30c4b8b44078bbf8a6ef5b9f1ec1626c7848d9",
          "topics": [
            "0xe9de54a3e7ddf0c48cc6e1134185300d5a71acbf2d8c21fcdefa9d9dd9e20ac1"
          ],
          "data": "0x1253f33bcc7d14ead4330255d5baaf2209a953415c511c19411382f6423f840000000000000000000000000000000000000000000000000000000000000000a000000000000000000000000000000000000000000000000000000000000000b400000000000000000000000000000000000000000000000000000000000000040000000000000000000000000000000000000000000000000000000000000000000000000000000000000000000000000000000000000000000000000000000e7472697669616c456e6372797074000000000000000000000000000000000000",
          "blockHash": "0x9a748d6b8178ee9e50205a73cfb00e594065d7651d2ed0108e88fd93cef3bea7",
          "blockNumber": "0x8cbcca",
          "blockTimestamp": "0x68caf288",
          "transactionHash": "0x3fe9a200758041151bcd8daa013815389516c865ee6255bc4822be22547ebbbe",
          "transactionIndex": "0x47",
          "logIndex": "0x20b",
          "removed": false
        },
        {
          "address": "0xea30c4b8b44078bbf8a6ef5b9f1ec1626c7848d9",
          "topics": [
            "0xe9de54a3e7ddf0c48cc6e1134185300d5a71acbf2d8c21fcdefa9d9dd9e20ac1"
          ],
          "data": "0xe8c638c5370ad54fb6bc7fb3c67f13705c787cf30645cd1b92d5f61704b5840000000000000000000000000000000000000000000000000000000000000000a0000000000000000000000000000000000000000000000000000000000000006400000000000000000000000000000000000000000000000000000000000000040000000000000000000000000000000000000000000000000000000000000000000000000000000000000000000000000000000000000000000000000000000e7472697669616c456e6372797074000000000000000000000000000000000000",
          "blockHash": "0x9a748d6b8178ee9e50205a73cfb00e594065d7651d2ed0108e88fd93cef3bea7",
          "blockNumber": "0x8cbcca",
          "blockTimestamp": "0x68caf288",
          "transactionHash": "0x3fe9a200758041151bcd8daa013815389516c865ee6255bc4822be22547ebbbe",
          "transactionIndex": "0x47",
          "logIndex": "0x20c",
          "removed": false
        },
        {
          "address": "0xea30c4b8b44078bbf8a6ef5b9f1ec1626c7848d9",
          "topics": [
            "0xe9de54a3e7ddf0c48cc6e1134185300d5a71acbf2d8c21fcdefa9d9dd9e20ac1"
          ],
          "data": "0xb3e26d30bbd0fa3e41a1d86cb7844842fbb2638ed221cf36790bbd9c9f3e800000000000000000000000000000000000000000000000000000000000000000a0000000000000000000000000000000000000000000000000000000000000000100000000000000000000000000000000000000000000000000000000000000000000000000000000000000000000000000000000000000000000000000000000000000000000000000000000000000000000000000000000000000000000000e7472697669616c456e6372797074000000000000000000000000000000000000",
          "blockHash": "0x9a748d6b8178ee9e50205a73cfb00e594065d7651d2ed0108e88fd93cef3bea7",
          "blockNumber": "0x8cbcca",
          "blockTimestamp": "0x68caf288",
          "transactionHash": "0x3fe9a200758041151bcd8daa013815389516c865ee6255bc4822be22547ebbbe",
          "transactionIndex": "0x47",
          "logIndex": "0x20d",
          "removed": false
        },
        {
          "address": "0xea30c4b8b44078bbf8a6ef5b9f1ec1626c7848d9",
          "topics": [
            "0xe9de54a3e7ddf0c48cc6e1134185300d5a71acbf2d8c21fcdefa9d9dd9e20ac1"
          ],
          "data": "0xe8c638c5370ad54fb6bc7fb3c67f13705c787cf30645cd1b92d5f61704b5840000000000000000000000000000000000000000000000000000000000000000a0000000000000000000000000000000000000000000000000000000000000006400000000000000000000000000000000000000000000000000000000000000040000000000000000000000000000000000000000000000000000000000000000000000000000000000000000000000000000000000000000000000000000000e7472697669616c456e6372797074000000000000000000000000000000000000",
          "blockHash": "0x9a748d6b8178ee9e50205a73cfb00e594065d7651d2ed0108e88fd93cef3bea7",
          "blockNumber": "0x8cbcca",
          "blockTimestamp": "0x68caf288",
          "transactionHash": "0x3fe9a200758041151bcd8daa013815389516c865ee6255bc4822be22547ebbbe",
          "transactionIndex": "0x47",
          "logIndex": "0x20e",
          "removed": false
        },
        {
          "address": "0xea30c4b8b44078bbf8a6ef5b9f1ec1626c7848d9",
          "topics": [
            "0xe9de54a3e7ddf0c48cc6e1134185300d5a71acbf2d8c21fcdefa9d9dd9e20ac1"
          ],
          "data": "0xd8d542465d641073d3a041fe1808c3ef4b840d59b78f9a8d96485189b1f2880000000000000000000000000000000000000000000000000000000000000000a0000000000000000000000000000000000000000000000000000000000000000000000000000000000000000000000000000000000000000000000000000000080000000000000000000000000000000000000000000000000000000000000000000000000000000000000000000000000000000000000000000000000000000e7472697669616c456e6372797074000000000000000000000000000000000000",
          "blockHash": "0x9a748d6b8178ee9e50205a73cfb00e594065d7651d2ed0108e88fd93cef3bea7",
          "blockNumber": "0x8cbcca",
          "blockTimestamp": "0x68caf288",
          "transactionHash": "0x3fe9a200758041151bcd8daa013815389516c865ee6255bc4822be22547ebbbe",
          "transactionIndex": "0x47",
          "logIndex": "0x20f",
          "removed": false
        },
        {
          "address": "0xe03a1074c86cfedd5c142c4f04f1a1536e203543",
          "topics": [
            "0xdd466e674ea557f56295e2d0218a125ea4b4f0f6f3307b95f85e6110838d6438",
            "0x07c01ba9ea6c38fed25d1b727430d1ca3e7f621782afc74d25e9f7648367e882",
            "0x0000000000000000000000000e42efc341d5ef175db4ce9516d13eecc379e9ec",
            "0x000000000000000000000000f7ec23380bb7adedaf4c69239b66e444b4aaffdb"
          ],
          "data": "0x0000000000000000000000000000000000000000000000000000000000000bb8000000000000000000000000000000000000000000000000000000000000003c0000000000000000000000000faf3047dc05328c5251a7beef8408c4d3a2388000000000000000000000000000000000000000010000000000000000000000000000000000000000000000000000000000000000000000000000000000000000",
          "blockHash": "0x9a748d6b8178ee9e50205a73cfb00e594065d7651d2ed0108e88fd93cef3bea7",
          "blockNumber": "0x8cbcca",
          "blockTimestamp": "0x68caf288",
          "transactionHash": "0x3fe9a200758041151bcd8daa013815389516c865ee6255bc4822be22547ebbbe",
          "transactionIndex": "0x47",
          "logIndex": "0x210",
          "removed": false
        }
      ],
      "logsBloom": "0x00000000000000000000000000000000080000000000000000000000000000000000000000400000000000000000000000000100008000000000000000000000000000100000000000000000000000000000000000000000000000000000000000040000000000000000000000000000000000000000104000008000000000000000000000000008000010000000000001080001000000000000000000200000000000000000000000000000000000000000000000000000000000000000000000000000000000000000000000100000000400000000000000000000000000001000000000000000000200000000000000000000000000000000020200000000",
      "type": "0x2",
      "transactionHash": "0x3fe9a200758041151bcd8daa013815389516c865ee6255bc4822be22547ebbbe",
      "transactionIndex": "0x47",
      "blockHash": "0x9a748d6b8178ee9e50205a73cfb00e594065d7651d2ed0108e88fd93cef3bea7",
      "blockNumber": "0x8cbcca",
      "gasUsed": "0x6462d",
      "effectiveGasPrice": "0xd002bf",
      "from": "0x3e723f6b81431f325e3f08e75544f254c182afe2",
      "to": "0x429ba70129df741b2ca2a85bc3a2a3328e5c09b4",
      "contractAddress": null
    },
    {
      "status": "0x1",
      "cumulativeGasUsed": "0x17721be",
      "logs": [
        {
          "address": "0xf7ec23380bb7adedaf4c69239b66e444b4aaffdb",
          "topics": [
            "0x8c5be1e5ebec7d5bd14f71427d1e84f3dd0314c0f7b2291e5b200ac8c7c3b925",
            "0x0000000000000000000000003e723f6b81431f325e3f08e75544f254c182afe2",
            "0x0000000000000000000000000faf3047dc05328c5251a7beef8408c4d3a23880"
          ],
          "data": "0xffffffffffffffffffffffffffffffffffffffffffffffffffffffffffffffff",
          "blockHash": "0x9a748d6b8178ee9e50205a73cfb00e594065d7651d2ed0108e88fd93cef3bea7",
          "blockNumber": "0x8cbcca",
          "blockTimestamp": "0x68caf288",
          "transactionHash": "0xdda9377771f7d839bdc7f58af973d62a4964fc21973391b7afb46f4afba9f904",
          "transactionIndex": "0x48",
          "logIndex": "0x211",
          "removed": false
        }
      ],
      "logsBloom": "0x00000000000000000000000000000000000000000000040000000000000000000000000000000000000000000000000020000000080000000000000000200000000010000000000000000100000000000000000000000000000000000000000000000000000000000000000000000000000100000000000000000000000000000000000000000000000000000000000000000000000000000000000000000000020000000000000080000000000000000000000000000000400010000000000000000000000000000000000000000000000000000000000000000000000000000010000000000000000000000000000000000000000000000000000000000000",
      "type": "0x2",
      "transactionHash": "0xdda9377771f7d839bdc7f58af973d62a4964fc21973391b7afb46f4afba9f904",
      "transactionIndex": "0x48",
      "blockHash": "0x9a748d6b8178ee9e50205a73cfb00e594065d7651d2ed0108e88fd93cef3bea7",
      "blockNumber": "0x8cbcca",
      "gasUsed": "0xb4bd",
      "effectiveGasPrice": "0xd002bf",
      "from": "0x3e723f6b81431f325e3f08e75544f254c182afe2",
      "to": "0xf7ec23380bb7adedaf4c69239b66e444b4aaffdb",
      "contractAddress": null
    },
    {
      "status": "0x1",
      "cumulativeGasUsed": "0x177d67b",
      "logs": [
        {
          "address": "0x0e42efc341d5ef175db4ce9516d13eecc379e9ec",
          "topics": [
            "0x8c5be1e5ebec7d5bd14f71427d1e84f3dd0314c0f7b2291e5b200ac8c7c3b925",
            "0x0000000000000000000000003e723f6b81431f325e3f08e75544f254c182afe2",
            "0x0000000000000000000000000faf3047dc05328c5251a7beef8408c4d3a23880"
          ],
          "data": "0xffffffffffffffffffffffffffffffffffffffffffffffffffffffffffffffff",
          "blockHash": "0x9a748d6b8178ee9e50205a73cfb00e594065d7651d2ed0108e88fd93cef3bea7",
          "blockNumber": "0x8cbcca",
          "blockTimestamp": "0x68caf288",
          "transactionHash": "0xbd448818e6c0047ab4a6795502084f5280902f322898eb5c80b7549295b18a03",
          "transactionIndex": "0x49",
          "logIndex": "0x212",
          "removed": false
        }
      ],
      "logsBloom": "0x00000000080000000000000000000000000000000000000000000000000000000000000000000000000000000000080000000000080000000000000000200000000010000000000000000008000000000000000000000000000000000000000000000000000000000000000000000000000100000000000000000000000000000000000000000000000000000000000000000000000000000000000000000000020000000000000080000000000000000000000000000000400010000000000000000000000000000000000000000000000000000000000000000000000000000010000000000000000000000000000000000000000000000000000000000000",
      "type": "0x2",
      "transactionHash": "0xbd448818e6c0047ab4a6795502084f5280902f322898eb5c80b7549295b18a03",
      "transactionIndex": "0x49",
      "blockHash": "0x9a748d6b8178ee9e50205a73cfb00e594065d7651d2ed0108e88fd93cef3bea7",
      "blockNumber": "0x8cbcca",
      "gasUsed": "0xb4bd",
      "effectiveGasPrice": "0xd002bf",
      "from": "0x3e723f6b81431f325e3f08e75544f254c182afe2",
      "to": "0x0e42efc341d5ef175db4ce9516d13eecc379e9ec",
      "contractAddress": null
    },
    {
      "status": "0x1",
      "cumulativeGasUsed": "0x1788b38",
      "logs": [
        {
          "address": "0xf7ec23380bb7adedaf4c69239b66e444b4aaffdb",
          "topics": [
            "0x8c5be1e5ebec7d5bd14f71427d1e84f3dd0314c0f7b2291e5b200ac8c7c3b925",
            "0x0000000000000000000000003e723f6b81431f325e3f08e75544f254c182afe2",
            "0x000000000000000000000000e03a1074c86cfedd5c142c4f04f1a1536e203543"
          ],
          "data": "0xffffffffffffffffffffffffffffffffffffffffffffffffffffffffffffffff",
          "blockHash": "0x9a748d6b8178ee9e50205a73cfb00e594065d7651d2ed0108e88fd93cef3bea7",
          "blockNumber": "0x8cbcca",
          "blockTimestamp": "0x68caf288",
          "transactionHash": "0xd528d0e4ba983614b6db271c2afc8291fa54e61e3644fe18b82c2e1c0bff70a0",
          "transactionIndex": "0x4a",
          "logIndex": "0x213",
          "removed": false
        }
      ],
      "logsBloom": "0x00000000000000000000000000000000000000000000040000000000000000000000000000000000000000000000000020000000080000000000000000200000000000000000000000000100000000000000000000000000000000000000000000000000000000000000000080000000000000000000000000000000000000000000000000000000000010000000000000000000000000000000000000000000020000000000000080000000000000000000000000000000000010000000000000000000000000000000000000000000000000000000000000001000000000000010000000000000000000000000000000000000000000000000000000000000",
      "type": "0x2",
      "transactionHash": "0xd528d0e4ba983614b6db271c2afc8291fa54e61e3644fe18b82c2e1c0bff70a0",
      "transactionIndex": "0x4a",
      "blockHash": "0x9a748d6b8178ee9e50205a73cfb00e594065d7651d2ed0108e88fd93cef3bea7",
      "blockNumber": "0x8cbcca",
      "gasUsed": "0xb4bd",
      "effectiveGasPrice": "0xd002bf",
      "from": "0x3e723f6b81431f325e3f08e75544f254c182afe2",
      "to": "0xf7ec23380bb7adedaf4c69239b66e444b4aaffdb",
      "contractAddress": null
    },
    {
      "status": "0x1",
      "cumulativeGasUsed": "0x1793ff5",
      "logs": [
        {
          "address": "0x0e42efc341d5ef175db4ce9516d13eecc379e9ec",
          "topics": [
            "0x8c5be1e5ebec7d5bd14f71427d1e84f3dd0314c0f7b2291e5b200ac8c7c3b925",
            "0x0000000000000000000000003e723f6b81431f325e3f08e75544f254c182afe2",
            "0x000000000000000000000000e03a1074c86cfedd5c142c4f04f1a1536e203543"
          ],
          "data": "0xffffffffffffffffffffffffffffffffffffffffffffffffffffffffffffffff",
          "blockHash": "0x9a748d6b8178ee9e50205a73cfb00e594065d7651d2ed0108e88fd93cef3bea7",
          "blockNumber": "0x8cbcca",
          "blockTimestamp": "0x68caf288",
          "transactionHash": "0x912237a8d530b5be0157ef6419fd37f5a3334649f023ab47c3bece54f729380a",
          "transactionIndex": "0x4b",
          "logIndex": "0x214",
          "removed": false
        }
      ],
      "logsBloom": "0x00000000080000000000000000000000000000000000000000000000000000000000000000000000000000000000080000000000080000000000000000200000000000000000000000000008000000000000000000000000000000000000000000000000000000000000000080000000000000000000000000000000000000000000000000000000000010000000000000000000000000000000000000000000020000000000000080000000000000000000000000000000000010000000000000000000000000000000000000000000000000000000000000001000000000000010000000000000000000000000000000000000000000000000000000000000",
      "type": "0x2",
      "transactionHash": "0x912237a8d530b5be0157ef6419fd37f5a3334649f023ab47c3bece54f729380a",
      "transactionIndex": "0x4b",
      "blockHash": "0x9a748d6b8178ee9e50205a73cfb00e594065d7651d2ed0108e88fd93cef3bea7",
      "blockNumber": "0x8cbcca",
      "gasUsed": "0xb4bd",
      "effectiveGasPrice": "0xd002bf",
      "from": "0x3e723f6b81431f325e3f08e75544f254c182afe2",
      "to": "0x0e42efc341d5ef175db4ce9516d13eecc379e9ec",
      "contractAddress": null
    }
  ],
  "libraries": [],
  "pending": [],
  "returns": {},
  "timestamp": 1758130825605,
  "chain": 11155111,
  "commit": "7b9c819"
}