{
  "transactions": [
    {
      "hash": "0x77cedb1fbf64ca2133ad4286f91ded432e289c97986606d2e3139b446d61f233",
      "transactionType": "CALL",
      "contractName": null,
      "contractAddress": "0x429ba70129df741b2ca2a85bc3a2a3328e5c09b4",
      "function": "initializePool((address,address,uint24,int24,address),uint160)",
      "arguments": [
        "(0xA56B53EcB819339f8615A92686d373AFE725507a, 0xd2873281EEA8b50406e1eF7CF5F73EDbbbA1cF50, 3000, 60, 0x01f5Fa1b4E40C39AD05465Ea91BFA25df2343880)",
        "79228162514264337593543950336"
      ],
      "transaction": {
        "from": "0x3e723f6b81431f325e3f08e75544f254c182afe2",
        "to": "0x429ba70129df741b2ca2a85bc3a2a3328e5c09b4",
        "gas": "0x8aa86",
        "value": "0x0",
        "input": "0xf7020405000000000000000000000000a56b53ecb819339f8615a92686d373afe725507a000000000000000000000000d2873281eea8b50406e1ef7cf5f73edbbba1cf500000000000000000000000000000000000000000000000000000000000000bb8000000000000000000000000000000000000000000000000000000000000003c00000000000000000000000001f5fa1b4e40c39ad05465ea91bfa25df23438800000000000000000000000000000000000000001000000000000000000000000",
        "nonce": "0x4e4",
        "chainId": "0xaa36a7"
      },
      "additionalContracts": [],
      "isFixedGasLimit": false
    },
    {
      "hash": "0x657087aef50edd858b7ddf829efeaef88795ba0b3a5218732b7ec154e3f89a7c",
      "transactionType": "CALL",
      "contractName": null,
      "contractAddress": "0xd2873281eea8b50406e1ef7cf5f73edbbba1cf50",
      "function": "approve(address,uint256)",
      "arguments": [
        "0x01f5Fa1b4E40C39AD05465Ea91BFA25df2343880",
        "115792089237316195423570985008687907853269984665640564039457584007913129639935"
      ],
      "transaction": {
        "from": "0x3e723f6b81431f325e3f08e75544f254c182afe2",
        "to": "0xd2873281eea8b50406e1ef7cf5f73edbbba1cf50",
        "gas": "0xf9a4",
        "value": "0x0",
        "input": "0x095ea7b300000000000000000000000001f5fa1b4e40c39ad05465ea91bfa25df2343880ffffffffffffffffffffffffffffffffffffffffffffffffffffffffffffffff",
        "nonce": "0x4e5",
        "chainId": "0xaa36a7"
      },
      "additionalContracts": [],
      "isFixedGasLimit": false
    },
    {
      "hash": "0x8d3f8dfe85293e486918c120784a0733367c1d7ef2e971560be628dca3c2b7f3",
      "transactionType": "CALL",
      "contractName": null,
      "contractAddress": "0xa56b53ecb819339f8615a92686d373afe725507a",
      "function": "approve(address,uint256)",
      "arguments": [
        "0x01f5Fa1b4E40C39AD05465Ea91BFA25df2343880",
        "115792089237316195423570985008687907853269984665640564039457584007913129639935"
      ],
      "transaction": {
        "from": "0x3e723f6b81431f325e3f08e75544f254c182afe2",
        "to": "0xa56b53ecb819339f8615a92686d373afe725507a",
        "gas": "0xf9a4",
        "value": "0x0",
        "input": "0x095ea7b300000000000000000000000001f5fa1b4e40c39ad05465ea91bfa25df2343880ffffffffffffffffffffffffffffffffffffffffffffffffffffffffffffffff",
        "nonce": "0x4e6",
        "chainId": "0xaa36a7"
      },
      "additionalContracts": [],
      "isFixedGasLimit": false
    },
    {
      "hash": "0x84e0a3d4557de41a8ffa88f20451126e37421ded02c08330cbf0145f81041c3a",
      "transactionType": "CALL",
      "contractName": null,
      "contractAddress": "0xd2873281eea8b50406e1ef7cf5f73edbbba1cf50",
      "function": "approve(address,uint256)",
      "arguments": [
        "0xE03A1074c86CFeDd5C142C4F04F1a1536e203543",
        "115792089237316195423570985008687907853269984665640564039457584007913129639935"
      ],
      "transaction": {
        "from": "0x3e723f6b81431f325e3f08e75544f254c182afe2",
        "to": "0xd2873281eea8b50406e1ef7cf5f73edbbba1cf50",
        "gas": "0xf9a4",
        "value": "0x0",
        "input": "0x095ea7b3000000000000000000000000e03a1074c86cfedd5c142c4f04f1a1536e203543ffffffffffffffffffffffffffffffffffffffffffffffffffffffffffffffff",
        "nonce": "0x4e7",
        "chainId": "0xaa36a7"
      },
      "additionalContracts": [],
      "isFixedGasLimit": false
    },
    {
      "hash": "0xad6eaa86aea7b6cd1c2958af9a2b5bd1a3b3fc0475023547dd0ef8f03eb3463f",
      "transactionType": "CALL",
      "contractName": null,
      "contractAddress": "0xa56b53ecb819339f8615a92686d373afe725507a",
      "function": "approve(address,uint256)",
      "arguments": [
        "0xE03A1074c86CFeDd5C142C4F04F1a1536e203543",
        "115792089237316195423570985008687907853269984665640564039457584007913129639935"
      ],
      "transaction": {
        "from": "0x3e723f6b81431f325e3f08e75544f254c182afe2",
        "to": "0xa56b53ecb819339f8615a92686d373afe725507a",
        "gas": "0xf9a4",
        "value": "0x0",
        "input": "0x095ea7b3000000000000000000000000e03a1074c86cfedd5c142c4f04f1a1536e203543ffffffffffffffffffffffffffffffffffffffffffffffffffffffffffffffff",
        "nonce": "0x4e8",
        "chainId": "0xaa36a7"
      },
      "additionalContracts": [],
      "isFixedGasLimit": false
    }
  ],
  "receipts": [
    {
      "status": "0x1",
      "cumulativeGasUsed": "0x2da988c",
      "logs": [
        {
          "address": "0xea30c4b8b44078bbf8a6ef5b9f1ec1626c7848d9",
          "topics": [
            "0xe9de54a3e7ddf0c48cc6e1134185300d5a71acbf2d8c21fcdefa9d9dd9e20ac1"
          ],
          "data": "0xbb39351b2bc70ad6be41519c393ba92b7146cf5c8fcae77c8a1f6982d55c880000000000000000000000000000000000000000000000000000000000000000a0000000000000000000000000000000000000000000000000000000000000012c00000000000000000000000000000000000000000000000000000000000000080000000000000000000000000000000000000000000000000000000000000000000000000000000000000000000000000000000000000000000000000000000e7472697669616c456e6372797074000000000000000000000000000000000000",
          "blockHash": "0xaf91a9dcc53bad7f30603d62d9bf8de518c75d46f388ec249bc6ab297c5d15df",
          "blockNumber": "0x8cad2e",
          "blockTimestamp": "0x68ca27a8",
          "transactionHash": "0x77cedb1fbf64ca2133ad4286f91ded432e289c97986606d2e3139b446d61f233",
          "transactionIndex": "0x134",
          "logIndex": "0x131",
          "removed": false
        },
        {
          "address": "0xea30c4b8b44078bbf8a6ef5b9f1ec1626c7848d9",
          "topics": [
            "0xe9de54a3e7ddf0c48cc6e1134185300d5a71acbf2d8c21fcdefa9d9dd9e20ac1"
          ],
          "data": "0x1253f33bcc7d14ead4330255d5baaf2209a953415c511c19411382f6423f840000000000000000000000000000000000000000000000000000000000000000a000000000000000000000000000000000000000000000000000000000000000b400000000000000000000000000000000000000000000000000000000000000040000000000000000000000000000000000000000000000000000000000000000000000000000000000000000000000000000000000000000000000000000000e7472697669616c456e6372797074000000000000000000000000000000000000",
          "blockHash": "0xaf91a9dcc53bad7f30603d62d9bf8de518c75d46f388ec249bc6ab297c5d15df",
          "blockNumber": "0x8cad2e",
          "blockTimestamp": "0x68ca27a8",
          "transactionHash": "0x77cedb1fbf64ca2133ad4286f91ded432e289c97986606d2e3139b446d61f233",
          "transactionIndex": "0x134",
          "logIndex": "0x132",
          "removed": false
        },
        {
          "address": "0xea30c4b8b44078bbf8a6ef5b9f1ec1626c7848d9",
          "topics": [
            "0xe9de54a3e7ddf0c48cc6e1134185300d5a71acbf2d8c21fcdefa9d9dd9e20ac1"
          ],
          "data": "0xe8c638c5370ad54fb6bc7fb3c67f13705c787cf30645cd1b92d5f61704b5840000000000000000000000000000000000000000000000000000000000000000a0000000000000000000000000000000000000000000000000000000000000006400000000000000000000000000000000000000000000000000000000000000040000000000000000000000000000000000000000000000000000000000000000000000000000000000000000000000000000000000000000000000000000000e7472697669616c456e6372797074000000000000000000000000000000000000",
          "blockHash": "0xaf91a9dcc53bad7f30603d62d9bf8de518c75d46f388ec249bc6ab297c5d15df",
          "blockNumber": "0x8cad2e",
          "blockTimestamp": "0x68ca27a8",
          "transactionHash": "0x77cedb1fbf64ca2133ad4286f91ded432e289c97986606d2e3139b446d61f233",
          "transactionIndex": "0x134",
          "logIndex": "0x133",
          "removed": false
        },
        {
          "address": "0xea30c4b8b44078bbf8a6ef5b9f1ec1626c7848d9",
          "topics": [
            "0xe9de54a3e7ddf0c48cc6e1134185300d5a71acbf2d8c21fcdefa9d9dd9e20ac1"
          ],
          "data": "0xb3e26d30bbd0fa3e41a1d86cb7844842fbb2638ed221cf36790bbd9c9f3e800000000000000000000000000000000000000000000000000000000000000000a0000000000000000000000000000000000000000000000000000000000000000100000000000000000000000000000000000000000000000000000000000000000000000000000000000000000000000000000000000000000000000000000000000000000000000000000000000000000000000000000000000000000000000e7472697669616c456e6372797074000000000000000000000000000000000000",
          "blockHash": "0xaf91a9dcc53bad7f30603d62d9bf8de518c75d46f388ec249bc6ab297c5d15df",
          "blockNumber": "0x8cad2e",
          "blockTimestamp": "0x68ca27a8",
          "transactionHash": "0x77cedb1fbf64ca2133ad4286f91ded432e289c97986606d2e3139b446d61f233",
          "transactionIndex": "0x134",
          "logIndex": "0x134",
          "removed": false
        },
        {
          "address": "0xea30c4b8b44078bbf8a6ef5b9f1ec1626c7848d9",
          "topics": [
            "0xe9de54a3e7ddf0c48cc6e1134185300d5a71acbf2d8c21fcdefa9d9dd9e20ac1"
          ],
          "data": "0xe8c638c5370ad54fb6bc7fb3c67f13705c787cf30645cd1b92d5f61704b5840000000000000000000000000000000000000000000000000000000000000000a0000000000000000000000000000000000000000000000000000000000000006400000000000000000000000000000000000000000000000000000000000000040000000000000000000000000000000000000000000000000000000000000000000000000000000000000000000000000000000000000000000000000000000e7472697669616c456e6372797074000000000000000000000000000000000000",
          "blockHash": "0xaf91a9dcc53bad7f30603d62d9bf8de518c75d46f388ec249bc6ab297c5d15df",
          "blockNumber": "0x8cad2e",
          "blockTimestamp": "0x68ca27a8",
          "transactionHash": "0x77cedb1fbf64ca2133ad4286f91ded432e289c97986606d2e3139b446d61f233",
          "transactionIndex": "0x134",
          "logIndex": "0x135",
          "removed": false
        },
        {
          "address": "0xea30c4b8b44078bbf8a6ef5b9f1ec1626c7848d9",
          "topics": [
            "0xe9de54a3e7ddf0c48cc6e1134185300d5a71acbf2d8c21fcdefa9d9dd9e20ac1"
          ],
          "data": "0xd8d542465d641073d3a041fe1808c3ef4b840d59b78f9a8d96485189b1f2880000000000000000000000000000000000000000000000000000000000000000a0000000000000000000000000000000000000000000000000000000000000000000000000000000000000000000000000000000000000000000000000000000080000000000000000000000000000000000000000000000000000000000000000000000000000000000000000000000000000000000000000000000000000000e7472697669616c456e6372797074000000000000000000000000000000000000",
          "blockHash": "0xaf91a9dcc53bad7f30603d62d9bf8de518c75d46f388ec249bc6ab297c5d15df",
          "blockNumber": "0x8cad2e",
          "blockTimestamp": "0x68ca27a8",
          "transactionHash": "0x77cedb1fbf64ca2133ad4286f91ded432e289c97986606d2e3139b446d61f233",
          "transactionIndex": "0x134",
          "logIndex": "0x136",
          "removed": false
        },
        {
          "address": "0xe03a1074c86cfedd5c142c4f04f1a1536e203543",
          "topics": [
            "0xdd466e674ea557f56295e2d0218a125ea4b4f0f6f3307b95f85e6110838d6438",
            "0x6cc402913a432836bc2e52a630a63459437532a131ab356c1778393326fa6da6",
            "0x000000000000000000000000a56b53ecb819339f8615a92686d373afe725507a",
            "0x000000000000000000000000d2873281eea8b50406e1ef7cf5f73edbbba1cf50"
          ],
          "data": "0x0000000000000000000000000000000000000000000000000000000000000bb8000000000000000000000000000000000000000000000000000000000000003c00000000000000000000000001f5fa1b4e40c39ad05465ea91bfa25df234388000000000000000000000000000000000000000010000000000000000000000000000000000000000000000000000000000000000000000000000000000000000",
          "blockHash": "0xaf91a9dcc53bad7f30603d62d9bf8de518c75d46f388ec249bc6ab297c5d15df",
          "blockNumber": "0x8cad2e",
          "blockTimestamp": "0x68ca27a8",
          "transactionHash": "0x77cedb1fbf64ca2133ad4286f91ded432e289c97986606d2e3139b446d61f233",
          "transactionIndex": "0x134",
          "logIndex": "0x137",
          "removed": false
        }
      ],
      "logsBloom": "0x00000000000000000000000000000000080000000000000000000000000000200000000000000000000000000000400000000100008000000000000000000000000000000000000000010000000000000000000000000000000000000000000000000000000000000000000000002000000000000000100000000000000000000000000000000008000000000000000003000001000000000000000000200000080000000400000000000000000000000000000000000000000000000000000000000000000000000000000000000000000000000000000010000000000000001000000000000000000200000000400000000000000000000000020200000000",
      "type": "0x2",
      "transactionHash": "0x77cedb1fbf64ca2133ad4286f91ded432e289c97986606d2e3139b446d61f233",
      "transactionIndex": "0x134",
      "blockHash": "0xaf91a9dcc53bad7f30603d62d9bf8de518c75d46f388ec249bc6ab297c5d15df",
      "blockNumber": "0x8cad2e",
      "gasUsed": "0x6462d",
      "effectiveGasPrice": "0xf8804",
      "from": "0x3e723f6b81431f325e3f08e75544f254c182afe2",
      "to": "0x429ba70129df741b2ca2a85bc3a2a3328e5c09b4",
      "contractAddress": null
    },
    {
      "status": "0x1",
      "cumulativeGasUsed": "0x2df7e8b",
      "logs": [
        {
          "address": "0xd2873281eea8b50406e1ef7cf5f73edbbba1cf50",
          "topics": [
            "0x8c5be1e5ebec7d5bd14f71427d1e84f3dd0314c0f7b2291e5b200ac8c7c3b925",
            "0x0000000000000000000000003e723f6b81431f325e3f08e75544f254c182afe2",
            "0x00000000000000000000000001f5fa1b4e40c39ad05465ea91bfa25df2343880"
          ],
          "data": "0xffffffffffffffffffffffffffffffffffffffffffffffffffffffffffffffff",
          "blockHash": "0xaf91a9dcc53bad7f30603d62d9bf8de518c75d46f388ec249bc6ab297c5d15df",
          "blockNumber": "0x8cad2e",
          "blockTimestamp": "0x68ca27a8",
          "transactionHash": "0x657087aef50edd858b7ddf829efeaef88795ba0b3a5218732b7ec154e3f89a7c",
          "transactionIndex": "0x137",
          "logIndex": "0x13f",
          "removed": false
        }
      ],
      "logsBloom": "0x00000000000000000000000000000000000000000000000000000000000000000000000000000000000000000000000000000000080000000000000000200000000000100000000000000000000000000000000000000000000000000000000000000000000000000000080000000000000000000000000000000000000000000002000000000000000000000000000000000000000000000000000000000000020000000000000080000002000000000100000000000000000010001000000000000000000000000000000000000000000000000000000000000000000000000010000000000000000000000000000000000000000000000000000000000000",
      "type": "0x2",
      "transactionHash": "0x657087aef50edd858b7ddf829efeaef88795ba0b3a5218732b7ec154e3f89a7c",
      "transactionIndex": "0x137",
      "blockHash": "0xaf91a9dcc53bad7f30603d62d9bf8de518c75d46f388ec249bc6ab297c5d15df",
      "blockNumber": "0x8cad2e",
      "gasUsed": "0xb4bd",
      "effectiveGasPrice": "0xf8804",
      "from": "0x3e723f6b81431f325e3f08e75544f254c182afe2",
      "to": "0xd2873281eea8b50406e1ef7cf5f73edbbba1cf50",
      "contractAddress": null
    },
    {
      "status": "0x1",
      "cumulativeGasUsed": "0x2e03348",
      "logs": [
        {
          "address": "0xa56b53ecb819339f8615a92686d373afe725507a",
          "topics": [
            "0x8c5be1e5ebec7d5bd14f71427d1e84f3dd0314c0f7b2291e5b200ac8c7c3b925",
            "0x0000000000000000000000003e723f6b81431f325e3f08e75544f254c182afe2",
            "0x00000000000000000000000001f5fa1b4e40c39ad05465ea91bfa25df2343880"
          ],
          "data": "0xffffffffffffffffffffffffffffffffffffffffffffffffffffffffffffffff",
          "blockHash": "0xaf91a9dcc53bad7f30603d62d9bf8de518c75d46f388ec249bc6ab297c5d15df",
          "blockNumber": "0x8cad2e",
          "blockTimestamp": "0x68ca27a8",
          "transactionHash": "0x8d3f8dfe85293e486918c120784a0733367c1d7ef2e971560be628dca3c2b7f3",
          "transactionIndex": "0x138",
          "logIndex": "0x140",
          "removed": false
        }
      ],
      "logsBloom": "0x00000000000000000000000000000000000000000000000000000000000000000000000000000000000000000000000000000000080000000000000000200000000000100000000000000000000800000000000000000000000000000000000000000000000000000000080000000000000000000000000000008000000000000000000000000000000000000000000000000000000040000000000000000000020000000000000080000002000000000000000000000000000010000000000000000000000000000000000000000000000000000000000000000000000000000010000000000000000000000000000000000000000000000000000000000000",
      "type": "0x2",
      "transactionHash": "0x8d3f8dfe85293e486918c120784a0733367c1d7ef2e971560be628dca3c2b7f3",
      "transactionIndex": "0x138",
      "blockHash": "0xaf91a9dcc53bad7f30603d62d9bf8de518c75d46f388ec249bc6ab297c5d15df",
      "blockNumber": "0x8cad2e",
      "gasUsed": "0xb4bd",
      "effectiveGasPrice": "0xf8804",
      "from": "0x3e723f6b81431f325e3f08e75544f254c182afe2",
      "to": "0xa56b53ecb819339f8615a92686d373afe725507a",
      "contractAddress": null
    },
    {
      "status": "0x1",
      "cumulativeGasUsed": "0x2e0e805",
      "logs": [
        {
          "address": "0xd2873281eea8b50406e1ef7cf5f73edbbba1cf50",
          "topics": [
            "0x8c5be1e5ebec7d5bd14f71427d1e84f3dd0314c0f7b2291e5b200ac8c7c3b925",
            "0x0000000000000000000000003e723f6b81431f325e3f08e75544f254c182afe2",
            "0x000000000000000000000000e03a1074c86cfedd5c142c4f04f1a1536e203543"
          ],
          "data": "0xffffffffffffffffffffffffffffffffffffffffffffffffffffffffffffffff",
          "blockHash": "0xaf91a9dcc53bad7f30603d62d9bf8de518c75d46f388ec249bc6ab297c5d15df",
          "blockNumber": "0x8cad2e",
          "blockTimestamp": "0x68ca27a8",
          "transactionHash": "0x84e0a3d4557de41a8ffa88f20451126e37421ded02c08330cbf0145f81041c3a",
          "transactionIndex": "0x139",
          "logIndex": "0x141",
          "removed": false
        }
      ],
      "logsBloom": "0x00000000000000000000000000000000000000000000000000000000000000000000000000000000000000000000000000000000080000000000000000200000000000000000000000000000000000000000000000000000000000000000000000000000000000000000000080000000000000000000000000000000000000000002000000000000000010000000000000000000000000000000000000000000020000000000000080000000000000000100000000000000000010001000000000000000000000000000000000000000000000000000000000001000000000000010000000000000000000000000000000000000000000000000000000000000",
      "type": "0x2",
      "transactionHash": "0x84e0a3d4557de41a8ffa88f20451126e37421ded02c08330cbf0145f81041c3a",
      "transactionIndex": "0x139",
      "blockHash": "0xaf91a9dcc53bad7f30603d62d9bf8de518c75d46f388ec249bc6ab297c5d15df",
      "blockNumber": "0x8cad2e",
      "gasUsed": "0xb4bd",
      "effectiveGasPrice": "0xf8804",
      "from": "0x3e723f6b81431f325e3f08e75544f254c182afe2",
      "to": "0xd2873281eea8b50406e1ef7cf5f73edbbba1cf50",
      "contractAddress": null
    },
    {
      "status": "0x1",
      "cumulativeGasUsed": "0x2e19cc2",
      "logs": [
        {
          "address": "0xa56b53ecb819339f8615a92686d373afe725507a",
          "topics": [
            "0x8c5be1e5ebec7d5bd14f71427d1e84f3dd0314c0f7b2291e5b200ac8c7c3b925",
            "0x0000000000000000000000003e723f6b81431f325e3f08e75544f254c182afe2",
            "0x000000000000000000000000e03a1074c86cfedd5c142c4f04f1a1536e203543"
          ],
          "data": "0xffffffffffffffffffffffffffffffffffffffffffffffffffffffffffffffff",
          "blockHash": "0xaf91a9dcc53bad7f30603d62d9bf8de518c75d46f388ec249bc6ab297c5d15df",
          "blockNumber": "0x8cad2e",
          "blockTimestamp": "0x68ca27a8",
          "transactionHash": "0xad6eaa86aea7b6cd1c2958af9a2b5bd1a3b3fc0475023547dd0ef8f03eb3463f",
          "transactionIndex": "0x13a",
          "logIndex": "0x142",
          "removed": false
        }
      ],
      "logsBloom": "0x00000000000000000000000000000000000000000000000000000000000000000000000000000000000000000000000000000000080000000000000000200000000000000000000000000000000800000000000000000000000000000000000000000000000000000000000080000000000000000000000000008000000000000000000000000000000010000000000000000000000040000000000000000000020000000000000080000000000000000000000000000000000010000000000000000000000000000000000000000000000000000000000000001000000000000010000000000000000000000000000000000000000000000000000000000000",
      "type": "0x2",
      "transactionHash": "0xad6eaa86aea7b6cd1c2958af9a2b5bd1a3b3fc0475023547dd0ef8f03eb3463f",
      "transactionIndex": "0x13a",
      "blockHash": "0xaf91a9dcc53bad7f30603d62d9bf8de518c75d46f388ec249bc6ab297c5d15df",
      "blockNumber": "0x8cad2e",
      "gasUsed": "0xb4bd",
      "effectiveGasPrice": "0xf8804",
      "from": "0x3e723f6b81431f325e3f08e75544f254c182afe2",
      "to": "0xa56b53ecb819339f8615a92686d373afe725507a",
      "contractAddress": null
    }
  ],
  "libraries": [],
  "pending": [],
  "returns": {},
  "timestamp": 1758078888867,
  "chain": 11155111,
  "commit": "9f61f80"
}