{
  "transactions": [
    {
      "hash": "0x651b80aa4066db04eaf53ef7f161f7f114358dcefe92337050769afadb8540f0",
      "transactionType": "CALL",
      "contractName": null,
      "contractAddress": "0x429ba70129df741b2ca2a85bc3a2a3328e5c09b4",
      "function": "initializePool((address,address,uint24,int24,address),uint160)",
      "arguments": [
        "(0x3338282729aeB3f169C27C7C175B7e6F3e7095D8, 0x8Db2f6ecd40C2B00B9dC2C454ab68D320e5CD49f, 3000, 60, 0x029BbE7c96875019e465829F4a79d356E1bbB880)",
        "79228162514264337593543950336"
      ],
      "transaction": {
        "from": "0x3e723f6b81431f325e3f08e75544f254c182afe2",
        "to": "0x429ba70129df741b2ca2a85bc3a2a3328e5c09b4",
        "gas": "0x92999",
        "value": "0x0",
        "input": "0xf70204050000000000000000000000003338282729aeb3f169c27c7c175b7e6f3e7095d80000000000000000000000008db2f6ecd40c2b00b9dc2c454ab68d320e5cd49f0000000000000000000000000000000000000000000000000000000000000bb8000000000000000000000000000000000000000000000000000000000000003c000000000000000000000000029bbe7c96875019e465829f4a79d356e1bbb8800000000000000000000000000000000000000001000000000000000000000000",
        "nonce": "0x4d9",
        "chainId": "0xaa36a7"
      },
      "additionalContracts": [],
      "isFixedGasLimit": false
    },
    {
      "hash": "0xc5ba4b3a7a10febe618a7029354883b6304c87706f71bd440008f14eb7a647ac",
      "transactionType": "CALL",
      "contractName": null,
      "contractAddress": "0x3338282729aeb3f169c27c7c175b7e6f3e7095d8",
      "function": "approve(address,uint256)",
      "arguments": [
        "0x029BbE7c96875019e465829F4a79d356E1bbB880",
        "115792089237316195423570985008687907853269984665640564039457584007913129639935"
      ],
      "transaction": {
        "from": "0x3e723f6b81431f325e3f08e75544f254c182afe2",
        "to": "0x3338282729aeb3f169c27c7c175b7e6f3e7095d8",
        "gas": "0xf9a4",
        "value": "0x0",
        "input": "0x095ea7b3000000000000000000000000029bbe7c96875019e465829f4a79d356e1bbb880ffffffffffffffffffffffffffffffffffffffffffffffffffffffffffffffff",
        "nonce": "0x4da",
        "chainId": "0xaa36a7"
      },
      "additionalContracts": [],
      "isFixedGasLimit": false
    },
    {
      "hash": "0xf70aea46a2f6361c7624e9147a799c8f0a830f729ab891250f946b4dec2ccd4b",
      "transactionType": "CALL",
      "contractName": null,
      "contractAddress": "0x8db2f6ecd40c2b00b9dc2c454ab68d320e5cd49f",
      "function": "approve(address,uint256)",
      "arguments": [
        "0x029BbE7c96875019e465829F4a79d356E1bbB880",
        "115792089237316195423570985008687907853269984665640564039457584007913129639935"
      ],
      "transaction": {
        "from": "0x3e723f6b81431f325e3f08e75544f254c182afe2",
        "to": "0x8db2f6ecd40c2b00b9dc2c454ab68d320e5cd49f",
        "gas": "0xf9a4",
        "value": "0x0",
        "input": "0x095ea7b3000000000000000000000000029bbe7c96875019e465829f4a79d356e1bbb880ffffffffffffffffffffffffffffffffffffffffffffffffffffffffffffffff",
        "nonce": "0x4db",
        "chainId": "0xaa36a7"
      },
      "additionalContracts": [],
      "isFixedGasLimit": false
    },
    {
      "hash": "0xe0fc7fa0d0d6e1b5da50e53426955fa315ba321b4451d3caa5da074b9409d09d",
      "transactionType": "CALL",
      "contractName": null,
      "contractAddress": "0x3338282729aeb3f169c27c7c175b7e6f3e7095d8",
      "function": "approve(address,uint256)",
      "arguments": [
        "0xE03A1074c86CFeDd5C142C4F04F1a1536e203543",
        "115792089237316195423570985008687907853269984665640564039457584007913129639935"
      ],
      "transaction": {
        "from": "0x3e723f6b81431f325e3f08e75544f254c182afe2",
        "to": "0x3338282729aeb3f169c27c7c175b7e6f3e7095d8",
        "gas": "0xf9a4",
        "value": "0x0",
        "input": "0x095ea7b3000000000000000000000000e03a1074c86cfedd5c142c4f04f1a1536e203543ffffffffffffffffffffffffffffffffffffffffffffffffffffffffffffffff",
        "nonce": "0x4dc",
        "chainId": "0xaa36a7"
      },
      "additionalContracts": [],
      "isFixedGasLimit": false
    },
    {
      "hash": "0xaa418e7a10e92ab5477b1eb7b04a3130ee25f6ba2b77e82138653b2d3079bee5",
      "transactionType": "CALL",
      "contractName": null,
      "contractAddress": "0x8db2f6ecd40c2b00b9dc2c454ab68d320e5cd49f",
      "function": "approve(address,uint256)",
      "arguments": [
        "0xE03A1074c86CFeDd5C142C4F04F1a1536e203543",
        "115792089237316195423570985008687907853269984665640564039457584007913129639935"
      ],
      "transaction": {
        "from": "0x3e723f6b81431f325e3f08e75544f254c182afe2",
        "to": "0x8db2f6ecd40c2b00b9dc2c454ab68d320e5cd49f",
        "gas": "0xf9a4",
        "value": "0x0",
        "input": "0x095ea7b3000000000000000000000000e03a1074c86cfedd5c142c4f04f1a1536e203543ffffffffffffffffffffffffffffffffffffffffffffffffffffffffffffffff",
        "nonce": "0x4dd",
        "chainId": "0xaa36a7"
      },
      "additionalContracts": [],
      "isFixedGasLimit": false
    }
  ],
  "receipts": [
    {
      "status": "0x1",
      "cumulativeGasUsed": "0x1c606f0",
      "logs": [
        {
          "address": "0xea30c4b8b44078bbf8a6ef5b9f1ec1626c7848d9",
          "topics": [
            "0xe9de54a3e7ddf0c48cc6e1134185300d5a71acbf2d8c21fcdefa9d9dd9e20ac1"
          ],
          "data": "0xbb39351b2bc70ad6be41519c393ba92b7146cf5c8fcae77c8a1f6982d55c880000000000000000000000000000000000000000000000000000000000000000a0000000000000000000000000000000000000000000000000000000000000012c00000000000000000000000000000000000000000000000000000000000000080000000000000000000000000000000000000000000000000000000000000000000000000000000000000000000000000000000000000000000000000000000e7472697669616c456e6372797074000000000000000000000000000000000000",
          "blockHash": "0x0d0ea443fffee4f8dd152142adc4a1d24f5c65ba34e1b6858da7e93c30d27818",
          "blockNumber": "0x8ca306",
          "blockTimestamp": "0x68c9a408",
          "transactionHash": "0x651b80aa4066db04eaf53ef7f161f7f114358dcefe92337050769afadb8540f0",
          "transactionIndex": "0x97",
          "logIndex": "0xd5",
          "removed": false
        },
        {
          "address": "0xea30c4b8b44078bbf8a6ef5b9f1ec1626c7848d9",
          "topics": [
            "0xe9de54a3e7ddf0c48cc6e1134185300d5a71acbf2d8c21fcdefa9d9dd9e20ac1"
          ],
          "data": "0x1253f33bcc7d14ead4330255d5baaf2209a953415c511c19411382f6423f840000000000000000000000000000000000000000000000000000000000000000a000000000000000000000000000000000000000000000000000000000000000b400000000000000000000000000000000000000000000000000000000000000040000000000000000000000000000000000000000000000000000000000000000000000000000000000000000000000000000000000000000000000000000000e7472697669616c456e6372797074000000000000000000000000000000000000",
          "blockHash": "0x0d0ea443fffee4f8dd152142adc4a1d24f5c65ba34e1b6858da7e93c30d27818",
          "blockNumber": "0x8ca306",
          "blockTimestamp": "0x68c9a408",
          "transactionHash": "0x651b80aa4066db04eaf53ef7f161f7f114358dcefe92337050769afadb8540f0",
          "transactionIndex": "0x97",
          "logIndex": "0xd6",
          "removed": false
        },
        {
          "address": "0xea30c4b8b44078bbf8a6ef5b9f1ec1626c7848d9",
          "topics": [
            "0xe9de54a3e7ddf0c48cc6e1134185300d5a71acbf2d8c21fcdefa9d9dd9e20ac1"
          ],
          "data": "0xe8c638c5370ad54fb6bc7fb3c67f13705c787cf30645cd1b92d5f61704b5840000000000000000000000000000000000000000000000000000000000000000a0000000000000000000000000000000000000000000000000000000000000006400000000000000000000000000000000000000000000000000000000000000040000000000000000000000000000000000000000000000000000000000000000000000000000000000000000000000000000000000000000000000000000000e7472697669616c456e6372797074000000000000000000000000000000000000",
          "blockHash": "0x0d0ea443fffee4f8dd152142adc4a1d24f5c65ba34e1b6858da7e93c30d27818",
          "blockNumber": "0x8ca306",
          "blockTimestamp": "0x68c9a408",
          "transactionHash": "0x651b80aa4066db04eaf53ef7f161f7f114358dcefe92337050769afadb8540f0",
          "transactionIndex": "0x97",
          "logIndex": "0xd7",
          "removed": false
        },
        {
          "address": "0xea30c4b8b44078bbf8a6ef5b9f1ec1626c7848d9",
          "topics": [
            "0xe9de54a3e7ddf0c48cc6e1134185300d5a71acbf2d8c21fcdefa9d9dd9e20ac1"
          ],
          "data": "0xb3e26d30bbd0fa3e41a1d86cb7844842fbb2638ed221cf36790bbd9c9f3e800000000000000000000000000000000000000000000000000000000000000000a0000000000000000000000000000000000000000000000000000000000000000100000000000000000000000000000000000000000000000000000000000000000000000000000000000000000000000000000000000000000000000000000000000000000000000000000000000000000000000000000000000000000000000e7472697669616c456e6372797074000000000000000000000000000000000000",
          "blockHash": "0x0d0ea443fffee4f8dd152142adc4a1d24f5c65ba34e1b6858da7e93c30d27818",
          "blockNumber": "0x8ca306",
          "blockTimestamp": "0x68c9a408",
          "transactionHash": "0x651b80aa4066db04eaf53ef7f161f7f114358dcefe92337050769afadb8540f0",
          "transactionIndex": "0x97",
          "logIndex": "0xd8",
          "removed": false
        },
        {
          "address": "0xea30c4b8b44078bbf8a6ef5b9f1ec1626c7848d9",
          "topics": [
            "0xe9de54a3e7ddf0c48cc6e1134185300d5a71acbf2d8c21fcdefa9d9dd9e20ac1"
          ],
          "data": "0xe8c638c5370ad54fb6bc7fb3c67f13705c787cf30645cd1b92d5f61704b5840000000000000000000000000000000000000000000000000000000000000000a0000000000000000000000000000000000000000000000000000000000000006400000000000000000000000000000000000000000000000000000000000000040000000000000000000000000000000000000000000000000000000000000000000000000000000000000000000000000000000000000000000000000000000e7472697669616c456e6372797074000000000000000000000000000000000000",
          "blockHash": "0x0d0ea443fffee4f8dd152142adc4a1d24f5c65ba34e1b6858da7e93c30d27818",
          "blockNumber": "0x8ca306",
          "blockTimestamp": "0x68c9a408",
          "transactionHash": "0x651b80aa4066db04eaf53ef7f161f7f114358dcefe92337050769afadb8540f0",
          "transactionIndex": "0x97",
          "logIndex": "0xd9",
          "removed": false
        },
        {
          "address": "0xea30c4b8b44078bbf8a6ef5b9f1ec1626c7848d9",
          "topics": [
            "0xe9de54a3e7ddf0c48cc6e1134185300d5a71acbf2d8c21fcdefa9d9dd9e20ac1"
          ],
          "data": "0xd8d542465d641073d3a041fe1808c3ef4b840d59b78f9a8d96485189b1f2880000000000000000000000000000000000000000000000000000000000000000a0000000000000000000000000000000000000000000000000000000000000000000000000000000000000000000000000000000000000000000000000000000080000000000000000000000000000000000000000000000000000000000000000000000000000000000000000000000000000000000000000000000000000000e7472697669616c456e6372797074000000000000000000000000000000000000",
          "blockHash": "0x0d0ea443fffee4f8dd152142adc4a1d24f5c65ba34e1b6858da7e93c30d27818",
          "blockNumber": "0x8ca306",
          "blockTimestamp": "0x68c9a408",
          "transactionHash": "0x651b80aa4066db04eaf53ef7f161f7f114358dcefe92337050769afadb8540f0",
          "transactionIndex": "0x97",
          "logIndex": "0xda",
          "removed": false
        },
        {
          "address": "0xe03a1074c86cfedd5c142c4f04f1a1536e203543",
          "topics": [
            "0xdd466e674ea557f56295e2d0218a125ea4b4f0f6f3307b95f85e6110838d6438",
            "0x1c1bbdca59b1d33ba08d390a1c070e8273daec8554b0bb36a63aa33730ba473a",
            "0x0000000000000000000000003338282729aeb3f169c27c7c175b7e6f3e7095d8",
            "0x0000000000000000000000008db2f6ecd40c2b00b9dc2c454ab68d320e5cd49f"
          ],
          "data": "0x0000000000000000000000000000000000000000000000000000000000000bb8000000000000000000000000000000000000000000000000000000000000003c000000000000000000000000029bbe7c96875019e465829f4a79d356e1bbb88000000000000000000000000000000000000000010000000000000000000000000000000000000000000000000000000000000000000000000000000000000000",
          "blockHash": "0x0d0ea443fffee4f8dd152142adc4a1d24f5c65ba34e1b6858da7e93c30d27818",
          "blockNumber": "0x8ca306",
          "blockTimestamp": "0x68c9a408",
          "transactionHash": "0x651b80aa4066db04eaf53ef7f161f7f114358dcefe92337050769afadb8540f0",
          "transactionIndex": "0x97",
          "logIndex": "0xdb",
          "removed": false
        }
      ],
      "logsBloom": "0x00000000000000000000000000000000080000000000000000000000000000000000000000000000000000000000000000000100008000000040000000000000000000000000000000000000000000000000000000100000000000000000000000000000000000000000000000000000000000000000300000000000010000000000000000000008000000200000000001000001000000000000008000200000000000000000000000000000000000000000000000000000000200000000000000000000000000000000000000000000000000000000000000000000000000001000000000000000000200000000000000000000000000000080020200080000",
      "type": "0x2",
      "transactionHash": "0x651b80aa4066db04eaf53ef7f161f7f114358dcefe92337050769afadb8540f0",
      "transactionIndex": "0x97",
      "blockHash": "0x0d0ea443fffee4f8dd152142adc4a1d24f5c65ba34e1b6858da7e93c30d27818",
      "blockNumber": "0x8ca306",
      "gasUsed": "0x6a22d",
      "effectiveGasPrice": "0x13bd7c1",
      "from": "0x3e723f6b81431f325e3f08e75544f254c182afe2",
      "to": "0x429ba70129df741b2ca2a85bc3a2a3328e5c09b4",
      "contractAddress": null
    },
    {
      "status": "0x1",
      "cumulativeGasUsed": "0x1c6bbad",
      "logs": [
        {
          "address": "0x3338282729aeb3f169c27c7c175b7e6f3e7095d8",
          "topics": [
            "0x8c5be1e5ebec7d5bd14f71427d1e84f3dd0314c0f7b2291e5b200ac8c7c3b925",
            "0x0000000000000000000000003e723f6b81431f325e3f08e75544f254c182afe2",
            "0x000000000000000000000000029bbe7c96875019e465829f4a79d356e1bbb880"
          ],
          "data": "0xffffffffffffffffffffffffffffffffffffffffffffffffffffffffffffffff",
          "blockHash": "0x0d0ea443fffee4f8dd152142adc4a1d24f5c65ba34e1b6858da7e93c30d27818",
          "blockNumber": "0x8ca306",
          "blockTimestamp": "0x68c9a408",
          "transactionHash": "0xc5ba4b3a7a10febe618a7029354883b6304c87706f71bd440008f14eb7a647ac",
          "transactionIndex": "0x98",
          "logIndex": "0xdc",
          "removed": false
        }
      ],
      "logsBloom": "0x00000000000000000000000000000000000000000000000000000000000000000000000000000000000000000000000000000000080000000000000000200000000000000004000000000000000200008000000000000000020000000000000000000000000000000000000000000000000004000000000000000000000000000000000000000000000000000000000000000000000000000000000008000000020000000000000080000000000000000000000000000000000010000000000000000000000000000000000000000000000000000000000000000000000000000010000000000000000000000000000000000000000000000000000000000000",
      "type": "0x2",
      "transactionHash": "0xc5ba4b3a7a10febe618a7029354883b6304c87706f71bd440008f14eb7a647ac",
      "transactionIndex": "0x98",
      "blockHash": "0x0d0ea443fffee4f8dd152142adc4a1d24f5c65ba34e1b6858da7e93c30d27818",
      "blockNumber": "0x8ca306",
      "gasUsed": "0xb4bd",
      "effectiveGasPrice": "0x13bd7c1",
      "from": "0x3e723f6b81431f325e3f08e75544f254c182afe2",
      "to": "0x3338282729aeb3f169c27c7c175b7e6f3e7095d8",
      "contractAddress": null
    },
    {
      "status": "0x1",
      "cumulativeGasUsed": "0x1c7c272",
      "logs": [
        {
          "address": "0x8db2f6ecd40c2b00b9dc2c454ab68d320e5cd49f",
          "topics": [
            "0x8c5be1e5ebec7d5bd14f71427d1e84f3dd0314c0f7b2291e5b200ac8c7c3b925",
            "0x0000000000000000000000003e723f6b81431f325e3f08e75544f254c182afe2",
            "0x000000000000000000000000029bbe7c96875019e465829f4a79d356e1bbb880"
          ],
          "data": "0xffffffffffffffffffffffffffffffffffffffffffffffffffffffffffffffff",
          "blockHash": "0x0d0ea443fffee4f8dd152142adc4a1d24f5c65ba34e1b6858da7e93c30d27818",
          "blockNumber": "0x8ca306",
          "blockTimestamp": "0x68c9a408",
          "transactionHash": "0xf70aea46a2f6361c7624e9147a799c8f0a830f729ab891250f946b4dec2ccd4b",
          "transactionIndex": "0x9a",
          "logIndex": "0xdd",
          "removed": false
        }
      ],
      "logsBloom": "0x00000000000000000000000000000000000000000000000000000000000000000000000000000000000000000000000000000000080000000000100000200000000000000000000000000000000200000004000000000000000000000000000000000000000000000000000000000000000004000000000000000000000000000000000000000000000000000000000000000000000000000000000008000000020000000000000080000000000000000000000000000000000010000000000000000000000000000000000000000000000000000000000000000000000000000010000000000000000000000000000010000000000000000000000000000000",
      "type": "0x2",
      "transactionHash": "0xf70aea46a2f6361c7624e9147a799c8f0a830f729ab891250f946b4dec2ccd4b",
      "transactionIndex": "0x9a",
      "blockHash": "0x0d0ea443fffee4f8dd152142adc4a1d24f5c65ba34e1b6858da7e93c30d27818",
      "blockNumber": "0x8ca306",
      "gasUsed": "0xb4bd",
      "effectiveGasPrice": "0x13bd7c1",
      "from": "0x3e723f6b81431f325e3f08e75544f254c182afe2",
      "to": "0x8db2f6ecd40c2b00b9dc2c454ab68d320e5cd49f",
      "contractAddress": null
    },
    {
      "status": "0x1",
      "cumulativeGasUsed": "0x1c8772f",
      "logs": [
        {
          "address": "0x3338282729aeb3f169c27c7c175b7e6f3e7095d8",
          "topics": [
            "0x8c5be1e5ebec7d5bd14f71427d1e84f3dd0314c0f7b2291e5b200ac8c7c3b925",
            "0x0000000000000000000000003e723f6b81431f325e3f08e75544f254c182afe2",
            "0x000000000000000000000000e03a1074c86cfedd5c142c4f04f1a1536e203543"
          ],
          "data": "0xffffffffffffffffffffffffffffffffffffffffffffffffffffffffffffffff",
          "blockHash": "0x0d0ea443fffee4f8dd152142adc4a1d24f5c65ba34e1b6858da7e93c30d27818",
          "blockNumber": "0x8ca306",
          "blockTimestamp": "0x68c9a408",
          "transactionHash": "0xe0fc7fa0d0d6e1b5da50e53426955fa315ba321b4451d3caa5da074b9409d09d",
          "transactionIndex": "0x9b",
          "logIndex": "0xde",
          "removed": false
        }
      ],
      "logsBloom": "0x00000000000000000000000000000000000000000000000000000000000000000000000000000000000000000000000000000000080000000000000000200000000000000004000000000000000000008000000000000000020000000000000000000000000000000000000080000000000000000000000000000000000000000000000000000000000010000000000000000000000000000000000000000000020000000000000080000000000000000000000000000000000010000000000000000000000000000000000000000000000000000000000000001000000000000010000000000000000000000000000000000000000000000000000000000000",
      "type": "0x2",
      "transactionHash": "0xe0fc7fa0d0d6e1b5da50e53426955fa315ba321b4451d3caa5da074b9409d09d",
      "transactionIndex": "0x9b",
      "blockHash": "0x0d0ea443fffee4f8dd152142adc4a1d24f5c65ba34e1b6858da7e93c30d27818",
      "blockNumber": "0x8ca306",
      "gasUsed": "0xb4bd",
      "effectiveGasPrice": "0x13bd7c1",
      "from": "0x3e723f6b81431f325e3f08e75544f254c182afe2",
      "to": "0x3338282729aeb3f169c27c7c175b7e6f3e7095d8",
      "contractAddress": null
    },
    {
      "status": "0x1",
      "cumulativeGasUsed": "0x1c92bec",
      "logs": [
        {
          "address": "0x8db2f6ecd40c2b00b9dc2c454ab68d320e5cd49f",
          "topics": [
            "0x8c5be1e5ebec7d5bd14f71427d1e84f3dd0314c0f7b2291e5b200ac8c7c3b925",
            "0x0000000000000000000000003e723f6b81431f325e3f08e75544f254c182afe2",
            "0x000000000000000000000000e03a1074c86cfedd5c142c4f04f1a1536e203543"
          ],
          "data": "0xffffffffffffffffffffffffffffffffffffffffffffffffffffffffffffffff",
          "blockHash": "0x0d0ea443fffee4f8dd152142adc4a1d24f5c65ba34e1b6858da7e93c30d27818",
          "blockNumber": "0x8ca306",
          "blockTimestamp": "0x68c9a408",
          "transactionHash": "0xaa418e7a10e92ab5477b1eb7b04a3130ee25f6ba2b77e82138653b2d3079bee5",
          "transactionIndex": "0x9c",
          "logIndex": "0xdf",
          "removed": false
        }
      ],
      "logsBloom": "0x00000000000000000000000000000000000000000000000000000000000000000000000000000000000000000000000000000000080000000000100000200000000000000000000000000000000000000004000000000000000000000000000000000000000000000000000080000000000000000000000000000000000000000000000000000000000010000000000000000000000000000000000000000000020000000000000080000000000000000000000000000000000010000000000000000000000000000000000000000000000000000000000000001000000000000010000000000000000000000000000010000000000000000000000000000000",
      "type": "0x2",
      "transactionHash": "0xaa418e7a10e92ab5477b1eb7b04a3130ee25f6ba2b77e82138653b2d3079bee5",
      "transactionIndex": "0x9c",
      "blockHash": "0x0d0ea443fffee4f8dd152142adc4a1d24f5c65ba34e1b6858da7e93c30d27818",
      "blockNumber": "0x8ca306",
      "gasUsed": "0xb4bd",
      "effectiveGasPrice": "0x13bd7c1",
      "from": "0x3e723f6b81431f325e3f08e75544f254c182afe2",
      "to": "0x8db2f6ecd40c2b00b9dc2c454ab68d320e5cd49f",
      "contractAddress": null
    }
  ],
  "libraries": [],
  "pending": [],
  "returns": {},
  "timestamp": 1758045194036,
  "chain": 11155111,
  "commit": "9f61f80"
}