{
  "transactions": [
    {
      "hash": "0x86de5ca06539fc924ff36541ce2607e86ebe43a14da0e300b50783a9345c0156",
      "transactionType": "CALL",
      "contractName": null,
      "contractAddress": "0x429ba70129df741b2ca2a85bc3a2a3328e5c09b4",
      "function": "initializePool((address,address,uint24,int24,address),uint160)",
      "arguments": [
        "(0x36Df2Fd194E659006423af3c814091b05E477Ff1, 0x51bc6d68390906E2EeA548CABC11fd118235072e, 3000, 60, 0x63bC8B5858e2a0753E793174ee6b4305373d3880)",
        "79228162514264337593543950336"
      ],
      "transaction": {
        "from": "0x3e723f6b81431f325e3f08e75544f254c182afe2",
        "to": "0x429ba70129df741b2ca2a85bc3a2a3328e5c09b4",
        "gas": "0x304ac",
        "value": "0x0",
        "input": "0xf702040500000000000000000000000036df2fd194e659006423af3c814091b05e477ff100000000000000000000000051bc6d68390906e2eea548cabc11fd118235072e0000000000000000000000000000000000000000000000000000000000000bb8000000000000000000000000000000000000000000000000000000000000003c00000000000000000000000063bc8b5858e2a0753e793174ee6b4305373d38800000000000000000000000000000000000000001000000000000000000000000",
        "nonce": "0x4ce",
        "chainId": "0xaa36a7"
      },
      "additionalContracts": [],
      "isFixedGasLimit": false
    },
    {
      "hash": "0x8d0c83f2168a237487b2b97e039efcec9c635c71bfd0f418210b38c10cea2df2",
      "transactionType": "CALL",
      "contractName": null,
      "contractAddress": "0x51bc6d68390906e2eea548cabc11fd118235072e",
      "function": "approve(address,uint256)",
      "arguments": [
        "0x63bC8B5858e2a0753E793174ee6b4305373d3880",
        "115792089237316195423570985008687907853269984665640564039457584007913129639935"
      ],
      "transaction": {
        "from": "0x3e723f6b81431f325e3f08e75544f254c182afe2",
        "to": "0x51bc6d68390906e2eea548cabc11fd118235072e",
        "gas": "0x10de3",
        "value": "0x0",
        "input": "0x095ea7b300000000000000000000000063bc8b5858e2a0753e793174ee6b4305373d3880ffffffffffffffffffffffffffffffffffffffffffffffffffffffffffffffff",
        "nonce": "0x4cf",
        "chainId": "0xaa36a7"
      },
      "additionalContracts": [],
      "isFixedGasLimit": false
    },
    {
      "hash": "0x218e8ecc6b6bb6ffc11b92aaa7b131c7041b3a1a44643d4309a0846e8c4068cb",
      "transactionType": "CALL",
      "contractName": null,
      "contractAddress": "0x36df2fd194e659006423af3c814091b05e477ff1",
      "function": "approve(address,uint256)",
      "arguments": [
        "0x63bC8B5858e2a0753E793174ee6b4305373d3880",
        "115792089237316195423570985008687907853269984665640564039457584007913129639935"
      ],
      "transaction": {
        "from": "0x3e723f6b81431f325e3f08e75544f254c182afe2",
        "to": "0x36df2fd194e659006423af3c814091b05e477ff1",
        "gas": "0x10de3",
        "value": "0x0",
        "input": "0x095ea7b300000000000000000000000063bc8b5858e2a0753e793174ee6b4305373d3880ffffffffffffffffffffffffffffffffffffffffffffffffffffffffffffffff",
        "nonce": "0x4d0",
        "chainId": "0xaa36a7"
      },
      "additionalContracts": [],
      "isFixedGasLimit": false
    },
    {
      "hash": "0x1d05531fd00e43066b8a129e35bae82a666928698a5ec32deeacc974de03fea1",
      "transactionType": "CALL",
      "contractName": null,
      "contractAddress": "0x51bc6d68390906e2eea548cabc11fd118235072e",
      "function": "approve(address,uint256)",
      "arguments": [
        "0xE03A1074c86CFeDd5C142C4F04F1a1536e203543",
        "115792089237316195423570985008687907853269984665640564039457584007913129639935"
      ],
      "transaction": {
        "from": "0x3e723f6b81431f325e3f08e75544f254c182afe2",
        "to": "0x51bc6d68390906e2eea548cabc11fd118235072e",
        "gas": "0x10de3",
        "value": "0x0",
        "input": "0x095ea7b3000000000000000000000000e03a1074c86cfedd5c142c4f04f1a1536e203543ffffffffffffffffffffffffffffffffffffffffffffffffffffffffffffffff",
        "nonce": "0x4d1",
        "chainId": "0xaa36a7"
      },
      "additionalContracts": [],
      "isFixedGasLimit": false
    },
    {
      "hash": "0x55953fcc8be5dd3fa09cf6743db14d29ef582d550a53f7a7639cfc9859dc40bc",
      "transactionType": "CALL",
      "contractName": null,
      "contractAddress": "0x36df2fd194e659006423af3c814091b05e477ff1",
      "function": "approve(address,uint256)",
      "arguments": [
        "0xE03A1074c86CFeDd5C142C4F04F1a1536e203543",
        "115792089237316195423570985008687907853269984665640564039457584007913129639935"
      ],
      "transaction": {
        "from": "0x3e723f6b81431f325e3f08e75544f254c182afe2",
        "to": "0x36df2fd194e659006423af3c814091b05e477ff1",
        "gas": "0x10de3",
        "value": "0x0",
        "input": "0x095ea7b3000000000000000000000000e03a1074c86cfedd5c142c4f04f1a1536e203543ffffffffffffffffffffffffffffffffffffffffffffffffffffffffffffffff",
        "nonce": "0x4d2",
        "chainId": "0xaa36a7"
      },
      "additionalContracts": [],
      "isFixedGasLimit": false
    }
  ],
  "receipts": [
    {
      "status": "0x1",
      "cumulativeGasUsed": "0x10aaffa",
      "logs": [
        {
          "address": "0xe03a1074c86cfedd5c142c4f04f1a1536e203543",
          "topics": [
            "0xdd466e674ea557f56295e2d0218a125ea4b4f0f6f3307b95f85e6110838d6438",
            "0x8bf217a84e2568ac8c4c18306d892f67da5d1cafe43188d71beb2d8fe5a8fbe6",
            "0x00000000000000000000000036df2fd194e659006423af3c814091b05e477ff1",
            "0x00000000000000000000000051bc6d68390906e2eea548cabc11fd118235072e"
          ],
          "data": "0x0000000000000000000000000000000000000000000000000000000000000bb8000000000000000000000000000000000000000000000000000000000000003c00000000000000000000000063bc8b5858e2a0753e793174ee6b4305373d388000000000000000000000000000000000000000010000000000000000000000000000000000000000000000000000000000000000000000000000000000000000",
          "blockHash": "0xe280d054118aa37791f017395159c0ce16c975340493a17897c5508db84216a0",
          "blockNumber": "0x8c9d07",
          "blockTimestamp": "0x68c956b0",
          "transactionHash": "0x86de5ca06539fc924ff36541ce2607e86ebe43a14da0e300b50783a9345c0156",
          "transactionIndex": "0x6f",
          "logIndex": "0xa7",
          "removed": false
        }
      ],
      "logsBloom": "0x00000000000000000040000000000000000000000000000000000000000000000100000000001000000000000000040000000100000000002000000000000000000000000000000000000000000000000000002000000000000000000000000000000000000000000000100000000000000000000000100000000000000000000000000000000008000000010000000000000001000000000000000000200000000000000000000000000000000000000000000000000000000000000000004000000000000000000000000000000000000000000000000000000000000000001000000000000000000000000000000000000000000000000000000000000000",
      "type": "0x2",
      "transactionHash": "0x86de5ca06539fc924ff36541ce2607e86ebe43a14da0e300b50783a9345c0156",
      "transactionIndex": "0x6f",
      "blockHash": "0xe280d054118aa37791f017395159c0ce16c975340493a17897c5508db84216a0",
      "blockNumber": "0x8c9d07",
      "gasUsed": "0x22f67",
      "effectiveGasPrice": "0x1365ccb",
      "from": "0x3e723f6b81431f325e3f08e75544f254c182afe2",
      "to": "0x429ba70129df741b2ca2a85bc3a2a3328e5c09b4",
      "contractAddress": null
    },
    {
      "status": "0x1",
      "cumulativeGasUsed": "0x10b6884",
      "logs": [
        {
          "address": "0x51bc6d68390906e2eea548cabc11fd118235072e",
          "topics": [
            "0x8c5be1e5ebec7d5bd14f71427d1e84f3dd0314c0f7b2291e5b200ac8c7c3b925",
            "0x0000000000000000000000003e723f6b81431f325e3f08e75544f254c182afe2",
            "0x00000000000000000000000063bc8b5858e2a0753e793174ee6b4305373d3880"
          ],
          "data": "0xffffffffffffffffffffffffffffffffffffffffffffffffffffffffffffffff",
          "blockHash": "0xe280d054118aa37791f017395159c0ce16c975340493a17897c5508db84216a0",
          "blockNumber": "0x8c9d07",
          "blockTimestamp": "0x68c956b0",
          "transactionHash": "0x8d0c83f2168a237487b2b97e039efcec9c635c71bfd0f418210b38c10cea2df2",
          "transactionIndex": "0x70",
          "logIndex": "0xa8",
          "removed": false
        }
      ],
      "logsBloom": "0x00000000000000001000000100000000000000000000000000000000000000000000000000000000000000000000000000000000080000000000000000200000000000000000000000000000000000000000000000000000000000000000000000000000000000000000000000000000000000000000000000000000000100000000000000000000000000010000000000000000000000000000000000000000020000000000000080000000000000000000000000000000000010000100000000000000000000000080000000000000000000000000000000000000000000000010000000000000000000000000000000000000000000000000000000000000",
      "type": "0x2",
      "transactionHash": "0x8d0c83f2168a237487b2b97e039efcec9c635c71bfd0f418210b38c10cea2df2",
      "transactionIndex": "0x70",
      "blockHash": "0xe280d054118aa37791f017395159c0ce16c975340493a17897c5508db84216a0",
      "blockNumber": "0x8c9d07",
      "gasUsed": "0xb88a",
      "effectiveGasPrice": "0x1365ccb",
      "from": "0x3e723f6b81431f325e3f08e75544f254c182afe2",
      "to": "0x51bc6d68390906e2eea548cabc11fd118235072e",
      "contractAddress": null
    },
    {
      "status": "0x1",
      "cumulativeGasUsed": "0x10c210e",
      "logs": [
        {
          "address": "0x36df2fd194e659006423af3c814091b05e477ff1",
          "topics": [
            "0x8c5be1e5ebec7d5bd14f71427d1e84f3dd0314c0f7b2291e5b200ac8c7c3b925",
            "0x0000000000000000000000003e723f6b81431f325e3f08e75544f254c182afe2",
            "0x00000000000000000000000063bc8b5858e2a0753e793174ee6b4305373d3880"
          ],
          "data": "0xffffffffffffffffffffffffffffffffffffffffffffffffffffffffffffffff",
          "blockHash": "0xe280d054118aa37791f017395159c0ce16c975340493a17897c5508db84216a0",
          "blockNumber": "0x8c9d07",
          "blockTimestamp": "0x68c956b0",
          "transactionHash": "0x218e8ecc6b6bb6ffc11b92aaa7b131c7041b3a1a44643d4309a0846e8c4068cb",
          "transactionIndex": "0x71",
          "logIndex": "0xa9",
          "removed": false
        }
      ],
      "logsBloom": "0x00000000000000001000000000000000000000000000000000000000000000000080000000000000000000000000000000000000080000000000000000200000000000000000000000000000000000000000000000000000000000000000000000000000000000000000000000000000000000000000000000000000000000000000000000000000000000000000000000000000000000000000000000000000020000000000000080000000000000000000000000000000000010000101000000000000000000000080000000040000000000000000000000000000000000000010000000000000000000000000000000000000000000000000000000000000",
      "type": "0x2",
      "transactionHash": "0x218e8ecc6b6bb6ffc11b92aaa7b131c7041b3a1a44643d4309a0846e8c4068cb",
      "transactionIndex": "0x71",
      "blockHash": "0xe280d054118aa37791f017395159c0ce16c975340493a17897c5508db84216a0",
      "blockNumber": "0x8c9d07",
      "gasUsed": "0xb88a",
      "effectiveGasPrice": "0x1365ccb",
      "from": "0x3e723f6b81431f325e3f08e75544f254c182afe2",
      "to": "0x36df2fd194e659006423af3c814091b05e477ff1",
      "contractAddress": null
    },
    {
      "status": "0x1",
      "cumulativeGasUsed": "0x10cd998",
      "logs": [
        {
          "address": "0x51bc6d68390906e2eea548cabc11fd118235072e",
          "topics": [
            "0x8c5be1e5ebec7d5bd14f71427d1e84f3dd0314c0f7b2291e5b200ac8c7c3b925",
            "0x0000000000000000000000003e723f6b81431f325e3f08e75544f254c182afe2",
            "0x000000000000000000000000e03a1074c86cfedd5c142c4f04f1a1536e203543"
          ],
          "data": "0xffffffffffffffffffffffffffffffffffffffffffffffffffffffffffffffff",
          "blockHash": "0xe280d054118aa37791f017395159c0ce16c975340493a17897c5508db84216a0",
          "blockNumber": "0x8c9d07",
          "blockTimestamp": "0x68c956b0",
          "transactionHash": "0x1d05531fd00e43066b8a129e35bae82a666928698a5ec32deeacc974de03fea1",
          "transactionIndex": "0x72",
          "logIndex": "0xaa",
          "removed": false
        }
      ],
      "logsBloom": "0x00000000000000000000000100000000000000000000000000000000000000000000000000000000000000000000000000000000080000000000000000200000000000000000000000000000000000000000000000000000000000000000000000000000000000000000000080000000000000000000000000000000000100000000000000000000000010010000000000000000000000000000000000000000020000000000000080000000000000000000000000000000000010000000000000000000000000000000000000000000000000000000000000001000000000000010000000000000000000000000000000000000000000000000000000000000",
      "type": "0x2",
      "transactionHash": "0x1d05531fd00e43066b8a129e35bae82a666928698a5ec32deeacc974de03fea1",
      "transactionIndex": "0x72",
      "blockHash": "0xe280d054118aa37791f017395159c0ce16c975340493a17897c5508db84216a0",
      "blockNumber": "0x8c9d07",
      "gasUsed": "0xb88a",
      "effectiveGasPrice": "0x1365ccb",
      "from": "0x3e723f6b81431f325e3f08e75544f254c182afe2",
      "to": "0x51bc6d68390906e2eea548cabc11fd118235072e",
      "contractAddress": null
    },
    {
      "status": "0x1",
      "cumulativeGasUsed": "0x10d9222",
      "logs": [
        {
          "address": "0x36df2fd194e659006423af3c814091b05e477ff1",
          "topics": [
            "0x8c5be1e5ebec7d5bd14f71427d1e84f3dd0314c0f7b2291e5b200ac8c7c3b925",
            "0x0000000000000000000000003e723f6b81431f325e3f08e75544f254c182afe2",
            "0x000000000000000000000000e03a1074c86cfedd5c142c4f04f1a1536e203543"
          ],
          "data": "0xffffffffffffffffffffffffffffffffffffffffffffffffffffffffffffffff",
          "blockHash": "0xe280d054118aa37791f017395159c0ce16c975340493a17897c5508db84216a0",
          "blockNumber": "0x8c9d07",
          "blockTimestamp": "0x68c956b0",
          "transactionHash": "0x55953fcc8be5dd3fa09cf6743db14d29ef582d550a53f7a7639cfc9859dc40bc",
          "transactionIndex": "0x73",
          "logIndex": "0xab",
          "removed": false
        }
      ],
      "logsBloom": "0x00000000000000000000000000000000000000000000000000000000000000000080000000000000000000000000000000000000080000000000000000200000000000000000000000000000000000000000000000000000000000000000000000000000000000000000000080000000000000000000000000000000000000000000000000000000000010000000000000000000000000000000000000000000020000000000000080000000000000000000000000000000000010000001000000000000000000000000000000040000000000000000000000001000000000000010000000000000000000000000000000000000000000000000000000000000",
      "type": "0x2",
      "transactionHash": "0x55953fcc8be5dd3fa09cf6743db14d29ef582d550a53f7a7639cfc9859dc40bc",
      "transactionIndex": "0x73",
      "blockHash": "0xe280d054118aa37791f017395159c0ce16c975340493a17897c5508db84216a0",
      "blockNumber": "0x8c9d07",
      "gasUsed": "0xb88a",
      "effectiveGasPrice": "0x1365ccb",
      "from": "0x3e723f6b81431f325e3f08e75544f254c182afe2",
      "to": "0x36df2fd194e659006423af3c814091b05e477ff1",
      "contractAddress": null
    }
  ],
  "libraries": [],
  "pending": [],
  "returns": {},
  "timestamp": 1758025393073,
  "chain": 11155111,
  "commit": "8b433ce"
}