{
  "transactions": [
    {
      "hash": "0xc80cbaae0b0065bae0e1a7014bbd1037450f2b3abe3af31a1dc1a5fe8a662d62",
      "transactionType": "CALL",
      "contractName": null,
      "contractAddress": "0x429ba70129df741b2ca2a85bc3a2a3328e5c09b4",
      "function": "initializePool((address,address,uint24,int24,address),uint160)",
      "arguments": [
        "(0x594B10E24f2CEFc373C835A2c70e1fF7Cb567baC, 0x735C849FC0463bD863F05343181229FcC4fc838E, 3000, 60, 0x6b5F295016D25937a0024E3287023d379ce27880)",
        "79228162514264337593543950336"
      ],
      "transaction": {
        "from": "0x3e723f6b81431f325e3f08e75544f254c182afe2",
        "to": "0x429ba70129df741b2ca2a85bc3a2a3328e5c09b4",
        "gas": "0x28aa7",
        "value": "0x0",
        "input": "0xf7020405000000000000000000000000594b10e24f2cefc373c835a2c70e1ff7cb567bac000000000000000000000000735c849fc0463bd863f05343181229fcc4fc838e0000000000000000000000000000000000000000000000000000000000000bb8000000000000000000000000000000000000000000000000000000000000003c0000000000000000000000006b5f295016d25937a0024e3287023d379ce278800000000000000000000000000000000000000001000000000000000000000000",
        "nonce": "0x4b5",
        "chainId": "0xaa36a7"
      },
      "additionalContracts": [],
      "isFixedGasLimit": false
    },
    {
      "hash": "0x3d2a5a05a89b3671e688528b85c59438358e2d33bd46a140e0657d16dd0ad62a",
      "transactionType": "CALL",
      "contractName": null,
      "contractAddress": "0x6b5f295016d25937a0024e3287023d379ce27880",
      "function": "addLiquidity((address,address,uint24,int24,address),(address,address,uint24,uint256,address))",
      "arguments": [
        "(0x594B10E24f2CEFc373C835A2c70e1fF7Cb567baC, 0x735C849FC0463bD863F05343181229FcC4fc838E, 3000, 60, 0x6b5F295016D25937a0024E3287023d379ce27880)",
        "(0x594B10E24f2CEFc373C835A2c70e1fF7Cb567baC, 0x735C849FC0463bD863F05343181229FcC4fc838E, 3000, 1000000000000000000, 0x3e723f6B81431f325E3F08e75544F254C182AFE2)"
      ],
      "transaction": {
        "from": "0x3e723f6b81431f325e3f08e75544f254c182afe2",
        "to": "0x6b5f295016d25937a0024e3287023d379ce27880",
        "gas": "0x1e120",
        "value": "0x0",
        "input": "0xc48ccddd000000000000000000000000594b10e24f2cefc373c835a2c70e1ff7cb567bac000000000000000000000000735c849fc0463bd863f05343181229fcc4fc838e0000000000000000000000000000000000000000000000000000000000000bb8000000000000000000000000000000000000000000000000000000000000003c0000000000000000000000006b5f295016d25937a0024e3287023d379ce27880000000000000000000000000594b10e24f2cefc373c835a2c70e1ff7cb567bac000000000000000000000000735c849fc0463bd863f05343181229fcc4fc838e0000000000000000000000000000000000000000000000000000000000000bb80000000000000000000000000000000000000000000000000de0b6b3a76400000000000000000000000000003e723f6b81431f325e3f08e75544f254c182afe2",
        "nonce": "0x4b6",
        "chainId": "0xaa36a7"
      },
      "additionalContracts": [],
      "isFixedGasLimit": false
    }
  ],
  "receipts": [
    {
      "status": "0x1",
      "cumulativeGasUsed": "0x12a1fdd",
      "logs": [
        {
          "address": "0xe03a1074c86cfedd5c142c4f04f1a1536e203543",
          "topics": [
            "0xdd466e674ea557f56295e2d0218a125ea4b4f0f6f3307b95f85e6110838d6438",
            "0x1a0a869623592fdc4d67fb8c27d4b11fcc8324c7244aa071f2685145bdc9f2c6",
            "0x000000000000000000000000594b10e24f2cefc373c835a2c70e1ff7cb567bac",
            "0x000000000000000000000000735c849fc0463bd863f05343181229fcc4fc838e"
          ],
          "data": "0x0000000000000000000000000000000000000000000000000000000000000bb8000000000000000000000000000000000000000000000000000000000000003c0000000000000000000000006b5f295016d25937a0024e3287023d379ce2788000000000000000000000000000000000000000010000000000000000000000000000000000000000000000000000000000000000000000000000000000000000",
          "blockHash": "0xf5dde655cefa6d88e57419f1b9c1720635297a2bac3be71bcee48193ea77703a",
          "blockNumber": "0x8c8a3b",
          "blockTimestamp": "0x68c86500",
          "transactionHash": "0xc80cbaae0b0065bae0e1a7014bbd1037450f2b3abe3af31a1dc1a5fe8a662d62",
          "transactionIndex": "0x86",
          "logIndex": "0x9f",
          "removed": false
        }
      ],
      "logsBloom": "0x00000000000000000000000000000020004000000000000000000000000000000000000000000000000000000000000000000100000000000000000000000000004000000000000000000000000000000000000000000000000000000000000000000000000000000000000000000000000000000000100004000000000000000000000000000008000000100000000000004001000000000000000000200800000000000000000000000000000000000000000000000000000000000000000000000000000000000000080000000000000000000000000000000000000000001000000000000000000000000080000000000000000000000000000000000000",
      "type": "0x2",
      "transactionHash": "0xc80cbaae0b0065bae0e1a7014bbd1037450f2b3abe3af31a1dc1a5fe8a662d62",
      "transactionIndex": "0x86",
      "blockHash": "0xf5dde655cefa6d88e57419f1b9c1720635297a2bac3be71bcee48193ea77703a",
      "blockNumber": "0x8c8a3b",
      "gasUsed": "0x1d710",
      "effectiveGasPrice": "0x173263",
      "from": "0x3e723f6b81431f325e3f08e75544f254c182afe2",
      "to": "0x429ba70129df741b2ca2a85bc3a2a3328e5c09b4",
      "contractAddress": null
    },
    {
      "status": "0x1",
      "cumulativeGasUsed": "0x12b68d7",
      "logs": [
        {
          "address": "0x6b5f295016d25937a0024e3287023d379ce27880",
          "topics": [
            "0x0b27795a32276a73b17183674cfaf16ad8466dcbc0509a9736fb88cc78dda3c7",
            "0x1a0a869623592fdc4d67fb8c27d4b11fcc8324c7244aa071f2685145bdc9f2c6",
            "0x0000000000000000000000003e723f6b81431f325e3f08e75544f254c182afe2"
          ],
          "data": "0x0000000000000000000000000000000000000000000000000de0b6b3a7640000ffffffffffffffffffffffffffffffffffffffffffffffffffffffffffffffc4000000000000000000000000000000000000000000000000000000000000003c",
          "blockHash": "0xf5dde655cefa6d88e57419f1b9c1720635297a2bac3be71bcee48193ea77703a",
          "blockNumber": "0x8c8a3b",
          "blockTimestamp": "0x68c86500",
          "transactionHash": "0x3d2a5a05a89b3671e688528b85c59438358e2d33bd46a140e0657d16dd0ad62a",
          "transactionIndex": "0x87",
          "logIndex": "0xa0",
          "removed": false
        }
      ],
      "logsBloom": "0x00000000000000000100010000000000000000000000000000000000000000000001000000000000000000000000000000000000080000000000000000000000004000000000000000000000000000000000000000000000000000000000000000000000000000000000000000000000000000000000000004000000000000000000000000000000000000100000000000000000000000000000000000000000000000000000000080000001000000004000000000000000000010000000000000800000000000000000000000000000000000000000000000000000000000000000000000000000000000000000000000000000000000000000000000000000",
      "type": "0x2",
      "transactionHash": "0x3d2a5a05a89b3671e688528b85c59438358e2d33bd46a140e0657d16dd0ad62a",
      "transactionIndex": "0x87",
      "blockHash": "0xf5dde655cefa6d88e57419f1b9c1720635297a2bac3be71bcee48193ea77703a",
      "blockNumber": "0x8c8a3b",
      "gasUsed": "0x148fa",
      "effectiveGasPrice": "0x173263",
      "from": "0x3e723f6b81431f325e3f08e75544f254c182afe2",
      "to": "0x6b5f295016d25937a0024e3287023d379ce27880",
      "contractAddress": null
    }
  ],
  "libraries": [],
  "pending": [],
  "returns": {},
  "timestamp": 1757963522281,
  "chain": 11155111,
  "commit": "c68face"
}