{
  "transactions": [
    {
      "hash": "0xeb880d3a2d98287e94c573b3ffc2a8442929c4308d7cbc8bf4616aaf46dffa80",
      "transactionType": "CALL",
      "contractName": null,
      "contractAddress": "0x9bde75a5a0723038cfe4528bd0e346056bae750b",
      "function": "approve(address,uint256)",
      "arguments": [
        "0x429ba70129df741B2Ca2a85BC3A2a3328e5c09b4",
        "115792089237316195423570985008687907853269984665640564039457584007913129639935"
      ],
      "transaction": {
        "from": "0x3e723f6b81431f325e3f08e75544f254c182afe2",
        "to": "0x9bde75a5a0723038cfe4528bd0e346056bae750b",
        "gas": "0x96a4",
        "value": "0x0",
        "input": "0x095ea7b3000000000000000000000000429ba70129df741b2ca2a85bc3a2a3328e5c09b4ffffffffffffffffffffffffffffffffffffffffffffffffffffffffffffffff",
        "nonce": "0x5b0",
        "chainId": "0xaa36a7"
      },
      "additionalContracts": [],
      "isFixedGasLimit": false
    },
    {
      "hash": "0x7b35c3f58417a9bf23b5dc5469ad484fcb22a0ce711ae7b06586c4e4a1528f83",
      "transactionType": "CALL",
      "contractName": null,
      "contractAddress": "0x1ada2feb7b799d2fcb985441665649d29ae7f838",
      "function": "approve(address,uint256)",
      "arguments": [
        "0x429ba70129df741B2Ca2a85BC3A2a3328e5c09b4",
        "115792089237316195423570985008687907853269984665640564039457584007913129639935"
      ],
      "transaction": {
        "from": "0x3e723f6b81431f325e3f08e75544f254c182afe2",
        "to": "0x1ada2feb7b799d2fcb985441665649d29ae7f838",
        "gas": "0x96a4",
        "value": "0x0",
        "input": "0x095ea7b3000000000000000000000000429ba70129df741b2ca2a85bc3a2a3328e5c09b4ffffffffffffffffffffffffffffffffffffffffffffffffffffffffffffffff",
        "nonce": "0x5b1",
        "chainId": "0xaa36a7"
      },
      "additionalContracts": [],
      "isFixedGasLimit": false
    },
    {
      "hash": "0xed0e2877bed6bbc85e9a789ef16319a0e2a917229827962aab123e9d50fc5c35",
      "transactionType": "CALL",
      "contractName": null,
      "contractAddress": "0x9bde75a5a0723038cfe4528bd0e346056bae750b",
      "function": "approve(address,uint256)",
      "arguments": [
        "0x000000000022D473030F116dDEE9F6B43aC78BA3",
        "115792089237316195423570985008687907853269984665640564039457584007913129639935"
      ],
      "transaction": {
        "from": "0x3e723f6b81431f325e3f08e75544f254c182afe2",
        "to": "0x9bde75a5a0723038cfe4528bd0e346056bae750b",
        "gas": "0x8df2",
        "value": "0x0",
        "input": "0x095ea7b3000000000000000000000000000000000022d473030f116ddee9f6b43ac78ba3ffffffffffffffffffffffffffffffffffffffffffffffffffffffffffffffff",
        "nonce": "0x5b2",
        "chainId": "0xaa36a7"
      },
      "additionalContracts": [],
      "isFixedGasLimit": false
    },
    {
      "hash": "0x497375cb1e11ba7894f84d8ddbc578da4c5d7db43ed739e6fb649beb53675199",
      "transactionType": "CALL",
      "contractName": null,
      "contractAddress": "0x000000000022d473030f116ddee9f6b43ac78ba3",
      "function": "approve(address,address,uint160,uint48)",
      "arguments": [
        "0x9BDe75a5A0723038cfe4528BD0e346056bae750B",
        "0x429ba70129df741B2Ca2a85BC3A2a3328e5c09b4",
        "1461501637330902918203684832716283019655932542975",
        "281474976710655"
      ],
      "transaction": {
        "from": "0x3e723f6b81431f325e3f08e75544f254c182afe2",
        "to": "0x000000000022d473030f116ddee9f6b43ac78ba3",
        "gas": "0x96a0",
        "value": "0x0",
        "input": "0x87517c450000000000000000000000009bde75a5a0723038cfe4528bd0e346056bae750b000000000000000000000000429ba70129df741b2ca2a85bc3a2a3328e5c09b4000000000000000000000000ffffffffffffffffffffffffffffffffffffffff0000000000000000000000000000000000000000000000000000ffffffffffff",
        "nonce": "0x5b3",
        "chainId": "0xaa36a7"
      },
      "additionalContracts": [],
      "isFixedGasLimit": false
    },
    {
      "hash": "0x1ae378a5cbc427056f0b1af535eda24a6eb112526ecd91a12d1344757119ab86",
      "transactionType": "CALL",
      "contractName": null,
      "contractAddress": "0x1ada2feb7b799d2fcb985441665649d29ae7f838",
      "function": "approve(address,uint256)",
      "arguments": [
        "0x000000000022D473030F116dDEE9F6B43aC78BA3",
        "115792089237316195423570985008687907853269984665640564039457584007913129639935"
      ],
      "transaction": {
        "from": "0x3e723f6b81431f325e3f08e75544f254c182afe2",
        "to": "0x1ada2feb7b799d2fcb985441665649d29ae7f838",
        "gas": "0x8df2",
        "value": "0x0",
        "input": "0x095ea7b3000000000000000000000000000000000022d473030f116ddee9f6b43ac78ba3ffffffffffffffffffffffffffffffffffffffffffffffffffffffffffffffff",
        "nonce": "0x5b4",
        "chainId": "0xaa36a7"
      },
      "additionalContracts": [],
      "isFixedGasLimit": false
    },
    {
      "hash": "0xc1fb5a98ff7b4d04658e6f0914573ed5e2433ae2864ff9f94a827565408249fa",
      "transactionType": "CALL",
      "contractName": null,
      "contractAddress": "0x000000000022d473030f116ddee9f6b43ac78ba3",
      "function": "approve(address,address,uint160,uint48)",
      "arguments": [
        "0x1ada2FEB7b799D2fcb985441665649D29aE7f838",
        "0x429ba70129df741B2Ca2a85BC3A2a3328e5c09b4",
        "1461501637330902918203684832716283019655932542975",
        "281474976710655"
      ],
      "transaction": {
        "from": "0x3e723f6b81431f325e3f08e75544f254c182afe2",
        "to": "0x000000000022d473030f116ddee9f6b43ac78ba3",
        "gas": "0x96a0",
        "value": "0x0",
        "input": "0x87517c450000000000000000000000001ada2feb7b799d2fcb985441665649d29ae7f838000000000000000000000000429ba70129df741b2ca2a85bc3a2a3328e5c09b4000000000000000000000000ffffffffffffffffffffffffffffffffffffffff0000000000000000000000000000000000000000000000000000ffffffffffff",
        "nonce": "0x5b5",
        "chainId": "0xaa36a7"
      },
      "additionalContracts": [],
      "isFixedGasLimit": false
    },
    {
      "hash": "0x3ea30798478efbc04ad453016a8ffaa5f72d000e33d9055c7b1800163b90a2ff",
      "transactionType": "CALL",
      "contractName": null,
      "contractAddress": "0x429ba70129df741b2ca2a85bc3a2a3328e5c09b4",
      "function": "multicall(bytes[])",
      "arguments": [
        "[0xdd46508f00000000000000000000000000000000000000000000000000000000000000400000000000000000000000000000000000000000000000000000000068cb83180000000000000000000000000000000000000000000000000000000000000400000000000000000000000000000000000000000000000000000000000000004000000000000000000000000000000000000000000000000000000000000000800000000000000000000000000000000000000000000000000000000000000004020d14140000000000000000000000000000000000000000000000000000000000000000000000000000000000000000000000000000000000000000000000040000000000000000000000000000000000000000000000000000000000000080000000000000000000000000000000000000000000000000000000000000024000000000000000000000000000000000000000000000000000000000000002a0000000000000000000000000000000000000000000000000000000000000030000000000000000000000000000000000000000000000000000000000000001a00000000000000000000000001ada2feb7b799d2fcb985441665649d29ae7f8380000000000000000000000009bde75a5a0723038cfe4528bd0e346056bae750b0000000000000000000000000000000000000000000000000000000000000bb8000000000000000000000000000000000000000000000000000000000000003c0000000000000000000000000000000000000000000000000000000000000000fffffffffffffffffffffffffffffffffffffffffffffffffffffffffffffda8000000000000000000000000000000000000000000000000000000000000021c0000000000000000000000000000000000000000000000b947b81bf63259f81d0000000000000000000000000000000000000000000000056bc75e2d631000010000000000000000000000000000000000000000000000056bc75e2d631000010000000000000000000000003e723f6b81431f325e3f08e75544f254c182afe20000000000000000000000000000000000000000000000000000000000000180000000000000000000000000000000000000000000000000000000000000000000000000000000000000000000000000000000000000000000000000000000400000000000000000000000001ada2feb7b799d2fcb985441665649d29ae7f8380000000000000000000000009bde75a5a0723038cfe4528bd0e346056bae750b00000000000000000000000000000000000000000000000000000000000000400000000000000000000000001ada2feb7b799d2fcb985441665649d29ae7f8380000000000000000000000003e723f6b81431f325e3f08e75544f254c182afe200000000000000000000000000000000000000000000000000000000000000400000000000000000000000009bde75a5a0723038cfe4528bd0e346056bae750b0000000000000000000000003e723f6b81431f325e3f08e75544f254c182afe2]"
      ],
      "transaction": {
        "from": "0x3e723f6b81431f325e3f08e75544f254c182afe2",
        "to": "0x429ba70129df741b2ca2a85bc3a2a3328e5c09b4",
        "gas": "0x5f178",
        "value": "0x0",
        "input": "0xac9650d80000000000000000000000000000000000000000000000000000000000000020000000000000000000000000000000000000000000000000000000000000000100000000000000000000000000000000000000000000000000000000000000200000000000000000000000000000000000000000000000000000000000000464dd46508f00000000000000000000000000000000000000000000000000000000000000400000000000000000000000000000000000000000000000000000000068cb83180000000000000000000000000000000000000000000000000000000000000400000000000000000000000000000000000000000000000000000000000000004000000000000000000000000000000000000000000000000000000000000000800000000000000000000000000000000000000000000000000000000000000004020d14140000000000000000000000000000000000000000000000000000000000000000000000000000000000000000000000000000000000000000000000040000000000000000000000000000000000000000000000000000000000000080000000000000000000000000000000000000000000000000000000000000024000000000000000000000000000000000000000000000000000000000000002a0000000000000000000000000000000000000000000000000000000000000030000000000000000000000000000000000000000000000000000000000000001a00000000000000000000000001ada2feb7b799d2fcb985441665649d29ae7f8380000000000000000000000009bde75a5a0723038cfe4528bd0e346056bae750b0000000000000000000000000000000000000000000000000000000000000bb8000000000000000000000000000000000000000000000000000000000000003c0000000000000000000000000000000000000000000000000000000000000000fffffffffffffffffffffffffffffffffffffffffffffffffffffffffffffda8000000000000000000000000000000000000000000000000000000000000021c0000000000000000000000000000000000000000000000b947b81bf63259f81d0000000000000000000000000000000000000000000000056bc75e2d631000010000000000000000000000000000000000000000000000056bc75e2d631000010000000000000000000000003e723f6b81431f325e3f08e75544f254c182afe20000000000000000000000000000000000000000000000000000000000000180000000000000000000000000000000000000000000000000000000000000000000000000000000000000000000000000000000000000000000000000000000400000000000000000000000001ada2feb7b799d2fcb985441665649d29ae7f8380000000000000000000000009bde75a5a0723038cfe4528bd0e346056bae750b00000000000000000000000000000000000000000000000000000000000000400000000000000000000000001ada2feb7b799d2fcb985441665649d29ae7f8380000000000000000000000003e723f6b81431f325e3f08e75544f254c182afe200000000000000000000000000000000000000000000000000000000000000400000000000000000000000009bde75a5a0723038cfe4528bd0e346056bae750b0000000000000000000000003e723f6b81431f325e3f08e75544f254c182afe200000000000000000000000000000000000000000000000000000000",
        "nonce": "0x5b6",
        "chainId": "0xaa36a7"
      },
      "additionalContracts": [],
      "isFixedGasLimit": false
    }
  ],
  "receipts": [
    {
      "status": "0x1",
      "cumulativeGasUsed": "0xb08b82",
      "logs": [
        {
          "address": "0x9bde75a5a0723038cfe4528bd0e346056bae750b",
          "topics": [
            "0x8c5be1e5ebec7d5bd14f71427d1e84f3dd0314c0f7b2291e5b200ac8c7c3b925",
            "0x0000000000000000000000003e723f6b81431f325e3f08e75544f254c182afe2",
            "0x000000000000000000000000429ba70129df741b2ca2a85bc3a2a3328e5c09b4"
          ],
          "data": "0xffffffffffffffffffffffffffffffffffffffffffffffffffffffffffffffff",
          "blockHash": "0x1fe858a2dc60522d2eda2ceef28d24bd3b5088bfdbb81ab7994c2ce450538c98",
          "blockNumber": "0x8cc805",
          "blockTimestamp": "0x68cb830c",
          "transactionHash": "0xeb880d3a2d98287e94c573b3ffc2a8442929c4308d7cbc8bf4616aaf46dffa80",
          "transactionIndex": "0x44",
          "logIndex": "0x5c",
          "removed": false
        }
      ],
      "logsBloom": "0x00000000000000000000000000000000000000000000000000000000000000000000000000000040080000000000000000200000080000000000000000200000000000000000000000000000000000000080000000000000000000000000000000000000000000000000000000000000000000000000000000000800000000000000000000000000000000000000000002000000000000000000000000000000020000000000000080000000000000000000000000000000000010000000000000000000000000000000000000000000000000000000000000000000000000000010000000000000000000000000000000000000000000000000000000000000",
      "type": "0x2",
      "transactionHash": "0xeb880d3a2d98287e94c573b3ffc2a8442929c4308d7cbc8bf4616aaf46dffa80",
      "transactionIndex": "0x44",
      "blockHash": "0x1fe858a2dc60522d2eda2ceef28d24bd3b5088bfdbb81ab7994c2ce450538c98",
      "blockNumber": "0x8cc805",
      "gasUsed": "0x6701",
      "effectiveGasPrice": "0xf425d",
      "from": "0x3e723f6b81431f325e3f08e75544f254c182afe2",
      "to": "0x9bde75a5a0723038cfe4528bd0e346056bae750b",
      "contractAddress": null
    },
    {
      "status": "0x1",
      "cumulativeGasUsed": "0xb0f283",
      "logs": [
        {
          "address": "0x1ada2feb7b799d2fcb985441665649d29ae7f838",
          "topics": [
            "0x8c5be1e5ebec7d5bd14f71427d1e84f3dd0314c0f7b2291e5b200ac8c7c3b925",
            "0x0000000000000000000000003e723f6b81431f325e3f08e75544f254c182afe2",
            "0x000000000000000000000000429ba70129df741b2ca2a85bc3a2a3328e5c09b4"
          ],
          "data": "0xffffffffffffffffffffffffffffffffffffffffffffffffffffffffffffffff",
          "blockHash": "0x1fe858a2dc60522d2eda2ceef28d24bd3b5088bfdbb81ab7994c2ce450538c98",
          "blockNumber": "0x8cc805",
          "blockTimestamp": "0x68cb830c",
          "transactionHash": "0x7b35c3f58417a9bf23b5dc5469ad484fcb22a0ce711ae7b06586c4e4a1528f83",
          "transactionIndex": "0x45",
          "logIndex": "0x5d",
          "removed": false
        }
      ],
      "logsBloom": "0x00040000000000000000000000000000000000000000000000000000800000000000000000000040080000000000000000000000080000000000000000200000000000000000000000000000000000000000000000000000000000000000000000000000000000000000000000000000000000000000000000000800000000000000000000000000000000000000000000000000000000000000000000000000020000000000000080000000000000000000000000000000000010000000000000000000000000000000000000000000000000000000000000000000000000000010000000000000000000000000000000000000000000000000000800000000",
      "type": "0x2",
      "transactionHash": "0x7b35c3f58417a9bf23b5dc5469ad484fcb22a0ce711ae7b06586c4e4a1528f83",
      "transactionIndex": "0x45",
      "blockHash": "0x1fe858a2dc60522d2eda2ceef28d24bd3b5088bfdbb81ab7994c2ce450538c98",
      "blockNumber": "0x8cc805",
      "gasUsed": "0x6701",
      "effectiveGasPrice": "0xf425d",
      "from": "0x3e723f6b81431f325e3f08e75544f254c182afe2",
      "to": "0x1ada2feb7b799d2fcb985441665649d29ae7f838",
      "contractAddress": null
    },
    {
      "status": "0x1",
      "cumulativeGasUsed": "0xb15948",
      "logs": [
        {
          "address": "0x9bde75a5a0723038cfe4528bd0e346056bae750b",
          "topics": [
            "0x8c5be1e5ebec7d5bd14f71427d1e84f3dd0314c0f7b2291e5b200ac8c7c3b925",
            "0x0000000000000000000000003e723f6b81431f325e3f08e75544f254c182afe2",
            "0x000000000000000000000000000000000022d473030f116ddee9f6b43ac78ba3"
          ],
          "data": "0xffffffffffffffffffffffffffffffffffffffffffffffffffffffffffffffff",
          "blockHash": "0x1fe858a2dc60522d2eda2ceef28d24bd3b5088bfdbb81ab7994c2ce450538c98",
          "blockNumber": "0x8cc805",
          "blockTimestamp": "0x68cb830c",
          "transactionHash": "0xed0e2877bed6bbc85e9a789ef16319a0e2a917229827962aab123e9d50fc5c35",
          "transactionIndex": "0x46",
          "logIndex": "0x5e",
          "removed": false
        }
      ],
      "logsBloom": "0x00000000000000000000000000000000000000000000000000000000000000000000000000000000000000000000000000200000880000000000000000200000000000000000000000004000000000000080000000000800000000000000000000000000000000000000000000000000000000000000000000000000000000000000000000000000000000000000000002000000000000000000000000000000020000000000000080000000000000000000000000000000000010000000000000000000000000000000000000000000000000000000000000000000000000000010000000000000000000000000000000000000000000000000000000000000",
      "type": "0x2",
      "transactionHash": "0xed0e2877bed6bbc85e9a789ef16319a0e2a917229827962aab123e9d50fc5c35",
      "transactionIndex": "0x46",
      "blockHash": "0x1fe858a2dc60522d2eda2ceef28d24bd3b5088bfdbb81ab7994c2ce450538c98",
      "blockNumber": "0x8cc805",
      "gasUsed": "0x66c5",
      "effectiveGasPrice": "0xf425d",
      "from": "0x3e723f6b81431f325e3f08e75544f254c182afe2",
      "to": "0x9bde75a5a0723038cfe4528bd0e346056bae750b",
      "contractAddress": null
    },
    {
      "status": "0x1",
      "cumulativeGasUsed": "0xb1c656",
      "logs": [
        {
          "address": "0x000000000022d473030f116ddee9f6b43ac78ba3",
          "topics": [
            "0xda9fa7c1b00402c17d0161b249b1ab8bbec047c5a52207b9c112deffd817036b",
            "0x0000000000000000000000003e723f6b81431f325e3f08e75544f254c182afe2",
            "0x0000000000000000000000009bde75a5a0723038cfe4528bd0e346056bae750b",
            "0x000000000000000000000000429ba70129df741b2ca2a85bc3a2a3328e5c09b4"
          ],
          "data": "0x000000000000000000000000ffffffffffffffffffffffffffffffffffffffff0000000000000000000000000000000000000000000000000000ffffffffffff",
          "blockHash": "0x1fe858a2dc60522d2eda2ceef28d24bd3b5088bfdbb81ab7994c2ce450538c98",
          "blockNumber": "0x8cc805",
          "blockTimestamp": "0x68cb830c",
          "transactionHash": "0x497375cb1e11ba7894f84d8ddbc578da4c5d7db43ed739e6fb649beb53675199",
          "transactionIndex": "0x47",
          "logIndex": "0x5f",
          "removed": false
        }
      ],
      "logsBloom": "0x00010000000000000000000000000000000000000000000000000000000000000000000000000040080000000000000000000000080000000000800000080000000000200000000000000000000000000000000000000000000000000000000000000000000000000000000000000000000000000000000000000800000000000020000000000000000000000000000000000000000000000000000000000000000000000000000080000000000000000000000000000000000011080000000000000000000000000000000000000000000000000000000040000000000000000000000000000000000000000000000000000000000000000000000000000400",
      "type": "0x2",
      "transactionHash": "0x497375cb1e11ba7894f84d8ddbc578da4c5d7db43ed739e6fb649beb53675199",
      "transactionIndex": "0x47",
      "blockHash": "0x1fe858a2dc60522d2eda2ceef28d24bd3b5088bfdbb81ab7994c2ce450538c98",
      "blockNumber": "0x8cc805",
      "gasUsed": "0x6d0e",
      "effectiveGasPrice": "0xf425d",
      "from": "0x3e723f6b81431f325e3f08e75544f254c182afe2",
      "to": "0x000000000022d473030f116ddee9f6b43ac78ba3",
      "contractAddress": null
    },
    {
      "status": "0x1",
      "cumulativeGasUsed": "0xb22d1b",
      "logs": [
        {
          "address": "0x1ada2feb7b799d2fcb985441665649d29ae7f838",
          "topics": [
            "0x8c5be1e5ebec7d5bd14f71427d1e84f3dd0314c0f7b2291e5b200ac8c7c3b925",
            "0x0000000000000000000000003e723f6b81431f325e3f08e75544f254c182afe2",
            "0x000000000000000000000000000000000022d473030f116ddee9f6b43ac78ba3"
          ],
          "data": "0xffffffffffffffffffffffffffffffffffffffffffffffffffffffffffffffff",
          "blockHash": "0x1fe858a2dc60522d2eda2ceef28d24bd3b5088bfdbb81ab7994c2ce450538c98",
          "blockNumber": "0x8cc805",
          "blockTimestamp": "0x68cb830c",
          "transactionHash": "0x1ae378a5cbc427056f0b1af535eda24a6eb112526ecd91a12d1344757119ab86",
          "transactionIndex": "0x48",
          "logIndex": "0x60",
          "removed": false
        }
      ],
      "logsBloom": "0x00040000000000000000000000000000000000000000000000000000800000000000000000000000000000000000000000000000880000000000000000200000000000000000000000004000000000000000000000000800000000000000000000000000000000000000000000000000000000000000000000000000000000000000000000000000000000000000000000000000000000000000000000000000020000000000000080000000000000000000000000000000000010000000000000000000000000000000000000000000000000000000000000000000000000000010000000000000000000000000000000000000000000000000000800000000",
      "type": "0x2",
      "transactionHash": "0x1ae378a5cbc427056f0b1af535eda24a6eb112526ecd91a12d1344757119ab86",
      "transactionIndex": "0x48",
      "blockHash": "0x1fe858a2dc60522d2eda2ceef28d24bd3b5088bfdbb81ab7994c2ce450538c98",
      "blockNumber": "0x8cc805",
      "gasUsed": "0x66c5",
      "effectiveGasPrice": "0xf425d",
      "from": "0x3e723f6b81431f325e3f08e75544f254c182afe2",
      "to": "0x1ada2feb7b799d2fcb985441665649d29ae7f838",
      "contractAddress": null
    },
    {
      "status": "0x1",
      "cumulativeGasUsed": "0xb29a29",
      "logs": [
        {
          "address": "0x000000000022d473030f116ddee9f6b43ac78ba3",
          "topics": [
            "0xda9fa7c1b00402c17d0161b249b1ab8bbec047c5a52207b9c112deffd817036b",
            "0x0000000000000000000000003e723f6b81431f325e3f08e75544f254c182afe2",
            "0x0000000000000000000000001ada2feb7b799d2fcb985441665649d29ae7f838",
            "0x000000000000000000000000429ba70129df741b2ca2a85bc3a2a3328e5c09b4"
          ],
          "data": "0x000000000000000000000000ffffffffffffffffffffffffffffffffffffffff0000000000000000000000000000000000000000000000000000ffffffffffff",
          "blockHash": "0x1fe858a2dc60522d2eda2ceef28d24bd3b5088bfdbb81ab7994c2ce450538c98",
          "blockNumber": "0x8cc805",
          "blockTimestamp": "0x68cb830c",
          "transactionHash": "0xc1fb5a98ff7b4d04658e6f0914573ed5e2433ae2864ff9f94a827565408249fa",
          "transactionIndex": "0x49",
          "logIndex": "0x61",
          "removed": false
        }
      ],
      "logsBloom": "0x00010000000000000000000000000000000000000000000000000000000000000000000000000040080000000000000000000000080000000000000000080000000000080000000000000000000000000000000000000000000000000000000000000000000000000000000000000000000000000000000000000800000000000020000000000000000000000000000000000000000000000000000000000000000000000000000080000000000000000000000000020000000010080000000000000000000000000000000000000000000000000000000040000000000000000000000000000000000000000000000000002000000000000000000000000400",
      "type": "0x2",
      "transactionHash": "0xc1fb5a98ff7b4d04658e6f0914573ed5e2433ae2864ff9f94a827565408249fa",
      "transactionIndex": "0x49",
      "blockHash": "0x1fe858a2dc60522d2eda2ceef28d24bd3b5088bfdbb81ab7994c2ce450538c98",
      "blockNumber": "0x8cc805",
      "gasUsed": "0x6d0e",
      "effectiveGasPrice": "0xf425d",
      "from": "0x3e723f6b81431f325e3f08e75544f254c182afe2",
      "to": "0x000000000022d473030f116ddee9f6b43ac78ba3",
      "contractAddress": null
    },
    {
      "status": "0x1",
      "cumulativeGasUsed": "0xb6e7ae",
      "logs": [
        {
          "address": "0x429ba70129df741b2ca2a85bc3a2a3328e5c09b4",
          "topics": [
            "0xddf252ad1be2c89b69c2b068fc378daa952ba7f163c4a11628f55a4df523b3ef",
            "0x0000000000000000000000000000000000000000000000000000000000000000",
            "0x0000000000000000000000003e723f6b81431f325e3f08e75544f254c182afe2",
            "0x0000000000000000000000000000000000000000000000000000000000004326"
          ],
          "data": "0x",
          "blockHash": "0x1fe858a2dc60522d2eda2ceef28d24bd3b5088bfdbb81ab7994c2ce450538c98",
          "blockNumber": "0x8cc805",
          "blockTimestamp": "0x68cb830c",
          "transactionHash": "0x3ea30798478efbc04ad453016a8ffaa5f72d000e33d9055c7b1800163b90a2ff",
          "transactionIndex": "0x4a",
          "logIndex": "0x62",
          "removed": false
        },
        {
          "address": "0xe03a1074c86cfedd5c142c4f04f1a1536e203543",
          "topics": [
            "0xf208f4912782fd25c7f114ca3723a2d5dd6f3bcc3ac8db5af63baa85f711d5ec",
            "0x6df9863a379f04d726a4613088efb0601f7ece024419faead693edc46201af74",
            "0x000000000000000000000000429ba70129df741b2ca2a85bc3a2a3328e5c09b4"
          ],
          "data": "0xfffffffffffffffffffffffffffffffffffffffffffffffffffffffffffffda8000000000000000000000000000000000000000000000000000000000000021c0000000000000000000000000000000000000000000000b947b81bf63259f81d0000000000000000000000000000000000000000000000000000000000004326",
          "blockHash": "0x1fe858a2dc60522d2eda2ceef28d24bd3b5088bfdbb81ab7994c2ce450538c98",
          "blockNumber": "0x8cc805",
          "blockTimestamp": "0x68cb830c",
          "transactionHash": "0x3ea30798478efbc04ad453016a8ffaa5f72d000e33d9055c7b1800163b90a2ff",
          "transactionIndex": "0x4a",
          "logIndex": "0x63",
          "removed": false
        },
        {
          "address": "0x1ada2feb7b799d2fcb985441665649d29ae7f838",
          "topics": [
            "0xddf252ad1be2c89b69c2b068fc378daa952ba7f163c4a11628f55a4df523b3ef",
            "0x0000000000000000000000003e723f6b81431f325e3f08e75544f254c182afe2",
            "0x000000000000000000000000e03a1074c86cfedd5c142c4f04f1a1536e203543"
          ],
          "data": "0x000000000000000000000000000000000000000000000004fd6f6baf8e364f6e",
          "blockHash": "0x1fe858a2dc60522d2eda2ceef28d24bd3b5088bfdbb81ab7994c2ce450538c98",
          "blockNumber": "0x8cc805",
          "blockTimestamp": "0x68cb830c",
          "transactionHash": "0x3ea30798478efbc04ad453016a8ffaa5f72d000e33d9055c7b1800163b90a2ff",
          "transactionIndex": "0x4a",
          "logIndex": "0x64",
          "removed": false
        },
        {
          "address": "0x9bde75a5a0723038cfe4528bd0e346056bae750b",
          "topics": [
            "0xddf252ad1be2c89b69c2b068fc378daa952ba7f163c4a11628f55a4df523b3ef",
            "0x0000000000000000000000003e723f6b81431f325e3f08e75544f254c182afe2",
            "0x000000000000000000000000e03a1074c86cfedd5c142c4f04f1a1536e203543"
          ],
          "data": "0x0000000000000000000000000000000000000000000000056bc75e2d63100000",
          "blockHash": "0x1fe858a2dc60522d2eda2ceef28d24bd3b5088bfdbb81ab7994c2ce450538c98",
          "blockNumber": "0x8cc805",
          "blockTimestamp": "0x68cb830c",
          "transactionHash": "0x3ea30798478efbc04ad453016a8ffaa5f72d000e33d9055c7b1800163b90a2ff",
          "transactionIndex": "0x4a",
          "logIndex": "0x65",
          "removed": false
        }
      ],
      "logsBloom": "0x00040000000000000000001000000000000000000000000000000000880000000000000000000040280000000000000000201100080000000000000000010000000000000000000000000008000000000080000000000000000000000000000000000000020000002000000080000800000000000000100000000810000000000000000001000000000010010000000006000000000000000000000000000000000004000000000080000000000000000000000000400000000010000000000000000002000000000000000000000000000000000000000000001000000020001000000000000000000000000000000004000000000000000000000800000000",
      "type": "0x2",
      "transactionHash": "0x3ea30798478efbc04ad453016a8ffaa5f72d000e33d9055c7b1800163b90a2ff",
      "transactionIndex": "0x4a",
      "blockHash": "0x1fe858a2dc60522d2eda2ceef28d24bd3b5088bfdbb81ab7994c2ce450538c98",
      "blockNumber": "0x8cc805",
      "gasUsed": "0x44d85",
      "effectiveGasPrice": "0xf425d",
      "from": "0x3e723f6b81431f325e3f08e75544f254c182afe2",
      "to": "0x429ba70129df741b2ca2a85bc3a2a3328e5c09b4",
      "contractAddress": null
    }
  ],
  "libraries": [],
  "pending": [],
  "returns": {},
  "timestamp": 1758167821034,
  "chain": 11155111,
  "commit": "7b9c819"
}