{
  "transactions": [
    {
      "hash": "0xdd228b13c9cc3d0af9a18b78c62bf43a946a557c72a02b61e91c7305e78b0cbf",
      "transactionType": "CALL",
      "contractName": null,
      "contractAddress": "0x3e26f2e91b25ff5a9f9c54772ff616b1ea7c9e4f",
      "function": "approve(address,uint256)",
      "arguments": [
        "0x000000000022D473030F116dDEE9F6B43aC78BA3",
        "115792089237316195423570985008687907853269984665640564039457584007913129639935"
      ],
      "transaction": {
        "from": "0x3e723f6b81431f325e3f08e75544f254c182afe2",
        "to": "0x3e26f2e91b25ff5a9f9c54772ff616b1ea7c9e4f",
        "gas": "0x9330",
        "value": "0x0",
        "input": "0x095ea7b3000000000000000000000000000000000022d473030f116ddee9f6b43ac78ba3ffffffffffffffffffffffffffffffffffffffffffffffffffffffffffffffff",
        "nonce": "0x450",
        "chainId": "0xaa36a7"
      },
      "additionalContracts": [],
      "isFixedGasLimit": false
    },
    {
      "hash": "0xcd2dadec5f90af77fdd65bf9db547339f8ee835fa9b4aa3c7d5d4b56c68d054d",
      "transactionType": "CALL",
      "contractName": null,
      "contractAddress": "0x000000000022d473030f116ddee9f6b43ac78ba3",
      "function": "approve(address,address,uint160,uint48)",
      "arguments": [
        "0x3e26F2e91B25Ff5A9F9C54772FF616B1ea7c9e4F",
        "0x429ba70129df741B2Ca2a85BC3A2a3328e5c09b4",
        "1461501637330902918203684832716283019655932542975",
        "281474976710655"
      ],
      "transaction": {
        "from": "0x3e723f6b81431f325e3f08e75544f254c182afe2",
        "to": "0x000000000022d473030f116ddee9f6b43ac78ba3",
        "gas": "0x96a0",
        "value": "0x0",
        "input": "0x87517c450000000000000000000000003e26f2e91b25ff5a9f9c54772ff616b1ea7c9e4f000000000000000000000000429ba70129df741b2ca2a85bc3a2a3328e5c09b4000000000000000000000000ffffffffffffffffffffffffffffffffffffffff0000000000000000000000000000000000000000000000000000ffffffffffff",
        "nonce": "0x451",
        "chainId": "0xaa36a7"
      },
      "additionalContracts": [],
      "isFixedGasLimit": false
    },
    {
      "hash": "0x164c926a0d51eebce201db0dca0e289e2a5ad59c6638df65057bc0ebe70d8733",
      "transactionType": "CALL",
      "contractName": null,
      "contractAddress": "0xda96ef73bd5422c46c12c19d45011a1daf3cb61c",
      "function": "approve(address,uint256)",
      "arguments": [
        "0x000000000022D473030F116dDEE9F6B43aC78BA3",
        "115792089237316195423570985008687907853269984665640564039457584007913129639935"
      ],
      "transaction": {
        "from": "0x3e723f6b81431f325e3f08e75544f254c182afe2",
        "to": "0xda96ef73bd5422c46c12c19d45011a1daf3cb61c",
        "gas": "0x9330",
        "value": "0x0",
        "input": "0x095ea7b3000000000000000000000000000000000022d473030f116ddee9f6b43ac78ba3ffffffffffffffffffffffffffffffffffffffffffffffffffffffffffffffff",
        "nonce": "0x452",
        "chainId": "0xaa36a7"
      },
      "additionalContracts": [],
      "isFixedGasLimit": false
    },
    {
      "hash": "0xf4a27e919620a63bf6014e75f7985799eb2c84b4a4e64526940fac12d960c16a",
      "transactionType": "CALL",
      "contractName": null,
      "contractAddress": "0x000000000022d473030f116ddee9f6b43ac78ba3",
      "function": "approve(address,address,uint160,uint48)",
      "arguments": [
        "0xDa96Ef73Bd5422c46c12C19D45011a1dAf3CB61C",
        "0x429ba70129df741B2Ca2a85BC3A2a3328e5c09b4",
        "1461501637330902918203684832716283019655932542975",
        "281474976710655"
      ],
      "transaction": {
        "from": "0x3e723f6b81431f325e3f08e75544f254c182afe2",
        "to": "0x000000000022d473030f116ddee9f6b43ac78ba3",
        "gas": "0x96a0",
        "value": "0x0",
        "input": "0x87517c45000000000000000000000000da96ef73bd5422c46c12c19d45011a1daf3cb61c000000000000000000000000429ba70129df741b2ca2a85bc3a2a3328e5c09b4000000000000000000000000ffffffffffffffffffffffffffffffffffffffff0000000000000000000000000000000000000000000000000000ffffffffffff",
        "nonce": "0x453",
        "chainId": "0xaa36a7"
      },
      "additionalContracts": [],
      "isFixedGasLimit": false
    },
    {
      "hash": "0x5795e555fa771020b08bfed4a305116b8bebc9618052569b57c5e929313c08cc",
      "transactionType": "CALL",
      "contractName": null,
      "contractAddress": "0x429ba70129df741b2ca2a85bc3a2a3328e5c09b4",
      "function": "multicall(bytes[])",
      "arguments": [
        "[0xf70204050000000000000000000000003e26f2e91b25ff5a9f9c54772ff616b1ea7c9e4f000000000000000000000000da96ef73bd5422c46c12c19d45011a1daf3cb61c0000000000000000000000000000000000000000000000000000000000000bb8000000000000000000000000000000000000000000000000000000000000003c0000000000000000000000000df2530352d4755f1a16a3282a8763e454668ac0000000000000000000000000000000000000000100000000000000000000000000000000000000000000000000000000000000000000000000000000000000e00000000000000000000000000000000000000000000000000000000000000000, 0xdd46508f00000000000000000000000000000000000000000000000000000000000000400000000000000000000000000000000000000000000000000000000068c7951c0000000000000000000000000000000000000000000000000000000000000400000000000000000000000000000000000000000000000000000000000000004000000000000000000000000000000000000000000000000000000000000000800000000000000000000000000000000000000000000000000000000000000004020d14140000000000000000000000000000000000000000000000000000000000000000000000000000000000000000000000000000000000000000000000040000000000000000000000000000000000000000000000000000000000000080000000000000000000000000000000000000000000000000000000000000024000000000000000000000000000000000000000000000000000000000000002a0000000000000000000000000000000000000000000000000000000000000030000000000000000000000000000000000000000000000000000000000000001a00000000000000000000000003e26f2e91b25ff5a9f9c54772ff616b1ea7c9e4f000000000000000000000000da96ef73bd5422c46c12c19d45011a1daf3cb61c0000000000000000000000000000000000000000000000000000000000000bb8000000000000000000000000000000000000000000000000000000000000003c0000000000000000000000000df2530352d4755f1a16a3282a8763e454668ac0ffffffffffffffffffffffffffffffffffffffffffffffffffffffffffff5038000000000000000000000000000000000000000000000000000000000000afc80000000000000000000000000000000000000000000000000000000006a9ad120000000000000000000000000000000000000000000000056bc75e2d631000010000000000000000000000000000000000000000000000000000000005f5e1010000000000000000000000003e723f6b81431f325e3f08e75544f254c182afe20000000000000000000000000000000000000000000000000000000000000180000000000000000000000000000000000000000000000000000000000000000000000000000000000000000000000000000000000000000000000000000000400000000000000000000000003e26f2e91b25ff5a9f9c54772ff616b1ea7c9e4f000000000000000000000000da96ef73bd5422c46c12c19d45011a1daf3cb61c00000000000000000000000000000000000000000000000000000000000000400000000000000000000000003e26f2e91b25ff5a9f9c54772ff616b1ea7c9e4f0000000000000000000000003e723f6b81431f325e3f08e75544f254c182afe20000000000000000000000000000000000000000000000000000000000000040000000000000000000000000da96ef73bd5422c46c12c19d45011a1daf3cb61c0000000000000000000000003e723f6b81431f325e3f08e75544f254c182afe2]"
      ],
      "transaction": {
        "from": "0x3e723f6b81431f325e3f08e75544f254c182afe2",
        "to": "0x429ba70129df741b2ca2a85bc3a2a3328e5c09b4",
        "gas": "0xa6fa3",
        "value": "0x0",
        "input": "0xac9650d800000000000000000000000000000000000000000000000000000000000000200000000000000000000000000000000000000000000000000000000000000002000000000000000000000000000000000000000000000000000000000000004000000000000000000000000000000000000000000000000000000000000001800000000000000000000000000000000000000000000000000000000000000104f70204050000000000000000000000003e26f2e91b25ff5a9f9c54772ff616b1ea7c9e4f000000000000000000000000da96ef73bd5422c46c12c19d45011a1daf3cb61c0000000000000000000000000000000000000000000000000000000000000bb8000000000000000000000000000000000000000000000000000000000000003c0000000000000000000000000df2530352d4755f1a16a3282a8763e454668ac0000000000000000000000000000000000000000100000000000000000000000000000000000000000000000000000000000000000000000000000000000000e00000000000000000000000000000000000000000000000000000000000000000000000000000000000000000000000000000000000000000000000000000000000000000000000000000000000000000000000000000000000000464dd46508f00000000000000000000000000000000000000000000000000000000000000400000000000000000000000000000000000000000000000000000000068c7951c0000000000000000000000000000000000000000000000000000000000000400000000000000000000000000000000000000000000000000000000000000004000000000000000000000000000000000000000000000000000000000000000800000000000000000000000000000000000000000000000000000000000000004020d14140000000000000000000000000000000000000000000000000000000000000000000000000000000000000000000000000000000000000000000000040000000000000000000000000000000000000000000000000000000000000080000000000000000000000000000000000000000000000000000000000000024000000000000000000000000000000000000000000000000000000000000002a0000000000000000000000000000000000000000000000000000000000000030000000000000000000000000000000000000000000000000000000000000001a00000000000000000000000003e26f2e91b25ff5a9f9c54772ff616b1ea7c9e4f000000000000000000000000da96ef73bd5422c46c12c19d45011a1daf3cb61c0000000000000000000000000000000000000000000000000000000000000bb8000000000000000000000000000000000000000000000000000000000000003c0000000000000000000000000df2530352d4755f1a16a3282a8763e454668ac0ffffffffffffffffffffffffffffffffffffffffffffffffffffffffffff5038000000000000000000000000000000000000000000000000000000000000afc80000000000000000000000000000000000000000000000000000000006a9ad120000000000000000000000000000000000000000000000056bc75e2d631000010000000000000000000000000000000000000000000000000000000005f5e1010000000000000000000000003e723f6b81431f325e3f08e75544f254c182afe20000000000000000000000000000000000000000000000000000000000000180000000000000000000000000000000000000000000000000000000000000000000000000000000000000000000000000000000000000000000000000000000400000000000000000000000003e26f2e91b25ff5a9f9c54772ff616b1ea7c9e4f000000000000000000000000da96ef73bd5422c46c12c19d45011a1daf3cb61c00000000000000000000000000000000000000000000000000000000000000400000000000000000000000003e26f2e91b25ff5a9f9c54772ff616b1ea7c9e4f0000000000000000000000003e723f6b81431f325e3f08e75544f254c182afe20000000000000000000000000000000000000000000000000000000000000040000000000000000000000000da96ef73bd5422c46c12c19d45011a1daf3cb61c0000000000000000000000003e723f6b81431f325e3f08e75544f254c182afe200000000000000000000000000000000000000000000000000000000",
        "nonce": "0x454",
        "chainId": "0xaa36a7"
      },
      "additionalContracts": [],
      "isFixedGasLimit": false
    }
  ],
  "receipts": [
    {
      "status": "0x1",
      "cumulativeGasUsed": "0xb4ba29",
      "logs": [
        {
          "address": "0x3e26f2e91b25ff5a9f9c54772ff616b1ea7c9e4f",
          "topics": [
            "0x8c5be1e5ebec7d5bd14f71427d1e84f3dd0314c0f7b2291e5b200ac8c7c3b925",
            "0x0000000000000000000000003e723f6b81431f325e3f08e75544f254c182afe2",
            "0x000000000000000000000000000000000022d473030f116ddee9f6b43ac78ba3"
          ],
          "data": "0xffffffffffffffffffffffffffffffffffffffffffffffffffffffffffffffff",
          "blockHash": "0xf15ce937437926eab2c49ab4a3daaac0bac24628d12b2ea47bec3dc627f7dece",
          "blockNumber": "0x8c7901",
          "blockTimestamp": "0x68c78730",
          "transactionHash": "0xdd228b13c9cc3d0af9a18b78c62bf43a946a557c72a02b61e91c7305e78b0cbf",
          "transactionIndex": "0x8f",
          "logIndex": "0x71",
          "removed": false
        }
      ],
      "logsBloom": "0x00000000000000000000000000000000000000000000000000000000000000000000000000000000000000000200000000000000880000000000000000200000000000000000000000004000000000000000000000000800000000000000000000000000000000000000000000000000000000000000000000000000000000000000000000000000000000000000000000000000000000000000000000100000020000000000000080000000000000000000000000000000000010000000000000000000000000000000000000000000000000000000000000000000000001000010000000000000000000000000000000000000000000000000000000000000",
      "type": "0x2",
      "transactionHash": "0xdd228b13c9cc3d0af9a18b78c62bf43a946a557c72a02b61e91c7305e78b0cbf",
      "transactionIndex": "0x8f",
      "blockHash": "0xf15ce937437926eab2c49ab4a3daaac0bac24628d12b2ea47bec3dc627f7dece",
      "blockNumber": "0x8c7901",
      "gasUsed": "0x6a90",
      "effectiveGasPrice": "0xfc1b7",
      "from": "0x3e723f6b81431f325e3f08e75544f254c182afe2",
      "to": "0x3e26f2e91b25ff5a9f9c54772ff616b1ea7c9e4f",
      "contractAddress": null
    },
    {
      "status": "0x1",
      "cumulativeGasUsed": "0xb5793f",
      "logs": [
        {
          "address": "0x000000000022d473030f116ddee9f6b43ac78ba3",
          "topics": [
            "0xda9fa7c1b00402c17d0161b249b1ab8bbec047c5a52207b9c112deffd817036b",
            "0x0000000000000000000000003e723f6b81431f325e3f08e75544f254c182afe2",
            "0x0000000000000000000000003e26f2e91b25ff5a9f9c54772ff616b1ea7c9e4f",
            "0x000000000000000000000000429ba70129df741b2ca2a85bc3a2a3328e5c09b4"
          ],
          "data": "0x000000000000000000000000ffffffffffffffffffffffffffffffffffffffff0000000000000000000000000000000000000000000000000000ffffffffffff",
          "blockHash": "0xf15ce937437926eab2c49ab4a3daaac0bac24628d12b2ea47bec3dc627f7dece",
          "blockNumber": "0x8c7901",
          "blockTimestamp": "0x68c78730",
          "transactionHash": "0xcd2dadec5f90af77fdd65bf9db547339f8ee835fa9b4aa3c7d5d4b56c68d054d",
          "transactionIndex": "0x91",
          "logIndex": "0x72",
          "removed": false
        }
      ],
      "logsBloom": "0x00010000000000000000000000000000000000000000000000000000000000000000000000000040080000000000000000000000080000000000000000080000000000000000000000000000000000000000000000000000000000000000000800000000000000000000000000000000000000000000000000000800000000000020000000000000000000000000000000000000000000000000000000000000000000000010000080000000000000000000000000000000000010080000000000000000000000000000000000000000000000000000000040002000000000000000000000000000000000000000000000000000000000000000000000000400",
      "type": "0x2",
      "transactionHash": "0xcd2dadec5f90af77fdd65bf9db547339f8ee835fa9b4aa3c7d5d4b56c68d054d",
      "transactionIndex": "0x91",
      "blockHash": "0xf15ce937437926eab2c49ab4a3daaac0bac24628d12b2ea47bec3dc627f7dece",
      "blockNumber": "0x8c7901",
      "gasUsed": "0x6d0e",
      "effectiveGasPrice": "0xfc1b7",
      "from": "0x3e723f6b81431f325e3f08e75544f254c182afe2",
      "to": "0x000000000022d473030f116ddee9f6b43ac78ba3",
      "contractAddress": null
    },
    {
      "status": "0x1",
      "cumulativeGasUsed": "0xb5e3cf",
      "logs": [
        {
          "address": "0xda96ef73bd5422c46c12c19d45011a1daf3cb61c",
          "topics": [
            "0x8c5be1e5ebec7d5bd14f71427d1e84f3dd0314c0f7b2291e5b200ac8c7c3b925",
            "0x0000000000000000000000003e723f6b81431f325e3f08e75544f254c182afe2",
            "0x000000000000000000000000000000000022d473030f116ddee9f6b43ac78ba3"
          ],
          "data": "0xffffffffffffffffffffffffffffffffffffffffffffffffffffffffffffffff",
          "blockHash": "0xf15ce937437926eab2c49ab4a3daaac0bac24628d12b2ea47bec3dc627f7dece",
          "blockNumber": "0x8c7901",
          "blockTimestamp": "0x68c78730",
          "transactionHash": "0x164c926a0d51eebce201db0dca0e289e2a5ad59c6638df65057bc0ebe70d8733",
          "transactionIndex": "0x92",
          "logIndex": "0x73",
          "removed": false
        }
      ],
      "logsBloom": "0x00000000000000000000000000000000000000000000000000000000000000000000000000000000000000000000000000000000880000000000000000200000000000000000000000004000000000000000000000010800000000000000000000000000000000000000000000000000000000000000000000000000000000000000000000000000000000000000000000000000000000000000000000000000020000000000000080000000000000000000000000000000000010000020000000000000000000000000000000000000000000000000000000000000000000000010000000000000000000000000000000000000000000000400000000000000",
      "type": "0x2",
      "transactionHash": "0x164c926a0d51eebce201db0dca0e289e2a5ad59c6638df65057bc0ebe70d8733",
      "transactionIndex": "0x92",
      "blockHash": "0xf15ce937437926eab2c49ab4a3daaac0bac24628d12b2ea47bec3dc627f7dece",
      "blockNumber": "0x8c7901",
      "gasUsed": "0x6a90",
      "effectiveGasPrice": "0xfc1b7",
      "from": "0x3e723f6b81431f325e3f08e75544f254c182afe2",
      "to": "0xda96ef73bd5422c46c12c19d45011a1daf3cb61c",
      "contractAddress": null
    },
    {
      "status": "0x1",
      "cumulativeGasUsed": "0xb650dd",
      "logs": [
        {
          "address": "0x000000000022d473030f116ddee9f6b43ac78ba3",
          "topics": [
            "0xda9fa7c1b00402c17d0161b249b1ab8bbec047c5a52207b9c112deffd817036b",
            "0x0000000000000000000000003e723f6b81431f325e3f08e75544f254c182afe2",
            "0x000000000000000000000000da96ef73bd5422c46c12c19d45011a1daf3cb61c",
            "0x000000000000000000000000429ba70129df741b2ca2a85bc3a2a3328e5c09b4"
          ],
          "data": "0x000000000000000000000000ffffffffffffffffffffffffffffffffffffffff0000000000000000000000000000000000000000000000000000ffffffffffff",
          "blockHash": "0xf15ce937437926eab2c49ab4a3daaac0bac24628d12b2ea47bec3dc627f7dece",
          "blockNumber": "0x8c7901",
          "blockTimestamp": "0x68c78730",
          "transactionHash": "0xf4a27e919620a63bf6014e75f7985799eb2c84b4a4e64526940fac12d960c16a",
          "transactionIndex": "0x93",
          "logIndex": "0x74",
          "removed": false
        }
      ],
      "logsBloom": "0x00010000000000000000000000000000000000000000000000000000000000000000000000000040080000000000000000000000080000000000004100080000000000000000000000000000000000000000000000000000000000000000000000000000000000000000000000000000000000000000000000000800000000000020000000000000000000000000000000000000000000000000000000000000000000000000000080000000000000000000000000000000000010080080000000000000000000000000000000000000000000000000000040000000000000000000000000000000000000000000000000000000000000000000000000000400",
      "type": "0x2",
      "transactionHash": "0xf4a27e919620a63bf6014e75f7985799eb2c84b4a4e64526940fac12d960c16a",
      "transactionIndex": "0x93",
      "blockHash": "0xf15ce937437926eab2c49ab4a3daaac0bac24628d12b2ea47bec3dc627f7dece",
      "blockNumber": "0x8c7901",
      "gasUsed": "0x6d0e",
      "effectiveGasPrice": "0xfc1b7",
      "from": "0x3e723f6b81431f325e3f08e75544f254c182afe2",
      "to": "0x000000000022d473030f116ddee9f6b43ac78ba3",
      "contractAddress": null
    },
    {
      "status": "0x1",
      "cumulativeGasUsed": "0xbd73a0",
      "logs": [
        {
          "address": "0xe03a1074c86cfedd5c142c4f04f1a1536e203543",
          "topics": [
            "0xdd466e674ea557f56295e2d0218a125ea4b4f0f6f3307b95f85e6110838d6438",
            "0x052eba5a9264e7867f43cd167f3302969e262a458a2f81b723ceafa3f02befd2",
            "0x0000000000000000000000003e26f2e91b25ff5a9f9c54772ff616b1ea7c9e4f",
            "0x000000000000000000000000da96ef73bd5422c46c12c19d45011a1daf3cb61c"
          ],
          "data": "0x0000000000000000000000000000000000000000000000000000000000000bb8000000000000000000000000000000000000000000000000000000000000003c0000000000000000000000000df2530352d4755f1a16a3282a8763e454668ac000000000000000000000000000000000000000010000000000000000000000000000000000000000000000000000000000000000000000000000000000000000",
          "blockHash": "0xf15ce937437926eab2c49ab4a3daaac0bac24628d12b2ea47bec3dc627f7dece",
          "blockNumber": "0x8c7901",
          "blockTimestamp": "0x68c78730",
          "transactionHash": "0x5795e555fa771020b08bfed4a305116b8bebc9618052569b57c5e929313c08cc",
          "transactionIndex": "0x94",
          "logIndex": "0x75",
          "removed": false
        },
        {
          "address": "0x429ba70129df741b2ca2a85bc3a2a3328e5c09b4",
          "topics": [
            "0xddf252ad1be2c89b69c2b068fc378daa952ba7f163c4a11628f55a4df523b3ef",
            "0x0000000000000000000000000000000000000000000000000000000000000000",
            "0x0000000000000000000000003e723f6b81431f325e3f08e75544f254c182afe2",
            "0x0000000000000000000000000000000000000000000000000000000000004268"
          ],
          "data": "0x",
          "blockHash": "0xf15ce937437926eab2c49ab4a3daaac0bac24628d12b2ea47bec3dc627f7dece",
          "blockNumber": "0x8c7901",
          "blockTimestamp": "0x68c78730",
          "transactionHash": "0x5795e555fa771020b08bfed4a305116b8bebc9618052569b57c5e929313c08cc",
          "transactionIndex": "0x94",
          "logIndex": "0x76",
          "removed": false
        },
        {
          "address": "0xe03a1074c86cfedd5c142c4f04f1a1536e203543",
          "topics": [
            "0xf208f4912782fd25c7f114ca3723a2d5dd6f3bcc3ac8db5af63baa85f711d5ec",
            "0x052eba5a9264e7867f43cd167f3302969e262a458a2f81b723ceafa3f02befd2",
            "0x000000000000000000000000429ba70129df741b2ca2a85bc3a2a3328e5c09b4"
          ],
          "data": "0xffffffffffffffffffffffffffffffffffffffffffffffffffffffffffff5038000000000000000000000000000000000000000000000000000000000000afc80000000000000000000000000000000000000000000000000000000006a9ad120000000000000000000000000000000000000000000000000000000000004268",
          "blockHash": "0xf15ce937437926eab2c49ab4a3daaac0bac24628d12b2ea47bec3dc627f7dece",
          "blockNumber": "0x8c7901",
          "blockTimestamp": "0x68c78730",
          "transactionHash": "0x5795e555fa771020b08bfed4a305116b8bebc9618052569b57c5e929313c08cc",
          "transactionIndex": "0x94",
          "logIndex": "0x77",
          "removed": false
        },
        {
          "address": "0x3e26f2e91b25ff5a9f9c54772ff616b1ea7c9e4f",
          "topics": [
            "0xddf252ad1be2c89b69c2b068fc378daa952ba7f163c4a11628f55a4df523b3ef",
            "0x0000000000000000000000003e723f6b81431f325e3f08e75544f254c182afe2",
            "0x000000000000000000000000e03a1074c86cfedd5c142c4f04f1a1536e203543"
          ],
          "data": "0x0000000000000000000000000000000000000000000000000000000005f5e100",
          "blockHash": "0xf15ce937437926eab2c49ab4a3daaac0bac24628d12b2ea47bec3dc627f7dece",
          "blockNumber": "0x8c7901",
          "blockTimestamp": "0x68c78730",
          "transactionHash": "0x5795e555fa771020b08bfed4a305116b8bebc9618052569b57c5e929313c08cc",
          "transactionIndex": "0x94",
          "logIndex": "0x78",
          "removed": false
        },
        {
          "address": "0xda96ef73bd5422c46c12c19d45011a1daf3cb61c",
          "topics": [
            "0xddf252ad1be2c89b69c2b068fc378daa952ba7f163c4a11628f55a4df523b3ef",
            "0x0000000000000000000000003e723f6b81431f325e3f08e75544f254c182afe2",
            "0x000000000000000000000000e03a1074c86cfedd5c142c4f04f1a1536e203543"
          ],
          "data": "0x0000000000000000000000000000000000000000000000000000000005f5e100",
          "blockHash": "0xf15ce937437926eab2c49ab4a3daaac0bac24628d12b2ea47bec3dc627f7dece",
          "blockNumber": "0x8c7901",
          "blockTimestamp": "0x68c78730",
          "transactionHash": "0x5795e555fa771020b08bfed4a305116b8bebc9618052569b57c5e929313c08cc",
          "transactionIndex": "0x94",
          "logIndex": "0x79",
          "removed": false
        }
      ],
      "logsBloom": "0x000000000000000000000010000000000000000000000000000000000800000000000000000000400800000002000000000001000800000000000041000000000000000000000000000000080000000000000000000100000000001200000008000000000200000000000000800008000000000000001000000008100000000200000000010000080000100000000000000000010000000000000000003000000000040000100000800000000000000000000000804010000000100000a0000000000002000000000000000000000000000000000000000000003000000021001000000000000000000000000000000004000000000000000400000000400000",
      "type": "0x2",
      "transactionHash": "0x5795e555fa771020b08bfed4a305116b8bebc9618052569b57c5e929313c08cc",
      "transactionIndex": "0x94",
      "blockHash": "0xf15ce937437926eab2c49ab4a3daaac0bac24628d12b2ea47bec3dc627f7dece",
      "blockNumber": "0x8c7901",
      "gasUsed": "0x722c3",
      "effectiveGasPrice": "0xfc1b7",
      "from": "0x3e723f6b81431f325e3f08e75544f254c182afe2",
      "to": "0x429ba70129df741b2ca2a85bc3a2a3328e5c09b4",
      "contractAddress": null
    }
  ],
  "libraries": [],
  "pending": [],
  "returns": {},
  "timestamp": 1757906737829,
  "chain": 11155111,
  "commit": "1061392"
}