{
  "transactions": [
    {
      "hash": "0x5e3bb224d1e8967bd44283e74df6be825770f67830390d5945b41a91ae29b8bc",
      "transactionType": "CALL",
      "contractName": null,
      "contractAddress": "0xe7220c5021cd3a6f5d25c69d50e071ad023ec29f",
      "function": "approve(address,uint256)",
      "arguments": [
        "0x000000000022D473030F116dDEE9F6B43aC78BA3",
        "115792089237316195423570985008687907853269984665640564039457584007913129639935"
      ],
      "transaction": {
        "from": "0x3e723f6b81431f325e3f08e75544f254c182afe2",
        "to": "0xe7220c5021cd3a6f5d25c69d50e071ad023ec29f",
        "gas": "0xfe8e",
        "value": "0x0",
        "input": "0x095ea7b3000000000000000000000000000000000022d473030f116ddee9f6b43ac78ba3ffffffffffffffffffffffffffffffffffffffffffffffffffffffffffffffff",
        "nonce": "0x5a",
        "chainId": "0xaa36a7"
      },
      "additionalContracts": [],
      "isFixedGasLimit": false
    },
    {
      "hash": "0x2264098ef98e12da23b960c03e0ab45f9c927c41d6bb70ddbd088cd82118a8e1",
      "transactionType": "CALL",
      "contractName": null,
      "contractAddress": "0x000000000022d473030f116ddee9f6b43ac78ba3",
      "function": "approve(address,address,uint160,uint48)",
      "arguments": [
        "0xE7220C5021cd3a6F5D25c69D50E071aD023Ec29F",
        "0x429ba70129df741B2Ca2a85BC3A2a3328e5c09b4",
        "1461501637330902918203684832716283019655932542975",
        "281474976710655"
      ],
      "transaction": {
        "from": "0x3e723f6b81431f325e3f08e75544f254c182afe2",
        "to": "0x000000000022d473030f116ddee9f6b43ac78ba3",
        "gas": "0x1112d",
        "value": "0x0",
        "input": "0x87517c45000000000000000000000000e7220c5021cd3a6f5d25c69d50e071ad023ec29f000000000000000000000000429ba70129df741b2ca2a85bc3a2a3328e5c09b4000000000000000000000000ffffffffffffffffffffffffffffffffffffffff0000000000000000000000000000000000000000000000000000ffffffffffff",
        "nonce": "0x5b",
        "chainId": "0xaa36a7"
      },
      "additionalContracts": [],
      "isFixedGasLimit": false
    },
    {
      "hash": "0xd1bd8bc41f9b23c518718901d6cc87cc31929572c02b0c9f67f987a3be17636e",
      "transactionType": "CALL",
      "contractName": null,
      "contractAddress": "0x5f651eb3729f7c11de22af2dea7d45f18ce3fdfe",
      "function": "approve(address,uint256)",
      "arguments": [
        "0x000000000022D473030F116dDEE9F6B43aC78BA3",
        "115792089237316195423570985008687907853269984665640564039457584007913129639935"
      ],
      "transaction": {
        "from": "0x3e723f6b81431f325e3f08e75544f254c182afe2",
        "to": "0x5f651eb3729f7c11de22af2dea7d45f18ce3fdfe",
        "gas": "0xfe8e",
        "value": "0x0",
        "input": "0x095ea7b3000000000000000000000000000000000022d473030f116ddee9f6b43ac78ba3ffffffffffffffffffffffffffffffffffffffffffffffffffffffffffffffff",
        "nonce": "0x5c",
        "chainId": "0xaa36a7"
      },
      "additionalContracts": [],
      "isFixedGasLimit": false
    },
    {
      "hash": "0x8b796f574feb5b3a655db8cb025255cc78104e2d83a99506e4b897228014f0de",
      "transactionType": "CALL",
      "contractName": null,
      "contractAddress": "0x000000000022d473030f116ddee9f6b43ac78ba3",
      "function": "approve(address,address,uint160,uint48)",
      "arguments": [
        "0x5f651EB3729F7c11De22aF2dea7d45f18CE3fdfe",
        "0x429ba70129df741B2Ca2a85BC3A2a3328e5c09b4",
        "1461501637330902918203684832716283019655932542975",
        "281474976710655"
      ],
      "transaction": {
        "from": "0x3e723f6b81431f325e3f08e75544f254c182afe2",
        "to": "0x000000000022d473030f116ddee9f6b43ac78ba3",
        "gas": "0x1112d",
        "value": "0x0",
        "input": "0x87517c450000000000000000000000005f651eb3729f7c11de22af2dea7d45f18ce3fdfe000000000000000000000000429ba70129df741b2ca2a85bc3a2a3328e5c09b4000000000000000000000000ffffffffffffffffffffffffffffffffffffffff0000000000000000000000000000000000000000000000000000ffffffffffff",
        "nonce": "0x5d",
        "chainId": "0xaa36a7"
      },
      "additionalContracts": [],
      "isFixedGasLimit": false
    },
    {
      "hash": "0x4fd8908ff113557fbbbc5ab8bf0c9a578837ed4c5eedaeebe3c6570345a6deea",
      "transactionType": "CALL",
      "contractName": null,
      "contractAddress": "0x429ba70129df741b2ca2a85bc3a2a3328e5c09b4",
      "function": "multicall(bytes[])",
      "arguments": [
        "[0xf70204050000000000000000000000005f651eb3729f7c11de22af2dea7d45f18ce3fdfe000000000000000000000000e7220c5021cd3a6f5d25c69d50e071ad023ec29f0000000000000000000000000000000000000000000000000000000000000bb8000000000000000000000000000000000000000000000000000000000000003c000000000000000000000000768439a1a192be391249e57238911d3010a2cac0000000000000000000000000000000000000000100000000000000000000000000000000000000000000000000000000000000000000000000000000000000e00000000000000000000000000000000000000000000000000000000000000000, 0xdd46508f00000000000000000000000000000000000000000000000000000000000000400000000000000000000000000000000000000000000000000000000068c11cec0000000000000000000000000000000000000000000000000000000000000400000000000000000000000000000000000000000000000000000000000000004000000000000000000000000000000000000000000000000000000000000000800000000000000000000000000000000000000000000000000000000000000004020d14140000000000000000000000000000000000000000000000000000000000000000000000000000000000000000000000000000000000000000000000040000000000000000000000000000000000000000000000000000000000000080000000000000000000000000000000000000000000000000000000000000024000000000000000000000000000000000000000000000000000000000000002a0000000000000000000000000000000000000000000000000000000000000030000000000000000000000000000000000000000000000000000000000000001a00000000000000000000000005f651eb3729f7c11de22af2dea7d45f18ce3fdfe000000000000000000000000e7220c5021cd3a6f5d25c69d50e071ad023ec29f0000000000000000000000000000000000000000000000000000000000000bb8000000000000000000000000000000000000000000000000000000000000003c000000000000000000000000768439a1a192be391249e57238911d3010a2cac0ffffffffffffffffffffffffffffffffffffffffffffffffffffffffffff5038000000000000000000000000000000000000000000000000000000000000afc80000000000000000000000000000000000000000000000000000000006a9ad120000000000000000000000000000000000000000000000056bc75e2d631000010000000000000000000000000000000000000000000000000000000005f5e1010000000000000000000000003e723f6b81431f325e3f08e75544f254c182afe20000000000000000000000000000000000000000000000000000000000000180000000000000000000000000000000000000000000000000000000000000000000000000000000000000000000000000000000000000000000000000000000400000000000000000000000005f651eb3729f7c11de22af2dea7d45f18ce3fdfe000000000000000000000000e7220c5021cd3a6f5d25c69d50e071ad023ec29f00000000000000000000000000000000000000000000000000000000000000400000000000000000000000005f651eb3729f7c11de22af2dea7d45f18ce3fdfe0000000000000000000000003e723f6b81431f325e3f08e75544f254c182afe20000000000000000000000000000000000000000000000000000000000000040000000000000000000000000e7220c5021cd3a6f5d25c69d50e071ad023ec29f0000000000000000000000003e723f6b81431f325e3f08e75544f254c182afe2]"
      ],
      "transaction": {
        "from": "0x3e723f6b81431f325e3f08e75544f254c182afe2",
        "to": "0x429ba70129df741b2ca2a85bc3a2a3328e5c09b4",
        "gas": "0xaf000",
        "value": "0x0",
        "input": "0xac9650d800000000000000000000000000000000000000000000000000000000000000200000000000000000000000000000000000000000000000000000000000000002000000000000000000000000000000000000000000000000000000000000004000000000000000000000000000000000000000000000000000000000000001800000000000000000000000000000000000000000000000000000000000000104f70204050000000000000000000000005f651eb3729f7c11de22af2dea7d45f18ce3fdfe000000000000000000000000e7220c5021cd3a6f5d25c69d50e071ad023ec29f0000000000000000000000000000000000000000000000000000000000000bb8000000000000000000000000000000000000000000000000000000000000003c000000000000000000000000768439a1a192be391249e57238911d3010a2cac0000000000000000000000000000000000000000100000000000000000000000000000000000000000000000000000000000000000000000000000000000000e00000000000000000000000000000000000000000000000000000000000000000000000000000000000000000000000000000000000000000000000000000000000000000000000000000000000000000000000000000000000000464dd46508f00000000000000000000000000000000000000000000000000000000000000400000000000000000000000000000000000000000000000000000000068c11cec0000000000000000000000000000000000000000000000000000000000000400000000000000000000000000000000000000000000000000000000000000004000000000000000000000000000000000000000000000000000000000000000800000000000000000000000000000000000000000000000000000000000000004020d14140000000000000000000000000000000000000000000000000000000000000000000000000000000000000000000000000000000000000000000000040000000000000000000000000000000000000000000000000000000000000080000000000000000000000000000000000000000000000000000000000000024000000000000000000000000000000000000000000000000000000000000002a0000000000000000000000000000000000000000000000000000000000000030000000000000000000000000000000000000000000000000000000000000001a00000000000000000000000005f651eb3729f7c11de22af2dea7d45f18ce3fdfe000000000000000000000000e7220c5021cd3a6f5d25c69d50e071ad023ec29f0000000000000000000000000000000000000000000000000000000000000bb8000000000000000000000000000000000000000000000000000000000000003c000000000000000000000000768439a1a192be391249e57238911d3010a2cac0ffffffffffffffffffffffffffffffffffffffffffffffffffffffffffff5038000000000000000000000000000000000000000000000000000000000000afc80000000000000000000000000000000000000000000000000000000006a9ad120000000000000000000000000000000000000000000000056bc75e2d631000010000000000000000000000000000000000000000000000000000000005f5e1010000000000000000000000003e723f6b81431f325e3f08e75544f254c182afe20000000000000000000000000000000000000000000000000000000000000180000000000000000000000000000000000000000000000000000000000000000000000000000000000000000000000000000000000000000000000000000000400000000000000000000000005f651eb3729f7c11de22af2dea7d45f18ce3fdfe000000000000000000000000e7220c5021cd3a6f5d25c69d50e071ad023ec29f00000000000000000000000000000000000000000000000000000000000000400000000000000000000000005f651eb3729f7c11de22af2dea7d45f18ce3fdfe0000000000000000000000003e723f6b81431f325e3f08e75544f254c182afe20000000000000000000000000000000000000000000000000000000000000040000000000000000000000000e7220c5021cd3a6f5d25c69d50e071ad023ec29f0000000000000000000000003e723f6b81431f325e3f08e75544f254c182afe200000000000000000000000000000000000000000000000000000000",
        "nonce": "0x5e",
        "chainId": "0xaa36a7"
      },
      "additionalContracts": [],
      "isFixedGasLimit": false
    }
  ],
  "receipts": [
    {
      "status": "0x1",
      "cumulativeGasUsed": "0x1328c36",
      "logs": [
        {
          "address": "0xe7220c5021cd3a6f5d25c69d50e071ad023ec29f",
          "topics": [
            "0x8c5be1e5ebec7d5bd14f71427d1e84f3dd0314c0f7b2291e5b200ac8c7c3b925",
            "0x0000000000000000000000003e723f6b81431f325e3f08e75544f254c182afe2",
            "0x000000000000000000000000000000000022d473030f116ddee9f6b43ac78ba3"
          ],
          "data": "0xffffffffffffffffffffffffffffffffffffffffffffffffffffffffffffffff",
          "blockHash": "0x1ade86eb68a3a134019466724c9e314f186918263a68cb14953444627ab376ee",
          "blockNumber": "0x8bf4b8",
          "blockTimestamp": "0x68c10f00",
          "transactionHash": "0x5e3bb224d1e8967bd44283e74df6be825770f67830390d5945b41a91ae29b8bc",
          "transactionIndex": "0x55",
          "logIndex": "0xec",
          "removed": false
        }
      ],
      "logsBloom": "0x00000000000000000000000000000000000000000000000000000000000000000000000000000000000000000000000000000000880000000000000000200000000000000000000000004000000000000000000000000800000000000000000000000000000000000000000000000000000000000000000000000000000000000000000000000000020000000000000000000000000000000000000000400000020000000000000080000000000000000000000000000000000010100000000000000000000000000000000000000000000000000000000000000000000000000010000000000000000000000000000000000000000000000000000000000000",
      "type": "0x2",
      "transactionHash": "0x5e3bb224d1e8967bd44283e74df6be825770f67830390d5945b41a91ae29b8bc",
      "transactionIndex": "0x55",
      "blockHash": "0x1ade86eb68a3a134019466724c9e314f186918263a68cb14953444627ab376ee",
      "blockNumber": "0x8bf4b8",
      "gasUsed": "0xb84c",
      "effectiveGasPrice": "0x1037cf",
      "from": "0x3e723f6b81431f325e3f08e75544f254c182afe2",
      "to": "0xe7220c5021cd3a6f5d25c69d50e071ad023ec29f",
      "contractAddress": null
    },
    {
      "status": "0x1",
      "cumulativeGasUsed": "0x1334700",
      "logs": [
        {
          "address": "0x000000000022d473030f116ddee9f6b43ac78ba3",
          "topics": [
            "0xda9fa7c1b00402c17d0161b249b1ab8bbec047c5a52207b9c112deffd817036b",
            "0x0000000000000000000000003e723f6b81431f325e3f08e75544f254c182afe2",
            "0x000000000000000000000000e7220c5021cd3a6f5d25c69d50e071ad023ec29f",
            "0x000000000000000000000000429ba70129df741b2ca2a85bc3a2a3328e5c09b4"
          ],
          "data": "0x000000000000000000000000ffffffffffffffffffffffffffffffffffffffff0000000000000000000000000000000000000000000000000000ffffffffffff",
          "blockHash": "0x1ade86eb68a3a134019466724c9e314f186918263a68cb14953444627ab376ee",
          "blockNumber": "0x8bf4b8",
          "blockTimestamp": "0x68c10f00",
          "transactionHash": "0x2264098ef98e12da23b960c03e0ab45f9c927c41d6bb70ddbd088cd82118a8e1",
          "transactionIndex": "0x56",
          "logIndex": "0xed",
          "removed": false
        }
      ],
      "logsBloom": "0x00010000000000000000000000000000000000000000000000000000000000000000000000080040080000000000004000000000080000000000000000080000000000000000000000004000000000000000000000000000000000000000000000000000000000000000000000000000000000000000000000000800000000000020000000000000000000000000000000000000000000000000000000000000000000000000000080000000000000000000000000000000000010080000000000000000000000000000000000000000000000000000000040000000000000000000000000000000000000000000000000000000000000000000000000000400",
      "type": "0x2",
      "transactionHash": "0x2264098ef98e12da23b960c03e0ab45f9c927c41d6bb70ddbd088cd82118a8e1",
      "transactionIndex": "0x56",
      "blockHash": "0x1ade86eb68a3a134019466724c9e314f186918263a68cb14953444627ab376ee",
      "blockNumber": "0x8bf4b8",
      "gasUsed": "0xbaca",
      "effectiveGasPrice": "0x1037cf",
      "from": "0x3e723f6b81431f325e3f08e75544f254c182afe2",
      "to": "0x000000000022d473030f116ddee9f6b43ac78ba3",
      "contractAddress": null
    },
    {
      "status": "0x1",
      "cumulativeGasUsed": "0x133ff4c",
      "logs": [
        {
          "address": "0x5f651eb3729f7c11de22af2dea7d45f18ce3fdfe",
          "topics": [
            "0x8c5be1e5ebec7d5bd14f71427d1e84f3dd0314c0f7b2291e5b200ac8c7c3b925",
            "0x0000000000000000000000003e723f6b81431f325e3f08e75544f254c182afe2",
            "0x000000000000000000000000000000000022d473030f116ddee9f6b43ac78ba3"
          ],
          "data": "0xffffffffffffffffffffffffffffffffffffffffffffffffffffffffffffffff",
          "blockHash": "0x1ade86eb68a3a134019466724c9e314f186918263a68cb14953444627ab376ee",
          "blockNumber": "0x8bf4b8",
          "blockTimestamp": "0x68c10f00",
          "transactionHash": "0xd1bd8bc41f9b23c518718901d6cc87cc31929572c02b0c9f67f987a3be17636e",
          "transactionIndex": "0x57",
          "logIndex": "0xee",
          "removed": false
        }
      ],
      "logsBloom": "0x00000000000000000000000000000000000000000000000000000000000000080000000000000000000000000000000000000000880000000000000000200000000000000000000000004000000000000000000000000800000000000000000000000000000000000000000000000000000000000000000000000000400000000000000000000000000000000000000000000000000000000000000000000000020000000000000080000000000000000000000000000000000010000000000000000000000000000000000000000000000000000000000000000000000000000010000000000400000000000000000000000000000000000000000000000000",
      "type": "0x2",
      "transactionHash": "0xd1bd8bc41f9b23c518718901d6cc87cc31929572c02b0c9f67f987a3be17636e",
      "transactionIndex": "0x57",
      "blockHash": "0x1ade86eb68a3a134019466724c9e314f186918263a68cb14953444627ab376ee",
      "blockNumber": "0x8bf4b8",
      "gasUsed": "0xb84c",
      "effectiveGasPrice": "0x1037cf",
      "from": "0x3e723f6b81431f325e3f08e75544f254c182afe2",
      "to": "0x5f651eb3729f7c11de22af2dea7d45f18ce3fdfe",
      "contractAddress": null
    },
    {
      "status": "0x1",
      "cumulativeGasUsed": "0x134ba16",
      "logs": [
        {
          "address": "0x000000000022d473030f116ddee9f6b43ac78ba3",
          "topics": [
            "0xda9fa7c1b00402c17d0161b249b1ab8bbec047c5a52207b9c112deffd817036b",
            "0x0000000000000000000000003e723f6b81431f325e3f08e75544f254c182afe2",
            "0x0000000000000000000000005f651eb3729f7c11de22af2dea7d45f18ce3fdfe",
            "0x000000000000000000000000429ba70129df741b2ca2a85bc3a2a3328e5c09b4"
          ],
          "data": "0x000000000000000000000000ffffffffffffffffffffffffffffffffffffffff0000000000000000000000000000000000000000000000000000ffffffffffff",
          "blockHash": "0x1ade86eb68a3a134019466724c9e314f186918263a68cb14953444627ab376ee",
          "blockNumber": "0x8bf4b8",
          "blockTimestamp": "0x68c10f00",
          "transactionHash": "0x8b796f574feb5b3a655db8cb025255cc78104e2d83a99506e4b897228014f0de",
          "transactionIndex": "0x58",
          "logIndex": "0xef",
          "removed": false
        }
      ],
      "logsBloom": "0x00010000000000000000000000000000000000000000000000000010000000000000000000000040080000000000000000000000080004000000000000080000000000000000000000000000000000000000000000000000000000000000000000000000000000000000000000000000000020000000000000000800000000000020000000000000000000000000000000000000000000000000000000000000000000000000000080000000000000000000000000000000000010080000000000000000000000000000000000000000000000000000000040000000000000000000000000000000000000000000000000000000000000000000000000000400",
      "type": "0x2",
      "transactionHash": "0x8b796f574feb5b3a655db8cb025255cc78104e2d83a99506e4b897228014f0de",
      "transactionIndex": "0x58",
      "blockHash": "0x1ade86eb68a3a134019466724c9e314f186918263a68cb14953444627ab376ee",
      "blockNumber": "0x8bf4b8",
      "gasUsed": "0xbaca",
      "effectiveGasPrice": "0x1037cf",
      "from": "0x3e723f6b81431f325e3f08e75544f254c182afe2",
      "to": "0x000000000022d473030f116ddee9f6b43ac78ba3",
      "contractAddress": null
    },
    {
      "status": "0x1",
      "cumulativeGasUsed": "0x13ca53d",
      "logs": [
        {
          "address": "0xe03a1074c86cfedd5c142c4f04f1a1536e203543",
          "topics": [
            "0xdd466e674ea557f56295e2d0218a125ea4b4f0f6f3307b95f85e6110838d6438",
            "0xfa64f57654b119a9b4009696df843620b2ee08e5b627eea21d992af3b8ccc9fe",
            "0x0000000000000000000000005f651eb3729f7c11de22af2dea7d45f18ce3fdfe",
            "0x000000000000000000000000e7220c5021cd3a6f5d25c69d50e071ad023ec29f"
          ],
          "data": "0x0000000000000000000000000000000000000000000000000000000000000bb8000000000000000000000000000000000000000000000000000000000000003c000000000000000000000000768439a1a192be391249e57238911d3010a2cac000000000000000000000000000000000000000010000000000000000000000000000000000000000000000000000000000000000000000000000000000000000",
          "blockHash": "0x1ade86eb68a3a134019466724c9e314f186918263a68cb14953444627ab376ee",
          "blockNumber": "0x8bf4b8",
          "blockTimestamp": "0x68c10f00",
          "transactionHash": "0x4fd8908ff113557fbbbc5ab8bf0c9a578837ed4c5eedaeebe3c6570345a6deea",
          "transactionIndex": "0x59",
          "logIndex": "0xf0",
          "removed": false
        },
        {
          "address": "0x429ba70129df741b2ca2a85bc3a2a3328e5c09b4",
          "topics": [
            "0xddf252ad1be2c89b69c2b068fc378daa952ba7f163c4a11628f55a4df523b3ef",
            "0x0000000000000000000000000000000000000000000000000000000000000000",
            "0x0000000000000000000000003e723f6b81431f325e3f08e75544f254c182afe2",
            "0x0000000000000000000000000000000000000000000000000000000000004142"
          ],
          "data": "0x",
          "blockHash": "0x1ade86eb68a3a134019466724c9e314f186918263a68cb14953444627ab376ee",
          "blockNumber": "0x8bf4b8",
          "blockTimestamp": "0x68c10f00",
          "transactionHash": "0x4fd8908ff113557fbbbc5ab8bf0c9a578837ed4c5eedaeebe3c6570345a6deea",
          "transactionIndex": "0x59",
          "logIndex": "0xf1",
          "removed": false
        },
        {
          "address": "0xe03a1074c86cfedd5c142c4f04f1a1536e203543",
          "topics": [
            "0xf208f4912782fd25c7f114ca3723a2d5dd6f3bcc3ac8db5af63baa85f711d5ec",
            "0xfa64f57654b119a9b4009696df843620b2ee08e5b627eea21d992af3b8ccc9fe",
            "0x000000000000000000000000429ba70129df741b2ca2a85bc3a2a3328e5c09b4"
          ],
          "data": "0xffffffffffffffffffffffffffffffffffffffffffffffffffffffffffff5038000000000000000000000000000000000000000000000000000000000000afc80000000000000000000000000000000000000000000000000000000006a9ad120000000000000000000000000000000000000000000000000000000000004142",
          "blockHash": "0x1ade86eb68a3a134019466724c9e314f186918263a68cb14953444627ab376ee",
          "blockNumber": "0x8bf4b8",
          "blockTimestamp": "0x68c10f00",
          "transactionHash": "0x4fd8908ff113557fbbbc5ab8bf0c9a578837ed4c5eedaeebe3c6570345a6deea",
          "transactionIndex": "0x59",
          "logIndex": "0xf2",
          "removed": false
        },
        {
          "address": "0x5f651eb3729f7c11de22af2dea7d45f18ce3fdfe",
          "topics": [
            "0xddf252ad1be2c89b69c2b068fc378daa952ba7f163c4a11628f55a4df523b3ef",
            "0x0000000000000000000000003e723f6b81431f325e3f08e75544f254c182afe2",
            "0x000000000000000000000000e03a1074c86cfedd5c142c4f04f1a1536e203543"
          ],
          "data": "0x0000000000000000000000000000000000000000000000000000000005f5e100",
          "blockHash": "0x1ade86eb68a3a134019466724c9e314f186918263a68cb14953444627ab376ee",
          "blockNumber": "0x8bf4b8",
          "blockTimestamp": "0x68c10f00",
          "transactionHash": "0x4fd8908ff113557fbbbc5ab8bf0c9a578837ed4c5eedaeebe3c6570345a6deea",
          "transactionIndex": "0x59",
          "logIndex": "0xf3",
          "removed": false
        },
        {
          "address": "0xe7220c5021cd3a6f5d25c69d50e071ad023ec29f",
          "topics": [
            "0xddf252ad1be2c89b69c2b068fc378daa952ba7f163c4a11628f55a4df523b3ef",
            "0x0000000000000000000000003e723f6b81431f325e3f08e75544f254c182afe2",
            "0x000000000000000000000000e03a1074c86cfedd5c142c4f04f1a1536e203543"
          ],
          "data": "0x0000000000000000000000000000000000000000000000000000000005f5e100",
          "blockHash": "0x1ade86eb68a3a134019466724c9e314f186918263a68cb14953444627ab376ee",
          "blockNumber": "0x8bf4b8",
          "blockTimestamp": "0x68c10f00",
          "transactionHash": "0x4fd8908ff113557fbbbc5ab8bf0c9a578837ed4c5eedaeebe3c6570345a6deea",
          "transactionIndex": "0x59",
          "logIndex": "0xf4",
          "removed": false
        }
      ],
      "logsBloom": "0x00000000000000000000001000000000000000000000000000000010080000080000000000080040080000000000004000000100080004000000000000000000000000000000000000004008002000000000000000000000000000000000000000000000020000000000000080000800000020000000100000000810400000000000000001000008020010000000000000000001000000000000000000608000000004000000000080020800000000000000000000400000000010100000000000000202000000000000000000000000000000000000000000001040000020001000000000000400000000000000000004000000000000000000000000000000",
      "type": "0x2",
      "transactionHash": "0x4fd8908ff113557fbbbc5ab8bf0c9a578837ed4c5eedaeebe3c6570345a6deea",
      "transactionIndex": "0x59",
      "blockHash": "0x1ade86eb68a3a134019466724c9e314f186918263a68cb14953444627ab376ee",
      "blockNumber": "0x8bf4b8",
      "gasUsed": "0x7eb27",
      "effectiveGasPrice": "0x1037cf",
      "from": "0x3e723f6b81431f325e3f08e75544f254c182afe2",
      "to": "0x429ba70129df741b2ca2a85bc3a2a3328e5c09b4",
      "contractAddress": null
    }
  ],
  "libraries": [],
  "pending": [],
  "returns": {},
  "timestamp": 1757482753364,
  "chain": 11155111,
  "commit": "dbdb4ee"
}