{
  "transactions": [
    {
      "hash": "0xe2aa057fbcb5d645c2534a7e06b5c55447acc91d656f2edda00b369f0d1a9b3b",
      "transactionType": "CALL",
      "contractName": null,
      "contractAddress": "0x9bde75a5a0723038cfe4528bd0e346056bae750b",
      "function": "approve(address,uint256)",
      "arguments": [
        "0x429ba70129df741B2Ca2a85BC3A2a3328e5c09b4",
        "115792089237316195423570985008687907853269984665640564039457584007913129639935"
      ],
      "transaction": {
        "from": "0x3e723f6b81431f325e3f08e75544f254c182afe2",
        "to": "0x9bde75a5a0723038cfe4528bd0e346056bae750b",
        "gas": "0x96a4",
        "value": "0x0",
        "input": "0x095ea7b3000000000000000000000000429ba70129df741b2ca2a85bc3a2a3328e5c09b4ffffffffffffffffffffffffffffffffffffffffffffffffffffffffffffffff",
        "nonce": "0x5a6",
        "chainId": "0xaa36a7"
      },
      "additionalContracts": [],
      "isFixedGasLimit": false
    },
    {
      "hash": "0xa1e31f42f985b7d3f5805614315cfde8337525e93ac0118cdc2c1110e0d8205d",
      "transactionType": "CALL",
      "contractName": null,
      "contractAddress": "0x1ada2feb7b799d2fcb985441665649d29ae7f838",
      "function": "approve(address,uint256)",
      "arguments": [
        "0x429ba70129df741B2Ca2a85BC3A2a3328e5c09b4",
        "115792089237316195423570985008687907853269984665640564039457584007913129639935"
      ],
      "transaction": {
        "from": "0x3e723f6b81431f325e3f08e75544f254c182afe2",
        "to": "0x1ada2feb7b799d2fcb985441665649d29ae7f838",
        "gas": "0x96a4",
        "value": "0x0",
        "input": "0x095ea7b3000000000000000000000000429ba70129df741b2ca2a85bc3a2a3328e5c09b4ffffffffffffffffffffffffffffffffffffffffffffffffffffffffffffffff",
        "nonce": "0x5a7",
        "chainId": "0xaa36a7"
      },
      "additionalContracts": [],
      "isFixedGasLimit": false
    },
    {
      "hash": "0xfcc35e4eb57742941716ba8ee54ecceb022f7e0ab2d7202e653bc8a45b7d078c",
      "transactionType": "CALL",
      "contractName": null,
      "contractAddress": "0x9bde75a5a0723038cfe4528bd0e346056bae750b",
      "function": "approve(address,uint256)",
      "arguments": [
        "0x000000000022D473030F116dDEE9F6B43aC78BA3",
        "115792089237316195423570985008687907853269984665640564039457584007913129639935"
      ],
      "transaction": {
        "from": "0x3e723f6b81431f325e3f08e75544f254c182afe2",
        "to": "0x9bde75a5a0723038cfe4528bd0e346056bae750b",
        "gas": "0x8df2",
        "value": "0x0",
        "input": "0x095ea7b3000000000000000000000000000000000022d473030f116ddee9f6b43ac78ba3ffffffffffffffffffffffffffffffffffffffffffffffffffffffffffffffff",
        "nonce": "0x5a8",
        "chainId": "0xaa36a7"
      },
      "additionalContracts": [],
      "isFixedGasLimit": false
    },
    {
      "hash": "0x4d809345d1dd3453e3894ca6928078658f0dc499819591fe20131bd3b2c2c790",
      "transactionType": "CALL",
      "contractName": null,
      "contractAddress": "0x000000000022d473030f116ddee9f6b43ac78ba3",
      "function": "approve(address,address,uint160,uint48)",
      "arguments": [
        "0x9BDe75a5A0723038cfe4528BD0e346056bae750B",
        "0x429ba70129df741B2Ca2a85BC3A2a3328e5c09b4",
        "1461501637330902918203684832716283019655932542975",
        "281474976710655"
      ],
      "transaction": {
        "from": "0x3e723f6b81431f325e3f08e75544f254c182afe2",
        "to": "0x000000000022d473030f116ddee9f6b43ac78ba3",
        "gas": "0x96a0",
        "value": "0x0",
        "input": "0x87517c450000000000000000000000009bde75a5a0723038cfe4528bd0e346056bae750b000000000000000000000000429ba70129df741b2ca2a85bc3a2a3328e5c09b4000000000000000000000000ffffffffffffffffffffffffffffffffffffffff0000000000000000000000000000000000000000000000000000ffffffffffff",
        "nonce": "0x5a9",
        "chainId": "0xaa36a7"
      },
      "additionalContracts": [],
      "isFixedGasLimit": false
    },
    {
      "hash": "0x27ec666799c4b647519d546d6724b800e21fe9be9da51be4cd82688d6b6c7284",
      "transactionType": "CALL",
      "contractName": null,
      "contractAddress": "0x1ada2feb7b799d2fcb985441665649d29ae7f838",
      "function": "approve(address,uint256)",
      "arguments": [
        "0x000000000022D473030F116dDEE9F6B43aC78BA3",
        "115792089237316195423570985008687907853269984665640564039457584007913129639935"
      ],
      "transaction": {
        "from": "0x3e723f6b81431f325e3f08e75544f254c182afe2",
        "to": "0x1ada2feb7b799d2fcb985441665649d29ae7f838",
        "gas": "0x8df2",
        "value": "0x0",
        "input": "0x095ea7b3000000000000000000000000000000000022d473030f116ddee9f6b43ac78ba3ffffffffffffffffffffffffffffffffffffffffffffffffffffffffffffffff",
        "nonce": "0x5aa",
        "chainId": "0xaa36a7"
      },
      "additionalContracts": [],
      "isFixedGasLimit": false
    },
    {
      "hash": "0x989e44c395808f00dc22ce194d67100e67f1e9c56465a24b138e75eb80bed0a8",
      "transactionType": "CALL",
      "contractName": null,
      "contractAddress": "0x000000000022d473030f116ddee9f6b43ac78ba3",
      "function": "approve(address,address,uint160,uint48)",
      "arguments": [
        "0x1ada2FEB7b799D2fcb985441665649D29aE7f838",
        "0x429ba70129df741B2Ca2a85BC3A2a3328e5c09b4",
        "1461501637330902918203684832716283019655932542975",
        "281474976710655"
      ],
      "transaction": {
        "from": "0x3e723f6b81431f325e3f08e75544f254c182afe2",
        "to": "0x000000000022d473030f116ddee9f6b43ac78ba3",
        "gas": "0x96a0",
        "value": "0x0",
        "input": "0x87517c450000000000000000000000001ada2feb7b799d2fcb985441665649d29ae7f838000000000000000000000000429ba70129df741b2ca2a85bc3a2a3328e5c09b4000000000000000000000000ffffffffffffffffffffffffffffffffffffffff0000000000000000000000000000000000000000000000000000ffffffffffff",
        "nonce": "0x5ab",
        "chainId": "0xaa36a7"
      },
      "additionalContracts": [],
      "isFixedGasLimit": false
    },
    {
      "hash": "0x3d858100dadafa4f696c854aad574d807c2fae1079e01447b68f62633086a4fb",
      "transactionType": "CALL",
      "contractName": null,
      "contractAddress": "0x429ba70129df741b2ca2a85bc3a2a3328e5c09b4",
      "function": "multicall(bytes[])",
      "arguments": [
        "[0xdd46508f00000000000000000000000000000000000000000000000000000000000000400000000000000000000000000000000000000000000000000000000068cb82700000000000000000000000000000000000000000000000000000000000000400000000000000000000000000000000000000000000000000000000000000004000000000000000000000000000000000000000000000000000000000000000800000000000000000000000000000000000000000000000000000000000000004020d14140000000000000000000000000000000000000000000000000000000000000000000000000000000000000000000000000000000000000000000000040000000000000000000000000000000000000000000000000000000000000080000000000000000000000000000000000000000000000000000000000000024000000000000000000000000000000000000000000000000000000000000002a0000000000000000000000000000000000000000000000000000000000000030000000000000000000000000000000000000000000000000000000000000001a00000000000000000000000001ada2feb7b799d2fcb985441665649d29ae7f8380000000000000000000000009bde75a5a0723038cfe4528bd0e346056bae750b0000000000000000000000000000000000000000000000000000000000000bb8000000000000000000000000000000000000000000000000000000000000003c0000000000000000000000000000000000000000000000000000000000000000fffffffffffffffffffffffffffffffffffffffffffffffffffffffffffffda800000000000000000000000000000000000000000000000000000000000002580000000000000000000000000000000000000000000000b76ef6d7d1e8594b010000000000000000000000000000000000000000000000056bc75e2d631000010000000000000000000000000000000000000000000000056bc75e2d631000010000000000000000000000003e723f6b81431f325e3f08e75544f254c182afe20000000000000000000000000000000000000000000000000000000000000180000000000000000000000000000000000000000000000000000000000000000000000000000000000000000000000000000000000000000000000000000000400000000000000000000000001ada2feb7b799d2fcb985441665649d29ae7f8380000000000000000000000009bde75a5a0723038cfe4528bd0e346056bae750b00000000000000000000000000000000000000000000000000000000000000400000000000000000000000001ada2feb7b799d2fcb985441665649d29ae7f8380000000000000000000000003e723f6b81431f325e3f08e75544f254c182afe200000000000000000000000000000000000000000000000000000000000000400000000000000000000000009bde75a5a0723038cfe4528bd0e346056bae750b0000000000000000000000003e723f6b81431f325e3f08e75544f254c182afe2]"
      ],
      "transaction": {
        "from": "0x3e723f6b81431f325e3f08e75544f254c182afe2",
        "to": "0x429ba70129df741b2ca2a85bc3a2a3328e5c09b4",
        "gas": "0x8c49a",
        "value": "0x0",
        "input": "0xac9650d80000000000000000000000000000000000000000000000000000000000000020000000000000000000000000000000000000000000000000000000000000000100000000000000000000000000000000000000000000000000000000000000200000000000000000000000000000000000000000000000000000000000000464dd46508f00000000000000000000000000000000000000000000000000000000000000400000000000000000000000000000000000000000000000000000000068cb82700000000000000000000000000000000000000000000000000000000000000400000000000000000000000000000000000000000000000000000000000000004000000000000000000000000000000000000000000000000000000000000000800000000000000000000000000000000000000000000000000000000000000004020d14140000000000000000000000000000000000000000000000000000000000000000000000000000000000000000000000000000000000000000000000040000000000000000000000000000000000000000000000000000000000000080000000000000000000000000000000000000000000000000000000000000024000000000000000000000000000000000000000000000000000000000000002a0000000000000000000000000000000000000000000000000000000000000030000000000000000000000000000000000000000000000000000000000000001a00000000000000000000000001ada2feb7b799d2fcb985441665649d29ae7f8380000000000000000000000009bde75a5a0723038cfe4528bd0e346056bae750b0000000000000000000000000000000000000000000000000000000000000bb8000000000000000000000000000000000000000000000000000000000000003c0000000000000000000000000000000000000000000000000000000000000000fffffffffffffffffffffffffffffffffffffffffffffffffffffffffffffda800000000000000000000000000000000000000000000000000000000000002580000000000000000000000000000000000000000000000b76ef6d7d1e8594b010000000000000000000000000000000000000000000000056bc75e2d631000010000000000000000000000000000000000000000000000056bc75e2d631000010000000000000000000000003e723f6b81431f325e3f08e75544f254c182afe20000000000000000000000000000000000000000000000000000000000000180000000000000000000000000000000000000000000000000000000000000000000000000000000000000000000000000000000000000000000000000000000400000000000000000000000001ada2feb7b799d2fcb985441665649d29ae7f8380000000000000000000000009bde75a5a0723038cfe4528bd0e346056bae750b00000000000000000000000000000000000000000000000000000000000000400000000000000000000000001ada2feb7b799d2fcb985441665649d29ae7f8380000000000000000000000003e723f6b81431f325e3f08e75544f254c182afe200000000000000000000000000000000000000000000000000000000000000400000000000000000000000009bde75a5a0723038cfe4528bd0e346056bae750b0000000000000000000000003e723f6b81431f325e3f08e75544f254c182afe200000000000000000000000000000000000000000000000000000000",
        "nonce": "0x5ac",
        "chainId": "0xaa36a7"
      },
      "additionalContracts": [],
      "isFixedGasLimit": false
    }
  ],
  "receipts": [
    {
      "status": "0x1",
      "cumulativeGasUsed": "0x2de5b6b",
      "logs": [
        {
          "address": "0x9bde75a5a0723038cfe4528bd0e346056bae750b",
          "topics": [
            "0x8c5be1e5ebec7d5bd14f71427d1e84f3dd0314c0f7b2291e5b200ac8c7c3b925",
            "0x0000000000000000000000003e723f6b81431f325e3f08e75544f254c182afe2",
            "0x000000000000000000000000429ba70129df741b2ca2a85bc3a2a3328e5c09b4"
          ],
          "data": "0xffffffffffffffffffffffffffffffffffffffffffffffffffffffffffffffff",
          "blockHash": "0xd9acca1d27eef1e97eb7ceba7d294d39bb1dd6ff4a1ffae63338f2ffe11c9195",
          "blockNumber": "0x8cc7f7",
          "blockTimestamp": "0x68cb8264",
          "transactionHash": "0xe2aa057fbcb5d645c2534a7e06b5c55447acc91d656f2edda00b369f0d1a9b3b",
          "transactionIndex": "0xbe",
          "logIndex": "0x11e",
          "removed": false
        }
      ],
      "logsBloom": "0x00000000000000000000000000000000000000000000000000000000000000000000000000000040080000000000000000200000080000000000000000200000000000000000000000000000000000000080000000000000000000000000000000000000000000000000000000000000000000000000000000000800000000000000000000000000000000000000000002000000000000000000000000000000020000000000000080000000000000000000000000000000000010000000000000000000000000000000000000000000000000000000000000000000000000000010000000000000000000000000000000000000000000000000000000000000",
      "type": "0x2",
      "transactionHash": "0xe2aa057fbcb5d645c2534a7e06b5c55447acc91d656f2edda00b369f0d1a9b3b",
      "transactionIndex": "0xbe",
      "blockHash": "0xd9acca1d27eef1e97eb7ceba7d294d39bb1dd6ff4a1ffae63338f2ffe11c9195",
      "blockNumber": "0x8cc7f7",
      "gasUsed": "0x6701",
      "effectiveGasPrice": "0xf4266",
      "from": "0x3e723f6b81431f325e3f08e75544f254c182afe2",
      "to": "0x9bde75a5a0723038cfe4528bd0e346056bae750b",
      "contractAddress": null
    },
    {
      "status": "0x1",
      "cumulativeGasUsed": "0x2dec26c",
      "logs": [
        {
          "address": "0x1ada2feb7b799d2fcb985441665649d29ae7f838",
          "topics": [
            "0x8c5be1e5ebec7d5bd14f71427d1e84f3dd0314c0f7b2291e5b200ac8c7c3b925",
            "0x0000000000000000000000003e723f6b81431f325e3f08e75544f254c182afe2",
            "0x000000000000000000000000429ba70129df741b2ca2a85bc3a2a3328e5c09b4"
          ],
          "data": "0xffffffffffffffffffffffffffffffffffffffffffffffffffffffffffffffff",
          "blockHash": "0xd9acca1d27eef1e97eb7ceba7d294d39bb1dd6ff4a1ffae63338f2ffe11c9195",
          "blockNumber": "0x8cc7f7",
          "blockTimestamp": "0x68cb8264",
          "transactionHash": "0xa1e31f42f985b7d3f5805614315cfde8337525e93ac0118cdc2c1110e0d8205d",
          "transactionIndex": "0xbf",
          "logIndex": "0x11f",
          "removed": false
        }
      ],
      "logsBloom": "0x00040000000000000000000000000000000000000000000000000000800000000000000000000040080000000000000000000000080000000000000000200000000000000000000000000000000000000000000000000000000000000000000000000000000000000000000000000000000000000000000000000800000000000000000000000000000000000000000000000000000000000000000000000000020000000000000080000000000000000000000000000000000010000000000000000000000000000000000000000000000000000000000000000000000000000010000000000000000000000000000000000000000000000000000800000000",
      "type": "0x2",
      "transactionHash": "0xa1e31f42f985b7d3f5805614315cfde8337525e93ac0118cdc2c1110e0d8205d",
      "transactionIndex": "0xbf",
      "blockHash": "0xd9acca1d27eef1e97eb7ceba7d294d39bb1dd6ff4a1ffae63338f2ffe11c9195",
      "blockNumber": "0x8cc7f7",
      "gasUsed": "0x6701",
      "effectiveGasPrice": "0xf4266",
      "from": "0x3e723f6b81431f325e3f08e75544f254c182afe2",
      "to": "0x1ada2feb7b799d2fcb985441665649d29ae7f838",
      "contractAddress": null
    },
    {
      "status": "0x1",
      "cumulativeGasUsed": "0x2df2931",
      "logs": [
        {
          "address": "0x9bde75a5a0723038cfe4528bd0e346056bae750b",
          "topics": [
            "0x8c5be1e5ebec7d5bd14f71427d1e84f3dd0314c0f7b2291e5b200ac8c7c3b925",
            "0x0000000000000000000000003e723f6b81431f325e3f08e75544f254c182afe2",
            "0x000000000000000000000000000000000022d473030f116ddee9f6b43ac78ba3"
          ],
          "data": "0xffffffffffffffffffffffffffffffffffffffffffffffffffffffffffffffff",
          "blockHash": "0xd9acca1d27eef1e97eb7ceba7d294d39bb1dd6ff4a1ffae63338f2ffe11c9195",
          "blockNumber": "0x8cc7f7",
          "blockTimestamp": "0x68cb8264",
          "transactionHash": "0xfcc35e4eb57742941716ba8ee54ecceb022f7e0ab2d7202e653bc8a45b7d078c",
          "transactionIndex": "0xc0",
          "logIndex": "0x120",
          "removed": false
        }
      ],
      "logsBloom": "0x00000000000000000000000000000000000000000000000000000000000000000000000000000000000000000000000000200000880000000000000000200000000000000000000000004000000000000080000000000800000000000000000000000000000000000000000000000000000000000000000000000000000000000000000000000000000000000000000002000000000000000000000000000000020000000000000080000000000000000000000000000000000010000000000000000000000000000000000000000000000000000000000000000000000000000010000000000000000000000000000000000000000000000000000000000000",
      "type": "0x2",
      "transactionHash": "0xfcc35e4eb57742941716ba8ee54ecceb022f7e0ab2d7202e653bc8a45b7d078c",
      "transactionIndex": "0xc0",
      "blockHash": "0xd9acca1d27eef1e97eb7ceba7d294d39bb1dd6ff4a1ffae63338f2ffe11c9195",
      "blockNumber": "0x8cc7f7",
      "gasUsed": "0x66c5",
      "effectiveGasPrice": "0xf4266",
      "from": "0x3e723f6b81431f325e3f08e75544f254c182afe2",
      "to": "0x9bde75a5a0723038cfe4528bd0e346056bae750b",
      "contractAddress": null
    },
    {
      "status": "0x1",
      "cumulativeGasUsed": "0x2df963f",
      "logs": [
        {
          "address": "0x000000000022d473030f116ddee9f6b43ac78ba3",
          "topics": [
            "0xda9fa7c1b00402c17d0161b249b1ab8bbec047c5a52207b9c112deffd817036b",
            "0x0000000000000000000000003e723f6b81431f325e3f08e75544f254c182afe2",
            "0x0000000000000000000000009bde75a5a0723038cfe4528bd0e346056bae750b",
            "0x000000000000000000000000429ba70129df741b2ca2a85bc3a2a3328e5c09b4"
          ],
          "data": "0x000000000000000000000000ffffffffffffffffffffffffffffffffffffffff0000000000000000000000000000000000000000000000000000ffffffffffff",
          "blockHash": "0xd9acca1d27eef1e97eb7ceba7d294d39bb1dd6ff4a1ffae63338f2ffe11c9195",
          "blockNumber": "0x8cc7f7",
          "blockTimestamp": "0x68cb8264",
          "transactionHash": "0x4d809345d1dd3453e3894ca6928078658f0dc499819591fe20131bd3b2c2c790",
          "transactionIndex": "0xc1",
          "logIndex": "0x121",
          "removed": false
        }
      ],
      "logsBloom": "0x00010000000000000000000000000000000000000000000000000000000000000000000000000040080000000000000000000000080000000000800000080000000000200000000000000000000000000000000000000000000000000000000000000000000000000000000000000000000000000000000000000800000000000020000000000000000000000000000000000000000000000000000000000000000000000000000080000000000000000000000000000000000011080000000000000000000000000000000000000000000000000000000040000000000000000000000000000000000000000000000000000000000000000000000000000400",
      "type": "0x2",
      "transactionHash": "0x4d809345d1dd3453e3894ca6928078658f0dc499819591fe20131bd3b2c2c790",
      "transactionIndex": "0xc1",
      "blockHash": "0xd9acca1d27eef1e97eb7ceba7d294d39bb1dd6ff4a1ffae63338f2ffe11c9195",
      "blockNumber": "0x8cc7f7",
      "gasUsed": "0x6d0e",
      "effectiveGasPrice": "0xf4266",
      "from": "0x3e723f6b81431f325e3f08e75544f254c182afe2",
      "to": "0x000000000022d473030f116ddee9f6b43ac78ba3",
      "contractAddress": null
    },
    {
      "status": "0x1",
      "cumulativeGasUsed": "0x2dffd04",
      "logs": [
        {
          "address": "0x1ada2feb7b799d2fcb985441665649d29ae7f838",
          "topics": [
            "0x8c5be1e5ebec7d5bd14f71427d1e84f3dd0314c0f7b2291e5b200ac8c7c3b925",
            "0x0000000000000000000000003e723f6b81431f325e3f08e75544f254c182afe2",
            "0x000000000000000000000000000000000022d473030f116ddee9f6b43ac78ba3"
          ],
          "data": "0xffffffffffffffffffffffffffffffffffffffffffffffffffffffffffffffff",
          "blockHash": "0xd9acca1d27eef1e97eb7ceba7d294d39bb1dd6ff4a1ffae63338f2ffe11c9195",
          "blockNumber": "0x8cc7f7",
          "blockTimestamp": "0x68cb8264",
          "transactionHash": "0x27ec666799c4b647519d546d6724b800e21fe9be9da51be4cd82688d6b6c7284",
          "transactionIndex": "0xc2",
          "logIndex": "0x122",
          "removed": false
        }
      ],
      "logsBloom": "0x00040000000000000000000000000000000000000000000000000000800000000000000000000000000000000000000000000000880000000000000000200000000000000000000000004000000000000000000000000800000000000000000000000000000000000000000000000000000000000000000000000000000000000000000000000000000000000000000000000000000000000000000000000000020000000000000080000000000000000000000000000000000010000000000000000000000000000000000000000000000000000000000000000000000000000010000000000000000000000000000000000000000000000000000800000000",
      "type": "0x2",
      "transactionHash": "0x27ec666799c4b647519d546d6724b800e21fe9be9da51be4cd82688d6b6c7284",
      "transactionIndex": "0xc2",
      "blockHash": "0xd9acca1d27eef1e97eb7ceba7d294d39bb1dd6ff4a1ffae63338f2ffe11c9195",
      "blockNumber": "0x8cc7f7",
      "gasUsed": "0x66c5",
      "effectiveGasPrice": "0xf4266",
      "from": "0x3e723f6b81431f325e3f08e75544f254c182afe2",
      "to": "0x1ada2feb7b799d2fcb985441665649d29ae7f838",
      "contractAddress": null
    },
    {
      "status": "0x1",
      "cumulativeGasUsed": "0x2e06a12",
      "logs": [
        {
          "address": "0x000000000022d473030f116ddee9f6b43ac78ba3",
          "topics": [
            "0xda9fa7c1b00402c17d0161b249b1ab8bbec047c5a52207b9c112deffd817036b",
            "0x0000000000000000000000003e723f6b81431f325e3f08e75544f254c182afe2",
            "0x0000000000000000000000001ada2feb7b799d2fcb985441665649d29ae7f838",
            "0x000000000000000000000000429ba70129df741b2ca2a85bc3a2a3328e5c09b4"
          ],
          "data": "0x000000000000000000000000ffffffffffffffffffffffffffffffffffffffff0000000000000000000000000000000000000000000000000000ffffffffffff",
          "blockHash": "0xd9acca1d27eef1e97eb7ceba7d294d39bb1dd6ff4a1ffae63338f2ffe11c9195",
          "blockNumber": "0x8cc7f7",
          "blockTimestamp": "0x68cb8264",
          "transactionHash": "0x989e44c395808f00dc22ce194d67100e67f1e9c56465a24b138e75eb80bed0a8",
          "transactionIndex": "0xc3",
          "logIndex": "0x123",
          "removed": false
        }
      ],
      "logsBloom": "0x00010000000000000000000000000000000000000000000000000000000000000000000000000040080000000000000000000000080000000000000000080000000000080000000000000000000000000000000000000000000000000000000000000000000000000000000000000000000000000000000000000800000000000020000000000000000000000000000000000000000000000000000000000000000000000000000080000000000000000000000000020000000010080000000000000000000000000000000000000000000000000000000040000000000000000000000000000000000000000000000000002000000000000000000000000400",
      "type": "0x2",
      "transactionHash": "0x989e44c395808f00dc22ce194d67100e67f1e9c56465a24b138e75eb80bed0a8",
      "transactionIndex": "0xc3",
      "blockHash": "0xd9acca1d27eef1e97eb7ceba7d294d39bb1dd6ff4a1ffae63338f2ffe11c9195",
      "blockNumber": "0x8cc7f7",
      "gasUsed": "0x6d0e",
      "effectiveGasPrice": "0xf4266",
      "from": "0x3e723f6b81431f325e3f08e75544f254c182afe2",
      "to": "0x000000000022d473030f116ddee9f6b43ac78ba3",
      "contractAddress": null
    },
    {
      "status": "0x1",
      "cumulativeGasUsed": "0x2e6c320",
      "logs": [
        {
          "address": "0x429ba70129df741b2ca2a85bc3a2a3328e5c09b4",
          "topics": [
            "0xddf252ad1be2c89b69c2b068fc378daa952ba7f163c4a11628f55a4df523b3ef",
            "0x0000000000000000000000000000000000000000000000000000000000000000",
            "0x0000000000000000000000003e723f6b81431f325e3f08e75544f254c182afe2",
            "0x0000000000000000000000000000000000000000000000000000000000004325"
          ],
          "data": "0x",
          "blockHash": "0xd9acca1d27eef1e97eb7ceba7d294d39bb1dd6ff4a1ffae63338f2ffe11c9195",
          "blockNumber": "0x8cc7f7",
          "blockTimestamp": "0x68cb8264",
          "transactionHash": "0x3d858100dadafa4f696c854aad574d807c2fae1079e01447b68f62633086a4fb",
          "transactionIndex": "0xc4",
          "logIndex": "0x124",
          "removed": false
        },
        {
          "address": "0xe03a1074c86cfedd5c142c4f04f1a1536e203543",
          "topics": [
            "0xf208f4912782fd25c7f114ca3723a2d5dd6f3bcc3ac8db5af63baa85f711d5ec",
            "0x6df9863a379f04d726a4613088efb0601f7ece024419faead693edc46201af74",
            "0x000000000000000000000000429ba70129df741b2ca2a85bc3a2a3328e5c09b4"
          ],
          "data": "0xfffffffffffffffffffffffffffffffffffffffffffffffffffffffffffffda800000000000000000000000000000000000000000000000000000000000002580000000000000000000000000000000000000000000000b76ef6d7d1e8594b010000000000000000000000000000000000000000000000000000000000004325",
          "blockHash": "0xd9acca1d27eef1e97eb7ceba7d294d39bb1dd6ff4a1ffae63338f2ffe11c9195",
          "blockNumber": "0x8cc7f7",
          "blockTimestamp": "0x68cb8264",
          "transactionHash": "0x3d858100dadafa4f696c854aad574d807c2fae1079e01447b68f62633086a4fb",
          "transactionIndex": "0xc4",
          "logIndex": "0x125",
          "removed": false
        },
        {
          "address": "0x1ada2feb7b799d2fcb985441665649d29ae7f838",
          "topics": [
            "0xddf252ad1be2c89b69c2b068fc378daa952ba7f163c4a11628f55a4df523b3ef",
            "0x0000000000000000000000003e723f6b81431f325e3f08e75544f254c182afe2",
            "0x000000000000000000000000e03a1074c86cfedd5c142c4f04f1a1536e203543"
          ],
          "data": "0x0000000000000000000000000000000000000000000000056bc75e2d63100000",
          "blockHash": "0xd9acca1d27eef1e97eb7ceba7d294d39bb1dd6ff4a1ffae63338f2ffe11c9195",
          "blockNumber": "0x8cc7f7",
          "blockTimestamp": "0x68cb8264",
          "transactionHash": "0x3d858100dadafa4f696c854aad574d807c2fae1079e01447b68f62633086a4fb",
          "transactionIndex": "0xc4",
          "logIndex": "0x126",
          "removed": false
        },
        {
          "address": "0x9bde75a5a0723038cfe4528bd0e346056bae750b",
          "topics": [
            "0xddf252ad1be2c89b69c2b068fc378daa952ba7f163c4a11628f55a4df523b3ef",
            "0x0000000000000000000000003e723f6b81431f325e3f08e75544f254c182afe2",
            "0x000000000000000000000000e03a1074c86cfedd5c142c4f04f1a1536e203543"
          ],
          "data": "0x0000000000000000000000000000000000000000000000056bc75e2d63100000",
          "blockHash": "0xd9acca1d27eef1e97eb7ceba7d294d39bb1dd6ff4a1ffae63338f2ffe11c9195",
          "blockNumber": "0x8cc7f7",
          "blockTimestamp": "0x68cb8264",
          "transactionHash": "0x3d858100dadafa4f696c854aad574d807c2fae1079e01447b68f62633086a4fb",
          "transactionIndex": "0xc4",
          "logIndex": "0x127",
          "removed": false
        }
      ],
      "logsBloom": "0x00040000000000000000001000000000000400000008000000000000880000000000000000000040280000000000000000201100080000000000000000000000000000000000000000000008000000000080000000000000000000000000000000000000020000000000000080000800000000000000100000000810000000000000000001000000000010010000000002000000000000000000000000000000000004000000000080000000000000000000000010400000000010000000000000000002000000000000000000000000000000000000000000001000000020001000000000000000000000000000000004000000000000000000000800000000",
      "type": "0x2",
      "transactionHash": "0x3d858100dadafa4f696c854aad574d807c2fae1079e01447b68f62633086a4fb",
      "transactionIndex": "0xc4",
      "blockHash": "0xd9acca1d27eef1e97eb7ceba7d294d39bb1dd6ff4a1ffae63338f2ffe11c9195",
      "blockNumber": "0x8cc7f7",
      "gasUsed": "0x6590e",
      "effectiveGasPrice": "0xf4266",
      "from": "0x3e723f6b81431f325e3f08e75544f254c182afe2",
      "to": "0x429ba70129df741b2ca2a85bc3a2a3328e5c09b4",
      "contractAddress": null
    }
  ],
  "libraries": [],
  "pending": [],
  "returns": {},
  "timestamp": 1758167653509,
  "chain": 11155111,
  "commit": "7b9c819"
}