{
  "transactions": [
    {
      "hash": "0x155e46f18275be094c1f1058720c24d9ea4237e693967487d499337013f29199",
      "transactionType": "CALL",
      "contractName": null,
      "contractAddress": "0x429ba70129df741b2ca2a85bc3a2a3328e5c09b4",
      "function": "initializePool((address,address,uint24,int24,address),uint160)",
      "arguments": [
        "(0x0058863bB78B4325caB9d50Ab75ca43601a9eF6b, 0x5abeC0563014C1C02Eb7a4f6924896e5F92579FC, 3000, 60, 0x0000000000000000000000000000000000000000)",
        "79228162514264337593543950336"
      ],
      "transaction": {
        "from": "0x3e723f6b81431f325e3f08e75544f254c182afe2",
        "to": "0x429ba70129df741b2ca2a85bc3a2a3328e5c09b4",
        "gas": "0x14059",
        "value": "0x0",
        "input": "0xf70204050000000000000000000000000058863bb78b4325cab9d50ab75ca43601a9ef6b0000000000000000000000005abec0563014c1c02eb7a4f6924896e5f92579fc0000000000000000000000000000000000000000000000000000000000000bb8000000000000000000000000000000000000000000000000000000000000003c00000000000000000000000000000000000000000000000000000000000000000000000000000000000000000000000000000001000000000000000000000000",
        "nonce": "0x5ba",
        "chainId": "0xaa36a7"
      },
      "additionalContracts": [],
      "isFixedGasLimit": false
    },
    {
      "hash": "0x6d56fe5f33f7166b318d0bc1a8a1f43f77eaf015d4e573e7c8124e96b5fc99ba",
      "transactionType": "CALL",
      "contractName": null,
      "contractAddress": "0x5abec0563014c1c02eb7a4f6924896e5f92579fc",
      "function": "approve(address,uint256)",
      "arguments": [
        "0x429ba70129df741B2Ca2a85BC3A2a3328e5c09b4",
        "115792089237316195423570985008687907853269984665640564039457584007913129639935"
      ],
      "transaction": {
        "from": "0x3e723f6b81431f325e3f08e75544f254c182afe2",
        "to": "0x5abec0563014c1c02eb7a4f6924896e5f92579fc",
        "gas": "0xf9a4",
        "value": "0x0",
        "input": "0x095ea7b3000000000000000000000000429ba70129df741b2ca2a85bc3a2a3328e5c09b4ffffffffffffffffffffffffffffffffffffffffffffffffffffffffffffffff",
        "nonce": "0x5bb",
        "chainId": "0xaa36a7"
      },
      "additionalContracts": [],
      "isFixedGasLimit": false
    },
    {
      "hash": "0x80eb859134899ef96a4fecf9b6ee5e90bb7d9ef9c411e52db883204526f4056c",
      "transactionType": "CALL",
      "contractName": null,
      "contractAddress": "0x0058863bb78b4325cab9d50ab75ca43601a9ef6b",
      "function": "approve(address,uint256)",
      "arguments": [
        "0x429ba70129df741B2Ca2a85BC3A2a3328e5c09b4",
        "115792089237316195423570985008687907853269984665640564039457584007913129639935"
      ],
      "transaction": {
        "from": "0x3e723f6b81431f325e3f08e75544f254c182afe2",
        "to": "0x0058863bb78b4325cab9d50ab75ca43601a9ef6b",
        "gas": "0xf9a4",
        "value": "0x0",
        "input": "0x095ea7b3000000000000000000000000429ba70129df741b2ca2a85bc3a2a3328e5c09b4ffffffffffffffffffffffffffffffffffffffffffffffffffffffffffffffff",
        "nonce": "0x5bc",
        "chainId": "0xaa36a7"
      },
      "additionalContracts": [],
      "isFixedGasLimit": false
    },
    {
      "hash": "0x41abd60998ddaf17530b55cadbbda872c6f84ac5fe49137263b191c8a81c3beb",
      "transactionType": "CALL",
      "contractName": null,
      "contractAddress": "0x5abec0563014c1c02eb7a4f6924896e5f92579fc",
      "function": "approve(address,uint256)",
      "arguments": [
        "0x000000000022D473030F116dDEE9F6B43aC78BA3",
        "115792089237316195423570985008687907853269984665640564039457584007913129639935"
      ],
      "transaction": {
        "from": "0x3e723f6b81431f325e3f08e75544f254c182afe2",
        "to": "0x5abec0563014c1c02eb7a4f6924896e5f92579fc",
        "gas": "0x107fc",
        "value": "0x0",
        "input": "0x095ea7b3000000000000000000000000000000000022d473030f116ddee9f6b43ac78ba3ffffffffffffffffffffffffffffffffffffffffffffffffffffffffffffffff",
        "nonce": "0x5bd",
        "chainId": "0xaa36a7"
      },
      "additionalContracts": [],
      "isFixedGasLimit": false
    },
    {
      "hash": "0xbd0461011703cfc460355789f36d1bfa263083d4a55d8c99d8544df522166448",
      "transactionType": "CALL",
      "contractName": null,
      "contractAddress": "0x000000000022d473030f116ddee9f6b43ac78ba3",
      "function": "approve(address,address,uint160,uint48)",
      "arguments": [
        "0x5abeC0563014C1C02Eb7a4f6924896e5F92579FC",
        "0x429ba70129df741B2Ca2a85BC3A2a3328e5c09b4",
        "1461501637330902918203684832716283019655932542975",
        "281474976710655"
      ],
      "transaction": {
        "from": "0x3e723f6b81431f325e3f08e75544f254c182afe2",
        "to": "0x000000000022d473030f116ddee9f6b43ac78ba3",
        "gas": "0x1112d",
        "value": "0x0",
        "input": "0x87517c450000000000000000000000005abec0563014c1c02eb7a4f6924896e5f92579fc000000000000000000000000429ba70129df741b2ca2a85bc3a2a3328e5c09b4000000000000000000000000ffffffffffffffffffffffffffffffffffffffff0000000000000000000000000000000000000000000000000000ffffffffffff",
        "nonce": "0x5be",
        "chainId": "0xaa36a7"
      },
      "additionalContracts": [],
      "isFixedGasLimit": false
    },
    {
      "hash": "0x5b48daecf69189c5287f8e751d5d9b7b7df1d3d22fc4107f524bb07ad22c1924",
      "transactionType": "CALL",
      "contractName": null,
      "contractAddress": "0x0058863bb78b4325cab9d50ab75ca43601a9ef6b",
      "function": "approve(address,uint256)",
      "arguments": [
        "0x000000000022D473030F116dDEE9F6B43aC78BA3",
        "115792089237316195423570985008687907853269984665640564039457584007913129639935"
      ],
      "transaction": {
        "from": "0x3e723f6b81431f325e3f08e75544f254c182afe2",
        "to": "0x0058863bb78b4325cab9d50ab75ca43601a9ef6b",
        "gas": "0x107fc",
        "value": "0x0",
        "input": "0x095ea7b3000000000000000000000000000000000022d473030f116ddee9f6b43ac78ba3ffffffffffffffffffffffffffffffffffffffffffffffffffffffffffffffff",
        "nonce": "0x5bf",
        "chainId": "0xaa36a7"
      },
      "additionalContracts": [],
      "isFixedGasLimit": false
    },
    {
      "hash": "0x1fc9bc5c562e5aee13c5c733f63b881a042421d8508f89cd0c000f50f7000b96",
      "transactionType": "CALL",
      "contractName": null,
      "contractAddress": "0x000000000022d473030f116ddee9f6b43ac78ba3",
      "function": "approve(address,address,uint160,uint48)",
      "arguments": [
        "0x0058863bB78B4325caB9d50Ab75ca43601a9eF6b",
        "0x429ba70129df741B2Ca2a85BC3A2a3328e5c09b4",
        "1461501637330902918203684832716283019655932542975",
        "281474976710655"
      ],
      "transaction": {
        "from": "0x3e723f6b81431f325e3f08e75544f254c182afe2",
        "to": "0x000000000022d473030f116ddee9f6b43ac78ba3",
        "gas": "0x101ee",
        "value": "0x0",
        "input": "0x87517c450000000000000000000000000058863bb78b4325cab9d50ab75ca43601a9ef6b000000000000000000000000429ba70129df741b2ca2a85bc3a2a3328e5c09b4000000000000000000000000ffffffffffffffffffffffffffffffffffffffff0000000000000000000000000000000000000000000000000000ffffffffffff",
        "nonce": "0x5c0",
        "chainId": "0xaa36a7"
      },
      "additionalContracts": [],
      "isFixedGasLimit": false
    },
    {
      "hash": "0x2f1f8d582a1b3ed2cbef16609891083e5c90f36f4c23d3e32331c009d98b9c27",
      "transactionType": "CALL",
      "contractName": null,
      "contractAddress": "0x429ba70129df741b2ca2a85bc3a2a3328e5c09b4",
      "function": "multicall(bytes[])",
      "arguments": [
        "[0xdd46508f00000000000000000000000000000000000000000000000000000000000000400000000000000000000000000000000000000000000000000000000068cb86600000000000000000000000000000000000000000000000000000000000000400000000000000000000000000000000000000000000000000000000000000004000000000000000000000000000000000000000000000000000000000000000800000000000000000000000000000000000000000000000000000000000000004020d14140000000000000000000000000000000000000000000000000000000000000000000000000000000000000000000000000000000000000000000000040000000000000000000000000000000000000000000000000000000000000080000000000000000000000000000000000000000000000000000000000000024000000000000000000000000000000000000000000000000000000000000002a0000000000000000000000000000000000000000000000000000000000000030000000000000000000000000000000000000000000000000000000000000001a00000000000000000000000000058863bb78b4325cab9d50ab75ca43601a9ef6b0000000000000000000000005abec0563014c1c02eb7a4f6924896e5f92579fc0000000000000000000000000000000000000000000000000000000000000bb8000000000000000000000000000000000000000000000000000000000000003c0000000000000000000000000000000000000000000000000000000000000000fffffffffffffffffffffffffffffffffffffffffffffffffffffffffffffda800000000000000000000000000000000000000000000000000000000000002580000000000000000000000000000000000000000000000b76ef6d7d1e8594b010000000000000000000000000000000000000000000000056bc75e2d631000010000000000000000000000000000000000000000000000056bc75e2d631000010000000000000000000000003e723f6b81431f325e3f08e75544f254c182afe20000000000000000000000000000000000000000000000000000000000000180000000000000000000000000000000000000000000000000000000000000000000000000000000000000000000000000000000000000000000000000000000400000000000000000000000000058863bb78b4325cab9d50ab75ca43601a9ef6b0000000000000000000000005abec0563014c1c02eb7a4f6924896e5f92579fc00000000000000000000000000000000000000000000000000000000000000400000000000000000000000000058863bb78b4325cab9d50ab75ca43601a9ef6b0000000000000000000000003e723f6b81431f325e3f08e75544f254c182afe200000000000000000000000000000000000000000000000000000000000000400000000000000000000000005abec0563014c1c02eb7a4f6924896e5f92579fc0000000000000000000000003e723f6b81431f325e3f08e75544f254c182afe2]"
      ],
      "transaction": {
        "from": "0x3e723f6b81431f325e3f08e75544f254c182afe2",
        "to": "0x429ba70129df741b2ca2a85bc3a2a3328e5c09b4",
        "gas": "0x9486f",
        "value": "0x0",
        "input": "0xac9650d80000000000000000000000000000000000000000000000000000000000000020000000000000000000000000000000000000000000000000000000000000000100000000000000000000000000000000000000000000000000000000000000200000000000000000000000000000000000000000000000000000000000000464dd46508f00000000000000000000000000000000000000000000000000000000000000400000000000000000000000000000000000000000000000000000000068cb86600000000000000000000000000000000000000000000000000000000000000400000000000000000000000000000000000000000000000000000000000000004000000000000000000000000000000000000000000000000000000000000000800000000000000000000000000000000000000000000000000000000000000004020d14140000000000000000000000000000000000000000000000000000000000000000000000000000000000000000000000000000000000000000000000040000000000000000000000000000000000000000000000000000000000000080000000000000000000000000000000000000000000000000000000000000024000000000000000000000000000000000000000000000000000000000000002a0000000000000000000000000000000000000000000000000000000000000030000000000000000000000000000000000000000000000000000000000000001a00000000000000000000000000058863bb78b4325cab9d50ab75ca43601a9ef6b0000000000000000000000005abec0563014c1c02eb7a4f6924896e5f92579fc0000000000000000000000000000000000000000000000000000000000000bb8000000000000000000000000000000000000000000000000000000000000003c0000000000000000000000000000000000000000000000000000000000000000fffffffffffffffffffffffffffffffffffffffffffffffffffffffffffffda800000000000000000000000000000000000000000000000000000000000002580000000000000000000000000000000000000000000000b76ef6d7d1e8594b010000000000000000000000000000000000000000000000056bc75e2d631000010000000000000000000000000000000000000000000000056bc75e2d631000010000000000000000000000003e723f6b81431f325e3f08e75544f254c182afe20000000000000000000000000000000000000000000000000000000000000180000000000000000000000000000000000000000000000000000000000000000000000000000000000000000000000000000000000000000000000000000000400000000000000000000000000058863bb78b4325cab9d50ab75ca43601a9ef6b0000000000000000000000005abec0563014c1c02eb7a4f6924896e5f92579fc00000000000000000000000000000000000000000000000000000000000000400000000000000000000000000058863bb78b4325cab9d50ab75ca43601a9ef6b0000000000000000000000003e723f6b81431f325e3f08e75544f254c182afe200000000000000000000000000000000000000000000000000000000000000400000000000000000000000005abec0563014c1c02eb7a4f6924896e5f92579fc0000000000000000000000003e723f6b81431f325e3f08e75544f254c182afe200000000000000000000000000000000000000000000000000000000",
        "nonce": "0x5c1",
        "chainId": "0xaa36a7"
      },
      "additionalContracts": [],
      "isFixedGasLimit": false
    }
  ],
  "receipts": [
    {
      "status": "0x1",
      "cumulativeGasUsed": "0xeda2a4",
      "logs": [
        {
          "address": "0xe03a1074c86cfedd5c142c4f04f1a1536e203543",
          "topics": [
            "0xdd466e674ea557f56295e2d0218a125ea4b4f0f6f3307b95f85e6110838d6438",
            "0xdf9d2413ceeb4837095451060aa03b4f4a2d3bd9e9a3dd2b8bb738f18d7aec7f",
            "0x0000000000000000000000000058863bb78b4325cab9d50ab75ca43601a9ef6b",
            "0x0000000000000000000000005abec0563014c1c02eb7a4f6924896e5f92579fc"
          ],
          "data": "0x0000000000000000000000000000000000000000000000000000000000000bb8000000000000000000000000000000000000000000000000000000000000003c000000000000000000000000000000000000000000000000000000000000000000000000000000000000000000000000000000010000000000000000000000000000000000000000000000000000000000000000000000000000000000000000",
          "blockHash": "0xf9ca02939620d3cb71e58eaea41c52a6a685ccd170351de9b670ec2f0f69a8bf",
          "blockNumber": "0x8cc847",
          "blockTimestamp": "0x68cb863c",
          "transactionHash": "0x155e46f18275be094c1f1058720c24d9ea4237e693967487d499337013f29199",
          "transactionIndex": "0x5f",
          "logIndex": "0x7e",
          "removed": false
        }
      ],
      "logsBloom": "0x00000000000000000000000000000000000000000000000000000000000000000000080000000000000000000000000001000100000000000000000000000000000000000000000000000000000000000000000000004080000000000000000000000000000080000000000000000000000000000000180000000000010000000000000000000008000000000000000000000001000000000000000000200000000000000000000000000000000000000000000000000000000000000000000000000000000000000000000000000000000000000000000000000000000000001000000000080000000000000000000000000000000000000800000000000000",
      "type": "0x2",
      "transactionHash": "0x155e46f18275be094c1f1058720c24d9ea4237e693967487d499337013f29199",
      "transactionIndex": "0x5f",
      "blockHash": "0xf9ca02939620d3cb71e58eaea41c52a6a685ccd170351de9b670ec2f0f69a8bf",
      "blockNumber": "0x8cc847",
      "gasUsed": "0xdb0b",
      "effectiveGasPrice": "0xf4252",
      "from": "0x3e723f6b81431f325e3f08e75544f254c182afe2",
      "to": "0x429ba70129df741b2ca2a85bc3a2a3328e5c09b4",
      "contractAddress": null
    },
    {
      "status": "0x1",
      "cumulativeGasUsed": "0xee5761",
      "logs": [
        {
          "address": "0x5abec0563014c1c02eb7a4f6924896e5f92579fc",
          "topics": [
            "0x8c5be1e5ebec7d5bd14f71427d1e84f3dd0314c0f7b2291e5b200ac8c7c3b925",
            "0x0000000000000000000000003e723f6b81431f325e3f08e75544f254c182afe2",
            "0x000000000000000000000000429ba70129df741b2ca2a85bc3a2a3328e5c09b4"
          ],
          "data": "0xffffffffffffffffffffffffffffffffffffffffffffffffffffffffffffffff",
          "blockHash": "0xf9ca02939620d3cb71e58eaea41c52a6a685ccd170351de9b670ec2f0f69a8bf",
          "blockNumber": "0x8cc847",
          "blockTimestamp": "0x68cb863c",
          "transactionHash": "0x6d56fe5f33f7166b318d0bc1a8a1f43f77eaf015d4e573e7c8124e96b5fc99ba",
          "transactionIndex": "0x60",
          "logIndex": "0x7f",
          "removed": false
        }
      ],
      "logsBloom": "0x00000000000000000000000000000000000000000000000000000000000000000000000000000040080000000000000000000000080000000000000000200000000000000000000000000000000000000000000000000000000000000000000000000000000000000000000000000000000000000000000000000800000004000000000000000000000000000000000000000000000000000000000000000000020000000000000080000000000000000000000000000000000030000000000000000000000000000000000000000000000000000000000000000000000000000010000000000004000000000000000000000000000000000000000000000000",
      "type": "0x2",
      "transactionHash": "0x6d56fe5f33f7166b318d0bc1a8a1f43f77eaf015d4e573e7c8124e96b5fc99ba",
      "transactionIndex": "0x60",
      "blockHash": "0xf9ca02939620d3cb71e58eaea41c52a6a685ccd170351de9b670ec2f0f69a8bf",
      "blockNumber": "0x8cc847",
      "gasUsed": "0xb4bd",
      "effectiveGasPrice": "0xf4252",
      "from": "0x3e723f6b81431f325e3f08e75544f254c182afe2",
      "to": "0x5abec0563014c1c02eb7a4f6924896e5f92579fc",
      "contractAddress": null
    },
    {
      "status": "0x1",
      "cumulativeGasUsed": "0xef0c1e",
      "logs": [
        {
          "address": "0x0058863bb78b4325cab9d50ab75ca43601a9ef6b",
          "topics": [
            "0x8c5be1e5ebec7d5bd14f71427d1e84f3dd0314c0f7b2291e5b200ac8c7c3b925",
            "0x0000000000000000000000003e723f6b81431f325e3f08e75544f254c182afe2",
            "0x000000000000000000000000429ba70129df741b2ca2a85bc3a2a3328e5c09b4"
          ],
          "data": "0xffffffffffffffffffffffffffffffffffffffffffffffffffffffffffffffff",
          "blockHash": "0xf9ca02939620d3cb71e58eaea41c52a6a685ccd170351de9b670ec2f0f69a8bf",
          "blockNumber": "0x8cc847",
          "transactionHash": "0x80eb859134899ef96a4fecf9b6ee5e90bb7d9ef9c411e52db883204526f4056c",
          "transactionIndex": "0x61",
          "logIndex": "0x80",
          "removed": false
        }
      ],
      "logsBloom": "0x00000000000000000000000000000000000000000000000080000000000000000000000000000040080000000000000000000000080000000000000000200000000000000000000000000000000000000000000000000000000000000000000000000000000000000000000000000000000000000000000000000800000000000000000000000000000000000000000000000000000000000000000000000000020000000000000080810000000000000000000000000000000010000000000000000000000000000000000000000000000000000000000000000000000000000010000000000000000000000000000000000000000000000000000000000000",
      "type": "0x2",
      "transactionHash": "0x80eb859134899ef96a4fecf9b6ee5e90bb7d9ef9c411e52db883204526f4056c",
      "transactionIndex": "0x61",
      "blockHash": "0xf9ca02939620d3cb71e58eaea41c52a6a685ccd170351de9b670ec2f0f69a8bf",
      "blockNumber": "0x8cc847",
      "gasUsed": "0xb4bd",
      "effectiveGasPrice": "0xf4252",
      "from": "0x3e723f6b81431f325e3f08e75544f254c182afe2",
      "to": "0x0058863bb78b4325cab9d50ab75ca43601a9ef6b",
      "contractAddress": null
    },
    {
      "status": "0x1",
      "cumulativeGasUsed": "0xefc09f",
      "logs": [
        {
          "address": "0x5abec0563014c1c02eb7a4f6924896e5f92579fc",
          "topics": [
            "0x8c5be1e5ebec7d5bd14f71427d1e84f3dd0314c0f7b2291e5b200ac8c7c3b925",
            "0x0000000000000000000000003e723f6b81431f325e3f08e75544f254c182afe2",
            "0x000000000000000000000000000000000022d473030f116ddee9f6b43ac78ba3"
          ],
          "data": "0xffffffffffffffffffffffffffffffffffffffffffffffffffffffffffffffff",
          "blockHash": "0xf9ca02939620d3cb71e58eaea41c52a6a685ccd170351de9b670ec2f0f69a8bf",
          "blockNumber": "0x8cc847",
          "blockTimestamp": "0x68cb863c",
          "transactionHash": "0x41abd60998ddaf17530b55cadbbda872c6f84ac5fe49137263b191c8a81c3beb",
          "transactionIndex": "0x62",
          "logIndex": "0x81",
          "removed": false
        }
      ],
      "logsBloom": "0x00000000000000000000000000000000000000000000000000000000000000000000000000000000000000000000000000000000880000000000000000200000000000000000000000004000000000000000000000000800000000000000000000000000000000000000000000000000000000000000000000000000000004000000000000000000000000000000000000000000000000000000000000000000020000000000000080000000000000000000000000000000000030000000000000000000000000000000000000000000000000000000000000000000000000000010000000000004000000000000000000000000000000000000000000000000",
      "type": "0x2",
      "transactionHash": "0x41abd60998ddaf17530b55cadbbda872c6f84ac5fe49137263b191c8a81c3beb",
      "transactionIndex": "0x62",
      "blockHash": "0xf9ca02939620d3cb71e58eaea41c52a6a685ccd170351de9b670ec2f0f69a8bf",
      "blockNumber": "0x8cc847",
      "gasUsed": "0xb481",
      "effectiveGasPrice": "0xf4252",
      "from": "0x3e723f6b81431f325e3f08e75544f254c182afe2",
      "to": "0x5abec0563014c1c02eb7a4f6924896e5f92579fc",
      "contractAddress": null
    },
    {
      "status": "0x1",
      "cumulativeGasUsed": "0xf0cd71",
      "logs": [
        {
          "address": "0x000000000022d473030f116ddee9f6b43ac78ba3",
          "topics": [
            "0xda9fa7c1b00402c17d0161b249b1ab8bbec047c5a52207b9c112deffd817036b",
            "0x0000000000000000000000003e723f6b81431f325e3f08e75544f254c182afe2",
            "0x0000000000000000000000005abec0563014c1c02eb7a4f6924896e5f92579fc",
            "0x000000000000000000000000429ba70129df741b2ca2a85bc3a2a3328e5c09b4"
          ],
          "data": "0x000000000000000000000000ffffffffffffffffffffffffffffffffffffffff0000000000000000000000000000000000000000000000000000ffffffffffff",
          "blockHash": "0xf9ca02939620d3cb71e58eaea41c52a6a685ccd170351de9b670ec2f0f69a8bf",
          "blockNumber": "0x8cc847",
          "blockTimestamp": "0x68cb863c",
          "transactionHash": "0xbd0461011703cfc460355789f36d1bfa263083d4a55d8c99d8544df522166448",
          "transactionIndex": "0x64",
          "logIndex": "0x82",
          "removed": false
        }
      ],
      "logsBloom": "0x00010000000000000000000000000000000000000000000000000000000000000000080000000040080000000000000000000000080000000000000000080000000000000000000000000000000000000000000000000000000000000000000000000000000080000000000000000000000000000000000000000800000000000020000000000000000000000000000000000000000000000000000000000000000000000000000080000000000000000000000000000000000010080000000000000000000000000000000000000000000000000000000040000000000000000000000000000000000000000000000000000000000000000800000000000400",
      "type": "0x2",
      "transactionHash": "0xbd0461011703cfc460355789f36d1bfa263083d4a55d8c99d8544df522166448",
      "transactionIndex": "0x64",
      "blockHash": "0xf9ca02939620d3cb71e58eaea41c52a6a685ccd170351de9b670ec2f0f69a8bf",
      "blockNumber": "0x8cc847",
      "gasUsed": "0xbaca",
      "effectiveGasPrice": "0xf4252",
      "from": "0x3e723f6b81431f325e3f08e75544f254c182afe2",
      "to": "0x000000000022d473030f116ddee9f6b43ac78ba3",
      "contractAddress": null
    },
    {
      "status": "0x1",
      "cumulativeGasUsed": "0xf1d3fa",
      "logs": [
        {
          "address": "0x0058863bb78b4325cab9d50ab75ca43601a9ef6b",
          "topics": [
            "0x8c5be1e5ebec7d5bd14f71427d1e84f3dd0314c0f7b2291e5b200ac8c7c3b925",
            "0x0000000000000000000000003e723f6b81431f325e3f08e75544f254c182afe2",
            "0x000000000000000000000000000000000022d473030f116ddee9f6b43ac78ba3"
          ],
          "data": "0xffffffffffffffffffffffffffffffffffffffffffffffffffffffffffffffff",
          "blockHash": "0xf9ca02939620d3cb71e58eaea41c52a6a685ccd170351de9b670ec2f0f69a8bf",
          "blockNumber": "0x8cc847",
          "transactionHash": "0x5b48daecf69189c5287f8e751d5d9b7b7df1d3d22fc4107f524bb07ad22c1924",
          "transactionIndex": "0x66",
          "logIndex": "0x83",
          "removed": false
        }
      ],
      "logsBloom": "0x00000000000000000000000000000000000000000000000080000000000000000000000000000000000000000000000000000000880000000000000000200000000000000000000000004000000000000000000000000800000000000000000000000000000000000000000000000000000000000000000000000000000000000000000000000000000000000000000000000000000000000000000000000000020000000000000080810000000000000000000000000000000010000000000000000000000000000000000000000000000000000000000000000000000000000010000000000000000000000000000000000000000000000000000000000000",
      "type": "0x2",
      "transactionHash": "0x5b48daecf69189c5287f8e751d5d9b7b7df1d3d22fc4107f524bb07ad22c1924",
      "transactionIndex": "0x66",
      "blockHash": "0xf9ca02939620d3cb71e58eaea41c52a6a685ccd170351de9b670ec2f0f69a8bf",
      "blockNumber": "0x8cc847",
      "gasUsed": "0xb481",
      "effectiveGasPrice": "0xf4252",
      "from": "0x3e723f6b81431f325e3f08e75544f254c182afe2",
      "to": "0x0058863bb78b4325cab9d50ab75ca43601a9ef6b",
      "contractAddress": null
    },
    {
      "status": "0x1",
      "cumulativeGasUsed": "0xf28eb8",
      "logs": [
        {
          "address": "0x000000000022d473030f116ddee9f6b43ac78ba3",
          "topics": [
            "0xda9fa7c1b00402c17d0161b249b1ab8bbec047c5a52207b9c112deffd817036b",
            "0x0000000000000000000000003e723f6b81431f325e3f08e75544f254c182afe2",
            "0x0000000000000000000000000058863bb78b4325cab9d50ab75ca43601a9ef6b",
            "0x000000000000000000000000429ba70129df741b2ca2a85bc3a2a3328e5c09b4"
          ],
          "data": "0x000000000000000000000000ffffffffffffffffffffffffffffffffffffffff0000000000000000000000000000000000000000000000000000ffffffffffff",
          "blockHash": "0xf9ca02939620d3cb71e58eaea41c52a6a685ccd170351de9b670ec2f0f69a8bf",
          "blockNumber": "0x8cc847",
          "blockTimestamp": "0x68cb863c",
          "transactionHash": "0x1fc9bc5c562e5aee13c5c733f63b881a042421d8508f89cd0c000f50f7000b96",
          "transactionIndex": "0x67",
          "logIndex": "0x84",
          "removed": false
        }
      ],
      "logsBloom": "0x00010000000000000000000000000000000000000000000000000000000000000000000000000040080000000000000000000000080000000000000000080000000000000000000000000000000000000000000000004000000000000000000000000000000000000000000000000000000000000000080000000800000000000020000000000000000000000000000000000000000000000000000000000000000000000000000080000000000000000000000000000000000010080000000000000000000000000000000000000000000000000000000040000000000000000000000000080000000000000000000000000000000000000000000000000400",
      "type": "0x2",
      "transactionHash": "0x1fc9bc5c562e5aee13c5c733f63b881a042421d8508f89cd0c000f50f7000b96",
      "transactionIndex": "0x67",
      "blockHash": "0xf9ca02939620d3cb71e58eaea41c52a6a685ccd170351de9b670ec2f0f69a8bf",
      "blockNumber": "0x8cc847",
      "gasUsed": "0xbabe",
      "effectiveGasPrice": "0xf4252",
      "from": "0x3e723f6b81431f325e3f08e75544f254c182afe2",
      "to": "0x000000000022d473030f116ddee9f6b43ac78ba3",
      "contractAddress": null
    },
    {
      "status": "0x1",
      "cumulativeGasUsed": "0xfc660d",
      "logs": [
        {
          "address": "0x429ba70129df741b2ca2a85bc3a2a3328e5c09b4",
          "topics": [
            "0xddf252ad1be2c89b69c2b068fc378daa952ba7f163c4a11628f55a4df523b3ef",
            "0x0000000000000000000000000000000000000000000000000000000000000000",
            "0x0000000000000000000000003e723f6b81431f325e3f08e75544f254c182afe2",
            "0x0000000000000000000000000000000000000000000000000000000000004327"
          ],
          "data": "0x",
          "blockHash": "0xf9ca02939620d3cb71e58eaea41c52a6a685ccd170351de9b670ec2f0f69a8bf",
          "blockNumber": "0x8cc847",
          "transactionHash": "0x2f1f8d582a1b3ed2cbef16609891083e5c90f36f4c23d3e32331c009d98b9c27",
          "transactionIndex": "0x69",
          "logIndex": "0x86",
          "removed": false
        },
        {
          "address": "0xe03a1074c86cfedd5c142c4f04f1a1536e203543",
          "topics": [
            "0xf208f4912782fd25c7f114ca3723a2d5dd6f3bcc3ac8db5af63baa85f711d5ec",
            "0xdf9d2413ceeb4837095451060aa03b4f4a2d3bd9e9a3dd2b8bb738f18d7aec7f",
            "0x000000000000000000000000429ba70129df741b2ca2a85bc3a2a3328e5c09b4"
          ],
          "data": "0xfffffffffffffffffffffffffffffffffffffffffffffffffffffffffffffda800000000000000000000000000000000000000000000000000000000000002580000000000000000000000000000000000000000000000b76ef6d7d1e8594b010000000000000000000000000000000000000000000000000000000000004327",
          "blockHash": "0xf9ca02939620d3cb71e58eaea41c52a6a685ccd170351de9b670ec2f0f69a8bf",
          "blockNumber": "0x8cc847",
          "transactionHash": "0x2f1f8d582a1b3ed2cbef16609891083e5c90f36f4c23d3e32331c009d98b9c27",
          "transactionIndex": "0x69",
          "logIndex": "0x87",
          "removed": false
        },
        {
          "address": "0x0058863bb78b4325cab9d50ab75ca43601a9ef6b",
          "topics": [
            "0xddf252ad1be2c89b69c2b068fc378daa952ba7f163c4a11628f55a4df523b3ef",
            "0x0000000000000000000000003e723f6b81431f325e3f08e75544f254c182afe2",
            "0x000000000000000000000000e03a1074c86cfedd5c142c4f04f1a1536e203543"
          ],
          "data": "0x0000000000000000000000000000000000000000000000056bc75e2d63100000",
          "blockHash": "0xf9ca02939620d3cb71e58eaea41c52a6a685ccd170351de9b670ec2f0f69a8bf",
          "blockNumber": "0x8cc847",
          "transactionHash": "0x2f1f8d582a1b3ed2cbef16609891083e5c90f36f4c23d3e32331c009d98b9c27",
          "transactionIndex": "0x69",
          "logIndex": "0x88",
          "removed": false
        },
        {
          "address": "0x5abec0563014c1c02eb7a4f6924896e5f92579fc",
          "topics": [
            "0xddf252ad1be2c89b69c2b068fc378daa952ba7f163c4a11628f55a4df523b3ef",
            "0x0000000000000000000000003e723f6b81431f325e3f08e75544f254c182afe2",
            "0x000000000000000000000000e03a1074c86cfedd5c142c4f04f1a1536e203543"
          ],
          "data": "0x0000000000000000000000000000000000000000000000056bc75e2d63100000",
          "blockHash": "0xf9ca02939620d3cb71e58eaea41c52a6a685ccd170351de9b670ec2f0f69a8bf",
          "blockNumber": "0x8cc847",
          "transactionHash": "0x2f1f8d582a1b3ed2cbef16609891083e5c90f36f4c23d3e32331c009d98b9c27",
          "transactionIndex": "0x69",
          "logIndex": "0x89",
          "removed": false
        }
      ],
      "logsBloom": "0x00000000000000000000001000000000000000000000000080000000080000000000000000000140080000000000000001000100080000000000000000000000000000000000000000000008000000000000000000000080000000000000000000000400020000000000000080000800000000000000100000000810010004000000000001000000000010000000000000000400000000000000000000000000000004000000000080810000000000000000000000400000000030000000000000000002000000000000000000000000000000000000000000001000000020001000000000000004000000000000000004000000000000000000000000000000",
      "type": "0x2",
      "transactionHash": "0x2f1f8d582a1b3ed2cbef16609891083e5c90f36f4c23d3e32331c009d98b9c27",
      "transactionIndex": "0x69",
      "blockHash": "0xf9ca02939620d3cb71e58eaea41c52a6a685ccd170351de9b670ec2f0f69a8bf",
      "blockNumber": "0x8cc847",
      "gasUsed": "0x658ea",
      "effectiveGasPrice": "0xf4252",
      "from": "0x3e723f6b81431f325e3f08e75544f254c182afe2",
      "to": "0x429ba70129df741b2ca2a85bc3a2a3328e5c09b4",
      "contractAddress": null
    }
  ],
  "libraries": [],
  "pending": [],
  "returns": {},
  "timestamp": 1758168636989,
  "chain": 11155111,
  "commit": "7b9c819"
}