{
  "transactions": [
    {
      "hash": "0xa82329029bbd9b7016eb975aa88c3f6d31acebff98fb3625ed26d9ed5033a993",
      "transactionType": "CALL",
      "contractName": null,
      "contractAddress": "0x429ba70129df741b2ca2a85bc3a2a3328e5c09b4",
      "function": "initializePool((address,address,uint24,int24,address),uint160)",
      "arguments": [
        "(0x1ada2FEB7b799D2fcb985441665649D29aE7f838, 0x9BDe75a5A0723038cfe4528BD0e346056bae750B, 3000, 60, 0x0000000000000000000000000000000000000000)",
        "79228162514264337593543950336"
      ],
      "transaction": {
        "from": "0x3e723f6b81431f325e3f08e75544f254c182afe2",
        "to": "0x429ba70129df741b2ca2a85bc3a2a3328e5c09b4",
        "gas": "0x12e9d",
        "value": "0x0",
        "input": "0xf70204050000000000000000000000001ada2feb7b799d2fcb985441665649d29ae7f8380000000000000000000000009bde75a5a0723038cfe4528bd0e346056bae750b0000000000000000000000000000000000000000000000000000000000000bb8000000000000000000000000000000000000000000000000000000000000003c00000000000000000000000000000000000000000000000000000000000000000000000000000000000000000000000000000001000000000000000000000000",
        "nonce": "0x59a",
        "chainId": "0xaa36a7"
      },
      "additionalContracts": [],
      "isFixedGasLimit": false
    },
    {
      "hash": "0x2bbbe7bb1b23148f001abe9ec26480f0d01faa2df559cf0785083ac9c4fc20f1",
      "transactionType": "CALL",
      "contractName": null,
      "contractAddress": "0x9bde75a5a0723038cfe4528bd0e346056bae750b",
      "function": "approve(address,uint256)",
      "arguments": [
        "0x0037AE64fAE0Fb8353525511c6fAe6077E507880",
        "115792089237316195423570985008687907853269984665640564039457584007913129639935"
      ],
      "transaction": {
        "from": "0x3e723f6b81431f325e3f08e75544f254c182afe2",
        "to": "0x9bde75a5a0723038cfe4528bd0e346056bae750b",
        "gas": "0x10842",
        "value": "0x0",
        "input": "0x095ea7b30000000000000000000000000037ae64fae0fb8353525511c6fae6077e507880ffffffffffffffffffffffffffffffffffffffffffffffffffffffffffffffff",
        "nonce": "0x59b",
        "chainId": "0xaa36a7"
      },
      "additionalContracts": [],
      "isFixedGasLimit": false
    },
    {
      "hash": "0x9d6a9d09574b93f2abac40d55a0ff2f9fe65cd4c912cbd89937694109edd009e",
      "transactionType": "CALL",
      "contractName": null,
      "contractAddress": "0x1ada2feb7b799d2fcb985441665649d29ae7f838",
      "function": "approve(address,uint256)",
      "arguments": [
        "0x0037AE64fAE0Fb8353525511c6fAe6077E507880",
        "115792089237316195423570985008687907853269984665640564039457584007913129639935"
      ],
      "transaction": {
        "from": "0x3e723f6b81431f325e3f08e75544f254c182afe2",
        "to": "0x1ada2feb7b799d2fcb985441665649d29ae7f838",
        "gas": "0x10842",
        "value": "0x0",
        "input": "0x095ea7b30000000000000000000000000037ae64fae0fb8353525511c6fae6077e507880ffffffffffffffffffffffffffffffffffffffffffffffffffffffffffffffff",
        "nonce": "0x59c",
        "chainId": "0xaa36a7"
      },
      "additionalContracts": [],
      "isFixedGasLimit": false
    },
    {
      "hash": "0x62b7e332d570fdc472653261b06d3ba4926692d655a1d346e7c1b5dab1a3b0ab",
      "transactionType": "CALL",
      "contractName": null,
      "contractAddress": "0x9bde75a5a0723038cfe4528bd0e346056bae750b",
      "function": "approve(address,uint256)",
      "arguments": [
        "0xE03A1074c86CFeDd5C142C4F04F1a1536e203543",
        "115792089237316195423570985008687907853269984665640564039457584007913129639935"
      ],
      "transaction": {
        "from": "0x3e723f6b81431f325e3f08e75544f254c182afe2",
        "to": "0x9bde75a5a0723038cfe4528bd0e346056bae750b",
        "gas": "0xf9a4",
        "value": "0x0",
        "input": "0x095ea7b3000000000000000000000000e03a1074c86cfedd5c142c4f04f1a1536e203543ffffffffffffffffffffffffffffffffffffffffffffffffffffffffffffffff",
        "nonce": "0x59d",
        "chainId": "0xaa36a7"
      },
      "additionalContracts": [],
      "isFixedGasLimit": false
    },
    {
      "hash": "0x99efa891665863a8e8d5f754516e6e545d050020828fc8debb480bf611d19106",
      "transactionType": "CALL",
      "contractName": null,
      "contractAddress": "0x1ada2feb7b799d2fcb985441665649d29ae7f838",
      "function": "approve(address,uint256)",
      "arguments": [
        "0xE03A1074c86CFeDd5C142C4F04F1a1536e203543",
        "115792089237316195423570985008687907853269984665640564039457584007913129639935"
      ],
      "transaction": {
        "from": "0x3e723f6b81431f325e3f08e75544f254c182afe2",
        "to": "0x1ada2feb7b799d2fcb985441665649d29ae7f838",
        "gas": "0xf9a4",
        "value": "0x0",
        "input": "0x095ea7b3000000000000000000000000e03a1074c86cfedd5c142c4f04f1a1536e203543ffffffffffffffffffffffffffffffffffffffffffffffffffffffffffffffff",
        "nonce": "0x59e",
        "chainId": "0xaa36a7"
      },
      "additionalContracts": [],
      "isFixedGasLimit": false
    },
    {
      "hash": "0x7cb2f9f156d7a82b2bbab5e3e028181a40d905dea34d25c15e6ddc0c493fa9b7",
      "transactionType": "CALL",
      "contractName": null,
      "contractAddress": "0x9bde75a5a0723038cfe4528bd0e346056bae750b",
      "function": "approve(address,uint256)",
      "arguments": [
        "0x429ba70129df741B2Ca2a85BC3A2a3328e5c09b4",
        "115792089237316195423570985008687907853269984665640564039457584007913129639935"
      ],
      "transaction": {
        "from": "0x3e723f6b81431f325e3f08e75544f254c182afe2",
        "to": "0x9bde75a5a0723038cfe4528bd0e346056bae750b",
        "gas": "0xf9a4",
        "value": "0x0",
        "input": "0x095ea7b3000000000000000000000000429ba70129df741b2ca2a85bc3a2a3328e5c09b4ffffffffffffffffffffffffffffffffffffffffffffffffffffffffffffffff",
        "nonce": "0x59f",
        "chainId": "0xaa36a7"
      },
      "additionalContracts": [],
      "isFixedGasLimit": false
    },
    {
      "hash": "0x53150a8ecf88ffc6d1921dfc649551f73cc5cbc9d2517c498f4a4bf666b32637",
      "transactionType": "CALL",
      "contractName": null,
      "contractAddress": "0x1ada2feb7b799d2fcb985441665649d29ae7f838",
      "function": "approve(address,uint256)",
      "arguments": [
        "0x429ba70129df741B2Ca2a85BC3A2a3328e5c09b4",
        "115792089237316195423570985008687907853269984665640564039457584007913129639935"
      ],
      "transaction": {
        "from": "0x3e723f6b81431f325e3f08e75544f254c182afe2",
        "to": "0x1ada2feb7b799d2fcb985441665649d29ae7f838",
        "gas": "0xf9a4",
        "value": "0x0",
        "input": "0x095ea7b3000000000000000000000000429ba70129df741b2ca2a85bc3a2a3328e5c09b4ffffffffffffffffffffffffffffffffffffffffffffffffffffffffffffffff",
        "nonce": "0x5a0",
        "chainId": "0xaa36a7"
      },
      "additionalContracts": [],
      "isFixedGasLimit": false
    },
    {
      "hash": "0x0d39a252fd37cd9334b3737ccc9ccff662ed44213f0582462d2bc25c7f2c5d9d",
      "transactionType": "CALL",
      "contractName": null,
      "contractAddress": "0x9bde75a5a0723038cfe4528bd0e346056bae750b",
      "function": "approve(address,uint256)",
      "arguments": [
        "0x000000000022D473030F116dDEE9F6B43aC78BA3",
        "115792089237316195423570985008687907853269984665640564039457584007913129639935"
      ],
      "transaction": {
        "from": "0x3e723f6b81431f325e3f08e75544f254c182afe2",
        "to": "0x9bde75a5a0723038cfe4528bd0e346056bae750b",
        "gas": "0x107fc",
        "value": "0x0",
        "input": "0x095ea7b3000000000000000000000000000000000022d473030f116ddee9f6b43ac78ba3ffffffffffffffffffffffffffffffffffffffffffffffffffffffffffffffff",
        "nonce": "0x5a1",
        "chainId": "0xaa36a7"
      },
      "additionalContracts": [],
      "isFixedGasLimit": false
    },
    {
      "hash": "0xc9f0af4e54311e10962f22cb9fab42e05d5966784b4b9df58a438b4518952803",
      "transactionType": "CALL",
      "contractName": null,
      "contractAddress": "0x000000000022d473030f116ddee9f6b43ac78ba3",
      "function": "approve(address,address,uint160,uint48)",
      "arguments": [
        "0x9BDe75a5A0723038cfe4528BD0e346056bae750B",
        "0x429ba70129df741B2Ca2a85BC3A2a3328e5c09b4",
        "1461501637330902918203684832716283019655932542975",
        "281474976710655"
      ],
      "transaction": {
        "from": "0x3e723f6b81431f325e3f08e75544f254c182afe2",
        "to": "0x000000000022d473030f116ddee9f6b43ac78ba3",
        "gas": "0x1112d",
        "value": "0x0",
        "input": "0x87517c450000000000000000000000009bde75a5a0723038cfe4528bd0e346056bae750b000000000000000000000000429ba70129df741b2ca2a85bc3a2a3328e5c09b4000000000000000000000000ffffffffffffffffffffffffffffffffffffffff0000000000000000000000000000000000000000000000000000ffffffffffff",
        "nonce": "0x5a2",
        "chainId": "0xaa36a7"
      },
      "additionalContracts": [],
      "isFixedGasLimit": false
    },
    {
      "hash": "0x133bb6de1cdd791bbffd2f1ea9dda447ebd7ed5a9445e7bc5910d3d7a1bb624c",
      "transactionType": "CALL",
      "contractName": null,
      "contractAddress": "0x1ada2feb7b799d2fcb985441665649d29ae7f838",
      "function": "approve(address,uint256)",
      "arguments": [
        "0x000000000022D473030F116dDEE9F6B43aC78BA3",
        "115792089237316195423570985008687907853269984665640564039457584007913129639935"
      ],
      "transaction": {
        "from": "0x3e723f6b81431f325e3f08e75544f254c182afe2",
        "to": "0x1ada2feb7b799d2fcb985441665649d29ae7f838",
        "gas": "0x107fc",
        "value": "0x0",
        "input": "0x095ea7b3000000000000000000000000000000000022d473030f116ddee9f6b43ac78ba3ffffffffffffffffffffffffffffffffffffffffffffffffffffffffffffffff",
        "nonce": "0x5a3",
        "chainId": "0xaa36a7"
      },
      "additionalContracts": [],
      "isFixedGasLimit": false
    },
    {
      "hash": "0x051a747831accd6e1187b166dd4f7ba064ac59ff52881ad09f747e1e66371f1b",
      "transactionType": "CALL",
      "contractName": null,
      "contractAddress": "0x000000000022d473030f116ddee9f6b43ac78ba3",
      "function": "approve(address,address,uint160,uint48)",
      "arguments": [
        "0x1ada2FEB7b799D2fcb985441665649D29aE7f838",
        "0x429ba70129df741B2Ca2a85BC3A2a3328e5c09b4",
        "1461501637330902918203684832716283019655932542975",
        "281474976710655"
      ],
      "transaction": {
        "from": "0x3e723f6b81431f325e3f08e75544f254c182afe2",
        "to": "0x000000000022d473030f116ddee9f6b43ac78ba3",
        "gas": "0x1112d",
        "value": "0x0",
        "input": "0x87517c450000000000000000000000001ada2feb7b799d2fcb985441665649d29ae7f838000000000000000000000000429ba70129df741b2ca2a85bc3a2a3328e5c09b4000000000000000000000000ffffffffffffffffffffffffffffffffffffffff0000000000000000000000000000000000000000000000000000ffffffffffff",
        "nonce": "0x5a4",
        "chainId": "0xaa36a7"
      },
      "additionalContracts": [],
      "isFixedGasLimit": false
    },
    {
      "hash": "0x268670e74da0edd2e60f95f58f25ddeb691726c91b5f817e4dbeb10af8221728",
      "transactionType": "CALL",
      "contractName": null,
      "contractAddress": "0x429ba70129df741b2ca2a85bc3a2a3328e5c09b4",
      "function": "modifyLiquidities(bytes,uint256)",
      "arguments": [
        "0x000000000000000000000000000000000000000000000000000000000000004000000000000000000000000000000000000000000000000000000000000000800000000000000000000000000000000000000000000000000000000000000004020d14140000000000000000000000000000000000000000000000000000000000000000000000000000000000000000000000000000000000000000000000040000000000000000000000000000000000000000000000000000000000000080000000000000000000000000000000000000000000000000000000000000024000000000000000000000000000000000000000000000000000000000000002a0000000000000000000000000000000000000000000000000000000000000030000000000000000000000000000000000000000000000000000000000000001a00000000000000000000000001ada2feb7b799d2fcb985441665649d29ae7f8380000000000000000000000009bde75a5a0723038cfe4528bd0e346056bae750b0000000000000000000000000000000000000000000000000000000000000bb8000000000000000000000000000000000000000000000000000000000000003c0000000000000000000000000000000000000000000000000000000000000000fffffffffffffffffffffffffffffffffffffffffffffffffffffffffffffda800000000000000000000000000000000000000000000000000000000000002580000000000000000000000000000000000000000000000b76ef6d7d1e8594b010000000000000000000000000000000000000000000000056bc75e2d631000010000000000000000000000000000000000000000000000056bc75e2d631000010000000000000000000000003e723f6b81431f325e3f08e75544f254c182afe20000000000000000000000000000000000000000000000000000000000000180000000000000000000000000000000000000000000000000000000000000000000000000000000000000000000000000000000000000000000000000000000400000000000000000000000001ada2feb7b799d2fcb985441665649d29ae7f8380000000000000000000000009bde75a5a0723038cfe4528bd0e346056bae750b00000000000000000000000000000000000000000000000000000000000000400000000000000000000000001ada2feb7b799d2fcb985441665649d29ae7f8380000000000000000000000003e723f6b81431f325e3f08e75544f254c182afe200000000000000000000000000000000000000000000000000000000000000400000000000000000000000009bde75a5a0723038cfe4528bd0e346056bae750b0000000000000000000000003e723f6b81431f325e3f08e75544f254c182afe2",
        "1758167424"
      ],
      "transaction": {
        "from": "0x3e723f6b81431f325e3f08e75544f254c182afe2",
        "to": "0x429ba70129df741b2ca2a85bc3a2a3328e5c09b4",
        "gas": "0x9356d",
        "value": "0x0",
        "input": "0xdd46508f00000000000000000000000000000000000000000000000000000000000000400000000000000000000000000000000000000000000000000000000068cb81800000000000000000000000000000000000000000000000000000000000000400000000000000000000000000000000000000000000000000000000000000004000000000000000000000000000000000000000000000000000000000000000800000000000000000000000000000000000000000000000000000000000000004020d14140000000000000000000000000000000000000000000000000000000000000000000000000000000000000000000000000000000000000000000000040000000000000000000000000000000000000000000000000000000000000080000000000000000000000000000000000000000000000000000000000000024000000000000000000000000000000000000000000000000000000000000002a0000000000000000000000000000000000000000000000000000000000000030000000000000000000000000000000000000000000000000000000000000001a00000000000000000000000001ada2feb7b799d2fcb985441665649d29ae7f8380000000000000000000000009bde75a5a0723038cfe4528bd0e346056bae750b0000000000000000000000000000000000000000000000000000000000000bb8000000000000000000000000000000000000000000000000000000000000003c0000000000000000000000000000000000000000000000000000000000000000fffffffffffffffffffffffffffffffffffffffffffffffffffffffffffffda800000000000000000000000000000000000000000000000000000000000002580000000000000000000000000000000000000000000000b76ef6d7d1e8594b010000000000000000000000000000000000000000000000056bc75e2d631000010000000000000000000000000000000000000000000000056bc75e2d631000010000000000000000000000003e723f6b81431f325e3f08e75544f254c182afe20000000000000000000000000000000000000000000000000000000000000180000000000000000000000000000000000000000000000000000000000000000000000000000000000000000000000000000000000000000000000000000000400000000000000000000000001ada2feb7b799d2fcb985441665649d29ae7f8380000000000000000000000009bde75a5a0723038cfe4528bd0e346056bae750b00000000000000000000000000000000000000000000000000000000000000400000000000000000000000001ada2feb7b799d2fcb985441665649d29ae7f8380000000000000000000000003e723f6b81431f325e3f08e75544f254c182afe200000000000000000000000000000000000000000000000000000000000000400000000000000000000000009bde75a5a0723038cfe4528bd0e346056bae750b0000000000000000000000003e723f6b81431f325e3f08e75544f254c182afe2",
        "nonce": "0x5a5",
        "chainId": "0xaa36a7"
      },
      "additionalContracts": [],
      "isFixedGasLimit": false
    }
  ],
  "receipts": [
    {
      "status": "0x1",
      "cumulativeGasUsed": "0x1f2da15",
      "logs": [
        {
          "address": "0xe03a1074c86cfedd5c142c4f04f1a1536e203543",
          "topics": [
            "0xdd466e674ea557f56295e2d0218a125ea4b4f0f6f3307b95f85e6110838d6438",
            "0x6df9863a379f04d726a4613088efb0601f7ece024419faead693edc46201af74",
            "0x0000000000000000000000001ada2feb7b799d2fcb985441665649d29ae7f838",
            "0x0000000000000000000000009bde75a5a0723038cfe4528bd0e346056bae750b"
          ],
          "data": "0x0000000000000000000000000000000000000000000000000000000000000bb8000000000000000000000000000000000000000000000000000000000000003c000000000000000000000000000000000000000000000000000000000000000000000000000000000000000000000000000000010000000000000000000000000000000000000000000000000000000000000000000000000000000000000000",
          "blockHash": "0xa318353b044d02a025ba8cc57c1ecf791a61e0393bab1f2b76aacbf07c385eef",
          "blockNumber": "0x8cc7e9",
          "blockTimestamp": "0x68cb8198",
          "transactionHash": "0xa82329029bbd9b7016eb975aa88c3f6d31acebff98fb3625ed26d9ed5033a993",
          "transactionIndex": "0x10a",
          "logIndex": "0x11d",
          "removed": false
        }
      ],
      "logsBloom": "0x00000000000000000000000000000000000000000000000000000000000000000000000000000000200000000000000000001100000000000000800000000000000000280000000000000000000000000000000000000000000000000000000000000000000000000000000000000000000000000000100000000000000000000000000000000008000000010000000000000001000000000000000000200000000000000000000000000000000000000000000000020000000001000000000000000000000000000000000000000000000000000000000000000000000000001000000000000000000000000000000000002000000000000000000000000000",
      "type": "0x2",
      "transactionHash": "0xa82329029bbd9b7016eb975aa88c3f6d31acebff98fb3625ed26d9ed5033a993",
      "transactionIndex": "0x10a",
      "blockHash": "0xa318353b044d02a025ba8cc57c1ecf791a61e0393bab1f2b76aacbf07c385eef",
      "blockNumber": "0x8cc7e9",
      "gasUsed": "0xdb17",
      "effectiveGasPrice": "0xf4259",
      "from": "0x3e723f6b81431f325e3f08e75544f254c182afe2",
      "to": "0x429ba70129df741b2ca2a85bc3a2a3328e5c09b4",
      "contractAddress": null
    },
    {
      "status": "0x1",
      "cumulativeGasUsed": "0x1f38ec6",
      "logs": [
        {
          "address": "0x9bde75a5a0723038cfe4528bd0e346056bae750b",
          "topics": [
            "0x8c5be1e5ebec7d5bd14f71427d1e84f3dd0314c0f7b2291e5b200ac8c7c3b925",
            "0x0000000000000000000000003e723f6b81431f325e3f08e75544f254c182afe2",
            "0x0000000000000000000000000037ae64fae0fb8353525511c6fae6077e507880"
          ],
          "data": "0xffffffffffffffffffffffffffffffffffffffffffffffffffffffffffffffff",
          "blockHash": "0xa318353b044d02a025ba8cc57c1ecf791a61e0393bab1f2b76aacbf07c385eef",
          "blockNumber": "0x8cc7e9",
          "blockTimestamp": "0x68cb8198",
          "transactionHash": "0x2bbbe7bb1b23148f001abe9ec26480f0d01faa2df559cf0785083ac9c4fc20f1",
          "transactionIndex": "0x10b",
          "logIndex": "0x11e",
          "removed": false
        }
      ],
      "logsBloom": "0x00000000000000000000000000000000000000000000000000000000000000000000000000000000000000000000200000200000080000000000000000200000000000000000000000000000000002000080000000000000000000000000000000000000000000000000000000000000000000000000000000000000000000000000000004000000000000000000000002000000000000000000000000000000020000000000000080000000000000000000000000000000000010000000000000000000000000000000000000000000000000000000000000000000000000000010000000000000000000000000000000000000000000000000000000000000",
      "type": "0x2",
      "transactionHash": "0x2bbbe7bb1b23148f001abe9ec26480f0d01faa2df559cf0785083ac9c4fc20f1",
      "transactionIndex": "0x10b",
      "blockHash": "0xa318353b044d02a025ba8cc57c1ecf791a61e0393bab1f2b76aacbf07c385eef",
      "blockNumber": "0x8cc7e9",
      "gasUsed": "0xb4b1",
      "effectiveGasPrice": "0xf4259",
      "from": "0x3e723f6b81431f325e3f08e75544f254c182afe2",
      "to": "0x9bde75a5a0723038cfe4528bd0e346056bae750b",
      "contractAddress": null
    },
    {
      "status": "0x1",
      "cumulativeGasUsed": "0x1f44377",
      "logs": [
        {
          "address": "0x1ada2feb7b799d2fcb985441665649d29ae7f838",
          "topics": [
            "0x8c5be1e5ebec7d5bd14f71427d1e84f3dd0314c0f7b2291e5b200ac8c7c3b925",
            "0x0000000000000000000000003e723f6b81431f325e3f08e75544f254c182afe2",
            "0x0000000000000000000000000037ae64fae0fb8353525511c6fae6077e507880"
          ],
          "data": "0xffffffffffffffffffffffffffffffffffffffffffffffffffffffffffffffff",
          "blockHash": "0xa318353b044d02a025ba8cc57c1ecf791a61e0393bab1f2b76aacbf07c385eef",
          "blockNumber": "0x8cc7e9",
          "blockTimestamp": "0x68cb8198",
          "transactionHash": "0x9d6a9d09574b93f2abac40d55a0ff2f9fe65cd4c912cbd89937694109edd009e",
          "transactionIndex": "0x10c",
          "logIndex": "0x11f",
          "removed": false
        }
      ],
      "logsBloom": "0x00040000000000000000000000000000000000000000000000000000800000000000000000000000000000000000200000000000080000000000000000200000000000000000000000000000000002000000000000000000000000000000000000000000000000000000000000000000000000000000000000000000000000000000000004000000000000000000000000000000000000000000000000000000020000000000000080000000000000000000000000000000000010000000000000000000000000000000000000000000000000000000000000000000000000000010000000000000000000000000000000000000000000000000000800000000",
      "type": "0x2",
      "transactionHash": "0x9d6a9d09574b93f2abac40d55a0ff2f9fe65cd4c912cbd89937694109edd009e",
      "transactionIndex": "0x10c",
      "blockHash": "0xa318353b044d02a025ba8cc57c1ecf791a61e0393bab1f2b76aacbf07c385eef",
      "blockNumber": "0x8cc7e9",
      "gasUsed": "0xb4b1",
      "effectiveGasPrice": "0xf4259",
      "from": "0x3e723f6b81431f325e3f08e75544f254c182afe2",
      "to": "0x1ada2feb7b799d2fcb985441665649d29ae7f838",
      "contractAddress": null
    },
    {
      "status": "0x1",
      "cumulativeGasUsed": "0x1f4f834",
      "logs": [
        {
          "address": "0x9bde75a5a0723038cfe4528bd0e346056bae750b",
          "topics": [
            "0x8c5be1e5ebec7d5bd14f71427d1e84f3dd0314c0f7b2291e5b200ac8c7c3b925",
            "0x0000000000000000000000003e723f6b81431f325e3f08e75544f254c182afe2",
            "0x000000000000000000000000e03a1074c86cfedd5c142c4f04f1a1536e203543"
          ],
          "data": "0xffffffffffffffffffffffffffffffffffffffffffffffffffffffffffffffff",
          "blockHash": "0xa318353b044d02a025ba8cc57c1ecf791a61e0393bab1f2b76aacbf07c385eef",
          "blockNumber": "0x8cc7e9",
          "blockTimestamp": "0x68cb8198",
          "transactionHash": "0x62b7e332d570fdc472653261b06d3ba4926692d655a1d346e7c1b5dab1a3b0ab",
          "transactionIndex": "0x10d",
          "logIndex": "0x120",
          "removed": false
        }
      ],
      "logsBloom": "0x00000000000000000000000000000000000000000000000000000000000000000000000000000000000000000000000000200000080000000000000000200000000000000000000000000000000000000080000000000000000000000000000000000000000000000000000080000000000000000000000000000000000000000000000000000000000010000000000002000000000000000000000000000000020000000000000080000000000000000000000000000000000010000000000000000000000000000000000000000000000000000000000000001000000000000010000000000000000000000000000000000000000000000000000000000000",
      "type": "0x2",
      "transactionHash": "0x62b7e332d570fdc472653261b06d3ba4926692d655a1d346e7c1b5dab1a3b0ab",
      "transactionIndex": "0x10d",
      "blockHash": "0xa318353b044d02a025ba8cc57c1ecf791a61e0393bab1f2b76aacbf07c385eef",
      "blockNumber": "0x8cc7e9",
      "gasUsed": "0xb4bd",
      "effectiveGasPrice": "0xf4259",
      "from": "0x3e723f6b81431f325e3f08e75544f254c182afe2",
      "to": "0x9bde75a5a0723038cfe4528bd0e346056bae750b",
      "contractAddress": null
    },
    {
      "status": "0x1",
      "cumulativeGasUsed": "0x1f5acf1",
      "logs": [
        {
          "address": "0x1ada2feb7b799d2fcb985441665649d29ae7f838",
          "topics": [
            "0x8c5be1e5ebec7d5bd14f71427d1e84f3dd0314c0f7b2291e5b200ac8c7c3b925",
            "0x0000000000000000000000003e723f6b81431f325e3f08e75544f254c182afe2",
            "0x000000000000000000000000e03a1074c86cfedd5c142c4f04f1a1536e203543"
          ],
          "data": "0xffffffffffffffffffffffffffffffffffffffffffffffffffffffffffffffff",
          "blockHash": "0xa318353b044d02a025ba8cc57c1ecf791a61e0393bab1f2b76aacbf07c385eef",
          "blockNumber": "0x8cc7e9",
          "blockTimestamp": "0x68cb8198",
          "transactionHash": "0x99efa891665863a8e8d5f754516e6e545d050020828fc8debb480bf611d19106",
          "transactionIndex": "0x10e",
          "logIndex": "0x121",
          "removed": false
        }
      ],
      "logsBloom": "0x00040000000000000000000000000000000000000000000000000000800000000000000000000000000000000000000000000000080000000000000000200000000000000000000000000000000000000000000000000000000000000000000000000000000000000000000080000000000000000000000000000000000000000000000000000000000010000000000000000000000000000000000000000000020000000000000080000000000000000000000000000000000010000000000000000000000000000000000000000000000000000000000000001000000000000010000000000000000000000000000000000000000000000000000800000000",
      "type": "0x2",
      "transactionHash": "0x99efa891665863a8e8d5f754516e6e545d050020828fc8debb480bf611d19106",
      "transactionIndex": "0x10e",
      "blockHash": "0xa318353b044d02a025ba8cc57c1ecf791a61e0393bab1f2b76aacbf07c385eef",
      "blockNumber": "0x8cc7e9",
      "gasUsed": "0xb4bd",
      "effectiveGasPrice": "0xf4259",
      "from": "0x3e723f6b81431f325e3f08e75544f254c182afe2",
      "to": "0x1ada2feb7b799d2fcb985441665649d29ae7f838",
      "contractAddress": null
    },
    {
      "status": "0x1",
      "cumulativeGasUsed": "0x1f661ae",
      "logs": [
        {
          "address": "0x9bde75a5a0723038cfe4528bd0e346056bae750b",
          "topics": [
            "0x8c5be1e5ebec7d5bd14f71427d1e84f3dd0314c0f7b2291e5b200ac8c7c3b925",
            "0x0000000000000000000000003e723f6b81431f325e3f08e75544f254c182afe2",
            "0x000000000000000000000000429ba70129df741b2ca2a85bc3a2a3328e5c09b4"
          ],
          "data": "0xffffffffffffffffffffffffffffffffffffffffffffffffffffffffffffffff",
          "blockHash": "0xa318353b044d02a025ba8cc57c1ecf791a61e0393bab1f2b76aacbf07c385eef",
          "blockNumber": "0x8cc7e9",
          "blockTimestamp": "0x68cb8198",
          "transactionHash": "0x7cb2f9f156d7a82b2bbab5e3e028181a40d905dea34d25c15e6ddc0c493fa9b7",
          "transactionIndex": "0x10f",
          "logIndex": "0x122",
          "removed": false
        }
      ],
      "logsBloom": "0x00000000000000000000000000000000000000000000000000000000000000000000000000000040080000000000000000200000080000000000000000200000000000000000000000000000000000000080000000000000000000000000000000000000000000000000000000000000000000000000000000000800000000000000000000000000000000000000000002000000000000000000000000000000020000000000000080000000000000000000000000000000000010000000000000000000000000000000000000000000000000000000000000000000000000000010000000000000000000000000000000000000000000000000000000000000",
      "type": "0x2",
      "transactionHash": "0x7cb2f9f156d7a82b2bbab5e3e028181a40d905dea34d25c15e6ddc0c493fa9b7",
      "transactionIndex": "0x10f",
      "blockHash": "0xa318353b044d02a025ba8cc57c1ecf791a61e0393bab1f2b76aacbf07c385eef",
      "blockNumber": "0x8cc7e9",
      "gasUsed": "0xb4bd",
      "effectiveGasPrice": "0xf4259",
      "from": "0x3e723f6b81431f325e3f08e75544f254c182afe2",
      "to": "0x9bde75a5a0723038cfe4528bd0e346056bae750b",
      "contractAddress": null
    },
    {
      "status": "0x1",
      "cumulativeGasUsed": "0x1f7166b",
      "logs": [
        {
          "address": "0x1ada2feb7b799d2fcb985441665649d29ae7f838",
          "topics": [
            "0x8c5be1e5ebec7d5bd14f71427d1e84f3dd0314c0f7b2291e5b200ac8c7c3b925",
            "0x0000000000000000000000003e723f6b81431f325e3f08e75544f254c182afe2",
            "0x000000000000000000000000429ba70129df741b2ca2a85bc3a2a3328e5c09b4"
          ],
          "data": "0xffffffffffffffffffffffffffffffffffffffffffffffffffffffffffffffff",
          "blockHash": "0xa318353b044d02a025ba8cc57c1ecf791a61e0393bab1f2b76aacbf07c385eef",
          "blockNumber": "0x8cc7e9",
          "blockTimestamp": "0x68cb8198",
          "transactionHash": "0x53150a8ecf88ffc6d1921dfc649551f73cc5cbc9d2517c498f4a4bf666b32637",
          "transactionIndex": "0x110",
          "logIndex": "0x123",
          "removed": false
        }
      ],
      "logsBloom": "0x00040000000000000000000000000000000000000000000000000000800000000000000000000040080000000000000000000000080000000000000000200000000000000000000000000000000000000000000000000000000000000000000000000000000000000000000000000000000000000000000000000800000000000000000000000000000000000000000000000000000000000000000000000000020000000000000080000000000000000000000000000000000010000000000000000000000000000000000000000000000000000000000000000000000000000010000000000000000000000000000000000000000000000000000800000000",
      "type": "0x2",
      "transactionHash": "0x53150a8ecf88ffc6d1921dfc649551f73cc5cbc9d2517c498f4a4bf666b32637",
      "transactionIndex": "0x110",
      "blockHash": "0xa318353b044d02a025ba8cc57c1ecf791a61e0393bab1f2b76aacbf07c385eef",
      "blockNumber": "0x8cc7e9",
      "gasUsed": "0xb4bd",
      "effectiveGasPrice": "0xf4259",
      "from": "0x3e723f6b81431f325e3f08e75544f254c182afe2",
      "to": "0x1ada2feb7b799d2fcb985441665649d29ae7f838",
      "contractAddress": null
    },
    {
      "status": "0x1",
      "cumulativeGasUsed": "0x1f7caec",
      "logs": [
        {
          "address": "0x9bde75a5a0723038cfe4528bd0e346056bae750b",
          "topics": [
            "0x8c5be1e5ebec7d5bd14f71427d1e84f3dd0314c0f7b2291e5b200ac8c7c3b925",
            "0x0000000000000000000000003e723f6b81431f325e3f08e75544f254c182afe2",
            "0x000000000000000000000000000000000022d473030f116ddee9f6b43ac78ba3"
          ],
          "data": "0xffffffffffffffffffffffffffffffffffffffffffffffffffffffffffffffff",
          "blockHash": "0xa318353b044d02a025ba8cc57c1ecf791a61e0393bab1f2b76aacbf07c385eef",
          "blockNumber": "0x8cc7e9",
          "blockTimestamp": "0x68cb8198",
          "transactionHash": "0x0d39a252fd37cd9334b3737ccc9ccff662ed44213f0582462d2bc25c7f2c5d9d",
          "transactionIndex": "0x111",
          "logIndex": "0x124",
          "removed": false
        }
      ],
      "logsBloom": "0x00000000000000000000000000000000000000000000000000000000000000000000000000000000000000000000000000200000880000000000000000200000000000000000000000004000000000000080000000000800000000000000000000000000000000000000000000000000000000000000000000000000000000000000000000000000000000000000000002000000000000000000000000000000020000000000000080000000000000000000000000000000000010000000000000000000000000000000000000000000000000000000000000000000000000000010000000000000000000000000000000000000000000000000000000000000",
      "type": "0x2",
      "transactionHash": "0x0d39a252fd37cd9334b3737ccc9ccff662ed44213f0582462d2bc25c7f2c5d9d",
      "transactionIndex": "0x111",
      "blockHash": "0xa318353b044d02a025ba8cc57c1ecf791a61e0393bab1f2b76aacbf07c385eef",
      "blockNumber": "0x8cc7e9",
      "gasUsed": "0xb481",
      "effectiveGasPrice": "0xf4259",
      "from": "0x3e723f6b81431f325e3f08e75544f254c182afe2",
      "to": "0x9bde75a5a0723038cfe4528bd0e346056bae750b",
      "contractAddress": null
    },
    {
      "status": "0x1",
      "cumulativeGasUsed": "0x1f885b6",
      "logs": [
        {
          "address": "0x000000000022d473030f116ddee9f6b43ac78ba3",
          "topics": [
            "0xda9fa7c1b00402c17d0161b249b1ab8bbec047c5a52207b9c112deffd817036b",
            "0x0000000000000000000000003e723f6b81431f325e3f08e75544f254c182afe2",
            "0x0000000000000000000000009bde75a5a0723038cfe4528bd0e346056bae750b",
            "0x000000000000000000000000429ba70129df741b2ca2a85bc3a2a3328e5c09b4"
          ],
          "data": "0x000000000000000000000000ffffffffffffffffffffffffffffffffffffffff0000000000000000000000000000000000000000000000000000ffffffffffff",
          "blockHash": "0xa318353b044d02a025ba8cc57c1ecf791a61e0393bab1f2b76aacbf07c385eef",
          "blockNumber": "0x8cc7e9",
          "blockTimestamp": "0x68cb8198",
          "transactionHash": "0xc9f0af4e54311e10962f22cb9fab42e05d5966784b4b9df58a438b4518952803",
          "transactionIndex": "0x112",
          "logIndex": "0x125",
          "removed": false
        }
      ],
      "logsBloom": "0x00010000000000000000000000000000000000000000000000000000000000000000000000000040080000000000000000000000080000000000800000080000000000200000000000000000000000000000000000000000000000000000000000000000000000000000000000000000000000000000000000000800000000000020000000000000000000000000000000000000000000000000000000000000000000000000000080000000000000000000000000000000000011080000000000000000000000000000000000000000000000000000000040000000000000000000000000000000000000000000000000000000000000000000000000000400",
      "type": "0x2",
      "transactionHash": "0xc9f0af4e54311e10962f22cb9fab42e05d5966784b4b9df58a438b4518952803",
      "transactionIndex": "0x112",
      "blockHash": "0xa318353b044d02a025ba8cc57c1ecf791a61e0393bab1f2b76aacbf07c385eef",
      "blockNumber": "0x8cc7e9",
      "gasUsed": "0xbaca",
      "effectiveGasPrice": "0xf4259",
      "from": "0x3e723f6b81431f325e3f08e75544f254c182afe2",
      "to": "0x000000000022d473030f116ddee9f6b43ac78ba3",
      "contractAddress": null
    },
    {
      "status": "0x1",
      "cumulativeGasUsed": "0x1f93a37",
      "logs": [
        {
          "address": "0x1ada2feb7b799d2fcb985441665649d29ae7f838",
          "topics": [
            "0x8c5be1e5ebec7d5bd14f71427d1e84f3dd0314c0f7b2291e5b200ac8c7c3b925",
            "0x0000000000000000000000003e723f6b81431f325e3f08e75544f254c182afe2",
            "0x000000000000000000000000000000000022d473030f116ddee9f6b43ac78ba3"
          ],
          "data": "0xffffffffffffffffffffffffffffffffffffffffffffffffffffffffffffffff",
          "blockHash": "0xa318353b044d02a025ba8cc57c1ecf791a61e0393bab1f2b76aacbf07c385eef",
          "blockNumber": "0x8cc7e9",
          "blockTimestamp": "0x68cb8198",
          "transactionHash": "0x133bb6de1cdd791bbffd2f1ea9dda447ebd7ed5a9445e7bc5910d3d7a1bb624c",
          "transactionIndex": "0x113",
          "logIndex": "0x126",
          "removed": false
        }
      ],
      "logsBloom": "0x00040000000000000000000000000000000000000000000000000000800000000000000000000000000000000000000000000000880000000000000000200000000000000000000000004000000000000000000000000800000000000000000000000000000000000000000000000000000000000000000000000000000000000000000000000000000000000000000000000000000000000000000000000000020000000000000080000000000000000000000000000000000010000000000000000000000000000000000000000000000000000000000000000000000000000010000000000000000000000000000000000000000000000000000800000000",
      "type": "0x2",
      "transactionHash": "0x133bb6de1cdd791bbffd2f1ea9dda447ebd7ed5a9445e7bc5910d3d7a1bb624c",
      "transactionIndex": "0x113",
      "blockHash": "0xa318353b044d02a025ba8cc57c1ecf791a61e0393bab1f2b76aacbf07c385eef",
      "blockNumber": "0x8cc7e9",
      "gasUsed": "0xb481",
      "effectiveGasPrice": "0xf4259",
      "from": "0x3e723f6b81431f325e3f08e75544f254c182afe2",
      "to": "0x1ada2feb7b799d2fcb985441665649d29ae7f838",
      "contractAddress": null
    },
    {
      "status": "0x1",
      "cumulativeGasUsed": "0x1f9f501",
      "logs": [
        {
          "address": "0x000000000022d473030f116ddee9f6b43ac78ba3",
          "topics": [
            "0xda9fa7c1b00402c17d0161b249b1ab8bbec047c5a52207b9c112deffd817036b",
            "0x0000000000000000000000003e723f6b81431f325e3f08e75544f254c182afe2",
            "0x0000000000000000000000001ada2feb7b799d2fcb985441665649d29ae7f838",
            "0x000000000000000000000000429ba70129df741b2ca2a85bc3a2a3328e5c09b4"
          ],
          "data": "0x000000000000000000000000ffffffffffffffffffffffffffffffffffffffff0000000000000000000000000000000000000000000000000000ffffffffffff",
          "blockHash": "0xa318353b044d02a025ba8cc57c1ecf791a61e0393bab1f2b76aacbf07c385eef",
          "blockNumber": "0x8cc7e9",
          "blockTimestamp": "0x68cb8198",
          "transactionHash": "0x051a747831accd6e1187b166dd4f7ba064ac59ff52881ad09f747e1e66371f1b",
          "transactionIndex": "0x114",
          "logIndex": "0x127",
          "removed": false
        }
      ],
      "logsBloom": "0x00010000000000000000000000000000000000000000000000000000000000000000000000000040080000000000000000000000080000000000000000080000000000080000000000000000000000000000000000000000000000000000000000000000000000000000000000000000000000000000000000000800000000000020000000000000000000000000000000000000000000000000000000000000000000000000000080000000000000000000000000020000000010080000000000000000000000000000000000000000000000000000000040000000000000000000000000000000000000000000000000002000000000000000000000000400",
      "type": "0x2",
      "transactionHash": "0x051a747831accd6e1187b166dd4f7ba064ac59ff52881ad09f747e1e66371f1b",
      "transactionIndex": "0x114",
      "blockHash": "0xa318353b044d02a025ba8cc57c1ecf791a61e0393bab1f2b76aacbf07c385eef",
      "blockNumber": "0x8cc7e9",
      "gasUsed": "0xbaca",
      "effectiveGasPrice": "0xf4259",
      "from": "0x3e723f6b81431f325e3f08e75544f254c182afe2",
      "to": "0x000000000022d473030f116ddee9f6b43ac78ba3",
      "contractAddress": null
    }
  ],
  "libraries": [],
  "pending": [],
  "returns": {},
  "timestamp": 1758167451529,
  "chain": 11155111,
  "commit": "7b9c819"
}