{
  "transactions": [
    {
      "hash": "0xa9d3b6c501d2ce84df8c77c70b4529796562ca973567c57bfb46ad2c262c9620",
      "transactionType": "CALL",
      "contractName": null,
      "contractAddress": "0x429ba70129df741b2ca2a85bc3a2a3328e5c09b4",
      "function": "initializePool((address,address,uint24,int24,address),uint160)",
      "arguments": [
        "(0xB188e6d9385029E688a06355CA495206909f3a39, 0xc455B34645e931fe73950aE70b4bC38380664Fa2, 3000, 60, 0x7bf213f1198410bA01FE4ac735d1C77A9d627880)",
        "79228162514264337593543950336"
      ],
      "transaction": {
        "from": "0x3e723f6b81431f325e3f08e75544f254c182afe2",
        "to": "0x429ba70129df741b2ca2a85bc3a2a3328e5c09b4",
        "gas": "0x8aa86",
        "value": "0x0",
        "input": "0xf7020405000000000000000000000000b188e6d9385029e688a06355ca495206909f3a39000000000000000000000000c455b34645e931fe73950ae70b4bc38380664fa20000000000000000000000000000000000000000000000000000000000000bb8000000000000000000000000000000000000000000000000000000000000003c0000000000000000000000007bf213f1198410ba01fe4ac735d1c77a9d6278800000000000000000000000000000000000000001000000000000000000000000",
        "nonce": "0x4ef",
        "chainId": "0xaa36a7"
      },
      "additionalContracts": [],
      "isFixedGasLimit": false
    },
    {
      "hash": "0xf131c55e0dbbc31d4c440a3f35fdaa35a96951a22f2fb646ffac0821b932defe",
      "transactionType": "CALL",
      "contractName": null,
      "contractAddress": "0xc455b34645e931fe73950ae70b4bc38380664fa2",
      "function": "approve(address,uint256)",
      "arguments": [
        "0x7bf213f1198410bA01FE4ac735d1C77A9d627880",
        "115792089237316195423570985008687907853269984665640564039457584007913129639935"
      ],
      "transaction": {
        "from": "0x3e723f6b81431f325e3f08e75544f254c182afe2",
        "to": "0xc455b34645e931fe73950ae70b4bc38380664fa2",
        "gas": "0xf9a4",
        "value": "0x0",
        "input": "0x095ea7b30000000000000000000000007bf213f1198410ba01fe4ac735d1c77a9d627880ffffffffffffffffffffffffffffffffffffffffffffffffffffffffffffffff",
        "nonce": "0x4f0",
        "chainId": "0xaa36a7"
      },
      "additionalContracts": [],
      "isFixedGasLimit": false
    },
    {
      "hash": "0xe58686cb6b58a3085bdff1d5017cf1c3533b0d61948cbe40d8e4c356bc874bd6",
      "transactionType": "CALL",
      "contractName": null,
      "contractAddress": "0xb188e6d9385029e688a06355ca495206909f3a39",
      "function": "approve(address,uint256)",
      "arguments": [
        "0x7bf213f1198410bA01FE4ac735d1C77A9d627880",
        "115792089237316195423570985008687907853269984665640564039457584007913129639935"
      ],
      "transaction": {
        "from": "0x3e723f6b81431f325e3f08e75544f254c182afe2",
        "to": "0xb188e6d9385029e688a06355ca495206909f3a39",
        "gas": "0xf9a4",
        "value": "0x0",
        "input": "0x095ea7b30000000000000000000000007bf213f1198410ba01fe4ac735d1c77a9d627880ffffffffffffffffffffffffffffffffffffffffffffffffffffffffffffffff",
        "nonce": "0x4f1",
        "chainId": "0xaa36a7"
      },
      "additionalContracts": [],
      "isFixedGasLimit": false
    },
    {
      "hash": "0x8061af0273660c27af10fb5533108133367ca0a5778b77b53c943125f43fc703",
      "transactionType": "CALL",
      "contractName": null,
      "contractAddress": "0xc455b34645e931fe73950ae70b4bc38380664fa2",
      "function": "approve(address,uint256)",
      "arguments": [
        "0xE03A1074c86CFeDd5C142C4F04F1a1536e203543",
        "115792089237316195423570985008687907853269984665640564039457584007913129639935"
      ],
      "transaction": {
        "from": "0x3e723f6b81431f325e3f08e75544f254c182afe2",
        "to": "0xc455b34645e931fe73950ae70b4bc38380664fa2",
        "gas": "0xf9a4",
        "value": "0x0",
        "input": "0x095ea7b3000000000000000000000000e03a1074c86cfedd5c142c4f04f1a1536e203543ffffffffffffffffffffffffffffffffffffffffffffffffffffffffffffffff",
        "nonce": "0x4f2",
        "chainId": "0xaa36a7"
      },
      "additionalContracts": [],
      "isFixedGasLimit": false
    },
    {
      "hash": "0x48b336a17796264c69ca70a3491b1609985561f354f0adcd4556f209f28787c4",
      "transactionType": "CALL",
      "contractName": null,
      "contractAddress": "0xb188e6d9385029e688a06355ca495206909f3a39",
      "function": "approve(address,uint256)",
      "arguments": [
        "0xE03A1074c86CFeDd5C142C4F04F1a1536e203543",
        "115792089237316195423570985008687907853269984665640564039457584007913129639935"
      ],
      "transaction": {
        "from": "0x3e723f6b81431f325e3f08e75544f254c182afe2",
        "to": "0xb188e6d9385029e688a06355ca495206909f3a39",
        "gas": "0xf9a4",
        "value": "0x0",
        "input": "0x095ea7b3000000000000000000000000e03a1074c86cfedd5c142c4f04f1a1536e203543ffffffffffffffffffffffffffffffffffffffffffffffffffffffffffffffff",
        "nonce": "0x4f3",
        "chainId": "0xaa36a7"
      },
      "additionalContracts": [],
      "isFixedGasLimit": false
    }
  ],
  "receipts": [
    {
      "status": "0x1",
      "cumulativeGasUsed": "0x2d2c22c",
      "logs": [
        {
          "address": "0xea30c4b8b44078bbf8a6ef5b9f1ec1626c7848d9",
          "topics": [
            "0xe9de54a3e7ddf0c48cc6e1134185300d5a71acbf2d8c21fcdefa9d9dd9e20ac1"
          ],
          "data": "0xbb39351b2bc70ad6be41519c393ba92b7146cf5c8fcae77c8a1f6982d55c880000000000000000000000000000000000000000000000000000000000000000a0000000000000000000000000000000000000000000000000000000000000012c00000000000000000000000000000000000000000000000000000000000000080000000000000000000000000000000000000000000000000000000000000000000000000000000000000000000000000000000000000000000000000000000e7472697669616c456e6372797074000000000000000000000000000000000000",
          "blockHash": "0xc702c79a3f63b4ed176d315a5420c224f9afe3a6271582cccd1b75ce3f164364",
          "blockNumber": "0x8cadb3",
          "blockTimestamp": "0x68ca2e5c",
          "transactionHash": "0xa9d3b6c501d2ce84df8c77c70b4529796562ca973567c57bfb46ad2c262c9620",
          "transactionIndex": "0x8d",
          "logIndex": "0x6e",
          "removed": false
        },
        {
          "address": "0xea30c4b8b44078bbf8a6ef5b9f1ec1626c7848d9",
          "topics": [
            "0xe9de54a3e7ddf0c48cc6e1134185300d5a71acbf2d8c21fcdefa9d9dd9e20ac1"
          ],
          "data": "0x1253f33bcc7d14ead4330255d5baaf2209a953415c511c19411382f6423f840000000000000000000000000000000000000000000000000000000000000000a000000000000000000000000000000000000000000000000000000000000000b400000000000000000000000000000000000000000000000000000000000000040000000000000000000000000000000000000000000000000000000000000000000000000000000000000000000000000000000000000000000000000000000e7472697669616c456e6372797074000000000000000000000000000000000000",
          "blockHash": "0xc702c79a3f63b4ed176d315a5420c224f9afe3a6271582cccd1b75ce3f164364",
          "blockNumber": "0x8cadb3",
          "blockTimestamp": "0x68ca2e5c",
          "transactionHash": "0xa9d3b6c501d2ce84df8c77c70b4529796562ca973567c57bfb46ad2c262c9620",
          "transactionIndex": "0x8d",
          "logIndex": "0x6f",
          "removed": false
        },
        {
          "address": "0xea30c4b8b44078bbf8a6ef5b9f1ec1626c7848d9",
          "topics": [
            "0xe9de54a3e7ddf0c48cc6e1134185300d5a71acbf2d8c21fcdefa9d9dd9e20ac1"
          ],
          "data": "0xe8c638c5370ad54fb6bc7fb3c67f13705c787cf30645cd1b92d5f61704b5840000000000000000000000000000000000000000000000000000000000000000a0000000000000000000000000000000000000000000000000000000000000006400000000000000000000000000000000000000000000000000000000000000040000000000000000000000000000000000000000000000000000000000000000000000000000000000000000000000000000000000000000000000000000000e7472697669616c456e6372797074000000000000000000000000000000000000",
          "blockHash": "0xc702c79a3f63b4ed176d315a5420c224f9afe3a6271582cccd1b75ce3f164364",
          "blockNumber": "0x8cadb3",
          "blockTimestamp": "0x68ca2e5c",
          "transactionHash": "0xa9d3b6c501d2ce84df8c77c70b4529796562ca973567c57bfb46ad2c262c9620",
          "transactionIndex": "0x8d",
          "logIndex": "0x70",
          "removed": false
        },
        {
          "address": "0xea30c4b8b44078bbf8a6ef5b9f1ec1626c7848d9",
          "topics": [
            "0xe9de54a3e7ddf0c48cc6e1134185300d5a71acbf2d8c21fcdefa9d9dd9e20ac1"
          ],
          "data": "0xb3e26d30bbd0fa3e41a1d86cb7844842fbb2638ed221cf36790bbd9c9f3e800000000000000000000000000000000000000000000000000000000000000000a0000000000000000000000000000000000000000000000000000000000000000100000000000000000000000000000000000000000000000000000000000000000000000000000000000000000000000000000000000000000000000000000000000000000000000000000000000000000000000000000000000000000000000e7472697669616c456e6372797074000000000000000000000000000000000000",
          "blockHash": "0xc702c79a3f63b4ed176d315a5420c224f9afe3a6271582cccd1b75ce3f164364",
          "blockNumber": "0x8cadb3",
          "blockTimestamp": "0x68ca2e5c",
          "transactionHash": "0xa9d3b6c501d2ce84df8c77c70b4529796562ca973567c57bfb46ad2c262c9620",
          "transactionIndex": "0x8d",
          "logIndex": "0x71",
          "removed": false
        },
        {
          "address": "0xea30c4b8b44078bbf8a6ef5b9f1ec1626c7848d9",
          "topics": [
            "0xe9de54a3e7ddf0c48cc6e1134185300d5a71acbf2d8c21fcdefa9d9dd9e20ac1"
          ],
          "data": "0xe8c638c5370ad54fb6bc7fb3c67f13705c787cf30645cd1b92d5f61704b5840000000000000000000000000000000000000000000000000000000000000000a0000000000000000000000000000000000000000000000000000000000000006400000000000000000000000000000000000000000000000000000000000000040000000000000000000000000000000000000000000000000000000000000000000000000000000000000000000000000000000000000000000000000000000e7472697669616c456e6372797074000000000000000000000000000000000000",
          "blockHash": "0xc702c79a3f63b4ed176d315a5420c224f9afe3a6271582cccd1b75ce3f164364",
          "blockNumber": "0x8cadb3",
          "blockTimestamp": "0x68ca2e5c",
          "transactionHash": "0xa9d3b6c501d2ce84df8c77c70b4529796562ca973567c57bfb46ad2c262c9620",
          "transactionIndex": "0x8d",
          "logIndex": "0x72",
          "removed": false
        },
        {
          "address": "0xea30c4b8b44078bbf8a6ef5b9f1ec1626c7848d9",
          "topics": [
            "0xe9de54a3e7ddf0c48cc6e1134185300d5a71acbf2d8c21fcdefa9d9dd9e20ac1"
          ],
          "data": "0xd8d542465d641073d3a041fe1808c3ef4b840d59b78f9a8d96485189b1f2880000000000000000000000000000000000000000000000000000000000000000a0000000000000000000000000000000000000000000000000000000000000000000000000000000000000000000000000000000000000000000000000000000080000000000000000000000000000000000000000000000000000000000000000000000000000000000000000000000000000000000000000000000000000000e7472697669616c456e6372797074000000000000000000000000000000000000",
          "blockHash": "0xc702c79a3f63b4ed176d315a5420c224f9afe3a6271582cccd1b75ce3f164364",
          "blockNumber": "0x8cadb3",
          "blockTimestamp": "0x68ca2e5c",
          "transactionHash": "0xa9d3b6c501d2ce84df8c77c70b4529796562ca973567c57bfb46ad2c262c9620",
          "transactionIndex": "0x8d",
          "logIndex": "0x73",
          "removed": false
        },
        {
          "address": "0xe03a1074c86cfedd5c142c4f04f1a1536e203543",
          "topics": [
            "0xdd466e674ea557f56295e2d0218a125ea4b4f0f6f3307b95f85e6110838d6438",
            "0xea402256372be3904df59e9088cb8314500a07fcf657bff6a282da25b98bb593",
            "0x000000000000000000000000b188e6d9385029e688a06355ca495206909f3a39",
            "0x000000000000000000000000c455b34645e931fe73950ae70b4bc38380664fa2"
          ],
          "data": "0x0000000000000000000000000000000000000000000000000000000000000bb8000000000000000000000000000000000000000000000000000000000000003c0000000000000000000000007bf213f1198410ba01fe4ac735d1c77a9d62788000000000000000000000000000000000000000010000000000000000000000000000000000000000000000000000000000000000000000000000000000000000",
          "blockHash": "0xc702c79a3f63b4ed176d315a5420c224f9afe3a6271582cccd1b75ce3f164364",
          "blockNumber": "0x8cadb3",
          "blockTimestamp": "0x68ca2e5c",
          "transactionHash": "0xa9d3b6c501d2ce84df8c77c70b4529796562ca973567c57bfb46ad2c262c9620",
          "transactionIndex": "0x8d",
          "logIndex": "0x74",
          "removed": false
        }
      ],
      "logsBloom": "0x00000000000000000000000000000000080000800000000000000000000000000000000000000000000000000000000000000100008000000000000000000000000000000000000000000000000000000000000000000000000000000000000000000000000000000000000000000000000000000000100000000000000000000000000000000018000000000040000001000001000000000000000000200008000000000000000000000000000002000000000000000000000000008000000000000000000000000000000000000000000000000000000000000000000000001000000000000000040200000000000000000000000004000000020220000000",
      "type": "0x2",
      "transactionHash": "0xa9d3b6c501d2ce84df8c77c70b4529796562ca973567c57bfb46ad2c262c9620",
      "transactionIndex": "0x8d",
      "blockHash": "0xc702c79a3f63b4ed176d315a5420c224f9afe3a6271582cccd1b75ce3f164364",
      "blockNumber": "0x8cadb3",
      "gasUsed": "0x6462d",
      "effectiveGasPrice": "0xf6421",
      "from": "0x3e723f6b81431f325e3f08e75544f254c182afe2",
      "to": "0x429ba70129df741b2ca2a85bc3a2a3328e5c09b4",
      "contractAddress": null
    },
    {
      "status": "0x1",
      "cumulativeGasUsed": "0x2d376e9",
      "logs": [
        {
          "address": "0xc455b34645e931fe73950ae70b4bc38380664fa2",
          "topics": [
            "0x8c5be1e5ebec7d5bd14f71427d1e84f3dd0314c0f7b2291e5b200ac8c7c3b925",
            "0x0000000000000000000000003e723f6b81431f325e3f08e75544f254c182afe2",
            "0x0000000000000000000000007bf213f1198410ba01fe4ac735d1c77a9d627880"
          ],
          "data": "0xffffffffffffffffffffffffffffffffffffffffffffffffffffffffffffffff",
          "blockHash": "0xc702c79a3f63b4ed176d315a5420c224f9afe3a6271582cccd1b75ce3f164364",
          "blockNumber": "0x8cadb3",
          "blockTimestamp": "0x68ca2e5c",
          "transactionHash": "0xf131c55e0dbbc31d4c440a3f35fdaa35a96951a22f2fb646ffac0821b932defe",
          "transactionIndex": "0x8e",
          "logIndex": "0x75",
          "removed": false
        }
      ],
      "logsBloom": "0x40000000000000000000000000000000000000000000000000000000000000000000000000000000000000000000000000000000080000000000000000200000000000000000000000000000000000000000000000000000000000000000000000004000000000000000000000000000000000000000000000000000000000000000000000000000000040000000000000000000000000000000000000000000020000000000000080008000400000000000000000000000000010000000000000000000000000000000000000000000000000000000000000000000000000000010010000000000000000000000000000000000000000000000000000000000",
      "type": "0x2",
      "transactionHash": "0xf131c55e0dbbc31d4c440a3f35fdaa35a96951a22f2fb646ffac0821b932defe",
      "transactionIndex": "0x8e",
      "blockHash": "0xc702c79a3f63b4ed176d315a5420c224f9afe3a6271582cccd1b75ce3f164364",
      "blockNumber": "0x8cadb3",
      "gasUsed": "0xb4bd",
      "effectiveGasPrice": "0xf6421",
      "from": "0x3e723f6b81431f325e3f08e75544f254c182afe2",
      "to": "0xc455b34645e931fe73950ae70b4bc38380664fa2",
      "contractAddress": null
    },
    {
      "status": "0x1",
      "cumulativeGasUsed": "0x2d42ba6",
      "logs": [
        {
          "address": "0xb188e6d9385029e688a06355ca495206909f3a39",
          "topics": [
            "0x8c5be1e5ebec7d5bd14f71427d1e84f3dd0314c0f7b2291e5b200ac8c7c3b925",
            "0x0000000000000000000000003e723f6b81431f325e3f08e75544f254c182afe2",
            "0x0000000000000000000000007bf213f1198410ba01fe4ac735d1c77a9d627880"
          ],
          "data": "0xffffffffffffffffffffffffffffffffffffffffffffffffffffffffffffffff",
          "blockHash": "0xc702c79a3f63b4ed176d315a5420c224f9afe3a6271582cccd1b75ce3f164364",
          "blockNumber": "0x8cadb3",
          "blockTimestamp": "0x68ca2e5c",
          "transactionHash": "0xe58686cb6b58a3085bdff1d5017cf1c3533b0d61948cbe40d8e4c356bc874bd6",
          "transactionIndex": "0x8f",
          "logIndex": "0x76",
          "removed": false
        }
      ],
      "logsBloom": "0x40000000000000000000000000000000000000000000000000000000000000000000000000000000000000000000000000000000080000000000000000200000000000000000000000000000000000000000000000000000000000000000000000000000000000000004000000000000000000000000000000000000000000000000000000000000000000000000000000000000000000000000000000200000020000000000000080008000000000000000000000000000000010000000000000000000000000000000000000000000000000000000000000000000000000000010010400000000000000000000000000000000000000000000000000000000",
      "type": "0x2",
      "transactionHash": "0xe58686cb6b58a3085bdff1d5017cf1c3533b0d61948cbe40d8e4c356bc874bd6",
      "transactionIndex": "0x8f",
      "blockHash": "0xc702c79a3f63b4ed176d315a5420c224f9afe3a6271582cccd1b75ce3f164364",
      "blockNumber": "0x8cadb3",
      "gasUsed": "0xb4bd",
      "effectiveGasPrice": "0xf6421",
      "from": "0x3e723f6b81431f325e3f08e75544f254c182afe2",
      "to": "0xb188e6d9385029e688a06355ca495206909f3a39",
      "contractAddress": null
    },
    {
      "status": "0x1",
      "cumulativeGasUsed": "0x2d5326b",
      "logs": [
        {
          "address": "0xc455b34645e931fe73950ae70b4bc38380664fa2",
          "topics": [
            "0x8c5be1e5ebec7d5bd14f71427d1e84f3dd0314c0f7b2291e5b200ac8c7c3b925",
            "0x0000000000000000000000003e723f6b81431f325e3f08e75544f254c182afe2",
            "0x000000000000000000000000e03a1074c86cfedd5c142c4f04f1a1536e203543"
          ],
          "data": "0xffffffffffffffffffffffffffffffffffffffffffffffffffffffffffffffff",
          "blockHash": "0xc702c79a3f63b4ed176d315a5420c224f9afe3a6271582cccd1b75ce3f164364",
          "blockNumber": "0x8cadb3",
          "blockTimestamp": "0x68ca2e5c",
          "transactionHash": "0x8061af0273660c27af10fb5533108133367ca0a5778b77b53c943125f43fc703",
          "transactionIndex": "0x91",
          "logIndex": "0x77",
          "removed": false
        }
      ],
      "logsBloom": "0x00000000000000000000000000000000000000000000000000000000000000000000000000000000000000000000000000000000080000000000000000200000000000000000000000000000000000000000000000000000000000000000000000004000000000000000000080000000000000000000000000000000000000000000000000000000000050000000000000000000000000000000000000000000020000000000000080000000400000000000000000000000000010000000000000000000000000000000000000000000000000000000000000001000000000000010000000000000000000000000000000000000000000000000000000000000",
      "type": "0x2",
      "transactionHash": "0x8061af0273660c27af10fb5533108133367ca0a5778b77b53c943125f43fc703",
      "transactionIndex": "0x91",
      "blockHash": "0xc702c79a3f63b4ed176d315a5420c224f9afe3a6271582cccd1b75ce3f164364",
      "blockNumber": "0x8cadb3",
      "gasUsed": "0xb4bd",
      "effectiveGasPrice": "0xf6421",
      "from": "0x3e723f6b81431f325e3f08e75544f254c182afe2",
      "to": "0xc455b34645e931fe73950ae70b4bc38380664fa2",
      "contractAddress": null
    },
    {
      "status": "0x1",
      "cumulativeGasUsed": "0x2d5e728",
      "logs": [
        {
          "address": "0xb188e6d9385029e688a06355ca495206909f3a39",
          "topics": [
            "0x8c5be1e5ebec7d5bd14f71427d1e84f3dd0314c0f7b2291e5b200ac8c7c3b925",
            "0x0000000000000000000000003e723f6b81431f325e3f08e75544f254c182afe2",
            "0x000000000000000000000000e03a1074c86cfedd5c142c4f04f1a1536e203543"
          ],
          "data": "0xffffffffffffffffffffffffffffffffffffffffffffffffffffffffffffffff",
          "blockHash": "0xc702c79a3f63b4ed176d315a5420c224f9afe3a6271582cccd1b75ce3f164364",
          "blockNumber": "0x8cadb3",
          "blockTimestamp": "0x68ca2e5c",
          "transactionHash": "0x48b336a17796264c69ca70a3491b1609985561f354f0adcd4556f209f28787c4",
          "transactionIndex": "0x92",
          "logIndex": "0x78",
          "removed": false
        }
      ],
      "logsBloom": "0x00000000000000000000000000000000000000000000000000000000000000000000000000000000000000000000000000000000080000000000000000200000000000000000000000000000000000000000000000000000000000000000000000000000000000000004000080000000000000000000000000000000000000000000000000000000000010000000000000000000000000000000000000200000020000000000000080000000000000000000000000000000000010000000000000000000000000000000000000000000000000000000000000001000000000000010000400000000000000000000000000000000000000000000000000000000",
      "type": "0x2",
      "transactionHash": "0x48b336a17796264c69ca70a3491b1609985561f354f0adcd4556f209f28787c4",
      "transactionIndex": "0x92",
      "blockHash": "0xc702c79a3f63b4ed176d315a5420c224f9afe3a6271582cccd1b75ce3f164364",
      "blockNumber": "0x8cadb3",
      "gasUsed": "0xb4bd",
      "effectiveGasPrice": "0xf6421",
      "from": "0x3e723f6b81431f325e3f08e75544f254c182afe2",
      "to": "0xb188e6d9385029e688a06355ca495206909f3a39",
      "contractAddress": null
    }
  ],
  "libraries": [],
  "pending": [],
  "returns": {},
  "timestamp": 1758080605310,
  "chain": 11155111,
  "commit": "9f61f80"
}