{
  "transactions": [
    {
      "hash": "0x16391e8d8418894db00e0bff89c1c9513d431fefd33030dd034eb746ff99146e",
      "transactionType": "CALL",
      "contractName": null,
      "contractAddress": "0x429ba70129df741b2ca2a85bc3a2a3328e5c09b4",
      "function": "initializePool((address,address,uint24,int24,address),uint160)",
      "arguments": [
        "(0x7Af099c105a27F389324a2c0A1F5Bb676c945106, 0x9E1Cf8D3970ECcC2DFfa4aABbCDCbA8555F19EA6, 3000, 60, 0x60121105481AA3355e8855B164c92908A752f880)",
        "79228162514264337593543950336"
      ],
      "transaction": {
        "from": "0x3e723f6b81431f325e3f08e75544f254c182afe2",
        "to": "0x429ba70129df741b2ca2a85bc3a2a3328e5c09b4",
        "gas": "0x30460",
        "value": "0x0",
        "input": "0xf70204050000000000000000000000007af099c105a27f389324a2c0a1f5bb676c9451060000000000000000000000009e1cf8d3970eccc2dffa4aabbcdcba8555f19ea60000000000000000000000000000000000000000000000000000000000000bb8000000000000000000000000000000000000000000000000000000000000003c00000000000000000000000060121105481aa3355e8855b164c92908a752f8800000000000000000000000000000000000000001000000000000000000000000",
        "nonce": "0x4be",
        "chainId": "0xaa36a7"
      },
      "additionalContracts": [],
      "isFixedGasLimit": false
    },
    {
      "hash": "0x0d1352f9c4846868f7d73b2a88b70ee9549be90a38f7915becbf61447a1ed8aa",
      "transactionType": "CALL",
      "contractName": null,
      "contractAddress": "0x60121105481aa3355e8855b164c92908a752f880",
      "function": "provisionLiquidity((address,address,uint24,int24,address),(address,address,uint24,uint256,address))",
      "arguments": [
        "(0x7Af099c105a27F389324a2c0A1F5Bb676c945106, 0x9E1Cf8D3970ECcC2DFfa4aABbCDCbA8555F19EA6, 3000, 60, 0x60121105481AA3355e8855B164c92908A752f880)",
        "(0x7Af099c105a27F389324a2c0A1F5Bb676c945106, 0x9E1Cf8D3970ECcC2DFfa4aABbCDCbA8555F19EA6, 3000, 1000000000000000000, 0x3e723f6B81431f325E3F08e75544F254C182AFE2)"
      ],
      "transaction": {
        "from": "0x3e723f6b81431f325e3f08e75544f254c182afe2",
        "to": "0x60121105481aa3355e8855b164c92908a752f880",
        "gas": "0x17b91",
        "value": "0x0",
        "input": "0x256373950000000000000000000000007af099c105a27f389324a2c0a1f5bb676c9451060000000000000000000000009e1cf8d3970eccc2dffa4aabbcdcba8555f19ea60000000000000000000000000000000000000000000000000000000000000bb8000000000000000000000000000000000000000000000000000000000000003c00000000000000000000000060121105481aa3355e8855b164c92908a752f8800000000000000000000000007af099c105a27f389324a2c0a1f5bb676c9451060000000000000000000000009e1cf8d3970eccc2dffa4aabbcdcba8555f19ea60000000000000000000000000000000000000000000000000000000000000bb80000000000000000000000000000000000000000000000000de0b6b3a76400000000000000000000000000003e723f6b81431f325e3f08e75544f254c182afe2",
        "nonce": "0x4bf",
        "chainId": "0xaa36a7"
      },
      "additionalContracts": [],
      "isFixedGasLimit": false
    }
  ],
  "receipts": [
    {
      "status": "0x1",
      "cumulativeGasUsed": "0x129a4ff",
      "logs": [
        {
          "address": "0xe03a1074c86cfedd5c142c4f04f1a1536e203543",
          "topics": [
            "0xdd466e674ea557f56295e2d0218a125ea4b4f0f6f3307b95f85e6110838d6438",
            "0x5dc638b2d38ca34ca2fbe00f2b975e38acaa7ed5b40f63ca657b1fa47e6fae5e",
            "0x0000000000000000000000007af099c105a27f389324a2c0a1f5bb676c945106",
            "0x0000000000000000000000009e1cf8d3970eccc2dffa4aabbcdcba8555f19ea6"
          ],
          "data": "0x0000000000000000000000000000000000000000000000000000000000000bb8000000000000000000000000000000000000000000000000000000000000003c00000000000000000000000060121105481aa3355e8855b164c92908a752f88000000000000000000000000000000000000000010000000000000000000000000000000000000000000000000000000000000000000000000000000000000000",
          "blockHash": "0x614dc96a08f73f1e4813085c95c86694dfe6ec4e452b75e9128b3d420a6c38f5",
          "blockNumber": "0x8c8aae",
          "blockTimestamp": "0x68c86aa0",
          "transactionHash": "0x16391e8d8418894db00e0bff89c1c9513d431fefd33030dd034eb746ff99146e",
          "transactionIndex": "0x55",
          "logIndex": "0x90",
          "removed": false
        }
      ],
      "logsBloom": "0x00000000000000000000000000000000000000000000000000000000000000000000000000000000002000000000000000000100000000000000000000000000000000000000000080000000000000000000000000000000000000000000000000000002002000000000000000000000000000000020100800000000000000000000000000000008002000000000000000000001000000000000000000200000000000000000000000000000000000000000000000000000000000000000000000000000000000000000000000000000000000000000000000000000000000001000000000000000000000000000000000000000000000000080000000008000",
      "type": "0x2",
      "transactionHash": "0x16391e8d8418894db00e0bff89c1c9513d431fefd33030dd034eb746ff99146e",
      "transactionIndex": "0x55",
      "blockHash": "0x614dc96a08f73f1e4813085c95c86694dfe6ec4e452b75e9128b3d420a6c38f5",
      "blockNumber": "0x8c8aae",
      "gasUsed": "0x22f30",
      "effectiveGasPrice": "0x15b4cb",
      "from": "0x3e723f6b81431f325e3f08e75544f254c182afe2",
      "to": "0x429ba70129df741b2ca2a85bc3a2a3328e5c09b4",
      "contractAddress": null
    },
    {
      "status": "0x1",
      "cumulativeGasUsed": "0x12aa888",
      "logs": [
        {
          "address": "0x60121105481aa3355e8855b164c92908a752f880",
          "topics": [
            "0xe31ffd331b95b0059619a3fe6e00b227e9bce355f3ef69787e89e49bf76a2bdf",
            "0x5dc638b2d38ca34ca2fbe00f2b975e38acaa7ed5b40f63ca657b1fa47e6fae5e",
            "0x0000000000000000000000003e723f6b81431f325e3f08e75544f254c182afe2"
          ],
          "data": "0x0000000000000000000000000000000000000000000000000de0b6b3a7640000ffffffffffffffffffffffffffffffffffffffffffffffffffffffffffffffc4000000000000000000000000000000000000000000000000000000000000003c",
          "blockHash": "0x614dc96a08f73f1e4813085c95c86694dfe6ec4e452b75e9128b3d420a6c38f5",
          "blockNumber": "0x8c8aae",
          "blockTimestamp": "0x68c86aa0",
          "transactionHash": "0x0d1352f9c4846868f7d73b2a88b70ee9549be90a38f7915becbf61447a1ed8aa",
          "transactionIndex": "0x56",
          "logIndex": "0x91",
          "removed": false
        }
      ],
      "logsBloom": "0x000000000000000000000000000000000000000000000000000000000000000001000000000000000000000000000000000000000800000000000000000000000000000200000000000000000000000000000000000000000000000000000000000000020020000000000000000000000000000000000000000000000000000000000000000000000000000000000000000000000000000000000000000000000000000000000000c0000000000000000000000000000000000010000000000000000000000000000010000000000000000000000000000000000000000000000200000000000000000000000000000000000000000000000080000100000000",
      "type": "0x2",
      "transactionHash": "0x0d1352f9c4846868f7d73b2a88b70ee9549be90a38f7915becbf61447a1ed8aa",
      "transactionIndex": "0x56",
      "blockHash": "0x614dc96a08f73f1e4813085c95c86694dfe6ec4e452b75e9128b3d420a6c38f5",
      "blockNumber": "0x8c8aae",
      "gasUsed": "0x10389",
      "effectiveGasPrice": "0x15b4cb",
      "from": "0x3e723f6b81431f325e3f08e75544f254c182afe2",
      "to": "0x60121105481aa3355e8855b164c92908a752f880",
      "contractAddress": null
    }
  ],
  "libraries": [],
  "pending": [],
  "returns": {},
  "timestamp": 1757964962313,
  "chain": 11155111,
  "commit": "c68face"
}