{
  "transactions": [
    {
      "hash": "0x6cb903ab4de8c6dbf08e7e5d8d5f470ce0db8863b2788678befdde9bc1c13f3f",
      "transactionType": "CALL",
      "contractName": null,
      "contractAddress": "0xabc0afb70f325f4119cfca4083ea2a580ec40d3f",
      "function": "approve(address,uint256)",
      "arguments": [
        "0x429ba70129df741B2Ca2a85BC3A2a3328e5c09b4",
        "115792089237316195423570985008687907853269984665640564039457584007913129639935"
      ],
      "transaction": {
        "from": "0x3e723f6b81431f325e3f08e75544f254c182afe2",
        "to": "0xabc0afb70f325f4119cfca4083ea2a580ec40d3f",
        "gas": "0x96a4",
        "value": "0x0",
        "input": "0x095ea7b3000000000000000000000000429ba70129df741b2ca2a85bc3a2a3328e5c09b4ffffffffffffffffffffffffffffffffffffffffffffffffffffffffffffffff",
        "nonce": "0x60e",
        "chainId": "0xaa36a7"
      },
      "additionalContracts": [],
      "isFixedGasLimit": false
    },
    {
      "hash": "0x91b591810ee99b064bc2385dc1b20281f07af126a83d9a579bd6fbc409580ec0",
      "transactionType": "CALL",
      "contractName": null,
      "contractAddress": "0x3e68f0f304314495fa45907170a59d0ba5218bcc",
      "function": "approve(address,uint256)",
      "arguments": [
        "0x429ba70129df741B2Ca2a85BC3A2a3328e5c09b4",
        "115792089237316195423570985008687907853269984665640564039457584007913129639935"
      ],
      "transaction": {
        "from": "0x3e723f6b81431f325e3f08e75544f254c182afe2",
        "to": "0x3e68f0f304314495fa45907170a59d0ba5218bcc",
        "gas": "0x96a4",
        "value": "0x0",
        "input": "0x095ea7b3000000000000000000000000429ba70129df741b2ca2a85bc3a2a3328e5c09b4ffffffffffffffffffffffffffffffffffffffffffffffffffffffffffffffff",
        "nonce": "0x60f",
        "chainId": "0xaa36a7"
      },
      "additionalContracts": [],
      "isFixedGasLimit": false
    },
    {
      "hash": "0x7d69b77052b1f9787303d15333bdba19fbfeac73c4831c2b1d3fbb086c855733",
      "transactionType": "CALL",
      "contractName": null,
      "contractAddress": "0xabc0afb70f325f4119cfca4083ea2a580ec40d3f",
      "function": "approve(address,uint256)",
      "arguments": [
        "0x000000000022D473030F116dDEE9F6B43aC78BA3",
        "115792089237316195423570985008687907853269984665640564039457584007913129639935"
      ],
      "transaction": {
        "from": "0x3e723f6b81431f325e3f08e75544f254c182afe2",
        "to": "0xabc0afb70f325f4119cfca4083ea2a580ec40d3f",
        "gas": "0x8df2",
        "value": "0x0",
        "input": "0x095ea7b3000000000000000000000000000000000022d473030f116ddee9f6b43ac78ba3ffffffffffffffffffffffffffffffffffffffffffffffffffffffffffffffff",
        "nonce": "0x610",
        "chainId": "0xaa36a7"
      },
      "additionalContracts": [],
      "isFixedGasLimit": false
    },
    {
      "hash": "0x94e921f52ef815637e72326bc82842deb6bd1808fa5f6daac6fd90278a7bd7a5",
      "transactionType": "CALL",
      "contractName": null,
      "contractAddress": "0x000000000022d473030f116ddee9f6b43ac78ba3",
      "function": "approve(address,address,uint160,uint48)",
      "arguments": [
        "0xabc0Afb70F325F4119cFCA4083EA2A580Ec40D3F",
        "0x429ba70129df741B2Ca2a85BC3A2a3328e5c09b4",
        "1461501637330902918203684832716283019655932542975",
        "281474976710655"
      ],
      "transaction": {
        "from": "0x3e723f6b81431f325e3f08e75544f254c182afe2",
        "to": "0x000000000022d473030f116ddee9f6b43ac78ba3",
        "gas": "0x96a0",
        "value": "0x0",
        "input": "0x87517c45000000000000000000000000abc0afb70f325f4119cfca4083ea2a580ec40d3f000000000000000000000000429ba70129df741b2ca2a85bc3a2a3328e5c09b4000000000000000000000000ffffffffffffffffffffffffffffffffffffffff0000000000000000000000000000000000000000000000000000ffffffffffff",
        "nonce": "0x611",
        "chainId": "0xaa36a7"
      },
      "additionalContracts": [],
      "isFixedGasLimit": false
    },
    {
      "hash": "0xf8d75234b0229394c466fdd74a7f8f4d6e294198b625fb0cba62cdc378d937a7",
      "transactionType": "CALL",
      "contractName": null,
      "contractAddress": "0x3e68f0f304314495fa45907170a59d0ba5218bcc",
      "function": "approve(address,uint256)",
      "arguments": [
        "0x000000000022D473030F116dDEE9F6B43aC78BA3",
        "115792089237316195423570985008687907853269984665640564039457584007913129639935"
      ],
      "transaction": {
        "from": "0x3e723f6b81431f325e3f08e75544f254c182afe2",
        "to": "0x3e68f0f304314495fa45907170a59d0ba5218bcc",
        "gas": "0x8df2",
        "value": "0x0",
        "input": "0x095ea7b3000000000000000000000000000000000022d473030f116ddee9f6b43ac78ba3ffffffffffffffffffffffffffffffffffffffffffffffffffffffffffffffff",
        "nonce": "0x612",
        "chainId": "0xaa36a7"
      },
      "additionalContracts": [],
      "isFixedGasLimit": false
    },
    {
      "hash": "0x40e6e827def6c7f43ef0c0f79c4767ae64f18704192a3a5d3bd67cc1803c978e",
      "transactionType": "CALL",
      "contractName": null,
      "contractAddress": "0x000000000022d473030f116ddee9f6b43ac78ba3",
      "function": "approve(address,address,uint160,uint48)",
      "arguments": [
        "0x3e68f0F304314495fa45907170a59D0BA5218bCc",
        "0x429ba70129df741B2Ca2a85BC3A2a3328e5c09b4",
        "1461501637330902918203684832716283019655932542975",
        "281474976710655"
      ],
      "transaction": {
        "from": "0x3e723f6b81431f325e3f08e75544f254c182afe2",
        "to": "0x000000000022d473030f116ddee9f6b43ac78ba3",
        "gas": "0x96a0",
        "value": "0x0",
        "input": "0x87517c450000000000000000000000003e68f0f304314495fa45907170a59d0ba5218bcc000000000000000000000000429ba70129df741b2ca2a85bc3a2a3328e5c09b4000000000000000000000000ffffffffffffffffffffffffffffffffffffffff0000000000000000000000000000000000000000000000000000ffffffffffff",
        "nonce": "0x613",
        "chainId": "0xaa36a7"
      },
      "additionalContracts": [],
      "isFixedGasLimit": false
    },
    {
      "hash": "0x840b1ccfe74563e6c34cd5bd5963d10fb0c2b156fee92f7e90f134fe3bcffe13",
      "transactionType": "CALL",
      "contractName": null,
      "contractAddress": "0x429ba70129df741b2ca2a85bc3a2a3328e5c09b4",
      "function": "multicall(bytes[])",
      "arguments": [
        "[0xdd46508f00000000000000000000000000000000000000000000000000000000000000400000000000000000000000000000000000000000000000000000000068cb94640000000000000000000000000000000000000000000000000000000000000400000000000000000000000000000000000000000000000000000000000000004000000000000000000000000000000000000000000000000000000000000000800000000000000000000000000000000000000000000000000000000000000004020d14140000000000000000000000000000000000000000000000000000000000000000000000000000000000000000000000000000000000000000000000040000000000000000000000000000000000000000000000000000000000000080000000000000000000000000000000000000000000000000000000000000024000000000000000000000000000000000000000000000000000000000000002a0000000000000000000000000000000000000000000000000000000000000030000000000000000000000000000000000000000000000000000000000000001a00000000000000000000000003e68f0f304314495fa45907170a59d0ba5218bcc000000000000000000000000abc0afb70f325f4119cfca4083ea2a580ec40d3f0000000000000000000000000000000000000000000000000000000000000bb8000000000000000000000000000000000000000000000000000000000000003c0000000000000000000000000000000000000000000000000000000000000000fffffffffffffffffffffffffffffffffffffffffffffffffffffffffffffda800000000000000000000000000000000000000000000000000000000000002580000000000000000000000000000000000000000000000b76ef6d7d1e8594b010000000000000000000000000000000000000000000000056bc75e2d631000010000000000000000000000000000000000000000000000056bc75e2d631000010000000000000000000000003e723f6b81431f325e3f08e75544f254c182afe20000000000000000000000000000000000000000000000000000000000000180000000000000000000000000000000000000000000000000000000000000000000000000000000000000000000000000000000000000000000000000000000400000000000000000000000003e68f0f304314495fa45907170a59d0ba5218bcc000000000000000000000000abc0afb70f325f4119cfca4083ea2a580ec40d3f00000000000000000000000000000000000000000000000000000000000000400000000000000000000000003e68f0f304314495fa45907170a59d0ba5218bcc0000000000000000000000003e723f6b81431f325e3f08e75544f254c182afe20000000000000000000000000000000000000000000000000000000000000040000000000000000000000000abc0afb70f325f4119cfca4083ea2a580ec40d3f0000000000000000000000003e723f6b81431f325e3f08e75544f254c182afe2]"
      ],
      "transaction": {
        "from": "0x3e723f6b81431f325e3f08e75544f254c182afe2",
        "to": "0x429ba70129df741b2ca2a85bc3a2a3328e5c09b4",
        "gas": "0x50ce9",
        "value": "0x0",
        "input": "0xac9650d80000000000000000000000000000000000000000000000000000000000000020000000000000000000000000000000000000000000000000000000000000000100000000000000000000000000000000000000000000000000000000000000200000000000000000000000000000000000000000000000000000000000000464dd46508f00000000000000000000000000000000000000000000000000000000000000400000000000000000000000000000000000000000000000000000000068cb94640000000000000000000000000000000000000000000000000000000000000400000000000000000000000000000000000000000000000000000000000000004000000000000000000000000000000000000000000000000000000000000000800000000000000000000000000000000000000000000000000000000000000004020d14140000000000000000000000000000000000000000000000000000000000000000000000000000000000000000000000000000000000000000000000040000000000000000000000000000000000000000000000000000000000000080000000000000000000000000000000000000000000000000000000000000024000000000000000000000000000000000000000000000000000000000000002a0000000000000000000000000000000000000000000000000000000000000030000000000000000000000000000000000000000000000000000000000000001a00000000000000000000000003e68f0f304314495fa45907170a59d0ba5218bcc000000000000000000000000abc0afb70f325f4119cfca4083ea2a580ec40d3f0000000000000000000000000000000000000000000000000000000000000bb8000000000000000000000000000000000000000000000000000000000000003c0000000000000000000000000000000000000000000000000000000000000000fffffffffffffffffffffffffffffffffffffffffffffffffffffffffffffda800000000000000000000000000000000000000000000000000000000000002580000000000000000000000000000000000000000000000b76ef6d7d1e8594b010000000000000000000000000000000000000000000000056bc75e2d631000010000000000000000000000000000000000000000000000056bc75e2d631000010000000000000000000000003e723f6b81431f325e3f08e75544f254c182afe20000000000000000000000000000000000000000000000000000000000000180000000000000000000000000000000000000000000000000000000000000000000000000000000000000000000000000000000000000000000000000000000400000000000000000000000003e68f0f304314495fa45907170a59d0ba5218bcc000000000000000000000000abc0afb70f325f4119cfca4083ea2a580ec40d3f00000000000000000000000000000000000000000000000000000000000000400000000000000000000000003e68f0f304314495fa45907170a59d0ba5218bcc0000000000000000000000003e723f6b81431f325e3f08e75544f254c182afe20000000000000000000000000000000000000000000000000000000000000040000000000000000000000000abc0afb70f325f4119cfca4083ea2a580ec40d3f0000000000000000000000003e723f6b81431f325e3f08e75544f254c182afe200000000000000000000000000000000000000000000000000000000",
        "nonce": "0x614",
        "chainId": "0xaa36a7"
      },
      "additionalContracts": [],
      "isFixedGasLimit": false
    }
  ],
  "receipts": [
    {
      "status": "0x1",
      "cumulativeGasUsed": "0xb6975e",
      "logs": [
        {
          "address": "0xabc0afb70f325f4119cfca4083ea2a580ec40d3f",
          "topics": [
            "0x8c5be1e5ebec7d5bd14f71427d1e84f3dd0314c0f7b2291e5b200ac8c7c3b925",
            "0x0000000000000000000000003e723f6b81431f325e3f08e75544f254c182afe2",
            "0x000000000000000000000000429ba70129df741b2ca2a85bc3a2a3328e5c09b4"
          ],
          "data": "0xffffffffffffffffffffffffffffffffffffffffffffffffffffffffffffffff",
          "blockHash": "0x0fac5a0535a4c6b18a76c91380a94ad79d7f82774f3221e0b9b98c612785fcb9",
          "blockNumber": "0x8cc960",
          "blockTimestamp": "0x68cb9440",
          "transactionHash": "0x6cb903ab4de8c6dbf08e7e5d8d5f470ce0db8863b2788678befdde9bc1c13f3f",
          "transactionIndex": "0x66",
          "logIndex": "0x9d",
          "removed": false
        }
      ],
      "logsBloom": "0x00000000000000000000000000000000000000000000000000000000000000000000000000000040080000000080000000000000080000000000000000200000000000000000000000000000000000100000000000000000000000000000000000000000000000000000000000000000000000000000000000000800000000000000000000000000000000000000000000000000000000000000000000000000020000000000004080000000000000000000000000000000000010000000000000000000000000000000000000000000000000000000000000000000000000000010000000000000000000000000000000000000000000000000000000000000",
      "type": "0x2",
      "transactionHash": "0x6cb903ab4de8c6dbf08e7e5d8d5f470ce0db8863b2788678befdde9bc1c13f3f",
      "transactionIndex": "0x66",
      "blockHash": "0x0fac5a0535a4c6b18a76c91380a94ad79d7f82774f3221e0b9b98c612785fcb9",
      "blockNumber": "0x8cc960",
      "gasUsed": "0x6701",
      "effectiveGasPrice": "0xf4255",
      "from": "0x3e723f6b81431f325e3f08e75544f254c182afe2",
      "to": "0xabc0afb70f325f4119cfca4083ea2a580ec40d3f",
      "contractAddress": null
    },
    {
      "status": "0x1",
      "cumulativeGasUsed": "0xb6fe5f",
      "logs": [
        {
          "address": "0x3e68f0f304314495fa45907170a59d0ba5218bcc",
          "topics": [
            "0x8c5be1e5ebec7d5bd14f71427d1e84f3dd0314c0f7b2291e5b200ac8c7c3b925",
            "0x0000000000000000000000003e723f6b81431f325e3f08e75544f254c182afe2",
            "0x000000000000000000000000429ba70129df741b2ca2a85bc3a2a3328e5c09b4"
          ],
          "data": "0xffffffffffffffffffffffffffffffffffffffffffffffffffffffffffffffff",
          "blockHash": "0x0fac5a0535a4c6b18a76c91380a94ad79d7f82774f3221e0b9b98c612785fcb9",
          "blockNumber": "0x8cc960",
          "blockTimestamp": "0x68cb9440",
          "transactionHash": "0x91b591810ee99b064bc2385dc1b20281f07af126a83d9a579bd6fbc409580ec0",
          "transactionIndex": "0x67",
          "logIndex": "0x9e",
          "removed": false
        }
      ],
      "logsBloom": "0x00000000000000000000000000000000000000000000000000000000000000000000000000000040080000000000000000000000080000800000000000200000000000000000000000000000000000000000000000000000000000000000000000000000000000000000000000000000000000000000000000000800000000000000000000000000000000000000000000000000000000000000000000000000020000000000000080000000000000000000000000002000000010000000000000000000000000000000000000000000000000000000000000000000000000400010000000000000000000000000000000000000000000000000000000000000",
      "type": "0x2",
      "transactionHash": "0x91b591810ee99b064bc2385dc1b20281f07af126a83d9a579bd6fbc409580ec0",
      "transactionIndex": "0x67",
      "blockHash": "0x0fac5a0535a4c6b18a76c91380a94ad79d7f82774f3221e0b9b98c612785fcb9",
      "blockNumber": "0x8cc960",
      "gasUsed": "0x6701",
      "effectiveGasPrice": "0xf4255",
      "from": "0x3e723f6b81431f325e3f08e75544f254c182afe2",
      "to": "0x3e68f0f304314495fa45907170a59d0ba5218bcc",
      "contractAddress": null
    },
    {
      "status": "0x1",
      "cumulativeGasUsed": "0xb76524",
      "logs": [
        {
          "address": "0xabc0afb70f325f4119cfca4083ea2a580ec40d3f",
          "topics": [
            "0x8c5be1e5ebec7d5bd14f71427d1e84f3dd0314c0f7b2291e5b200ac8c7c3b925",
            "0x0000000000000000000000003e723f6b81431f325e3f08e75544f254c182afe2",
            "0x000000000000000000000000000000000022d473030f116ddee9f6b43ac78ba3"
          ],
          "data": "0xffffffffffffffffffffffffffffffffffffffffffffffffffffffffffffffff",
          "blockHash": "0x0fac5a0535a4c6b18a76c91380a94ad79d7f82774f3221e0b9b98c612785fcb9",
          "blockNumber": "0x8cc960",
          "transactionHash": "0x7d69b77052b1f9787303d15333bdba19fbfeac73c4831c2b1d3fbb086c855733",
          "transactionIndex": "0x68",
          "logIndex": "0x9f",
          "removed": false
        }
      ],
      "logsBloom": "0x00000000000000000000000000000000000000000000000000000000000000000000000000000000000000000080000000000000880000000000000000200000000000000000000000004000000000100000000000000800000000000000000000000000000000000000000000000000000000000000000000000000000000000000000000000000000000000000000000000000000000000000000000000000020000000000004080000000000000000000000000000000000010000000000000000000000000000000000000000000000000000000000000000000000000000010000000000000000000000000000000000000000000000000000000000000",
      "type": "0x2",
      "transactionHash": "0x7d69b77052b1f9787303d15333bdba19fbfeac73c4831c2b1d3fbb086c855733",
      "transactionIndex": "0x68",
      "blockHash": "0x0fac5a0535a4c6b18a76c91380a94ad79d7f82774f3221e0b9b98c612785fcb9",
      "blockNumber": "0x8cc960",
      "gasUsed": "0x66c5",
      "effectiveGasPrice": "0xf4255",
      "from": "0x3e723f6b81431f325e3f08e75544f254c182afe2",
      "to": "0xabc0afb70f325f4119cfca4083ea2a580ec40d3f",
      "contractAddress": null
    },
    {
      "status": "0x1",
      "cumulativeGasUsed": "0xb7d232",
      "logs": [
        {
          "address": "0x000000000022d473030f116ddee9f6b43ac78ba3",
          "topics": [
            "0xda9fa7c1b00402c17d0161b249b1ab8bbec047c5a52207b9c112deffd817036b",
            "0x0000000000000000000000003e723f6b81431f325e3f08e75544f254c182afe2",
            "0x000000000000000000000000abc0afb70f325f4119cfca4083ea2a580ec40d3f",
            "0x000000000000000000000000429ba70129df741b2ca2a85bc3a2a3328e5c09b4"
          ],
          "data": "0x000000000000000000000000ffffffffffffffffffffffffffffffffffffffff0000000000000000000000000000000000000000000000000000ffffffffffff",
          "blockHash": "0x0fac5a0535a4c6b18a76c91380a94ad79d7f82774f3221e0b9b98c612785fcb9",
          "blockNumber": "0x8cc960",
          "blockTimestamp": "0x68cb9440",
          "transactionHash": "0x94e921f52ef815637e72326bc82842deb6bd1808fa5f6daac6fd90278a7bd7a5",
          "transactionIndex": "0x69",
          "logIndex": "0xa0",
          "removed": false
        }
      ],
      "logsBloom": "0x00010000000000000000000000000000000000000000000000000000000000000000000000000040080000000000000000000000080000000000000000080000000000000000000000000000000000000000000000000000000000000000000000000000000000000000000000000010000000000000000000000800000000000020000000000000000002000000000000000000000000000000000000000000000000000000000080000000000000000000000000000000000010080000000000000000000000000000000000000000000000000000000040000000000000000000000000000000000000000000000000000000000000400000000000000400",
      "type": "0x2",
      "transactionHash": "0x94e921f52ef815637e72326bc82842deb6bd1808fa5f6daac6fd90278a7bd7a5",
      "transactionIndex": "0x69",
      "blockHash": "0x0fac5a0535a4c6b18a76c91380a94ad79d7f82774f3221e0b9b98c612785fcb9",
      "blockNumber": "0x8cc960",
      "gasUsed": "0x6d0e",
      "effectiveGasPrice": "0xf4255",
      "from": "0x3e723f6b81431f325e3f08e75544f254c182afe2",
      "to": "0x000000000022d473030f116ddee9f6b43ac78ba3",
      "contractAddress": null
    },
    {
      "status": "0x1",
      "cumulativeGasUsed": "0xb838f7",
      "logs": [
        {
          "address": "0x3e68f0f304314495fa45907170a59d0ba5218bcc",
          "topics": [
            "0x8c5be1e5ebec7d5bd14f71427d1e84f3dd0314c0f7b2291e5b200ac8c7c3b925",
            "0x0000000000000000000000003e723f6b81431f325e3f08e75544f254c182afe2",
            "0x000000000000000000000000000000000022d473030f116ddee9f6b43ac78ba3"
          ],
          "data": "0xffffffffffffffffffffffffffffffffffffffffffffffffffffffffffffffff",
          "blockHash": "0x0fac5a0535a4c6b18a76c91380a94ad79d7f82774f3221e0b9b98c612785fcb9",
          "blockNumber": "0x8cc960",
          "blockTimestamp": "0x68cb9440",
          "transactionHash": "0xf8d75234b0229394c466fdd74a7f8f4d6e294198b625fb0cba62cdc378d937a7",
          "transactionIndex": "0x6a",
          "logIndex": "0xa1",
          "removed": false
        }
      ],
      "logsBloom": "0x00000000000000000000000000000000000000000000000000000000000000000000000000000000000000000000000000000000880000800000000000200000000000000000000000004000000000000000000000000800000000000000000000000000000000000000000000000000000000000000000000000000000000000000000000000000000000000000000000000000000000000000000000000000020000000000000080000000000000000000000000002000000010000000000000000000000000000000000000000000000000000000000000000000000000400010000000000000000000000000000000000000000000000000000000000000",
      "type": "0x2",
      "transactionHash": "0xf8d75234b0229394c466fdd74a7f8f4d6e294198b625fb0cba62cdc378d937a7",
      "transactionIndex": "0x6a",
      "blockHash": "0x0fac5a0535a4c6b18a76c91380a94ad79d7f82774f3221e0b9b98c612785fcb9",
      "blockNumber": "0x8cc960",
      "gasUsed": "0x66c5",
      "effectiveGasPrice": "0xf4255",
      "from": "0x3e723f6b81431f325e3f08e75544f254c182afe2",
      "to": "0x3e68f0f304314495fa45907170a59d0ba5218bcc",
      "contractAddress": null
    },
    {
      "status": "0x1",
      "cumulativeGasUsed": "0xb8a605",
      "logs": [
        {
          "address": "0x000000000022d473030f116ddee9f6b43ac78ba3",
          "topics": [
            "0xda9fa7c1b00402c17d0161b249b1ab8bbec047c5a52207b9c112deffd817036b",
            "0x0000000000000000000000003e723f6b81431f325e3f08e75544f254c182afe2",
            "0x0000000000000000000000003e68f0f304314495fa45907170a59d0ba5218bcc",
            "0x000000000000000000000000429ba70129df741b2ca2a85bc3a2a3328e5c09b4"
          ],
          "data": "0x000000000000000000000000ffffffffffffffffffffffffffffffffffffffff0000000000000000000000000000000000000000000000000000ffffffffffff",
          "blockHash": "0x0fac5a0535a4c6b18a76c91380a94ad79d7f82774f3221e0b9b98c612785fcb9",
          "blockNumber": "0x8cc960",
          "blockTimestamp": "0x68cb9440",
          "transactionHash": "0x40e6e827def6c7f43ef0c0f79c4767ae64f18704192a3a5d3bd67cc1803c978e",
          "transactionIndex": "0x6b",
          "logIndex": "0xa2",
          "removed": false
        }
      ],
      "logsBloom": "0x00010000000000000000000000000000000000000000000000000000000000000000000000000040080040000000000000000000080000000000000000080000000000000000000000000000000000000000000000000000000000000000000000000000000000000000000000000000000000000000000000000800000000000020000000000000000000000000000000000000000000000000000000010000000000000000000080000000000000000000000000000000000010080000000000000000000000000000000000000000000000000000000040000000000000000000000000000000000000000000000000000000000000000000000000000400",
      "type": "0x2",
      "transactionHash": "0x40e6e827def6c7f43ef0c0f79c4767ae64f18704192a3a5d3bd67cc1803c978e",
      "transactionIndex": "0x6b",
      "blockHash": "0x0fac5a0535a4c6b18a76c91380a94ad79d7f82774f3221e0b9b98c612785fcb9",
      "blockNumber": "0x8cc960",
      "gasUsed": "0x6d0e",
      "effectiveGasPrice": "0xf4255",
      "from": "0x3e723f6b81431f325e3f08e75544f254c182afe2",
      "to": "0x000000000022d473030f116ddee9f6b43ac78ba3",
      "contractAddress": null
    },
    {
      "status": "0x1",
      "cumulativeGasUsed": "0xbc4e11",
      "logs": [
        {
          "address": "0x429ba70129df741b2ca2a85bc3a2a3328e5c09b4",
          "topics": [
            "0xddf252ad1be2c89b69c2b068fc378daa952ba7f163c4a11628f55a4df523b3ef",
            "0x0000000000000000000000000000000000000000000000000000000000000000",
            "0x0000000000000000000000003e723f6b81431f325e3f08e75544f254c182afe2",
            "0x000000000000000000000000000000000000000000000000000000000000432e"
          ],
          "data": "0x",
          "blockHash": "0x0fac5a0535a4c6b18a76c91380a94ad79d7f82774f3221e0b9b98c612785fcb9",
          "blockNumber": "0x8cc960",
          "transactionHash": "0x840b1ccfe74563e6c34cd5bd5963d10fb0c2b156fee92f7e90f134fe3bcffe13",
          "transactionIndex": "0x6c",
          "logIndex": "0xa3",
          "removed": false
        },
        {
          "address": "0xe03a1074c86cfedd5c142c4f04f1a1536e203543",
          "topics": [
            "0xf208f4912782fd25c7f114ca3723a2d5dd6f3bcc3ac8db5af63baa85f711d5ec",
            "0x6c28d2b60906a79ceadbbc225031033505ffc8027aa0d19cfea7a21574375983",
            "0x000000000000000000000000429ba70129df741b2ca2a85bc3a2a3328e5c09b4"
          ],
          "data": "0xfffffffffffffffffffffffffffffffffffffffffffffffffffffffffffffda800000000000000000000000000000000000000000000000000000000000002580000000000000000000000000000000000000000000000b76ef6d7d1e8594b01000000000000000000000000000000000000000000000000000000000000432e",
          "blockHash": "0x0fac5a0535a4c6b18a76c91380a94ad79d7f82774f3221e0b9b98c612785fcb9",
          "blockNumber": "0x8cc960",
          "transactionHash": "0x840b1ccfe74563e6c34cd5bd5963d10fb0c2b156fee92f7e90f134fe3bcffe13",
          "transactionIndex": "0x6c",
          "logIndex": "0xa4",
          "removed": false
        },
        {
          "address": "0x3e68f0f304314495fa45907170a59d0ba5218bcc",
          "topics": [
            "0xddf252ad1be2c89b69c2b068fc378daa952ba7f163c4a11628f55a4df523b3ef",
            "0x0000000000000000000000003e723f6b81431f325e3f08e75544f254c182afe2",
            "0x000000000000000000000000e03a1074c86cfedd5c142c4f04f1a1536e203543"
          ],
          "data": "0x0000000000000000000000000000000000000000000000056bc75e2d63100000",
          "blockHash": "0x0fac5a0535a4c6b18a76c91380a94ad79d7f82774f3221e0b9b98c612785fcb9",
          "blockNumber": "0x8cc960",
          "transactionHash": "0x840b1ccfe74563e6c34cd5bd5963d10fb0c2b156fee92f7e90f134fe3bcffe13",
          "transactionIndex": "0x6c",
          "logIndex": "0xa5",
          "removed": false
        },
        {
          "address": "0xabc0afb70f325f4119cfca4083ea2a580ec40d3f",
          "topics": [
            "0xddf252ad1be2c89b69c2b068fc378daa952ba7f163c4a11628f55a4df523b3ef",
            "0x0000000000000000000000003e723f6b81431f325e3f08e75544f254c182afe2",
            "0x000000000000000000000000e03a1074c86cfedd5c142c4f04f1a1536e203543"
          ],
          "data": "0x0000000000000000000000000000000000000000000000056bc75e2d63100000",
          "blockHash": "0x0fac5a0535a4c6b18a76c91380a94ad79d7f82774f3221e0b9b98c612785fcb9",
          "blockNumber": "0x8cc960",
          "transactionHash": "0x840b1ccfe74563e6c34cd5bd5963d10fb0c2b156fee92f7e90f134fe3bcffe13",
          "transactionIndex": "0x6c",
          "logIndex": "0xa6",
          "removed": false
        }
      ],
      "logsBloom": "0x00000000000000800000001000000000000000000100000000000000080000000000000000000040080000000080000000000100080000800000100000000000000000000000000000000008000000100000000000000000000000000000000000000000020000000000000080000840010000000000100000000810000000000000000001000000008010000000000000000000000000000000000000000000000004000000004080000000000000000000000000402000000010000000000000000002000000000000000000000000000000000000000000001000000020401000000000000000000000000000000004000000000000000000000000000000",
      "type": "0x2",
      "transactionHash": "0x840b1ccfe74563e6c34cd5bd5963d10fb0c2b156fee92f7e90f134fe3bcffe13",
      "transactionIndex": "0x6c",
      "blockHash": "0x0fac5a0535a4c6b18a76c91380a94ad79d7f82774f3221e0b9b98c612785fcb9",
      "blockNumber": "0x8cc960",
      "gasUsed": "0x3a80c",
      "effectiveGasPrice": "0xf4255",
      "from": "0x3e723f6b81431f325e3f08e75544f254c182afe2",
      "to": "0x429ba70129df741b2ca2a85bc3a2a3328e5c09b4",
      "contractAddress": null
    }
  ],
  "libraries": [],
  "pending": [],
  "returns": {},
  "timestamp": 1758172225289,
  "chain": 11155111,
  "commit": "7b9c819"
}