{
  "transactions": [
    {
      "hash": "0x81b7268a67cf0387acfd50747b949323e973043c52420f24dc230b082d5ba785",
      "transactionType": "CALL",
      "contractName": null,
      "contractAddress": "0xabc0afb70f325f4119cfca4083ea2a580ec40d3f",
      "function": "approve(address,uint256)",
      "arguments": [
        "0x429ba70129df741B2Ca2a85BC3A2a3328e5c09b4",
        "115792089237316195423570985008687907853269984665640564039457584007913129639935"
      ],
      "transaction": {
        "from": "0x3e723f6b81431f325e3f08e75544f254c182afe2",
        "to": "0xabc0afb70f325f4119cfca4083ea2a580ec40d3f",
        "gas": "0x96a4",
        "value": "0x0",
        "input": "0x095ea7b3000000000000000000000000429ba70129df741b2ca2a85bc3a2a3328e5c09b4ffffffffffffffffffffffffffffffffffffffffffffffffffffffffffffffff",
        "nonce": "0x642",
        "chainId": "0xaa36a7"
      },
      "additionalContracts": [],
      "isFixedGasLimit": false
    },
    {
      "hash": "0x90f96cadf54ea563ddd4ae195f2521177e91b990ef5786d07ce17d63881ee464",
      "transactionType": "CALL",
      "contractName": null,
      "contractAddress": "0x3e68f0f304314495fa45907170a59d0ba5218bcc",
      "function": "approve(address,uint256)",
      "arguments": [
        "0x429ba70129df741B2Ca2a85BC3A2a3328e5c09b4",
        "115792089237316195423570985008687907853269984665640564039457584007913129639935"
      ],
      "transaction": {
        "from": "0x3e723f6b81431f325e3f08e75544f254c182afe2",
        "to": "0x3e68f0f304314495fa45907170a59d0ba5218bcc",
        "gas": "0x96a4",
        "value": "0x0",
        "input": "0x095ea7b3000000000000000000000000429ba70129df741b2ca2a85bc3a2a3328e5c09b4ffffffffffffffffffffffffffffffffffffffffffffffffffffffffffffffff",
        "nonce": "0x643",
        "chainId": "0xaa36a7"
      },
      "additionalContracts": [],
      "isFixedGasLimit": false
    },
    {
      "hash": "0x0a5c1c75a5223a3e11208fdd7ef7c44228023e151faf648f307a8bf935b93257",
      "transactionType": "CALL",
      "contractName": null,
      "contractAddress": "0xabc0afb70f325f4119cfca4083ea2a580ec40d3f",
      "function": "approve(address,uint256)",
      "arguments": [
        "0x000000000022D473030F116dDEE9F6B43aC78BA3",
        "115792089237316195423570985008687907853269984665640564039457584007913129639935"
      ],
      "transaction": {
        "from": "0x3e723f6b81431f325e3f08e75544f254c182afe2",
        "to": "0xabc0afb70f325f4119cfca4083ea2a580ec40d3f",
        "gas": "0x8df2",
        "value": "0x0",
        "input": "0x095ea7b3000000000000000000000000000000000022d473030f116ddee9f6b43ac78ba3ffffffffffffffffffffffffffffffffffffffffffffffffffffffffffffffff",
        "nonce": "0x644",
        "chainId": "0xaa36a7"
      },
      "additionalContracts": [],
      "isFixedGasLimit": false
    },
    {
      "hash": "0xf8f49a02151466ee3ec45b64a54fc1a835b9565ac54024525499b6bd27d1e0f7",
      "transactionType": "CALL",
      "contractName": null,
      "contractAddress": "0x000000000022d473030f116ddee9f6b43ac78ba3",
      "function": "approve(address,address,uint160,uint48)",
      "arguments": [
        "0xabc0Afb70F325F4119cFCA4083EA2A580Ec40D3F",
        "0x429ba70129df741B2Ca2a85BC3A2a3328e5c09b4",
        "1461501637330902918203684832716283019655932542975",
        "281474976710655"
      ],
      "transaction": {
        "from": "0x3e723f6b81431f325e3f08e75544f254c182afe2",
        "to": "0x000000000022d473030f116ddee9f6b43ac78ba3",
        "gas": "0x96a0",
        "value": "0x0",
        "input": "0x87517c45000000000000000000000000abc0afb70f325f4119cfca4083ea2a580ec40d3f000000000000000000000000429ba70129df741b2ca2a85bc3a2a3328e5c09b4000000000000000000000000ffffffffffffffffffffffffffffffffffffffff0000000000000000000000000000000000000000000000000000ffffffffffff",
        "nonce": "0x645",
        "chainId": "0xaa36a7"
      },
      "additionalContracts": [],
      "isFixedGasLimit": false
    },
    {
      "hash": "0x6ec6b722f9da66c29bf0eb9572c1fc003f5f4bbb7e373c94b604a8ecbf528e5f",
      "transactionType": "CALL",
      "contractName": null,
      "contractAddress": "0x3e68f0f304314495fa45907170a59d0ba5218bcc",
      "function": "approve(address,uint256)",
      "arguments": [
        "0x000000000022D473030F116dDEE9F6B43aC78BA3",
        "115792089237316195423570985008687907853269984665640564039457584007913129639935"
      ],
      "transaction": {
        "from": "0x3e723f6b81431f325e3f08e75544f254c182afe2",
        "to": "0x3e68f0f304314495fa45907170a59d0ba5218bcc",
        "gas": "0x8df2",
        "value": "0x0",
        "input": "0x095ea7b3000000000000000000000000000000000022d473030f116ddee9f6b43ac78ba3ffffffffffffffffffffffffffffffffffffffffffffffffffffffffffffffff",
        "nonce": "0x646",
        "chainId": "0xaa36a7"
      },
      "additionalContracts": [],
      "isFixedGasLimit": false
    },
    {
      "hash": "0xa8a710164d78cf04df2d5a5d64107f58458f211f664b74cc9e80a121fe712d8b",
      "transactionType": "CALL",
      "contractName": null,
      "contractAddress": "0x000000000022d473030f116ddee9f6b43ac78ba3",
      "function": "approve(address,address,uint160,uint48)",
      "arguments": [
        "0x3e68f0F304314495fa45907170a59D0BA5218bCc",
        "0x429ba70129df741B2Ca2a85BC3A2a3328e5c09b4",
        "1461501637330902918203684832716283019655932542975",
        "281474976710655"
      ],
      "transaction": {
        "from": "0x3e723f6b81431f325e3f08e75544f254c182afe2",
        "to": "0x000000000022d473030f116ddee9f6b43ac78ba3",
        "gas": "0x96a0",
        "value": "0x0",
        "input": "0x87517c450000000000000000000000003e68f0f304314495fa45907170a59d0ba5218bcc000000000000000000000000429ba70129df741b2ca2a85bc3a2a3328e5c09b4000000000000000000000000ffffffffffffffffffffffffffffffffffffffff0000000000000000000000000000000000000000000000000000ffffffffffff",
        "nonce": "0x647",
        "chainId": "0xaa36a7"
      },
      "additionalContracts": [],
      "isFixedGasLimit": false
    },
    {
      "hash": "0xa2b5e34e3d2ed0164fdafba2a248415a9fb65e9f701a6a9e8f604fbcd740a65f",
      "transactionType": "CALL",
      "contractName": null,
      "contractAddress": "0x429ba70129df741b2ca2a85bc3a2a3328e5c09b4",
      "function": "multicall(bytes[])",
      "arguments": [
        "[0xdd46508f00000000000000000000000000000000000000000000000000000000000000400000000000000000000000000000000000000000000000000000000068cb98b40000000000000000000000000000000000000000000000000000000000000400000000000000000000000000000000000000000000000000000000000000004000000000000000000000000000000000000000000000000000000000000000800000000000000000000000000000000000000000000000000000000000000004020d14140000000000000000000000000000000000000000000000000000000000000000000000000000000000000000000000000000000000000000000000040000000000000000000000000000000000000000000000000000000000000080000000000000000000000000000000000000000000000000000000000000024000000000000000000000000000000000000000000000000000000000000002a0000000000000000000000000000000000000000000000000000000000000030000000000000000000000000000000000000000000000000000000000000001a00000000000000000000000003e68f0f304314495fa45907170a59d0ba5218bcc000000000000000000000000abc0afb70f325f4119cfca4083ea2a580ec40d3f0000000000000000000000000000000000000000000000000000000000000bb8000000000000000000000000000000000000000000000000000000000000003c0000000000000000000000000000000000000000000000000000000000000000fffffffffffffffffffffffffffffffffffffffffffffffffffffffffffffda800000000000000000000000000000000000000000000000000000000000002580000000000000000000000000000000000000000000000b76ef6d7d1e8594b010000000000000000000000000000000000000000000000056bc75e2d631000010000000000000000000000000000000000000000000000056bc75e2d631000010000000000000000000000003e723f6b81431f325e3f08e75544f254c182afe20000000000000000000000000000000000000000000000000000000000000180000000000000000000000000000000000000000000000000000000000000000000000000000000000000000000000000000000000000000000000000000000400000000000000000000000003e68f0f304314495fa45907170a59d0ba5218bcc000000000000000000000000abc0afb70f325f4119cfca4083ea2a580ec40d3f00000000000000000000000000000000000000000000000000000000000000400000000000000000000000003e68f0f304314495fa45907170a59d0ba5218bcc0000000000000000000000003e723f6b81431f325e3f08e75544f254c182afe20000000000000000000000000000000000000000000000000000000000000040000000000000000000000000abc0afb70f325f4119cfca4083ea2a580ec40d3f0000000000000000000000003e723f6b81431f325e3f08e75544f254c182afe2]"
      ],
      "transaction": {
        "from": "0x3e723f6b81431f325e3f08e75544f254c182afe2",
        "to": "0x429ba70129df741b2ca2a85bc3a2a3328e5c09b4",
        "gas": "0x50ce9",
        "value": "0x0",
        "input": "0xac9650d80000000000000000000000000000000000000000000000000000000000000020000000000000000000000000000000000000000000000000000000000000000100000000000000000000000000000000000000000000000000000000000000200000000000000000000000000000000000000000000000000000000000000464dd46508f00000000000000000000000000000000000000000000000000000000000000400000000000000000000000000000000000000000000000000000000068cb98b40000000000000000000000000000000000000000000000000000000000000400000000000000000000000000000000000000000000000000000000000000004000000000000000000000000000000000000000000000000000000000000000800000000000000000000000000000000000000000000000000000000000000004020d14140000000000000000000000000000000000000000000000000000000000000000000000000000000000000000000000000000000000000000000000040000000000000000000000000000000000000000000000000000000000000080000000000000000000000000000000000000000000000000000000000000024000000000000000000000000000000000000000000000000000000000000002a0000000000000000000000000000000000000000000000000000000000000030000000000000000000000000000000000000000000000000000000000000001a00000000000000000000000003e68f0f304314495fa45907170a59d0ba5218bcc000000000000000000000000abc0afb70f325f4119cfca4083ea2a580ec40d3f0000000000000000000000000000000000000000000000000000000000000bb8000000000000000000000000000000000000000000000000000000000000003c0000000000000000000000000000000000000000000000000000000000000000fffffffffffffffffffffffffffffffffffffffffffffffffffffffffffffda800000000000000000000000000000000000000000000000000000000000002580000000000000000000000000000000000000000000000b76ef6d7d1e8594b010000000000000000000000000000000000000000000000056bc75e2d631000010000000000000000000000000000000000000000000000056bc75e2d631000010000000000000000000000003e723f6b81431f325e3f08e75544f254c182afe20000000000000000000000000000000000000000000000000000000000000180000000000000000000000000000000000000000000000000000000000000000000000000000000000000000000000000000000000000000000000000000000400000000000000000000000003e68f0f304314495fa45907170a59d0ba5218bcc000000000000000000000000abc0afb70f325f4119cfca4083ea2a580ec40d3f00000000000000000000000000000000000000000000000000000000000000400000000000000000000000003e68f0f304314495fa45907170a59d0ba5218bcc0000000000000000000000003e723f6b81431f325e3f08e75544f254c182afe20000000000000000000000000000000000000000000000000000000000000040000000000000000000000000abc0afb70f325f4119cfca4083ea2a580ec40d3f0000000000000000000000003e723f6b81431f325e3f08e75544f254c182afe200000000000000000000000000000000000000000000000000000000",
        "nonce": "0x648",
        "chainId": "0xaa36a7"
      },
      "additionalContracts": [],
      "isFixedGasLimit": false
    }
  ],
  "receipts": [
    {
      "status": "0x1",
      "cumulativeGasUsed": "0x15c1e00",
      "logs": [
        {
          "address": "0xabc0afb70f325f4119cfca4083ea2a580ec40d3f",
          "topics": [
            "0x8c5be1e5ebec7d5bd14f71427d1e84f3dd0314c0f7b2291e5b200ac8c7c3b925",
            "0x0000000000000000000000003e723f6b81431f325e3f08e75544f254c182afe2",
            "0x000000000000000000000000429ba70129df741b2ca2a85bc3a2a3328e5c09b4"
          ],
          "data": "0xffffffffffffffffffffffffffffffffffffffffffffffffffffffffffffffff",
          "blockHash": "0xaa9ea6d49703d18bca59a0c9c9aee48ddf2c5e6f3c823cba6381f290c9408163",
          "blockNumber": "0x8cc9b9",
          "blockTimestamp": "0x68cb9890",
          "transactionHash": "0x81b7268a67cf0387acfd50747b949323e973043c52420f24dc230b082d5ba785",
          "transactionIndex": "0x9d",
          "logIndex": "0x126",
          "removed": false
        }
      ],
      "logsBloom": "0x00000000000000000000000000000000000000000000000000000000000000000000000000000040080000000080000000000000080000000000000000200000000000000000000000000000000000100000000000000000000000000000000000000000000000000000000000000000000000000000000000000800000000000000000000000000000000000000000000000000000000000000000000000000020000000000004080000000000000000000000000000000000010000000000000000000000000000000000000000000000000000000000000000000000000000010000000000000000000000000000000000000000000000000000000000000",
      "type": "0x2",
      "transactionHash": "0x81b7268a67cf0387acfd50747b949323e973043c52420f24dc230b082d5ba785",
      "transactionIndex": "0x9d",
      "blockHash": "0xaa9ea6d49703d18bca59a0c9c9aee48ddf2c5e6f3c823cba6381f290c9408163",
      "blockNumber": "0x8cc9b9",
      "gasUsed": "0x6701",
      "effectiveGasPrice": "0xf4251",
      "from": "0x3e723f6b81431f325e3f08e75544f254c182afe2",
      "to": "0xabc0afb70f325f4119cfca4083ea2a580ec40d3f",
      "contractAddress": null
    },
    {
      "status": "0x1",
      "cumulativeGasUsed": "0x15c8501",
      "logs": [
        {
          "address": "0x3e68f0f304314495fa45907170a59d0ba5218bcc",
          "topics": [
            "0x8c5be1e5ebec7d5bd14f71427d1e84f3dd0314c0f7b2291e5b200ac8c7c3b925",
            "0x0000000000000000000000003e723f6b81431f325e3f08e75544f254c182afe2",
            "0x000000000000000000000000429ba70129df741b2ca2a85bc3a2a3328e5c09b4"
          ],
          "data": "0xffffffffffffffffffffffffffffffffffffffffffffffffffffffffffffffff",
          "blockHash": "0xaa9ea6d49703d18bca59a0c9c9aee48ddf2c5e6f3c823cba6381f290c9408163",
          "blockNumber": "0x8cc9b9",
          "blockTimestamp": "0x68cb9890",
          "transactionHash": "0x90f96cadf54ea563ddd4ae195f2521177e91b990ef5786d07ce17d63881ee464",
          "transactionIndex": "0x9e",
          "logIndex": "0x127",
          "removed": false
        }
      ],
      "logsBloom": "0x00000000000000000000000000000000000000000000000000000000000000000000000000000040080000000000000000000000080000800000000000200000000000000000000000000000000000000000000000000000000000000000000000000000000000000000000000000000000000000000000000000800000000000000000000000000000000000000000000000000000000000000000000000000020000000000000080000000000000000000000000002000000010000000000000000000000000000000000000000000000000000000000000000000000000400010000000000000000000000000000000000000000000000000000000000000",
      "type": "0x2",
      "transactionHash": "0x90f96cadf54ea563ddd4ae195f2521177e91b990ef5786d07ce17d63881ee464",
      "transactionIndex": "0x9e",
      "blockHash": "0xaa9ea6d49703d18bca59a0c9c9aee48ddf2c5e6f3c823cba6381f290c9408163",
      "blockNumber": "0x8cc9b9",
      "gasUsed": "0x6701",
      "effectiveGasPrice": "0xf4251",
      "from": "0x3e723f6b81431f325e3f08e75544f254c182afe2",
      "to": "0x3e68f0f304314495fa45907170a59d0ba5218bcc",
      "contractAddress": null
    },
    {
      "status": "0x1",
      "cumulativeGasUsed": "0x15cebc6",
      "logs": [
        {
          "address": "0xabc0afb70f325f4119cfca4083ea2a580ec40d3f",
          "topics": [
            "0x8c5be1e5ebec7d5bd14f71427d1e84f3dd0314c0f7b2291e5b200ac8c7c3b925",
            "0x0000000000000000000000003e723f6b81431f325e3f08e75544f254c182afe2",
            "0x000000000000000000000000000000000022d473030f116ddee9f6b43ac78ba3"
          ],
          "data": "0xffffffffffffffffffffffffffffffffffffffffffffffffffffffffffffffff",
          "blockHash": "0xaa9ea6d49703d18bca59a0c9c9aee48ddf2c5e6f3c823cba6381f290c9408163",
          "blockNumber": "0x8cc9b9",
          "blockTimestamp": "0x68cb9890",
          "transactionHash": "0x0a5c1c75a5223a3e11208fdd7ef7c44228023e151faf648f307a8bf935b93257",
          "transactionIndex": "0x9f",
          "logIndex": "0x128",
          "removed": false
        }
      ],
      "logsBloom": "0x00000000000000000000000000000000000000000000000000000000000000000000000000000000000000000080000000000000880000000000000000200000000000000000000000004000000000100000000000000800000000000000000000000000000000000000000000000000000000000000000000000000000000000000000000000000000000000000000000000000000000000000000000000000020000000000004080000000000000000000000000000000000010000000000000000000000000000000000000000000000000000000000000000000000000000010000000000000000000000000000000000000000000000000000000000000",
      "type": "0x2",
      "transactionHash": "0x0a5c1c75a5223a3e11208fdd7ef7c44228023e151faf648f307a8bf935b93257",
      "transactionIndex": "0x9f",
      "blockHash": "0xaa9ea6d49703d18bca59a0c9c9aee48ddf2c5e6f3c823cba6381f290c9408163",
      "blockNumber": "0x8cc9b9",
      "gasUsed": "0x66c5",
      "effectiveGasPrice": "0xf4251",
      "from": "0x3e723f6b81431f325e3f08e75544f254c182afe2",
      "to": "0xabc0afb70f325f4119cfca4083ea2a580ec40d3f",
      "contractAddress": null
    },
    {
      "status": "0x1",
      "cumulativeGasUsed": "0x15d58d4",
      "logs": [
        {
          "address": "0x000000000022d473030f116ddee9f6b43ac78ba3",
          "topics": [
            "0xda9fa7c1b00402c17d0161b249b1ab8bbec047c5a52207b9c112deffd817036b",
            "0x0000000000000000000000003e723f6b81431f325e3f08e75544f254c182afe2",
            "0x000000000000000000000000abc0afb70f325f4119cfca4083ea2a580ec40d3f",
            "0x000000000000000000000000429ba70129df741b2ca2a85bc3a2a3328e5c09b4"
          ],
          "data": "0x000000000000000000000000ffffffffffffffffffffffffffffffffffffffff0000000000000000000000000000000000000000000000000000ffffffffffff",
          "blockHash": "0xaa9ea6d49703d18bca59a0c9c9aee48ddf2c5e6f3c823cba6381f290c9408163",
          "blockNumber": "0x8cc9b9",
          "blockTimestamp": "0x68cb9890",
          "transactionHash": "0xf8f49a02151466ee3ec45b64a54fc1a835b9565ac54024525499b6bd27d1e0f7",
          "transactionIndex": "0xa0",
          "logIndex": "0x129",
          "removed": false
        }
      ],
      "logsBloom": "0x00010000000000000000000000000000000000000000000000000000000000000000000000000040080000000000000000000000080000000000000000080000000000000000000000000000000000000000000000000000000000000000000000000000000000000000000000000010000000000000000000000800000000000020000000000000000002000000000000000000000000000000000000000000000000000000000080000000000000000000000000000000000010080000000000000000000000000000000000000000000000000000000040000000000000000000000000000000000000000000000000000000000000400000000000000400",
      "type": "0x2",
      "transactionHash": "0xf8f49a02151466ee3ec45b64a54fc1a835b9565ac54024525499b6bd27d1e0f7",
      "transactionIndex": "0xa0",
      "blockHash": "0xaa9ea6d49703d18bca59a0c9c9aee48ddf2c5e6f3c823cba6381f290c9408163",
      "blockNumber": "0x8cc9b9",
      "gasUsed": "0x6d0e",
      "effectiveGasPrice": "0xf4251",
      "from": "0x3e723f6b81431f325e3f08e75544f254c182afe2",
      "to": "0x000000000022d473030f116ddee9f6b43ac78ba3",
      "contractAddress": null
    },
    {
      "status": "0x1",
      "cumulativeGasUsed": "0x15dbf99",
      "logs": [
        {
          "address": "0x3e68f0f304314495fa45907170a59d0ba5218bcc",
          "topics": [
            "0x8c5be1e5ebec7d5bd14f71427d1e84f3dd0314c0f7b2291e5b200ac8c7c3b925",
            "0x0000000000000000000000003e723f6b81431f325e3f08e75544f254c182afe2",
            "0x000000000000000000000000000000000022d473030f116ddee9f6b43ac78ba3"
          ],
          "data": "0xffffffffffffffffffffffffffffffffffffffffffffffffffffffffffffffff",
          "blockHash": "0xaa9ea6d49703d18bca59a0c9c9aee48ddf2c5e6f3c823cba6381f290c9408163",
          "blockNumber": "0x8cc9b9",
          "blockTimestamp": "0x68cb9890",
          "transactionHash": "0x6ec6b722f9da66c29bf0eb9572c1fc003f5f4bbb7e373c94b604a8ecbf528e5f",
          "transactionIndex": "0xa1",
          "logIndex": "0x12a",
          "removed": false
        }
      ],
      "logsBloom": "0x00000000000000000000000000000000000000000000000000000000000000000000000000000000000000000000000000000000880000800000000000200000000000000000000000004000000000000000000000000800000000000000000000000000000000000000000000000000000000000000000000000000000000000000000000000000000000000000000000000000000000000000000000000000020000000000000080000000000000000000000000002000000010000000000000000000000000000000000000000000000000000000000000000000000000400010000000000000000000000000000000000000000000000000000000000000",
      "type": "0x2",
      "transactionHash": "0x6ec6b722f9da66c29bf0eb9572c1fc003f5f4bbb7e373c94b604a8ecbf528e5f",
      "transactionIndex": "0xa1",
      "blockHash": "0xaa9ea6d49703d18bca59a0c9c9aee48ddf2c5e6f3c823cba6381f290c9408163",
      "blockNumber": "0x8cc9b9",
      "gasUsed": "0x66c5",
      "effectiveGasPrice": "0xf4251",
      "from": "0x3e723f6b81431f325e3f08e75544f254c182afe2",
      "to": "0x3e68f0f304314495fa45907170a59d0ba5218bcc",
      "contractAddress": null
    },
    {
      "status": "0x1",
      "cumulativeGasUsed": "0x15e2ca7",
      "logs": [
        {
          "address": "0x000000000022d473030f116ddee9f6b43ac78ba3",
          "topics": [
            "0xda9fa7c1b00402c17d0161b249b1ab8bbec047c5a52207b9c112deffd817036b",
            "0x0000000000000000000000003e723f6b81431f325e3f08e75544f254c182afe2",
            "0x0000000000000000000000003e68f0f304314495fa45907170a59d0ba5218bcc",
            "0x000000000000000000000000429ba70129df741b2ca2a85bc3a2a3328e5c09b4"
          ],
          "data": "0x000000000000000000000000ffffffffffffffffffffffffffffffffffffffff0000000000000000000000000000000000000000000000000000ffffffffffff",
          "blockHash": "0xaa9ea6d49703d18bca59a0c9c9aee48ddf2c5e6f3c823cba6381f290c9408163",
          "blockNumber": "0x8cc9b9",
          "transactionHash": "0xa8a710164d78cf04df2d5a5d64107f58458f211f664b74cc9e80a121fe712d8b",
          "transactionIndex": "0xa2",
          "logIndex": "0x12b",
          "removed": false
        }
      ],
      "logsBloom": "0x00010000000000000000000000000000000000000000000000000000000000000000000000000040080040000000000000000000080000000000000000080000000000000000000000000000000000000000000000000000000000000000000000000000000000000000000000000000000000000000000000000800000000000020000000000000000000000000000000000000000000000000000000010000000000000000000080000000000000000000000000000000000010080000000000000000000000000000000000000000000000000000000040000000000000000000000000000000000000000000000000000000000000000000000000000400",
      "type": "0x2",
      "transactionHash": "0xa8a710164d78cf04df2d5a5d64107f58458f211f664b74cc9e80a121fe712d8b",
      "transactionIndex": "0xa2",
      "blockHash": "0xaa9ea6d49703d18bca59a0c9c9aee48ddf2c5e6f3c823cba6381f290c9408163",
      "blockNumber": "0x8cc9b9",
      "gasUsed": "0x6d0e",
      "effectiveGasPrice": "0xf4251",
      "from": "0x3e723f6b81431f325e3f08e75544f254c182afe2",
      "to": "0x000000000022d473030f116ddee9f6b43ac78ba3",
      "contractAddress": null
    },
    {
      "status": "0x1",
      "cumulativeGasUsed": "0x161d4b3",
      "logs": [
        {
          "address": "0x429ba70129df741b2ca2a85bc3a2a3328e5c09b4",
          "topics": [
            "0xddf252ad1be2c89b69c2b068fc378daa952ba7f163c4a11628f55a4df523b3ef",
            "0x0000000000000000000000000000000000000000000000000000000000000000",
            "0x0000000000000000000000003e723f6b81431f325e3f08e75544f254c182afe2",
            "0x0000000000000000000000000000000000000000000000000000000000004331"
          ],
          "data": "0x",
          "blockHash": "0xaa9ea6d49703d18bca59a0c9c9aee48ddf2c5e6f3c823cba6381f290c9408163",
          "blockNumber": "0x8cc9b9",
          "transactionHash": "0xa2b5e34e3d2ed0164fdafba2a248415a9fb65e9f701a6a9e8f604fbcd740a65f",
          "transactionIndex": "0xa3",
          "logIndex": "0x12c",
          "removed": false
        },
        {
          "address": "0xe03a1074c86cfedd5c142c4f04f1a1536e203543",
          "topics": [
            "0xf208f4912782fd25c7f114ca3723a2d5dd6f3bcc3ac8db5af63baa85f711d5ec",
            "0x6c28d2b60906a79ceadbbc225031033505ffc8027aa0d19cfea7a21574375983",
            "0x000000000000000000000000429ba70129df741b2ca2a85bc3a2a3328e5c09b4"
          ],
          "data": "0xfffffffffffffffffffffffffffffffffffffffffffffffffffffffffffffda800000000000000000000000000000000000000000000000000000000000002580000000000000000000000000000000000000000000000b76ef6d7d1e8594b010000000000000000000000000000000000000000000000000000000000004331",
          "blockHash": "0xaa9ea6d49703d18bca59a0c9c9aee48ddf2c5e6f3c823cba6381f290c9408163",
          "blockNumber": "0x8cc9b9",
          "transactionHash": "0xa2b5e34e3d2ed0164fdafba2a248415a9fb65e9f701a6a9e8f604fbcd740a65f",
          "transactionIndex": "0xa3",
          "logIndex": "0x12d",
          "removed": false
        },
        {
          "address": "0x3e68f0f304314495fa45907170a59d0ba5218bcc",
          "topics": [
            "0xddf252ad1be2c89b69c2b068fc378daa952ba7f163c4a11628f55a4df523b3ef",
            "0x0000000000000000000000003e723f6b81431f325e3f08e75544f254c182afe2",
            "0x000000000000000000000000e03a1074c86cfedd5c142c4f04f1a1536e203543"
          ],
          "data": "0x0000000000000000000000000000000000000000000000056bc75e2d63100000",
          "blockHash": "0xaa9ea6d49703d18bca59a0c9c9aee48ddf2c5e6f3c823cba6381f290c9408163",
          "blockNumber": "0x8cc9b9",
          "transactionHash": "0xa2b5e34e3d2ed0164fdafba2a248415a9fb65e9f701a6a9e8f604fbcd740a65f",
          "transactionIndex": "0xa3",
          "logIndex": "0x12e",
          "removed": false
        },
        {
          "address": "0xabc0afb70f325f4119cfca4083ea2a580ec40d3f",
          "topics": [
            "0xddf252ad1be2c89b69c2b068fc378daa952ba7f163c4a11628f55a4df523b3ef",
            "0x0000000000000000000000003e723f6b81431f325e3f08e75544f254c182afe2",
            "0x000000000000000000000000e03a1074c86cfedd5c142c4f04f1a1536e203543"
          ],
          "data": "0x0000000000000000000000000000000000000000000000056bc75e2d63100000",
          "blockHash": "0xaa9ea6d49703d18bca59a0c9c9aee48ddf2c5e6f3c823cba6381f290c9408163",
          "blockNumber": "0x8cc9b9",
          "transactionHash": "0xa2b5e34e3d2ed0164fdafba2a248415a9fb65e9f701a6a9e8f604fbcd740a65f",
          "transactionIndex": "0xa3",
          "logIndex": "0x12f",
          "removed": false
        }
      ],
      "logsBloom": "0x00000000000000800000001000000000000000000000000000000000080000000000000000000040080000000080000000000100080000800000000000000000000000000000000000000008000000100000000000000000000000000000000000000000020000000000000080000840010000000000100000000810000000000000000001008000000010000000000000000000000000000000000000000000000004000000004080000000000000000800000000402000000010000000000000000002000000000000000400000000000000000000000000001000000020401000000000000000000000000000000004000000000000000000000000000000",
      "type": "0x2",
      "transactionHash": "0xa2b5e34e3d2ed0164fdafba2a248415a9fb65e9f701a6a9e8f604fbcd740a65f",
      "transactionIndex": "0xa3",
      "blockHash": "0xaa9ea6d49703d18bca59a0c9c9aee48ddf2c5e6f3c823cba6381f290c9408163",
      "blockNumber": "0x8cc9b9",
      "gasUsed": "0x3a80c",
      "effectiveGasPrice": "0xf4251",
      "from": "0x3e723f6b81431f325e3f08e75544f254c182afe2",
      "to": "0x429ba70129df741b2ca2a85bc3a2a3328e5c09b4",
      "contractAddress": null
    }
  ],
  "libraries": [],
  "pending": [],
  "returns": {},
  "timestamp": 1758173329187,
  "chain": 11155111,
  "commit": "7b9c819"
}