{
  "transactions": [
    {
      "hash": "0x2c506cd65338d331a3db3d27c7aa26b9a904954a4f6e6b872719e06b882b9273",
      "transactionType": "CALL",
      "contractName": null,
      "contractAddress": "0x429ba70129df741b2ca2a85bc3a2a3328e5c09b4",
      "function": "initializePool((address,address,uint24,int24,address),uint160)",
      "arguments": [
        "(0x74406Aba5EAE9a6465f81FFfD9404873d725289c, 0xD38a7aeD5A245253Da1A6cd5B55ABB036036fB2d, 3000, 60, 0xAc7A2B3cc96e2BaeD45b08d4413BECe0FA0e7880)",
        "79228162514264337593543950336"
      ],
      "transaction": {
        "from": "0x3e723f6b81431f325e3f08e75544f254c182afe2",
        "to": "0x429ba70129df741b2ca2a85bc3a2a3328e5c09b4",
        "gas": "0x8aa86",
        "value": "0x0",
        "input": "0xf702040500000000000000000000000074406aba5eae9a6465f81fffd9404873d725289c000000000000000000000000d38a7aed5a245253da1a6cd5b55abb036036fb2d0000000000000000000000000000000000000000000000000000000000000bb8000000000000000000000000000000000000000000000000000000000000003c000000000000000000000000ac7a2b3cc96e2baed45b08d4413bece0fa0e78800000000000000000000000000000000000000001000000000000000000000000",
        "nonce": "0x4fa",
        "chainId": "0xaa36a7"
      },
      "additionalContracts": [],
      "isFixedGasLimit": false
    },
    {
      "hash": "0x7eca7a174c5fba9e4cd3ff933e4b9dccf198031c77e661ccbf42d2722807d02c",
      "transactionType": "CALL",
      "contractName": null,
      "contractAddress": "0xd38a7aed5a245253da1a6cd5b55abb036036fb2d",
      "function": "approve(address,uint256)",
      "arguments": [
        "0xAc7A2B3cc96e2BaeD45b08d4413BECe0FA0e7880",
        "115792089237316195423570985008687907853269984665640564039457584007913129639935"
      ],
      "transaction": {
        "from": "0x3e723f6b81431f325e3f08e75544f254c182afe2",
        "to": "0xd38a7aed5a245253da1a6cd5b55abb036036fb2d",
        "gas": "0xf9a4",
        "value": "0x0",
        "input": "0x095ea7b3000000000000000000000000ac7a2b3cc96e2baed45b08d4413bece0fa0e7880ffffffffffffffffffffffffffffffffffffffffffffffffffffffffffffffff",
        "nonce": "0x4fb",
        "chainId": "0xaa36a7"
      },
      "additionalContracts": [],
      "isFixedGasLimit": false
    },
    {
      "hash": "0xb6516e7f2d81eb5c4cf9407ea959dee97b38998b773395ff46b6e49532f748cd",
      "transactionType": "CALL",
      "contractName": null,
      "contractAddress": "0x74406aba5eae9a6465f81fffd9404873d725289c",
      "function": "approve(address,uint256)",
      "arguments": [
        "0xAc7A2B3cc96e2BaeD45b08d4413BECe0FA0e7880",
        "115792089237316195423570985008687907853269984665640564039457584007913129639935"
      ],
      "transaction": {
        "from": "0x3e723f6b81431f325e3f08e75544f254c182afe2",
        "to": "0x74406aba5eae9a6465f81fffd9404873d725289c",
        "gas": "0xf9a4",
        "value": "0x0",
        "input": "0x095ea7b3000000000000000000000000ac7a2b3cc96e2baed45b08d4413bece0fa0e7880ffffffffffffffffffffffffffffffffffffffffffffffffffffffffffffffff",
        "nonce": "0x4fc",
        "chainId": "0xaa36a7"
      },
      "additionalContracts": [],
      "isFixedGasLimit": false
    },
    {
      "hash": "0x44355fe037cc0ca7d640e8cd06834bdcd38d41b4fed6b79a8ab07cb025d6c34a",
      "transactionType": "CALL",
      "contractName": null,
      "contractAddress": "0xd38a7aed5a245253da1a6cd5b55abb036036fb2d",
      "function": "approve(address,uint256)",
      "arguments": [
        "0xE03A1074c86CFeDd5C142C4F04F1a1536e203543",
        "115792089237316195423570985008687907853269984665640564039457584007913129639935"
      ],
      "transaction": {
        "from": "0x3e723f6b81431f325e3f08e75544f254c182afe2",
        "to": "0xd38a7aed5a245253da1a6cd5b55abb036036fb2d",
        "gas": "0xf9a4",
        "value": "0x0",
        "input": "0x095ea7b3000000000000000000000000e03a1074c86cfedd5c142c4f04f1a1536e203543ffffffffffffffffffffffffffffffffffffffffffffffffffffffffffffffff",
        "nonce": "0x4fd",
        "chainId": "0xaa36a7"
      },
      "additionalContracts": [],
      "isFixedGasLimit": false
    },
    {
      "hash": "0xffa64ce248d9b29abdbd51fee55cc318aedf47500922cbcc3401fdbd0d720ec3",
      "transactionType": "CALL",
      "contractName": null,
      "contractAddress": "0x74406aba5eae9a6465f81fffd9404873d725289c",
      "function": "approve(address,uint256)",
      "arguments": [
        "0xE03A1074c86CFeDd5C142C4F04F1a1536e203543",
        "115792089237316195423570985008687907853269984665640564039457584007913129639935"
      ],
      "transaction": {
        "from": "0x3e723f6b81431f325e3f08e75544f254c182afe2",
        "to": "0x74406aba5eae9a6465f81fffd9404873d725289c",
        "gas": "0xf9a4",
        "value": "0x0",
        "input": "0x095ea7b3000000000000000000000000e03a1074c86cfedd5c142c4f04f1a1536e203543ffffffffffffffffffffffffffffffffffffffffffffffffffffffffffffffff",
        "nonce": "0x4fe",
        "chainId": "0xaa36a7"
      },
      "additionalContracts": [],
      "isFixedGasLimit": false
    }
  ],
  "receipts": [
    {
      "status": "0x1",
      "cumulativeGasUsed": "0xd0d934",
      "logs": [
        {
          "address": "0xea30c4b8b44078bbf8a6ef5b9f1ec1626c7848d9",
          "topics": [
            "0xe9de54a3e7ddf0c48cc6e1134185300d5a71acbf2d8c21fcdefa9d9dd9e20ac1"
          ],
          "data": "0xbb39351b2bc70ad6be41519c393ba92b7146cf5c8fcae77c8a1f6982d55c880000000000000000000000000000000000000000000000000000000000000000a0000000000000000000000000000000000000000000000000000000000000012c00000000000000000000000000000000000000000000000000000000000000080000000000000000000000000000000000000000000000000000000000000000000000000000000000000000000000000000000000000000000000000000000e7472697669616c456e6372797074000000000000000000000000000000000000",
          "blockHash": "0xe981f69f837e661ea0c93fd0c4a0b136e3d8f9a3174c5b4f25c3f523ffd382b8",
          "blockNumber": "0x8cae4a",
          "blockTimestamp": "0x68ca3600",
          "transactionHash": "0x2c506cd65338d331a3db3d27c7aa26b9a904954a4f6e6b872719e06b882b9273",
          "transactionIndex": "0x40",
          "logIndex": "0x43",
          "removed": false
        },
        {
          "address": "0xea30c4b8b44078bbf8a6ef5b9f1ec1626c7848d9",
          "topics": [
            "0xe9de54a3e7ddf0c48cc6e1134185300d5a71acbf2d8c21fcdefa9d9dd9e20ac1"
          ],
          "data": "0x1253f33bcc7d14ead4330255d5baaf2209a953415c511c19411382f6423f840000000000000000000000000000000000000000000000000000000000000000a000000000000000000000000000000000000000000000000000000000000000b400000000000000000000000000000000000000000000000000000000000000040000000000000000000000000000000000000000000000000000000000000000000000000000000000000000000000000000000000000000000000000000000e7472697669616c456e6372797074000000000000000000000000000000000000",
          "blockHash": "0xe981f69f837e661ea0c93fd0c4a0b136e3d8f9a3174c5b4f25c3f523ffd382b8",
          "blockNumber": "0x8cae4a",
          "blockTimestamp": "0x68ca3600",
          "transactionHash": "0x2c506cd65338d331a3db3d27c7aa26b9a904954a4f6e6b872719e06b882b9273",
          "transactionIndex": "0x40",
          "logIndex": "0x44",
          "removed": false
        },
        {
          "address": "0xea30c4b8b44078bbf8a6ef5b9f1ec1626c7848d9",
          "topics": [
            "0xe9de54a3e7ddf0c48cc6e1134185300d5a71acbf2d8c21fcdefa9d9dd9e20ac1"
          ],
          "data": "0xe8c638c5370ad54fb6bc7fb3c67f13705c787cf30645cd1b92d5f61704b5840000000000000000000000000000000000000000000000000000000000000000a0000000000000000000000000000000000000000000000000000000000000006400000000000000000000000000000000000000000000000000000000000000040000000000000000000000000000000000000000000000000000000000000000000000000000000000000000000000000000000000000000000000000000000e7472697669616c456e6372797074000000000000000000000000000000000000",
          "blockHash": "0xe981f69f837e661ea0c93fd0c4a0b136e3d8f9a3174c5b4f25c3f523ffd382b8",
          "blockNumber": "0x8cae4a",
          "blockTimestamp": "0x68ca3600",
          "transactionHash": "0x2c506cd65338d331a3db3d27c7aa26b9a904954a4f6e6b872719e06b882b9273",
          "transactionIndex": "0x40",
          "logIndex": "0x45",
          "removed": false
        },
        {
          "address": "0xea30c4b8b44078bbf8a6ef5b9f1ec1626c7848d9",
          "topics": [
            "0xe9de54a3e7ddf0c48cc6e1134185300d5a71acbf2d8c21fcdefa9d9dd9e20ac1"
          ],
          "data": "0xb3e26d30bbd0fa3e41a1d86cb7844842fbb2638ed221cf36790bbd9c9f3e800000000000000000000000000000000000000000000000000000000000000000a0000000000000000000000000000000000000000000000000000000000000000100000000000000000000000000000000000000000000000000000000000000000000000000000000000000000000000000000000000000000000000000000000000000000000000000000000000000000000000000000000000000000000000e7472697669616c456e6372797074000000000000000000000000000000000000",
          "blockHash": "0xe981f69f837e661ea0c93fd0c4a0b136e3d8f9a3174c5b4f25c3f523ffd382b8",
          "blockNumber": "0x8cae4a",
          "blockTimestamp": "0x68ca3600",
          "transactionHash": "0x2c506cd65338d331a3db3d27c7aa26b9a904954a4f6e6b872719e06b882b9273",
          "transactionIndex": "0x40",
          "logIndex": "0x46",
          "removed": false
        },
        {
          "address": "0xea30c4b8b44078bbf8a6ef5b9f1ec1626c7848d9",
          "topics": [
            "0xe9de54a3e7ddf0c48cc6e1134185300d5a71acbf2d8c21fcdefa9d9dd9e20ac1"
          ],
          "data": "0xe8c638c5370ad54fb6bc7fb3c67f13705c787cf30645cd1b92d5f61704b5840000000000000000000000000000000000000000000000000000000000000000a0000000000000000000000000000000000000000000000000000000000000006400000000000000000000000000000000000000000000000000000000000000040000000000000000000000000000000000000000000000000000000000000000000000000000000000000000000000000000000000000000000000000000000e7472697669616c456e6372797074000000000000000000000000000000000000",
          "blockHash": "0xe981f69f837e661ea0c93fd0c4a0b136e3d8f9a3174c5b4f25c3f523ffd382b8",
          "blockNumber": "0x8cae4a",
          "blockTimestamp": "0x68ca3600",
          "transactionHash": "0x2c506cd65338d331a3db3d27c7aa26b9a904954a4f6e6b872719e06b882b9273",
          "transactionIndex": "0x40",
          "logIndex": "0x47",
          "removed": false
        },
        {
          "address": "0xea30c4b8b44078bbf8a6ef5b9f1ec1626c7848d9",
          "topics": [
            "0xe9de54a3e7ddf0c48cc6e1134185300d5a71acbf2d8c21fcdefa9d9dd9e20ac1"
          ],
          "data": "0xd8d542465d641073d3a041fe1808c3ef4b840d59b78f9a8d96485189b1f2880000000000000000000000000000000000000000000000000000000000000000a0000000000000000000000000000000000000000000000000000000000000000000000000000000000000000000000000000000000000000000000000000000080000000000000000000000000000000000000000000000000000000000000000000000000000000000000000000000000000000000000000000000000000000e7472697669616c456e6372797074000000000000000000000000000000000000",
          "blockHash": "0xe981f69f837e661ea0c93fd0c4a0b136e3d8f9a3174c5b4f25c3f523ffd382b8",
          "blockNumber": "0x8cae4a",
          "blockTimestamp": "0x68ca3600",
          "transactionHash": "0x2c506cd65338d331a3db3d27c7aa26b9a904954a4f6e6b872719e06b882b9273",
          "transactionIndex": "0x40",
          "logIndex": "0x48",
          "removed": false
        },
        {
          "address": "0xe03a1074c86cfedd5c142c4f04f1a1536e203543",
          "topics": [
            "0xdd466e674ea557f56295e2d0218a125ea4b4f0f6f3307b95f85e6110838d6438",
            "0xb8ebda0f25373c4b579a5e8754a09943f62d8278485fdc857a6f5a730591d001",
            "0x00000000000000000000000074406aba5eae9a6465f81fffd9404873d725289c",
            "0x000000000000000000000000d38a7aed5a245253da1a6cd5b55abb036036fb2d"
          ],
          "data": "0x0000000000000000000000000000000000000000000000000000000000000bb8000000000000000000000000000000000000000000000000000000000000003c000000000000000000000000ac7a2b3cc96e2baed45b08d4413bece0fa0e788000000000000000000000000000000000000000010000000000000000000000000000000000000000000000000000000000000000000000000000000000000000",
          "blockHash": "0xe981f69f837e661ea0c93fd0c4a0b136e3d8f9a3174c5b4f25c3f523ffd382b8",
          "blockNumber": "0x8cae4a",
          "blockTimestamp": "0x68ca3600",
          "transactionHash": "0x2c506cd65338d331a3db3d27c7aa26b9a904954a4f6e6b872719e06b882b9273",
          "transactionIndex": "0x40",
          "logIndex": "0x49",
          "removed": false
        }
      ],
      "logsBloom": "0x00000000000000000000000000000000080000000000000000000000000000800000004000000000000000000000000000000100008000000000000000000280000000000000000000000000000000000000000000000000800000000000000000000000000000000000000000000000000010000000100000000000000100000000000000000008000000000000000001000001000200000000000000200020000000000000000000000000000000000000000000000000000000000000000000000000000000000000000000000000000000000000000000000000000000001000000000000000000200000000000000000000000000000000020200000000",
      "type": "0x2",
      "transactionHash": "0x2c506cd65338d331a3db3d27c7aa26b9a904954a4f6e6b872719e06b882b9273",
      "transactionIndex": "0x40",
      "blockHash": "0xe981f69f837e661ea0c93fd0c4a0b136e3d8f9a3174c5b4f25c3f523ffd382b8",
      "blockNumber": "0x8cae4a",
      "gasUsed": "0x6462d",
      "effectiveGasPrice": "0x12814a",
      "from": "0x3e723f6b81431f325e3f08e75544f254c182afe2",
      "to": "0x429ba70129df741b2ca2a85bc3a2a3328e5c09b4",
      "contractAddress": null
    },
    {
      "status": "0x1",
      "cumulativeGasUsed": "0xd18df1",
      "logs": [
        {
          "address": "0xd38a7aed5a245253da1a6cd5b55abb036036fb2d",
          "topics": [
            "0x8c5be1e5ebec7d5bd14f71427d1e84f3dd0314c0f7b2291e5b200ac8c7c3b925",
            "0x0000000000000000000000003e723f6b81431f325e3f08e75544f254c182afe2",
            "0x000000000000000000000000ac7a2b3cc96e2baed45b08d4413bece0fa0e7880"
          ],
          "data": "0xffffffffffffffffffffffffffffffffffffffffffffffffffffffffffffffff",
          "blockHash": "0xe981f69f837e661ea0c93fd0c4a0b136e3d8f9a3174c5b4f25c3f523ffd382b8",
          "blockNumber": "0x8cae4a",
          "blockTimestamp": "0x68ca3600",
          "transactionHash": "0x7eca7a174c5fba9e4cd3ff933e4b9dccf198031c77e661ccbf42d2722807d02c",
          "transactionIndex": "0x41",
          "logIndex": "0x4a",
          "removed": false
        }
      ],
      "logsBloom": "0x00000000000000000000000000000000000000020000000000000000000000000000000000000000000000000000000020000000080000000000000000200000000000000000010000000000010000000000000000000000000000000000000000000000000000400000000000000000000000000000000000000000000000000000000000000000000000000000000000000000000000000000000000000000020000000000000080000000000000000000000000000000000010000000000000000000000000000000000000000000000000000000000000000000000000000010000000000000000000000001000000000000000000000000000000000000",
      "type": "0x2",
      "transactionHash": "0x7eca7a174c5fba9e4cd3ff933e4b9dccf198031c77e661ccbf42d2722807d02c",
      "transactionIndex": "0x41",
      "blockHash": "0xe981f69f837e661ea0c93fd0c4a0b136e3d8f9a3174c5b4f25c3f523ffd382b8",
      "blockNumber": "0x8cae4a",
      "gasUsed": "0xb4bd",
      "effectiveGasPrice": "0x12814a",
      "from": "0x3e723f6b81431f325e3f08e75544f254c182afe2",
      "to": "0xd38a7aed5a245253da1a6cd5b55abb036036fb2d",
      "contractAddress": null
    },
    {
      "status": "0x1",
      "cumulativeGasUsed": "0xd242ae",
      "logs": [
        {
          "address": "0x74406aba5eae9a6465f81fffd9404873d725289c",
          "topics": [
            "0x8c5be1e5ebec7d5bd14f71427d1e84f3dd0314c0f7b2291e5b200ac8c7c3b925",
            "0x0000000000000000000000003e723f6b81431f325e3f08e75544f254c182afe2",
            "0x000000000000000000000000ac7a2b3cc96e2baed45b08d4413bece0fa0e7880"
          ],
          "data": "0xffffffffffffffffffffffffffffffffffffffffffffffffffffffffffffffff",
          "blockHash": "0xe981f69f837e661ea0c93fd0c4a0b136e3d8f9a3174c5b4f25c3f523ffd382b8",
          "blockNumber": "0x8cae4a",
          "blockTimestamp": "0x68ca3600",
          "transactionHash": "0xb6516e7f2d81eb5c4cf9407ea959dee97b38998b773395ff46b6e49532f748cd",
          "transactionIndex": "0x42",
          "logIndex": "0x4b",
          "removed": false
        }
      ],
      "logsBloom": "0x00000000000000000000000000000000000000020000000400000000000000000000000000000000000000000000000000000000080000000000000000200400000000000000010000000000010000000000000000000000000000000000000000000000000080000000000000000000000000000000000000000000000000000000000000000000000000000000000000000000000000000000000000000000020000000000000080000000000000000000000000000000000010000000000000000000000000000000000000000000000000000000000000000000000000000010000000000000000000000000000000000000000000000000000000000000",
      "type": "0x2",
      "transactionHash": "0xb6516e7f2d81eb5c4cf9407ea959dee97b38998b773395ff46b6e49532f748cd",
      "transactionIndex": "0x42",
      "blockHash": "0xe981f69f837e661ea0c93fd0c4a0b136e3d8f9a3174c5b4f25c3f523ffd382b8",
      "blockNumber": "0x8cae4a",
      "gasUsed": "0xb4bd",
      "effectiveGasPrice": "0x12814a",
      "from": "0x3e723f6b81431f325e3f08e75544f254c182afe2",
      "to": "0x74406aba5eae9a6465f81fffd9404873d725289c",
      "contractAddress": null
    },
    {
      "status": "0x1",
      "cumulativeGasUsed": "0xd2f76b",
      "logs": [
        {
          "address": "0xd38a7aed5a245253da1a6cd5b55abb036036fb2d",
          "topics": [
            "0x8c5be1e5ebec7d5bd14f71427d1e84f3dd0314c0f7b2291e5b200ac8c7c3b925",
            "0x0000000000000000000000003e723f6b81431f325e3f08e75544f254c182afe2",
            "0x000000000000000000000000e03a1074c86cfedd5c142c4f04f1a1536e203543"
          ],
          "data": "0xffffffffffffffffffffffffffffffffffffffffffffffffffffffffffffffff",
          "blockHash": "0xe981f69f837e661ea0c93fd0c4a0b136e3d8f9a3174c5b4f25c3f523ffd382b8",
          "blockNumber": "0x8cae4a",
          "blockTimestamp": "0x68ca3600",
          "transactionHash": "0x44355fe037cc0ca7d640e8cd06834bdcd38d41b4fed6b79a8ab07cb025d6c34a",
          "transactionIndex": "0x43",
          "logIndex": "0x4c",
          "removed": false
        }
      ],
      "logsBloom": "0x00000000000000000000000000000000000000000000000000000000000000000000000000000000000000000000000020000000080000000000000000200000000000000000000000000000000000000000000000000000000000000000000000000000000000400000000080000000000000000000000000000000000000000000000000000000000010000000000000000000000000000000000000000000020000000000000080000000000000000000000000000000000010000000000000000000000000000000000000000000000000000000000000001000000000000010000000000000000000000001000000000000000000000000000000000000",
      "type": "0x2",
      "transactionHash": "0x44355fe037cc0ca7d640e8cd06834bdcd38d41b4fed6b79a8ab07cb025d6c34a",
      "transactionIndex": "0x43",
      "blockHash": "0xe981f69f837e661ea0c93fd0c4a0b136e3d8f9a3174c5b4f25c3f523ffd382b8",
      "blockNumber": "0x8cae4a",
      "gasUsed": "0xb4bd",
      "effectiveGasPrice": "0x12814a",
      "from": "0x3e723f6b81431f325e3f08e75544f254c182afe2",
      "to": "0xd38a7aed5a245253da1a6cd5b55abb036036fb2d",
      "contractAddress": null
    },
    {
      "status": "0x1",
      "cumulativeGasUsed": "0xd3ac28",
      "logs": [
        {
          "address": "0x74406aba5eae9a6465f81fffd9404873d725289c",
          "topics": [
            "0x8c5be1e5ebec7d5bd14f71427d1e84f3dd0314c0f7b2291e5b200ac8c7c3b925",
            "0x0000000000000000000000003e723f6b81431f325e3f08e75544f254c182afe2",
            "0x000000000000000000000000e03a1074c86cfedd5c142c4f04f1a1536e203543"
          ],
          "data": "0xffffffffffffffffffffffffffffffffffffffffffffffffffffffffffffffff",
          "blockHash": "0xe981f69f837e661ea0c93fd0c4a0b136e3d8f9a3174c5b4f25c3f523ffd382b8",
          "blockNumber": "0x8cae4a",
          "blockTimestamp": "0x68ca3600",
          "transactionHash": "0xffa64ce248d9b29abdbd51fee55cc318aedf47500922cbcc3401fdbd0d720ec3",
          "transactionIndex": "0x44",
          "logIndex": "0x4d",
          "removed": false
        }
      ],
      "logsBloom": "0x00000000000000000000000000000000000000000000000400000000000000000000000000000000000000000000000000000000080000000000000000200400000000000000000000000000000000000000000000000000000000000000000000000000000080000000000080000000000000000000000000000000000000000000000000000000000010000000000000000000000000000000000000000000020000000000000080000000000000000000000000000000000010000000000000000000000000000000000000000000000000000000000000001000000000000010000000000000000000000000000000000000000000000000000000000000",
      "type": "0x2",
      "transactionHash": "0xffa64ce248d9b29abdbd51fee55cc318aedf47500922cbcc3401fdbd0d720ec3",
      "transactionIndex": "0x44",
      "blockHash": "0xe981f69f837e661ea0c93fd0c4a0b136e3d8f9a3174c5b4f25c3f523ffd382b8",
      "blockNumber": "0x8cae4a",
      "gasUsed": "0xb4bd",
      "effectiveGasPrice": "0x12814a",
      "from": "0x3e723f6b81431f325e3f08e75544f254c182afe2",
      "to": "0x74406aba5eae9a6465f81fffd9404873d725289c",
      "contractAddress": null
    }
  ],
  "libraries": [],
  "pending": [],
  "returns": {},
  "timestamp": 1758082562115,
  "chain": 11155111,
  "commit": "9f61f80"
}