{
  "transactions": [
    {
      "hash": "0xb144acd7a37e6becaff3bca6f08c09971e703cd2b3361dac3132baae10e26ffa",
      "transactionType": "CALL",
      "contractName": null,
      "contractAddress": "0xabc0afb70f325f4119cfca4083ea2a580ec40d3f",
      "function": "approve(address,uint256)",
      "arguments": [
        "0x54Ce5e7351BF259604F3DB6D79fC3653A15EF880",
        "1000000000000000000"
      ],
      "transaction": {
        "from": "0x3e723f6b81431f325e3f08e75544f254c182afe2",
        "to": "0xabc0afb70f325f4119cfca4083ea2a580ec40d3f",
        "gas": "0x94dc",
        "value": "0x0",
        "input": "0x095ea7b300000000000000000000000054ce5e7351bf259604f3db6d79fc3653a15ef8800000000000000000000000000000000000000000000000000de0b6b3a7640000",
        "nonce": "0x68f",
        "chainId": "0xaa36a7"
      },
      "additionalContracts": [],
      "isFixedGasLimit": false
    },
    {
      "hash": "0xb07bd816d858842273cd4640de60fe73fbf4cc8d9825a22b0c1ae6394c31b6fe",
      "transactionType": "CALL",
      "contractName": null,
      "contractAddress": "0x3e68f0f304314495fa45907170a59d0ba5218bcc",
      "function": "approve(address,uint256)",
      "arguments": [
        "0x54Ce5e7351BF259604F3DB6D79fC3653A15EF880",
        "1000000000000000000"
      ],
      "transaction": {
        "from": "0x3e723f6b81431f325e3f08e75544f254c182afe2",
        "to": "0x3e68f0f304314495fa45907170a59d0ba5218bcc",
        "gas": "0x94dc",
        "value": "0x0",
        "input": "0x095ea7b300000000000000000000000054ce5e7351bf259604f3db6d79fc3653a15ef8800000000000000000000000000000000000000000000000000de0b6b3a7640000",
        "nonce": "0x690",
        "chainId": "0xaa36a7"
      },
      "additionalContracts": [],
      "isFixedGasLimit": false
    }
  ],
  "receipts": [
    {
      "status": "0x1",
      "cumulativeGasUsed": "0x2485a76",
      "logs": [
        {
          "address": "0xabc0afb70f325f4119cfca4083ea2a580ec40d3f",
          "topics": [
            "0x8c5be1e5ebec7d5bd14f71427d1e84f3dd0314c0f7b2291e5b200ac8c7c3b925",
            "0x0000000000000000000000003e723f6b81431f325e3f08e75544f254c182afe2",
            "0x00000000000000000000000054ce5e7351bf259604f3db6d79fc3653a15ef880"
          ],
          "data": "0x0000000000000000000000000000000000000000000000000de0b6b3a7640000",
          "blockHash": "0xa4bc9d1c2b9922af00a78bc8e4d96567a866e43d2208c7a547376a9f982b9140",
          "blockNumber": "0x8cd5a6",
          "blockTimestamp": "0x68cc322c",
          "transactionHash": "0xb144acd7a37e6becaff3bca6f08c09971e703cd2b3361dac3132baae10e26ffa",
          "transactionIndex": "0x15f",
          "logIndex": "0x194",
          "removed": false
        }
      ],
      "logsBloom": "0x00000000000000000000000000000000000000000002000000000000000000000000000000000000000000000080000000000000080000000000000000200000000000000000000000000000000000100000000000000000000000000000000000000000000000000000000000000000000200000000000000000000000000000000000000000000000000000000000000000000000000000000000000000000020000000000004080000000100000000000000000000000000010000000000000000000000000000000000000000000000000000000000000000000000000000010000000000000000000000000000000000000000000000000000000000000",
      "type": "0x2",
      "transactionHash": "0xb144acd7a37e6becaff3bca6f08c09971e703cd2b3361dac3132baae10e26ffa",
      "transactionIndex": "0x15f",
      "blockHash": "0xa4bc9d1c2b9922af00a78bc8e4d96567a866e43d2208c7a547376a9f982b9140",
      "blockNumber": "0x8cd5a6",
      "gasUsed": "0x65c9",
      "effectiveGasPrice": "0xf6734",
      "from": "0x3e723f6b81431f325e3f08e75544f254c182afe2",
      "to": "0xabc0afb70f325f4119cfca4083ea2a580ec40d3f",
      "contractAddress": null
    },
    {
      "status": "0x1",
      "cumulativeGasUsed": "0x248c03f",
      "logs": [
        {
          "address": "0x3e68f0f304314495fa45907170a59d0ba5218bcc",
          "topics": [
            "0x8c5be1e5ebec7d5bd14f71427d1e84f3dd0314c0f7b2291e5b200ac8c7c3b925",
            "0x0000000000000000000000003e723f6b81431f325e3f08e75544f254c182afe2",
            "0x00000000000000000000000054ce5e7351bf259604f3db6d79fc3653a15ef880"
          ],
          "data": "0x0000000000000000000000000000000000000000000000000de0b6b3a7640000",
          "blockHash": "0xa4bc9d1c2b9922af00a78bc8e4d96567a866e43d2208c7a547376a9f982b9140",
          "blockNumber": "0x8cd5a6",
          "blockTimestamp": "0x68cc322c",
          "transactionHash": "0xb07bd816d858842273cd4640de60fe73fbf4cc8d9825a22b0c1ae6394c31b6fe",
          "transactionIndex": "0x160",
          "logIndex": "0x195",
          "removed": false
        }
      ],
      "logsBloom": "0x00000000000000000000000000000000000000000002000000000000000000000000000000000000000000000000000000000000080000800000000000200000000000000000000000000000000000000000000000000000000000000000000000000000000000000000000000000000000200000000000000000000000000000000000000000000000000000000000000000000000000000000000000000000020000000000000080000000100000000000000000002000000010000000000000000000000000000000000000000000000000000000000000000000000000400010000000000000000000000000000000000000000000000000000000000000",
      "type": "0x2",
      "transactionHash": "0xb07bd816d858842273cd4640de60fe73fbf4cc8d9825a22b0c1ae6394c31b6fe",
      "transactionIndex": "0x160",
      "blockHash": "0xa4bc9d1c2b9922af00a78bc8e4d96567a866e43d2208c7a547376a9f982b9140",
      "blockNumber": "0x8cd5a6",
      "gasUsed": "0x65c9",
      "effectiveGasPrice": "0xf6734",
      "from": "0x3e723f6b81431f325e3f08e75544f254c182afe2",
      "to": "0x3e68f0f304314495fa45907170a59d0ba5218bcc",
      "contractAddress": null
    }
  ],
  "libraries": [],
  "pending": [],
  "returns": {},
  "timestamp": 1758212654520,
  "chain": 11155111,
  "commit": "8893880"
}