{
  "transactions": [
    {
      "hash": "0x6f4bb842a94396879787985700324074a7edf540df7be38c88114704b3df1cd0",
      "transactionType": "CALL",
      "contractName": null,
      "contractAddress": "0xabc0afb70f325f4119cfca4083ea2a580ec40d3f",
      "function": "approve(address,uint256)",
      "arguments": [
        "0x54Ce5e7351BF259604F3DB6D79fC3653A15EF880",
        "1000000000000000000"
      ],
      "transaction": {
        "from": "0x3e723f6b81431f325e3f08e75544f254c182afe2",
        "to": "0xabc0afb70f325f4119cfca4083ea2a580ec40d3f",
        "gas": "0x94dc",
        "value": "0x0",
        "input": "0x095ea7b300000000000000000000000054ce5e7351bf259604f3db6d79fc3653a15ef8800000000000000000000000000000000000000000000000000de0b6b3a7640000",
        "nonce": "0x695",
        "chainId": "0xaa36a7"
      },
      "additionalContracts": [],
      "isFixedGasLimit": false
    },
    {
      "hash": "0xbda2fbad89c80ad20a72dfcb3d2ad193dc45213a1840c8430fe95f0d72c924c5",
      "transactionType": "CALL",
      "contractName": null,
      "contractAddress": "0x3e68f0f304314495fa45907170a59d0ba5218bcc",
      "function": "approve(address,uint256)",
      "arguments": [
        "0x54Ce5e7351BF259604F3DB6D79fC3653A15EF880",
        "1000000000000000000"
      ],
      "transaction": {
        "from": "0x3e723f6b81431f325e3f08e75544f254c182afe2",
        "to": "0x3e68f0f304314495fa45907170a59d0ba5218bcc",
        "gas": "0x94dc",
        "value": "0x0",
        "input": "0x095ea7b300000000000000000000000054ce5e7351bf259604f3db6d79fc3653a15ef8800000000000000000000000000000000000000000000000000de0b6b3a7640000",
        "nonce": "0x696",
        "chainId": "0xaa36a7"
      },
      "additionalContracts": [],
      "isFixedGasLimit": false
    }
  ],
  "receipts": [
    {
      "status": "0x1",
      "cumulativeGasUsed": "0xc4861e",
      "logs": [
        {
          "address": "0xabc0afb70f325f4119cfca4083ea2a580ec40d3f",
          "topics": [
            "0x8c5be1e5ebec7d5bd14f71427d1e84f3dd0314c0f7b2291e5b200ac8c7c3b925",
            "0x0000000000000000000000003e723f6b81431f325e3f08e75544f254c182afe2",
            "0x00000000000000000000000054ce5e7351bf259604f3db6d79fc3653a15ef880"
          ],
          "data": "0x0000000000000000000000000000000000000000000000000de0b6b3a7640000",
          "blockHash": "0x87e08f0e4ed73100a9ed0656bdffb4988973a63934d022fb7a25a0ce41f244d6",
          "blockNumber": "0x8cd63f",
          "blockTimestamp": "0x68cc39e8",
          "transactionHash": "0x6f4bb842a94396879787985700324074a7edf540df7be38c88114704b3df1cd0",
          "transactionIndex": "0x6b",
          "logIndex": "0x81",
          "removed": false
        }
      ],
      "logsBloom": "0x00000000000000000000000000000000000000000002000000000000000000000000000000000000000000000080000000000000080000000000000000200000000000000000000000000000000000100000000000000000000000000000000000000000000000000000000000000000000200000000000000000000000000000000000000000000000000000000000000000000000000000000000000000000020000000000004080000000100000000000000000000000000010000000000000000000000000000000000000000000000000000000000000000000000000000010000000000000000000000000000000000000000000000000000000000000",
      "type": "0x2",
      "transactionHash": "0x6f4bb842a94396879787985700324074a7edf540df7be38c88114704b3df1cd0",
      "transactionIndex": "0x6b",
      "blockHash": "0x87e08f0e4ed73100a9ed0656bdffb4988973a63934d022fb7a25a0ce41f244d6",
      "blockNumber": "0x8cd63f",
      "gasUsed": "0x65c9",
      "effectiveGasPrice": "0xf66eb",
      "from": "0x3e723f6b81431f325e3f08e75544f254c182afe2",
      "to": "0xabc0afb70f325f4119cfca4083ea2a580ec40d3f",
      "contractAddress": null
    },
    {
      "status": "0x1",
      "cumulativeGasUsed": "0xc4ebe7",
      "logs": [
        {
          "address": "0x3e68f0f304314495fa45907170a59d0ba5218bcc",
          "topics": [
            "0x8c5be1e5ebec7d5bd14f71427d1e84f3dd0314c0f7b2291e5b200ac8c7c3b925",
            "0x0000000000000000000000003e723f6b81431f325e3f08e75544f254c182afe2",
            "0x00000000000000000000000054ce5e7351bf259604f3db6d79fc3653a15ef880"
          ],
          "data": "0x0000000000000000000000000000000000000000000000000de0b6b3a7640000",
          "blockHash": "0x87e08f0e4ed73100a9ed0656bdffb4988973a63934d022fb7a25a0ce41f244d6",
          "blockNumber": "0x8cd63f",
          "blockTimestamp": "0x68cc39e8",
          "transactionHash": "0xbda2fbad89c80ad20a72dfcb3d2ad193dc45213a1840c8430fe95f0d72c924c5",
          "transactionIndex": "0x6c",
          "logIndex": "0x82",
          "removed": false
        }
      ],
      "logsBloom": "0x00000000000000000000000000000000000000000002000000000000000000000000000000000000000000000000000000000000080000800000000000200000000000000000000000000000000000000000000000000000000000000000000000000000000000000000000000000000000200000000000000000000000000000000000000000000000000000000000000000000000000000000000000000000020000000000000080000000100000000000000000002000000010000000000000000000000000000000000000000000000000000000000000000000000000400010000000000000000000000000000000000000000000000000000000000000",
      "type": "0x2",
      "transactionHash": "0xbda2fbad89c80ad20a72dfcb3d2ad193dc45213a1840c8430fe95f0d72c924c5",
      "transactionIndex": "0x6c",
      "blockHash": "0x87e08f0e4ed73100a9ed0656bdffb4988973a63934d022fb7a25a0ce41f244d6",
      "blockNumber": "0x8cd63f",
      "gasUsed": "0x65c9",
      "effectiveGasPrice": "0xf66eb",
      "from": "0x3e723f6b81431f325e3f08e75544f254c182afe2",
      "to": "0x3e68f0f304314495fa45907170a59d0ba5218bcc",
      "contractAddress": null
    }
  ],
  "libraries": [],
  "pending": [],
  "returns": {},
  "timestamp": 1758214634191,
  "chain": 11155111,
  "commit": "8893880"
}