{
  "transactions": [
    {
      "hash": "0xdb0fa1f5b60060a94dac9baf91c51236cd85b5dff113ffee3a8406fc493810b1",
      "transactionType": "CALL",
      "contractName": null,
      "contractAddress": "0xabc0afb70f325f4119cfca4083ea2a580ec40d3f",
      "function": "approve(address,uint256)",
      "arguments": [
        "0x54Ce5e7351BF259604F3DB6D79fC3653A15EF880",
        "1000000000000000000"
      ],
      "transaction": {
        "from": "0x3e723f6b81431f325e3f08e75544f254c182afe2",
        "to": "0xabc0afb70f325f4119cfca4083ea2a580ec40d3f",
        "gas": "0x94dc",
        "value": "0x0",
        "input": "0x095ea7b300000000000000000000000054ce5e7351bf259604f3db6d79fc3653a15ef8800000000000000000000000000000000000000000000000000de0b6b3a7640000",
        "nonce": "0x68d",
        "chainId": "0xaa36a7"
      },
      "additionalContracts": [],
      "isFixedGasLimit": false
    },
    {
      "hash": "0x274ec683aa6abd4a4b1e10f6fcb61ddcb277a6ecb3248acf020b3e1c5f8e80c8",
      "transactionType": "CALL",
      "contractName": null,
      "contractAddress": "0x3e68f0f304314495fa45907170a59d0ba5218bcc",
      "function": "approve(address,uint256)",
      "arguments": [
        "0x54Ce5e7351BF259604F3DB6D79fC3653A15EF880",
        "1000000000000000000"
      ],
      "transaction": {
        "from": "0x3e723f6b81431f325e3f08e75544f254c182afe2",
        "to": "0x3e68f0f304314495fa45907170a59d0ba5218bcc",
        "gas": "0x94dc",
        "value": "0x0",
        "input": "0x095ea7b300000000000000000000000054ce5e7351bf259604f3db6d79fc3653a15ef8800000000000000000000000000000000000000000000000000de0b6b3a7640000",
        "nonce": "0x68e",
        "chainId": "0xaa36a7"
      },
      "additionalContracts": [],
      "isFixedGasLimit": false
    }
  ],
  "receipts": [
    {
      "status": "0x1",
      "cumulativeGasUsed": "0xb19f7a",
      "logs": [
        {
          "address": "0xabc0afb70f325f4119cfca4083ea2a580ec40d3f",
          "topics": [
            "0x8c5be1e5ebec7d5bd14f71427d1e84f3dd0314c0f7b2291e5b200ac8c7c3b925",
            "0x0000000000000000000000003e723f6b81431f325e3f08e75544f254c182afe2",
            "0x00000000000000000000000054ce5e7351bf259604f3db6d79fc3653a15ef880"
          ],
          "data": "0x0000000000000000000000000000000000000000000000000de0b6b3a7640000",
          "blockHash": "0xefcbe7cff46ea4a7ab2c9992f5919c8a14e927b797b52068524d273a658bc161",
          "blockNumber": "0x8cd4af",
          "blockTimestamp": "0x68cc25d8",
          "transactionHash": "0xdb0fa1f5b60060a94dac9baf91c51236cd85b5dff113ffee3a8406fc493810b1",
          "transactionIndex": "0x6f",
          "logIndex": "0x7b",
          "removed": false
        }
      ],
      "logsBloom": "0x00000000000000000000000000000000000000000002000000000000000000000000000000000000000000000080000000000000080000000000000000200000000000000000000000000000000000100000000000000000000000000000000000000000000000000000000000000000000200000000000000000000000000000000000000000000000000000000000000000000000000000000000000000000020000000000004080000000100000000000000000000000000010000000000000000000000000000000000000000000000000000000000000000000000000000010000000000000000000000000000000000000000000000000000000000000",
      "type": "0x2",
      "transactionHash": "0xdb0fa1f5b60060a94dac9baf91c51236cd85b5dff113ffee3a8406fc493810b1",
      "transactionIndex": "0x6f",
      "blockHash": "0xefcbe7cff46ea4a7ab2c9992f5919c8a14e927b797b52068524d273a658bc161",
      "blockNumber": "0x8cd4af",
      "gasUsed": "0x65c9",
      "effectiveGasPrice": "0xfdf42",
      "from": "0x3e723f6b81431f325e3f08e75544f254c182afe2",
      "to": "0xabc0afb70f325f4119cfca4083ea2a580ec40d3f",
      "contractAddress": null
    },
    {
      "status": "0x1",
      "cumulativeGasUsed": "0xb20543",
      "logs": [
        {
          "address": "0x3e68f0f304314495fa45907170a59d0ba5218bcc",
          "topics": [
            "0x8c5be1e5ebec7d5bd14f71427d1e84f3dd0314c0f7b2291e5b200ac8c7c3b925",
            "0x0000000000000000000000003e723f6b81431f325e3f08e75544f254c182afe2",
            "0x00000000000000000000000054ce5e7351bf259604f3db6d79fc3653a15ef880"
          ],
          "data": "0x0000000000000000000000000000000000000000000000000de0b6b3a7640000",
          "blockHash": "0xefcbe7cff46ea4a7ab2c9992f5919c8a14e927b797b52068524d273a658bc161",
          "blockNumber": "0x8cd4af",
          "blockTimestamp": "0x68cc25d8",
          "transactionHash": "0x274ec683aa6abd4a4b1e10f6fcb61ddcb277a6ecb3248acf020b3e1c5f8e80c8",
          "transactionIndex": "0x70",
          "logIndex": "0x7c",
          "removed": false
        }
      ],
      "logsBloom": "0x00000000000000000000000000000000000000000002000000000000000000000000000000000000000000000000000000000000080000800000000000200000000000000000000000000000000000000000000000000000000000000000000000000000000000000000000000000000000200000000000000000000000000000000000000000000000000000000000000000000000000000000000000000000020000000000000080000000100000000000000000002000000010000000000000000000000000000000000000000000000000000000000000000000000000400010000000000000000000000000000000000000000000000000000000000000",
      "type": "0x2",
      "transactionHash": "0x274ec683aa6abd4a4b1e10f6fcb61ddcb277a6ecb3248acf020b3e1c5f8e80c8",
      "transactionIndex": "0x70",
      "blockHash": "0xefcbe7cff46ea4a7ab2c9992f5919c8a14e927b797b52068524d273a658bc161",
      "blockNumber": "0x8cd4af",
      "gasUsed": "0x65c9",
      "effectiveGasPrice": "0xfdf42",
      "from": "0x3e723f6b81431f325e3f08e75544f254c182afe2",
      "to": "0x3e68f0f304314495fa45907170a59d0ba5218bcc",
      "contractAddress": null
    }
  ],
  "libraries": [],
  "pending": [],
  "returns": {},
  "timestamp": 1758209498161,
  "chain": 11155111,
  "commit": "8893880"
}