{
  "transactions": [
    {
      "hash": "0xdbe71d719afbeb5238b1a7d94fec1ca345ce0ee975fc2c016695c2472a9f5ba0",
      "transactionType": "CALL",
      "contractName": null,
      "contractAddress": "0x0e42efc341d5ef175db4ce9516d13eecc379e9ec",
      "function": "approve(address,uint256)",
      "arguments": [
        "0xf13D190e9117920c703d79B5F33732e10049b115",
        "115792089237316195423570985008687907853269984665640564039457584007913129639935"
      ],
      "transaction": {
        "from": "0x3e723f6b81431f325e3f08e75544f254c182afe2",
        "to": "0x0e42efc341d5ef175db4ce9516d13eecc379e9ec",
        "gas": "0x10842",
        "value": "0x0",
        "input": "0x095ea7b3000000000000000000000000f13d190e9117920c703d79b5f33732e10049b115ffffffffffffffffffffffffffffffffffffffffffffffffffffffffffffffff",
        "nonce": "0x57a",
        "chainId": "0xaa36a7"
      },
      "additionalContracts": [],
      "isFixedGasLimit": false
    },
    {
      "hash": "0x37f04a6a9999f5bac5ff89fb8dbed2598796921d53145e5fdd96ac81244bd9ee",
      "transactionType": "CALL",
      "contractName": null,
      "contractAddress": "0xf7ec23380bb7adedaf4c69239b66e444b4aaffdb",
      "function": "approve(address,uint256)",
      "arguments": [
        "0xf13D190e9117920c703d79B5F33732e10049b115",
        "115792089237316195423570985008687907853269984665640564039457584007913129639935"
      ],
      "transaction": {
        "from": "0x3e723f6b81431f325e3f08e75544f254c182afe2",
        "to": "0xf7ec23380bb7adedaf4c69239b66e444b4aaffdb",
        "gas": "0x10842",
        "value": "0x0",
        "input": "0x095ea7b3000000000000000000000000f13d190e9117920c703d79b5f33732e10049b115ffffffffffffffffffffffffffffffffffffffffffffffffffffffffffffffff",
        "nonce": "0x57b",
        "chainId": "0xaa36a7"
      },
      "additionalContracts": [],
      "isFixedGasLimit": false
    },
    {
      "hash": "0x49fceef1fc78df23b0d8ddc14d68d57c631dca3d608a09f4315ca51d965a821b",
      "transactionType": "CALL",
      "contractName": null,
      "contractAddress": "0xf13d190e9117920c703d79b5f33732e10049b115",
      "function": "swapExactTokensForTokens(uint256,uint256,bool,(address,address,uint24,int24,address),bytes,address,uint256)",
      "arguments": [
        "1000000",
        "0",
        "true",
        "(0x0E42Efc341d5ef175dB4CE9516d13eecC379e9Ec, 0xf7eC23380BB7adEdaf4c69239B66e444B4aaffDb, 3000, 60, 0x0faF3047Dc05328c5251a7BeEF8408c4d3A23880)",
        "0x",
        "0x3e723f6B81431f325E3F08e75544F254C182AFE2",
        "1758136128"
      ],
      "transaction": {
        "from": "0x3e723f6b81431f325e3f08e75544f254c182afe2",
        "to": "0xf13d190e9117920c703d79b5f33732e10049b115",
        "gas": "0x611e9",
        "value": "0x0",
        "input": "0xb1a0d57100000000000000000000000000000000000000000000000000000000000f4240000000000000000000000000000000000000000000000000000000000000000000000000000000000000000000000000000000000000000000000000000000010000000000000000000000000e42efc341d5ef175db4ce9516d13eecc379e9ec000000000000000000000000f7ec23380bb7adedaf4c69239b66e444b4aaffdb0000000000000000000000000000000000000000000000000000000000000bb8000000000000000000000000000000000000000000000000000000000000003c0000000000000000000000000faf3047dc05328c5251a7beef8408c4d3a2388000000000000000000000000000000000000000000000000000000000000001600000000000000000000000003e723f6b81431f325e3f08e75544f254c182afe20000000000000000000000000000000000000000000000000000000068cb07400000000000000000000000000000000000000000000000000000000000000000",
        "nonce": "0x57c",
        "chainId": "0xaa36a7"
      },
      "additionalContracts": [],
      "isFixedGasLimit": false
    }
  ],
  "receipts": [
    {
      "status": "0x1",
      "cumulativeGasUsed": "0x1461a7a",
      "logs": [
        {
          "address": "0x0e42efc341d5ef175db4ce9516d13eecc379e9ec",
          "topics": [
            "0x8c5be1e5ebec7d5bd14f71427d1e84f3dd0314c0f7b2291e5b200ac8c7c3b925",
            "0x0000000000000000000000003e723f6b81431f325e3f08e75544f254c182afe2",
            "0x000000000000000000000000f13d190e9117920c703d79b5f33732e10049b115"
          ],
          "data": "0xffffffffffffffffffffffffffffffffffffffffffffffffffffffffffffffff",
          "blockHash": "0xb855990c23e4f126a69ecec10343927dfc59f57d40733606c5696c91503a7a3d",
          "blockNumber": "0x8cbd4c",
          "blockTimestamp": "0x68caf954",
          "transactionHash": "0xdbe71d719afbeb5238b1a7d94fec1ca345ce0ee975fc2c016695c2472a9f5ba0",
          "transactionIndex": "0x52",
          "logIndex": "0x16f",
          "removed": false
        }
      ],
      "logsBloom": "0x00000000080000000000000000000000000000000000000000800000000000000000000000000000000000000000080000000000080000000000000000200000000000000000000000000008000000000000000000000000000000000000000000000000000000000000000000000000000000000000000000000000000000000000000000080000000000000000000000000000000000000000000000000000020000000000000080000000000000000000000000000000000010000000000000000000000000000000000000000000000000000000000000000000000080000010000000000000000000000000000000000000000000000000000000000000",
      "type": "0x2",
      "transactionHash": "0xdbe71d719afbeb5238b1a7d94fec1ca345ce0ee975fc2c016695c2472a9f5ba0",
      "transactionIndex": "0x52",
      "blockHash": "0xb855990c23e4f126a69ecec10343927dfc59f57d40733606c5696c91503a7a3d",
      "blockNumber": "0x8cbd4c",
      "gasUsed": "0xb4b1",
      "effectiveGasPrice": "0x12cd126",
      "from": "0x3e723f6b81431f325e3f08e75544f254c182afe2",
      "to": "0x0e42efc341d5ef175db4ce9516d13eecc379e9ec",
      "contractAddress": null
    },
    {
      "status": "0x1",
      "cumulativeGasUsed": "0x146cf2b",
      "logs": [
        {
          "address": "0xf7ec23380bb7adedaf4c69239b66e444b4aaffdb",
          "topics": [
            "0x8c5be1e5ebec7d5bd14f71427d1e84f3dd0314c0f7b2291e5b200ac8c7c3b925",
            "0x0000000000000000000000003e723f6b81431f325e3f08e75544f254c182afe2",
            "0x000000000000000000000000f13d190e9117920c703d79b5f33732e10049b115"
          ],
          "data": "0xffffffffffffffffffffffffffffffffffffffffffffffffffffffffffffffff",
          "blockHash": "0xb855990c23e4f126a69ecec10343927dfc59f57d40733606c5696c91503a7a3d",
          "blockNumber": "0x8cbd4c",
          "blockTimestamp": "0x68caf954",
          "transactionHash": "0x37f04a6a9999f5bac5ff89fb8dbed2598796921d53145e5fdd96ac81244bd9ee",
          "transactionIndex": "0x53",
          "logIndex": "0x170",
          "removed": false
        }
      ],
      "logsBloom": "0x00000000000000000000000000000000000000000000040000800000000000000000000000000000000000000000000020000000080000000000000000200000000000000000000000000100000000000000000000000000000000000000000000000000000000000000000000000000000000000000000000000000000000000000000000080000000000000000000000000000000000000000000000000000020000000000000080000000000000000000000000000000000010000000000000000000000000000000000000000000000000000000000000000000000080000010000000000000000000000000000000000000000000000000000000000000",
      "type": "0x2",
      "transactionHash": "0x37f04a6a9999f5bac5ff89fb8dbed2598796921d53145e5fdd96ac81244bd9ee",
      "transactionIndex": "0x53",
      "blockHash": "0xb855990c23e4f126a69ecec10343927dfc59f57d40733606c5696c91503a7a3d",
      "blockNumber": "0x8cbd4c",
      "gasUsed": "0xb4b1",
      "effectiveGasPrice": "0x12cd126",
      "from": "0x3e723f6b81431f325e3f08e75544f254c182afe2",
      "to": "0xf7ec23380bb7adedaf4c69239b66e444b4aaffdb",
      "contractAddress": null
    },
    {
      "status": "0x1",
      "cumulativeGasUsed": "0x14af5ac",
      "logs": [
        {
          "address": "0xe03a1074c86cfedd5c142c4f04f1a1536e203543",
          "topics": [
            "0x40e9cecb9f5f1f1c5b9c97dec2917b7ee92e57ba5563708daca94dd84ad7112f",
            "0x07c01ba9ea6c38fed25d1b727430d1ca3e7f621782afc74d25e9f7648367e882",
            "0x000000000000000000000000f13d190e9117920c703d79b5f33732e10049b115"
          ],
          "data": "0xfffffffffffffffffffffffffffffffffffffffffffffffffffffffffff0bdc000000000000000000000000000000000000000000000000000000000000f36870000000000000000000000000000000000000000fffffffffffd7d508a1251d80000000000000000000000000000000000000000000000060f4da7fe284f5deaffffffffffffffffffffffffffffffffffffffffffffffffffffffffffffffff0000000000000000000000000000000000000000000000000000000000000bb8",
          "blockHash": "0xb855990c23e4f126a69ecec10343927dfc59f57d40733606c5696c91503a7a3d",
          "blockNumber": "0x8cbd4c",
          "blockTimestamp": "0x68caf954",
          "transactionHash": "0x49fceef1fc78df23b0d8ddc14d68d57c631dca3d608a09f4315ca51d965a821b",
          "transactionIndex": "0x54",
          "logIndex": "0x171",
          "removed": false
        },
        {
          "address": "0x0e42efc341d5ef175db4ce9516d13eecc379e9ec",
          "topics": [
            "0xddf252ad1be2c89b69c2b068fc378daa952ba7f163c4a11628f55a4df523b3ef",
            "0x0000000000000000000000003e723f6b81431f325e3f08e75544f254c182afe2",
            "0x000000000000000000000000e03a1074c86cfedd5c142c4f04f1a1536e203543"
          ],
          "data": "0x00000000000000000000000000000000000000000000000000000000000f4240",
          "blockHash": "0xb855990c23e4f126a69ecec10343927dfc59f57d40733606c5696c91503a7a3d",
          "blockNumber": "0x8cbd4c",
          "blockTimestamp": "0x68caf954",
          "transactionHash": "0x49fceef1fc78df23b0d8ddc14d68d57c631dca3d608a09f4315ca51d965a821b",
          "transactionIndex": "0x54",
          "logIndex": "0x172",
          "removed": false
        },
        {
          "address": "0xf7ec23380bb7adedaf4c69239b66e444b4aaffdb",
          "topics": [
            "0xddf252ad1be2c89b69c2b068fc378daa952ba7f163c4a11628f55a4df523b3ef",
            "0x000000000000000000000000e03a1074c86cfedd5c142c4f04f1a1536e203543",
            "0x0000000000000000000000003e723f6b81431f325e3f08e75544f254c182afe2"
          ],
          "data": "0x00000000000000000000000000000000000000000000000000000000000f3687",
          "blockHash": "0xb855990c23e4f126a69ecec10343927dfc59f57d40733606c5696c91503a7a3d",
          "blockNumber": "0x8cbd4c",
          "blockTimestamp": "0x68caf954",
          "transactionHash": "0x49fceef1fc78df23b0d8ddc14d68d57c631dca3d608a09f4315ca51d965a821b",
          "transactionIndex": "0x54",
          "logIndex": "0x173",
          "removed": false
        }
      ],
      "logsBloom": "0x000000000800000000000000000000000000000000000400008000000000000000000000004000000000000000000800200001000c0000000000000000000000000000100000000000000108000000000000000000000020000000000000000000000000000000000000000080000000000000000000100000000010000000000000000000080000000010000000000000080000000000000000000000000000000000000000000080000000000000000000000000000000000010000000000000000002000000000000000000000000000000000000000000001000000080001000000000000000004000000000000000000000000000000000000000000000",
      "type": "0x2",
      "transactionHash": "0x49fceef1fc78df23b0d8ddc14d68d57c631dca3d608a09f4315ca51d965a821b",
      "transactionIndex": "0x54",
      "blockHash": "0xb855990c23e4f126a69ecec10343927dfc59f57d40733606c5696c91503a7a3d",
      "blockNumber": "0x8cbd4c",
      "gasUsed": "0x42681",
      "effectiveGasPrice": "0x12cd126",
      "from": "0x3e723f6b81431f325e3f08e75544f254c182afe2",
      "to": "0xf13d190e9117920c703d79b5f33732e10049b115",
      "contractAddress": null
    }
  ],
  "libraries": [],
  "pending": [],
  "returns": {},
  "timestamp": 1758132565112,
  "chain": 11155111,
  "commit": "7b9c819"
}