{
  "transactions": [
    {
      "hash": "0x72c41de442ed20b180ec091e707007598fef64308eee559972584f44cd63648f",
      "transactionType": "CALL",
      "contractName": null,
      "contractAddress": "0x0058863bb78b4325cab9d50ab75ca43601a9ef6b",
      "function": "approve(address,uint256)",
      "arguments": [
        "0xf13D190e9117920c703d79B5F33732e10049b115",
        "115792089237316195423570985008687907853269984665640564039457584007913129639935"
      ],
      "transaction": {
        "from": "0x3e723f6b81431f325e3f08e75544f254c182afe2",
        "to": "0x0058863bb78b4325cab9d50ab75ca43601a9ef6b",
        "gas": "0x10842",
        "value": "0x0",
        "input": "0x095ea7b3000000000000000000000000f13d190e9117920c703d79b5f33732e10049b115ffffffffffffffffffffffffffffffffffffffffffffffffffffffffffffffff",
        "nonce": "0x5c2",
        "chainId": "0xaa36a7"
      },
      "additionalContracts": [],
      "isFixedGasLimit": false
    },
    {
      "hash": "0xaddeb6b6d76e9a60e98c261fe74f9fb05c58e7f4c5b74248b046a510a2abcbaf",
      "transactionType": "CALL",
      "contractName": null,
      "contractAddress": "0x5abec0563014c1c02eb7a4f6924896e5f92579fc",
      "function": "approve(address,uint256)",
      "arguments": [
        "0xf13D190e9117920c703d79B5F33732e10049b115",
        "115792089237316195423570985008687907853269984665640564039457584007913129639935"
      ],
      "transaction": {
        "from": "0x3e723f6b81431f325e3f08e75544f254c182afe2",
        "to": "0x5abec0563014c1c02eb7a4f6924896e5f92579fc",
        "gas": "0x10842",
        "value": "0x0",
        "input": "0x095ea7b3000000000000000000000000f13d190e9117920c703d79b5f33732e10049b115ffffffffffffffffffffffffffffffffffffffffffffffffffffffffffffffff",
        "nonce": "0x5c3",
        "chainId": "0xaa36a7"
      },
      "additionalContracts": [],
      "isFixedGasLimit": false
    },
    {
      "hash": "0x65247d699e03f4f9ddc8e4196dabf29135eb87520dfd7071273f428c4f074e88",
      "transactionType": "CALL",
      "contractName": null,
      "contractAddress": "0xf13d190e9117920c703d79b5f33732e10049b115",
      "function": "swapExactTokensForTokens(uint256,uint256,bool,(address,address,uint24,int24,address),bytes,address,uint256)",
      "arguments": [
        "1000000000000000000",
        "0",
        "true",
        "(0x0058863bB78B4325caB9d50Ab75ca43601a9eF6b, 0x5abeC0563014C1C02Eb7a4f6924896e5F92579FC, 3000, 60, 0x0000000000000000000000000000000000000000)",
        "0x",
        "0x3e723f6B81431f325E3F08e75544F254C182AFE2",
        "1758172260"
      ],
      "transaction": {
        "from": "0x3e723f6b81431f325e3f08e75544f254c182afe2",
        "to": "0xf13d190e9117920c703d79b5f33732e10049b115",
        "gas": "0x2aa40",
        "value": "0x0",
        "input": "0xb1a0d5710000000000000000000000000000000000000000000000000de0b6b3a7640000000000000000000000000000000000000000000000000000000000000000000000000000000000000000000000000000000000000000000000000000000000010000000000000000000000000058863bb78b4325cab9d50ab75ca43601a9ef6b0000000000000000000000005abec0563014c1c02eb7a4f6924896e5f92579fc0000000000000000000000000000000000000000000000000000000000000bb8000000000000000000000000000000000000000000000000000000000000003c000000000000000000000000000000000000000000000000000000000000000000000000000000000000000000000000000000000000000000000000000001600000000000000000000000003e723f6b81431f325e3f08e75544f254c182afe20000000000000000000000000000000000000000000000000000000068cb94640000000000000000000000000000000000000000000000000000000000000000",
        "nonce": "0x5c4",
        "chainId": "0xaa36a7"
      },
      "additionalContracts": [],
      "isFixedGasLimit": false
    }
  ],
  "receipts": [
    {
      "status": "0x1",
      "cumulativeGasUsed": "0xfe7358",
      "logs": [
        {
          "address": "0x0058863bb78b4325cab9d50ab75ca43601a9ef6b",
          "topics": [
            "0x8c5be1e5ebec7d5bd14f71427d1e84f3dd0314c0f7b2291e5b200ac8c7c3b925",
            "0x0000000000000000000000003e723f6b81431f325e3f08e75544f254c182afe2",
            "0x000000000000000000000000f13d190e9117920c703d79b5f33732e10049b115"
          ],
          "data": "0xffffffffffffffffffffffffffffffffffffffffffffffffffffffffffffffff",
          "blockHash": "0x5b9e100b5135f6ca1b70bc10c94654d83fa81d9d222679b1bbc0c831fd7b8fec",
          "blockNumber": "0x8cc84a",
          "transactionHash": "0x72c41de442ed20b180ec091e707007598fef64308eee559972584f44cd63648f",
          "transactionIndex": "0x47",
          "logIndex": "0x8d",
          "removed": false
        }
      ],
      "logsBloom": "0x00000000000000000000000000000000000000000000000080800000000000000000000000000000000000000000000000000000080000000000000000200000000000000000000000000000000000000000000000000000000000000000000000000000000000000000000000000000000000000000000000000000000000000000000000080000000000000000000000000000000000000000000000000000020000000000000080810000000000000000000000000000000010000000000000000000000000000000000000000000000000000000000000000000000080000010000000000000000000000000000000000000000000000000000000000000",
      "type": "0x2",
      "transactionHash": "0x72c41de442ed20b180ec091e707007598fef64308eee559972584f44cd63648f",
      "transactionIndex": "0x47",
      "blockHash": "0x5b9e100b5135f6ca1b70bc10c94654d83fa81d9d222679b1bbc0c831fd7b8fec",
      "blockNumber": "0x8cc84a",
      "gasUsed": "0xb4b1",
      "effectiveGasPrice": "0xf4252",
      "from": "0x3e723f6b81431f325e3f08e75544f254c182afe2",
      "to": "0x0058863bb78b4325cab9d50ab75ca43601a9ef6b",
      "contractAddress": null
    },
    {
      "status": "0x1",
      "cumulativeGasUsed": "0xfffb0f",
      "logs": [
        {
          "address": "0x5abec0563014c1c02eb7a4f6924896e5f92579fc",
          "topics": [
            "0x8c5be1e5ebec7d5bd14f71427d1e84f3dd0314c0f7b2291e5b200ac8c7c3b925",
            "0x0000000000000000000000003e723f6b81431f325e3f08e75544f254c182afe2",
            "0x000000000000000000000000f13d190e9117920c703d79b5f33732e10049b115"
          ],
          "data": "0xffffffffffffffffffffffffffffffffffffffffffffffffffffffffffffffff",
          "blockHash": "0x5b9e100b5135f6ca1b70bc10c94654d83fa81d9d222679b1bbc0c831fd7b8fec",
          "blockNumber": "0x8cc84a",
          "blockTimestamp": "0x68cb866c",
          "transactionHash": "0xaddeb6b6d76e9a60e98c261fe74f9fb05c58e7f4c5b74248b046a510a2abcbaf",
          "transactionIndex": "0x4a",
          "logIndex": "0x8f",
          "removed": false
        }
      ],
      "logsBloom": "0x00000000000000000000000000000000000000000000000000800000000000000000000000000000000000000000000000000000080000000000000000200000000000000000000000000000000000000000000000000000000000000000000000000000000000000000000000000000000000000000000000000000000004000000000000080000000000000000000000000000000000000000000000000000020000000000000080000000000000000000000000000000000030000000000000000000000000000000000000000000000000000000000000000000000080000010000000000004000000000000000000000000000000000000000000000000",
      "type": "0x2",
      "transactionHash": "0xaddeb6b6d76e9a60e98c261fe74f9fb05c58e7f4c5b74248b046a510a2abcbaf",
      "transactionIndex": "0x4a",
      "blockHash": "0x5b9e100b5135f6ca1b70bc10c94654d83fa81d9d222679b1bbc0c831fd7b8fec",
      "blockNumber": "0x8cc84a",
      "gasUsed": "0xb4b1",
      "effectiveGasPrice": "0xf4252",
      "from": "0x3e723f6b81431f325e3f08e75544f254c182afe2",
      "to": "0x5abec0563014c1c02eb7a4f6924896e5f92579fc",
      "contractAddress": null
    },
    {
      "status": "0x1",
      "cumulativeGasUsed": "0x101e8ff",
      "logs": [
        {
          "address": "0xe03a1074c86cfedd5c142c4f04f1a1536e203543",
          "topics": [
            "0x40e9cecb9f5f1f1c5b9c97dec2917b7ee92e57ba5563708daca94dd84ad7112f",
            "0xdf9d2413ceeb4837095451060aa03b4f4a2d3bd9e9a3dd2b8bb738f18d7aec7f",
            "0x000000000000000000000000f13d190e9117920c703d79b5f33732e10049b115"
          ],
          "data": "0xfffffffffffffffffffffffffffffffffffffffffffffffff21f494c589c00000000000000000000000000000000000000000000000000000dd5031fa2b32cc10000000000000000000000000000000000000000ffecb2287b2aeb283694f1890000000000000000000000000000000000000000000000b76ef6d7d1e8594b01fffffffffffffffffffffffffffffffffffffffffffffffffffffffffffffffa0000000000000000000000000000000000000000000000000000000000000bb8",
          "blockHash": "0x5b9e100b5135f6ca1b70bc10c94654d83fa81d9d222679b1bbc0c831fd7b8fec",
          "blockNumber": "0x8cc84a",
          "blockTimestamp": "0x68cb866c",
          "transactionHash": "0x65247d699e03f4f9ddc8e4196dabf29135eb87520dfd7071273f428c4f074e88",
          "transactionIndex": "0x4b",
          "logIndex": "0x90",
          "removed": false
        },
        {
          "address": "0x0058863bb78b4325cab9d50ab75ca43601a9ef6b",
          "topics": [
            "0xddf252ad1be2c89b69c2b068fc378daa952ba7f163c4a11628f55a4df523b3ef",
            "0x0000000000000000000000003e723f6b81431f325e3f08e75544f254c182afe2",
            "0x000000000000000000000000e03a1074c86cfedd5c142c4f04f1a1536e203543"
          ],
          "data": "0x0000000000000000000000000000000000000000000000000de0b6b3a7640000",
          "blockHash": "0x5b9e100b5135f6ca1b70bc10c94654d83fa81d9d222679b1bbc0c831fd7b8fec",
          "blockNumber": "0x8cc84a",
          "blockTimestamp": "0x68cb866c",
          "transactionHash": "0x65247d699e03f4f9ddc8e4196dabf29135eb87520dfd7071273f428c4f074e88",
          "transactionIndex": "0x4b",
          "logIndex": "0x91",
          "removed": false
        },
        {
          "address": "0x5abec0563014c1c02eb7a4f6924896e5f92579fc",
          "topics": [
            "0xddf252ad1be2c89b69c2b068fc378daa952ba7f163c4a11628f55a4df523b3ef",
            "0x000000000000000000000000e03a1074c86cfedd5c142c4f04f1a1536e203543",
            "0x0000000000000000000000003e723f6b81431f325e3f08e75544f254c182afe2"
          ],
          "data": "0x0000000000000000000000000000000000000000000000000dd5031fa2b32cc1",
          "blockHash": "0x5b9e100b5135f6ca1b70bc10c94654d83fa81d9d222679b1bbc0c831fd7b8fec",
          "blockNumber": "0x8cc84a",
          "blockTimestamp": "0x68cb866c",
          "transactionHash": "0x65247d699e03f4f9ddc8e4196dabf29135eb87520dfd7071273f428c4f074e88",
          "transactionIndex": "0x4b",
          "logIndex": "0x92",
          "removed": false
        }
      ],
      "logsBloom": "0x000000000000000000000000000000000000000000000000808000000000000000000000000000000000000000000000010001000c00000000000000000000000000000000000000000000080000000000000000000000a0000000000000000000000000000000000000000080000000000000000000100000000010010004000000000000080000000010000000000000000000000000000000000000000000000000000000000080810000000000000000000000000000000030000000000000000002000000000000000000000000000000000000000000001000000080001000000000000004004000000000000000000000000000000000000000000000",
      "type": "0x2",
      "transactionHash": "0x65247d699e03f4f9ddc8e4196dabf29135eb87520dfd7071273f428c4f074e88",
      "transactionIndex": "0x4b",
      "blockHash": "0x5b9e100b5135f6ca1b70bc10c94654d83fa81d9d222679b1bbc0c831fd7b8fec",
      "blockNumber": "0x8cc84a",
      "gasUsed": "0x1edf0",
      "effectiveGasPrice": "0xf4252",
      "from": "0x3e723f6b81431f325e3f08e75544f254c182afe2",
      "to": "0xf13d190e9117920c703d79b5f33732e10049b115",
      "contractAddress": null
    }
  ],
  "libraries": [],
  "pending": [],
  "returns": {},
  "timestamp": 1758168685228,
  "chain": 11155111,
  "commit": "7b9c819"
}