{
  "transactions": [
    {
      "hash": "0x7a4efafcd9a484e5dc19c55bb5c361ca44c5f5707db1c156500acc6577e4890d",
      "transactionType": "CALL",
      "contractName": null,
      "contractAddress": "0x5f651eb3729f7c11de22af2dea7d45f18ce3fdfe",
      "function": "approve(address,uint256)",
      "arguments": [
        "0xf13D190e9117920c703d79B5F33732e10049b115",
        "115792089237316195423570985008687907853269984665640564039457584007913129639935"
      ],
      "transaction": {
        "from": "0x3e723f6b81431f325e3f08e75544f254c182afe2",
        "to": "0x5f651eb3729f7c11de22af2dea7d45f18ce3fdfe",
        "gas": "0x9372",
        "value": "0x0",
        "input": "0x095ea7b3000000000000000000000000f13d190e9117920c703d79b5f33732e10049b115ffffffffffffffffffffffffffffffffffffffffffffffffffffffffffffffff",
        "nonce": "0x62",
        "chainId": "0xaa36a7"
      },
      "additionalContracts": [],
      "isFixedGasLimit": false
    },
    {
      "hash": "0xd90cfcdc34260f0b20d80f7c61823d46d7248895b37cd6db17f92055a8af4657",
      "transactionType": "CALL",
      "contractName": null,
      "contractAddress": "0xe7220c5021cd3a6f5d25c69d50e071ad023ec29f",
      "function": "approve(address,uint256)",
      "arguments": [
        "0xf13D190e9117920c703d79B5F33732e10049b115",
        "115792089237316195423570985008687907853269984665640564039457584007913129639935"
      ],
      "transaction": {
        "from": "0x3e723f6b81431f325e3f08e75544f254c182afe2",
        "to": "0xe7220c5021cd3a6f5d25c69d50e071ad023ec29f",
        "gas": "0x9372",
        "value": "0x0",
        "input": "0x095ea7b3000000000000000000000000f13d190e9117920c703d79b5f33732e10049b115ffffffffffffffffffffffffffffffffffffffffffffffffffffffffffffffff",
        "nonce": "0x63",
        "chainId": "0xaa36a7"
      },
      "additionalContracts": [],
      "isFixedGasLimit": false
    },
    {
      "hash": "0x5a3cb3f1d4db1d0d01543a0443ddc2a3ab26a1ac0721067d0b43bcda9d23f054",
      "transactionType": "CALL",
      "contractName": null,
      "contractAddress": "0xf13d190e9117920c703d79b5f33732e10049b115",
      "function": "swapExactTokensForTokens(uint256,uint256,bool,(address,address,uint24,int24,address),bytes,address,uint256)",
      "arguments": [
        "1000000",
        "0",
        "true",
        "(0x5f651EB3729F7c11De22aF2dea7d45f18CE3fdfe, 0xE7220C5021cd3a6F5D25c69D50E071aD023Ec29F, 3000, 60, 0x768439A1a192bE391249E57238911D3010A2cAc0)",
        "0x",
        "0x3e723f6B81431f325E3F08e75544F254C182AFE2",
        "1757483406"
      ],
      "transaction": {
        "from": "0x3e723f6b81431f325e3f08e75544f254c182afe2",
        "to": "0xf13d190e9117920c703d79b5f33732e10049b115",
        "gas": "0x3e7b5",
        "value": "0x0",
        "input": "0xb1a0d57100000000000000000000000000000000000000000000000000000000000f4240000000000000000000000000000000000000000000000000000000000000000000000000000000000000000000000000000000000000000000000000000000010000000000000000000000005f651eb3729f7c11de22af2dea7d45f18ce3fdfe000000000000000000000000e7220c5021cd3a6f5d25c69d50e071ad023ec29f0000000000000000000000000000000000000000000000000000000000000bb8000000000000000000000000000000000000000000000000000000000000003c000000000000000000000000768439a1a192be391249e57238911d3010a2cac000000000000000000000000000000000000000000000000000000000000001600000000000000000000000003e723f6b81431f325e3f08e75544f254c182afe20000000000000000000000000000000000000000000000000000000068c1118e0000000000000000000000000000000000000000000000000000000000000000",
        "nonce": "0x64",
        "chainId": "0xaa36a7"
      },
      "additionalContracts": [],
      "isFixedGasLimit": false
    }
  ],
  "receipts": [
    {
      "status": "0x1",
      "cumulativeGasUsed": "0x72e583",
      "logs": [
        {
          "address": "0x5f651eb3729f7c11de22af2dea7d45f18ce3fdfe",
          "topics": [
            "0x8c5be1e5ebec7d5bd14f71427d1e84f3dd0314c0f7b2291e5b200ac8c7c3b925",
            "0x0000000000000000000000003e723f6b81431f325e3f08e75544f254c182afe2",
            "0x000000000000000000000000f13d190e9117920c703d79b5f33732e10049b115"
          ],
          "data": "0xffffffffffffffffffffffffffffffffffffffffffffffffffffffffffffffff",
          "blockHash": "0x2909ed16f06fb84701df20bae8f5f1d040b21d93e69850ac6d6485405d4ebbd3",
          "blockNumber": "0x8bf4ee",
          "blockTimestamp": "0x68c11194",
          "transactionHash": "0x7a4efafcd9a484e5dc19c55bb5c361ca44c5f5707db1c156500acc6577e4890d",
          "transactionIndex": "0x45",
          "logIndex": "0xb4",
          "removed": false
        }
      ],
      "logsBloom": "0x00000000000000000000000000000000000000000000000000800000000000080000000000000000000000000000000000000000080000000000000000200000000000000000000000000000000000000000000000000000000000000000000000000000000000000000000000000000000000000000000000000000400000000000000000080000000000000000000000000000000000000000000000000000020000000000000080000000000000000000000000000000000010000000000000000000000000000000000000000000000000000000000000000000000080000010000000000400000000000000000000000000000000000000000000000000",
      "type": "0x2",
      "transactionHash": "0x7a4efafcd9a484e5dc19c55bb5c361ca44c5f5707db1c156500acc6577e4890d",
      "transactionIndex": "0x45",
      "blockHash": "0x2909ed16f06fb84701df20bae8f5f1d040b21d93e69850ac6d6485405d4ebbd3",
      "blockNumber": "0x8bf4ee",
      "gasUsed": "0x6ac0",
      "effectiveGasPrice": "0x1d3499",
      "from": "0x3e723f6b81431f325e3f08e75544f254c182afe2",
      "to": "0x5f651eb3729f7c11de22af2dea7d45f18ce3fdfe",
      "contractAddress": null
    },
    {
      "status": "0x1",
      "cumulativeGasUsed": "0x735043",
      "logs": [
        {
          "address": "0xe7220c5021cd3a6f5d25c69d50e071ad023ec29f",
          "topics": [
            "0x8c5be1e5ebec7d5bd14f71427d1e84f3dd0314c0f7b2291e5b200ac8c7c3b925",
            "0x0000000000000000000000003e723f6b81431f325e3f08e75544f254c182afe2",
            "0x000000000000000000000000f13d190e9117920c703d79b5f33732e10049b115"
          ],
          "data": "0xffffffffffffffffffffffffffffffffffffffffffffffffffffffffffffffff",
          "blockHash": "0x2909ed16f06fb84701df20bae8f5f1d040b21d93e69850ac6d6485405d4ebbd3",
          "blockNumber": "0x8bf4ee",
          "blockTimestamp": "0x68c11194",
          "transactionHash": "0xd90cfcdc34260f0b20d80f7c61823d46d7248895b37cd6db17f92055a8af4657",
          "transactionIndex": "0x46",
          "logIndex": "0xb5",
          "removed": false
        }
      ],
      "logsBloom": "0x00000000000000000000000000000000000000000000000000800000000000000000000000000000000000000000000000000000080000000000000000200000000000000000000000000000000000000000000000000000000000000000000000000000000000000000000000000000000000000000000000000000000000000000000000080000020000000000000000000000000000000000000000400000020000000000000080000000000000000000000000000000000010100000000000000000000000000000000000000000000000000000000000000000000080000010000000000000000000000000000000000000000000000000000000000000",
      "type": "0x2",
      "transactionHash": "0xd90cfcdc34260f0b20d80f7c61823d46d7248895b37cd6db17f92055a8af4657",
      "transactionIndex": "0x46",
      "blockHash": "0x2909ed16f06fb84701df20bae8f5f1d040b21d93e69850ac6d6485405d4ebbd3",
      "blockNumber": "0x8bf4ee",
      "gasUsed": "0x6ac0",
      "effectiveGasPrice": "0x1d3499",
      "from": "0x3e723f6b81431f325e3f08e75544f254c182afe2",
      "to": "0xe7220c5021cd3a6f5d25c69d50e071ad023ec29f",
      "contractAddress": null
    }
  ],
  "libraries": [],
  "pending": [],
  "returns": {},
  "timestamp": 1757483414299,
  "chain": 11155111,
  "commit": "dbdb4ee"
}