{
  "transactions": [
    {
      "hash": "0x426a1b5cb2249f04ddb80f3f6f1719858c9a89408bedb12318f538cee08c9f46",
      "transactionType": "CALL",
      "contractName": null,
      "contractAddress": "0x8db2f6ecd40c2b00b9dc2c454ab68d320e5cd49f",
      "function": "approve(address,uint256)",
      "arguments": [
        "0xf13D190e9117920c703d79B5F33732e10049b115",
        "115792089237316195423570985008687907853269984665640564039457584007913129639935"
      ],
      "transaction": {
        "from": "0x3e723f6b81431f325e3f08e75544f254c182afe2",
        "to": "0x8db2f6ecd40c2b00b9dc2c454ab68d320e5cd49f",
        "gas": "0x10842",
        "value": "0x0",
        "input": "0x095ea7b3000000000000000000000000f13d190e9117920c703d79b5f33732e10049b115ffffffffffffffffffffffffffffffffffffffffffffffffffffffffffffffff",
        "nonce": "0x4de",
        "chainId": "0xaa36a7"
      },
      "additionalContracts": [],
      "isFixedGasLimit": false
    },
    {
      "hash": "0x9fd64b393fef177ac290800649b4a1fcc0bb86506d907f6d79792985f51da1db",
      "transactionType": "CALL",
      "contractName": null,
      "contractAddress": "0x3338282729aeb3f169c27c7c175b7e6f3e7095d8",
      "function": "approve(address,uint256)",
      "arguments": [
        "0xf13D190e9117920c703d79B5F33732e10049b115",
        "115792089237316195423570985008687907853269984665640564039457584007913129639935"
      ],
      "transaction": {
        "from": "0x3e723f6b81431f325e3f08e75544f254c182afe2",
        "to": "0x3338282729aeb3f169c27c7c175b7e6f3e7095d8",
        "gas": "0x10842",
        "value": "0x0",
        "input": "0x095ea7b3000000000000000000000000f13d190e9117920c703d79b5f33732e10049b115ffffffffffffffffffffffffffffffffffffffffffffffffffffffffffffffff",
        "nonce": "0x4df",
        "chainId": "0xaa36a7"
      },
      "additionalContracts": [],
      "isFixedGasLimit": false
    },
    {
      "hash": "0x7d96c7606af6748784c8ecc9e27fd39d73e1aac256b6648a208c12de28cc7e65",
      "transactionType": "CALL",
      "contractName": null,
      "contractAddress": "0xf13d190e9117920c703d79b5f33732e10049b115",
      "function": "swapExactTokensForTokens(uint256,uint256,bool,(address,address,uint24,int24,address),bytes,address,uint256)",
      "arguments": [
        "1000000",
        "0",
        "true",
        "(0x3338282729aeB3f169C27C7C175B7e6F3e7095D8, 0x8Db2f6ecd40C2B00B9dC2C454ab68D320e5CD49f, 3000, 60, 0x029BbE7c96875019e465829F4a79d356E1bbB880)",
        "0x",
        "0x3e723f6B81431f325E3F08e75544F254C182AFE2",
        "1758048816"
      ],
      "transaction": {
        "from": "0x3e723f6b81431f325e3f08e75544f254c182afe2",
        "to": "0xf13d190e9117920c703d79b5f33732e10049b115",
        "gas": "0x886d3",
        "value": "0x0",
        "input": "0xb1a0d57100000000000000000000000000000000000000000000000000000000000f4240000000000000000000000000000000000000000000000000000000000000000000000000000000000000000000000000000000000000000000000000000000010000000000000000000000003338282729aeb3f169c27c7c175b7e6f3e7095d80000000000000000000000008db2f6ecd40c2b00b9dc2c454ab68d320e5cd49f0000000000000000000000000000000000000000000000000000000000000bb8000000000000000000000000000000000000000000000000000000000000003c000000000000000000000000029bbe7c96875019e465829f4a79d356e1bbb88000000000000000000000000000000000000000000000000000000000000001600000000000000000000000003e723f6b81431f325e3f08e75544f254c182afe20000000000000000000000000000000000000000000000000000000068c9b2300000000000000000000000000000000000000000000000000000000000000000",
        "nonce": "0x4e0",
        "chainId": "0xaa36a7"
      },
      "additionalContracts": [],
      "isFixedGasLimit": false
    }
  ],
  "receipts": [
    {
      "status": "0x1",
      "cumulativeGasUsed": "0x3e24c2",
      "logs": [
        {
          "address": "0x8db2f6ecd40c2b00b9dc2c454ab68d320e5cd49f",
          "topics": [
            "0x8c5be1e5ebec7d5bd14f71427d1e84f3dd0314c0f7b2291e5b200ac8c7c3b925",
            "0x0000000000000000000000003e723f6b81431f325e3f08e75544f254c182afe2",
            "0x000000000000000000000000f13d190e9117920c703d79b5f33732e10049b115"
          ],
          "data": "0xffffffffffffffffffffffffffffffffffffffffffffffffffffffffffffffff",
          "blockHash": "0xb8026d2499b792c107f1d3e3b9aadd47116acbe5a792cf69825b35719574fd11",
          "blockNumber": "0x8ca30c",
          "blockTimestamp": "0x68c9a450",
          "transactionHash": "0x426a1b5cb2249f04ddb80f3f6f1719858c9a89408bedb12318f538cee08c9f46",
          "transactionIndex": "0x36",
          "logIndex": "0x36",
          "removed": false
        }
      ],
      "logsBloom": "0x00000000000000000000000000000000000000000000000000800000000000000000000000000000000000000000000000000000080000000000100000200000000000000000000000000000000000000004000000000000000000000000000000000000000000000000000000000000000000000000000000000000000000000000000000080000000000000000000000000000000000000000000000000000020000000000000080000000000000000000000000000000000010000000000000000000000000000000000000000000000000000000000000000000000080000010000000000000000000000000000010000000000000000000000000000000",
      "type": "0x2",
      "transactionHash": "0x426a1b5cb2249f04ddb80f3f6f1719858c9a89408bedb12318f538cee08c9f46",
      "transactionIndex": "0x36",
      "blockHash": "0xb8026d2499b792c107f1d3e3b9aadd47116acbe5a792cf69825b35719574fd11",
      "blockNumber": "0x8ca30c",
      "gasUsed": "0xb4b1",
      "effectiveGasPrice": "0x1333175",
      "from": "0x3e723f6b81431f325e3f08e75544f254c182afe2",
      "to": "0x8db2f6ecd40c2b00b9dc2c454ab68d320e5cd49f",
      "contractAddress": null
    },
    {
      "status": "0x1",
      "cumulativeGasUsed": "0x3ed973",
      "logs": [
        {
          "address": "0x3338282729aeb3f169c27c7c175b7e6f3e7095d8",
          "topics": [
            "0x8c5be1e5ebec7d5bd14f71427d1e84f3dd0314c0f7b2291e5b200ac8c7c3b925",
            "0x0000000000000000000000003e723f6b81431f325e3f08e75544f254c182afe2",
            "0x000000000000000000000000f13d190e9117920c703d79b5f33732e10049b115"
          ],
          "data": "0xffffffffffffffffffffffffffffffffffffffffffffffffffffffffffffffff",
          "blockHash": "0xb8026d2499b792c107f1d3e3b9aadd47116acbe5a792cf69825b35719574fd11",
          "blockNumber": "0x8ca30c",
          "blockTimestamp": "0x68c9a450",
          "transactionHash": "0x9fd64b393fef177ac290800649b4a1fcc0bb86506d907f6d79792985f51da1db",
          "transactionIndex": "0x37",
          "logIndex": "0x37",
          "removed": false
        }
      ],
      "logsBloom": "0x00000000000000000000000000000000000000000000000000800000000000000000000000000000000000000000000000000000080000000000000000200000000000000004000000000000000000008000000000000000020000000000000000000000000000000000000000000000000000000000000000000000000000000000000000080000000000000000000000000000000000000000000000000000020000000000000080000000000000000000000000000000000010000000000000000000000000000000000000000000000000000000000000000000000080000010000000000000000000000000000000000000000000000000000000000000",
      "type": "0x2",
      "transactionHash": "0x9fd64b393fef177ac290800649b4a1fcc0bb86506d907f6d79792985f51da1db",
      "transactionIndex": "0x37",
      "blockHash": "0xb8026d2499b792c107f1d3e3b9aadd47116acbe5a792cf69825b35719574fd11",
      "blockNumber": "0x8ca30c",
      "gasUsed": "0xb4b1",
      "effectiveGasPrice": "0x1333175",
      "from": "0x3e723f6b81431f325e3f08e75544f254c182afe2",
      "to": "0x3338282729aeb3f169c27c7c175b7e6f3e7095d8",
      "contractAddress": null
    },
    {
      "status": "0x1",
      "cumulativeGasUsed": "0x4505c7",
      "logs": [
        {
          "address": "0xe03a1074c86cfedd5c142c4f04f1a1536e203543",
          "topics": [
            "0x40e9cecb9f5f1f1c5b9c97dec2917b7ee92e57ba5563708daca94dd84ad7112f",
            "0x1c1bbdca59b1d33ba08d390a1c070e8273daec8554b0bb36a63aa33730ba473a",
            "0x000000000000000000000000f13d190e9117920c703d79b5f33732e10049b115"
          ],
          "data": "0x0000000000000000000000000000000000000000000000000000000000000000000000000000000000000000000000000000000000000000000000000000000000000000000000000000000000000000000000000000000000000001000276a40000000000000000000000000000000000000000000000000000000000000000fffffffffffffffffffffffffffffffffffffffffffffffffffffffffff276180000000000000000000000000000000000000000000000000000000000000bb8",
          "blockHash": "0xb8026d2499b792c107f1d3e3b9aadd47116acbe5a792cf69825b35719574fd11",
          "blockNumber": "0x8ca30c",
          "blockTimestamp": "0x68c9a450",
          "transactionHash": "0x7d96c7606af6748784c8ecc9e27fd39d73e1aac256b6648a208c12de28cc7e65",
          "transactionIndex": "0x38",
          "logIndex": "0x38",
          "removed": false
        }
      ],
      "logsBloom": "0x00000000000000000000000000000000000000000000000000800000000000000000000000000000000000000000000000000100040000000040000000000000000000000000000000000000000000000000000000000020000000000000000000000000000000000000000000000000000000000000100000000000000000000000000000080000000000000000000000000000000000000000008000000000000000000000000000000000000000000000000000000000000000000000000000000000000000000000000000000000000000000000000000000000000080001000000000000000004000000000000000000000000000000000000000080000",
      "type": "0x2",
      "transactionHash": "0x7d96c7606af6748784c8ecc9e27fd39d73e1aac256b6648a208c12de28cc7e65",
      "transactionIndex": "0x38",
      "blockHash": "0xb8026d2499b792c107f1d3e3b9aadd47116acbe5a792cf69825b35719574fd11",
      "blockNumber": "0x8ca30c",
      "gasUsed": "0x62c54",
      "effectiveGasPrice": "0x1333175",
      "from": "0x3e723f6b81431f325e3f08e75544f254c182afe2",
      "to": "0xf13d190e9117920c703d79b5f33732e10049b115",
      "contractAddress": null
    }
  ],
  "libraries": [],
  "pending": [],
  "returns": {},
  "timestamp": 1758045265276,
  "chain": 11155111,
  "commit": "9f61f80"
}