{
  "transactions": [
    {
      "hash": "0x3ffce871dad98ceba0764ad545b987e7a946cdba13e3ca91a5cd3cebae854946",
      "transactionType": "CALL",
      "contractName": null,
      "contractAddress": "0x3e68f0f304314495fa45907170a59d0ba5218bcc",
      "function": "approve(address,uint256)",
      "arguments": [
        "0xf13D190e9117920c703d79B5F33732e10049b115",
        "115792089237316195423570985008687907853269984665640564039457584007913129639935"
      ],
      "transaction": {
        "from": "0x3e723f6b81431f325e3f08e75544f254c182afe2",
        "to": "0x3e68f0f304314495fa45907170a59d0ba5218bcc",
        "gas": "0x8e35",
        "value": "0x0",
        "input": "0x095ea7b3000000000000000000000000f13d190e9117920c703d79b5f33732e10049b115ffffffffffffffffffffffffffffffffffffffffffffffffffffffffffffffff",
        "nonce": "0x65e",
        "chainId": "0xaa36a7"
      },
      "additionalContracts": [],
      "isFixedGasLimit": false
    },
    {
      "hash": "0x03902b66d9736b0c8776f64923c50782514fbdf63e5247583311a760181b7e46",
      "transactionType": "CALL",
      "contractName": null,
      "contractAddress": "0xabc0afb70f325f4119cfca4083ea2a580ec40d3f",
      "function": "approve(address,uint256)",
      "arguments": [
        "0xf13D190e9117920c703d79B5F33732e10049b115",
        "115792089237316195423570985008687907853269984665640564039457584007913129639935"
      ],
      "transaction": {
        "from": "0x3e723f6b81431f325e3f08e75544f254c182afe2",
        "to": "0xabc0afb70f325f4119cfca4083ea2a580ec40d3f",
        "gas": "0x8e35",
        "value": "0x0",
        "input": "0x095ea7b3000000000000000000000000f13d190e9117920c703d79b5f33732e10049b115ffffffffffffffffffffffffffffffffffffffffffffffffffffffffffffffff",
        "nonce": "0x65f",
        "chainId": "0xaa36a7"
      },
      "additionalContracts": [],
      "isFixedGasLimit": false
    },
    {
      "hash": "0xc98d3003159db710d87fa75285a312b92cc9dc759fbd83f37d13618024eeb499",
      "transactionType": "CALL",
      "contractName": null,
      "contractAddress": "0xf13d190e9117920c703d79b5f33732e10049b115",
      "function": "swapExactTokensForTokens(uint256,uint256,bool,(address,address,uint24,int24,address),bytes,address,uint256)",
      "arguments": [
        "1000000000000000000",
        "0",
        "true",
        "(0x3e68f0F304314495fa45907170a59D0BA5218bCc, 0xabc0Afb70F325F4119cFCA4083EA2A580Ec40D3F, 3000, 60, 0x54Ce5e7351BF259604F3DB6D79fC3653A15EF880)",
        "0x",
        "0x3e723f6B81431f325E3F08e75544F254C182AFE2",
        "1758177456"
      ],
      "transaction": {
        "from": "0x3e723f6b81431f325e3f08e75544f254c182afe2",
        "to": "0xf13d190e9117920c703d79b5f33732e10049b115",
        "gas": "0x8f93c",
        "value": "0x0",
        "input": "0xb1a0d5710000000000000000000000000000000000000000000000000de0b6b3a7640000000000000000000000000000000000000000000000000000000000000000000000000000000000000000000000000000000000000000000000000000000000010000000000000000000000003e68f0f304314495fa45907170a59d0ba5218bcc000000000000000000000000abc0afb70f325f4119cfca4083ea2a580ec40d3f0000000000000000000000000000000000000000000000000000000000000bb8000000000000000000000000000000000000000000000000000000000000003c00000000000000000000000054ce5e7351bf259604f3db6d79fc3653a15ef88000000000000000000000000000000000000000000000000000000000000001600000000000000000000000003e723f6b81431f325e3f08e75544f254c182afe20000000000000000000000000000000000000000000000000000000068cba8b00000000000000000000000000000000000000000000000000000000000000000",
        "nonce": "0x660",
        "chainId": "0xaa36a7"
      },
      "additionalContracts": [],
      "isFixedGasLimit": false
    }
  ],
  "receipts": [
    {
      "status": "0x1",
      "cumulativeGasUsed": "0xc4b677",
      "logs": [
        {
          "address": "0x3e68f0f304314495fa45907170a59d0ba5218bcc",
          "topics": [
            "0x8c5be1e5ebec7d5bd14f71427d1e84f3dd0314c0f7b2291e5b200ac8c7c3b925",
            "0x0000000000000000000000003e723f6b81431f325e3f08e75544f254c182afe2",
            "0x000000000000000000000000f13d190e9117920c703d79b5f33732e10049b115"
          ],
          "data": "0xffffffffffffffffffffffffffffffffffffffffffffffffffffffffffffffff",
          "blockHash": "0x3887f3268d8cde9c9628f055b9c2f6db97ba278cc6892f2d04727d88f82e531f",
          "blockNumber": "0x8cc9e6",
          "blockTimestamp": "0x68cb9ad0",
          "transactionHash": "0x3ffce871dad98ceba0764ad545b987e7a946cdba13e3ca91a5cd3cebae854946",
          "transactionIndex": "0x30",
          "logIndex": "0xa8",
          "removed": false
        }
      ],
      "logsBloom": "0x00000000000000000000000000000000000000000000000000800000000000000000000000000000000000000000000000000000080000800000000000200000000000000000000000000000000000000000000000000000000000000000000000000000000000000000000000000000000000000000000000000000000000000000000000080000000000000000000000000000000000000000000000000000020000000000000080000000000000000000000000002000000010000000000000000000000000000000000000000000000000000000000000000000000080400010000000000000000000000000000000000000000000000000000000000000",
      "type": "0x2",
      "transactionHash": "0x3ffce871dad98ceba0764ad545b987e7a946cdba13e3ca91a5cd3cebae854946",
      "transactionIndex": "0x30",
      "blockHash": "0x3887f3268d8cde9c9628f055b9c2f6db97ba278cc6892f2d04727d88f82e531f",
      "blockNumber": "0x8cc9e6",
      "gasUsed": "0x66f5",
      "effectiveGasPrice": "0xf4254",
      "from": "0x3e723f6b81431f325e3f08e75544f254c182afe2",
      "to": "0x3e68f0f304314495fa45907170a59d0ba5218bcc",
      "contractAddress": null
    },
    {
      "status": "0x1",
      "cumulativeGasUsed": "0xc51d6c",
      "logs": [
        {
          "address": "0xabc0afb70f325f4119cfca4083ea2a580ec40d3f",
          "topics": [
            "0x8c5be1e5ebec7d5bd14f71427d1e84f3dd0314c0f7b2291e5b200ac8c7c3b925",
            "0x0000000000000000000000003e723f6b81431f325e3f08e75544f254c182afe2",
            "0x000000000000000000000000f13d190e9117920c703d79b5f33732e10049b115"
          ],
          "data": "0xffffffffffffffffffffffffffffffffffffffffffffffffffffffffffffffff",
          "blockHash": "0x3887f3268d8cde9c9628f055b9c2f6db97ba278cc6892f2d04727d88f82e531f",
          "blockNumber": "0x8cc9e6",
          "transactionHash": "0x03902b66d9736b0c8776f64923c50782514fbdf63e5247583311a760181b7e46",
          "transactionIndex": "0x31",
          "logIndex": "0xa9",
          "removed": false
        }
      ],
      "logsBloom": "0x00000000000000000000000000000000000000000000000000800000000000000000000000000000000000000080000000000000080000000000000000200000000000000000000000000000000000100000000000000000000000000000000000000000000000000000000000000000000000000000000000000000000000000000000000080000000000000000000000000000000000000000000000000000020000000000004080000000000000000000000000000000000010000000000000000000000000000000000000000000000000000000000000000000000080000010000000000000000000000000000000000000000000000000000000000000",
      "type": "0x2",
      "transactionHash": "0x03902b66d9736b0c8776f64923c50782514fbdf63e5247583311a760181b7e46",
      "transactionIndex": "0x31",
      "blockHash": "0x3887f3268d8cde9c9628f055b9c2f6db97ba278cc6892f2d04727d88f82e531f",
      "blockNumber": "0x8cc9e6",
      "gasUsed": "0x66f5",
      "effectiveGasPrice": "0xf4254",
      "from": "0x3e723f6b81431f325e3f08e75544f254c182afe2",
      "to": "0xabc0afb70f325f4119cfca4083ea2a580ec40d3f",
      "contractAddress": null
    },
    {
      "status": "0x1",
      "cumulativeGasUsed": "0xcb402f",
      "logs": [
        {
          "address": "0xe03a1074c86cfedd5c142c4f04f1a1536e203543",
          "topics": [
            "0x40e9cecb9f5f1f1c5b9c97dec2917b7ee92e57ba5563708daca94dd84ad7112f",
            "0x02d51bf75a51000646945e2e9c31b37ab8849b28b49aeb34aa83ba6c044f37a3",
            "0x000000000000000000000000f13d190e9117920c703d79b5f33732e10049b115"
          ],
          "data": "0x0000000000000000000000000000000000000000000000000000000000000000000000000000000000000000000000000000000000000000000000000000000000000000000000000000000000000000000000000000000000000001000276a40000000000000000000000000000000000000000000000000000000000000000fffffffffffffffffffffffffffffffffffffffffffffffffffffffffff276180000000000000000000000000000000000000000000000000000000000000bb8",
          "blockHash": "0x3887f3268d8cde9c9628f055b9c2f6db97ba278cc6892f2d04727d88f82e531f",
          "blockNumber": "0x8cc9e6",
          "blockTimestamp": "0x68cb9ad0",
          "transactionHash": "0xc98d3003159db710d87fa75285a312b92cc9dc759fbd83f37d13618024eeb499",
          "transactionIndex": "0x32",
          "logIndex": "0xaa",
          "removed": false
        }
      ],
      "logsBloom": "0x00000000000000000000000000000000000000000000000000800000000000000000000000000000000000000000000000400100040000000000000000000000000000000000000000000000000000000000000000000020000000000000000000000000000000000000000000000000000000000000100000000000000000000000000000080000000000000200000000000000000000008000000000000000000000000000000000000000000000000000000000000000000000000000000000000000000000000000000000000000000000000000000000000000000080001000000000000000004000000000000000000000000000000000000000000000",
      "type": "0x2",
      "transactionHash": "0xc98d3003159db710d87fa75285a312b92cc9dc759fbd83f37d13618024eeb499",
      "transactionIndex": "0x32",
      "blockHash": "0x3887f3268d8cde9c9628f055b9c2f6db97ba278cc6892f2d04727d88f82e531f",
      "blockNumber": "0x8cc9e6",
      "gasUsed": "0x622c3",
      "effectiveGasPrice": "0xf4254",
      "from": "0x3e723f6b81431f325e3f08e75544f254c182afe2",
      "to": "0xf13d190e9117920c703d79b5f33732e10049b115",
      "contractAddress": null
    }
  ],
  "libraries": [],
  "pending": [],
  "returns": {},
  "timestamp": 1758173906006,
  "chain": 11155111,
  "commit": "7b9c819"
}