{
  "transactions": [
    {
      "hash": "0xffa970fb44f54d5ec0efb2aeff81bccd161c720a23f6e19cd50fb3a98d8a17fb",
      "transactionType": "CALL",
      "contractName": null,
      "contractAddress": "0x5f651eb3729f7c11de22af2dea7d45f18ce3fdfe",
      "function": "approve(address,uint256)",
      "arguments": [
        "0xf13D190e9117920c703d79B5F33732e10049b115",
        "115792089237316195423570985008687907853269984665640564039457584007913129639935"
      ],
      "transaction": {
        "from": "0x3e723f6b81431f325e3f08e75544f254c182afe2",
        "to": "0x5f651eb3729f7c11de22af2dea7d45f18ce3fdfe",
        "gas": "0x9372",
        "value": "0x0",
        "input": "0x095ea7b3000000000000000000000000f13d190e9117920c703d79b5f33732e10049b115ffffffffffffffffffffffffffffffffffffffffffffffffffffffffffffffff",
        "nonce": "0x65",
        "chainId": "0xaa36a7"
      },
      "additionalContracts": [],
      "isFixedGasLimit": false
    },
    {
      "hash": "0x2e95d142c662d512300d4a57a09a080c072f009cd9689b77b2e427e74d38b1f2",
      "transactionType": "CALL",
      "contractName": null,
      "contractAddress": "0xe7220c5021cd3a6f5d25c69d50e071ad023ec29f",
      "function": "approve(address,uint256)",
      "arguments": [
        "0xf13D190e9117920c703d79B5F33732e10049b115",
        "115792089237316195423570985008687907853269984665640564039457584007913129639935"
      ],
      "transaction": {
        "from": "0x3e723f6b81431f325e3f08e75544f254c182afe2",
        "to": "0xe7220c5021cd3a6f5d25c69d50e071ad023ec29f",
        "gas": "0x9372",
        "value": "0x0",
        "input": "0x095ea7b3000000000000000000000000f13d190e9117920c703d79b5f33732e10049b115ffffffffffffffffffffffffffffffffffffffffffffffffffffffffffffffff",
        "nonce": "0x66",
        "chainId": "0xaa36a7"
      },
      "additionalContracts": [],
      "isFixedGasLimit": false
    },
    {
      "hash": "0x05e42198bba6ebf2c30cc9648d76d176c32545768f0d8c8c43b46ef7bbd9ae45",
      "transactionType": "CALL",
      "contractName": null,
      "contractAddress": "0xf13d190e9117920c703d79b5f33732e10049b115",
      "function": "swapExactTokensForTokens(uint256,uint256,bool,(address,address,uint24,int24,address),bytes,address,uint256)",
      "arguments": [
        "1000000",
        "0",
        "true",
        "(0x5f651EB3729F7c11De22aF2dea7d45f18CE3fdfe, 0xE7220C5021cd3a6F5D25c69D50E071aD023Ec29F, 3000, 60, 0x768439A1a192bE391249E57238911D3010A2cAc0)",
        "0x",
        "0x3e723f6B81431f325E3F08e75544F254C182AFE2",
        "1757487048"
      ],
      "transaction": {
        "from": "0x3e723f6b81431f325e3f08e75544f254c182afe2",
        "to": "0xf13d190e9117920c703d79b5f33732e10049b115",
        "gas": "0x3e7b5",
        "value": "0x0",
        "input": "0xb1a0d57100000000000000000000000000000000000000000000000000000000000f4240000000000000000000000000000000000000000000000000000000000000000000000000000000000000000000000000000000000000000000000000000000010000000000000000000000005f651eb3729f7c11de22af2dea7d45f18ce3fdfe000000000000000000000000e7220c5021cd3a6f5d25c69d50e071ad023ec29f0000000000000000000000000000000000000000000000000000000000000bb8000000000000000000000000000000000000000000000000000000000000003c000000000000000000000000768439a1a192be391249e57238911d3010a2cac000000000000000000000000000000000000000000000000000000000000001600000000000000000000000003e723f6b81431f325e3f08e75544f254c182afe20000000000000000000000000000000000000000000000000000000068c11fc80000000000000000000000000000000000000000000000000000000000000000",
        "nonce": "0x67",
        "chainId": "0xaa36a7"
      },
      "additionalContracts": [],
      "isFixedGasLimit": false
    }
  ],
  "receipts": [
    {
      "status": "0x1",
      "cumulativeGasUsed": "0x6a2e60",
      "logs": [
        {
          "address": "0x5f651eb3729f7c11de22af2dea7d45f18ce3fdfe",
          "topics": [
            "0x8c5be1e5ebec7d5bd14f71427d1e84f3dd0314c0f7b2291e5b200ac8c7c3b925",
            "0x0000000000000000000000003e723f6b81431f325e3f08e75544f254c182afe2",
            "0x000000000000000000000000f13d190e9117920c703d79b5f33732e10049b115"
          ],
          "data": "0xffffffffffffffffffffffffffffffffffffffffffffffffffffffffffffffff",
          "blockHash": "0x8af39b57f6856902e17c82937dd28bec49102f198b43f01fe328dacf2d04c60f",
          "blockNumber": "0x8bf4f4",
          "blockTimestamp": "0x68c111dc",
          "transactionHash": "0xffa970fb44f54d5ec0efb2aeff81bccd161c720a23f6e19cd50fb3a98d8a17fb",
          "transactionIndex": "0x41",
          "logIndex": "0x5b",
          "removed": false
        }
      ],
      "logsBloom": "0x00000000000000000000000000000000000000000000000000800000000000080000000000000000000000000000000000000000080000000000000000200000000000000000000000000000000000000000000000000000000000000000000000000000000000000000000000000000000000000000000000000000400000000000000000080000000000000000000000000000000000000000000000000000020000000000000080000000000000000000000000000000000010000000000000000000000000000000000000000000000000000000000000000000000080000010000000000400000000000000000000000000000000000000000000000000",
      "type": "0x2",
      "transactionHash": "0xffa970fb44f54d5ec0efb2aeff81bccd161c720a23f6e19cd50fb3a98d8a17fb",
      "transactionIndex": "0x41",
      "blockHash": "0x8af39b57f6856902e17c82937dd28bec49102f198b43f01fe328dacf2d04c60f",
      "blockNumber": "0x8bf4f4",
      "gasUsed": "0x6ac0",
      "effectiveGasPrice": "0x12088b",
      "from": "0x3e723f6b81431f325e3f08e75544f254c182afe2",
      "to": "0x5f651eb3729f7c11de22af2dea7d45f18ce3fdfe",
      "contractAddress": null
    },
    {
      "status": "0x1",
      "cumulativeGasUsed": "0x6a9920",
      "logs": [
        {
          "address": "0xe7220c5021cd3a6f5d25c69d50e071ad023ec29f",
          "topics": [
            "0x8c5be1e5ebec7d5bd14f71427d1e84f3dd0314c0f7b2291e5b200ac8c7c3b925",
            "0x0000000000000000000000003e723f6b81431f325e3f08e75544f254c182afe2",
            "0x000000000000000000000000f13d190e9117920c703d79b5f33732e10049b115"
          ],
          "data": "0xffffffffffffffffffffffffffffffffffffffffffffffffffffffffffffffff",
          "blockHash": "0x8af39b57f6856902e17c82937dd28bec49102f198b43f01fe328dacf2d04c60f",
          "blockNumber": "0x8bf4f4",
          "blockTimestamp": "0x68c111dc",
          "transactionHash": "0x2e95d142c662d512300d4a57a09a080c072f009cd9689b77b2e427e74d38b1f2",
          "transactionIndex": "0x42",
          "logIndex": "0x5c",
          "removed": false
        }
      ],
      "logsBloom": "0x00000000000000000000000000000000000000000000000000800000000000000000000000000000000000000000000000000000080000000000000000200000000000000000000000000000000000000000000000000000000000000000000000000000000000000000000000000000000000000000000000000000000000000000000000080000020000000000000000000000000000000000000000400000020000000000000080000000000000000000000000000000000010100000000000000000000000000000000000000000000000000000000000000000000080000010000000000000000000000000000000000000000000000000000000000000",
      "type": "0x2",
      "transactionHash": "0x2e95d142c662d512300d4a57a09a080c072f009cd9689b77b2e427e74d38b1f2",
      "transactionIndex": "0x42",
      "blockHash": "0x8af39b57f6856902e17c82937dd28bec49102f198b43f01fe328dacf2d04c60f",
      "blockNumber": "0x8bf4f4",
      "gasUsed": "0x6ac0",
      "effectiveGasPrice": "0x12088b",
      "from": "0x3e723f6b81431f325e3f08e75544f254c182afe2",
      "to": "0xe7220c5021cd3a6f5d25c69d50e071ad023ec29f",
      "contractAddress": null
    },
    {
      "status": "0x1",
      "cumulativeGasUsed": "0x6d6ce6",
      "logs": [
        {
          "address": "0xe03a1074c86cfedd5c142c4f04f1a1536e203543",
          "topics": [
            "0x40e9cecb9f5f1f1c5b9c97dec2917b7ee92e57ba5563708daca94dd84ad7112f",
            "0xfa64f57654b119a9b4009696df843620b2ee08e5b627eea21d992af3b8ccc9fe",
            "0x000000000000000000000000f13d190e9117920c703d79b5f33732e10049b115"
          ],
          "data": "0xfffffffffffffffffffffffffffffffffffffffffffffffffffffffffff0bdc000000000000000000000000000000000000000000000000000000000000f141a0000000000000000000000000000000000000000fdbca5f74557ed7159403fc10000000000000000000000000000000000000000000000000000000006a9ad12ffffffffffffffffffffffffffffffffffffffffffffffffffffffffffffff4e0000000000000000000000000000000000000000000000000000000000000bb8",
          "blockHash": "0x8af39b57f6856902e17c82937dd28bec49102f198b43f01fe328dacf2d04c60f",
          "blockNumber": "0x8bf4f4",
          "blockTimestamp": "0x68c111dc",
          "transactionHash": "0x05e42198bba6ebf2c30cc9648d76d176c32545768f0d8c8c43b46ef7bbd9ae45",
          "transactionIndex": "0x43",
          "logIndex": "0x5d",
          "removed": false
        },
        {
          "address": "0x5f651eb3729f7c11de22af2dea7d45f18ce3fdfe",
          "topics": [
            "0xddf252ad1be2c89b69c2b068fc378daa952ba7f163c4a11628f55a4df523b3ef",
            "0x0000000000000000000000003e723f6b81431f325e3f08e75544f254c182afe2",
            "0x000000000000000000000000e03a1074c86cfedd5c142c4f04f1a1536e203543"
          ],
          "data": "0x00000000000000000000000000000000000000000000000000000000000f4240",
          "blockHash": "0x8af39b57f6856902e17c82937dd28bec49102f198b43f01fe328dacf2d04c60f",
          "blockNumber": "0x8bf4f4",
          "blockTimestamp": "0x68c111dc",
          "transactionHash": "0x05e42198bba6ebf2c30cc9648d76d176c32545768f0d8c8c43b46ef7bbd9ae45",
          "transactionIndex": "0x43",
          "logIndex": "0x5e",
          "removed": false
        },
        {
          "address": "0xe7220c5021cd3a6f5d25c69d50e071ad023ec29f",
          "topics": [
            "0xddf252ad1be2c89b69c2b068fc378daa952ba7f163c4a11628f55a4df523b3ef",
            "0x000000000000000000000000e03a1074c86cfedd5c142c4f04f1a1536e203543",
            "0x0000000000000000000000003e723f6b81431f325e3f08e75544f254c182afe2"
          ],
          "data": "0x00000000000000000000000000000000000000000000000000000000000f141a",
          "blockHash": "0x8af39b57f6856902e17c82937dd28bec49102f198b43f01fe328dacf2d04c60f",
          "blockNumber": "0x8bf4f4",
          "blockTimestamp": "0x68c111dc",
          "transactionHash": "0x05e42198bba6ebf2c30cc9648d76d176c32545768f0d8c8c43b46ef7bbd9ae45",
          "transactionIndex": "0x43",
          "logIndex": "0x5f",
          "removed": false
        }
      ],
      "logsBloom": "0x000000000000000000000000000000000000000000000000008000000000000800000000000000000000000000000000000001000c0000000000000000000000000000000000000000000008000000000000000000000020000000000000000000000000000000000000000080000000000000000000100000000010400000000000000000080000020010000000000000000000000000000000000000408000000000000000000080000800000000000000000000000000000010100000000000000002000000000000000000000000000000000000000000001040000080001000000000000400004000000000000000000000000000000000000000000000",
      "type": "0x2",
      "transactionHash": "0x05e42198bba6ebf2c30cc9648d76d176c32545768f0d8c8c43b46ef7bbd9ae45",
      "transactionIndex": "0x43",
      "blockHash": "0x8af39b57f6856902e17c82937dd28bec49102f198b43f01fe328dacf2d04c60f",
      "blockNumber": "0x8bf4f4",
      "gasUsed": "0x2d3c6",
      "effectiveGasPrice": "0x12088b",
      "from": "0x3e723f6b81431f325e3f08e75544f254c182afe2",
      "to": "0xf13d190e9117920c703d79b5f33732e10049b115",
      "contractAddress": null
    }
  ],
  "libraries": [],
  "pending": [],
  "returns": {},
  "timestamp": 1757483486099,
  "chain": 11155111,
  "commit": "dbdb4ee"
}