{
  "transactions": [
    {
      "hash": "0x0fc45c4f57a6ea962693c22d3db50c924b0cc47d3535e4b21b920f1cdc871a1a",
      "transactionType": "CALL",
      "contractName": null,
      "contractAddress": "0xa56b53ecb819339f8615a92686d373afe725507a",
      "function": "approve(address,uint256)",
      "arguments": [
        "0xf13D190e9117920c703d79B5F33732e10049b115",
        "115792089237316195423570985008687907853269984665640564039457584007913129639935"
      ],
      "transaction": {
        "from": "0x3e723f6b81431f325e3f08e75544f254c182afe2",
        "to": "0xa56b53ecb819339f8615a92686d373afe725507a",
        "gas": "0x10842",
        "value": "0x0",
        "input": "0x095ea7b3000000000000000000000000f13d190e9117920c703d79b5f33732e10049b115ffffffffffffffffffffffffffffffffffffffffffffffffffffffffffffffff",
        "nonce": "0x4e9",
        "chainId": "0xaa36a7"
      },
      "additionalContracts": [],
      "isFixedGasLimit": false
    },
    {
      "hash": "0x15214a22e20a176e16862d50c0e08f5c3e8d38a090848390ecfc07e057693109",
      "transactionType": "CALL",
      "contractName": null,
      "contractAddress": "0xd2873281eea8b50406e1ef7cf5f73edbbba1cf50",
      "function": "approve(address,uint256)",
      "arguments": [
        "0xf13D190e9117920c703d79B5F33732e10049b115",
        "115792089237316195423570985008687907853269984665640564039457584007913129639935"
      ],
      "transaction": {
        "from": "0x3e723f6b81431f325e3f08e75544f254c182afe2",
        "to": "0xd2873281eea8b50406e1ef7cf5f73edbbba1cf50",
        "gas": "0x10842",
        "value": "0x0",
        "input": "0x095ea7b3000000000000000000000000f13d190e9117920c703d79b5f33732e10049b115ffffffffffffffffffffffffffffffffffffffffffffffffffffffffffffffff",
        "nonce": "0x4ea",
        "chainId": "0xaa36a7"
      },
      "additionalContracts": [],
      "isFixedGasLimit": false
    },
    {
      "hash": "0x1c2bba0b18f81785373dcc98a9f446ce05fd58e9e573892bc354b7e622b1135f",
      "transactionType": "CALL",
      "contractName": null,
      "contractAddress": "0xf13d190e9117920c703d79b5f33732e10049b115",
      "function": "swapExactTokensForTokens(uint256,uint256,bool,(address,address,uint24,int24,address),bytes,address,uint256)",
      "arguments": [
        "1000000",
        "0",
        "true",
        "(0xA56B53EcB819339f8615A92686d373AFE725507a, 0xd2873281EEA8b50406e1eF7CF5F73EDbbbA1cF50, 3000, 60, 0x01f5Fa1b4E40C39AD05465Ea91BFA25df2343880)",
        "0x",
        "0x3e723f6B81431f325E3F08e75544F254C182AFE2",
        "1758082500"
      ],
      "transaction": {
        "from": "0x3e723f6b81431f325e3f08e75544f254c182afe2",
        "to": "0xf13d190e9117920c703d79b5f33732e10049b115",
        "gas": "0x8796a",
        "value": "0x0",
        "input": "0xb1a0d57100000000000000000000000000000000000000000000000000000000000f424000000000000000000000000000000000000000000000000000000000000000000000000000000000000000000000000000000000000000000000000000000001000000000000000000000000a56b53ecb819339f8615a92686d373afe725507a000000000000000000000000d2873281eea8b50406e1ef7cf5f73edbbba1cf500000000000000000000000000000000000000000000000000000000000000bb8000000000000000000000000000000000000000000000000000000000000003c00000000000000000000000001f5fa1b4e40c39ad05465ea91bfa25df234388000000000000000000000000000000000000000000000000000000000000001600000000000000000000000003e723f6b81431f325e3f08e75544f254c182afe20000000000000000000000000000000000000000000000000000000068ca35c40000000000000000000000000000000000000000000000000000000000000000",
        "nonce": "0x4eb",
        "chainId": "0xaa36a7"
      },
      "additionalContracts": [],
      "isFixedGasLimit": false
    }
  ],
  "receipts": [
    {
      "status": "0x1",
      "cumulativeGasUsed": "0xd26bcb",
      "logs": [
        {
          "address": "0xa56b53ecb819339f8615a92686d373afe725507a",
          "topics": [
            "0x8c5be1e5ebec7d5bd14f71427d1e84f3dd0314c0f7b2291e5b200ac8c7c3b925",
            "0x0000000000000000000000003e723f6b81431f325e3f08e75544f254c182afe2",
            "0x000000000000000000000000f13d190e9117920c703d79b5f33732e10049b115"
          ],
          "data": "0xffffffffffffffffffffffffffffffffffffffffffffffffffffffffffffffff",
          "blockHash": "0xea78ec9e1c0444f066c07b2a05d3ee675a1e9cd587e3bd659c084d87c9738838",
          "blockNumber": "0x8cad33",
          "blockTimestamp": "0x68ca27f0",
          "transactionHash": "0x0fc45c4f57a6ea962693c22d3db50c924b0cc47d3535e4b21b920f1cdc871a1a",
          "transactionIndex": "0x48",
          "logIndex": "0x56",
          "removed": false
        }
      ],
      "logsBloom": "0x00000000000000000000000000000000000000000000000000800000000000000000000000000000000000000000000000000000080000000000000000200000000000000000000000000000000800000000000000000000000000000000000000000000000000000000000000000000000000000000000000008000000000000000000000080000000000000000000000000000000040000000000000000000020000000000000080000000000000000000000000000000000010000000000000000000000000000000000000000000000000000000000000000000000080000010000000000000000000000000000000000000000000000000000000000000",
      "type": "0x2",
      "transactionHash": "0x0fc45c4f57a6ea962693c22d3db50c924b0cc47d3535e4b21b920f1cdc871a1a",
      "transactionIndex": "0x48",
      "blockHash": "0xea78ec9e1c0444f066c07b2a05d3ee675a1e9cd587e3bd659c084d87c9738838",
      "blockNumber": "0x8cad33",
      "gasUsed": "0xb4b1",
      "effectiveGasPrice": "0x11d1ad",
      "from": "0x3e723f6b81431f325e3f08e75544f254c182afe2",
      "to": "0xa56b53ecb819339f8615a92686d373afe725507a",
      "contractAddress": null
    },
    {
      "status": "0x1",
      "cumulativeGasUsed": "0xd3207c",
      "logs": [
        {
          "address": "0xd2873281eea8b50406e1ef7cf5f73edbbba1cf50",
          "topics": [
            "0x8c5be1e5ebec7d5bd14f71427d1e84f3dd0314c0f7b2291e5b200ac8c7c3b925",
            "0x0000000000000000000000003e723f6b81431f325e3f08e75544f254c182afe2",
            "0x000000000000000000000000f13d190e9117920c703d79b5f33732e10049b115"
          ],
          "data": "0xffffffffffffffffffffffffffffffffffffffffffffffffffffffffffffffff",
          "blockHash": "0xea78ec9e1c0444f066c07b2a05d3ee675a1e9cd587e3bd659c084d87c9738838",
          "blockNumber": "0x8cad33",
          "blockTimestamp": "0x68ca27f0",
          "transactionHash": "0x15214a22e20a176e16862d50c0e08f5c3e8d38a090848390ecfc07e057693109",
          "transactionIndex": "0x49",
          "logIndex": "0x57",
          "removed": false
        }
      ],
      "logsBloom": "0x00000000000000000000000000000000000000000000000000800000000000000000000000000000000000000000000000000000080000000000000000200000000000000000000000000000000000000000000000000000000000000000000000000000000000000000000000000000000000000000000000000000000000000002000000080000000000000000000000000000000000000000000000000000020000000000000080000000000000000100000000000000000010001000000000000000000000000000000000000000000000000000000000000000000080000010000000000000000000000000000000000000000000000000000000000000",
      "type": "0x2",
      "transactionHash": "0x15214a22e20a176e16862d50c0e08f5c3e8d38a090848390ecfc07e057693109",
      "transactionIndex": "0x49",
      "blockHash": "0xea78ec9e1c0444f066c07b2a05d3ee675a1e9cd587e3bd659c084d87c9738838",
      "blockNumber": "0x8cad33",
      "gasUsed": "0xb4b1",
      "effectiveGasPrice": "0x11d1ad",
      "from": "0x3e723f6b81431f325e3f08e75544f254c182afe2",
      "to": "0xd2873281eea8b50406e1ef7cf5f73edbbba1cf50",
      "contractAddress": null
    },
    {
      "status": "0x1",
      "cumulativeGasUsed": "0xd9431b",
      "logs": [
        {
          "address": "0xe03a1074c86cfedd5c142c4f04f1a1536e203543",
          "topics": [
            "0x40e9cecb9f5f1f1c5b9c97dec2917b7ee92e57ba5563708daca94dd84ad7112f",
            "0x6cc402913a432836bc2e52a630a63459437532a131ab356c1778393326fa6da6",
            "0x000000000000000000000000f13d190e9117920c703d79b5f33732e10049b115"
          ],
          "data": "0x0000000000000000000000000000000000000000000000000000000000000000000000000000000000000000000000000000000000000000000000000000000000000000000000000000000000000000000000000000000000000001000276a40000000000000000000000000000000000000000000000000000000000000000fffffffffffffffffffffffffffffffffffffffffffffffffffffffffff276180000000000000000000000000000000000000000000000000000000000000bb8",
          "blockHash": "0xea78ec9e1c0444f066c07b2a05d3ee675a1e9cd587e3bd659c084d87c9738838",
          "blockNumber": "0x8cad33",
          "blockTimestamp": "0x68ca27f0",
          "transactionHash": "0x1c2bba0b18f81785373dcc98a9f446ce05fd58e9e573892bc354b7e622b1135f",
          "transactionIndex": "0x4a",
          "logIndex": "0x58",
          "removed": false
        }
      ],
      "logsBloom": "0x00000000000000000000000000000000000000000000000000800000000000000000000000000000000000000000000000000100040000000000000000000000000000000000000000010000000000000000000000000020000000000000000000000000000000000000000000000000000000000000100000000000000000000000000000080000000000000000000000000000000000000000000000000000000000000000000000000000000000000000000000000000000000000000000000000000000000000000000000000000000000000000000010000000000080001000000000000000004000000000400000000000000000000000000000000000",
      "type": "0x2",
      "transactionHash": "0x1c2bba0b18f81785373dcc98a9f446ce05fd58e9e573892bc354b7e622b1135f",
      "transactionIndex": "0x4a",
      "blockHash": "0xea78ec9e1c0444f066c07b2a05d3ee675a1e9cd587e3bd659c084d87c9738838",
      "blockNumber": "0x8cad33",
      "gasUsed": "0x6229f",
      "effectiveGasPrice": "0x11d1ad",
      "from": "0x3e723f6b81431f325e3f08e75544f254c182afe2",
      "to": "0xf13d190e9117920c703d79b5f33732e10049b115",
      "contractAddress": null
    }
  ],
  "libraries": [],
  "pending": [],
  "returns": {},
  "timestamp": 1758078961731,
  "chain": 11155111,
  "commit": "9f61f80"
}