{
  "transactions": [
    {
      "hash": "0x17bbcf58c19a294149810b043ae7d63891dec3dac5ced28e2964c5b35ffd14bf",
      "transactionType": "CALL",
      "contractName": null,
      "contractAddress": "0x3e68f0f304314495fa45907170a59d0ba5218bcc",
      "function": "approve(address,uint256)",
      "arguments": [
        "0xf13D190e9117920c703d79B5F33732e10049b115",
        "115792089237316195423570985008687907853269984665640564039457584007913129639935"
      ],
      "transaction": {
        "from": "0x3e723f6b81431f325e3f08e75544f254c182afe2",
        "to": "0x3e68f0f304314495fa45907170a59d0ba5218bcc",
        "gas": "0x8e35",
        "value": "0x0",
        "input": "0x095ea7b3000000000000000000000000f13d190e9117920c703d79b5f33732e10049b115ffffffffffffffffffffffffffffffffffffffffffffffffffffffffffffffff",
        "nonce": "0x658",
        "chainId": "0xaa36a7"
      },
      "additionalContracts": [],
      "isFixedGasLimit": false
    },
    {
      "hash": "0x0d151279bc2b66803094c989ac886ccbbbf7ee51d7a2c8fea54b04eb2c42208b",
      "transactionType": "CALL",
      "contractName": null,
      "contractAddress": "0xabc0afb70f325f4119cfca4083ea2a580ec40d3f",
      "function": "approve(address,uint256)",
      "arguments": [
        "0xf13D190e9117920c703d79B5F33732e10049b115",
        "115792089237316195423570985008687907853269984665640564039457584007913129639935"
      ],
      "transaction": {
        "from": "0x3e723f6b81431f325e3f08e75544f254c182afe2",
        "to": "0xabc0afb70f325f4119cfca4083ea2a580ec40d3f",
        "gas": "0x8e35",
        "value": "0x0",
        "input": "0x095ea7b3000000000000000000000000f13d190e9117920c703d79b5f33732e10049b115ffffffffffffffffffffffffffffffffffffffffffffffffffffffffffffffff",
        "nonce": "0x659",
        "chainId": "0xaa36a7"
      },
      "additionalContracts": [],
      "isFixedGasLimit": false
    },
    {
      "hash": "0xc085f0ecf321a02f9f8c5f049308ca66946e2e565ddd5f9e8d3b76ef8b448f96",
      "transactionType": "CALL",
      "contractName": null,
      "contractAddress": "0xf13d190e9117920c703d79b5f33732e10049b115",
      "function": "swapExactTokensForTokens(uint256,uint256,bool,(address,address,uint24,int24,address),bytes,address,uint256)",
      "arguments": [
        "1000000000000000000",
        "0",
        "true",
        "(0x3e68f0F304314495fa45907170a59D0BA5218bCc, 0xabc0Afb70F325F4119cFCA4083EA2A580Ec40D3F, 3000, 60, 0x0000000000000000000000000000000000000000)",
        "0x",
        "0x3e723f6B81431f325E3F08e75544F254C182AFE2",
        "1758177048"
      ],
      "transaction": {
        "from": "0x3e723f6b81431f325e3f08e75544f254c182afe2",
        "to": "0xf13d190e9117920c703d79b5f33732e10049b115",
        "gas": "0x2d617",
        "value": "0x0",
        "input": "0xb1a0d5710000000000000000000000000000000000000000000000000de0b6b3a7640000000000000000000000000000000000000000000000000000000000000000000000000000000000000000000000000000000000000000000000000000000000010000000000000000000000003e68f0f304314495fa45907170a59d0ba5218bcc000000000000000000000000abc0afb70f325f4119cfca4083ea2a580ec40d3f0000000000000000000000000000000000000000000000000000000000000bb8000000000000000000000000000000000000000000000000000000000000003c000000000000000000000000000000000000000000000000000000000000000000000000000000000000000000000000000000000000000000000000000001600000000000000000000000003e723f6b81431f325e3f08e75544f254c182afe20000000000000000000000000000000000000000000000000000000068cba7180000000000000000000000000000000000000000000000000000000000000000",
        "nonce": "0x65a",
        "chainId": "0xaa36a7"
      },
      "additionalContracts": [],
      "isFixedGasLimit": false
    }
  ],
  "receipts": [
    {
      "status": "0x1",
      "cumulativeGasUsed": "0x6edd49",
      "logs": [
        {
          "address": "0x3e68f0f304314495fa45907170a59d0ba5218bcc",
          "topics": [
            "0x8c5be1e5ebec7d5bd14f71427d1e84f3dd0314c0f7b2291e5b200ac8c7c3b925",
            "0x0000000000000000000000003e723f6b81431f325e3f08e75544f254c182afe2",
            "0x000000000000000000000000f13d190e9117920c703d79b5f33732e10049b115"
          ],
          "data": "0xffffffffffffffffffffffffffffffffffffffffffffffffffffffffffffffff",
          "blockHash": "0xf37895be2204d65bc831c41cdc839c6eb7b935166c96b93dc3bcb235296a2ba1",
          "blockNumber": "0x8cc9c5",
          "transactionHash": "0x17bbcf58c19a294149810b043ae7d63891dec3dac5ced28e2964c5b35ffd14bf",
          "transactionIndex": "0x4d",
          "logIndex": "0x91",
          "removed": false
        }
      ],
      "logsBloom": "0x00000000000000000000000000000000000000000000000000800000000000000000000000000000000000000000000000000000080000800000000000200000000000000000000000000000000000000000000000000000000000000000000000000000000000000000000000000000000000000000000000000000000000000000000000080000000000000000000000000000000000000000000000000000020000000000000080000000000000000000000000002000000010000000000000000000000000000000000000000000000000000000000000000000000080400010000000000000000000000000000000000000000000000000000000000000",
      "type": "0x2",
      "transactionHash": "0x17bbcf58c19a294149810b043ae7d63891dec3dac5ced28e2964c5b35ffd14bf",
      "transactionIndex": "0x4d",
      "blockHash": "0xf37895be2204d65bc831c41cdc839c6eb7b935166c96b93dc3bcb235296a2ba1",
      "blockNumber": "0x8cc9c5",
      "gasUsed": "0x66f5",
      "effectiveGasPrice": "0xf4250",
      "from": "0x3e723f6b81431f325e3f08e75544f254c182afe2",
      "to": "0x3e68f0f304314495fa45907170a59d0ba5218bcc",
      "contractAddress": null
    },
    {
      "status": "0x1",
      "cumulativeGasUsed": "0x6f443e",
      "logs": [
        {
          "address": "0xabc0afb70f325f4119cfca4083ea2a580ec40d3f",
          "topics": [
            "0x8c5be1e5ebec7d5bd14f71427d1e84f3dd0314c0f7b2291e5b200ac8c7c3b925",
            "0x0000000000000000000000003e723f6b81431f325e3f08e75544f254c182afe2",
            "0x000000000000000000000000f13d190e9117920c703d79b5f33732e10049b115"
          ],
          "data": "0xffffffffffffffffffffffffffffffffffffffffffffffffffffffffffffffff",
          "blockHash": "0xf37895be2204d65bc831c41cdc839c6eb7b935166c96b93dc3bcb235296a2ba1",
          "blockNumber": "0x8cc9c5",
          "transactionHash": "0x0d151279bc2b66803094c989ac886ccbbbf7ee51d7a2c8fea54b04eb2c42208b",
          "transactionIndex": "0x4e",
          "logIndex": "0x92",
          "removed": false
        }
      ],
      "logsBloom": "0x00000000000000000000000000000000000000000000000000800000000000000000000000000000000000000080000000000000080000000000000000200000000000000000000000000000000000100000000000000000000000000000000000000000000000000000000000000000000000000000000000000000000000000000000000080000000000000000000000000000000000000000000000000000020000000000004080000000000000000000000000000000000010000000000000000000000000000000000000000000000000000000000000000000000080000010000000000000000000000000000000000000000000000000000000000000",
      "type": "0x2",
      "transactionHash": "0x0d151279bc2b66803094c989ac886ccbbbf7ee51d7a2c8fea54b04eb2c42208b",
      "transactionIndex": "0x4e",
      "blockHash": "0xf37895be2204d65bc831c41cdc839c6eb7b935166c96b93dc3bcb235296a2ba1",
      "blockNumber": "0x8cc9c5",
      "gasUsed": "0x66f5",
      "effectiveGasPrice": "0xf4250",
      "from": "0x3e723f6b81431f325e3f08e75544f254c182afe2",
      "to": "0xabc0afb70f325f4119cfca4083ea2a580ec40d3f",
      "contractAddress": null
    },
    {
      "status": "0x1",
      "cumulativeGasUsed": "0x7134b7",
      "logs": [
        {
          "address": "0xe03a1074c86cfedd5c142c4f04f1a1536e203543",
          "topics": [
            "0x40e9cecb9f5f1f1c5b9c97dec2917b7ee92e57ba5563708daca94dd84ad7112f",
            "0x6c28d2b60906a79ceadbbc225031033505ffc8027aa0d19cfea7a21574375983",
            "0x000000000000000000000000f13d190e9117920c703d79b5f33732e10049b115"
          ],
          "data": "0xfffffffffffffffffffffffffffffffffffffffffffffffff21f494c589c00000000000000000000000000000000000000000000000000000dd5b52b379b2abb0000000000000000000000000000000000000000fff99065556979cd52d124240000000000000000000000000000000000000000000002264ce48776091f1fe7fffffffffffffffffffffffffffffffffffffffffffffffffffffffffffffffe0000000000000000000000000000000000000000000000000000000000000bb8",
          "blockHash": "0xf37895be2204d65bc831c41cdc839c6eb7b935166c96b93dc3bcb235296a2ba1",
          "blockNumber": "0x8cc9c5",
          "blockTimestamp": "0x68cb992c",
          "transactionHash": "0xc085f0ecf321a02f9f8c5f049308ca66946e2e565ddd5f9e8d3b76ef8b448f96",
          "transactionIndex": "0x4f",
          "logIndex": "0x93",
          "removed": false
        },
        {
          "address": "0x3e68f0f304314495fa45907170a59d0ba5218bcc",
          "topics": [
            "0xddf252ad1be2c89b69c2b068fc378daa952ba7f163c4a11628f55a4df523b3ef",
            "0x0000000000000000000000003e723f6b81431f325e3f08e75544f254c182afe2",
            "0x000000000000000000000000e03a1074c86cfedd5c142c4f04f1a1536e203543"
          ],
          "data": "0x0000000000000000000000000000000000000000000000000de0b6b3a7640000",
          "blockHash": "0xf37895be2204d65bc831c41cdc839c6eb7b935166c96b93dc3bcb235296a2ba1",
          "blockNumber": "0x8cc9c5",
          "blockTimestamp": "0x68cb992c",
          "transactionHash": "0xc085f0ecf321a02f9f8c5f049308ca66946e2e565ddd5f9e8d3b76ef8b448f96",
          "transactionIndex": "0x4f",
          "logIndex": "0x94",
          "removed": false
        },
        {
          "address": "0xabc0afb70f325f4119cfca4083ea2a580ec40d3f",
          "topics": [
            "0xddf252ad1be2c89b69c2b068fc378daa952ba7f163c4a11628f55a4df523b3ef",
            "0x000000000000000000000000e03a1074c86cfedd5c142c4f04f1a1536e203543",
            "0x0000000000000000000000003e723f6b81431f325e3f08e75544f254c182afe2"
          ],
          "data": "0x0000000000000000000000000000000000000000000000000dd5b52b379b2abb",
          "blockHash": "0xf37895be2204d65bc831c41cdc839c6eb7b935166c96b93dc3bcb235296a2ba1",
          "blockNumber": "0x8cc9c5",
          "blockTimestamp": "0x68cb992c",
          "transactionHash": "0xc085f0ecf321a02f9f8c5f049308ca66946e2e565ddd5f9e8d3b76ef8b448f96",
          "transactionIndex": "0x4f",
          "logIndex": "0x95",
          "removed": false
        }
      ],
      "logsBloom": "0x000000000000008000000000000000000000000000000000008000000000000000000000000000000000000000800000000001000c0000800000000000000000000000000000000000000008000000100000000000000020000000000000000000000000000000000000000080000040010000000000100000000010000000000000000000080000000010000000000000000000000000000000000000000000000000000000004080000000000000000000000000002000000010000000000000000002000000000000000000000000000000000000000000001000000080401000000000000000004000000000000000000000000000000000000000000000",
      "type": "0x2",
      "transactionHash": "0xc085f0ecf321a02f9f8c5f049308ca66946e2e565ddd5f9e8d3b76ef8b448f96",
      "transactionIndex": "0x4f",
      "blockHash": "0xf37895be2204d65bc831c41cdc839c6eb7b935166c96b93dc3bcb235296a2ba1",
      "blockNumber": "0x8cc9c5",
      "gasUsed": "0x1f079",
      "effectiveGasPrice": "0xf4250",
      "from": "0x3e723f6b81431f325e3f08e75544f254c182afe2",
      "to": "0xf13d190e9117920c703d79b5f33732e10049b115",
      "contractAddress": null
    }
  ],
  "libraries": [],
  "pending": [],
  "returns": {},
  "timestamp": 1758173486003,
  "chain": 11155111,
  "commit": "7b9c819"
}