{
  "transactions": [
    {
      "hash": "0x7f919c56b0b348dc636f312876e7739128fda503827e32f5e680264750f4c3d1",
      "transactionType": "CALL",
      "contractName": null,
      "contractAddress": "0x74406aba5eae9a6465f81fffd9404873d725289c",
      "function": "approve(address,uint256)",
      "arguments": [
        "0xf13D190e9117920c703d79B5F33732e10049b115",
        "115792089237316195423570985008687907853269984665640564039457584007913129639935"
      ],
      "transaction": {
        "from": "0x3e723f6b81431f325e3f08e75544f254c182afe2",
        "to": "0x74406aba5eae9a6465f81fffd9404873d725289c",
        "gas": "0x10842",
        "value": "0x0",
        "input": "0x095ea7b3000000000000000000000000f13d190e9117920c703d79b5f33732e10049b115ffffffffffffffffffffffffffffffffffffffffffffffffffffffffffffffff",
        "nonce": "0x4ff",
        "chainId": "0xaa36a7"
      },
      "additionalContracts": [],
      "isFixedGasLimit": false
    },
    {
      "hash": "0xb69bddd8a5650b5a8fc2ee18c5f4c2f39d552ea4013066df50982d192f6cfcf5",
      "transactionType": "CALL",
      "contractName": null,
      "contractAddress": "0xd38a7aed5a245253da1a6cd5b55abb036036fb2d",
      "function": "approve(address,uint256)",
      "arguments": [
        "0xf13D190e9117920c703d79B5F33732e10049b115",
        "115792089237316195423570985008687907853269984665640564039457584007913129639935"
      ],
      "transaction": {
        "from": "0x3e723f6b81431f325e3f08e75544f254c182afe2",
        "to": "0xd38a7aed5a245253da1a6cd5b55abb036036fb2d",
        "gas": "0x10842",
        "value": "0x0",
        "input": "0x095ea7b3000000000000000000000000f13d190e9117920c703d79b5f33732e10049b115ffffffffffffffffffffffffffffffffffffffffffffffffffffffffffffffff",
        "nonce": "0x500",
        "chainId": "0xaa36a7"
      },
      "additionalContracts": [],
      "isFixedGasLimit": false
    },
    {
      "hash": "0xcfd389c5f72c4bc6be8ae881c88ddad10a11bbe6eebdf0983a2eee9881c46aac",
      "transactionType": "CALL",
      "contractName": null,
      "contractAddress": "0xf13d190e9117920c703d79b5f33732e10049b115",
      "function": "swapExactTokensForTokens(uint256,uint256,bool,(address,address,uint24,int24,address),bytes,address,uint256)",
      "arguments": [
        "1000000",
        "0",
        "true",
        "(0x74406Aba5EAE9a6465f81FFfD9404873d725289c, 0xD38a7aeD5A245253Da1A6cd5B55ABB036036fB2d, 3000, 60, 0xAc7A2B3cc96e2BaeD45b08d4413BECe0FA0e7880)",
        "0x",
        "0x3e723f6B81431f325E3F08e75544F254C182AFE2",
        "1758086196"
      ],
      "transaction": {
        "from": "0x3e723f6b81431f325e3f08e75544f254c182afe2",
        "to": "0xf13d190e9117920c703d79b5f33732e10049b115",
        "gas": "0x8796a",
        "value": "0x0",
        "input": "0xb1a0d57100000000000000000000000000000000000000000000000000000000000f42400000000000000000000000000000000000000000000000000000000000000000000000000000000000000000000000000000000000000000000000000000000100000000000000000000000074406aba5eae9a6465f81fffd9404873d725289c000000000000000000000000d38a7aed5a245253da1a6cd5b55abb036036fb2d0000000000000000000000000000000000000000000000000000000000000bb8000000000000000000000000000000000000000000000000000000000000003c000000000000000000000000ac7a2b3cc96e2baed45b08d4413bece0fa0e788000000000000000000000000000000000000000000000000000000000000001600000000000000000000000003e723f6b81431f325e3f08e75544f254c182afe20000000000000000000000000000000000000000000000000000000068ca44340000000000000000000000000000000000000000000000000000000000000000",
        "nonce": "0x501",
        "chainId": "0xaa36a7"
      },
      "additionalContracts": [],
      "isFixedGasLimit": false
    }
  ],
  "receipts": [
    {
      "status": "0x1",
      "cumulativeGasUsed": "0xd655df",
      "logs": [
        {
          "address": "0x74406aba5eae9a6465f81fffd9404873d725289c",
          "topics": [
            "0x8c5be1e5ebec7d5bd14f71427d1e84f3dd0314c0f7b2291e5b200ac8c7c3b925",
            "0x0000000000000000000000003e723f6b81431f325e3f08e75544f254c182afe2",
            "0x000000000000000000000000f13d190e9117920c703d79b5f33732e10049b115"
          ],
          "data": "0xffffffffffffffffffffffffffffffffffffffffffffffffffffffffffffffff",
          "blockHash": "0x79f475e6f834662be77c750f170f40ab2fb3506e749cfd6f9f6e246b9b278138",
          "blockNumber": "0x8cae4f",
          "blockTimestamp": "0x68ca3648",
          "transactionHash": "0x7f919c56b0b348dc636f312876e7739128fda503827e32f5e680264750f4c3d1",
          "transactionIndex": "0x2f",
          "logIndex": "0x3b",
          "removed": false
        }
      ],
      "logsBloom": "0x00000000000000000000000000000000000000000000000400800000000000000000000000000000000000000000000000000000080000000000000000200400000000000000000000000000000000000000000000000000000000000000000000000000000080000000000000000000000000000000000000000000000000000000000000080000000000000000000000000000000000000000000000000000020000000000000080000000000000000000000000000000000010000000000000000000000000000000000000000000000000000000000000000000000080000010000000000000000000000000000000000000000000000000000000000000",
      "type": "0x2",
      "transactionHash": "0x7f919c56b0b348dc636f312876e7739128fda503827e32f5e680264750f4c3d1",
      "transactionIndex": "0x2f",
      "blockHash": "0x79f475e6f834662be77c750f170f40ab2fb3506e749cfd6f9f6e246b9b278138",
      "blockNumber": "0x8cae4f",
      "gasUsed": "0xb4b1",
      "effectiveGasPrice": "0x1270d0",
      "from": "0x3e723f6b81431f325e3f08e75544f254c182afe2",
      "to": "0x74406aba5eae9a6465f81fffd9404873d725289c",
      "contractAddress": null
    },
    {
      "status": "0x1",
      "cumulativeGasUsed": "0xd70a90",
      "logs": [
        {
          "address": "0xd38a7aed5a245253da1a6cd5b55abb036036fb2d",
          "topics": [
            "0x8c5be1e5ebec7d5bd14f71427d1e84f3dd0314c0f7b2291e5b200ac8c7c3b925",
            "0x0000000000000000000000003e723f6b81431f325e3f08e75544f254c182afe2",
            "0x000000000000000000000000f13d190e9117920c703d79b5f33732e10049b115"
          ],
          "data": "0xffffffffffffffffffffffffffffffffffffffffffffffffffffffffffffffff",
          "blockHash": "0x79f475e6f834662be77c750f170f40ab2fb3506e749cfd6f9f6e246b9b278138",
          "blockNumber": "0x8cae4f",
          "blockTimestamp": "0x68ca3648",
          "transactionHash": "0xb69bddd8a5650b5a8fc2ee18c5f4c2f39d552ea4013066df50982d192f6cfcf5",
          "transactionIndex": "0x30",
          "logIndex": "0x3c",
          "removed": false
        }
      ],
      "logsBloom": "0x00000000000000000000000000000000000000000000000000800000000000000000000000000000000000000000000020000000080000000000000000200000000000000000000000000000000000000000000000000000000000000000000000000000000000400000000000000000000000000000000000000000000000000000000000080000000000000000000000000000000000000000000000000000020000000000000080000000000000000000000000000000000010000000000000000000000000000000000000000000000000000000000000000000000080000010000000000000000000000001000000000000000000000000000000000000",
      "type": "0x2",
      "transactionHash": "0xb69bddd8a5650b5a8fc2ee18c5f4c2f39d552ea4013066df50982d192f6cfcf5",
      "transactionIndex": "0x30",
      "blockHash": "0x79f475e6f834662be77c750f170f40ab2fb3506e749cfd6f9f6e246b9b278138",
      "blockNumber": "0x8cae4f",
      "gasUsed": "0xb4b1",
      "effectiveGasPrice": "0x1270d0",
      "from": "0x3e723f6b81431f325e3f08e75544f254c182afe2",
      "to": "0xd38a7aed5a245253da1a6cd5b55abb036036fb2d",
      "contractAddress": null
    },
    {
      "status": "0x1",
      "cumulativeGasUsed": "0xdd2d2f",
      "logs": [
        {
          "address": "0xe03a1074c86cfedd5c142c4f04f1a1536e203543",
          "topics": [
            "0x40e9cecb9f5f1f1c5b9c97dec2917b7ee92e57ba5563708daca94dd84ad7112f",
            "0xb8ebda0f25373c4b579a5e8754a09943f62d8278485fdc857a6f5a730591d001",
            "0x000000000000000000000000f13d190e9117920c703d79b5f33732e10049b115"
          ],
          "data": "0x0000000000000000000000000000000000000000000000000000000000000000000000000000000000000000000000000000000000000000000000000000000000000000000000000000000000000000000000000000000000000001000276a40000000000000000000000000000000000000000000000000000000000000000fffffffffffffffffffffffffffffffffffffffffffffffffffffffffff276180000000000000000000000000000000000000000000000000000000000000bb8",
          "blockHash": "0x79f475e6f834662be77c750f170f40ab2fb3506e749cfd6f9f6e246b9b278138",
          "blockNumber": "0x8cae4f",
          "blockTimestamp": "0x68ca3648",
          "transactionHash": "0xcfd389c5f72c4bc6be8ae881c88ddad10a11bbe6eebdf0983a2eee9881c46aac",
          "transactionIndex": "0x31",
          "logIndex": "0x3d",
          "removed": false
        }
      ],
      "logsBloom": "0x00000000000000000000000000000000000000000000000000800000000000800000000000000000000000000000000000000100040000000000000000000000000000000000000000000000000000000000000000000020000000000000000000000000000000000000000000000000000010000000100000000000000000000000000000080000000000000000000000000000000000000000000000000020000000000000000000000000000000000000000000000000000000000000000000000000000000000000000000000000000000000000000000000000000080001000000000000000004000000000000000000000000000000000000000000000",
      "type": "0x2",
      "transactionHash": "0xcfd389c5f72c4bc6be8ae881c88ddad10a11bbe6eebdf0983a2eee9881c46aac",
      "transactionIndex": "0x31",
      "blockHash": "0x79f475e6f834662be77c750f170f40ab2fb3506e749cfd6f9f6e246b9b278138",
      "blockNumber": "0x8cae4f",
      "gasUsed": "0x6229f",
      "effectiveGasPrice": "0x1270d0",
      "from": "0x3e723f6b81431f325e3f08e75544f254c182afe2",
      "to": "0xf13d190e9117920c703d79b5f33732e10049b115",
      "contractAddress": null
    }
  ],
  "libraries": [],
  "pending": [],
  "returns": {},
  "timestamp": 1758082633566,
  "chain": 11155111,
  "commit": "9f61f80"
}