{
  "transactions": [
    {
      "hash": "0xf28d7856e3e59349ec508b7d37a953785e18ea7eea640ea47eac13aa7b7d19d3",
      "transactionType": "CALL",
      "contractName": null,
      "contractAddress": "0xb188e6d9385029e688a06355ca495206909f3a39",
      "function": "approve(address,uint256)",
      "arguments": [
        "0xf13D190e9117920c703d79B5F33732e10049b115",
        "115792089237316195423570985008687907853269984665640564039457584007913129639935"
      ],
      "transaction": {
        "from": "0x3e723f6b81431f325e3f08e75544f254c182afe2",
        "to": "0xb188e6d9385029e688a06355ca495206909f3a39",
        "gas": "0x10842",
        "value": "0x0",
        "input": "0x095ea7b3000000000000000000000000f13d190e9117920c703d79b5f33732e10049b115ffffffffffffffffffffffffffffffffffffffffffffffffffffffffffffffff",
        "nonce": "0x4f4",
        "chainId": "0xaa36a7"
      },
      "additionalContracts": [],
      "isFixedGasLimit": false
    },
    {
      "hash": "0x54d1016d6d83026b178f4f5149c3d7439a02e0b2bd3c8db7777e6ac7439c4dc0",
      "transactionType": "CALL",
      "contractName": null,
      "contractAddress": "0xc455b34645e931fe73950ae70b4bc38380664fa2",
      "function": "approve(address,uint256)",
      "arguments": [
        "0xf13D190e9117920c703d79B5F33732e10049b115",
        "115792089237316195423570985008687907853269984665640564039457584007913129639935"
      ],
      "transaction": {
        "from": "0x3e723f6b81431f325e3f08e75544f254c182afe2",
        "to": "0xc455b34645e931fe73950ae70b4bc38380664fa2",
        "gas": "0x10842",
        "value": "0x0",
        "input": "0x095ea7b3000000000000000000000000f13d190e9117920c703d79b5f33732e10049b115ffffffffffffffffffffffffffffffffffffffffffffffffffffffffffffffff",
        "nonce": "0x4f5",
        "chainId": "0xaa36a7"
      },
      "additionalContracts": [],
      "isFixedGasLimit": false
    },
    {
      "hash": "0x08a91ac0cc178e8225b5eb5a6c50153571750809462822edae3565793859a319",
      "transactionType": "CALL",
      "contractName": null,
      "contractAddress": "0xf13d190e9117920c703d79b5f33732e10049b115",
      "function": "swapExactTokensForTokens(uint256,uint256,bool,(address,address,uint24,int24,address),bytes,address,uint256)",
      "arguments": [
        "1000000",
        "0",
        "true",
        "(0xB188e6d9385029E688a06355CA495206909f3a39, 0xc455B34645e931fe73950aE70b4bC38380664Fa2, 3000, 60, 0x7bf213f1198410bA01FE4ac735d1C77A9d627880)",
        "0x",
        "0x3e723f6B81431f325E3F08e75544F254C182AFE2",
        "1758084288"
      ],
      "transaction": {
        "from": "0x3e723f6b81431f325e3f08e75544f254c182afe2",
        "to": "0xf13d190e9117920c703d79b5f33732e10049b115",
        "gas": "0x8796a",
        "value": "0x0",
        "input": "0xb1a0d57100000000000000000000000000000000000000000000000000000000000f424000000000000000000000000000000000000000000000000000000000000000000000000000000000000000000000000000000000000000000000000000000001000000000000000000000000b188e6d9385029e688a06355ca495206909f3a39000000000000000000000000c455b34645e931fe73950ae70b4bc38380664fa20000000000000000000000000000000000000000000000000000000000000bb8000000000000000000000000000000000000000000000000000000000000003c0000000000000000000000007bf213f1198410ba01fe4ac735d1c77a9d62788000000000000000000000000000000000000000000000000000000000000001600000000000000000000000003e723f6b81431f325e3f08e75544f254c182afe20000000000000000000000000000000000000000000000000000000068ca3cc00000000000000000000000000000000000000000000000000000000000000000",
        "nonce": "0x4f6",
        "chainId": "0xaa36a7"
      },
      "additionalContracts": [],
      "isFixedGasLimit": false
    }
  ],
  "receipts": [
    {
      "status": "0x1",
      "cumulativeGasUsed": "0x20d7ff1",
      "logs": [
        {
          "address": "0xb188e6d9385029e688a06355ca495206909f3a39",
          "topics": [
            "0x8c5be1e5ebec7d5bd14f71427d1e84f3dd0314c0f7b2291e5b200ac8c7c3b925",
            "0x0000000000000000000000003e723f6b81431f325e3f08e75544f254c182afe2",
            "0x000000000000000000000000f13d190e9117920c703d79b5f33732e10049b115"
          ],
          "data": "0xffffffffffffffffffffffffffffffffffffffffffffffffffffffffffffffff",
          "blockHash": "0x7cee91b435d060189b5ca0aa095ea43f00f0ba90908ac5e8469cc028cceb3fb4",
          "blockNumber": "0x8cadbc",
          "blockTimestamp": "0x68ca2ed4",
          "transactionHash": "0xf28d7856e3e59349ec508b7d37a953785e18ea7eea640ea47eac13aa7b7d19d3",
          "transactionIndex": "0xf3",
          "logIndex": "0xf5",
          "removed": false
        }
      ],
      "logsBloom": "0x00000000000000000000000000000000000000000000000000800000000000000000000000000000000000000000000000000000080000000000000000200000000000000000000000000000000000000000000000000000000000000000000000000000000000000004000000000000000000000000000000000000000000000000000000080000000000000000000000000000000000000000000000200000020000000000000080000000000000000000000000000000000010000000000000000000000000000000000000000000000000000000000000000000000080000010000400000000000000000000000000000000000000000000000000000000",
      "type": "0x2",
      "transactionHash": "0xf28d7856e3e59349ec508b7d37a953785e18ea7eea640ea47eac13aa7b7d19d3",
      "transactionIndex": "0xf3",
      "blockHash": "0x7cee91b435d060189b5ca0aa095ea43f00f0ba90908ac5e8469cc028cceb3fb4",
      "blockNumber": "0x8cadbc",
      "gasUsed": "0xb4b1",
      "effectiveGasPrice": "0xf6374",
      "from": "0x3e723f6b81431f325e3f08e75544f254c182afe2",
      "to": "0xb188e6d9385029e688a06355ca495206909f3a39",
      "contractAddress": null
    },
    {
      "status": "0x1",
      "cumulativeGasUsed": "0x20e34a2",
      "logs": [
        {
          "address": "0xc455b34645e931fe73950ae70b4bc38380664fa2",
          "topics": [
            "0x8c5be1e5ebec7d5bd14f71427d1e84f3dd0314c0f7b2291e5b200ac8c7c3b925",
            "0x0000000000000000000000003e723f6b81431f325e3f08e75544f254c182afe2",
            "0x000000000000000000000000f13d190e9117920c703d79b5f33732e10049b115"
          ],
          "data": "0xffffffffffffffffffffffffffffffffffffffffffffffffffffffffffffffff",
          "blockHash": "0x7cee91b435d060189b5ca0aa095ea43f00f0ba90908ac5e8469cc028cceb3fb4",
          "blockNumber": "0x8cadbc",
          "blockTimestamp": "0x68ca2ed4",
          "transactionHash": "0x54d1016d6d83026b178f4f5149c3d7439a02e0b2bd3c8db7777e6ac7439c4dc0",
          "transactionIndex": "0xf4",
          "logIndex": "0xf6",
          "removed": false
        }
      ],
      "logsBloom": "0x00000000000000000000000000000000000000000000000000800000000000000000000000000000000000000000000000000000080000000000000000200000000000000000000000000000000000000000000000000000000000000000000000004000000000000000000000000000000000000000000000000000000000000000000000080000000040000000000000000000000000000000000000000000020000000000000080000000400000000000000000000000000010000000000000000000000000000000000000000000000000000000000000000000000080000010000000000000000000000000000000000000000000000000000000000000",
      "type": "0x2",
      "transactionHash": "0x54d1016d6d83026b178f4f5149c3d7439a02e0b2bd3c8db7777e6ac7439c4dc0",
      "transactionIndex": "0xf4",
      "blockHash": "0x7cee91b435d060189b5ca0aa095ea43f00f0ba90908ac5e8469cc028cceb3fb4",
      "blockNumber": "0x8cadbc",
      "gasUsed": "0xb4b1",
      "effectiveGasPrice": "0xf6374",
      "from": "0x3e723f6b81431f325e3f08e75544f254c182afe2",
      "to": "0xc455b34645e931fe73950ae70b4bc38380664fa2",
      "contractAddress": null
    },
    {
      "status": "0x1",
      "cumulativeGasUsed": "0x2145741",
      "logs": [
        {
          "address": "0xe03a1074c86cfedd5c142c4f04f1a1536e203543",
          "topics": [
            "0x40e9cecb9f5f1f1c5b9c97dec2917b7ee92e57ba5563708daca94dd84ad7112f",
            "0xea402256372be3904df59e9088cb8314500a07fcf657bff6a282da25b98bb593",
            "0x000000000000000000000000f13d190e9117920c703d79b5f33732e10049b115"
          ],
          "data": "0x0000000000000000000000000000000000000000000000000000000000000000000000000000000000000000000000000000000000000000000000000000000000000000000000000000000000000000000000000000000000000001000276a40000000000000000000000000000000000000000000000000000000000000000fffffffffffffffffffffffffffffffffffffffffffffffffffffffffff276180000000000000000000000000000000000000000000000000000000000000bb8",
          "blockHash": "0x7cee91b435d060189b5ca0aa095ea43f00f0ba90908ac5e8469cc028cceb3fb4",
          "blockNumber": "0x8cadbc",
          "blockTimestamp": "0x68ca2ed4",
          "transactionHash": "0x08a91ac0cc178e8225b5eb5a6c50153571750809462822edae3565793859a319",
          "transactionIndex": "0xf5",
          "logIndex": "0xf7",
          "removed": false
        }
      ],
      "logsBloom": "0x00000000000000000000000000000000000000000000000000800000000000000000000000000000000000000000000000000100040000000000000000000000000000000000000000000000000000000000000000000020000000000000000000000000000000000000000000000000000000000000100000000000000000000000000000080010000000000000000000000000000000000000000000000008000000000000000000000000000000000000000000000000000000000000000000000000000000000000000000000000000000000000000000000000000080001000000000000000004000000000000000000000000000000000000020000000",
      "type": "0x2",
      "transactionHash": "0x08a91ac0cc178e8225b5eb5a6c50153571750809462822edae3565793859a319",
      "transactionIndex": "0xf5",
      "blockHash": "0x7cee91b435d060189b5ca0aa095ea43f00f0ba90908ac5e8469cc028cceb3fb4",
      "blockNumber": "0x8cadbc",
      "gasUsed": "0x6229f",
      "effectiveGasPrice": "0xf6374",
      "from": "0x3e723f6b81431f325e3f08e75544f254c182afe2",
      "to": "0xf13d190e9117920c703d79b5f33732e10049b115",
      "contractAddress": null
    }
  ],
  "libraries": [],
  "pending": [],
  "returns": {},
  "timestamp": 1758080726911,
  "chain": 11155111,
  "commit": "9f61f80"
}