{
  "transactions": [
    {
      "hash": "0xf720428da3f4b3f13e90bf41f88c0e64051283f83598fa304e563341d6aaba1e",
      "transactionType": "CALL",
      "contractName": null,
      "contractAddress": "0x36df2fd194e659006423af3c814091b05e477ff1",
      "function": "approve(address,uint256)",
      "arguments": [
        "0xf13D190e9117920c703d79B5F33732e10049b115",
        "115792089237316195423570985008687907853269984665640564039457584007913129639935"
      ],
      "transaction": {
        "from": "0x3e723f6b81431f325e3f08e75544f254c182afe2",
        "to": "0x36df2fd194e659006423af3c814091b05e477ff1",
        "gas": "0xfed3",
        "value": "0x0",
        "input": "0x095ea7b3000000000000000000000000f13d190e9117920c703d79b5f33732e10049b115ffffffffffffffffffffffffffffffffffffffffffffffffffffffffffffffff",
        "nonce": "0x4d3",
        "chainId": "0xaa36a7"
      },
      "additionalContracts": [],
      "isFixedGasLimit": false
    },
    {
      "hash": "0x17fc35264e02ef35241afed636e6fb26616ea5abddd1b4b0539958b9da2fecba",
      "transactionType": "CALL",
      "contractName": null,
      "contractAddress": "0x51bc6d68390906e2eea548cabc11fd118235072e",
      "function": "approve(address,uint256)",
      "arguments": [
        "0xf13D190e9117920c703d79B5F33732e10049b115",
        "115792089237316195423570985008687907853269984665640564039457584007913129639935"
      ],
      "transaction": {
        "from": "0x3e723f6b81431f325e3f08e75544f254c182afe2",
        "to": "0x51bc6d68390906e2eea548cabc11fd118235072e",
        "gas": "0xfed3",
        "value": "0x0",
        "input": "0x095ea7b3000000000000000000000000f13d190e9117920c703d79b5f33732e10049b115ffffffffffffffffffffffffffffffffffffffffffffffffffffffffffffffff",
        "nonce": "0x4d4",
        "chainId": "0xaa36a7"
      },
      "additionalContracts": [],
      "isFixedGasLimit": false
    },
    {
      "hash": "0xf44c80a6af3b5ef27a8b5e7390fda2b0eeb255fe41d21961f7f2075cd48cf35f",
      "transactionType": "CALL",
      "contractName": null,
      "contractAddress": "0xf13d190e9117920c703d79b5f33732e10049b115",
      "function": "swapExactTokensForTokens(uint256,uint256,bool,(address,address,uint24,int24,address),bytes,address,uint256)",
      "arguments": [
        "1000000",
        "0",
        "true",
        "(0x36Df2Fd194E659006423af3c814091b05E477Ff1, 0x51bc6d68390906E2EeA548CABC11fd118235072e, 3000, 60, 0x63bC8B5858e2a0753E793174ee6b4305373d3880)",
        "0x",
        "0x3e723f6B81431f325E3F08e75544F254C182AFE2",
        "1758029004"
      ],
      "transaction": {
        "from": "0x3e723f6b81431f325e3f08e75544f254c182afe2",
        "to": "0xf13d190e9117920c703d79b5f33732e10049b115",
        "gas": "0x89ecb",
        "value": "0x0",
        "input": "0xb1a0d57100000000000000000000000000000000000000000000000000000000000f42400000000000000000000000000000000000000000000000000000000000000000000000000000000000000000000000000000000000000000000000000000000100000000000000000000000036df2fd194e659006423af3c814091b05e477ff100000000000000000000000051bc6d68390906e2eea548cabc11fd118235072e0000000000000000000000000000000000000000000000000000000000000bb8000000000000000000000000000000000000000000000000000000000000003c00000000000000000000000063bc8b5858e2a0753e793174ee6b4305373d388000000000000000000000000000000000000000000000000000000000000001600000000000000000000000003e723f6b81431f325e3f08e75544f254c182afe20000000000000000000000000000000000000000000000000000000068c964cc0000000000000000000000000000000000000000000000000000000000000000",
        "nonce": "0x4d5",
        "chainId": "0xaa36a7"
      },
      "additionalContracts": [],
      "isFixedGasLimit": false
    }
  ],
  "receipts": [
    {
      "status": "0x1",
      "cumulativeGasUsed": "0x10ec030",
      "logs": [
        {
          "address": "0x36df2fd194e659006423af3c814091b05e477ff1",
          "topics": [
            "0x8c5be1e5ebec7d5bd14f71427d1e84f3dd0314c0f7b2291e5b200ac8c7c3b925",
            "0x0000000000000000000000003e723f6b81431f325e3f08e75544f254c182afe2",
            "0x000000000000000000000000f13d190e9117920c703d79b5f33732e10049b115"
          ],
          "data": "0xffffffffffffffffffffffffffffffffffffffffffffffffffffffffffffffff",
          "blockHash": "0xd3fdfce8fc839ffce0153e3b9bcc01ed5b8ffcf00a327ba25ef834af862003ce",
          "blockNumber": "0x8c9d0b",
          "blockTimestamp": "0x68c956e0",
          "transactionHash": "0xf720428da3f4b3f13e90bf41f88c0e64051283f83598fa304e563341d6aaba1e",
          "transactionIndex": "0x54",
          "logIndex": "0x82",
          "removed": false
        }
      ],
      "logsBloom": "0x00000000000000000000000000000000000000000000000000800000000000000080000000000000000000000000000000000000080000000000000000200000000000000000000000000000000000000000000000000000000000000000000000000000000000000000000000000000000000000000000000000000000000000000000000080000000000000000000000000000000000000000000000000000020000000000000080000000000000000000000000000000000010000001000000000000000000000000000000040000000000000000000000000000000080000010000000000000000000000000000000000000000000000000000000000000",
      "type": "0x2",
      "transactionHash": "0xf720428da3f4b3f13e90bf41f88c0e64051283f83598fa304e563341d6aaba1e",
      "transactionIndex": "0x54",
      "blockHash": "0xd3fdfce8fc839ffce0153e3b9bcc01ed5b8ffcf00a327ba25ef834af862003ce",
      "blockNumber": "0x8c9d0b",
      "gasUsed": "0xb87e",
      "effectiveGasPrice": "0x1442a58",
      "from": "0x3e723f6b81431f325e3f08e75544f254c182afe2",
      "to": "0x36df2fd194e659006423af3c814091b05e477ff1",
      "contractAddress": null
    },
    {
      "status": "0x1",
      "cumulativeGasUsed": "0x10f78ae",
      "logs": [
        {
          "address": "0x51bc6d68390906e2eea548cabc11fd118235072e",
          "topics": [
            "0x8c5be1e5ebec7d5bd14f71427d1e84f3dd0314c0f7b2291e5b200ac8c7c3b925",
            "0x0000000000000000000000003e723f6b81431f325e3f08e75544f254c182afe2",
            "0x000000000000000000000000f13d190e9117920c703d79b5f33732e10049b115"
          ],
          "data": "0xffffffffffffffffffffffffffffffffffffffffffffffffffffffffffffffff",
          "blockHash": "0xd3fdfce8fc839ffce0153e3b9bcc01ed5b8ffcf00a327ba25ef834af862003ce",
          "blockNumber": "0x8c9d0b",
          "blockTimestamp": "0x68c956e0",
          "transactionHash": "0x17fc35264e02ef35241afed636e6fb26616ea5abddd1b4b0539958b9da2fecba",
          "transactionIndex": "0x55",
          "logIndex": "0x83",
          "removed": false
        }
      ],
      "logsBloom": "0x00000000000000000000000100000000000000000000000000800000000000000000000000000000000000000000000000000000080000000000000000200000000000000000000000000000000000000000000000000000000000000000000000000000000000000000000000000000000000000000000000000000000100000000000000080000000000010000000000000000000000000000000000000000020000000000000080000000000000000000000000000000000010000000000000000000000000000000000000000000000000000000000000000000000080000010000000000000000000000000000000000000000000000000000000000000",
      "type": "0x2",
      "transactionHash": "0x17fc35264e02ef35241afed636e6fb26616ea5abddd1b4b0539958b9da2fecba",
      "transactionIndex": "0x55",
      "blockHash": "0xd3fdfce8fc839ffce0153e3b9bcc01ed5b8ffcf00a327ba25ef834af862003ce",
      "blockNumber": "0x8c9d0b",
      "gasUsed": "0xb87e",
      "effectiveGasPrice": "0x1442a58",
      "from": "0x3e723f6b81431f325e3f08e75544f254c182afe2",
      "to": "0x51bc6d68390906e2eea548cabc11fd118235072e",
      "contractAddress": null
    },
    {
      "status": "0x1",
      "cumulativeGasUsed": "0x115b65d",
      "logs": [
        {
          "address": "0xe03a1074c86cfedd5c142c4f04f1a1536e203543",
          "topics": [
            "0x40e9cecb9f5f1f1c5b9c97dec2917b7ee92e57ba5563708daca94dd84ad7112f",
            "0x8bf217a84e2568ac8c4c18306d892f67da5d1cafe43188d71beb2d8fe5a8fbe6",
            "0x000000000000000000000000f13d190e9117920c703d79b5f33732e10049b115"
          ],
          "data": "0x0000000000000000000000000000000000000000000000000000000000000000000000000000000000000000000000000000000000000000000000000000000000000000000000000000000000000000000000000000000000000001000276a40000000000000000000000000000000000000000000000000000000000000000fffffffffffffffffffffffffffffffffffffffffffffffffffffffffff276180000000000000000000000000000000000000000000000000000000000000bb8",
          "blockHash": "0xd3fdfce8fc839ffce0153e3b9bcc01ed5b8ffcf00a327ba25ef834af862003ce",
          "blockNumber": "0x8c9d0b",
          "blockTimestamp": "0x68c956e0",
          "transactionHash": "0xf44c80a6af3b5ef27a8b5e7390fda2b0eeb255fe41d21961f7f2075cd48cf35f",
          "transactionIndex": "0x56",
          "logIndex": "0x84",
          "removed": false
        }
      ],
      "logsBloom": "0x00000000000000000000000000000000000000000000000000800000000000000100000000001000000000000000000000000100040000000000000000000000000000000000000000000000000000000000000000000020000000000000000000000000000000000000000000000000000000000000100000000000000000000000000000080000000000000000000000000000000000000000000000000000000000000000000000000000000000000000000000000000000000000000004000000000000000000000000000000000000000000000000000000000000080001000000000000000004000000000000000000000000000000000000000000000",
      "type": "0x2",
      "transactionHash": "0xf44c80a6af3b5ef27a8b5e7390fda2b0eeb255fe41d21961f7f2075cd48cf35f",
      "transactionIndex": "0x56",
      "blockHash": "0xd3fdfce8fc839ffce0153e3b9bcc01ed5b8ffcf00a327ba25ef834af862003ce",
      "blockNumber": "0x8c9d0b",
      "gasUsed": "0x63daf",
      "effectiveGasPrice": "0x1442a58",
      "from": "0x3e723f6b81431f325e3f08e75544f254c182afe2",
      "to": "0xf13d190e9117920c703d79b5f33732e10049b115",
      "contractAddress": null
    }
  ],
  "libraries": [],
  "pending": [],
  "returns": {},
  "timestamp": 1758025441656,
  "chain": 11155111,
  "commit": "8b433ce"
}