{
  "transactions": [
    {
      "hash": "0x923947146c288815fac2640d28138fd3716686e4e7b9f4a1aa869f3576ba95bc",
      "transactionType": "CALL",
      "contractName": null,
      "contractAddress": "0x3e68f0f304314495fa45907170a59d0ba5218bcc",
      "function": "approve(address,uint256)",
      "arguments": [
        "0xf13D190e9117920c703d79B5F33732e10049b115",
        "115792089237316195423570985008687907853269984665640564039457584007913129639935"
      ],
      "transaction": {
        "from": "0x3e723f6b81431f325e3f08e75544f254c182afe2",
        "to": "0x3e68f0f304314495fa45907170a59d0ba5218bcc",
        "gas": "0x8e35",
        "value": "0x0",
        "input": "0x095ea7b3000000000000000000000000f13d190e9117920c703d79b5f33732e10049b115ffffffffffffffffffffffffffffffffffffffffffffffffffffffffffffffff",
        "nonce": "0x65b",
        "chainId": "0xaa36a7"
      },
      "additionalContracts": [],
      "isFixedGasLimit": false
    },
    {
      "hash": "0xa00369880168db967d6891ed15eeeb0bdae1cce752f1361cc5561cba10aa9b34",
      "transactionType": "CALL",
      "contractName": null,
      "contractAddress": "0xabc0afb70f325f4119cfca4083ea2a580ec40d3f",
      "function": "approve(address,uint256)",
      "arguments": [
        "0xf13D190e9117920c703d79B5F33732e10049b115",
        "115792089237316195423570985008687907853269984665640564039457584007913129639935"
      ],
      "transaction": {
        "from": "0x3e723f6b81431f325e3f08e75544f254c182afe2",
        "to": "0xabc0afb70f325f4119cfca4083ea2a580ec40d3f",
        "gas": "0x8e35",
        "value": "0x0",
        "input": "0x095ea7b3000000000000000000000000f13d190e9117920c703d79b5f33732e10049b115ffffffffffffffffffffffffffffffffffffffffffffffffffffffffffffffff",
        "nonce": "0x65c",
        "chainId": "0xaa36a7"
      },
      "additionalContracts": [],
      "isFixedGasLimit": false
    },
    {
      "hash": "0x7f8c042829e850e6bf09939b765fcb338653d3413c952cfbcec6286e0fcea616",
      "transactionType": "CALL",
      "contractName": null,
      "contractAddress": "0xf13d190e9117920c703d79b5f33732e10049b115",
      "function": "swapExactTokensForTokens(uint256,uint256,bool,(address,address,uint24,int24,address),bytes,address,uint256)",
      "arguments": [
        "1000000000000000000",
        "0",
        "true",
        "(0x3e68f0F304314495fa45907170a59D0BA5218bCc, 0xabc0Afb70F325F4119cFCA4083EA2A580Ec40D3F, 3000, 60, 0x0000000000000000000000000000000000000000)",
        "0x",
        "0x3e723f6B81431f325E3F08e75544F254C182AFE2",
        "1758177396"
      ],
      "transaction": {
        "from": "0x3e723f6b81431f325e3f08e75544f254c182afe2",
        "to": "0xf13d190e9117920c703d79b5f33732e10049b115",
        "gas": "0x2357c",
        "value": "0x0",
        "input": "0xb1a0d5710000000000000000000000000000000000000000000000000de0b6b3a7640000000000000000000000000000000000000000000000000000000000000000000000000000000000000000000000000000000000000000000000000000000000010000000000000000000000003e68f0f304314495fa45907170a59d0ba5218bcc000000000000000000000000abc0afb70f325f4119cfca4083ea2a580ec40d3f0000000000000000000000000000000000000000000000000000000000000bb8000000000000000000000000000000000000000000000000000000000000003c000000000000000000000000000000000000000000000000000000000000000000000000000000000000000000000000000000000000000000000000000001600000000000000000000000003e723f6b81431f325e3f08e75544f254c182afe20000000000000000000000000000000000000000000000000000000068cba8740000000000000000000000000000000000000000000000000000000000000000",
        "nonce": "0x65d",
        "chainId": "0xaa36a7"
      },
      "additionalContracts": [],
      "isFixedGasLimit": false
    }
  ],
  "receipts": [
    {
      "status": "0x1",
      "cumulativeGasUsed": "0xcb04d6",
      "logs": [
        {
          "address": "0x3e68f0f304314495fa45907170a59d0ba5218bcc",
          "topics": [
            "0x8c5be1e5ebec7d5bd14f71427d1e84f3dd0314c0f7b2291e5b200ac8c7c3b925",
            "0x0000000000000000000000003e723f6b81431f325e3f08e75544f254c182afe2",
            "0x000000000000000000000000f13d190e9117920c703d79b5f33732e10049b115"
          ],
          "data": "0xffffffffffffffffffffffffffffffffffffffffffffffffffffffffffffffff",
          "blockHash": "0xe71ff232c332795cffb45571e7e0ba2172da613ce005db69e83a6a6467b08056",
          "blockNumber": "0x8cc9e0",
          "transactionHash": "0x923947146c288815fac2640d28138fd3716686e4e7b9f4a1aa869f3576ba95bc",
          "transactionIndex": "0x5a",
          "logIndex": "0x77",
          "removed": false
        }
      ],
      "logsBloom": "0x00000000000000000000000000000000000000000000000000800000000000000000000000000000000000000000000000000000080000800000000000200000000000000000000000000000000000000000000000000000000000000000000000000000000000000000000000000000000000000000000000000000000000000000000000080000000000000000000000000000000000000000000000000000020000000000000080000000000000000000000000002000000010000000000000000000000000000000000000000000000000000000000000000000000080400010000000000000000000000000000000000000000000000000000000000000",
      "type": "0x2",
      "transactionHash": "0x923947146c288815fac2640d28138fd3716686e4e7b9f4a1aa869f3576ba95bc",
      "transactionIndex": "0x5a",
      "blockHash": "0xe71ff232c332795cffb45571e7e0ba2172da613ce005db69e83a6a6467b08056",
      "blockNumber": "0x8cc9e0",
      "gasUsed": "0x66f5",
      "effectiveGasPrice": "0xf4250",
      "from": "0x3e723f6b81431f325e3f08e75544f254c182afe2",
      "to": "0x3e68f0f304314495fa45907170a59d0ba5218bcc",
      "contractAddress": null
    },
    {
      "status": "0x1",
      "cumulativeGasUsed": "0xcb6bcb",
      "logs": [
        {
          "address": "0xabc0afb70f325f4119cfca4083ea2a580ec40d3f",
          "topics": [
            "0x8c5be1e5ebec7d5bd14f71427d1e84f3dd0314c0f7b2291e5b200ac8c7c3b925",
            "0x0000000000000000000000003e723f6b81431f325e3f08e75544f254c182afe2",
            "0x000000000000000000000000f13d190e9117920c703d79b5f33732e10049b115"
          ],
          "data": "0xffffffffffffffffffffffffffffffffffffffffffffffffffffffffffffffff",
          "blockHash": "0xe71ff232c332795cffb45571e7e0ba2172da613ce005db69e83a6a6467b08056",
          "blockNumber": "0x8cc9e0",
          "transactionHash": "0xa00369880168db967d6891ed15eeeb0bdae1cce752f1361cc5561cba10aa9b34",
          "transactionIndex": "0x5b",
          "logIndex": "0x78",
          "removed": false
        }
      ],
      "logsBloom": "0x00000000000000000000000000000000000000000000000000800000000000000000000000000000000000000080000000000000080000000000000000200000000000000000000000000000000000100000000000000000000000000000000000000000000000000000000000000000000000000000000000000000000000000000000000080000000000000000000000000000000000000000000000000000020000000000004080000000000000000000000000000000000010000000000000000000000000000000000000000000000000000000000000000000000080000010000000000000000000000000000000000000000000000000000000000000",
      "type": "0x2",
      "transactionHash": "0xa00369880168db967d6891ed15eeeb0bdae1cce752f1361cc5561cba10aa9b34",
      "transactionIndex": "0x5b",
      "blockHash": "0xe71ff232c332795cffb45571e7e0ba2172da613ce005db69e83a6a6467b08056",
      "blockNumber": "0x8cc9e0",
      "gasUsed": "0x66f5",
      "effectiveGasPrice": "0xf4250",
      "from": "0x3e723f6b81431f325e3f08e75544f254c182afe2",
      "to": "0xabc0afb70f325f4119cfca4083ea2a580ec40d3f",
      "contractAddress": null
    },
    {
      "status": "0x1",
      "cumulativeGasUsed": "0xcd0532",
      "logs": [
        {
          "address": "0xe03a1074c86cfedd5c142c4f04f1a1536e203543",
          "topics": [
            "0x40e9cecb9f5f1f1c5b9c97dec2917b7ee92e57ba5563708daca94dd84ad7112f",
            "0x6c28d2b60906a79ceadbbc225031033505ffc8027aa0d19cfea7a21574375983",
            "0x000000000000000000000000f13d190e9117920c703d79b5f33732e10049b115"
          ],
          "data": "0xfffffffffffffffffffffffffffffffffffffffffffffffff21f494c589c00000000000000000000000000000000000000000000000000000dd5031b28ebe6780000000000000000000000000000000000000000fff3211d808ccd65341098780000000000000000000000000000000000000000000002264ce48776091f1fe7fffffffffffffffffffffffffffffffffffffffffffffffffffffffffffffffc0000000000000000000000000000000000000000000000000000000000000bb8",
          "blockHash": "0xe71ff232c332795cffb45571e7e0ba2172da613ce005db69e83a6a6467b08056",
          "blockNumber": "0x8cc9e0",
          "blockTimestamp": "0x68cb9a7c",
          "transactionHash": "0x7f8c042829e850e6bf09939b765fcb338653d3413c952cfbcec6286e0fcea616",
          "transactionIndex": "0x5c",
          "logIndex": "0x79",
          "removed": false
        },
        {
          "address": "0x3e68f0f304314495fa45907170a59d0ba5218bcc",
          "topics": [
            "0xddf252ad1be2c89b69c2b068fc378daa952ba7f163c4a11628f55a4df523b3ef",
            "0x0000000000000000000000003e723f6b81431f325e3f08e75544f254c182afe2",
            "0x000000000000000000000000e03a1074c86cfedd5c142c4f04f1a1536e203543"
          ],
          "data": "0x0000000000000000000000000000000000000000000000000de0b6b3a7640000",
          "blockHash": "0xe71ff232c332795cffb45571e7e0ba2172da613ce005db69e83a6a6467b08056",
          "blockNumber": "0x8cc9e0",
          "blockTimestamp": "0x68cb9a7c",
          "transactionHash": "0x7f8c042829e850e6bf09939b765fcb338653d3413c952cfbcec6286e0fcea616",
          "transactionIndex": "0x5c",
          "logIndex": "0x7a",
          "removed": false
        },
        {
          "address": "0xabc0afb70f325f4119cfca4083ea2a580ec40d3f",
          "topics": [
            "0xddf252ad1be2c89b69c2b068fc378daa952ba7f163c4a11628f55a4df523b3ef",
            "0x000000000000000000000000e03a1074c86cfedd5c142c4f04f1a1536e203543",
            "0x0000000000000000000000003e723f6b81431f325e3f08e75544f254c182afe2"
          ],
          "data": "0x0000000000000000000000000000000000000000000000000dd5031b28ebe678",
          "blockHash": "0xe71ff232c332795cffb45571e7e0ba2172da613ce005db69e83a6a6467b08056",
          "blockNumber": "0x8cc9e0",
          "blockTimestamp": "0x68cb9a7c",
          "transactionHash": "0x7f8c042829e850e6bf09939b765fcb338653d3413c952cfbcec6286e0fcea616",
          "transactionIndex": "0x5c",
          "logIndex": "0x7b",
          "removed": false
        }
      ],
      "logsBloom": "0x000000000000008000000000000000000000000000000000008000000000000000000000000000000000000000800000000001000c0000800000000000000000000000000000000000000008000000100000000000000020000000000000000000000000000000000000000080000040010000000000100000000010000000000000000000080000000010000000000000000000000000000000000000000000000000000000004080000000000000000000000000002000000010000000000000000002000000000000000000000000000000000000000000001000000080401000000000000000004000000000000000000000000000000000000000000000",
      "type": "0x2",
      "transactionHash": "0x7f8c042829e850e6bf09939b765fcb338653d3413c952cfbcec6286e0fcea616",
      "transactionIndex": "0x5c",
      "blockHash": "0xe71ff232c332795cffb45571e7e0ba2172da613ce005db69e83a6a6467b08056",
      "blockNumber": "0x8cc9e0",
      "gasUsed": "0x19967",
      "effectiveGasPrice": "0xf4250",
      "from": "0x3e723f6b81431f325e3f08e75544f254c182afe2",
      "to": "0xf13d190e9117920c703d79b5f33732e10049b115",
      "contractAddress": null
    }
  ],
  "libraries": [],
  "pending": [],
  "returns": {},
  "timestamp": 1758173821819,
  "chain": 11155111,
  "commit": "7b9c819"
}