{
  "transactions": [
    {
      "hash": "0xa21b2dc17aac6eccd19742d08ff0fdf92a4d8ffc506419bc8391626c800b4850",
      "transactionType": "CALL",
      "contractName": null,
      "contractAddress": "0x594b10e24f2cefc373c835a2c70e1ff7cb567bac",
      "function": "approve(address,uint256)",
      "arguments": [
        "0xf13D190e9117920c703d79B5F33732e10049b115",
        "115792089237316195423570985008687907853269984665640564039457584007913129639935"
      ],
      "transaction": {
        "from": "0x3e723f6b81431f325e3f08e75544f254c182afe2",
        "to": "0x594b10e24f2cefc373c835a2c70e1ff7cb567bac",
        "gas": "0xfed3",
        "value": "0x0",
        "input": "0x095ea7b3000000000000000000000000f13d190e9117920c703d79b5f33732e10049b115ffffffffffffffffffffffffffffffffffffffffffffffffffffffffffffffff",
        "nonce": "0x4b7",
        "chainId": "0xaa36a7"
      },
      "additionalContracts": [],
      "isFixedGasLimit": false
    },
    {
      "hash": "0xf29da7c165a788cf3a8ac541f31b84488dbaa3c3eb7ed08e5183131e9b67f1fc",
      "transactionType": "CALL",
      "contractName": null,
      "contractAddress": "0x735c849fc0463bd863f05343181229fcc4fc838e",
      "function": "approve(address,uint256)",
      "arguments": [
        "0xf13D190e9117920c703d79B5F33732e10049b115",
        "115792089237316195423570985008687907853269984665640564039457584007913129639935"
      ],
      "transaction": {
        "from": "0x3e723f6b81431f325e3f08e75544f254c182afe2",
        "to": "0x735c849fc0463bd863f05343181229fcc4fc838e",
        "gas": "0xfed3",
        "value": "0x0",
        "input": "0x095ea7b3000000000000000000000000f13d190e9117920c703d79b5f33732e10049b115ffffffffffffffffffffffffffffffffffffffffffffffffffffffffffffffff",
        "nonce": "0x4b8",
        "chainId": "0xaa36a7"
      },
      "additionalContracts": [],
      "isFixedGasLimit": false
    },
    {
      "hash": "0xe5616cfa16bf140879380123fb63e67c816ca73de6e84dcd9f1e3b0f2ef0d7da",
      "transactionType": "CALL",
      "contractName": null,
      "contractAddress": "0xf13d190e9117920c703d79b5f33732e10049b115",
      "function": "swapExactTokensForTokens(uint256,uint256,bool,(address,address,uint24,int24,address),bytes,address,uint256)",
      "arguments": [
        "1000000",
        "0",
        "true",
        "(0x594B10E24f2CEFc373C835A2c70e1fF7Cb567baC, 0x735C849FC0463bD863F05343181229FcC4fc838E, 3000, 60, 0x6b5F295016D25937a0024E3287023d379ce27880)",
        "0x",
        "0x3e723f6B81431f325E3F08e75544F254C182AFE2",
        "1757967120"
      ],
      "transaction": {
        "from": "0x3e723f6b81431f325e3f08e75544f254c182afe2",
        "to": "0xf13d190e9117920c703d79b5f33732e10049b115",
        "gas": "0x8da46",
        "value": "0x0",
        "input": "0xb1a0d57100000000000000000000000000000000000000000000000000000000000f424000000000000000000000000000000000000000000000000000000000000000000000000000000000000000000000000000000000000000000000000000000001000000000000000000000000594b10e24f2cefc373c835a2c70e1ff7cb567bac000000000000000000000000735c849fc0463bd863f05343181229fcc4fc838e0000000000000000000000000000000000000000000000000000000000000bb8000000000000000000000000000000000000000000000000000000000000003c0000000000000000000000006b5f295016d25937a0024e3287023d379ce2788000000000000000000000000000000000000000000000000000000000000001600000000000000000000000003e723f6b81431f325e3f08e75544f254c182afe20000000000000000000000000000000000000000000000000000000068c873100000000000000000000000000000000000000000000000000000000000000000",
        "nonce": "0x4b9",
        "chainId": "0xaa36a7"
      },
      "additionalContracts": [],
      "isFixedGasLimit": false
    }
  ],
  "receipts": [
    {
      "status": "0x1",
      "cumulativeGasUsed": "0x17c6b26",
      "logs": [
        {
          "address": "0x594b10e24f2cefc373c835a2c70e1ff7cb567bac",
          "topics": [
            "0x8c5be1e5ebec7d5bd14f71427d1e84f3dd0314c0f7b2291e5b200ac8c7c3b925",
            "0x0000000000000000000000003e723f6b81431f325e3f08e75544f254c182afe2",
            "0x000000000000000000000000f13d190e9117920c703d79b5f33732e10049b115"
          ],
          "data": "0xffffffffffffffffffffffffffffffffffffffffffffffffffffffffffffffff",
          "blockHash": "0x8c86dab989e3d25148c31cd6bbdaa3757e82e280d5582544711192e919c442b4",
          "blockNumber": "0x8c8a3e",
          "blockTimestamp": "0x68c86524",
          "transactionHash": "0xa21b2dc17aac6eccd19742d08ff0fdf92a4d8ffc506419bc8391626c800b4850",
          "transactionIndex": "0x5c",
          "logIndex": "0x68",
          "removed": false
        }
      ],
      "logsBloom": "0x00000000000000000000000000000000000000000000000000800000000000000000000000000000000000000000000000000000080000000000000000200000000000000000000000000000000000000000000000000000000000000000000000000000000000000004000000000000000000000000000000100000000000000000000000080000000000100000000000000000000000000000000000000000020000000000000080000000000000000000000000000000000010000000000000000000000000000000000000000000000000000000000000000000000080000010000000000000000000000000000000000000000000000000000000000000",
      "type": "0x2",
      "transactionHash": "0xa21b2dc17aac6eccd19742d08ff0fdf92a4d8ffc506419bc8391626c800b4850",
      "transactionIndex": "0x5c",
      "blockHash": "0x8c86dab989e3d25148c31cd6bbdaa3757e82e280d5582544711192e919c442b4",
      "blockNumber": "0x8c8a3e",
      "gasUsed": "0xb87e",
      "effectiveGasPrice": "0x1672c9",
      "from": "0x3e723f6b81431f325e3f08e75544f254c182afe2",
      "to": "0x594b10e24f2cefc373c835a2c70e1ff7cb567bac",
      "contractAddress": null
    },
    {
      "status": "0x1",
      "cumulativeGasUsed": "0x17d23a4",
      "logs": [
        {
          "address": "0x735c849fc0463bd863f05343181229fcc4fc838e",
          "topics": [
            "0x8c5be1e5ebec7d5bd14f71427d1e84f3dd0314c0f7b2291e5b200ac8c7c3b925",
            "0x0000000000000000000000003e723f6b81431f325e3f08e75544f254c182afe2",
            "0x000000000000000000000000f13d190e9117920c703d79b5f33732e10049b115"
          ],
          "data": "0xffffffffffffffffffffffffffffffffffffffffffffffffffffffffffffffff",
          "blockHash": "0x8c86dab989e3d25148c31cd6bbdaa3757e82e280d5582544711192e919c442b4",
          "blockNumber": "0x8c8a3e",
          "blockTimestamp": "0x68c86524",
          "transactionHash": "0xf29da7c165a788cf3a8ac541f31b84488dbaa3c3eb7ed08e5183131e9b67f1fc",
          "transactionIndex": "0x5d",
          "logIndex": "0x69",
          "removed": false
        }
      ],
      "logsBloom": "0x00000000000000000000000000000000000000000000000000800000000000000000000000000000000000000000000000000000080000000000800000200000000000000000000000000000000000000000000000000000000000000000000000000000000000000000000000000000000000000000000000000000000000000000000000080000000000000000000000000000000001000000000000000000020000000000000080000000000000000000000000000000000010000000000000000000000000000000000000000000000000000000000000000000000080000810000000000000000000000000000000000000000000000000000000000000",
      "type": "0x2",
      "transactionHash": "0xf29da7c165a788cf3a8ac541f31b84488dbaa3c3eb7ed08e5183131e9b67f1fc",
      "transactionIndex": "0x5d",
      "blockHash": "0x8c86dab989e3d25148c31cd6bbdaa3757e82e280d5582544711192e919c442b4",
      "blockNumber": "0x8c8a3e",
      "gasUsed": "0xb87e",
      "effectiveGasPrice": "0x1672c9",
      "from": "0x3e723f6b81431f325e3f08e75544f254c182afe2",
      "to": "0x735c849fc0463bd863f05343181229fcc4fc838e",
      "contractAddress": null
    },
    {
      "status": "0x1",
      "cumulativeGasUsed": "0x1838c63",
      "logs": [
        {
          "address": "0x6b5f295016d25937a0024e3287023d379ce27880",
          "topics": [
            "0x0776e2616458473f50e76f74273be3bf80503f0cec0c76a67acb8596ff78d305",
            "0x1a0a869623592fdc4d67fb8c27d4b11fcc8324c7244aa071f2685145bdc9f2c6"
          ],
          "data": "0xffffffffffffffffffffffffffffffffffffffffffffffffffffffffffffffc4000000000000000000000000000000000000000000000000000000000000003cffffffffffffffffffffffffffffffffffffffffffffffffffffffffffffffc4000000000000000000000000000000000000000000000000000000000000003c",
          "blockHash": "0x8c86dab989e3d25148c31cd6bbdaa3757e82e280d5582544711192e919c442b4",
          "blockNumber": "0x8c8a3e",
          "blockTimestamp": "0x68c86524",
          "transactionHash": "0xe5616cfa16bf140879380123fb63e67c816ca73de6e84dcd9f1e3b0f2ef0d7da",
          "transactionIndex": "0x5e",
          "logIndex": "0x6a",
          "removed": false
        },
        {
          "address": "0xe03a1074c86cfedd5c142c4f04f1a1536e203543",
          "topics": [
            "0x40e9cecb9f5f1f1c5b9c97dec2917b7ee92e57ba5563708daca94dd84ad7112f",
            "0x1a0a869623592fdc4d67fb8c27d4b11fcc8324c7244aa071f2685145bdc9f2c6",
            "0x000000000000000000000000f13d190e9117920c703d79b5f33732e10049b115"
          ],
          "data": "0x0000000000000000000000000000000000000000000000000000000000000000000000000000000000000000000000000000000000000000000000000000000000000000000000000000000000000000000000000000000000000001000276a40000000000000000000000000000000000000000000000000000000000000000fffffffffffffffffffffffffffffffffffffffffffffffffffffffffff276180000000000000000000000000000000000000000000000000000000000000bb8",
          "blockHash": "0x8c86dab989e3d25148c31cd6bbdaa3757e82e280d5582544711192e919c442b4",
          "blockNumber": "0x8c8a3e",
          "blockTimestamp": "0x68c86524",
          "transactionHash": "0xe5616cfa16bf140879380123fb63e67c816ca73de6e84dcd9f1e3b0f2ef0d7da",
          "transactionIndex": "0x5e",
          "logIndex": "0x6b",
          "removed": false
        }
      ],
      "logsBloom": "0x00000000000800000000010000000000000000000000000000800000000000000000000000000000000000000000000000000100040000000000000000000000004000000000000000000000000000000000000000000020000000000000000000000000100000000000000000000000000000000000100004000000000000000000000000080000000000100000000000000000000000000000000000000000000000000000000000000001000000000000000000000000000000000000000000800000000000000000000000000000000000020000000000000000000080001000000000000000004000000000000000000000000000000000000000000000",
      "type": "0x2",
      "transactionHash": "0xe5616cfa16bf140879380123fb63e67c816ca73de6e84dcd9f1e3b0f2ef0d7da",
      "transactionIndex": "0x5e",
      "blockHash": "0x8c86dab989e3d25148c31cd6bbdaa3757e82e280d5582544711192e919c442b4",
      "blockNumber": "0x8c8a3e",
      "gasUsed": "0x668bf",
      "effectiveGasPrice": "0x1672c9",
      "from": "0x3e723f6b81431f325e3f08e75544f254c182afe2",
      "to": "0xf13d190e9117920c703d79b5f33732e10049b115",
      "contractAddress": null
    }
  ],
  "libraries": [],
  "pending": [],
  "returns": {},
  "timestamp": 1757963556943,
  "chain": 11155111,
  "commit": "c68face"
}