{
  "transactions": [
    {
      "hash": "0x8f9d903e615fd6283343464c1c8e5547db04003483c6acbd17620e5d329cd9ba",
      "transactionType": "CALL",
      "contractName": null,
      "contractAddress": "0x7af099c105a27f389324a2c0a1f5bb676c945106",
      "function": "approve(address,uint256)",
      "arguments": [
        "0xf13D190e9117920c703d79B5F33732e10049b115",
        "115792089237316195423570985008687907853269984665640564039457584007913129639935"
      ],
      "transaction": {
        "from": "0x3e723f6b81431f325e3f08e75544f254c182afe2",
        "to": "0x7af099c105a27f389324a2c0a1f5bb676c945106",
        "gas": "0xfed3",
        "value": "0x0",
        "input": "0x095ea7b3000000000000000000000000f13d190e9117920c703d79b5f33732e10049b115ffffffffffffffffffffffffffffffffffffffffffffffffffffffffffffffff",
        "nonce": "0x4c0",
        "chainId": "0xaa36a7"
      },
      "additionalContracts": [],
      "isFixedGasLimit": false
    },
    {
      "hash": "0x48411f86aff97e3abbb57491e27dff5b16776d43ed908c04137ec04c812e4e50",
      "transactionType": "CALL",
      "contractName": null,
      "contractAddress": "0x9e1cf8d3970eccc2dffa4aabbcdcba8555f19ea6",
      "function": "approve(address,uint256)",
      "arguments": [
        "0xf13D190e9117920c703d79B5F33732e10049b115",
        "115792089237316195423570985008687907853269984665640564039457584007913129639935"
      ],
      "transaction": {
        "from": "0x3e723f6b81431f325e3f08e75544f254c182afe2",
        "to": "0x9e1cf8d3970eccc2dffa4aabbcdcba8555f19ea6",
        "gas": "0xfed3",
        "value": "0x0",
        "input": "0x095ea7b3000000000000000000000000f13d190e9117920c703d79b5f33732e10049b115ffffffffffffffffffffffffffffffffffffffffffffffffffffffffffffffff",
        "nonce": "0x4c1",
        "chainId": "0xaa36a7"
      },
      "additionalContracts": [],
      "isFixedGasLimit": false
    },
    {
      "hash": "0xd84b31063c49a23f215b9331abc239b0f7879b3a7239b865fe4d0c3f77cfbe49",
      "transactionType": "CALL",
      "contractName": null,
      "contractAddress": "0xf13d190e9117920c703d79b5f33732e10049b115",
      "function": "swapExactTokensForTokens(uint256,uint256,bool,(address,address,uint24,int24,address),bytes,address,uint256)",
      "arguments": [
        "1000000",
        "0",
        "true",
        "(0x7Af099c105a27F389324a2c0A1F5Bb676c945106, 0x9E1Cf8D3970ECcC2DFfa4aABbCDCbA8555F19EA6, 3000, 60, 0x60121105481AA3355e8855B164c92908A752f880)",
        "0x",
        "0x3e723f6B81431f325E3F08e75544F254C182AFE2",
        "1757968560"
      ],
      "transaction": {
        "from": "0x3e723f6b81431f325e3f08e75544f254c182afe2",
        "to": "0xf13d190e9117920c703d79b5f33732e10049b115",
        "gas": "0x8e57d",
        "value": "0x0",
        "input": "0xb1a0d57100000000000000000000000000000000000000000000000000000000000f4240000000000000000000000000000000000000000000000000000000000000000000000000000000000000000000000000000000000000000000000000000000010000000000000000000000007af099c105a27f389324a2c0a1f5bb676c9451060000000000000000000000009e1cf8d3970eccc2dffa4aabbcdcba8555f19ea60000000000000000000000000000000000000000000000000000000000000bb8000000000000000000000000000000000000000000000000000000000000003c00000000000000000000000060121105481aa3355e8855b164c92908a752f88000000000000000000000000000000000000000000000000000000000000001600000000000000000000000003e723f6b81431f325e3f08e75544f254c182afe20000000000000000000000000000000000000000000000000000000068c878b00000000000000000000000000000000000000000000000000000000000000000",
        "nonce": "0x4c2",
        "chainId": "0xaa36a7"
      },
      "additionalContracts": [],
      "isFixedGasLimit": false
    }
  ],
  "receipts": [
    {
      "status": "0x1",
      "cumulativeGasUsed": "0x91fcf8",
      "logs": [
        {
          "address": "0x7af099c105a27f389324a2c0a1f5bb676c945106",
          "topics": [
            "0x8c5be1e5ebec7d5bd14f71427d1e84f3dd0314c0f7b2291e5b200ac8c7c3b925",
            "0x0000000000000000000000003e723f6b81431f325e3f08e75544f254c182afe2",
            "0x000000000000000000000000f13d190e9117920c703d79b5f33732e10049b115"
          ],
          "data": "0xffffffffffffffffffffffffffffffffffffffffffffffffffffffffffffffff",
          "blockHash": "0xf89c5328629aba5f4d046382b49d28bde3a6c5e97449acc486c6a40dd72c59ee",
          "blockNumber": "0x8c8ab2",
          "blockTimestamp": "0x68c86ad0",
          "transactionHash": "0x8f9d903e615fd6283343464c1c8e5547db04003483c6acbd17620e5d329cd9ba",
          "transactionIndex": "0x38",
          "logIndex": "0x7d",
          "removed": false
        }
      ],
      "logsBloom": "0x00000000000000000000000000000000000000000000000000800000000000000000000000000000000000000000000000000000080000000000000000200000000000000200000000000000000000000000000000000000000000000000000000000000000000000000000000000000000000000000000000000000000000000000000000080000000000000000000000000000000000000000000000000000020000000000000080000000000000000000000000000000000010000000000000000000000000000000000000000000000000000000000000080000000080000010000000000000000000000000000000000000000000001000000000000000",
      "type": "0x2",
      "transactionHash": "0x8f9d903e615fd6283343464c1c8e5547db04003483c6acbd17620e5d329cd9ba",
      "transactionIndex": "0x38",
      "blockHash": "0xf89c5328629aba5f4d046382b49d28bde3a6c5e97449acc486c6a40dd72c59ee",
      "blockNumber": "0x8c8ab2",
      "gasUsed": "0xb87e",
      "effectiveGasPrice": "0x15bbe7",
      "from": "0x3e723f6b81431f325e3f08e75544f254c182afe2",
      "to": "0x7af099c105a27f389324a2c0a1f5bb676c945106",
      "contractAddress": null
    },
    {
      "status": "0x1",
      "cumulativeGasUsed": "0x92b576",
      "logs": [
        {
          "address": "0x9e1cf8d3970eccc2dffa4aabbcdcba8555f19ea6",
          "topics": [
            "0x8c5be1e5ebec7d5bd14f71427d1e84f3dd0314c0f7b2291e5b200ac8c7c3b925",
            "0x0000000000000000000000003e723f6b81431f325e3f08e75544f254c182afe2",
            "0x000000000000000000000000f13d190e9117920c703d79b5f33732e10049b115"
          ],
          "data": "0xffffffffffffffffffffffffffffffffffffffffffffffffffffffffffffffff",
          "blockHash": "0xf89c5328629aba5f4d046382b49d28bde3a6c5e97449acc486c6a40dd72c59ee",
          "blockNumber": "0x8c8ab2",
          "blockTimestamp": "0x68c86ad0",
          "transactionHash": "0x48411f86aff97e3abbb57491e27dff5b16776d43ed908c04137ec04c812e4e50",
          "transactionIndex": "0x39",
          "logIndex": "0x7e",
          "removed": false
        }
      ],
      "logsBloom": "0x00000000000000000000000000000000000000000000000000800000000000000000000000000000000000000000000000000000080000000000000000200000000000000000000000800000000000000000000000000000000000000000000000000000000000000000000000000000000000000000000000000000000000000000000000080000000000000000400000000000000000000000000000000000020000000000000080000000000000000000000000000000000010000000000000000000000000000000000000000000000000000000000000000000000080000010000000000000000000000000000000000000000000000000000000000008",
      "type": "0x2",
      "transactionHash": "0x48411f86aff97e3abbb57491e27dff5b16776d43ed908c04137ec04c812e4e50",
      "transactionIndex": "0x39",
      "blockHash": "0xf89c5328629aba5f4d046382b49d28bde3a6c5e97449acc486c6a40dd72c59ee",
      "blockNumber": "0x8c8ab2",
      "gasUsed": "0xb87e",
      "effectiveGasPrice": "0x15bbe7",
      "from": "0x3e723f6b81431f325e3f08e75544f254c182afe2",
      "to": "0x9e1cf8d3970eccc2dffa4aabbcdcba8555f19ea6",
      "contractAddress": null
    },
    {
      "status": "0x1",
      "cumulativeGasUsed": "0x992653",
      "logs": [
        {
          "address": "0x60121105481aa3355e8855b164c92908a752f880",
          "topics": [
            "0xecbff32b2c8625a003d7645d68b6b060b0c0088699f2feb64307c33e3436e299",
            "0x5dc638b2d38ca34ca2fbe00f2b975e38acaa7ed5b40f63ca657b1fa47e6fae5e"
          ],
          "data": "0xffffffffffffffffffffffffffffffffffffffffffffffffffffffffffffffc4000000000000000000000000000000000000000000000000000000000000003cffffffffffffffffffffffffffffffffffffffffffffffffffffffffffffffc4000000000000000000000000000000000000000000000000000000000000003c0000000000000000000000000000000000000000000000000000000068c86ad0",
          "blockHash": "0xf89c5328629aba5f4d046382b49d28bde3a6c5e97449acc486c6a40dd72c59ee",
          "blockNumber": "0x8c8ab2",
          "blockTimestamp": "0x68c86ad0",
          "transactionHash": "0xd84b31063c49a23f215b9331abc239b0f7879b3a7239b865fe4d0c3f77cfbe49",
          "transactionIndex": "0x3a",
          "logIndex": "0x7f",
          "removed": false
        },
        {
          "address": "0xe03a1074c86cfedd5c142c4f04f1a1536e203543",
          "topics": [
            "0x40e9cecb9f5f1f1c5b9c97dec2917b7ee92e57ba5563708daca94dd84ad7112f",
            "0x5dc638b2d38ca34ca2fbe00f2b975e38acaa7ed5b40f63ca657b1fa47e6fae5e",
            "0x000000000000000000000000f13d190e9117920c703d79b5f33732e10049b115"
          ],
          "data": "0x0000000000000000000000000000000000000000000000000000000000000000000000000000000000000000000000000000000000000000000000000000000000000000000000000000000000000000000000000000000000000001000276a40000000000000000000000000000000000000000000000000000000000000000fffffffffffffffffffffffffffffffffffffffffffffffffffffffffff276180000000000000000000000000000000000000000000000000000000000000bb8",
          "blockHash": "0xf89c5328629aba5f4d046382b49d28bde3a6c5e97449acc486c6a40dd72c59ee",
          "blockNumber": "0x8c8ab2",
          "blockTimestamp": "0x68c86ad0",
          "transactionHash": "0xd84b31063c49a23f215b9331abc239b0f7879b3a7239b865fe4d0c3f77cfbe49",
          "transactionIndex": "0x3a",
          "logIndex": "0x80",
          "removed": false
        }
      ],
      "logsBloom": "0x00000000000000000000000000000000000000000000000000800000000000000000000000000000000000000000000000000100040000000000000000000000000800020000000000000000000000000000000000000020000000000000000000008002002000000000000000000000000000000000100000000000000000000000000000080000000000000000000000000000000000000000000000000000000000000000000040002000000000000000000000000000000000000000000000000000000000000000000000000000000000000000000000000000000080001200000000000000004000000000000000000000000000000080000000000000",
      "type": "0x2",
      "transactionHash": "0xd84b31063c49a23f215b9331abc239b0f7879b3a7239b865fe4d0c3f77cfbe49",
      "transactionIndex": "0x3a",
      "blockHash": "0xf89c5328629aba5f4d046382b49d28bde3a6c5e97449acc486c6a40dd72c59ee",
      "blockNumber": "0x8c8ab2",
      "gasUsed": "0x670dd",
      "effectiveGasPrice": "0x15bbe7",
      "from": "0x3e723f6b81431f325e3f08e75544f254c182afe2",
      "to": "0xf13d190e9117920c703d79b5f33732e10049b115",
      "contractAddress": null
    }
  ],
  "libraries": [],
  "pending": [],
  "returns": {},
  "timestamp": 1757965009410,
  "chain": 11155111,
  "commit": "c68face"
}