{
  "transactions": [
    {
      "hash": "0x8c2d8a782ad7e63a52cb801e00c69c63ee10eb8317c912ff82c615acd65c7e79",
      "transactionType": "CALL",
      "contractName": null,
      "contractAddress": "0x1ada2feb7b799d2fcb985441665649d29ae7f838",
      "function": "approve(address,uint256)",
      "arguments": [
        "0xf13D190e9117920c703d79B5F33732e10049b115",
        "115792089237316195423570985008687907853269984665640564039457584007913129639935"
      ],
      "transaction": {
        "from": "0x3e723f6b81431f325e3f08e75544f254c182afe2",
        "to": "0x1ada2feb7b799d2fcb985441665649d29ae7f838",
        "gas": "0x10842",
        "value": "0x0",
        "input": "0x095ea7b3000000000000000000000000f13d190e9117920c703d79b5f33732e10049b115ffffffffffffffffffffffffffffffffffffffffffffffffffffffffffffffff",
        "nonce": "0x5ad",
        "chainId": "0xaa36a7"
      },
      "additionalContracts": [],
      "isFixedGasLimit": false
    },
    {
      "hash": "0x50213d49196846fd7b8a4597d6bb4efa3d90e2f56763234e0f619429fc98c012",
      "transactionType": "CALL",
      "contractName": null,
      "contractAddress": "0x9bde75a5a0723038cfe4528bd0e346056bae750b",
      "function": "approve(address,uint256)",
      "arguments": [
        "0xf13D190e9117920c703d79B5F33732e10049b115",
        "115792089237316195423570985008687907853269984665640564039457584007913129639935"
      ],
      "transaction": {
        "from": "0x3e723f6b81431f325e3f08e75544f254c182afe2",
        "to": "0x9bde75a5a0723038cfe4528bd0e346056bae750b",
        "gas": "0x10842",
        "value": "0x0",
        "input": "0x095ea7b3000000000000000000000000f13d190e9117920c703d79b5f33732e10049b115ffffffffffffffffffffffffffffffffffffffffffffffffffffffffffffffff",
        "nonce": "0x5ae",
        "chainId": "0xaa36a7"
      },
      "additionalContracts": [],
      "isFixedGasLimit": false
    },
    {
      "hash": "0xbdf866b982227632a567c9cc0d92ddd74d0921061bb4d6c9efbe27bc396eba55",
      "transactionType": "CALL",
      "contractName": null,
      "contractAddress": "0xf13d190e9117920c703d79b5f33732e10049b115",
      "function": "swapExactTokensForTokens(uint256,uint256,bool,(address,address,uint24,int24,address),bytes,address,uint256)",
      "arguments": [
        "1000000000000000000",
        "0",
        "true",
        "(0x1ada2FEB7b799D2fcb985441665649D29aE7f838, 0x9BDe75a5A0723038cfe4528BD0e346056bae750B, 3000, 60, 0x0000000000000000000000000000000000000000)",
        "0x",
        "0x3e723f6B81431f325E3F08e75544F254C182AFE2",
        "1758171300"
      ],
      "transaction": {
        "from": "0x3e723f6b81431f325e3f08e75544f254c182afe2",
        "to": "0xf13d190e9117920c703d79b5f33732e10049b115",
        "gas": "0x2aa4f",
        "value": "0x0",
        "input": "0xb1a0d5710000000000000000000000000000000000000000000000000de0b6b3a7640000000000000000000000000000000000000000000000000000000000000000000000000000000000000000000000000000000000000000000000000000000000010000000000000000000000001ada2feb7b799d2fcb985441665649d29ae7f8380000000000000000000000009bde75a5a0723038cfe4528bd0e346056bae750b0000000000000000000000000000000000000000000000000000000000000bb8000000000000000000000000000000000000000000000000000000000000003c000000000000000000000000000000000000000000000000000000000000000000000000000000000000000000000000000000000000000000000000000001600000000000000000000000003e723f6b81431f325e3f08e75544f254c182afe20000000000000000000000000000000000000000000000000000000068cb90a40000000000000000000000000000000000000000000000000000000000000000",
        "nonce": "0x5af",
        "chainId": "0xaa36a7"
      },
      "additionalContracts": [],
      "isFixedGasLimit": false
    }
  ],
  "receipts": [
    {
      "status": "0x1",
      "cumulativeGasUsed": "0x15ea737",
      "logs": [
        {
          "address": "0x1ada2feb7b799d2fcb985441665649d29ae7f838",
          "topics": [
            "0x8c5be1e5ebec7d5bd14f71427d1e84f3dd0314c0f7b2291e5b200ac8c7c3b925",
            "0x0000000000000000000000003e723f6b81431f325e3f08e75544f254c182afe2",
            "0x000000000000000000000000f13d190e9117920c703d79b5f33732e10049b115"
          ],
          "data": "0xffffffffffffffffffffffffffffffffffffffffffffffffffffffffffffffff",
          "blockHash": "0x94d5e4649fa02d4f387ede34a2e1bb4301aa014abff897cd8d6648caa0afb7e4",
          "blockNumber": "0x8cc7fd",
          "blockTimestamp": "0x68cb82ac",
          "transactionHash": "0x8c2d8a782ad7e63a52cb801e00c69c63ee10eb8317c912ff82c615acd65c7e79",
          "transactionIndex": "0x84",
          "logIndex": "0xcb",
          "removed": false
        }
      ],
      "logsBloom": "0x00040000000000000000000000000000000000000000000000800000800000000000000000000000000000000000000000000000080000000000000000200000000000000000000000000000000000000000000000000000000000000000000000000000000000000000000000000000000000000000000000000000000000000000000000080000000000000000000000000000000000000000000000000000020000000000000080000000000000000000000000000000000010000000000000000000000000000000000000000000000000000000000000000000000080000010000000000000000000000000000000000000000000000000000800000000",
      "type": "0x2",
      "transactionHash": "0x8c2d8a782ad7e63a52cb801e00c69c63ee10eb8317c912ff82c615acd65c7e79",
      "transactionIndex": "0x84",
      "blockHash": "0x94d5e4649fa02d4f387ede34a2e1bb4301aa014abff897cd8d6648caa0afb7e4",
      "blockNumber": "0x8cc7fd",
      "gasUsed": "0xb4b1",
      "effectiveGasPrice": "0xf4261",
      "from": "0x3e723f6b81431f325e3f08e75544f254c182afe2",
      "to": "0x1ada2feb7b799d2fcb985441665649d29ae7f838",
      "contractAddress": null
    },
    {
      "status": "0x1",
      "cumulativeGasUsed": "0x15f5be8",
      "logs": [
        {
          "address": "0x9bde75a5a0723038cfe4528bd0e346056bae750b",
          "topics": [
            "0x8c5be1e5ebec7d5bd14f71427d1e84f3dd0314c0f7b2291e5b200ac8c7c3b925",
            "0x0000000000000000000000003e723f6b81431f325e3f08e75544f254c182afe2",
            "0x000000000000000000000000f13d190e9117920c703d79b5f33732e10049b115"
          ],
          "data": "0xffffffffffffffffffffffffffffffffffffffffffffffffffffffffffffffff",
          "blockHash": "0x94d5e4649fa02d4f387ede34a2e1bb4301aa014abff897cd8d6648caa0afb7e4",
          "blockNumber": "0x8cc7fd",
          "blockTimestamp": "0x68cb82ac",
          "transactionHash": "0x50213d49196846fd7b8a4597d6bb4efa3d90e2f56763234e0f619429fc98c012",
          "transactionIndex": "0x85",
          "logIndex": "0xcc",
          "removed": false
        }
      ],
      "logsBloom": "0x00000000000000000000000000000000000000000000000000800000000000000000000000000000000000000000000000200000080000000000000000200000000000000000000000000000000000000080000000000000000000000000000000000000000000000000000000000000000000000000000000000000000000000000000000080000000000000000000002000000000000000000000000000000020000000000000080000000000000000000000000000000000010000000000000000000000000000000000000000000000000000000000000000000000080000010000000000000000000000000000000000000000000000000000000000000",
      "type": "0x2",
      "transactionHash": "0x50213d49196846fd7b8a4597d6bb4efa3d90e2f56763234e0f619429fc98c012",
      "transactionIndex": "0x85",
      "blockHash": "0x94d5e4649fa02d4f387ede34a2e1bb4301aa014abff897cd8d6648caa0afb7e4",
      "blockNumber": "0x8cc7fd",
      "gasUsed": "0xb4b1",
      "effectiveGasPrice": "0xf4261",
      "from": "0x3e723f6b81431f325e3f08e75544f254c182afe2",
      "to": "0x9bde75a5a0723038cfe4528bd0e346056bae750b",
      "contractAddress": null
    },
    {
      "status": "0x1",
      "cumulativeGasUsed": "0x16149e4",
      "logs": [
        {
          "address": "0xe03a1074c86cfedd5c142c4f04f1a1536e203543",
          "topics": [
            "0x40e9cecb9f5f1f1c5b9c97dec2917b7ee92e57ba5563708daca94dd84ad7112f",
            "0x6df9863a379f04d726a4613088efb0601f7ece024419faead693edc46201af74",
            "0x000000000000000000000000f13d190e9117920c703d79b5f33732e10049b115"
          ],
          "data": "0xfffffffffffffffffffffffffffffffffffffffffffffffff21f494c589c00000000000000000000000000000000000000000000000000000dd5031fa2b32cc10000000000000000000000000000000000000000ffecb2287b2aeb283694f1890000000000000000000000000000000000000000000000b76ef6d7d1e8594b01fffffffffffffffffffffffffffffffffffffffffffffffffffffffffffffffa0000000000000000000000000000000000000000000000000000000000000bb8",
          "blockHash": "0x94d5e4649fa02d4f387ede34a2e1bb4301aa014abff897cd8d6648caa0afb7e4",
          "blockNumber": "0x8cc7fd",
          "blockTimestamp": "0x68cb82ac",
          "transactionHash": "0xbdf866b982227632a567c9cc0d92ddd74d0921061bb4d6c9efbe27bc396eba55",
          "transactionIndex": "0x86",
          "logIndex": "0xcd",
          "removed": false
        },
        {
          "address": "0x1ada2feb7b799d2fcb985441665649d29ae7f838",
          "topics": [
            "0xddf252ad1be2c89b69c2b068fc378daa952ba7f163c4a11628f55a4df523b3ef",
            "0x0000000000000000000000003e723f6b81431f325e3f08e75544f254c182afe2",
            "0x000000000000000000000000e03a1074c86cfedd5c142c4f04f1a1536e203543"
          ],
          "data": "0x0000000000000000000000000000000000000000000000000de0b6b3a7640000",
          "blockHash": "0x94d5e4649fa02d4f387ede34a2e1bb4301aa014abff897cd8d6648caa0afb7e4",
          "blockNumber": "0x8cc7fd",
          "blockTimestamp": "0x68cb82ac",
          "transactionHash": "0xbdf866b982227632a567c9cc0d92ddd74d0921061bb4d6c9efbe27bc396eba55",
          "transactionIndex": "0x86",
          "logIndex": "0xce",
          "removed": false
        },
        {
          "address": "0x9bde75a5a0723038cfe4528bd0e346056bae750b",
          "topics": [
            "0xddf252ad1be2c89b69c2b068fc378daa952ba7f163c4a11628f55a4df523b3ef",
            "0x000000000000000000000000e03a1074c86cfedd5c142c4f04f1a1536e203543",
            "0x0000000000000000000000003e723f6b81431f325e3f08e75544f254c182afe2"
          ],
          "data": "0x0000000000000000000000000000000000000000000000000dd5031fa2b32cc1",
          "blockHash": "0x94d5e4649fa02d4f387ede34a2e1bb4301aa014abff897cd8d6648caa0afb7e4",
          "blockNumber": "0x8cc7fd",
          "blockTimestamp": "0x68cb82ac",
          "transactionHash": "0xbdf866b982227632a567c9cc0d92ddd74d0921061bb4d6c9efbe27bc396eba55",
          "transactionIndex": "0x86",
          "logIndex": "0xcf",
          "removed": false
        }
      ],
      "logsBloom": "0x000400000000000000000000000000000000000000000000008000008000000000000000000000002000000000000000002011000c0000000000000000000000000000000000000000000008000000000080000000000020000000000000000000000000000000000000000080000000000000000000100000000010000000000000000000080000000010010000000002000000000000000000000000000000000000000000000080000000000000000000000000000000000010000000000000000002000000000000000000000000000000000000000000001000000080001000000000000000004000000000000000000000000000000000000800000000",
      "type": "0x2",
      "transactionHash": "0xbdf866b982227632a567c9cc0d92ddd74d0921061bb4d6c9efbe27bc396eba55",
      "transactionIndex": "0x86",
      "blockHash": "0x94d5e4649fa02d4f387ede34a2e1bb4301aa014abff897cd8d6648caa0afb7e4",
      "blockNumber": "0x8cc7fd",
      "gasUsed": "0x1edfc",
      "effectiveGasPrice": "0xf4261",
      "from": "0x3e723f6b81431f325e3f08e75544f254c182afe2",
      "to": "0xf13d190e9117920c703d79b5f33732e10049b115",
      "contractAddress": null
    }
  ],
  "libraries": [],
  "pending": [],
  "returns": {},
  "timestamp": 1758167725329,
  "chain": 11155111,
  "commit": "7b9c819"
}