{
  "transactions": [
    {
      "hash": "0x8399747bdf56c4e813b2e3ffcd170279fd743faf41558fd31f48d7bd292b430a",
      "transactionType": "CALL",
      "contractName": null,
      "contractAddress": "0xa502683ee305567d36a7ce8d7ed5952cf816f880",
      "function": "configureEncryptedRebalancingStrategy((address,address,uint24,int24,address),uint24,uint32,int24,bool,uint24)",
      "arguments": [
        "(0x0058863bB78B4325caB9d50Ab75ca43601a9eF6b, 0x5abeC0563014C1C02Eb7a4f6924896e5F92579FC, 3000, 60, 0xa502683Ee305567D36a7Ce8d7ED5952CF816f880)",
        "500",
        "3600",
        "200",
        "true",
        "150"
      ],
      "transaction": {
        "from": "0x3e723f6b81431f325e3f08e75544f254c182afe2",
        "to": "0xa502683ee305567d36a7ce8d7ed5952cf816f880",
        "gas": "0x605e8",
        "value": "0x0",
        "input": "0xa9eb74780000000000000000000000000058863bb78b4325cab9d50ab75ca43601a9ef6b0000000000000000000000005abec0563014c1c02eb7a4f6924896e5f92579fc0000000000000000000000000000000000000000000000000000000000000bb8000000000000000000000000000000000000000000000000000000000000003c000000000000000000000000a502683ee305567d36a7ce8d7ed5952cf816f88000000000000000000000000000000000000000000000000000000000000001f40000000000000000000000000000000000000000000000000000000000000e1000000000000000000000000000000000000000000000000000000000000000c800000000000000000000000000000000000000000000000000000000000000010000000000000000000000000000000000000000000000000000000000000096",
        "nonce": "0x5c5",
        "chainId": "0xaa36a7"
      },
      "additionalContracts": [],
      "isFixedGasLimit": false
    },
    {
      "hash": "0x4f3040e7380fae823efeb76caa49494dc3aaeb621e0383940851faf4e28f8d14",
      "transactionType": "CALL",
      "contractName": null,
      "contractAddress": "0xa502683ee305567d36a7ce8d7ed5952cf816f880",
      "function": "pausePoolRebalancing((address,address,uint24,int24,address))",
      "arguments": [
        "(0x0058863bB78B4325caB9d50Ab75ca43601a9eF6b, 0x5abeC0563014C1C02Eb7a4f6924896e5F92579FC, 3000, 60, 0xa502683Ee305567D36a7Ce8d7ED5952CF816f880)"
      ],
      "transaction": {
        "from": "0x3e723f6b81431f325e3f08e75544f254c182afe2",
        "to": "0xa502683ee305567d36a7ce8d7ed5952cf816f880",
        "gas": "0x1d85c",
        "value": "0x0",
        "input": "0xfbdd948f0000000000000000000000000058863bb78b4325cab9d50ab75ca43601a9ef6b0000000000000000000000005abec0563014c1c02eb7a4f6924896e5f92579fc0000000000000000000000000000000000000000000000000000000000000bb8000000000000000000000000000000000000000000000000000000000000003c000000000000000000000000a502683ee305567d36a7ce8d7ed5952cf816f880",
        "nonce": "0x5c6",
        "chainId": "0xaa36a7"
      },
      "additionalContracts": [],
      "isFixedGasLimit": false
    },
    {
      "hash": "0xf744028a38165d5d212915a3c60551572b9aa94536064e1f2a4335ad41a7ab92",
      "transactionType": "CALL",
      "contractName": null,
      "contractAddress": "0xa502683ee305567d36a7ce8d7ed5952cf816f880",
      "function": "resumePoolRebalancing((address,address,uint24,int24,address))",
      "arguments": [
        "(0x0058863bB78B4325caB9d50Ab75ca43601a9eF6b, 0x5abeC0563014C1C02Eb7a4f6924896e5F92579FC, 3000, 60, 0xa502683Ee305567D36a7Ce8d7ED5952CF816f880)"
      ],
      "transaction": {
        "from": "0x3e723f6b81431f325e3f08e75544f254c182afe2",
        "to": "0xa502683ee305567d36a7ce8d7ed5952cf816f880",
        "gas": "0x1d874",
        "value": "0x0",
        "input": "0xfe0389100000000000000000000000000058863bb78b4325cab9d50ab75ca43601a9ef6b0000000000000000000000005abec0563014c1c02eb7a4f6924896e5f92579fc0000000000000000000000000000000000000000000000000000000000000bb8000000000000000000000000000000000000000000000000000000000000003c000000000000000000000000a502683ee305567d36a7ce8d7ed5952cf816f880",
        "nonce": "0x5c7",
        "chainId": "0xaa36a7"
      },
      "additionalContracts": [],
      "isFixedGasLimit": false
    },
    {
      "hash": "0x72f0582805f134672c9aa88e47587fd1363e1568c2bdd78958a115a56c24e283",
      "transactionType": "CALL",
      "contractName": null,
      "contractAddress": "0xa502683ee305567d36a7ce8d7ed5952cf816f880",
      "function": "deactivatePool((address,address,uint24,int24,address))",
      "arguments": [
        "(0x0058863bB78B4325caB9d50Ab75ca43601a9eF6b, 0x5abeC0563014C1C02Eb7a4f6924896e5F92579FC, 3000, 60, 0xa502683Ee305567D36a7Ce8d7ED5952CF816f880)"
      ],
      "transaction": {
        "from": "0x3e723f6b81431f325e3f08e75544f254c182afe2",
        "to": "0xa502683ee305567d36a7ce8d7ed5952cf816f880",
        "gas": "0x9c1b",
        "value": "0x0",
        "input": "0x7a2486b50000000000000000000000000058863bb78b4325cab9d50ab75ca43601a9ef6b0000000000000000000000005abec0563014c1c02eb7a4f6924896e5f92579fc0000000000000000000000000000000000000000000000000000000000000bb8000000000000000000000000000000000000000000000000000000000000003c000000000000000000000000a502683ee305567d36a7ce8d7ed5952cf816f880",
        "nonce": "0x5c8",
        "chainId": "0xaa36a7"
      },
      "additionalContracts": [],
      "isFixedGasLimit": false
    },
    {
      "hash": "0x0d8e460bacf1e5d715c5d338c7d92d6a0a519878394d2bd3e60b3c21e2fd3164",
      "transactionType": "CALL",
      "contractName": null,
      "contractAddress": "0xa502683ee305567d36a7ce8d7ed5952cf816f880",
      "function": "reactivatePool((address,address,uint24,int24,address))",
      "arguments": [
        "(0x0058863bB78B4325caB9d50Ab75ca43601a9eF6b, 0x5abeC0563014C1C02Eb7a4f6924896e5F92579FC, 3000, 60, 0xa502683Ee305567D36a7Ce8d7ED5952CF816f880)"
      ],
      "transaction": {
        "from": "0x3e723f6b81431f325e3f08e75544f254c182afe2",
        "to": "0xa502683ee305567d36a7ce8d7ed5952cf816f880",
        "gas": "0x11641",
        "value": "0x0",
        "input": "0x54ee1e530000000000000000000000000058863bb78b4325cab9d50ab75ca43601a9ef6b0000000000000000000000005abec0563014c1c02eb7a4f6924896e5f92579fc0000000000000000000000000000000000000000000000000000000000000bb8000000000000000000000000000000000000000000000000000000000000003c000000000000000000000000a502683ee305567d36a7ce8d7ed5952cf816f880",
        "nonce": "0x5c9",
        "chainId": "0xaa36a7"
      },
      "additionalContracts": [],
      "isFixedGasLimit": false
    },
    {
      "hash": "0x9009ef7607e605078ba8b38c114f1a6054d3f24bd624d79b18c123fb5ed64f66",
      "transactionType": "CALL",
      "contractName": null,
      "contractAddress": "0xe03a1074c86cfedd5c142c4f04f1a1536e203543",
      "function": "initialize((address,address,uint24,int24,address),uint160)",
      "arguments": [
        "(0x0058863bB78B4325caB9d50Ab75ca43601a9eF6b, 0x5abeC0563014C1C02Eb7a4f6924896e5F92579FC, 3000, 60, 0xa502683Ee305567D36a7Ce8d7ED5952CF816f880)",
        "79228162514264337593543950336"
      ],
      "transaction": {
        "from": "0x3e723f6b81431f325e3f08e75544f254c182afe2",
        "to": "0xe03a1074c86cfedd5c142c4f04f1a1536e203543",
        "gas": "0x64a17",
        "value": "0x0",
        "input": "0x6276cbbe0000000000000000000000000058863bb78b4325cab9d50ab75ca43601a9ef6b0000000000000000000000005abec0563014c1c02eb7a4f6924896e5f92579fc0000000000000000000000000000000000000000000000000000000000000bb8000000000000000000000000000000000000000000000000000000000000003c000000000000000000000000a502683ee305567d36a7ce8d7ed5952cf816f8800000000000000000000000000000000000000001000000000000000000000000",
        "nonce": "0x5ca",
        "chainId": "0xaa36a7"
      },
      "additionalContracts": [],
      "isFixedGasLimit": false
    },
    {
      "hash": "0xa26bf98e4f5aa98edee8c7a6ed36a89f68d5dfce9ba9e12272a4b4593d58c953",
      "transactionType": "CALL",
      "contractName": null,
      "contractAddress": "0x5abec0563014c1c02eb7a4f6924896e5f92579fc",
      "function": "approve(address,uint256)",
      "arguments": [
        "0x429ba70129df741B2Ca2a85BC3A2a3328e5c09b4",
        "115792089237316195423570985008687907853269984665640564039457584007913129639935"
      ],
      "transaction": {
        "from": "0x3e723f6b81431f325e3f08e75544f254c182afe2",
        "to": "0x5abec0563014c1c02eb7a4f6924896e5f92579fc",
        "gas": "0x96a4",
        "value": "0x0",
        "input": "0x095ea7b3000000000000000000000000429ba70129df741b2ca2a85bc3a2a3328e5c09b4ffffffffffffffffffffffffffffffffffffffffffffffffffffffffffffffff",
        "nonce": "0x5cb",
        "chainId": "0xaa36a7"
      },
      "additionalContracts": [],
      "isFixedGasLimit": false
    },
    {
      "hash": "0x43230b5172a262d94175cb5ead7dfdce149c1c6f5cc5037257a09b9d9b383009",
      "transactionType": "CALL",
      "contractName": null,
      "contractAddress": "0x0058863bb78b4325cab9d50ab75ca43601a9ef6b",
      "function": "approve(address,uint256)",
      "arguments": [
        "0x429ba70129df741B2Ca2a85BC3A2a3328e5c09b4",
        "115792089237316195423570985008687907853269984665640564039457584007913129639935"
      ],
      "transaction": {
        "from": "0x3e723f6b81431f325e3f08e75544f254c182afe2",
        "to": "0x0058863bb78b4325cab9d50ab75ca43601a9ef6b",
        "gas": "0x96a4",
        "value": "0x0",
        "input": "0x095ea7b3000000000000000000000000429ba70129df741b2ca2a85bc3a2a3328e5c09b4ffffffffffffffffffffffffffffffffffffffffffffffffffffffffffffffff",
        "nonce": "0x5cc",
        "chainId": "0xaa36a7"
      },
      "additionalContracts": [],
      "isFixedGasLimit": false
    },
    {
      "hash": "0x1219a1a410d7011467b88f95b72b7f787d8e3b7731dab04440935b352507878a",
      "transactionType": "CALL",
      "contractName": null,
      "contractAddress": "0x5abec0563014c1c02eb7a4f6924896e5f92579fc",
      "function": "approve(address,uint256)",
      "arguments": [
        "0x000000000022D473030F116dDEE9F6B43aC78BA3",
        "115792089237316195423570985008687907853269984665640564039457584007913129639935"
      ],
      "transaction": {
        "from": "0x3e723f6b81431f325e3f08e75544f254c182afe2",
        "to": "0x5abec0563014c1c02eb7a4f6924896e5f92579fc",
        "gas": "0x8df2",
        "value": "0x0",
        "input": "0x095ea7b3000000000000000000000000000000000022d473030f116ddee9f6b43ac78ba3ffffffffffffffffffffffffffffffffffffffffffffffffffffffffffffffff",
        "nonce": "0x5cd",
        "chainId": "0xaa36a7"
      },
      "additionalContracts": [],
      "isFixedGasLimit": false
    },
    {
      "hash": "0x2ff9feb87bd325238ebda820f969fc33c3fc8e5d989350db6244bee06a4c6440",
      "transactionType": "CALL",
      "contractName": null,
      "contractAddress": "0x000000000022d473030f116ddee9f6b43ac78ba3",
      "function": "approve(address,address,uint160,uint48)",
      "arguments": [
        "0x5abeC0563014C1C02Eb7a4f6924896e5F92579FC",
        "0x429ba70129df741B2Ca2a85BC3A2a3328e5c09b4",
        "1461501637330902918203684832716283019655932542975",
        "281474976710655"
      ],
      "transaction": {
        "from": "0x3e723f6b81431f325e3f08e75544f254c182afe2",
        "to": "0x000000000022d473030f116ddee9f6b43ac78ba3",
        "gas": "0x96a0",
        "value": "0x0",
        "input": "0x87517c450000000000000000000000005abec0563014c1c02eb7a4f6924896e5f92579fc000000000000000000000000429ba70129df741b2ca2a85bc3a2a3328e5c09b4000000000000000000000000ffffffffffffffffffffffffffffffffffffffff0000000000000000000000000000000000000000000000000000ffffffffffff",
        "nonce": "0x5ce",
        "chainId": "0xaa36a7"
      },
      "additionalContracts": [],
      "isFixedGasLimit": false
    },
    {
      "hash": "0x36ea4d9634229e82e79d97b6138b6757f440d02f85792a1458045db6ea3d848f",
      "transactionType": "CALL",
      "contractName": null,
      "contractAddress": "0x0058863bb78b4325cab9d50ab75ca43601a9ef6b",
      "function": "approve(address,uint256)",
      "arguments": [
        "0x000000000022D473030F116dDEE9F6B43aC78BA3",
        "115792089237316195423570985008687907853269984665640564039457584007913129639935"
      ],
      "transaction": {
        "from": "0x3e723f6b81431f325e3f08e75544f254c182afe2",
        "to": "0x0058863bb78b4325cab9d50ab75ca43601a9ef6b",
        "gas": "0x8df2",
        "value": "0x0",
        "input": "0x095ea7b3000000000000000000000000000000000022d473030f116ddee9f6b43ac78ba3ffffffffffffffffffffffffffffffffffffffffffffffffffffffffffffffff",
        "nonce": "0x5cf",
        "chainId": "0xaa36a7"
      },
      "additionalContracts": [],
      "isFixedGasLimit": false
    },
    {
      "hash": "0x01c482eabb1e51a9dbfbf5de568d114857793b7c2a6e64cf4f75858cde99bced",
      "transactionType": "CALL",
      "contractName": null,
      "contractAddress": "0x000000000022d473030f116ddee9f6b43ac78ba3",
      "function": "approve(address,address,uint160,uint48)",
      "arguments": [
        "0x0058863bB78B4325caB9d50Ab75ca43601a9eF6b",
        "0x429ba70129df741B2Ca2a85BC3A2a3328e5c09b4",
        "1461501637330902918203684832716283019655932542975",
        "281474976710655"
      ],
      "transaction": {
        "from": "0x3e723f6b81431f325e3f08e75544f254c182afe2",
        "to": "0x000000000022d473030f116ddee9f6b43ac78ba3",
        "gas": "0x9f6c",
        "value": "0x0",
        "input": "0x87517c450000000000000000000000000058863bb78b4325cab9d50ab75ca43601a9ef6b000000000000000000000000429ba70129df741b2ca2a85bc3a2a3328e5c09b4000000000000000000000000ffffffffffffffffffffffffffffffffffffffff0000000000000000000000000000000000000000000000000000ffffffffffff",
        "nonce": "0x5d0",
        "chainId": "0xaa36a7"
      },
      "additionalContracts": [],
      "isFixedGasLimit": false
    },
    {
      "hash": "0xad8b6b65e69b207cbfe6f5ce4e77bba1ea0fcb835105bd9994c7b26354068f91",
      "transactionType": "CALL",
      "contractName": null,
      "contractAddress": "0x429ba70129df741b2ca2a85bc3a2a3328e5c09b4",
      "function": "multicall(bytes[])",
      "arguments": [
        "[0xdd46508f00000000000000000000000000000000000000000000000000000000000000400000000000000000000000000000000000000000000000000000000068cb8df80000000000000000000000000000000000000000000000000000000000000400000000000000000000000000000000000000000000000000000000000000004000000000000000000000000000000000000000000000000000000000000000800000000000000000000000000000000000000000000000000000000000000004020d14140000000000000000000000000000000000000000000000000000000000000000000000000000000000000000000000000000000000000000000000040000000000000000000000000000000000000000000000000000000000000080000000000000000000000000000000000000000000000000000000000000024000000000000000000000000000000000000000000000000000000000000002a0000000000000000000000000000000000000000000000000000000000000030000000000000000000000000000000000000000000000000000000000000001a00000000000000000000000000058863bb78b4325cab9d50ab75ca43601a9ef6b0000000000000000000000005abec0563014c1c02eb7a4f6924896e5f92579fc0000000000000000000000000000000000000000000000000000000000000bb8000000000000000000000000000000000000000000000000000000000000003c000000000000000000000000a502683ee305567d36a7ce8d7ed5952cf816f880fffffffffffffffffffffffffffffffffffffffffffffffffffffffffffffed400000000000000000000000000000000000000000000000000000000000000f00000000000000000000000000000000000000000000000000000000028d8683900000000000000000000000000000000000000000000000000271471148780000000000000000000000000000000000000000000000000000000000000a7d8c00000000000000000000000003e723f6b81431f325e3f08e75544f254c182afe20000000000000000000000000000000000000000000000000000000000000180000000000000000000000000000000000000000000000000000000000000000000000000000000000000000000000000000000000000000000000000000000400000000000000000000000000058863bb78b4325cab9d50ab75ca43601a9ef6b0000000000000000000000005abec0563014c1c02eb7a4f6924896e5f92579fc00000000000000000000000000000000000000000000000000000000000000400000000000000000000000000058863bb78b4325cab9d50ab75ca43601a9ef6b0000000000000000000000003e723f6b81431f325e3f08e75544f254c182afe200000000000000000000000000000000000000000000000000000000000000400000000000000000000000005abec0563014c1c02eb7a4f6924896e5f92579fc0000000000000000000000003e723f6b81431f325e3f08e75544f254c182afe2]"
      ],
      "transaction": {
        "from": "0x3e723f6b81431f325e3f08e75544f254c182afe2",
        "to": "0x429ba70129df741b2ca2a85bc3a2a3328e5c09b4",
        "gas": "0xea802",
        "value": "0x0",
        "input": "0xac9650d80000000000000000000000000000000000000000000000000000000000000020000000000000000000000000000000000000000000000000000000000000000100000000000000000000000000000000000000000000000000000000000000200000000000000000000000000000000000000000000000000000000000000464dd46508f00000000000000000000000000000000000000000000000000000000000000400000000000000000000000000000000000000000000000000000000068cb8df80000000000000000000000000000000000000000000000000000000000000400000000000000000000000000000000000000000000000000000000000000004000000000000000000000000000000000000000000000000000000000000000800000000000000000000000000000000000000000000000000000000000000004020d14140000000000000000000000000000000000000000000000000000000000000000000000000000000000000000000000000000000000000000000000040000000000000000000000000000000000000000000000000000000000000080000000000000000000000000000000000000000000000000000000000000024000000000000000000000000000000000000000000000000000000000000002a0000000000000000000000000000000000000000000000000000000000000030000000000000000000000000000000000000000000000000000000000000001a00000000000000000000000000058863bb78b4325cab9d50ab75ca43601a9ef6b0000000000000000000000005abec0563014c1c02eb7a4f6924896e5f92579fc0000000000000000000000000000000000000000000000000000000000000bb8000000000000000000000000000000000000000000000000000000000000003c000000000000000000000000a502683ee305567d36a7ce8d7ed5952cf816f880fffffffffffffffffffffffffffffffffffffffffffffffffffffffffffffed400000000000000000000000000000000000000000000000000000000000000f00000000000000000000000000000000000000000000000000000000028d8683900000000000000000000000000000000000000000000000000271471148780000000000000000000000000000000000000000000000000000000000000a7d8c00000000000000000000000003e723f6b81431f325e3f08e75544f254c182afe20000000000000000000000000000000000000000000000000000000000000180000000000000000000000000000000000000000000000000000000000000000000000000000000000000000000000000000000000000000000000000000000400000000000000000000000000058863bb78b4325cab9d50ab75ca43601a9ef6b0000000000000000000000005abec0563014c1c02eb7a4f6924896e5f92579fc00000000000000000000000000000000000000000000000000000000000000400000000000000000000000000058863bb78b4325cab9d50ab75ca43601a9ef6b0000000000000000000000003e723f6b81431f325e3f08e75544f254c182afe200000000000000000000000000000000000000000000000000000000000000400000000000000000000000005abec0563014c1c02eb7a4f6924896e5f92579fc0000000000000000000000003e723f6b81431f325e3f08e75544f254c182afe200000000000000000000000000000000000000000000000000000000",
        "nonce": "0x5d1",
        "chainId": "0xaa36a7"
      },
      "additionalContracts": [],
      "isFixedGasLimit": false
    },
    {
      "hash": "0x2af908531f26e6bc41591762cf37c1f0d562c75706c4d2bac6da13bd65c375f5",
      "transactionType": "CALL",
      "contractName": null,
      "contractAddress": "0x5abec0563014c1c02eb7a4f6924896e5f92579fc",
      "function": "approve(address,uint256)",
      "arguments": [
        "0xf13D190e9117920c703d79B5F33732e10049b115",
        "115792089237316195423570985008687907853269984665640564039457584007913129639935"
      ],
      "transaction": {
        "from": "0x3e723f6b81431f325e3f08e75544f254c182afe2",
        "to": "0x5abec0563014c1c02eb7a4f6924896e5f92579fc",
        "gas": "0x8e35",
        "value": "0x0",
        "input": "0x095ea7b3000000000000000000000000f13d190e9117920c703d79b5f33732e10049b115ffffffffffffffffffffffffffffffffffffffffffffffffffffffffffffffff",
        "nonce": "0x5d2",
        "chainId": "0xaa36a7"
      },
      "additionalContracts": [],
      "isFixedGasLimit": false
    },
    {
      "hash": "0xe9b57e5a5d4ee816da6b92f0b73cb7fabdad56c6bcfb5e79e03d71137cb10b66",
      "transactionType": "CALL",
      "contractName": null,
      "contractAddress": "0x0058863bb78b4325cab9d50ab75ca43601a9ef6b",
      "function": "approve(address,uint256)",
      "arguments": [
        "0xf13D190e9117920c703d79B5F33732e10049b115",
        "115792089237316195423570985008687907853269984665640564039457584007913129639935"
      ],
      "transaction": {
        "from": "0x3e723f6b81431f325e3f08e75544f254c182afe2",
        "to": "0x0058863bb78b4325cab9d50ab75ca43601a9ef6b",
        "gas": "0x8e35",
        "value": "0x0",
        "input": "0x095ea7b3000000000000000000000000f13d190e9117920c703d79b5f33732e10049b115ffffffffffffffffffffffffffffffffffffffffffffffffffffffffffffffff",
        "nonce": "0x5d3",
        "chainId": "0xaa36a7"
      },
      "additionalContracts": [],
      "isFixedGasLimit": false
    },
    {
      "hash": "0xd9365eade3bf46fa6556c8d2946c8610691bff25541f5a962b48ecbf05fbd88c",
      "transactionType": "CALL",
      "contractName": null,
      "contractAddress": "0xf13d190e9117920c703d79b5f33732e10049b115",
      "function": "swapExactTokensForTokens(uint256,uint256,bool,(address,address,uint24,int24,address),bytes,address,uint256)",
      "arguments": [
        "1000",
        "0",
        "true",
        "(0x0058863bB78B4325caB9d50Ab75ca43601a9eF6b, 0x5abeC0563014C1C02Eb7a4f6924896e5F92579FC, 3000, 60, 0xa502683Ee305567D36a7Ce8d7ED5952CF816f880)",
        "0x",
        "0x3e723f6B81431f325E3F08e75544F254C182AFE2",
        "1758174156"
      ],
      "transaction": {
        "from": "0x3e723f6b81431f325e3f08e75544f254c182afe2",
        "to": "0xf13d190e9117920c703d79b5f33732e10049b115",
        "gas": "0x61016",
        "value": "0x0",
        "input": "0xb1a0d57100000000000000000000000000000000000000000000000000000000000003e8000000000000000000000000000000000000000000000000000000000000000000000000000000000000000000000000000000000000000000000000000000010000000000000000000000000058863bb78b4325cab9d50ab75ca43601a9ef6b0000000000000000000000005abec0563014c1c02eb7a4f6924896e5f92579fc0000000000000000000000000000000000000000000000000000000000000bb8000000000000000000000000000000000000000000000000000000000000003c000000000000000000000000a502683ee305567d36a7ce8d7ed5952cf816f88000000000000000000000000000000000000000000000000000000000000001600000000000000000000000003e723f6b81431f325e3f08e75544f254c182afe20000000000000000000000000000000000000000000000000000000068cb9bcc0000000000000000000000000000000000000000000000000000000000000000",
        "nonce": "0x5d4",
        "chainId": "0xaa36a7"
      },
      "additionalContracts": [],
      "isFixedGasLimit": false
    }
  ],
  "receipts": [
    {
      "status": "0x1",
      "cumulativeGasUsed": "0x298e318",
      "logs": [
        {
          "address": "0xea30c4b8b44078bbf8a6ef5b9f1ec1626c7848d9",
          "topics": [
            "0xe9de54a3e7ddf0c48cc6e1134185300d5a71acbf2d8c21fcdefa9d9dd9e20ac1"
          ],
          "data": "0xa086c907b116b1572126a2ccfaa5f6524f347f8a1d8378ce37b958e0cccc880000000000000000000000000000000000000000000000000000000000000000a000000000000000000000000000000000000000000000000000000000000001f400000000000000000000000000000000000000000000000000000000000000080000000000000000000000000000000000000000000000000000000000000000000000000000000000000000000000000000000000000000000000000000000e7472697669616c456e6372797074000000000000000000000000000000000000",
          "blockHash": "0x0b0af93c9704bcc34f4d858ee7c524c0d564060e4e5875d2448b6df02227cbae",
          "blockNumber": "0x8cc8e5",
          "transactionHash": "0x8399747bdf56c4e813b2e3ffcd170279fd743faf41558fd31f48d7bd292b430a",
          "transactionIndex": "0x83",
          "logIndex": "0xc3",
          "removed": false
        },
        {
          "address": "0xea30c4b8b44078bbf8a6ef5b9f1ec1626c7848d9",
          "topics": [
            "0xe9de54a3e7ddf0c48cc6e1134185300d5a71acbf2d8c21fcdefa9d9dd9e20ac1"
          ],
          "data": "0xcc63d19e9a0f97a43bc73dca1ee8b6f4b645d8919747695fa5d1d0da853a840000000000000000000000000000000000000000000000000000000000000000a00000000000000000000000000000000000000000000000000000000000000e1000000000000000000000000000000000000000000000000000000000000000040000000000000000000000000000000000000000000000000000000000000000000000000000000000000000000000000000000000000000000000000000000e7472697669616c456e6372797074000000000000000000000000000000000000",
          "blockHash": "0x0b0af93c9704bcc34f4d858ee7c524c0d564060e4e5875d2448b6df02227cbae",
          "blockNumber": "0x8cc8e5",
          "transactionHash": "0x8399747bdf56c4e813b2e3ffcd170279fd743faf41558fd31f48d7bd292b430a",
          "transactionIndex": "0x83",
          "logIndex": "0xc4",
          "removed": false
        },
        {
          "address": "0xea30c4b8b44078bbf8a6ef5b9f1ec1626c7848d9",
          "topics": [
            "0xe9de54a3e7ddf0c48cc6e1134185300d5a71acbf2d8c21fcdefa9d9dd9e20ac1"
          ],
          "data": "0xcdef58c863398f789d9953afd1326207812f448c90165e6886555071b2f4840000000000000000000000000000000000000000000000000000000000000000a000000000000000000000000000000000000000000000000000000000000000c800000000000000000000000000000000000000000000000000000000000000040000000000000000000000000000000000000000000000000000000000000000000000000000000000000000000000000000000000000000000000000000000e7472697669616c456e6372797074000000000000000000000000000000000000",
          "blockHash": "0x0b0af93c9704bcc34f4d858ee7c524c0d564060e4e5875d2448b6df02227cbae",
          "blockNumber": "0x8cc8e5",
          "transactionHash": "0x8399747bdf56c4e813b2e3ffcd170279fd743faf41558fd31f48d7bd292b430a",
          "transactionIndex": "0x83",
          "logIndex": "0xc5",
          "removed": false
        },
        {
          "address": "0xea30c4b8b44078bbf8a6ef5b9f1ec1626c7848d9",
          "topics": [
            "0xe9de54a3e7ddf0c48cc6e1134185300d5a71acbf2d8c21fcdefa9d9dd9e20ac1"
          ],
          "data": "0xb3e26d30bbd0fa3e41a1d86cb7844842fbb2638ed221cf36790bbd9c9f3e800000000000000000000000000000000000000000000000000000000000000000a0000000000000000000000000000000000000000000000000000000000000000100000000000000000000000000000000000000000000000000000000000000000000000000000000000000000000000000000000000000000000000000000000000000000000000000000000000000000000000000000000000000000000000e7472697669616c456e6372797074000000000000000000000000000000000000",
          "blockHash": "0x0b0af93c9704bcc34f4d858ee7c524c0d564060e4e5875d2448b6df02227cbae",
          "blockNumber": "0x8cc8e5",
          "transactionHash": "0x8399747bdf56c4e813b2e3ffcd170279fd743faf41558fd31f48d7bd292b430a",
          "transactionIndex": "0x83",
          "logIndex": "0xc6",
          "removed": false
        },
        {
          "address": "0xea30c4b8b44078bbf8a6ef5b9f1ec1626c7848d9",
          "topics": [
            "0xe9de54a3e7ddf0c48cc6e1134185300d5a71acbf2d8c21fcdefa9d9dd9e20ac1"
          ],
          "data": "0xbd85f53fc4f2243f9ffcb22983ba1d224d1e77fdca733b69f7215d316181840000000000000000000000000000000000000000000000000000000000000000a0000000000000000000000000000000000000000000000000000000000000009600000000000000000000000000000000000000000000000000000000000000040000000000000000000000000000000000000000000000000000000000000000000000000000000000000000000000000000000000000000000000000000000e7472697669616c456e6372797074000000000000000000000000000000000000",
          "blockHash": "0x0b0af93c9704bcc34f4d858ee7c524c0d564060e4e5875d2448b6df02227cbae",
          "blockNumber": "0x8cc8e5",
          "transactionHash": "0x8399747bdf56c4e813b2e3ffcd170279fd743faf41558fd31f48d7bd292b430a",
          "transactionIndex": "0x83",
          "logIndex": "0xc7",
          "removed": false
        },
        {
          "address": "0xa502683ee305567d36a7ce8d7ed5952cf816f880",
          "topics": [
            "0x18ff1c138c5686b85dc8b4338640ccef29de32ff4fec45a3f6f220bee9783e45",
            "0xd47c8f2b728c4b7a250e388d6c9371694e26ededa185062520abd55732a2935b"
          ],
          "data": "0x000000000000000000000000000000000000000000000000000000000000008000000000000000000000000000000000000000000000000000000000000000c0000000000000000000000000000000000000000000000000000000000000010000000000000000000000000000000000000000000000000000000000000001400000000000000000000000000000000000000000000000000000000000000020a086c907b116b1572126a2ccfaa5f6524f347f8a1d8378ce37b958e0cccc88000000000000000000000000000000000000000000000000000000000000000020cc63d19e9a0f97a43bc73dca1ee8b6f4b645d8919747695fa5d1d0da853a84000000000000000000000000000000000000000000000000000000000000000020cdef58c863398f789d9953afd1326207812f448c90165e6886555071b2f484000000000000000000000000000000000000000000000000000000000000000020b3e26d30bbd0fa3e41a1d86cb7844842fbb2638ed221cf36790bbd9c9f3e8000",
          "blockHash": "0x0b0af93c9704bcc34f4d858ee7c524c0d564060e4e5875d2448b6df02227cbae",
          "blockNumber": "0x8cc8e5",
          "transactionHash": "0x8399747bdf56c4e813b2e3ffcd170279fd743faf41558fd31f48d7bd292b430a",
          "transactionIndex": "0x83",
          "logIndex": "0xc8",
          "removed": false
        }
      ],
      "logsBloom": "0x00000000000000000000000000000000080000000000000000000000000000000000000000000000000000000000000000000000008180000000000000000000000000000000000000000000000000000000000008000000000000000000000000000000000000000000000000000000000000000000000000000000000000000000000000000000000001000900000001000000000000000000000000000000000000000000000000000000000000000000000000000000000000000080000000000000000000000000000000000000000000000000080000000000000000000000000000000000000200000000000000000000000000000000020200000010",
      "type": "0x2",
      "transactionHash": "0x8399747bdf56c4e813b2e3ffcd170279fd743faf41558fd31f48d7bd292b430a",
      "transactionIndex": "0x83",
      "blockHash": "0x0b0af93c9704bcc34f4d858ee7c524c0d564060e4e5875d2448b6df02227cbae",
      "blockNumber": "0x8cc8e5",
      "gasUsed": "0x45c50",
      "effectiveGasPrice": "0xf424f",
      "from": "0x3e723f6b81431f325e3f08e75544f254c182afe2",
      "to": "0xa502683ee305567d36a7ce8d7ed5952cf816f880",
      "contractAddress": null
    },
    {
      "status": "0x1",
      "cumulativeGasUsed": "0x29a3914",
      "logs": [
        {
          "address": "0xea30c4b8b44078bbf8a6ef5b9f1ec1626c7848d9",
          "topics": [
            "0xe9de54a3e7ddf0c48cc6e1134185300d5a71acbf2d8c21fcdefa9d9dd9e20ac1"
          ],
          "data": "0xc290f19dcf7bceb26e550f2bfc2767777b6b3a2e75644053281b2fc1dc88800000000000000000000000000000000000000000000000000000000000000000a0000000000000000000000000000000000000000000000000000000000000000000000000000000000000000000000000000000000000000000000000000000000000000000000000000000000000000000000000000000000000000000000000000000000000000000000000000000000000000000000000000000000000000e7472697669616c456e6372797074000000000000000000000000000000000000",
          "blockHash": "0x0b0af93c9704bcc34f4d858ee7c524c0d564060e4e5875d2448b6df02227cbae",
          "blockNumber": "0x8cc8e5",
          "blockTimestamp": "0x68cb8df8",
          "transactionHash": "0x4f3040e7380fae823efeb76caa49494dc3aaeb621e0383940851faf4e28f8d14",
          "transactionIndex": "0x84",
          "logIndex": "0xc9",
          "removed": false
        },
        {
          "address": "0xa502683ee305567d36a7ce8d7ed5952cf816f880",
          "topics": [
            "0x18ff1c138c5686b85dc8b4338640ccef29de32ff4fec45a3f6f220bee9783e45",
            "0xd47c8f2b728c4b7a250e388d6c9371694e26ededa185062520abd55732a2935b"
          ],
          "data": "0x000000000000000000000000000000000000000000000000000000000000008000000000000000000000000000000000000000000000000000000000000000c0000000000000000000000000000000000000000000000000000000000000010000000000000000000000000000000000000000000000000000000000000001400000000000000000000000000000000000000000000000000000000000000020a086c907b116b1572126a2ccfaa5f6524f347f8a1d8378ce37b958e0cccc88000000000000000000000000000000000000000000000000000000000000000020cc63d19e9a0f97a43bc73dca1ee8b6f4b645d8919747695fa5d1d0da853a84000000000000000000000000000000000000000000000000000000000000000020cdef58c863398f789d9953afd1326207812f448c90165e6886555071b2f484000000000000000000000000000000000000000000000000000000000000000020c290f19dcf7bceb26e550f2bfc2767777b6b3a2e75644053281b2fc1dc888000",
          "blockHash": "0x0b0af93c9704bcc34f4d858ee7c524c0d564060e4e5875d2448b6df02227cbae",
          "blockNumber": "0x8cc8e5",
          "blockTimestamp": "0x68cb8df8",
          "transactionHash": "0x4f3040e7380fae823efeb76caa49494dc3aaeb621e0383940851faf4e28f8d14",
          "transactionIndex": "0x84",
          "logIndex": "0xca",
          "removed": false
        }
      ],
      "logsBloom": "0x00000000000000000000000000000000080000000000000000000000000000000000000000000000000000000000000000000000008180000000000000000000000000000000000000000000000000000000000008000000000000000000000000000000000000000000000000000000000000000000000000000000000000000000000000000000000001000900000001000000000000000000000000000000000000000000000000000000000000000000000000000000000000000080000000000000000000000000000000000000000000000000080000000000000000000000000000000000000200000000000000000000000000000000020200000010",
      "type": "0x2",
      "transactionHash": "0x4f3040e7380fae823efeb76caa49494dc3aaeb621e0383940851faf4e28f8d14",
      "transactionIndex": "0x84",
      "blockHash": "0x0b0af93c9704bcc34f4d858ee7c524c0d564060e4e5875d2448b6df02227cbae",
      "blockNumber": "0x8cc8e5",
      "gasUsed": "0x155fc",
      "effectiveGasPrice": "0xf424f",
      "from": "0x3e723f6b81431f325e3f08e75544f254c182afe2",
      "to": "0xa502683ee305567d36a7ce8d7ed5952cf816f880",
      "contractAddress": null
    },
    {
      "status": "0x1",
      "cumulativeGasUsed": "0x29b8f21",
      "logs": [
        {
          "address": "0xea30c4b8b44078bbf8a6ef5b9f1ec1626c7848d9",
          "topics": [
            "0xe9de54a3e7ddf0c48cc6e1134185300d5a71acbf2d8c21fcdefa9d9dd9e20ac1"
          ],
          "data": "0xb3e26d30bbd0fa3e41a1d86cb7844842fbb2638ed221cf36790bbd9c9f3e800000000000000000000000000000000000000000000000000000000000000000a0000000000000000000000000000000000000000000000000000000000000000100000000000000000000000000000000000000000000000000000000000000000000000000000000000000000000000000000000000000000000000000000000000000000000000000000000000000000000000000000000000000000000000e7472697669616c456e6372797074000000000000000000000000000000000000",
          "blockHash": "0x0b0af93c9704bcc34f4d858ee7c524c0d564060e4e5875d2448b6df02227cbae",
          "blockNumber": "0x8cc8e5",
          "blockTimestamp": "0x68cb8df8",
          "transactionHash": "0xf744028a38165d5d212915a3c60551572b9aa94536064e1f2a4335ad41a7ab92",
          "transactionIndex": "0x85",
          "logIndex": "0xcb",
          "removed": false
        },
        {
          "address": "0xa502683ee305567d36a7ce8d7ed5952cf816f880",
          "topics": [
            "0x18ff1c138c5686b85dc8b4338640ccef29de32ff4fec45a3f6f220bee9783e45",
            "0xd47c8f2b728c4b7a250e388d6c9371694e26ededa185062520abd55732a2935b"
          ],
          "data": "0x000000000000000000000000000000000000000000000000000000000000008000000000000000000000000000000000000000000000000000000000000000c0000000000000000000000000000000000000000000000000000000000000010000000000000000000000000000000000000000000000000000000000000001400000000000000000000000000000000000000000000000000000000000000020a086c907b116b1572126a2ccfaa5f6524f347f8a1d8378ce37b958e0cccc88000000000000000000000000000000000000000000000000000000000000000020cc63d19e9a0f97a43bc73dca1ee8b6f4b645d8919747695fa5d1d0da853a84000000000000000000000000000000000000000000000000000000000000000020cdef58c863398f789d9953afd1326207812f448c90165e6886555071b2f484000000000000000000000000000000000000000000000000000000000000000020b3e26d30bbd0fa3e41a1d86cb7844842fbb2638ed221cf36790bbd9c9f3e8000",
          "blockHash": "0x0b0af93c9704bcc34f4d858ee7c524c0d564060e4e5875d2448b6df02227cbae",
          "blockNumber": "0x8cc8e5",
          "blockTimestamp": "0x68cb8df8",
          "transactionHash": "0xf744028a38165d5d212915a3c60551572b9aa94536064e1f2a4335ad41a7ab92",
          "transactionIndex": "0x85",
          "logIndex": "0xcc",
          "removed": false
        }
      ],
      "logsBloom": "0x00000000000000000000000000000000080000000000000000000000000000000000000000000000000000000000000000000000008180000000000000000000000000000000000000000000000000000000000008000000000000000000000000000000000000000000000000000000000000000000000000000000000000000000000000000000000001000900000001000000000000000000000000000000000000000000000000000000000000000000000000000000000000000080000000000000000000000000000000000000000000000000080000000000000000000000000000000000000200000000000000000000000000000000020200000010",
      "type": "0x2",
      "transactionHash": "0xf744028a38165d5d212915a3c60551572b9aa94536064e1f2a4335ad41a7ab92",
      "transactionIndex": "0x85",
      "blockHash": "0x0b0af93c9704bcc34f4d858ee7c524c0d564060e4e5875d2448b6df02227cbae",
      "blockNumber": "0x8cc8e5",
      "gasUsed": "0x1560d",
      "effectiveGasPrice": "0xf424f",
      "from": "0x3e723f6b81431f325e3f08e75544f254c182afe2",
      "to": "0xa502683ee305567d36a7ce8d7ed5952cf816f880",
      "contractAddress": null
    },
    {
      "status": "0x1",
      "cumulativeGasUsed": "0x29c0026",
      "logs": [
        {
          "address": "0xa502683ee305567d36a7ce8d7ed5952cf816f880",
          "topics": [
            "0xf354ce2d046227bb2a8db43674dab621b47724bc45cbc0b228a001245d53fd77",
            "0xd47c8f2b728c4b7a250e388d6c9371694e26ededa185062520abd55732a2935b"
          ],
          "data": "0x",
          "blockHash": "0x0b0af93c9704bcc34f4d858ee7c524c0d564060e4e5875d2448b6df02227cbae",
          "blockNumber": "0x8cc8e5",
          "blockTimestamp": "0x68cb8df8",
          "transactionHash": "0x72f0582805f134672c9aa88e47587fd1363e1568c2bdd78958a115a56c24e283",
          "transactionIndex": "0x86",
          "logIndex": "0xcd",
          "removed": false
        }
      ],
      "logsBloom": "0x00000800000000000000000000000000000000000000000000000000000000000000000000000000000000000000000000000000000180000000000000000000000000000000000000000000000000000080000000000000000000000000000000000000000000000000000000000000000000000000000000000000000000000000000000000000000001000100000000000000000000000000000000000000000000000000000000000000000000000000000000000000000000000080000000000000000000000000000000000200000000000000000000000000000000000000000000000000000000000000000000000000000000000000000000000010",
      "type": "0x2",
      "transactionHash": "0x72f0582805f134672c9aa88e47587fd1363e1568c2bdd78958a115a56c24e283",
      "transactionIndex": "0x86",
      "blockHash": "0x0b0af93c9704bcc34f4d858ee7c524c0d564060e4e5875d2448b6df02227cbae",
      "blockNumber": "0x8cc8e5",
      "gasUsed": "0x7105",
      "effectiveGasPrice": "0xf424f",
      "from": "0x3e723f6b81431f325e3f08e75544f254c182afe2",
      "to": "0xa502683ee305567d36a7ce8d7ed5952cf816f880",
      "contractAddress": null
    },
    {
      "status": "0x1",
      "cumulativeGasUsed": "0x29cbe69",
      "logs": [
        {
          "address": "0xa502683ee305567d36a7ce8d7ed5952cf816f880",
          "topics": [
            "0xc4be386fe9fd651a56e42b3b831dd4bf6afaa363eb2d21181fe7e23a8ff50279",
            "0xd47c8f2b728c4b7a250e388d6c9371694e26ededa185062520abd55732a2935b"
          ],
          "data": "0x",
          "blockHash": "0x0b0af93c9704bcc34f4d858ee7c524c0d564060e4e5875d2448b6df02227cbae",
          "blockNumber": "0x8cc8e5",
          "blockTimestamp": "0x68cb8df8",
          "transactionHash": "0x0d8e460bacf1e5d715c5d338c7d92d6a0a519878394d2bd3e60b3c21e2fd3164",
          "transactionIndex": "0x87",
          "logIndex": "0xce",
          "removed": false
        }
      ],
      "logsBloom": "0x00000000000000000000000000000000000000000000000000000000000000000000000000000000000000000000000000000000000180000000000000000000000000000000000000000000000000000000000000000000000000000000000000000000000000000000000000000000000000000000000000000000000000100000000000000000000001000100000004000000000000000000000000000000000000001000000000000000000000000000000000000000000000000080000000000000000000000000000000000000000000000000000000000000000000000000000000000000000000000000000000000000000000000000000000000010",
      "type": "0x2",
      "transactionHash": "0x0d8e460bacf1e5d715c5d338c7d92d6a0a519878394d2bd3e60b3c21e2fd3164",
      "transactionIndex": "0x87",
      "blockHash": "0x0b0af93c9704bcc34f4d858ee7c524c0d564060e4e5875d2448b6df02227cbae",
      "blockNumber": "0x8cc8e5",
      "gasUsed": "0xbe43",
      "effectiveGasPrice": "0xf424f",
      "from": "0x3e723f6b81431f325e3f08e75544f254c182afe2",
      "to": "0xa502683ee305567d36a7ce8d7ed5952cf816f880",
      "contractAddress": null
    },
    {
      "status": "0x1",
      "cumulativeGasUsed": "0x2a14c17",
      "logs": [
        {
          "address": "0xea30c4b8b44078bbf8a6ef5b9f1ec1626c7848d9",
          "topics": [
            "0xe9de54a3e7ddf0c48cc6e1134185300d5a71acbf2d8c21fcdefa9d9dd9e20ac1"
          ],
          "data": "0xbb39351b2bc70ad6be41519c393ba92b7146cf5c8fcae77c8a1f6982d55c880000000000000000000000000000000000000000000000000000000000000000a0000000000000000000000000000000000000000000000000000000000000012c00000000000000000000000000000000000000000000000000000000000000080000000000000000000000000000000000000000000000000000000000000000000000000000000000000000000000000000000000000000000000000000000e7472697669616c456e6372797074000000000000000000000000000000000000",
          "blockHash": "0x0b0af93c9704bcc34f4d858ee7c524c0d564060e4e5875d2448b6df02227cbae",
          "blockNumber": "0x8cc8e5",
          "blockTimestamp": "0x68cb8df8",
          "transactionHash": "0x9009ef7607e605078ba8b38c114f1a6054d3f24bd624d79b18c123fb5ed64f66",
          "transactionIndex": "0x88",
          "logIndex": "0xcf",
          "removed": false
        },
        {
          "address": "0xea30c4b8b44078bbf8a6ef5b9f1ec1626c7848d9",
          "topics": [
            "0xe9de54a3e7ddf0c48cc6e1134185300d5a71acbf2d8c21fcdefa9d9dd9e20ac1"
          ],
          "data": "0x1253f33bcc7d14ead4330255d5baaf2209a953415c511c19411382f6423f840000000000000000000000000000000000000000000000000000000000000000a000000000000000000000000000000000000000000000000000000000000000b400000000000000000000000000000000000000000000000000000000000000040000000000000000000000000000000000000000000000000000000000000000000000000000000000000000000000000000000000000000000000000000000e7472697669616c456e6372797074000000000000000000000000000000000000",
          "blockHash": "0x0b0af93c9704bcc34f4d858ee7c524c0d564060e4e5875d2448b6df02227cbae",
          "blockNumber": "0x8cc8e5",
          "blockTimestamp": "0x68cb8df8",
          "transactionHash": "0x9009ef7607e605078ba8b38c114f1a6054d3f24bd624d79b18c123fb5ed64f66",
          "transactionIndex": "0x88",
          "logIndex": "0xd0",
          "removed": false
        },
        {
          "address": "0xea30c4b8b44078bbf8a6ef5b9f1ec1626c7848d9",
          "topics": [
            "0xe9de54a3e7ddf0c48cc6e1134185300d5a71acbf2d8c21fcdefa9d9dd9e20ac1"
          ],
          "data": "0xe8c638c5370ad54fb6bc7fb3c67f13705c787cf30645cd1b92d5f61704b5840000000000000000000000000000000000000000000000000000000000000000a0000000000000000000000000000000000000000000000000000000000000006400000000000000000000000000000000000000000000000000000000000000040000000000000000000000000000000000000000000000000000000000000000000000000000000000000000000000000000000000000000000000000000000e7472697669616c456e6372797074000000000000000000000000000000000000",
          "blockHash": "0x0b0af93c9704bcc34f4d858ee7c524c0d564060e4e5875d2448b6df02227cbae",
          "blockNumber": "0x8cc8e5",
          "blockTimestamp": "0x68cb8df8",
          "transactionHash": "0x9009ef7607e605078ba8b38c114f1a6054d3f24bd624d79b18c123fb5ed64f66",
          "transactionIndex": "0x88",
          "logIndex": "0xd1",
          "removed": false
        },
        {
          "address": "0xea30c4b8b44078bbf8a6ef5b9f1ec1626c7848d9",
          "topics": [
            "0xe9de54a3e7ddf0c48cc6e1134185300d5a71acbf2d8c21fcdefa9d9dd9e20ac1"
          ],
          "data": "0xb3e26d30bbd0fa3e41a1d86cb7844842fbb2638ed221cf36790bbd9c9f3e800000000000000000000000000000000000000000000000000000000000000000a0000000000000000000000000000000000000000000000000000000000000000100000000000000000000000000000000000000000000000000000000000000000000000000000000000000000000000000000000000000000000000000000000000000000000000000000000000000000000000000000000000000000000000e7472697669616c456e6372797074000000000000000000000000000000000000",
          "blockHash": "0x0b0af93c9704bcc34f4d858ee7c524c0d564060e4e5875d2448b6df02227cbae",
          "blockNumber": "0x8cc8e5",
          "blockTimestamp": "0x68cb8df8",
          "transactionHash": "0x9009ef7607e605078ba8b38c114f1a6054d3f24bd624d79b18c123fb5ed64f66",
          "transactionIndex": "0x88",
          "logIndex": "0xd2",
          "removed": false
        },
        {
          "address": "0xea30c4b8b44078bbf8a6ef5b9f1ec1626c7848d9",
          "topics": [
            "0xe9de54a3e7ddf0c48cc6e1134185300d5a71acbf2d8c21fcdefa9d9dd9e20ac1"
          ],
          "data": "0xe8c638c5370ad54fb6bc7fb3c67f13705c787cf30645cd1b92d5f61704b5840000000000000000000000000000000000000000000000000000000000000000a0000000000000000000000000000000000000000000000000000000000000006400000000000000000000000000000000000000000000000000000000000000040000000000000000000000000000000000000000000000000000000000000000000000000000000000000000000000000000000000000000000000000000000e7472697669616c456e6372797074000000000000000000000000000000000000",
          "blockHash": "0x0b0af93c9704bcc34f4d858ee7c524c0d564060e4e5875d2448b6df02227cbae",
          "blockNumber": "0x8cc8e5",
          "blockTimestamp": "0x68cb8df8",
          "transactionHash": "0x9009ef7607e605078ba8b38c114f1a6054d3f24bd624d79b18c123fb5ed64f66",
          "transactionIndex": "0x88",
          "logIndex": "0xd3",
          "removed": false
        },
        {
          "address": "0xea30c4b8b44078bbf8a6ef5b9f1ec1626c7848d9",
          "topics": [
            "0xe9de54a3e7ddf0c48cc6e1134185300d5a71acbf2d8c21fcdefa9d9dd9e20ac1"
          ],
          "data": "0xd8d542465d641073d3a041fe1808c3ef4b840d59b78f9a8d96485189b1f2880000000000000000000000000000000000000000000000000000000000000000a0000000000000000000000000000000000000000000000000000000000000000000000000000000000000000000000000000000000000000000000000000000080000000000000000000000000000000000000000000000000000000000000000000000000000000000000000000000000000000000000000000000000000000e7472697669616c456e6372797074000000000000000000000000000000000000",
          "blockHash": "0x0b0af93c9704bcc34f4d858ee7c524c0d564060e4e5875d2448b6df02227cbae",
          "blockNumber": "0x8cc8e5",
          "blockTimestamp": "0x68cb8df8",
          "transactionHash": "0x9009ef7607e605078ba8b38c114f1a6054d3f24bd624d79b18c123fb5ed64f66",
          "transactionIndex": "0x88",
          "logIndex": "0xd4",
          "removed": false
        },
        {
          "address": "0xe03a1074c86cfedd5c142c4f04f1a1536e203543",
          "topics": [
            "0xdd466e674ea557f56295e2d0218a125ea4b4f0f6f3307b95f85e6110838d6438",
            "0xd47c8f2b728c4b7a250e388d6c9371694e26ededa185062520abd55732a2935b",
            "0x0000000000000000000000000058863bb78b4325cab9d50ab75ca43601a9ef6b",
            "0x0000000000000000000000005abec0563014c1c02eb7a4f6924896e5f92579fc"
          ],
          "data": "0x0000000000000000000000000000000000000000000000000000000000000bb8000000000000000000000000000000000000000000000000000000000000003c000000000000000000000000a502683ee305567d36a7ce8d7ed5952cf816f88000000000000000000000000000000000000000010000000000000000000000000000000000000000000000000000000000000000000000000000000000000000",
          "blockHash": "0x0b0af93c9704bcc34f4d858ee7c524c0d564060e4e5875d2448b6df02227cbae",
          "blockNumber": "0x8cc8e5",
          "blockTimestamp": "0x68cb8df8",
          "transactionHash": "0x9009ef7607e605078ba8b38c114f1a6054d3f24bd624d79b18c123fb5ed64f66",
          "transactionIndex": "0x88",
          "logIndex": "0xd5",
          "removed": false
        }
      ],
      "logsBloom": "0x00000000000000000000000000000000080000000000000000000000000000000000080000000000000000000000000000000100008180000000000000000000000000000000000000000000000000000000000000004000000000000000000000000000000080000000000000000000000000000000180000000000000000000000000000000008000000000000000001000001000000000000000000200000000000000000000000000000000000000000000000000000000000000080000000000000000000000000000000000000000000000000000000000000000000001000000000080000000200000000000000000000000000000800020200000000",
      "type": "0x2",
      "transactionHash": "0x9009ef7607e605078ba8b38c114f1a6054d3f24bd624d79b18c123fb5ed64f66",
      "transactionIndex": "0x88",
      "blockHash": "0x0b0af93c9704bcc34f4d858ee7c524c0d564060e4e5875d2448b6df02227cbae",
      "blockNumber": "0x8cc8e5",
      "gasUsed": "0x48dae",
      "effectiveGasPrice": "0xf424f",
      "from": "0x3e723f6b81431f325e3f08e75544f254c182afe2",
      "to": "0xe03a1074c86cfedd5c142c4f04f1a1536e203543",
      "contractAddress": null
    },
    {
      "status": "0x1",
      "cumulativeGasUsed": "0x2a1b318",
      "logs": [
        {
          "address": "0x5abec0563014c1c02eb7a4f6924896e5f92579fc",
          "topics": [
            "0x8c5be1e5ebec7d5bd14f71427d1e84f3dd0314c0f7b2291e5b200ac8c7c3b925",
            "0x0000000000000000000000003e723f6b81431f325e3f08e75544f254c182afe2",
            "0x000000000000000000000000429ba70129df741b2ca2a85bc3a2a3328e5c09b4"
          ],
          "data": "0xffffffffffffffffffffffffffffffffffffffffffffffffffffffffffffffff",
          "blockHash": "0x0b0af93c9704bcc34f4d858ee7c524c0d564060e4e5875d2448b6df02227cbae",
          "blockNumber": "0x8cc8e5",
          "blockTimestamp": "0x68cb8df8",
          "transactionHash": "0xa26bf98e4f5aa98edee8c7a6ed36a89f68d5dfce9ba9e12272a4b4593d58c953",
          "transactionIndex": "0x89",
          "logIndex": "0xd6",
          "removed": false
        }
      ],
      "logsBloom": "0x00000000000000000000000000000000000000000000000000000000000000000000000000000040080000000000000000000000080000000000000000200000000000000000000000000000000000000000000000000000000000000000000000000000000000000000000000000000000000000000000000000800000004000000000000000000000000000000000000000000000000000000000000000000020000000000000080000000000000000000000000000000000030000000000000000000000000000000000000000000000000000000000000000000000000000010000000000004000000000000000000000000000000000000000000000000",
      "type": "0x2",
      "transactionHash": "0xa26bf98e4f5aa98edee8c7a6ed36a89f68d5dfce9ba9e12272a4b4593d58c953",
      "transactionIndex": "0x89",
      "blockHash": "0x0b0af93c9704bcc34f4d858ee7c524c0d564060e4e5875d2448b6df02227cbae",
      "blockNumber": "0x8cc8e5",
      "gasUsed": "0x6701",
      "effectiveGasPrice": "0xf424f",
      "from": "0x3e723f6b81431f325e3f08e75544f254c182afe2",
      "to": "0x5abec0563014c1c02eb7a4f6924896e5f92579fc",
      "contractAddress": null
    },
    {
      "status": "0x1",
      "cumulativeGasUsed": "0x2a21a19",
      "logs": [
        {
          "address": "0x0058863bb78b4325cab9d50ab75ca43601a9ef6b",
          "topics": [
            "0x8c5be1e5ebec7d5bd14f71427d1e84f3dd0314c0f7b2291e5b200ac8c7c3b925",
            "0x0000000000000000000000003e723f6b81431f325e3f08e75544f254c182afe2",
            "0x000000000000000000000000429ba70129df741b2ca2a85bc3a2a3328e5c09b4"
          ],
          "data": "0xffffffffffffffffffffffffffffffffffffffffffffffffffffffffffffffff",
          "blockHash": "0x0b0af93c9704bcc34f4d858ee7c524c0d564060e4e5875d2448b6df02227cbae",
          "blockNumber": "0x8cc8e5",
          "transactionHash": "0x43230b5172a262d94175cb5ead7dfdce149c1c6f5cc5037257a09b9d9b383009",
          "transactionIndex": "0x8a",
          "logIndex": "0xd7",
          "removed": false
        }
      ],
      "logsBloom": "0x00000000000000000000000000000000000000000000000080000000000000000000000000000040080000000000000000000000080000000000000000200000000000000000000000000000000000000000000000000000000000000000000000000000000000000000000000000000000000000000000000000800000000000000000000000000000000000000000000000000000000000000000000000000020000000000000080810000000000000000000000000000000010000000000000000000000000000000000000000000000000000000000000000000000000000010000000000000000000000000000000000000000000000000000000000000",
      "type": "0x2",
      "transactionHash": "0x43230b5172a262d94175cb5ead7dfdce149c1c6f5cc5037257a09b9d9b383009",
      "transactionIndex": "0x8a",
      "blockHash": "0x0b0af93c9704bcc34f4d858ee7c524c0d564060e4e5875d2448b6df02227cbae",
      "blockNumber": "0x8cc8e5",
      "gasUsed": "0x6701",
      "effectiveGasPrice": "0xf424f",
      "from": "0x3e723f6b81431f325e3f08e75544f254c182afe2",
      "to": "0x0058863bb78b4325cab9d50ab75ca43601a9ef6b",
      "contractAddress": null
    },
    {
      "status": "0x1",
      "cumulativeGasUsed": "0x2a280de",
      "logs": [
        {
          "address": "0x5abec0563014c1c02eb7a4f6924896e5f92579fc",
          "topics": [
            "0x8c5be1e5ebec7d5bd14f71427d1e84f3dd0314c0f7b2291e5b200ac8c7c3b925",
            "0x0000000000000000000000003e723f6b81431f325e3f08e75544f254c182afe2",
            "0x000000000000000000000000000000000022d473030f116ddee9f6b43ac78ba3"
          ],
          "data": "0xffffffffffffffffffffffffffffffffffffffffffffffffffffffffffffffff",
          "blockHash": "0x0b0af93c9704bcc34f4d858ee7c524c0d564060e4e5875d2448b6df02227cbae",
          "blockNumber": "0x8cc8e5",
          "transactionHash": "0x1219a1a410d7011467b88f95b72b7f787d8e3b7731dab04440935b352507878a",
          "transactionIndex": "0x8b",
          "logIndex": "0xd8",
          "removed": false
        }
      ],
      "logsBloom": "0x00000000000000000000000000000000000000000000000000000000000000000000000000000000000000000000000000000000880000000000000000200000000000000000000000004000000000000000000000000800000000000000000000000000000000000000000000000000000000000000000000000000000004000000000000000000000000000000000000000000000000000000000000000000020000000000000080000000000000000000000000000000000030000000000000000000000000000000000000000000000000000000000000000000000000000010000000000004000000000000000000000000000000000000000000000000",
      "type": "0x2",
      "transactionHash": "0x1219a1a410d7011467b88f95b72b7f787d8e3b7731dab04440935b352507878a",
      "transactionIndex": "0x8b",
      "blockHash": "0x0b0af93c9704bcc34f4d858ee7c524c0d564060e4e5875d2448b6df02227cbae",
      "blockNumber": "0x8cc8e5",
      "gasUsed": "0x66c5",
      "effectiveGasPrice": "0xf424f",
      "from": "0x3e723f6b81431f325e3f08e75544f254c182afe2",
      "to": "0x5abec0563014c1c02eb7a4f6924896e5f92579fc",
      "contractAddress": null
    },
    {
      "status": "0x1",
      "cumulativeGasUsed": "0x2a2edec",
      "logs": [
        {
          "address": "0x000000000022d473030f116ddee9f6b43ac78ba3",
          "topics": [
            "0xda9fa7c1b00402c17d0161b249b1ab8bbec047c5a52207b9c112deffd817036b",
            "0x0000000000000000000000003e723f6b81431f325e3f08e75544f254c182afe2",
            "0x0000000000000000000000005abec0563014c1c02eb7a4f6924896e5f92579fc",
            "0x000000000000000000000000429ba70129df741b2ca2a85bc3a2a3328e5c09b4"
          ],
          "data": "0x000000000000000000000000ffffffffffffffffffffffffffffffffffffffff0000000000000000000000000000000000000000000000000000ffffffffffff",
          "blockHash": "0x0b0af93c9704bcc34f4d858ee7c524c0d564060e4e5875d2448b6df02227cbae",
          "blockNumber": "0x8cc8e5",
          "transactionHash": "0x2ff9feb87bd325238ebda820f969fc33c3fc8e5d989350db6244bee06a4c6440",
          "transactionIndex": "0x8c",
          "logIndex": "0xd9",
          "removed": false
        }
      ],
      "logsBloom": "0x00010000000000000000000000000000000000000000000000000000000000000000080000000040080000000000000000000000080000000000000000080000000000000000000000000000000000000000000000000000000000000000000000000000000080000000000000000000000000000000000000000800000000000020000000000000000000000000000000000000000000000000000000000000000000000000000080000000000000000000000000000000000010080000000000000000000000000000000000000000000000000000000040000000000000000000000000000000000000000000000000000000000000000800000000000400",
      "type": "0x2",
      "transactionHash": "0x2ff9feb87bd325238ebda820f969fc33c3fc8e5d989350db6244bee06a4c6440",
      "transactionIndex": "0x8c",
      "blockHash": "0x0b0af93c9704bcc34f4d858ee7c524c0d564060e4e5875d2448b6df02227cbae",
      "blockNumber": "0x8cc8e5",
      "gasUsed": "0x6d0e",
      "effectiveGasPrice": "0xf424f",
      "from": "0x3e723f6b81431f325e3f08e75544f254c182afe2",
      "to": "0x000000000022d473030f116ddee9f6b43ac78ba3",
      "contractAddress": null
    },
    {
      "status": "0x1",
      "cumulativeGasUsed": "0x2a354b1",
      "logs": [
        {
          "address": "0x0058863bb78b4325cab9d50ab75ca43601a9ef6b",
          "topics": [
            "0x8c5be1e5ebec7d5bd14f71427d1e84f3dd0314c0f7b2291e5b200ac8c7c3b925",
            "0x0000000000000000000000003e723f6b81431f325e3f08e75544f254c182afe2",
            "0x000000000000000000000000000000000022d473030f116ddee9f6b43ac78ba3"
          ],
          "data": "0xffffffffffffffffffffffffffffffffffffffffffffffffffffffffffffffff",
          "blockHash": "0x0b0af93c9704bcc34f4d858ee7c524c0d564060e4e5875d2448b6df02227cbae",
          "blockNumber": "0x8cc8e5",
          "blockTimestamp": "0x68cb8df8",
          "transactionHash": "0x36ea4d9634229e82e79d97b6138b6757f440d02f85792a1458045db6ea3d848f",
          "transactionIndex": "0x8d",
          "logIndex": "0xda",
          "removed": false
        }
      ],
      "logsBloom": "0x00000000000000000000000000000000000000000000000080000000000000000000000000000000000000000000000000000000880000000000000000200000000000000000000000004000000000000000000000000800000000000000000000000000000000000000000000000000000000000000000000000000000000000000000000000000000000000000000000000000000000000000000000000000020000000000000080810000000000000000000000000000000010000000000000000000000000000000000000000000000000000000000000000000000000000010000000000000000000000000000000000000000000000000000000000000",
      "type": "0x2",
      "transactionHash": "0x36ea4d9634229e82e79d97b6138b6757f440d02f85792a1458045db6ea3d848f",
      "transactionIndex": "0x8d",
      "blockHash": "0x0b0af93c9704bcc34f4d858ee7c524c0d564060e4e5875d2448b6df02227cbae",
      "blockNumber": "0x8cc8e5",
      "gasUsed": "0x66c5",
      "effectiveGasPrice": "0xf424f",
      "from": "0x3e723f6b81431f325e3f08e75544f254c182afe2",
      "to": "0x0058863bb78b4325cab9d50ab75ca43601a9ef6b",
      "contractAddress": null
    },
    {
      "status": "0x1",
      "cumulativeGasUsed": "0x2a3c1b3",
      "logs": [
        {
          "address": "0x000000000022d473030f116ddee9f6b43ac78ba3",
          "topics": [
            "0xda9fa7c1b00402c17d0161b249b1ab8bbec047c5a52207b9c112deffd817036b",
            "0x0000000000000000000000003e723f6b81431f325e3f08e75544f254c182afe2",
            "0x0000000000000000000000000058863bb78b4325cab9d50ab75ca43601a9ef6b",
            "0x000000000000000000000000429ba70129df741b2ca2a85bc3a2a3328e5c09b4"
          ],
          "data": "0x000000000000000000000000ffffffffffffffffffffffffffffffffffffffff0000000000000000000000000000000000000000000000000000ffffffffffff",
          "blockHash": "0x0b0af93c9704bcc34f4d858ee7c524c0d564060e4e5875d2448b6df02227cbae",
          "blockNumber": "0x8cc8e5",
          "blockTimestamp": "0x68cb8df8",
          "transactionHash": "0x01c482eabb1e51a9dbfbf5de568d114857793b7c2a6e64cf4f75858cde99bced",
          "transactionIndex": "0x8e",
          "logIndex": "0xdb",
          "removed": false
        }
      ],
      "logsBloom": "0x00010000000000000000000000000000000000000000000000000000000000000000000000000040080000000000000000000000080000000000000000080000000000000000000000000000000000000000000000004000000000000000000000000000000000000000000000000000000000000000080000000800000000000020000000000000000000000000000000000000000000000000000000000000000000000000000080000000000000000000000000000000000010080000000000000000000000000000000000000000000000000000000040000000000000000000000000080000000000000000000000000000000000000000000000000400",
      "type": "0x2",
      "transactionHash": "0x01c482eabb1e51a9dbfbf5de568d114857793b7c2a6e64cf4f75858cde99bced",
      "transactionIndex": "0x8e",
      "blockHash": "0x0b0af93c9704bcc34f4d858ee7c524c0d564060e4e5875d2448b6df02227cbae",
      "blockNumber": "0x8cc8e5",
      "gasUsed": "0x6d02",
      "effectiveGasPrice": "0xf424f",
      "from": "0x3e723f6b81431f325e3f08e75544f254c182afe2",
      "to": "0x000000000022d473030f116ddee9f6b43ac78ba3",
      "contractAddress": null
    },
    {
      "status": "0x1",
      "cumulativeGasUsed": "0x2adc72d",
      "logs": [
        {
          "address": "0x429ba70129df741b2ca2a85bc3a2a3328e5c09b4",
          "topics": [
            "0xddf252ad1be2c89b69c2b068fc378daa952ba7f163c4a11628f55a4df523b3ef",
            "0x0000000000000000000000000000000000000000000000000000000000000000",
            "0x0000000000000000000000003e723f6b81431f325e3f08e75544f254c182afe2",
            "0x0000000000000000000000000000000000000000000000000000000000004328"
          ],
          "data": "0x",
          "blockHash": "0x0b0af93c9704bcc34f4d858ee7c524c0d564060e4e5875d2448b6df02227cbae",
          "blockNumber": "0x8cc8e5",
          "blockTimestamp": "0x68cb8df8",
          "transactionHash": "0xad8b6b65e69b207cbfe6f5ce4e77bba1ea0fcb835105bd9994c7b26354068f91",
          "transactionIndex": "0x8f",
          "logIndex": "0xdc",
          "removed": false
        },
        {
          "address": "0xea30c4b8b44078bbf8a6ef5b9f1ec1626c7848d9",
          "topics": [
            "0xe9de54a3e7ddf0c48cc6e1134185300d5a71acbf2d8c21fcdefa9d9dd9e20ac1"
          ],
          "data": "0xdf97e33621f3d132259f4f9ab930b8dcde53a54fcc12b1f00f2f7d315711880000000000000000000000000000000000000000000000000000000000000000a00000000000000000000000000000000000000000000000000000000028d8683900000000000000000000000000000000000000000000000000000000000000080000000000000000000000000000000000000000000000000000000000000000000000000000000000000000000000000000000000000000000000000000000e7472697669616c456e6372797074000000000000000000000000000000000000",
          "blockHash": "0x0b0af93c9704bcc34f4d858ee7c524c0d564060e4e5875d2448b6df02227cbae",
          "blockNumber": "0x8cc8e5",
          "blockTimestamp": "0x68cb8df8",
          "transactionHash": "0xad8b6b65e69b207cbfe6f5ce4e77bba1ea0fcb835105bd9994c7b26354068f91",
          "transactionIndex": "0x8f",
          "logIndex": "0xdd",
          "removed": false
        },
        {
          "address": "0xea30c4b8b44078bbf8a6ef5b9f1ec1626c7848d9",
          "topics": [
            "0xe9de54a3e7ddf0c48cc6e1134185300d5a71acbf2d8c21fcdefa9d9dd9e20ac1"
          ],
          "data": "0xd8d542465d641073d3a041fe1808c3ef4b840d59b78f9a8d96485189b1f2880000000000000000000000000000000000000000000000000000000000000000a0000000000000000000000000000000000000000000000000000000000000000000000000000000000000000000000000000000000000000000000000000000080000000000000000000000000000000000000000000000000000000000000000000000000000000000000000000000000000000000000000000000000000000e7472697669616c456e6372797074000000000000000000000000000000000000",
          "blockHash": "0x0b0af93c9704bcc34f4d858ee7c524c0d564060e4e5875d2448b6df02227cbae",
          "blockNumber": "0x8cc8e5",
          "blockTimestamp": "0x68cb8df8",
          "transactionHash": "0xad8b6b65e69b207cbfe6f5ce4e77bba1ea0fcb835105bd9994c7b26354068f91",
          "transactionIndex": "0x8f",
          "logIndex": "0xde",
          "removed": false
        },
        {
          "address": "0xea30c4b8b44078bbf8a6ef5b9f1ec1626c7848d9",
          "topics": [
            "0xe9de54a3e7ddf0c48cc6e1134185300d5a71acbf2d8c21fcdefa9d9dd9e20ac1"
          ],
          "data": "0xfe92b1a51a7b67d8bfb194f8e08d26ff4477099ca360baf09ea1bb9aa4a5080000000000000000000000000000000000000000000000000000000000000000a0d8d542465d641073d3a041fe1808c3ef4b840d59b78f9a8d96485189b1f28800df97e33621f3d132259f4f9ab930b8dcde53a54fcc12b1f00f2f7d3157118800000000000000000000000000000000000000000000000000000000000000000000000000000000000000000000000000000000000000000000000000000000036164640000000000000000000000000000000000000000000000000000000000",
          "blockHash": "0x0b0af93c9704bcc34f4d858ee7c524c0d564060e4e5875d2448b6df02227cbae",
          "blockNumber": "0x8cc8e5",
          "blockTimestamp": "0x68cb8df8",
          "transactionHash": "0xad8b6b65e69b207cbfe6f5ce4e77bba1ea0fcb835105bd9994c7b26354068f91",
          "transactionIndex": "0x8f",
          "logIndex": "0xdf",
          "removed": false
        },
        {
          "address": "0xea30c4b8b44078bbf8a6ef5b9f1ec1626c7848d9",
          "topics": [
            "0xe9de54a3e7ddf0c48cc6e1134185300d5a71acbf2d8c21fcdefa9d9dd9e20ac1"
          ],
          "data": "0xdf97e33621f3d132259f4f9ab930b8dcde53a54fcc12b1f00f2f7d315711880000000000000000000000000000000000000000000000000000000000000000a00000000000000000000000000000000000000000000000000000000028d8683900000000000000000000000000000000000000000000000000000000000000080000000000000000000000000000000000000000000000000000000000000000000000000000000000000000000000000000000000000000000000000000000e7472697669616c456e6372797074000000000000000000000000000000000000",
          "blockHash": "0x0b0af93c9704bcc34f4d858ee7c524c0d564060e4e5875d2448b6df02227cbae",
          "blockNumber": "0x8cc8e5",
          "blockTimestamp": "0x68cb8df8",
          "transactionHash": "0xad8b6b65e69b207cbfe6f5ce4e77bba1ea0fcb835105bd9994c7b26354068f91",
          "transactionIndex": "0x8f",
          "logIndex": "0xe0",
          "removed": false
        },
        {
          "address": "0xea30c4b8b44078bbf8a6ef5b9f1ec1626c7848d9",
          "topics": [
            "0xe9de54a3e7ddf0c48cc6e1134185300d5a71acbf2d8c21fcdefa9d9dd9e20ac1"
          ],
          "data": "0xfe92b1a51a7b67d8bfb194f8e08d26ff4477099ca360baf09ea1bb9aa4a5080000000000000000000000000000000000000000000000000000000000000000a0d8d542465d641073d3a041fe1808c3ef4b840d59b78f9a8d96485189b1f28800df97e33621f3d132259f4f9ab930b8dcde53a54fcc12b1f00f2f7d3157118800000000000000000000000000000000000000000000000000000000000000000000000000000000000000000000000000000000000000000000000000000000036164640000000000000000000000000000000000000000000000000000000000",
          "blockHash": "0x0b0af93c9704bcc34f4d858ee7c524c0d564060e4e5875d2448b6df02227cbae",
          "blockNumber": "0x8cc8e5",
          "blockTimestamp": "0x68cb8df8",
          "transactionHash": "0xad8b6b65e69b207cbfe6f5ce4e77bba1ea0fcb835105bd9994c7b26354068f91",
          "transactionIndex": "0x8f",
          "logIndex": "0xe1",
          "removed": false
        },
        {
          "address": "0xea30c4b8b44078bbf8a6ef5b9f1ec1626c7848d9",
          "topics": [
            "0xe9de54a3e7ddf0c48cc6e1134185300d5a71acbf2d8c21fcdefa9d9dd9e20ac1"
          ],
          "data": "0xa31e02f950e21392879f09f956794b0e5b5a9502e6eb56b3f83a24451592840000000000000000000000000000000000000000000000000000000000000000a000000000000000000000000000000000000000000000000000000000fffffed400000000000000000000000000000000000000000000000000000000000000040000000000000000000000000000000000000000000000000000000000000000000000000000000000000000000000000000000000000000000000000000000e7472697669616c456e6372797074000000000000000000000000000000000000",
          "blockHash": "0x0b0af93c9704bcc34f4d858ee7c524c0d564060e4e5875d2448b6df02227cbae",
          "blockNumber": "0x8cc8e5",
          "blockTimestamp": "0x68cb8df8",
          "transactionHash": "0xad8b6b65e69b207cbfe6f5ce4e77bba1ea0fcb835105bd9994c7b26354068f91",
          "transactionIndex": "0x8f",
          "logIndex": "0xe2",
          "removed": false
        },
        {
          "address": "0xea30c4b8b44078bbf8a6ef5b9f1ec1626c7848d9",
          "topics": [
            "0xe9de54a3e7ddf0c48cc6e1134185300d5a71acbf2d8c21fcdefa9d9dd9e20ac1"
          ],
          "data": "0x084716837cc3243656cfd9d24898378625dfcefbec1b7e85f3ab89b03530840000000000000000000000000000000000000000000000000000000000000000a000000000000000000000000000000000000000000000000000000000000000f000000000000000000000000000000000000000000000000000000000000000040000000000000000000000000000000000000000000000000000000000000000000000000000000000000000000000000000000000000000000000000000000e7472697669616c456e6372797074000000000000000000000000000000000000",
          "blockHash": "0x0b0af93c9704bcc34f4d858ee7c524c0d564060e4e5875d2448b6df02227cbae",
          "blockNumber": "0x8cc8e5",
          "blockTimestamp": "0x68cb8df8",
          "transactionHash": "0xad8b6b65e69b207cbfe6f5ce4e77bba1ea0fcb835105bd9994c7b26354068f91",
          "transactionIndex": "0x8f",
          "logIndex": "0xe3",
          "removed": false
        },
        {
          "address": "0xa502683ee305567d36a7ce8d7ed5952cf816f880",
          "topics": [
            "0x2eb6b9f2d61ef09ebd58a3448a336321720cfcc2d29d35772d173c538af4a001",
            "0xd47c8f2b728c4b7a250e388d6c9371694e26ededa185062520abd55732a2935b",
            "0x000000000000000000000000429ba70129df741b2ca2a85bc3a2a3328e5c09b4"
          ],
          "data": "0x000000000000000000000000000000000000000000000000000000000000006000000000000000000000000000000000000000000000000000000000000000a000000000000000000000000000000000000000000000000000000000000000e00000000000000000000000000000000000000000000000000000000000000020fe92b1a51a7b67d8bfb194f8e08d26ff4477099ca360baf09ea1bb9aa4a508000000000000000000000000000000000000000000000000000000000000000020a31e02f950e21392879f09f956794b0e5b5a9502e6eb56b3f83a2445159284000000000000000000000000000000000000000000000000000000000000000020084716837cc3243656cfd9d24898378625dfcefbec1b7e85f3ab89b035308400",
          "blockHash": "0x0b0af93c9704bcc34f4d858ee7c524c0d564060e4e5875d2448b6df02227cbae",
          "blockNumber": "0x8cc8e5",
          "blockTimestamp": "0x68cb8df8",
          "transactionHash": "0xad8b6b65e69b207cbfe6f5ce4e77bba1ea0fcb835105bd9994c7b26354068f91",
          "transactionIndex": "0x8f",
          "logIndex": "0xe4",
          "removed": false
        },
        {
          "address": "0xe03a1074c86cfedd5c142c4f04f1a1536e203543",
          "topics": [
            "0xf208f4912782fd25c7f114ca3723a2d5dd6f3bcc3ac8db5af63baa85f711d5ec",
            "0xd47c8f2b728c4b7a250e388d6c9371694e26ededa185062520abd55732a2935b",
            "0x000000000000000000000000429ba70129df741b2ca2a85bc3a2a3328e5c09b4"
          ],
          "data": "0xfffffffffffffffffffffffffffffffffffffffffffffffffffffffffffffed400000000000000000000000000000000000000000000000000000000000000f00000000000000000000000000000000000000000000000000000000028d868390000000000000000000000000000000000000000000000000000000000004328",
          "blockHash": "0x0b0af93c9704bcc34f4d858ee7c524c0d564060e4e5875d2448b6df02227cbae",
          "blockNumber": "0x8cc8e5",
          "blockTimestamp": "0x68cb8df8",
          "transactionHash": "0xad8b6b65e69b207cbfe6f5ce4e77bba1ea0fcb835105bd9994c7b26354068f91",
          "transactionIndex": "0x8f",
          "logIndex": "0xe5",
          "removed": false
        },
        {
          "address": "0x0058863bb78b4325cab9d50ab75ca43601a9ef6b",
          "topics": [
            "0xddf252ad1be2c89b69c2b068fc378daa952ba7f163c4a11628f55a4df523b3ef",
            "0x0000000000000000000000003e723f6b81431f325e3f08e75544f254c182afe2",
            "0x000000000000000000000000e03a1074c86cfedd5c142c4f04f1a1536e203543"
          ],
          "data": "0x00000000000000000000000000000000000000000000000000000000007cb889",
          "blockHash": "0x0b0af93c9704bcc34f4d858ee7c524c0d564060e4e5875d2448b6df02227cbae",
          "blockNumber": "0x8cc8e5",
          "blockTimestamp": "0x68cb8df8",
          "transactionHash": "0xad8b6b65e69b207cbfe6f5ce4e77bba1ea0fcb835105bd9994c7b26354068f91",
          "transactionIndex": "0x8f",
          "logIndex": "0xe6",
          "removed": false
        },
        {
          "address": "0x5abec0563014c1c02eb7a4f6924896e5f92579fc",
          "topics": [
            "0xddf252ad1be2c89b69c2b068fc378daa952ba7f163c4a11628f55a4df523b3ef",
            "0x0000000000000000000000003e723f6b81431f325e3f08e75544f254c182afe2",
            "0x000000000000000000000000e03a1074c86cfedd5c142c4f04f1a1536e203543"
          ],
          "data": "0x00000000000000000000000000000000000000000000000000000000009baafc",
          "blockHash": "0x0b0af93c9704bcc34f4d858ee7c524c0d564060e4e5875d2448b6df02227cbae",
          "blockNumber": "0x8cc8e5",
          "blockTimestamp": "0x68cb8df8",
          "transactionHash": "0xad8b6b65e69b207cbfe6f5ce4e77bba1ea0fcb835105bd9994c7b26354068f91",
          "transactionIndex": "0x8f",
          "logIndex": "0xe7",
          "removed": false
        }
      ],
      "logsBloom": "0x00000200000000000000001000000000080004000000000080000000080000000000000010000040080000000000000000000100088180000000000000000000000000000000000000000008000000000000000008000000000000000000000000000000020000000000000080000800000000000000100000000810000004000000000001000000000011000100000001000000000000000000000000000000000004000000000080810000000000000000000000400000000030000080000000000002000000000000000000000000000000000000000000001001000020001000000000000004400200000000000004000000000000000000020200000010",
      "type": "0x2",
      "transactionHash": "0xad8b6b65e69b207cbfe6f5ce4e77bba1ea0fcb835105bd9994c7b26354068f91",
      "transactionIndex": "0x8f",
      "blockHash": "0x0b0af93c9704bcc34f4d858ee7c524c0d564060e4e5875d2448b6df02227cbae",
      "blockNumber": "0x8cc8e5",
      "gasUsed": "0xa057a",
      "effectiveGasPrice": "0xf424f",
      "from": "0x3e723f6b81431f325e3f08e75544f254c182afe2",
      "to": "0x429ba70129df741b2ca2a85bc3a2a3328e5c09b4",
      "contractAddress": null
    },
    {
      "status": "0x1",
      "cumulativeGasUsed": "0x2ae2e22",
      "logs": [
        {
          "address": "0x5abec0563014c1c02eb7a4f6924896e5f92579fc",
          "topics": [
            "0x8c5be1e5ebec7d5bd14f71427d1e84f3dd0314c0f7b2291e5b200ac8c7c3b925",
            "0x0000000000000000000000003e723f6b81431f325e3f08e75544f254c182afe2",
            "0x000000000000000000000000f13d190e9117920c703d79b5f33732e10049b115"
          ],
          "data": "0xffffffffffffffffffffffffffffffffffffffffffffffffffffffffffffffff",
          "blockHash": "0x0b0af93c9704bcc34f4d858ee7c524c0d564060e4e5875d2448b6df02227cbae",
          "blockNumber": "0x8cc8e5",
          "blockTimestamp": "0x68cb8df8",
          "transactionHash": "0x2af908531f26e6bc41591762cf37c1f0d562c75706c4d2bac6da13bd65c375f5",
          "transactionIndex": "0x90",
          "logIndex": "0xe8",
          "removed": false
        }
      ],
      "logsBloom": "0x00000000000000000000000000000000000000000000000000800000000000000000000000000000000000000000000000000000080000000000000000200000000000000000000000000000000000000000000000000000000000000000000000000000000000000000000000000000000000000000000000000000000004000000000000080000000000000000000000000000000000000000000000000000020000000000000080000000000000000000000000000000000030000000000000000000000000000000000000000000000000000000000000000000000080000010000000000004000000000000000000000000000000000000000000000000",
      "type": "0x2",
      "transactionHash": "0x2af908531f26e6bc41591762cf37c1f0d562c75706c4d2bac6da13bd65c375f5",
      "transactionIndex": "0x90",
      "blockHash": "0x0b0af93c9704bcc34f4d858ee7c524c0d564060e4e5875d2448b6df02227cbae",
      "blockNumber": "0x8cc8e5",
      "gasUsed": "0x66f5",
      "effectiveGasPrice": "0xf424f",
      "from": "0x3e723f6b81431f325e3f08e75544f254c182afe2",
      "to": "0x5abec0563014c1c02eb7a4f6924896e5f92579fc",
      "contractAddress": null
    },
    {
      "status": "0x1",
      "cumulativeGasUsed": "0x2ae9517",
      "logs": [
        {
          "address": "0x0058863bb78b4325cab9d50ab75ca43601a9ef6b",
          "topics": [
            "0x8c5be1e5ebec7d5bd14f71427d1e84f3dd0314c0f7b2291e5b200ac8c7c3b925",
            "0x0000000000000000000000003e723f6b81431f325e3f08e75544f254c182afe2",
            "0x000000000000000000000000f13d190e9117920c703d79b5f33732e10049b115"
          ],
          "data": "0xffffffffffffffffffffffffffffffffffffffffffffffffffffffffffffffff",
          "blockHash": "0x0b0af93c9704bcc34f4d858ee7c524c0d564060e4e5875d2448b6df02227cbae",
          "blockNumber": "0x8cc8e5",
          "blockTimestamp": "0x68cb8df8",
          "transactionHash": "0xe9b57e5a5d4ee816da6b92f0b73cb7fabdad56c6bcfb5e79e03d71137cb10b66",
          "transactionIndex": "0x91",
          "logIndex": "0xe9",
          "removed": false
        }
      ],
      "logsBloom": "0x00000000000000000000000000000000000000000000000080800000000000000000000000000000000000000000000000000000080000000000000000200000000000000000000000000000000000000000000000000000000000000000000000000000000000000000000000000000000000000000000000000000000000000000000000080000000000000000000000000000000000000000000000000000020000000000000080810000000000000000000000000000000010000000000000000000000000000000000000000000000000000000000000000000000080000010000000000000000000000000000000000000000000000000000000000000",
      "type": "0x2",
      "transactionHash": "0xe9b57e5a5d4ee816da6b92f0b73cb7fabdad56c6bcfb5e79e03d71137cb10b66",
      "transactionIndex": "0x91",
      "blockHash": "0x0b0af93c9704bcc34f4d858ee7c524c0d564060e4e5875d2448b6df02227cbae",
      "blockNumber": "0x8cc8e5",
      "gasUsed": "0x66f5",
      "effectiveGasPrice": "0xf424f",
      "from": "0x3e723f6b81431f325e3f08e75544f254c182afe2",
      "to": "0x0058863bb78b4325cab9d50ab75ca43601a9ef6b",
      "contractAddress": null
    },
    {
      "status": "0x1",
      "cumulativeGasUsed": "0x2b2ba59",
      "logs": [
        {
          "address": "0xe03a1074c86cfedd5c142c4f04f1a1536e203543",
          "topics": [
            "0x40e9cecb9f5f1f1c5b9c97dec2917b7ee92e57ba5563708daca94dd84ad7112f",
            "0xd47c8f2b728c4b7a250e388d6c9371694e26ededa185062520abd55732a2935b",
            "0x000000000000000000000000f13d190e9117920c703d79b5f33732e10049b115"
          ],
          "data": "0xfffffffffffffffffffffffffffffffffffffffffffffffffffffffffffffc1800000000000000000000000000000000000000000000000000000000000003e40000000000000000000000000000000000000000ffffe7974455adc7cd347e3c0000000000000000000000000000000000000000000000000000000028d86839ffffffffffffffffffffffffffffffffffffffffffffffffffffffffffffffff0000000000000000000000000000000000000000000000000000000000000bb8",
          "blockHash": "0x0b0af93c9704bcc34f4d858ee7c524c0d564060e4e5875d2448b6df02227cbae",
          "blockNumber": "0x8cc8e5",
          "blockTimestamp": "0x68cb8df8",
          "transactionHash": "0xd9365eade3bf46fa6556c8d2946c8610691bff25541f5a962b48ecbf05fbd88c",
          "transactionIndex": "0x92",
          "logIndex": "0xea",
          "removed": false
        },
        {
          "address": "0x0058863bb78b4325cab9d50ab75ca43601a9ef6b",
          "topics": [
            "0xddf252ad1be2c89b69c2b068fc378daa952ba7f163c4a11628f55a4df523b3ef",
            "0x0000000000000000000000003e723f6b81431f325e3f08e75544f254c182afe2",
            "0x000000000000000000000000e03a1074c86cfedd5c142c4f04f1a1536e203543"
          ],
          "data": "0x00000000000000000000000000000000000000000000000000000000000003e8",
          "blockHash": "0x0b0af93c9704bcc34f4d858ee7c524c0d564060e4e5875d2448b6df02227cbae",
          "blockNumber": "0x8cc8e5",
          "blockTimestamp": "0x68cb8df8",
          "transactionHash": "0xd9365eade3bf46fa6556c8d2946c8610691bff25541f5a962b48ecbf05fbd88c",
          "transactionIndex": "0x92",
          "logIndex": "0xeb",
          "removed": false
        },
        {
          "address": "0x5abec0563014c1c02eb7a4f6924896e5f92579fc",
          "topics": [
            "0xddf252ad1be2c89b69c2b068fc378daa952ba7f163c4a11628f55a4df523b3ef",
            "0x000000000000000000000000e03a1074c86cfedd5c142c4f04f1a1536e203543",
            "0x0000000000000000000000003e723f6b81431f325e3f08e75544f254c182afe2"
          ],
          "data": "0x00000000000000000000000000000000000000000000000000000000000003e4",
          "blockHash": "0x0b0af93c9704bcc34f4d858ee7c524c0d564060e4e5875d2448b6df02227cbae",
          "blockNumber": "0x8cc8e5",
          "blockTimestamp": "0x68cb8df8",
          "transactionHash": "0xd9365eade3bf46fa6556c8d2946c8610691bff25541f5a962b48ecbf05fbd88c",
          "transactionIndex": "0x92",
          "logIndex": "0xec",
          "removed": false
        }
      ],
      "logsBloom": "0x000000000000000000000000000000000000000000000000808000000000000000000000000000000000000000000000000001000c0180000000000000000000000000000000000000000008000000000000000000000020000000000000000000000000000000000000000080000000000000000000100000000010000004000000000000080000000010000000000000000000000000000000000000000000000000000000000080810000000000000000000000000000000030000080000000000002000000000000000000000000000000000000000000001000000080001000000000000004004000000000000000000000000000000000000000000000",
      "type": "0x2",
      "transactionHash": "0xd9365eade3bf46fa6556c8d2946c8610691bff25541f5a962b48ecbf05fbd88c",
      "transactionIndex": "0x92",
      "blockHash": "0x0b0af93c9704bcc34f4d858ee7c524c0d564060e4e5875d2448b6df02227cbae",
      "blockNumber": "0x8cc8e5",
      "gasUsed": "0x42542",
      "effectiveGasPrice": "0xf424f",
      "from": "0x3e723f6b81431f325e3f08e75544f254c182afe2",
      "to": "0xf13d190e9117920c703d79b5f33732e10049b115",
      "contractAddress": null
    }
  ],
  "libraries": [],
  "pending": [],
  "returns": {},
  "timestamp": 1758170618038,
  "chain": 11155111,
  "commit": "7b9c819"
}