{
  "transactions": [
    {
      "hash": "0xcc51921f4827fdf60823385e12c2168dbd39b20511026da4f46627730de9a234",
      "transactionType": "CALL",
      "contractName": null,
      "contractAddress": "0x98fb6db4104df971db052a2fc8b7cb760135f880",
      "function": "configureEncryptedRebalancingStrategy((address,address,uint24,int24,address),uint24,uint32,int24,bool,uint24)",
      "arguments": [
        "(0x3e68f0F304314495fa45907170a59D0BA5218bCc, 0xabc0Afb70F325F4119cFCA4083EA2A580Ec40D3F, 3000, 60, 0x98FB6Db4104dF971db052a2fc8B7CB760135F880)",
        "500",
        "3600",
        "200",
        "true",
        "150"
      ],
      "transaction": {
        "from": "0x3e723f6b81431f325e3f08e75544f254c182afe2",
        "to": "0x98fb6db4104df971db052a2fc8b7cb760135f880",
        "gas": "0x4298c",
        "value": "0x0",
        "input": "0xa9eb74780000000000000000000000003e68f0f304314495fa45907170a59d0ba5218bcc000000000000000000000000abc0afb70f325f4119cfca4083ea2a580ec40d3f0000000000000000000000000000000000000000000000000000000000000bb8000000000000000000000000000000000000000000000000000000000000003c00000000000000000000000098fb6db4104df971db052a2fc8b7cb760135f88000000000000000000000000000000000000000000000000000000000000001f40000000000000000000000000000000000000000000000000000000000000e1000000000000000000000000000000000000000000000000000000000000000c800000000000000000000000000000000000000000000000000000000000000010000000000000000000000000000000000000000000000000000000000000096",
        "nonce": "0x625",
        "chainId": "0xaa36a7"
      },
      "additionalContracts": [],
      "isFixedGasLimit": false
    },
    {
      "hash": "0x77a59ec56ab465055e50e7c75c6cd687516f42c8cee7b103ff3363aa23ca7364",
      "transactionType": "CALL",
      "contractName": null,
      "contractAddress": "0x98fb6db4104df971db052a2fc8b7cb760135f880",
      "function": "pausePoolRebalancing((address,address,uint24,int24,address))",
      "arguments": [
        "(0x3e68f0F304314495fa45907170a59D0BA5218bCc, 0xabc0Afb70F325F4119cFCA4083EA2A580Ec40D3F, 3000, 60, 0x98FB6Db4104dF971db052a2fc8B7CB760135F880)"
      ],
      "transaction": {
        "from": "0x3e723f6b81431f325e3f08e75544f254c182afe2",
        "to": "0x98fb6db4104df971db052a2fc8b7cb760135f880",
        "gas": "0x1d86d",
        "value": "0x0",
        "input": "0xfbdd948f0000000000000000000000003e68f0f304314495fa45907170a59d0ba5218bcc000000000000000000000000abc0afb70f325f4119cfca4083ea2a580ec40d3f0000000000000000000000000000000000000000000000000000000000000bb8000000000000000000000000000000000000000000000000000000000000003c00000000000000000000000098fb6db4104df971db052a2fc8b7cb760135f880",
        "nonce": "0x626",
        "chainId": "0xaa36a7"
      },
      "additionalContracts": [],
      "isFixedGasLimit": false
    },
    {
      "hash": "0x8c461c095e5bfeb5f6560cb324517478a7635b85e3a4eac02e0d209eaff52f77",
      "transactionType": "CALL",
      "contractName": null,
      "contractAddress": "0x98fb6db4104df971db052a2fc8b7cb760135f880",
      "function": "resumePoolRebalancing((address,address,uint24,int24,address))",
      "arguments": [
        "(0x3e68f0F304314495fa45907170a59D0BA5218bCc, 0xabc0Afb70F325F4119cFCA4083EA2A580Ec40D3F, 3000, 60, 0x98FB6Db4104dF971db052a2fc8B7CB760135F880)"
      ],
      "transaction": {
        "from": "0x3e723f6b81431f325e3f08e75544f254c182afe2",
        "to": "0x98fb6db4104df971db052a2fc8b7cb760135f880",
        "gas": "0x1f451",
        "value": "0x0",
        "input": "0xfe0389100000000000000000000000003e68f0f304314495fa45907170a59d0ba5218bcc000000000000000000000000abc0afb70f325f4119cfca4083ea2a580ec40d3f0000000000000000000000000000000000000000000000000000000000000bb8000000000000000000000000000000000000000000000000000000000000003c00000000000000000000000098fb6db4104df971db052a2fc8b7cb760135f880",
        "nonce": "0x627",
        "chainId": "0xaa36a7"
      },
      "additionalContracts": [],
      "isFixedGasLimit": false
    },
    {
      "hash": "0x56b4517340bdc315d6648304ba7a6359c50010a66a37cf841e5ddf6caec3f967",
      "transactionType": "CALL",
      "contractName": null,
      "contractAddress": "0x98fb6db4104df971db052a2fc8b7cb760135f880",
      "function": "deactivatePool((address,address,uint24,int24,address))",
      "arguments": [
        "(0x3e68f0F304314495fa45907170a59D0BA5218bCc, 0xabc0Afb70F325F4119cFCA4083EA2A580Ec40D3F, 3000, 60, 0x98FB6Db4104dF971db052a2fc8B7CB760135F880)"
      ],
      "transaction": {
        "from": "0x3e723f6b81431f325e3f08e75544f254c182afe2",
        "to": "0x98fb6db4104df971db052a2fc8b7cb760135f880",
        "gas": "0x99ee",
        "value": "0x0",
        "input": "0x7a2486b50000000000000000000000003e68f0f304314495fa45907170a59d0ba5218bcc000000000000000000000000abc0afb70f325f4119cfca4083ea2a580ec40d3f0000000000000000000000000000000000000000000000000000000000000bb8000000000000000000000000000000000000000000000000000000000000003c00000000000000000000000098fb6db4104df971db052a2fc8b7cb760135f880",
        "nonce": "0x628",
        "chainId": "0xaa36a7"
      },
      "additionalContracts": [],
      "isFixedGasLimit": false
    },
    {
      "hash": "0x31c21739698a3940383b96f9c27fcdb1b364456f4d4361a6ca44f161dcaef3fb",
      "transactionType": "CALL",
      "contractName": null,
      "contractAddress": "0x98fb6db4104df971db052a2fc8b7cb760135f880",
      "function": "reactivatePool((address,address,uint24,int24,address))",
      "arguments": [
        "(0x3e68f0F304314495fa45907170a59D0BA5218bCc, 0xabc0Afb70F325F4119cFCA4083EA2A580Ec40D3F, 3000, 60, 0x98FB6Db4104dF971db052a2fc8B7CB760135F880)"
      ],
      "transaction": {
        "from": "0x3e723f6b81431f325e3f08e75544f254c182afe2",
        "to": "0x98fb6db4104df971db052a2fc8b7cb760135f880",
        "gas": "0x106db",
        "value": "0x0",
        "input": "0x54ee1e530000000000000000000000003e68f0f304314495fa45907170a59d0ba5218bcc000000000000000000000000abc0afb70f325f4119cfca4083ea2a580ec40d3f0000000000000000000000000000000000000000000000000000000000000bb8000000000000000000000000000000000000000000000000000000000000003c00000000000000000000000098fb6db4104df971db052a2fc8b7cb760135f880",
        "nonce": "0x629",
        "chainId": "0xaa36a7"
      },
      "additionalContracts": [],
      "isFixedGasLimit": false
    },
    {
      "hash": "0x62f4c9a2c89ea59134bc1fa564b0a3080cd61e8911066703fb676cb6b1db4c51",
      "transactionType": "CALL",
      "contractName": null,
      "contractAddress": "0xabc0afb70f325f4119cfca4083ea2a580ec40d3f",
      "function": "approve(address,uint256)",
      "arguments": [
        "0x429ba70129df741B2Ca2a85BC3A2a3328e5c09b4",
        "115792089237316195423570985008687907853269984665640564039457584007913129639935"
      ],
      "transaction": {
        "from": "0x3e723f6b81431f325e3f08e75544f254c182afe2",
        "to": "0xabc0afb70f325f4119cfca4083ea2a580ec40d3f",
        "gas": "0x96a4",
        "value": "0x0",
        "input": "0x095ea7b3000000000000000000000000429ba70129df741b2ca2a85bc3a2a3328e5c09b4ffffffffffffffffffffffffffffffffffffffffffffffffffffffffffffffff",
        "nonce": "0x62a",
        "chainId": "0xaa36a7"
      },
      "additionalContracts": [],
      "isFixedGasLimit": false
    },
    {
      "hash": "0xf3cb100f271bfd7241e288c96e00cdd7f3ea87fe25e866c3c9ab03fc3511b145",
      "transactionType": "CALL",
      "contractName": null,
      "contractAddress": "0x3e68f0f304314495fa45907170a59d0ba5218bcc",
      "function": "approve(address,uint256)",
      "arguments": [
        "0x429ba70129df741B2Ca2a85BC3A2a3328e5c09b4",
        "115792089237316195423570985008687907853269984665640564039457584007913129639935"
      ],
      "transaction": {
        "from": "0x3e723f6b81431f325e3f08e75544f254c182afe2",
        "to": "0x3e68f0f304314495fa45907170a59d0ba5218bcc",
        "gas": "0x96a4",
        "value": "0x0",
        "input": "0x095ea7b3000000000000000000000000429ba70129df741b2ca2a85bc3a2a3328e5c09b4ffffffffffffffffffffffffffffffffffffffffffffffffffffffffffffffff",
        "nonce": "0x62b",
        "chainId": "0xaa36a7"
      },
      "additionalContracts": [],
      "isFixedGasLimit": false
    },
    {
      "hash": "0xa3f2765bbad7ccd161c8641ce2c861cc1f6a586b00c1272f40a7498ad96c05a0",
      "transactionType": "CALL",
      "contractName": null,
      "contractAddress": "0xabc0afb70f325f4119cfca4083ea2a580ec40d3f",
      "function": "approve(address,uint256)",
      "arguments": [
        "0x000000000022D473030F116dDEE9F6B43aC78BA3",
        "115792089237316195423570985008687907853269984665640564039457584007913129639935"
      ],
      "transaction": {
        "from": "0x3e723f6b81431f325e3f08e75544f254c182afe2",
        "to": "0xabc0afb70f325f4119cfca4083ea2a580ec40d3f",
        "gas": "0x8df2",
        "value": "0x0",
        "input": "0x095ea7b3000000000000000000000000000000000022d473030f116ddee9f6b43ac78ba3ffffffffffffffffffffffffffffffffffffffffffffffffffffffffffffffff",
        "nonce": "0x62c",
        "chainId": "0xaa36a7"
      },
      "additionalContracts": [],
      "isFixedGasLimit": false
    },
    {
      "hash": "0x3d408182cfc1fc6f9ff586945c18c79ab443ce8fc73a028af48dd579a6610182",
      "transactionType": "CALL",
      "contractName": null,
      "contractAddress": "0x000000000022d473030f116ddee9f6b43ac78ba3",
      "function": "approve(address,address,uint160,uint48)",
      "arguments": [
        "0xabc0Afb70F325F4119cFCA4083EA2A580Ec40D3F",
        "0x429ba70129df741B2Ca2a85BC3A2a3328e5c09b4",
        "1461501637330902918203684832716283019655932542975",
        "281474976710655"
      ],
      "transaction": {
        "from": "0x3e723f6b81431f325e3f08e75544f254c182afe2",
        "to": "0x000000000022d473030f116ddee9f6b43ac78ba3",
        "gas": "0x96a0",
        "value": "0x0",
        "input": "0x87517c45000000000000000000000000abc0afb70f325f4119cfca4083ea2a580ec40d3f000000000000000000000000429ba70129df741b2ca2a85bc3a2a3328e5c09b4000000000000000000000000ffffffffffffffffffffffffffffffffffffffff0000000000000000000000000000000000000000000000000000ffffffffffff",
        "nonce": "0x62d",
        "chainId": "0xaa36a7"
      },
      "additionalContracts": [],
      "isFixedGasLimit": false
    },
    {
      "hash": "0x68073fcfc789090b666878c86e8eda13771d593d8cd30b9d50158a25d4f21af0",
      "transactionType": "CALL",
      "contractName": null,
      "contractAddress": "0x3e68f0f304314495fa45907170a59d0ba5218bcc",
      "function": "approve(address,uint256)",
      "arguments": [
        "0x000000000022D473030F116dDEE9F6B43aC78BA3",
        "115792089237316195423570985008687907853269984665640564039457584007913129639935"
      ],
      "transaction": {
        "from": "0x3e723f6b81431f325e3f08e75544f254c182afe2",
        "to": "0x3e68f0f304314495fa45907170a59d0ba5218bcc",
        "gas": "0x8df2",
        "value": "0x0",
        "input": "0x095ea7b3000000000000000000000000000000000022d473030f116ddee9f6b43ac78ba3ffffffffffffffffffffffffffffffffffffffffffffffffffffffffffffffff",
        "nonce": "0x62e",
        "chainId": "0xaa36a7"
      },
      "additionalContracts": [],
      "isFixedGasLimit": false
    },
    {
      "hash": "0x8b216cbe425ebf82ca7a2cf61eeb01d3856cdddfc0a740dc9e478f0044275c64",
      "transactionType": "CALL",
      "contractName": null,
      "contractAddress": "0x000000000022d473030f116ddee9f6b43ac78ba3",
      "function": "approve(address,address,uint160,uint48)",
      "arguments": [
        "0x3e68f0F304314495fa45907170a59D0BA5218bCc",
        "0x429ba70129df741B2Ca2a85BC3A2a3328e5c09b4",
        "1461501637330902918203684832716283019655932542975",
        "281474976710655"
      ],
      "transaction": {
        "from": "0x3e723f6b81431f325e3f08e75544f254c182afe2",
        "to": "0x000000000022d473030f116ddee9f6b43ac78ba3",
        "gas": "0x96a0",
        "value": "0x0",
        "input": "0x87517c450000000000000000000000003e68f0f304314495fa45907170a59d0ba5218bcc000000000000000000000000429ba70129df741b2ca2a85bc3a2a3328e5c09b4000000000000000000000000ffffffffffffffffffffffffffffffffffffffff0000000000000000000000000000000000000000000000000000ffffffffffff",
        "nonce": "0x62f",
        "chainId": "0xaa36a7"
      },
      "additionalContracts": [],
      "isFixedGasLimit": false
    },
    {
      "hash": "0xadbe067e45ff85cc5e6164dcb47829a811043d1c7cadeb6b25ac021209654a94",
      "transactionType": "CALL",
      "contractName": null,
      "contractAddress": "0x429ba70129df741b2ca2a85bc3a2a3328e5c09b4",
      "function": "multicall(bytes[])",
      "arguments": [
        "[0xdd46508f00000000000000000000000000000000000000000000000000000000000000400000000000000000000000000000000000000000000000000000000068cb97b80000000000000000000000000000000000000000000000000000000000000400000000000000000000000000000000000000000000000000000000000000004000000000000000000000000000000000000000000000000000000000000000800000000000000000000000000000000000000000000000000000000000000004020d14140000000000000000000000000000000000000000000000000000000000000000000000000000000000000000000000000000000000000000000000040000000000000000000000000000000000000000000000000000000000000080000000000000000000000000000000000000000000000000000000000000024000000000000000000000000000000000000000000000000000000000000002a0000000000000000000000000000000000000000000000000000000000000030000000000000000000000000000000000000000000000000000000000000001a00000000000000000000000003e68f0f304314495fa45907170a59d0ba5218bcc000000000000000000000000abc0afb70f325f4119cfca4083ea2a580ec40d3f0000000000000000000000000000000000000000000000000000000000000bb8000000000000000000000000000000000000000000000000000000000000003c0000000000000000000000000000000000000000000000000000000000000000fffffffffffffffffffffffffffffffffffffffffffffffffffffffffffffed4000000000000000000000000000000000000000000000000000000000000012c00000000000000000000000000000000000000000000000000000000280984f200000000000000000000000000000000000000000000000000271471148780000000000000000000000000000000000000000000000000000000000000a7d8c00000000000000000000000003e723f6b81431f325e3f08e75544f254c182afe20000000000000000000000000000000000000000000000000000000000000180000000000000000000000000000000000000000000000000000000000000000000000000000000000000000000000000000000000000000000000000000000400000000000000000000000003e68f0f304314495fa45907170a59d0ba5218bcc000000000000000000000000abc0afb70f325f4119cfca4083ea2a580ec40d3f00000000000000000000000000000000000000000000000000000000000000400000000000000000000000003e68f0f304314495fa45907170a59d0ba5218bcc0000000000000000000000003e723f6b81431f325e3f08e75544f254c182afe20000000000000000000000000000000000000000000000000000000000000040000000000000000000000000abc0afb70f325f4119cfca4083ea2a580ec40d3f0000000000000000000000003e723f6b81431f325e3f08e75544f254c182afe2]"
      ],
      "transaction": {
        "from": "0x3e723f6b81431f325e3f08e75544f254c182afe2",
        "to": "0x429ba70129df741b2ca2a85bc3a2a3328e5c09b4",
        "gas": "0x556c1",
        "value": "0x0",
        "input": "0xac9650d80000000000000000000000000000000000000000000000000000000000000020000000000000000000000000000000000000000000000000000000000000000100000000000000000000000000000000000000000000000000000000000000200000000000000000000000000000000000000000000000000000000000000464dd46508f00000000000000000000000000000000000000000000000000000000000000400000000000000000000000000000000000000000000000000000000068cb97b80000000000000000000000000000000000000000000000000000000000000400000000000000000000000000000000000000000000000000000000000000004000000000000000000000000000000000000000000000000000000000000000800000000000000000000000000000000000000000000000000000000000000004020d14140000000000000000000000000000000000000000000000000000000000000000000000000000000000000000000000000000000000000000000000040000000000000000000000000000000000000000000000000000000000000080000000000000000000000000000000000000000000000000000000000000024000000000000000000000000000000000000000000000000000000000000002a0000000000000000000000000000000000000000000000000000000000000030000000000000000000000000000000000000000000000000000000000000001a00000000000000000000000003e68f0f304314495fa45907170a59d0ba5218bcc000000000000000000000000abc0afb70f325f4119cfca4083ea2a580ec40d3f0000000000000000000000000000000000000000000000000000000000000bb8000000000000000000000000000000000000000000000000000000000000003c0000000000000000000000000000000000000000000000000000000000000000fffffffffffffffffffffffffffffffffffffffffffffffffffffffffffffed4000000000000000000000000000000000000000000000000000000000000012c00000000000000000000000000000000000000000000000000000000280984f200000000000000000000000000000000000000000000000000271471148780000000000000000000000000000000000000000000000000000000000000a7d8c00000000000000000000000003e723f6b81431f325e3f08e75544f254c182afe20000000000000000000000000000000000000000000000000000000000000180000000000000000000000000000000000000000000000000000000000000000000000000000000000000000000000000000000000000000000000000000000400000000000000000000000003e68f0f304314495fa45907170a59d0ba5218bcc000000000000000000000000abc0afb70f325f4119cfca4083ea2a580ec40d3f00000000000000000000000000000000000000000000000000000000000000400000000000000000000000003e68f0f304314495fa45907170a59d0ba5218bcc0000000000000000000000003e723f6b81431f325e3f08e75544f254c182afe20000000000000000000000000000000000000000000000000000000000000040000000000000000000000000abc0afb70f325f4119cfca4083ea2a580ec40d3f0000000000000000000000003e723f6b81431f325e3f08e75544f254c182afe200000000000000000000000000000000000000000000000000000000",
        "nonce": "0x630",
        "chainId": "0xaa36a7"
      },
      "additionalContracts": [],
      "isFixedGasLimit": false
    },
    {
      "hash": "0x603750fa7123139b2f1287949775237c99cb62d0b23030633969d492e0577550",
      "transactionType": "CALL",
      "contractName": null,
      "contractAddress": "0xabc0afb70f325f4119cfca4083ea2a580ec40d3f",
      "function": "approve(address,uint256)",
      "arguments": [
        "0xf13D190e9117920c703d79B5F33732e10049b115",
        "115792089237316195423570985008687907853269984665640564039457584007913129639935"
      ],
      "transaction": {
        "from": "0x3e723f6b81431f325e3f08e75544f254c182afe2",
        "to": "0xabc0afb70f325f4119cfca4083ea2a580ec40d3f",
        "gas": "0x8e35",
        "value": "0x0",
        "input": "0x095ea7b3000000000000000000000000f13d190e9117920c703d79b5f33732e10049b115ffffffffffffffffffffffffffffffffffffffffffffffffffffffffffffffff",
        "nonce": "0x631",
        "chainId": "0xaa36a7"
      },
      "additionalContracts": [],
      "isFixedGasLimit": false
    },
    {
      "hash": "0x6f9f59414a454148d888299e8c6c606ffa9b45b2c48ad4d1fe7c8086e0ffa886",
      "transactionType": "CALL",
      "contractName": null,
      "contractAddress": "0x3e68f0f304314495fa45907170a59d0ba5218bcc",
      "function": "approve(address,uint256)",
      "arguments": [
        "0xf13D190e9117920c703d79B5F33732e10049b115",
        "115792089237316195423570985008687907853269984665640564039457584007913129639935"
      ],
      "transaction": {
        "from": "0x3e723f6b81431f325e3f08e75544f254c182afe2",
        "to": "0x3e68f0f304314495fa45907170a59d0ba5218bcc",
        "gas": "0x8e35",
        "value": "0x0",
        "input": "0x095ea7b3000000000000000000000000f13d190e9117920c703d79b5f33732e10049b115ffffffffffffffffffffffffffffffffffffffffffffffffffffffffffffffff",
        "nonce": "0x632",
        "chainId": "0xaa36a7"
      },
      "additionalContracts": [],
      "isFixedGasLimit": false
    }
  ],
  "receipts": [
    {
      "status": "0x1",
      "cumulativeGasUsed": "0x7bb299",
      "logs": [
        {
          "address": "0xea30c4b8b44078bbf8a6ef5b9f1ec1626c7848d9",
          "topics": [
            "0xe9de54a3e7ddf0c48cc6e1134185300d5a71acbf2d8c21fcdefa9d9dd9e20ac1"
          ],
          "data": "0xa086c907b116b1572126a2ccfaa5f6524f347f8a1d8378ce37b958e0cccc880000000000000000000000000000000000000000000000000000000000000000a000000000000000000000000000000000000000000000000000000000000001f400000000000000000000000000000000000000000000000000000000000000080000000000000000000000000000000000000000000000000000000000000000000000000000000000000000000000000000000000000000000000000000000e7472697669616c456e6372797074000000000000000000000000000000000000",
          "blockHash": "0x67599d25feaf91369fe2c73a905ade43337e8224e96db17806db72a77de99ff6",
          "blockNumber": "0x8cc9a7",
          "transactionHash": "0xcc51921f4827fdf60823385e12c2168dbd39b20511026da4f46627730de9a234",
          "transactionIndex": "0x57",
          "logIndex": "0x6a",
          "removed": false
        },
        {
          "address": "0xea30c4b8b44078bbf8a6ef5b9f1ec1626c7848d9",
          "topics": [
            "0xe9de54a3e7ddf0c48cc6e1134185300d5a71acbf2d8c21fcdefa9d9dd9e20ac1"
          ],
          "data": "0xcc63d19e9a0f97a43bc73dca1ee8b6f4b645d8919747695fa5d1d0da853a840000000000000000000000000000000000000000000000000000000000000000a00000000000000000000000000000000000000000000000000000000000000e1000000000000000000000000000000000000000000000000000000000000000040000000000000000000000000000000000000000000000000000000000000000000000000000000000000000000000000000000000000000000000000000000e7472697669616c456e6372797074000000000000000000000000000000000000",
          "blockHash": "0x67599d25feaf91369fe2c73a905ade43337e8224e96db17806db72a77de99ff6",
          "blockNumber": "0x8cc9a7",
          "transactionHash": "0xcc51921f4827fdf60823385e12c2168dbd39b20511026da4f46627730de9a234",
          "transactionIndex": "0x57",
          "logIndex": "0x6b",
          "removed": false
        },
        {
          "address": "0xea30c4b8b44078bbf8a6ef5b9f1ec1626c7848d9",
          "topics": [
            "0xe9de54a3e7ddf0c48cc6e1134185300d5a71acbf2d8c21fcdefa9d9dd9e20ac1"
          ],
          "data": "0xcdef58c863398f789d9953afd1326207812f448c90165e6886555071b2f4840000000000000000000000000000000000000000000000000000000000000000a000000000000000000000000000000000000000000000000000000000000000c800000000000000000000000000000000000000000000000000000000000000040000000000000000000000000000000000000000000000000000000000000000000000000000000000000000000000000000000000000000000000000000000e7472697669616c456e6372797074000000000000000000000000000000000000",
          "blockHash": "0x67599d25feaf91369fe2c73a905ade43337e8224e96db17806db72a77de99ff6",
          "blockNumber": "0x8cc9a7",
          "transactionHash": "0xcc51921f4827fdf60823385e12c2168dbd39b20511026da4f46627730de9a234",
          "transactionIndex": "0x57",
          "logIndex": "0x6c",
          "removed": false
        },
        {
          "address": "0xea30c4b8b44078bbf8a6ef5b9f1ec1626c7848d9",
          "topics": [
            "0xe9de54a3e7ddf0c48cc6e1134185300d5a71acbf2d8c21fcdefa9d9dd9e20ac1"
          ],
          "data": "0xb3e26d30bbd0fa3e41a1d86cb7844842fbb2638ed221cf36790bbd9c9f3e800000000000000000000000000000000000000000000000000000000000000000a0000000000000000000000000000000000000000000000000000000000000000100000000000000000000000000000000000000000000000000000000000000000000000000000000000000000000000000000000000000000000000000000000000000000000000000000000000000000000000000000000000000000000000e7472697669616c456e6372797074000000000000000000000000000000000000",
          "blockHash": "0x67599d25feaf91369fe2c73a905ade43337e8224e96db17806db72a77de99ff6",
          "blockNumber": "0x8cc9a7",
          "transactionHash": "0xcc51921f4827fdf60823385e12c2168dbd39b20511026da4f46627730de9a234",
          "transactionIndex": "0x57",
          "logIndex": "0x6d",
          "removed": false
        },
        {
          "address": "0xea30c4b8b44078bbf8a6ef5b9f1ec1626c7848d9",
          "topics": [
            "0xe9de54a3e7ddf0c48cc6e1134185300d5a71acbf2d8c21fcdefa9d9dd9e20ac1"
          ],
          "data": "0xbd85f53fc4f2243f9ffcb22983ba1d224d1e77fdca733b69f7215d316181840000000000000000000000000000000000000000000000000000000000000000a0000000000000000000000000000000000000000000000000000000000000009600000000000000000000000000000000000000000000000000000000000000040000000000000000000000000000000000000000000000000000000000000000000000000000000000000000000000000000000000000000000000000000000e7472697669616c456e6372797074000000000000000000000000000000000000",
          "blockHash": "0x67599d25feaf91369fe2c73a905ade43337e8224e96db17806db72a77de99ff6",
          "blockNumber": "0x8cc9a7",
          "transactionHash": "0xcc51921f4827fdf60823385e12c2168dbd39b20511026da4f46627730de9a234",
          "transactionIndex": "0x57",
          "logIndex": "0x6e",
          "removed": false
        },
        {
          "address": "0x98fb6db4104df971db052a2fc8b7cb760135f880",
          "topics": [
            "0x18ff1c138c5686b85dc8b4338640ccef29de32ff4fec45a3f6f220bee9783e45",
            "0x4dcf687a49efb8ad9f5870afcc7e5b54eb574d69f28d75eb378e46400196541c"
          ],
          "data": "0x000000000000000000000000000000000000000000000000000000000000008000000000000000000000000000000000000000000000000000000000000000c0000000000000000000000000000000000000000000000000000000000000010000000000000000000000000000000000000000000000000000000000000001400000000000000000000000000000000000000000000000000000000000000020a086c907b116b1572126a2ccfaa5f6524f347f8a1d8378ce37b958e0cccc88000000000000000000000000000000000000000000000000000000000000000020cc63d19e9a0f97a43bc73dca1ee8b6f4b645d8919747695fa5d1d0da853a84000000000000000000000000000000000000000000000000000000000000000020cdef58c863398f789d9953afd1326207812f448c90165e6886555071b2f484000000000000000000000000000000000000000000000000000000000000000020b3e26d30bbd0fa3e41a1d86cb7844842fbb2638ed221cf36790bbd9c9f3e8000",
          "blockHash": "0x67599d25feaf91369fe2c73a905ade43337e8224e96db17806db72a77de99ff6",
          "blockNumber": "0x8cc9a7",
          "transactionHash": "0xcc51921f4827fdf60823385e12c2168dbd39b20511026da4f46627730de9a234",
          "transactionIndex": "0x57",
          "logIndex": "0x6f",
          "removed": false
        }
      ],
      "logsBloom": "0x00000000000000000000000000000000080000000000000000000000000000000000000000000000000000000000000000000000008000000000000000200000000000000000000000000000000000000000000008000000000000000000000040000000000000000000000000000000000000000000000000000000000000000000000000000000000000000800000001000000000000000010000000000000000004000000000000000000000000000000000000000000000000000000000000000000000000000000000000000000000000000000080000000000020000000000000000000400000200000000000000000000000000000000020200000000",
      "type": "0x2",
      "transactionHash": "0xcc51921f4827fdf60823385e12c2168dbd39b20511026da4f46627730de9a234",
      "transactionIndex": "0x57",
      "blockHash": "0x67599d25feaf91369fe2c73a905ade43337e8224e96db17806db72a77de99ff6",
      "blockNumber": "0x8cc9a7",
      "gasUsed": "0x30370",
      "effectiveGasPrice": "0xf424f",
      "from": "0x3e723f6b81431f325e3f08e75544f254c182afe2",
      "to": "0x98fb6db4104df971db052a2fc8b7cb760135f880",
      "contractAddress": null
    },
    {
      "status": "0x1",
      "cumulativeGasUsed": "0xc88571",
      "logs": [
        {
          "address": "0xea30c4b8b44078bbf8a6ef5b9f1ec1626c7848d9",
          "topics": [
            "0xe9de54a3e7ddf0c48cc6e1134185300d5a71acbf2d8c21fcdefa9d9dd9e20ac1"
          ],
          "data": "0xc290f19dcf7bceb26e550f2bfc2767777b6b3a2e75644053281b2fc1dc88800000000000000000000000000000000000000000000000000000000000000000a0000000000000000000000000000000000000000000000000000000000000000000000000000000000000000000000000000000000000000000000000000000000000000000000000000000000000000000000000000000000000000000000000000000000000000000000000000000000000000000000000000000000000000e7472697669616c456e6372797074000000000000000000000000000000000000",
          "blockHash": "0x67599d25feaf91369fe2c73a905ade43337e8224e96db17806db72a77de99ff6",
          "blockNumber": "0x8cc9a7",
          "blockTimestamp": "0x68cb97a0",
          "transactionHash": "0x77a59ec56ab465055e50e7c75c6cd687516f42c8cee7b103ff3363aa23ca7364",
          "transactionIndex": "0x5a",
          "logIndex": "0x71",
          "removed": false
        },
        {
          "address": "0x98fb6db4104df971db052a2fc8b7cb760135f880",
          "topics": [
            "0x18ff1c138c5686b85dc8b4338640ccef29de32ff4fec45a3f6f220bee9783e45",
            "0x4dcf687a49efb8ad9f5870afcc7e5b54eb574d69f28d75eb378e46400196541c"
          ],
          "data": "0x000000000000000000000000000000000000000000000000000000000000008000000000000000000000000000000000000000000000000000000000000000c0000000000000000000000000000000000000000000000000000000000000010000000000000000000000000000000000000000000000000000000000000001400000000000000000000000000000000000000000000000000000000000000020a086c907b116b1572126a2ccfaa5f6524f347f8a1d8378ce37b958e0cccc88000000000000000000000000000000000000000000000000000000000000000020cc63d19e9a0f97a43bc73dca1ee8b6f4b645d8919747695fa5d1d0da853a84000000000000000000000000000000000000000000000000000000000000000020cdef58c863398f789d9953afd1326207812f448c90165e6886555071b2f484000000000000000000000000000000000000000000000000000000000000000020c290f19dcf7bceb26e550f2bfc2767777b6b3a2e75644053281b2fc1dc888000",
          "blockHash": "0x67599d25feaf91369fe2c73a905ade43337e8224e96db17806db72a77de99ff6",
          "blockNumber": "0x8cc9a7",
          "blockTimestamp": "0x68cb97a0",
          "transactionHash": "0x77a59ec56ab465055e50e7c75c6cd687516f42c8cee7b103ff3363aa23ca7364",
          "transactionIndex": "0x5a",
          "logIndex": "0x72",
          "removed": false
        }
      ],
      "logsBloom": "0x00000000000000000000000000000000080000000000000000000000000000000000000000000000000000000000000000000000008000000000000000200000000000000000000000000000000000000000000008000000000000000000000040000000000000000000000000000000000000000000000000000000000000000000000000000000000000000800000001000000000000000010000000000000000004000000000000000000000000000000000000000000000000000000000000000000000000000000000000000000000000000000080000000000020000000000000000000400000200000000000000000000000000000000020200000000",
      "type": "0x2",
      "transactionHash": "0x77a59ec56ab465055e50e7c75c6cd687516f42c8cee7b103ff3363aa23ca7364",
      "transactionIndex": "0x5a",
      "blockHash": "0x67599d25feaf91369fe2c73a905ade43337e8224e96db17806db72a77de99ff6",
      "blockNumber": "0x8cc9a7",
      "gasUsed": "0x15608",
      "effectiveGasPrice": "0xf424f",
      "from": "0x3e723f6b81431f325e3f08e75544f254c182afe2",
      "to": "0x98fb6db4104df971db052a2fc8b7cb760135f880",
      "contractAddress": null
    },
    {
      "status": "0x1",
      "cumulativeGasUsed": "0xc9db8a",
      "logs": [
        {
          "address": "0xea30c4b8b44078bbf8a6ef5b9f1ec1626c7848d9",
          "topics": [
            "0xe9de54a3e7ddf0c48cc6e1134185300d5a71acbf2d8c21fcdefa9d9dd9e20ac1"
          ],
          "data": "0xb3e26d30bbd0fa3e41a1d86cb7844842fbb2638ed221cf36790bbd9c9f3e800000000000000000000000000000000000000000000000000000000000000000a0000000000000000000000000000000000000000000000000000000000000000100000000000000000000000000000000000000000000000000000000000000000000000000000000000000000000000000000000000000000000000000000000000000000000000000000000000000000000000000000000000000000000000e7472697669616c456e6372797074000000000000000000000000000000000000",
          "blockHash": "0x67599d25feaf91369fe2c73a905ade43337e8224e96db17806db72a77de99ff6",
          "blockNumber": "0x8cc9a7",
          "blockTimestamp": "0x68cb97a0",
          "transactionHash": "0x8c461c095e5bfeb5f6560cb324517478a7635b85e3a4eac02e0d209eaff52f77",
          "transactionIndex": "0x5b",
          "logIndex": "0x73",
          "removed": false
        },
        {
          "address": "0x98fb6db4104df971db052a2fc8b7cb760135f880",
          "topics": [
            "0x18ff1c138c5686b85dc8b4338640ccef29de32ff4fec45a3f6f220bee9783e45",
            "0x4dcf687a49efb8ad9f5870afcc7e5b54eb574d69f28d75eb378e46400196541c"
          ],
          "data": "0x000000000000000000000000000000000000000000000000000000000000008000000000000000000000000000000000000000000000000000000000000000c0000000000000000000000000000000000000000000000000000000000000010000000000000000000000000000000000000000000000000000000000000001400000000000000000000000000000000000000000000000000000000000000020a086c907b116b1572126a2ccfaa5f6524f347f8a1d8378ce37b958e0cccc88000000000000000000000000000000000000000000000000000000000000000020cc63d19e9a0f97a43bc73dca1ee8b6f4b645d8919747695fa5d1d0da853a84000000000000000000000000000000000000000000000000000000000000000020cdef58c863398f789d9953afd1326207812f448c90165e6886555071b2f484000000000000000000000000000000000000000000000000000000000000000020b3e26d30bbd0fa3e41a1d86cb7844842fbb2638ed221cf36790bbd9c9f3e8000",
          "blockHash": "0x67599d25feaf91369fe2c73a905ade43337e8224e96db17806db72a77de99ff6",
          "blockNumber": "0x8cc9a7",
          "blockTimestamp": "0x68cb97a0",
          "transactionHash": "0x8c461c095e5bfeb5f6560cb324517478a7635b85e3a4eac02e0d209eaff52f77",
          "transactionIndex": "0x5b",
          "logIndex": "0x74",
          "removed": false
        }
      ],
      "logsBloom": "0x00000000000000000000000000000000080000000000000000000000000000000000000000000000000000000000000000000000008000000000000000200000000000000000000000000000000000000000000008000000000000000000000040000000000000000000000000000000000000000000000000000000000000000000000000000000000000000800000001000000000000000010000000000000000004000000000000000000000000000000000000000000000000000000000000000000000000000000000000000000000000000000080000000000020000000000000000000400000200000000000000000000000000000000020200000000",
      "type": "0x2",
      "transactionHash": "0x8c461c095e5bfeb5f6560cb324517478a7635b85e3a4eac02e0d209eaff52f77",
      "transactionIndex": "0x5b",
      "blockHash": "0x67599d25feaf91369fe2c73a905ade43337e8224e96db17806db72a77de99ff6",
      "blockNumber": "0x8cc9a7",
      "gasUsed": "0x15619",
      "effectiveGasPrice": "0xf424f",
      "from": "0x3e723f6b81431f325e3f08e75544f254c182afe2",
      "to": "0x98fb6db4104df971db052a2fc8b7cb760135f880",
      "contractAddress": null
    },
    {
      "status": "0x1",
      "cumulativeGasUsed": "0xca44cb",
      "logs": [
        {
          "address": "0x98fb6db4104df971db052a2fc8b7cb760135f880",
          "topics": [
            "0xf354ce2d046227bb2a8db43674dab621b47724bc45cbc0b228a001245d53fd77",
            "0x4dcf687a49efb8ad9f5870afcc7e5b54eb574d69f28d75eb378e46400196541c"
          ],
          "data": "0x",
          "blockHash": "0x67599d25feaf91369fe2c73a905ade43337e8224e96db17806db72a77de99ff6",
          "blockNumber": "0x8cc9a7",
          "transactionHash": "0x56b4517340bdc315d6648304ba7a6359c50010a66a37cf841e5ddf6caec3f967",
          "transactionIndex": "0x5c",
          "logIndex": "0x75",
          "removed": false
        }
      ],
      "logsBloom": "0x00000800000000000000000000000000000000000000000000000000000000000000000000000000000000000000000000000000000000000000000000200000000000000000000000000000000000000080000000000000000000000000000040000000000000000000000000000000000000000000000000000000000000000000000000000000000000000000000000000000000000000010000000000000000004000000000000000000000000000000000000000000000000000000000000000000000000000000000000000200000000000000000000000000020000000000000000000400000000000000000000000000000000000000000000000000",
      "type": "0x2",
      "transactionHash": "0x56b4517340bdc315d6648304ba7a6359c50010a66a37cf841e5ddf6caec3f967",
      "transactionIndex": "0x5c",
      "blockHash": "0x67599d25feaf91369fe2c73a905ade43337e8224e96db17806db72a77de99ff6",
      "blockNumber": "0x8cc9a7",
      "gasUsed": "0x6941",
      "effectiveGasPrice": "0xf424f",
      "from": "0x3e723f6b81431f325e3f08e75544f254c182afe2",
      "to": "0x98fb6db4104df971db052a2fc8b7cb760135f880",
      "contractAddress": null
    },
    {
      "status": "0x1",
      "cumulativeGasUsed": "0xcb031a",
      "logs": [
        {
          "address": "0x98fb6db4104df971db052a2fc8b7cb760135f880",
          "topics": [
            "0xc4be386fe9fd651a56e42b3b831dd4bf6afaa363eb2d21181fe7e23a8ff50279",
            "0x4dcf687a49efb8ad9f5870afcc7e5b54eb574d69f28d75eb378e46400196541c"
          ],
          "data": "0x",
          "blockHash": "0x67599d25feaf91369fe2c73a905ade43337e8224e96db17806db72a77de99ff6",
          "blockNumber": "0x8cc9a7",
          "blockTimestamp": "0x68cb97a0",
          "transactionHash": "0x31c21739698a3940383b96f9c27fcdb1b364456f4d4361a6ca44f161dcaef3fb",
          "transactionIndex": "0x5d",
          "logIndex": "0x76",
          "removed": false
        }
      ],
      "logsBloom": "0x00000000000000000000000000000000000000000000000000000000000000000000000000000000000000000000000000000000000000000000000000200000000000000000000000000000000000000000000000000000000000000000000040000000000000000000000000000000000000000000000000000000000000100000000000000000000000000000000004000000000000000010000000000000000004001000000000000000000000000000000000000000000000000000000000000000000000000000000000000000000000000000000000000000020000000000000000000400000000000000000000000000000000000000000000000000",
      "type": "0x2",
      "transactionHash": "0x31c21739698a3940383b96f9c27fcdb1b364456f4d4361a6ca44f161dcaef3fb",
      "transactionIndex": "0x5d",
      "blockHash": "0x67599d25feaf91369fe2c73a905ade43337e8224e96db17806db72a77de99ff6",
      "blockNumber": "0x8cc9a7",
      "gasUsed": "0xbe4f",
      "effectiveGasPrice": "0xf424f",
      "from": "0x3e723f6b81431f325e3f08e75544f254c182afe2",
      "to": "0x98fb6db4104df971db052a2fc8b7cb760135f880",
      "contractAddress": null
    },
    {
      "status": "0x1",
      "cumulativeGasUsed": "0xcb6a1b",
      "logs": [
        {
          "address": "0xabc0afb70f325f4119cfca4083ea2a580ec40d3f",
          "topics": [
            "0x8c5be1e5ebec7d5bd14f71427d1e84f3dd0314c0f7b2291e5b200ac8c7c3b925",
            "0x0000000000000000000000003e723f6b81431f325e3f08e75544f254c182afe2",
            "0x000000000000000000000000429ba70129df741b2ca2a85bc3a2a3328e5c09b4"
          ],
          "data": "0xffffffffffffffffffffffffffffffffffffffffffffffffffffffffffffffff",
          "blockHash": "0x67599d25feaf91369fe2c73a905ade43337e8224e96db17806db72a77de99ff6",
          "blockNumber": "0x8cc9a7",
          "blockTimestamp": "0x68cb97a0",
          "transactionHash": "0x62f4c9a2c89ea59134bc1fa564b0a3080cd61e8911066703fb676cb6b1db4c51",
          "transactionIndex": "0x5e",
          "logIndex": "0x77",
          "removed": false
        }
      ],
      "logsBloom": "0x00000000000000000000000000000000000000000000000000000000000000000000000000000040080000000080000000000000080000000000000000200000000000000000000000000000000000100000000000000000000000000000000000000000000000000000000000000000000000000000000000000800000000000000000000000000000000000000000000000000000000000000000000000000020000000000004080000000000000000000000000000000000010000000000000000000000000000000000000000000000000000000000000000000000000000010000000000000000000000000000000000000000000000000000000000000",
      "type": "0x2",
      "transactionHash": "0x62f4c9a2c89ea59134bc1fa564b0a3080cd61e8911066703fb676cb6b1db4c51",
      "transactionIndex": "0x5e",
      "blockHash": "0x67599d25feaf91369fe2c73a905ade43337e8224e96db17806db72a77de99ff6",
      "blockNumber": "0x8cc9a7",
      "gasUsed": "0x6701",
      "effectiveGasPrice": "0xf424f",
      "from": "0x3e723f6b81431f325e3f08e75544f254c182afe2",
      "to": "0xabc0afb70f325f4119cfca4083ea2a580ec40d3f",
      "contractAddress": null
    },
    {
      "status": "0x1",
      "cumulativeGasUsed": "0xcbd11c",
      "logs": [
        {
          "address": "0x3e68f0f304314495fa45907170a59d0ba5218bcc",
          "topics": [
            "0x8c5be1e5ebec7d5bd14f71427d1e84f3dd0314c0f7b2291e5b200ac8c7c3b925",
            "0x0000000000000000000000003e723f6b81431f325e3f08e75544f254c182afe2",
            "0x000000000000000000000000429ba70129df741b2ca2a85bc3a2a3328e5c09b4"
          ],
          "data": "0xffffffffffffffffffffffffffffffffffffffffffffffffffffffffffffffff",
          "blockHash": "0x67599d25feaf91369fe2c73a905ade43337e8224e96db17806db72a77de99ff6",
          "blockNumber": "0x8cc9a7",
          "transactionHash": "0xf3cb100f271bfd7241e288c96e00cdd7f3ea87fe25e866c3c9ab03fc3511b145",
          "transactionIndex": "0x5f",
          "logIndex": "0x78",
          "removed": false
        }
      ],
      "logsBloom": "0x00000000000000000000000000000000000000000000000000000000000000000000000000000040080000000000000000000000080000800000000000200000000000000000000000000000000000000000000000000000000000000000000000000000000000000000000000000000000000000000000000000800000000000000000000000000000000000000000000000000000000000000000000000000020000000000000080000000000000000000000000002000000010000000000000000000000000000000000000000000000000000000000000000000000000400010000000000000000000000000000000000000000000000000000000000000",
      "type": "0x2",
      "transactionHash": "0xf3cb100f271bfd7241e288c96e00cdd7f3ea87fe25e866c3c9ab03fc3511b145",
      "transactionIndex": "0x5f",
      "blockHash": "0x67599d25feaf91369fe2c73a905ade43337e8224e96db17806db72a77de99ff6",
      "blockNumber": "0x8cc9a7",
      "gasUsed": "0x6701",
      "effectiveGasPrice": "0xf424f",
      "from": "0x3e723f6b81431f325e3f08e75544f254c182afe2",
      "to": "0x3e68f0f304314495fa45907170a59d0ba5218bcc",
      "contractAddress": null
    },
    {
      "status": "0x1",
      "cumulativeGasUsed": "0xcc37e1",
      "logs": [
        {
          "address": "0xabc0afb70f325f4119cfca4083ea2a580ec40d3f",
          "topics": [
            "0x8c5be1e5ebec7d5bd14f71427d1e84f3dd0314c0f7b2291e5b200ac8c7c3b925",
            "0x0000000000000000000000003e723f6b81431f325e3f08e75544f254c182afe2",
            "0x000000000000000000000000000000000022d473030f116ddee9f6b43ac78ba3"
          ],
          "data": "0xffffffffffffffffffffffffffffffffffffffffffffffffffffffffffffffff",
          "blockHash": "0x67599d25feaf91369fe2c73a905ade43337e8224e96db17806db72a77de99ff6",
          "blockNumber": "0x8cc9a7",
          "blockTimestamp": "0x68cb97a0",
          "transactionHash": "0xa3f2765bbad7ccd161c8641ce2c861cc1f6a586b00c1272f40a7498ad96c05a0",
          "transactionIndex": "0x60",
          "logIndex": "0x79",
          "removed": false
        }
      ],
      "logsBloom": "0x00000000000000000000000000000000000000000000000000000000000000000000000000000000000000000080000000000000880000000000000000200000000000000000000000004000000000100000000000000800000000000000000000000000000000000000000000000000000000000000000000000000000000000000000000000000000000000000000000000000000000000000000000000000020000000000004080000000000000000000000000000000000010000000000000000000000000000000000000000000000000000000000000000000000000000010000000000000000000000000000000000000000000000000000000000000",
      "type": "0x2",
      "transactionHash": "0xa3f2765bbad7ccd161c8641ce2c861cc1f6a586b00c1272f40a7498ad96c05a0",
      "transactionIndex": "0x60",
      "blockHash": "0x67599d25feaf91369fe2c73a905ade43337e8224e96db17806db72a77de99ff6",
      "blockNumber": "0x8cc9a7",
      "gasUsed": "0x66c5",
      "effectiveGasPrice": "0xf424f",
      "from": "0x3e723f6b81431f325e3f08e75544f254c182afe2",
      "to": "0xabc0afb70f325f4119cfca4083ea2a580ec40d3f",
      "contractAddress": null
    },
    {
      "status": "0x1",
      "cumulativeGasUsed": "0xcca4ef",
      "logs": [
        {
          "address": "0x000000000022d473030f116ddee9f6b43ac78ba3",
          "topics": [
            "0xda9fa7c1b00402c17d0161b249b1ab8bbec047c5a52207b9c112deffd817036b",
            "0x0000000000000000000000003e723f6b81431f325e3f08e75544f254c182afe2",
            "0x000000000000000000000000abc0afb70f325f4119cfca4083ea2a580ec40d3f",
            "0x000000000000000000000000429ba70129df741b2ca2a85bc3a2a3328e5c09b4"
          ],
          "data": "0x000000000000000000000000ffffffffffffffffffffffffffffffffffffffff0000000000000000000000000000000000000000000000000000ffffffffffff",
          "blockHash": "0x67599d25feaf91369fe2c73a905ade43337e8224e96db17806db72a77de99ff6",
          "blockNumber": "0x8cc9a7",
          "blockTimestamp": "0x68cb97a0",
          "transactionHash": "0x3d408182cfc1fc6f9ff586945c18c79ab443ce8fc73a028af48dd579a6610182",
          "transactionIndex": "0x61",
          "logIndex": "0x7a",
          "removed": false
        }
      ],
      "logsBloom": "0x00010000000000000000000000000000000000000000000000000000000000000000000000000040080000000000000000000000080000000000000000080000000000000000000000000000000000000000000000000000000000000000000000000000000000000000000000000010000000000000000000000800000000000020000000000000000002000000000000000000000000000000000000000000000000000000000080000000000000000000000000000000000010080000000000000000000000000000000000000000000000000000000040000000000000000000000000000000000000000000000000000000000000400000000000000400",
      "type": "0x2",
      "transactionHash": "0x3d408182cfc1fc6f9ff586945c18c79ab443ce8fc73a028af48dd579a6610182",
      "transactionIndex": "0x61",
      "blockHash": "0x67599d25feaf91369fe2c73a905ade43337e8224e96db17806db72a77de99ff6",
      "blockNumber": "0x8cc9a7",
      "gasUsed": "0x6d0e",
      "effectiveGasPrice": "0xf424f",
      "from": "0x3e723f6b81431f325e3f08e75544f254c182afe2",
      "to": "0x000000000022d473030f116ddee9f6b43ac78ba3",
      "contractAddress": null
    },
    {
      "status": "0x1",
      "cumulativeGasUsed": "0xcd0bb4",
      "logs": [
        {
          "address": "0x3e68f0f304314495fa45907170a59d0ba5218bcc",
          "topics": [
            "0x8c5be1e5ebec7d5bd14f71427d1e84f3dd0314c0f7b2291e5b200ac8c7c3b925",
            "0x0000000000000000000000003e723f6b81431f325e3f08e75544f254c182afe2",
            "0x000000000000000000000000000000000022d473030f116ddee9f6b43ac78ba3"
          ],
          "data": "0xffffffffffffffffffffffffffffffffffffffffffffffffffffffffffffffff",
          "blockHash": "0x67599d25feaf91369fe2c73a905ade43337e8224e96db17806db72a77de99ff6",
          "blockNumber": "0x8cc9a7",
          "blockTimestamp": "0x68cb97a0",
          "transactionHash": "0x68073fcfc789090b666878c86e8eda13771d593d8cd30b9d50158a25d4f21af0",
          "transactionIndex": "0x62",
          "logIndex": "0x7b",
          "removed": false
        }
      ],
      "logsBloom": "0x00000000000000000000000000000000000000000000000000000000000000000000000000000000000000000000000000000000880000800000000000200000000000000000000000004000000000000000000000000800000000000000000000000000000000000000000000000000000000000000000000000000000000000000000000000000000000000000000000000000000000000000000000000000020000000000000080000000000000000000000000002000000010000000000000000000000000000000000000000000000000000000000000000000000000400010000000000000000000000000000000000000000000000000000000000000",
      "type": "0x2",
      "transactionHash": "0x68073fcfc789090b666878c86e8eda13771d593d8cd30b9d50158a25d4f21af0",
      "transactionIndex": "0x62",
      "blockHash": "0x67599d25feaf91369fe2c73a905ade43337e8224e96db17806db72a77de99ff6",
      "blockNumber": "0x8cc9a7",
      "gasUsed": "0x66c5",
      "effectiveGasPrice": "0xf424f",
      "from": "0x3e723f6b81431f325e3f08e75544f254c182afe2",
      "to": "0x3e68f0f304314495fa45907170a59d0ba5218bcc",
      "contractAddress": null
    },
    {
      "status": "0x1",
      "cumulativeGasUsed": "0xcdcaca",
      "logs": [
        {
          "address": "0x000000000022d473030f116ddee9f6b43ac78ba3",
          "topics": [
            "0xda9fa7c1b00402c17d0161b249b1ab8bbec047c5a52207b9c112deffd817036b",
            "0x0000000000000000000000003e723f6b81431f325e3f08e75544f254c182afe2",
            "0x0000000000000000000000003e68f0f304314495fa45907170a59d0ba5218bcc",
            "0x000000000000000000000000429ba70129df741b2ca2a85bc3a2a3328e5c09b4"
          ],
          "data": "0x000000000000000000000000ffffffffffffffffffffffffffffffffffffffff0000000000000000000000000000000000000000000000000000ffffffffffff",
          "blockHash": "0x67599d25feaf91369fe2c73a905ade43337e8224e96db17806db72a77de99ff6",
          "blockNumber": "0x8cc9a7",
          "transactionHash": "0x8b216cbe425ebf82ca7a2cf61eeb01d3856cdddfc0a740dc9e478f0044275c64",
          "transactionIndex": "0x64",
          "logIndex": "0x7c",
          "removed": false
        }
      ],
      "logsBloom": "0x00010000000000000000000000000000000000000000000000000000000000000000000000000040080040000000000000000000080000000000000000080000000000000000000000000000000000000000000000000000000000000000000000000000000000000000000000000000000000000000000000000800000000000020000000000000000000000000000000000000000000000000000000010000000000000000000080000000000000000000000000000000000010080000000000000000000000000000000000000000000000000000000040000000000000000000000000000000000000000000000000000000000000000000000000000400",
      "type": "0x2",
      "transactionHash": "0x8b216cbe425ebf82ca7a2cf61eeb01d3856cdddfc0a740dc9e478f0044275c64",
      "transactionIndex": "0x64",
      "blockHash": "0x67599d25feaf91369fe2c73a905ade43337e8224e96db17806db72a77de99ff6",
      "blockNumber": "0x8cc9a7",
      "gasUsed": "0x6d0e",
      "effectiveGasPrice": "0xf424f",
      "from": "0x3e723f6b81431f325e3f08e75544f254c182afe2",
      "to": "0x000000000022d473030f116ddee9f6b43ac78ba3",
      "contractAddress": null
    },
    {
      "status": "0x1",
      "cumulativeGasUsed": "0xd17153",
      "logs": [
        {
          "address": "0x429ba70129df741b2ca2a85bc3a2a3328e5c09b4",
          "topics": [
            "0xddf252ad1be2c89b69c2b068fc378daa952ba7f163c4a11628f55a4df523b3ef",
            "0x0000000000000000000000000000000000000000000000000000000000000000",
            "0x0000000000000000000000003e723f6b81431f325e3f08e75544f254c182afe2",
            "0x000000000000000000000000000000000000000000000000000000000000432f"
          ],
          "data": "0x",
          "blockHash": "0x67599d25feaf91369fe2c73a905ade43337e8224e96db17806db72a77de99ff6",
          "blockNumber": "0x8cc9a7",
          "blockTimestamp": "0x68cb97a0",
          "transactionHash": "0xadbe067e45ff85cc5e6164dcb47829a811043d1c7cadeb6b25ac021209654a94",
          "transactionIndex": "0x65",
          "logIndex": "0x7d",
          "removed": false
        },
        {
          "address": "0xe03a1074c86cfedd5c142c4f04f1a1536e203543",
          "topics": [
            "0xf208f4912782fd25c7f114ca3723a2d5dd6f3bcc3ac8db5af63baa85f711d5ec",
            "0x6c28d2b60906a79ceadbbc225031033505ffc8027aa0d19cfea7a21574375983",
            "0x000000000000000000000000429ba70129df741b2ca2a85bc3a2a3328e5c09b4"
          ],
          "data": "0xfffffffffffffffffffffffffffffffffffffffffffffffffffffffffffffed4000000000000000000000000000000000000000000000000000000000000012c00000000000000000000000000000000000000000000000000000000280984f2000000000000000000000000000000000000000000000000000000000000432f",
          "blockHash": "0x67599d25feaf91369fe2c73a905ade43337e8224e96db17806db72a77de99ff6",
          "blockNumber": "0x8cc9a7",
          "blockTimestamp": "0x68cb97a0",
          "transactionHash": "0xadbe067e45ff85cc5e6164dcb47829a811043d1c7cadeb6b25ac021209654a94",
          "transactionIndex": "0x65",
          "logIndex": "0x7e",
          "removed": false
        },
        {
          "address": "0x3e68f0f304314495fa45907170a59d0ba5218bcc",
          "topics": [
            "0xddf252ad1be2c89b69c2b068fc378daa952ba7f163c4a11628f55a4df523b3ef",
            "0x0000000000000000000000003e723f6b81431f325e3f08e75544f254c182afe2",
            "0x000000000000000000000000e03a1074c86cfedd5c142c4f04f1a1536e203543"
          ],
          "data": "0x0000000000000000000000000000000000000000000000000000000000989680",
          "blockHash": "0x67599d25feaf91369fe2c73a905ade43337e8224e96db17806db72a77de99ff6",
          "blockNumber": "0x8cc9a7",
          "blockTimestamp": "0x68cb97a0",
          "transactionHash": "0xadbe067e45ff85cc5e6164dcb47829a811043d1c7cadeb6b25ac021209654a94",
          "transactionIndex": "0x65",
          "logIndex": "0x7f",
          "removed": false
        },
        {
          "address": "0xabc0afb70f325f4119cfca4083ea2a580ec40d3f",
          "topics": [
            "0xddf252ad1be2c89b69c2b068fc378daa952ba7f163c4a11628f55a4df523b3ef",
            "0x0000000000000000000000003e723f6b81431f325e3f08e75544f254c182afe2",
            "0x000000000000000000000000e03a1074c86cfedd5c142c4f04f1a1536e203543"
          ],
          "data": "0x0000000000000000000000000000000000000000000000000000000000989680",
          "blockHash": "0x67599d25feaf91369fe2c73a905ade43337e8224e96db17806db72a77de99ff6",
          "blockNumber": "0x8cc9a7",
          "blockTimestamp": "0x68cb97a0",
          "transactionHash": "0xadbe067e45ff85cc5e6164dcb47829a811043d1c7cadeb6b25ac021209654a94",
          "transactionIndex": "0x65",
          "logIndex": "0x80",
          "removed": false
        }
      ],
      "logsBloom": "0x00000000000000800000001000000000000000000000000000000000080000000000000000000040080000000080000000000100080000800000000000000000000000000004000000000008000000100000000000000000000000000000000000000000020000000000000080000840010000000000100000000810000000000000000001000000000010000000000000000000000000000000000000020000000004000000004080000000000004000000000000402000000010000000000000000002000000000000000000000000000000000000000000001000000020401000000000000000000000000000000004000000000000000000000000000000",
      "type": "0x2",
      "transactionHash": "0xadbe067e45ff85cc5e6164dcb47829a811043d1c7cadeb6b25ac021209654a94",
      "transactionIndex": "0x65",
      "blockHash": "0x67599d25feaf91369fe2c73a905ade43337e8224e96db17806db72a77de99ff6",
      "blockNumber": "0x8cc9a7",
      "gasUsed": "0x3a689",
      "effectiveGasPrice": "0xf424f",
      "from": "0x3e723f6b81431f325e3f08e75544f254c182afe2",
      "to": "0x429ba70129df741b2ca2a85bc3a2a3328e5c09b4",
      "contractAddress": null
    },
    {
      "status": "0x1",
      "cumulativeGasUsed": "0xd1d848",
      "logs": [
        {
          "address": "0xabc0afb70f325f4119cfca4083ea2a580ec40d3f",
          "topics": [
            "0x8c5be1e5ebec7d5bd14f71427d1e84f3dd0314c0f7b2291e5b200ac8c7c3b925",
            "0x0000000000000000000000003e723f6b81431f325e3f08e75544f254c182afe2",
            "0x000000000000000000000000f13d190e9117920c703d79b5f33732e10049b115"
          ],
          "data": "0xffffffffffffffffffffffffffffffffffffffffffffffffffffffffffffffff",
          "blockHash": "0x67599d25feaf91369fe2c73a905ade43337e8224e96db17806db72a77de99ff6",
          "blockNumber": "0x8cc9a7",
          "transactionHash": "0x603750fa7123139b2f1287949775237c99cb62d0b23030633969d492e0577550",
          "transactionIndex": "0x66",
          "logIndex": "0x81",
          "removed": false
        }
      ],
      "logsBloom": "0x00000000000000000000000000000000000000000000000000800000000000000000000000000000000000000080000000000000080000000000000000200000000000000000000000000000000000100000000000000000000000000000000000000000000000000000000000000000000000000000000000000000000000000000000000080000000000000000000000000000000000000000000000000000020000000000004080000000000000000000000000000000000010000000000000000000000000000000000000000000000000000000000000000000000080000010000000000000000000000000000000000000000000000000000000000000",
      "type": "0x2",
      "transactionHash": "0x603750fa7123139b2f1287949775237c99cb62d0b23030633969d492e0577550",
      "transactionIndex": "0x66",
      "blockHash": "0x67599d25feaf91369fe2c73a905ade43337e8224e96db17806db72a77de99ff6",
      "blockNumber": "0x8cc9a7",
      "gasUsed": "0x66f5",
      "effectiveGasPrice": "0xf424f",
      "from": "0x3e723f6b81431f325e3f08e75544f254c182afe2",
      "to": "0xabc0afb70f325f4119cfca4083ea2a580ec40d3f",
      "contractAddress": null
    },
    {
      "status": "0x1",
      "cumulativeGasUsed": "0xd23f3d",
      "logs": [
        {
          "address": "0x3e68f0f304314495fa45907170a59d0ba5218bcc",
          "topics": [
            "0x8c5be1e5ebec7d5bd14f71427d1e84f3dd0314c0f7b2291e5b200ac8c7c3b925",
            "0x0000000000000000000000003e723f6b81431f325e3f08e75544f254c182afe2",
            "0x000000000000000000000000f13d190e9117920c703d79b5f33732e10049b115"
          ],
          "data": "0xffffffffffffffffffffffffffffffffffffffffffffffffffffffffffffffff",
          "blockHash": "0x67599d25feaf91369fe2c73a905ade43337e8224e96db17806db72a77de99ff6",
          "blockNumber": "0x8cc9a7",
          "blockTimestamp": "0x68cb97a0",
          "transactionHash": "0x6f9f59414a454148d888299e8c6c606ffa9b45b2c48ad4d1fe7c8086e0ffa886",
          "transactionIndex": "0x67",
          "logIndex": "0x82",
          "removed": false
        }
      ],
      "logsBloom": "0x00000000000000000000000000000000000000000000000000800000000000000000000000000000000000000000000000000000080000800000000000200000000000000000000000000000000000000000000000000000000000000000000000000000000000000000000000000000000000000000000000000000000000000000000000080000000000000000000000000000000000000000000000000000020000000000000080000000000000000000000000002000000010000000000000000000000000000000000000000000000000000000000000000000000080400010000000000000000000000000000000000000000000000000000000000000",
      "type": "0x2",
      "transactionHash": "0x6f9f59414a454148d888299e8c6c606ffa9b45b2c48ad4d1fe7c8086e0ffa886",
      "transactionIndex": "0x67",
      "blockHash": "0x67599d25feaf91369fe2c73a905ade43337e8224e96db17806db72a77de99ff6",
      "blockNumber": "0x8cc9a7",
      "gasUsed": "0x66f5",
      "effectiveGasPrice": "0xf424f",
      "from": "0x3e723f6b81431f325e3f08e75544f254c182afe2",
      "to": "0x3e68f0f304314495fa45907170a59d0ba5218bcc",
      "contractAddress": null
    }
  ],
  "libraries": [],
  "pending": [],
  "returns": {},
  "timestamp": 1758173089208,
  "chain": 11155111,
  "commit": "7b9c819"
}