{
  "transactions": [
    {
      "hash": "0x5f7e57f73054b707159f75748cb87e5c4f6f8b3486234b311635eed2e1e3ffc6",
      "transactionType": "CALL",
      "contractName": null,
      "contractAddress": "0xa502683ee305567d36a7ce8d7ed5952cf816f880",
      "function": "configureEncryptedRebalancingStrategy((address,address,uint24,int24,address),uint24,uint32,int24,bool,uint24)",
      "arguments": [
        "(0x3e68f0F304314495fa45907170a59D0BA5218bCc, 0xabc0Afb70F325F4119cFCA4083EA2A580Ec40D3F, 3000, 60, 0xa502683Ee305567D36a7Ce8d7ED5952CF816f880)",
        "500",
        "3600",
        "200",
        "true",
        "150"
      ],
      "transaction": {
        "from": "0x3e723f6b81431f325e3f08e75544f254c182afe2",
        "to": "0xa502683ee305567d36a7ce8d7ed5952cf816f880",
        "gas": "0x605f7",
        "value": "0x0",
        "input": "0xa9eb74780000000000000000000000003e68f0f304314495fa45907170a59d0ba5218bcc000000000000000000000000abc0afb70f325f4119cfca4083ea2a580ec40d3f0000000000000000000000000000000000000000000000000000000000000bb8000000000000000000000000000000000000000000000000000000000000003c000000000000000000000000a502683ee305567d36a7ce8d7ed5952cf816f88000000000000000000000000000000000000000000000000000000000000001f40000000000000000000000000000000000000000000000000000000000000e1000000000000000000000000000000000000000000000000000000000000000c800000000000000000000000000000000000000000000000000000000000000010000000000000000000000000000000000000000000000000000000000000096",
        "nonce": "0x5fd",
        "chainId": "0xaa36a7"
      },
      "additionalContracts": [],
      "isFixedGasLimit": false
    },
    {
      "hash": "0x40be138667d9689a8f51735e9fa5010e03672b85227f162412883a4cfaa46c35",
      "transactionType": "CALL",
      "contractName": null,
      "contractAddress": "0xa502683ee305567d36a7ce8d7ed5952cf816f880",
      "function": "pausePoolRebalancing((address,address,uint24,int24,address))",
      "arguments": [
        "(0x3e68f0F304314495fa45907170a59D0BA5218bCc, 0xabc0Afb70F325F4119cFCA4083EA2A580Ec40D3F, 3000, 60, 0xa502683Ee305567D36a7Ce8d7ED5952CF816f880)"
      ],
      "transaction": {
        "from": "0x3e723f6b81431f325e3f08e75544f254c182afe2",
        "to": "0xa502683ee305567d36a7ce8d7ed5952cf816f880",
        "gas": "0x1d86d",
        "value": "0x0",
        "input": "0xfbdd948f0000000000000000000000003e68f0f304314495fa45907170a59d0ba5218bcc000000000000000000000000abc0afb70f325f4119cfca4083ea2a580ec40d3f0000000000000000000000000000000000000000000000000000000000000bb8000000000000000000000000000000000000000000000000000000000000003c000000000000000000000000a502683ee305567d36a7ce8d7ed5952cf816f880",
        "nonce": "0x5fe",
        "chainId": "0xaa36a7"
      },
      "additionalContracts": [],
      "isFixedGasLimit": false
    },
    {
      "hash": "0xd7d0bc8d9aaa3e5a3423ad8e35072e806fb72e9d1536396c99e95e209e5219cf",
      "transactionType": "CALL",
      "contractName": null,
      "contractAddress": "0xa502683ee305567d36a7ce8d7ed5952cf816f880",
      "function": "resumePoolRebalancing((address,address,uint24,int24,address))",
      "arguments": [
        "(0x3e68f0F304314495fa45907170a59D0BA5218bCc, 0xabc0Afb70F325F4119cFCA4083EA2A580Ec40D3F, 3000, 60, 0xa502683Ee305567D36a7Ce8d7ED5952CF816f880)"
      ],
      "transaction": {
        "from": "0x3e723f6b81431f325e3f08e75544f254c182afe2",
        "to": "0xa502683ee305567d36a7ce8d7ed5952cf816f880",
        "gas": "0x1f451",
        "value": "0x0",
        "input": "0xfe0389100000000000000000000000003e68f0f304314495fa45907170a59d0ba5218bcc000000000000000000000000abc0afb70f325f4119cfca4083ea2a580ec40d3f0000000000000000000000000000000000000000000000000000000000000bb8000000000000000000000000000000000000000000000000000000000000003c000000000000000000000000a502683ee305567d36a7ce8d7ed5952cf816f880",
        "nonce": "0x5ff",
        "chainId": "0xaa36a7"
      },
      "additionalContracts": [],
      "isFixedGasLimit": false
    },
    {
      "hash": "0x18915aa195a444f2b75acf0fa5c3cbe44eabaa4f6ba19c0e4d783dc54e823340",
      "transactionType": "CALL",
      "contractName": null,
      "contractAddress": "0xa502683ee305567d36a7ce8d7ed5952cf816f880",
      "function": "deactivatePool((address,address,uint24,int24,address))",
      "arguments": [
        "(0x3e68f0F304314495fa45907170a59D0BA5218bCc, 0xabc0Afb70F325F4119cFCA4083EA2A580Ec40D3F, 3000, 60, 0xa502683Ee305567D36a7Ce8d7ED5952CF816f880)"
      ],
      "transaction": {
        "from": "0x3e723f6b81431f325e3f08e75544f254c182afe2",
        "to": "0xa502683ee305567d36a7ce8d7ed5952cf816f880",
        "gas": "0xa55b",
        "value": "0x0",
        "input": "0x7a2486b50000000000000000000000003e68f0f304314495fa45907170a59d0ba5218bcc000000000000000000000000abc0afb70f325f4119cfca4083ea2a580ec40d3f0000000000000000000000000000000000000000000000000000000000000bb8000000000000000000000000000000000000000000000000000000000000003c000000000000000000000000a502683ee305567d36a7ce8d7ed5952cf816f880",
        "nonce": "0x600",
        "chainId": "0xaa36a7"
      },
      "additionalContracts": [],
      "isFixedGasLimit": false
    },
    {
      "hash": "0x37d83a023145f38e69dfbbbc407cfd99d3812ba6f66e270129f7e174b42fb861",
      "transactionType": "CALL",
      "contractName": null,
      "contractAddress": "0xa502683ee305567d36a7ce8d7ed5952cf816f880",
      "function": "reactivatePool((address,address,uint24,int24,address))",
      "arguments": [
        "(0x3e68f0F304314495fa45907170a59D0BA5218bCc, 0xabc0Afb70F325F4119cFCA4083EA2A580Ec40D3F, 3000, 60, 0xa502683Ee305567D36a7Ce8d7ED5952CF816f880)"
      ],
      "transaction": {
        "from": "0x3e723f6b81431f325e3f08e75544f254c182afe2",
        "to": "0xa502683ee305567d36a7ce8d7ed5952cf816f880",
        "gas": "0x106db",
        "value": "0x0",
        "input": "0x54ee1e530000000000000000000000003e68f0f304314495fa45907170a59d0ba5218bcc000000000000000000000000abc0afb70f325f4119cfca4083ea2a580ec40d3f0000000000000000000000000000000000000000000000000000000000000bb8000000000000000000000000000000000000000000000000000000000000003c000000000000000000000000a502683ee305567d36a7ce8d7ed5952cf816f880",
        "nonce": "0x601",
        "chainId": "0xaa36a7"
      },
      "additionalContracts": [],
      "isFixedGasLimit": false
    },
    {
      "hash": "0xd91ff8005084242612b34e308aea0aa97ba73c4e6338287ad0ce413f9a92b358",
      "transactionType": "CALL",
      "contractName": null,
      "contractAddress": "0xe03a1074c86cfedd5c142c4f04f1a1536e203543",
      "function": "initialize((address,address,uint24,int24,address),uint160)",
      "arguments": [
        "(0x3e68f0F304314495fa45907170a59D0BA5218bCc, 0xabc0Afb70F325F4119cFCA4083EA2A580Ec40D3F, 3000, 60, 0xa502683Ee305567D36a7Ce8d7ED5952CF816f880)",
        "79228162514264337593543950336"
      ],
      "transaction": {
        "from": "0x3e723f6b81431f325e3f08e75544f254c182afe2",
        "to": "0xe03a1074c86cfedd5c142c4f04f1a1536e203543",
        "gas": "0x6a8df",
        "value": "0x0",
        "input": "0x6276cbbe0000000000000000000000003e68f0f304314495fa45907170a59d0ba5218bcc000000000000000000000000abc0afb70f325f4119cfca4083ea2a580ec40d3f0000000000000000000000000000000000000000000000000000000000000bb8000000000000000000000000000000000000000000000000000000000000003c000000000000000000000000a502683ee305567d36a7ce8d7ed5952cf816f8800000000000000000000000000000000000000001000000000000000000000000",
        "nonce": "0x602",
        "chainId": "0xaa36a7"
      },
      "additionalContracts": [],
      "isFixedGasLimit": false
    },
    {
      "hash": "0xa06cc5638d8026f39adbb4516925129060a927770b9355447e2ddde46df38d30",
      "transactionType": "CALL",
      "contractName": null,
      "contractAddress": "0xabc0afb70f325f4119cfca4083ea2a580ec40d3f",
      "function": "approve(address,uint256)",
      "arguments": [
        "0x429ba70129df741B2Ca2a85BC3A2a3328e5c09b4",
        "115792089237316195423570985008687907853269984665640564039457584007913129639935"
      ],
      "transaction": {
        "from": "0x3e723f6b81431f325e3f08e75544f254c182afe2",
        "to": "0xabc0afb70f325f4119cfca4083ea2a580ec40d3f",
        "gas": "0x96a4",
        "value": "0x0",
        "input": "0x095ea7b3000000000000000000000000429ba70129df741b2ca2a85bc3a2a3328e5c09b4ffffffffffffffffffffffffffffffffffffffffffffffffffffffffffffffff",
        "nonce": "0x603",
        "chainId": "0xaa36a7"
      },
      "additionalContracts": [],
      "isFixedGasLimit": false
    },
    {
      "hash": "0x79b95f9eb8266e3d1b54fb471dfe6cf4222eeae36c8c64331cb86da04a655417",
      "transactionType": "CALL",
      "contractName": null,
      "contractAddress": "0x3e68f0f304314495fa45907170a59d0ba5218bcc",
      "function": "approve(address,uint256)",
      "arguments": [
        "0x429ba70129df741B2Ca2a85BC3A2a3328e5c09b4",
        "115792089237316195423570985008687907853269984665640564039457584007913129639935"
      ],
      "transaction": {
        "from": "0x3e723f6b81431f325e3f08e75544f254c182afe2",
        "to": "0x3e68f0f304314495fa45907170a59d0ba5218bcc",
        "gas": "0x96a4",
        "value": "0x0",
        "input": "0x095ea7b3000000000000000000000000429ba70129df741b2ca2a85bc3a2a3328e5c09b4ffffffffffffffffffffffffffffffffffffffffffffffffffffffffffffffff",
        "nonce": "0x604",
        "chainId": "0xaa36a7"
      },
      "additionalContracts": [],
      "isFixedGasLimit": false
    },
    {
      "hash": "0x91a4f11f0f80185c60226745325e537ad45fc7d89a409b0f952da84e0a59f27c",
      "transactionType": "CALL",
      "contractName": null,
      "contractAddress": "0xabc0afb70f325f4119cfca4083ea2a580ec40d3f",
      "function": "approve(address,uint256)",
      "arguments": [
        "0x000000000022D473030F116dDEE9F6B43aC78BA3",
        "115792089237316195423570985008687907853269984665640564039457584007913129639935"
      ],
      "transaction": {
        "from": "0x3e723f6b81431f325e3f08e75544f254c182afe2",
        "to": "0xabc0afb70f325f4119cfca4083ea2a580ec40d3f",
        "gas": "0x8df2",
        "value": "0x0",
        "input": "0x095ea7b3000000000000000000000000000000000022d473030f116ddee9f6b43ac78ba3ffffffffffffffffffffffffffffffffffffffffffffffffffffffffffffffff",
        "nonce": "0x605",
        "chainId": "0xaa36a7"
      },
      "additionalContracts": [],
      "isFixedGasLimit": false
    },
    {
      "hash": "0x5062eb57679e5ae33eba9b0a0fffc89077282ae48ec004e839b4e974ab194230",
      "transactionType": "CALL",
      "contractName": null,
      "contractAddress": "0x000000000022d473030f116ddee9f6b43ac78ba3",
      "function": "approve(address,address,uint160,uint48)",
      "arguments": [
        "0xabc0Afb70F325F4119cFCA4083EA2A580Ec40D3F",
        "0x429ba70129df741B2Ca2a85BC3A2a3328e5c09b4",
        "1461501637330902918203684832716283019655932542975",
        "281474976710655"
      ],
      "transaction": {
        "from": "0x3e723f6b81431f325e3f08e75544f254c182afe2",
        "to": "0x000000000022d473030f116ddee9f6b43ac78ba3",
        "gas": "0x96a0",
        "value": "0x0",
        "input": "0x87517c45000000000000000000000000abc0afb70f325f4119cfca4083ea2a580ec40d3f000000000000000000000000429ba70129df741b2ca2a85bc3a2a3328e5c09b4000000000000000000000000ffffffffffffffffffffffffffffffffffffffff0000000000000000000000000000000000000000000000000000ffffffffffff",
        "nonce": "0x606",
        "chainId": "0xaa36a7"
      },
      "additionalContracts": [],
      "isFixedGasLimit": false
    },
    {
      "hash": "0xb13e9f528ef97804eec323c59ad1712179e4834dbcb62c9fe66c0dbc14637152",
      "transactionType": "CALL",
      "contractName": null,
      "contractAddress": "0x3e68f0f304314495fa45907170a59d0ba5218bcc",
      "function": "approve(address,uint256)",
      "arguments": [
        "0x000000000022D473030F116dDEE9F6B43aC78BA3",
        "115792089237316195423570985008687907853269984665640564039457584007913129639935"
      ],
      "transaction": {
        "from": "0x3e723f6b81431f325e3f08e75544f254c182afe2",
        "to": "0x3e68f0f304314495fa45907170a59d0ba5218bcc",
        "gas": "0x8df2",
        "value": "0x0",
        "input": "0x095ea7b3000000000000000000000000000000000022d473030f116ddee9f6b43ac78ba3ffffffffffffffffffffffffffffffffffffffffffffffffffffffffffffffff",
        "nonce": "0x607",
        "chainId": "0xaa36a7"
      },
      "additionalContracts": [],
      "isFixedGasLimit": false
    },
    {
      "hash": "0x5965be32ed56e9050e7a5772e63994291613433f312fed7945769f482e0b05d3",
      "transactionType": "CALL",
      "contractName": null,
      "contractAddress": "0x000000000022d473030f116ddee9f6b43ac78ba3",
      "function": "approve(address,address,uint160,uint48)",
      "arguments": [
        "0x3e68f0F304314495fa45907170a59D0BA5218bCc",
        "0x429ba70129df741B2Ca2a85BC3A2a3328e5c09b4",
        "1461501637330902918203684832716283019655932542975",
        "281474976710655"
      ],
      "transaction": {
        "from": "0x3e723f6b81431f325e3f08e75544f254c182afe2",
        "to": "0x000000000022d473030f116ddee9f6b43ac78ba3",
        "gas": "0x96a0",
        "value": "0x0",
        "input": "0x87517c450000000000000000000000003e68f0f304314495fa45907170a59d0ba5218bcc000000000000000000000000429ba70129df741b2ca2a85bc3a2a3328e5c09b4000000000000000000000000ffffffffffffffffffffffffffffffffffffffff0000000000000000000000000000000000000000000000000000ffffffffffff",
        "nonce": "0x608",
        "chainId": "0xaa36a7"
      },
      "additionalContracts": [],
      "isFixedGasLimit": false
    },
    {
      "hash": "0x291c1647db704712b2792c805323d6622bbcf6a62821b4b9ea1e5d2135c339f7",
      "transactionType": "CALL",
      "contractName": null,
      "contractAddress": "0x429ba70129df741b2ca2a85bc3a2a3328e5c09b4",
      "function": "multicall(bytes[])",
      "arguments": [
        "[0xdd46508f00000000000000000000000000000000000000000000000000000000000000400000000000000000000000000000000000000000000000000000000068cb92d80000000000000000000000000000000000000000000000000000000000000400000000000000000000000000000000000000000000000000000000000000004000000000000000000000000000000000000000000000000000000000000000800000000000000000000000000000000000000000000000000000000000000004020d14140000000000000000000000000000000000000000000000000000000000000000000000000000000000000000000000000000000000000000000000040000000000000000000000000000000000000000000000000000000000000080000000000000000000000000000000000000000000000000000000000000024000000000000000000000000000000000000000000000000000000000000002a0000000000000000000000000000000000000000000000000000000000000030000000000000000000000000000000000000000000000000000000000000001a00000000000000000000000003e68f0f304314495fa45907170a59d0ba5218bcc000000000000000000000000abc0afb70f325f4119cfca4083ea2a580ec40d3f0000000000000000000000000000000000000000000000000000000000000bb8000000000000000000000000000000000000000000000000000000000000003c0000000000000000000000000000000000000000000000000000000000000000fffffffffffffffffffffffffffffffffffffffffffffffffffffffffffffed4000000000000000000000000000000000000000000000000000000000000012c00000000000000000000000000000000000000000000000000000000280984f200000000000000000000000000000000000000000000000000271471148780000000000000000000000000000000000000000000000000000000000000a7d8c00000000000000000000000003e723f6b81431f325e3f08e75544f254c182afe20000000000000000000000000000000000000000000000000000000000000180000000000000000000000000000000000000000000000000000000000000000000000000000000000000000000000000000000000000000000000000000000400000000000000000000000003e68f0f304314495fa45907170a59d0ba5218bcc000000000000000000000000abc0afb70f325f4119cfca4083ea2a580ec40d3f00000000000000000000000000000000000000000000000000000000000000400000000000000000000000003e68f0f304314495fa45907170a59d0ba5218bcc0000000000000000000000003e723f6b81431f325e3f08e75544f254c182afe20000000000000000000000000000000000000000000000000000000000000040000000000000000000000000abc0afb70f325f4119cfca4083ea2a580ec40d3f0000000000000000000000003e723f6b81431f325e3f08e75544f254c182afe2]"
      ],
      "transaction": {
        "from": "0x3e723f6b81431f325e3f08e75544f254c182afe2",
        "to": "0x429ba70129df741b2ca2a85bc3a2a3328e5c09b4",
        "gas": "0x65b38",
        "value": "0x0",
        "input": "0xac9650d80000000000000000000000000000000000000000000000000000000000000020000000000000000000000000000000000000000000000000000000000000000100000000000000000000000000000000000000000000000000000000000000200000000000000000000000000000000000000000000000000000000000000464dd46508f00000000000000000000000000000000000000000000000000000000000000400000000000000000000000000000000000000000000000000000000068cb92d80000000000000000000000000000000000000000000000000000000000000400000000000000000000000000000000000000000000000000000000000000004000000000000000000000000000000000000000000000000000000000000000800000000000000000000000000000000000000000000000000000000000000004020d14140000000000000000000000000000000000000000000000000000000000000000000000000000000000000000000000000000000000000000000000040000000000000000000000000000000000000000000000000000000000000080000000000000000000000000000000000000000000000000000000000000024000000000000000000000000000000000000000000000000000000000000002a0000000000000000000000000000000000000000000000000000000000000030000000000000000000000000000000000000000000000000000000000000001a00000000000000000000000003e68f0f304314495fa45907170a59d0ba5218bcc000000000000000000000000abc0afb70f325f4119cfca4083ea2a580ec40d3f0000000000000000000000000000000000000000000000000000000000000bb8000000000000000000000000000000000000000000000000000000000000003c0000000000000000000000000000000000000000000000000000000000000000fffffffffffffffffffffffffffffffffffffffffffffffffffffffffffffed4000000000000000000000000000000000000000000000000000000000000012c00000000000000000000000000000000000000000000000000000000280984f200000000000000000000000000000000000000000000000000271471148780000000000000000000000000000000000000000000000000000000000000a7d8c00000000000000000000000003e723f6b81431f325e3f08e75544f254c182afe20000000000000000000000000000000000000000000000000000000000000180000000000000000000000000000000000000000000000000000000000000000000000000000000000000000000000000000000000000000000000000000000400000000000000000000000003e68f0f304314495fa45907170a59d0ba5218bcc000000000000000000000000abc0afb70f325f4119cfca4083ea2a580ec40d3f00000000000000000000000000000000000000000000000000000000000000400000000000000000000000003e68f0f304314495fa45907170a59d0ba5218bcc0000000000000000000000003e723f6b81431f325e3f08e75544f254c182afe20000000000000000000000000000000000000000000000000000000000000040000000000000000000000000abc0afb70f325f4119cfca4083ea2a580ec40d3f0000000000000000000000003e723f6b81431f325e3f08e75544f254c182afe200000000000000000000000000000000000000000000000000000000",
        "nonce": "0x609",
        "chainId": "0xaa36a7"
      },
      "additionalContracts": [],
      "isFixedGasLimit": false
    },
    {
      "hash": "0x74756f39699313e02575e2a3479c3be8fa9ed4ef53d901c18373726fcfa70fe7",
      "transactionType": "CALL",
      "contractName": null,
      "contractAddress": "0xabc0afb70f325f4119cfca4083ea2a580ec40d3f",
      "function": "approve(address,uint256)",
      "arguments": [
        "0xf13D190e9117920c703d79B5F33732e10049b115",
        "115792089237316195423570985008687907853269984665640564039457584007913129639935"
      ],
      "transaction": {
        "from": "0x3e723f6b81431f325e3f08e75544f254c182afe2",
        "to": "0xabc0afb70f325f4119cfca4083ea2a580ec40d3f",
        "gas": "0x10842",
        "value": "0x0",
        "input": "0x095ea7b3000000000000000000000000f13d190e9117920c703d79b5f33732e10049b115ffffffffffffffffffffffffffffffffffffffffffffffffffffffffffffffff",
        "nonce": "0x60a",
        "chainId": "0xaa36a7"
      },
      "additionalContracts": [],
      "isFixedGasLimit": false
    },
    {
      "hash": "0xe2f8fc0c40ec667ba36c9e96ba1ee54f30b971308bb72e8edfca5ac78ebdfb94",
      "transactionType": "CALL",
      "contractName": null,
      "contractAddress": "0x3e68f0f304314495fa45907170a59d0ba5218bcc",
      "function": "approve(address,uint256)",
      "arguments": [
        "0xf13D190e9117920c703d79B5F33732e10049b115",
        "115792089237316195423570985008687907853269984665640564039457584007913129639935"
      ],
      "transaction": {
        "from": "0x3e723f6b81431f325e3f08e75544f254c182afe2",
        "to": "0x3e68f0f304314495fa45907170a59d0ba5218bcc",
        "gas": "0x10842",
        "value": "0x0",
        "input": "0x095ea7b3000000000000000000000000f13d190e9117920c703d79b5f33732e10049b115ffffffffffffffffffffffffffffffffffffffffffffffffffffffffffffffff",
        "nonce": "0x60b",
        "chainId": "0xaa36a7"
      },
      "additionalContracts": [],
      "isFixedGasLimit": false
    },
    {
      "hash": "0xc7a3091523e9939e1984cd804523df8dac438456020def652ca8efd7379e251d",
      "transactionType": "CALL",
      "contractName": null,
      "contractAddress": "0xf13d190e9117920c703d79b5f33732e10049b115",
      "function": "swapExactTokensForTokens(uint256,uint256,bool,(address,address,uint24,int24,address),bytes,address,uint256)",
      "arguments": [
        "1000",
        "0",
        "true",
        "(0x3e68f0F304314495fa45907170a59D0BA5218bCc, 0xabc0Afb70F325F4119cFCA4083EA2A580Ec40D3F, 3000, 60, 0xa502683Ee305567D36a7Ce8d7ED5952CF816f880)",
        "0x",
        "0x3e723f6B81431f325E3F08e75544F254C182AFE2",
        "1758175404"
      ],
      "transaction": {
        "from": "0x3e723f6b81431f325e3f08e75544f254c182afe2",
        "to": "0xf13d190e9117920c703d79b5f33732e10049b115",
        "gas": "0x8f8f6",
        "value": "0x0",
        "input": "0xb1a0d57100000000000000000000000000000000000000000000000000000000000003e8000000000000000000000000000000000000000000000000000000000000000000000000000000000000000000000000000000000000000000000000000000010000000000000000000000003e68f0f304314495fa45907170a59d0ba5218bcc000000000000000000000000abc0afb70f325f4119cfca4083ea2a580ec40d3f0000000000000000000000000000000000000000000000000000000000000bb8000000000000000000000000000000000000000000000000000000000000003c000000000000000000000000a502683ee305567d36a7ce8d7ed5952cf816f88000000000000000000000000000000000000000000000000000000000000001600000000000000000000000003e723f6b81431f325e3f08e75544f254c182afe20000000000000000000000000000000000000000000000000000000068cba0ac0000000000000000000000000000000000000000000000000000000000000000",
        "nonce": "0x60c",
        "chainId": "0xaa36a7"
      },
      "additionalContracts": [],
      "isFixedGasLimit": false
    }
  ],
  "receipts": [
    {
      "status": "0x1",
      "cumulativeGasUsed": "0x2c53253",
      "logs": [
        {
          "address": "0xea30c4b8b44078bbf8a6ef5b9f1ec1626c7848d9",
          "topics": [
            "0xe9de54a3e7ddf0c48cc6e1134185300d5a71acbf2d8c21fcdefa9d9dd9e20ac1"
          ],
          "data": "0xa086c907b116b1572126a2ccfaa5f6524f347f8a1d8378ce37b958e0cccc880000000000000000000000000000000000000000000000000000000000000000a000000000000000000000000000000000000000000000000000000000000001f400000000000000000000000000000000000000000000000000000000000000080000000000000000000000000000000000000000000000000000000000000000000000000000000000000000000000000000000000000000000000000000000e7472697669616c456e6372797074000000000000000000000000000000000000",
          "blockHash": "0xd9814e78c8ae86a86b43a550792bf640453e5be29ae4d3733d214e87cb934368",
          "blockNumber": "0x8cc943",
          "blockTimestamp": "0x68cb92d8",
          "transactionHash": "0x5f7e57f73054b707159f75748cb87e5c4f6f8b3486234b311635eed2e1e3ffc6",
          "transactionIndex": "0x8e",
          "logIndex": "0x96",
          "removed": false
        },
        {
          "address": "0xea30c4b8b44078bbf8a6ef5b9f1ec1626c7848d9",
          "topics": [
            "0xe9de54a3e7ddf0c48cc6e1134185300d5a71acbf2d8c21fcdefa9d9dd9e20ac1"
          ],
          "data": "0xcc63d19e9a0f97a43bc73dca1ee8b6f4b645d8919747695fa5d1d0da853a840000000000000000000000000000000000000000000000000000000000000000a00000000000000000000000000000000000000000000000000000000000000e1000000000000000000000000000000000000000000000000000000000000000040000000000000000000000000000000000000000000000000000000000000000000000000000000000000000000000000000000000000000000000000000000e7472697669616c456e6372797074000000000000000000000000000000000000",
          "blockHash": "0xd9814e78c8ae86a86b43a550792bf640453e5be29ae4d3733d214e87cb934368",
          "blockNumber": "0x8cc943",
          "blockTimestamp": "0x68cb92d8",
          "transactionHash": "0x5f7e57f73054b707159f75748cb87e5c4f6f8b3486234b311635eed2e1e3ffc6",
          "transactionIndex": "0x8e",
          "logIndex": "0x97",
          "removed": false
        },
        {
          "address": "0xea30c4b8b44078bbf8a6ef5b9f1ec1626c7848d9",
          "topics": [
            "0xe9de54a3e7ddf0c48cc6e1134185300d5a71acbf2d8c21fcdefa9d9dd9e20ac1"
          ],
          "data": "0xcdef58c863398f789d9953afd1326207812f448c90165e6886555071b2f4840000000000000000000000000000000000000000000000000000000000000000a000000000000000000000000000000000000000000000000000000000000000c800000000000000000000000000000000000000000000000000000000000000040000000000000000000000000000000000000000000000000000000000000000000000000000000000000000000000000000000000000000000000000000000e7472697669616c456e6372797074000000000000000000000000000000000000",
          "blockHash": "0xd9814e78c8ae86a86b43a550792bf640453e5be29ae4d3733d214e87cb934368",
          "blockNumber": "0x8cc943",
          "blockTimestamp": "0x68cb92d8",
          "transactionHash": "0x5f7e57f73054b707159f75748cb87e5c4f6f8b3486234b311635eed2e1e3ffc6",
          "transactionIndex": "0x8e",
          "logIndex": "0x98",
          "removed": false
        },
        {
          "address": "0xea30c4b8b44078bbf8a6ef5b9f1ec1626c7848d9",
          "topics": [
            "0xe9de54a3e7ddf0c48cc6e1134185300d5a71acbf2d8c21fcdefa9d9dd9e20ac1"
          ],
          "data": "0xb3e26d30bbd0fa3e41a1d86cb7844842fbb2638ed221cf36790bbd9c9f3e800000000000000000000000000000000000000000000000000000000000000000a0000000000000000000000000000000000000000000000000000000000000000100000000000000000000000000000000000000000000000000000000000000000000000000000000000000000000000000000000000000000000000000000000000000000000000000000000000000000000000000000000000000000000000e7472697669616c456e6372797074000000000000000000000000000000000000",
          "blockHash": "0xd9814e78c8ae86a86b43a550792bf640453e5be29ae4d3733d214e87cb934368",
          "blockNumber": "0x8cc943",
          "blockTimestamp": "0x68cb92d8",
          "transactionHash": "0x5f7e57f73054b707159f75748cb87e5c4f6f8b3486234b311635eed2e1e3ffc6",
          "transactionIndex": "0x8e",
          "logIndex": "0x99",
          "removed": false
        },
        {
          "address": "0xea30c4b8b44078bbf8a6ef5b9f1ec1626c7848d9",
          "topics": [
            "0xe9de54a3e7ddf0c48cc6e1134185300d5a71acbf2d8c21fcdefa9d9dd9e20ac1"
          ],
          "data": "0xbd85f53fc4f2243f9ffcb22983ba1d224d1e77fdca733b69f7215d316181840000000000000000000000000000000000000000000000000000000000000000a0000000000000000000000000000000000000000000000000000000000000009600000000000000000000000000000000000000000000000000000000000000040000000000000000000000000000000000000000000000000000000000000000000000000000000000000000000000000000000000000000000000000000000e7472697669616c456e6372797074000000000000000000000000000000000000",
          "blockHash": "0xd9814e78c8ae86a86b43a550792bf640453e5be29ae4d3733d214e87cb934368",
          "blockNumber": "0x8cc943",
          "blockTimestamp": "0x68cb92d8",
          "transactionHash": "0x5f7e57f73054b707159f75748cb87e5c4f6f8b3486234b311635eed2e1e3ffc6",
          "transactionIndex": "0x8e",
          "logIndex": "0x9a",
          "removed": false
        },
        {
          "address": "0xa502683ee305567d36a7ce8d7ed5952cf816f880",
          "topics": [
            "0x18ff1c138c5686b85dc8b4338640ccef29de32ff4fec45a3f6f220bee9783e45",
            "0xcbb0398086986dc764727c59c966cbc19d7f310144cdcc5ef6f4b8c67d30399e"
          ],
          "data": "0x000000000000000000000000000000000000000000000000000000000000008000000000000000000000000000000000000000000000000000000000000000c0000000000000000000000000000000000000000000000000000000000000010000000000000000000000000000000000000000000000000000000000000001400000000000000000000000000000000000000000000000000000000000000020a086c907b116b1572126a2ccfaa5f6524f347f8a1d8378ce37b958e0cccc88000000000000000000000000000000000000000000000000000000000000000020cc63d19e9a0f97a43bc73dca1ee8b6f4b645d8919747695fa5d1d0da853a84000000000000000000000000000000000000000000000000000000000000000020cdef58c863398f789d9953afd1326207812f448c90165e6886555071b2f484000000000000000000000000000000000000000000000000000000000000000020b3e26d30bbd0fa3e41a1d86cb7844842fbb2638ed221cf36790bbd9c9f3e8000",
          "blockHash": "0xd9814e78c8ae86a86b43a550792bf640453e5be29ae4d3733d214e87cb934368",
          "blockNumber": "0x8cc943",
          "blockTimestamp": "0x68cb92d8",
          "transactionHash": "0x5f7e57f73054b707159f75748cb87e5c4f6f8b3486234b311635eed2e1e3ffc6",
          "transactionIndex": "0x8e",
          "logIndex": "0x9b",
          "removed": false
        }
      ],
      "logsBloom": "0x00000000000000000000000000000000080000000000000000000000000000000000000000000000000000000000000000000000008000000000000000000000000000000000000400000000000000000000000008000000000000000000000000000000000000000000000000000000000000000000000000000000000000000000000000000000000001000900000001000000000000000000000000000000000000000000000000000000000000000000000000000000000000000000000000000020000000000000000000000000000000002000080000000000000000000000000000000000000200000000000000000000000000000000020200000010",
      "type": "0x2",
      "transactionHash": "0x5f7e57f73054b707159f75748cb87e5c4f6f8b3486234b311635eed2e1e3ffc6",
      "transactionIndex": "0x8e",
      "blockHash": "0xd9814e78c8ae86a86b43a550792bf640453e5be29ae4d3733d214e87cb934368",
      "blockNumber": "0x8cc943",
      "gasUsed": "0x45c5c",
      "effectiveGasPrice": "0xf4257",
      "from": "0x3e723f6b81431f325e3f08e75544f254c182afe2",
      "to": "0xa502683ee305567d36a7ce8d7ed5952cf816f880",
      "contractAddress": null
    },
    {
      "status": "0x1",
      "cumulativeGasUsed": "0x2c6885b",
      "logs": [
        {
          "address": "0xea30c4b8b44078bbf8a6ef5b9f1ec1626c7848d9",
          "topics": [
            "0xe9de54a3e7ddf0c48cc6e1134185300d5a71acbf2d8c21fcdefa9d9dd9e20ac1"
          ],
          "data": "0xc290f19dcf7bceb26e550f2bfc2767777b6b3a2e75644053281b2fc1dc88800000000000000000000000000000000000000000000000000000000000000000a0000000000000000000000000000000000000000000000000000000000000000000000000000000000000000000000000000000000000000000000000000000000000000000000000000000000000000000000000000000000000000000000000000000000000000000000000000000000000000000000000000000000000000e7472697669616c456e6372797074000000000000000000000000000000000000",
          "blockHash": "0xd9814e78c8ae86a86b43a550792bf640453e5be29ae4d3733d214e87cb934368",
          "blockNumber": "0x8cc943",
          "blockTimestamp": "0x68cb92d8",
          "transactionHash": "0x40be138667d9689a8f51735e9fa5010e03672b85227f162412883a4cfaa46c35",
          "transactionIndex": "0x8f",
          "logIndex": "0x9c",
          "removed": false
        },
        {
          "address": "0xa502683ee305567d36a7ce8d7ed5952cf816f880",
          "topics": [
            "0x18ff1c138c5686b85dc8b4338640ccef29de32ff4fec45a3f6f220bee9783e45",
            "0xcbb0398086986dc764727c59c966cbc19d7f310144cdcc5ef6f4b8c67d30399e"
          ],
          "data": "0x000000000000000000000000000000000000000000000000000000000000008000000000000000000000000000000000000000000000000000000000000000c0000000000000000000000000000000000000000000000000000000000000010000000000000000000000000000000000000000000000000000000000000001400000000000000000000000000000000000000000000000000000000000000020a086c907b116b1572126a2ccfaa5f6524f347f8a1d8378ce37b958e0cccc88000000000000000000000000000000000000000000000000000000000000000020cc63d19e9a0f97a43bc73dca1ee8b6f4b645d8919747695fa5d1d0da853a84000000000000000000000000000000000000000000000000000000000000000020cdef58c863398f789d9953afd1326207812f448c90165e6886555071b2f484000000000000000000000000000000000000000000000000000000000000000020c290f19dcf7bceb26e550f2bfc2767777b6b3a2e75644053281b2fc1dc888000",
          "blockHash": "0xd9814e78c8ae86a86b43a550792bf640453e5be29ae4d3733d214e87cb934368",
          "blockNumber": "0x8cc943",
          "blockTimestamp": "0x68cb92d8",
          "transactionHash": "0x40be138667d9689a8f51735e9fa5010e03672b85227f162412883a4cfaa46c35",
          "transactionIndex": "0x8f",
          "logIndex": "0x9d",
          "removed": false
        }
      ],
      "logsBloom": "0x00000000000000000000000000000000080000000000000000000000000000000000000000000000000000000000000000000000008000000000000000000000000000000000000400000000000000000000000008000000000000000000000000000000000000000000000000000000000000000000000000000000000000000000000000000000000001000900000001000000000000000000000000000000000000000000000000000000000000000000000000000000000000000000000000000020000000000000000000000000000000002000080000000000000000000000000000000000000200000000000000000000000000000000020200000010",
      "type": "0x2",
      "transactionHash": "0x40be138667d9689a8f51735e9fa5010e03672b85227f162412883a4cfaa46c35",
      "transactionIndex": "0x8f",
      "blockHash": "0xd9814e78c8ae86a86b43a550792bf640453e5be29ae4d3733d214e87cb934368",
      "blockNumber": "0x8cc943",
      "gasUsed": "0x15608",
      "effectiveGasPrice": "0xf4257",
      "from": "0x3e723f6b81431f325e3f08e75544f254c182afe2",
      "to": "0xa502683ee305567d36a7ce8d7ed5952cf816f880",
      "contractAddress": null
    },
    {
      "status": "0x1",
      "cumulativeGasUsed": "0x2c7de74",
      "logs": [
        {
          "address": "0xea30c4b8b44078bbf8a6ef5b9f1ec1626c7848d9",
          "topics": [
            "0xe9de54a3e7ddf0c48cc6e1134185300d5a71acbf2d8c21fcdefa9d9dd9e20ac1"
          ],
          "data": "0xb3e26d30bbd0fa3e41a1d86cb7844842fbb2638ed221cf36790bbd9c9f3e800000000000000000000000000000000000000000000000000000000000000000a0000000000000000000000000000000000000000000000000000000000000000100000000000000000000000000000000000000000000000000000000000000000000000000000000000000000000000000000000000000000000000000000000000000000000000000000000000000000000000000000000000000000000000e7472697669616c456e6372797074000000000000000000000000000000000000",
          "blockHash": "0xd9814e78c8ae86a86b43a550792bf640453e5be29ae4d3733d214e87cb934368",
          "blockNumber": "0x8cc943",
          "blockTimestamp": "0x68cb92d8",
          "transactionHash": "0xd7d0bc8d9aaa3e5a3423ad8e35072e806fb72e9d1536396c99e95e209e5219cf",
          "transactionIndex": "0x90",
          "logIndex": "0x9e",
          "removed": false
        },
        {
          "address": "0xa502683ee305567d36a7ce8d7ed5952cf816f880",
          "topics": [
            "0x18ff1c138c5686b85dc8b4338640ccef29de32ff4fec45a3f6f220bee9783e45",
            "0xcbb0398086986dc764727c59c966cbc19d7f310144cdcc5ef6f4b8c67d30399e"
          ],
          "data": "0x000000000000000000000000000000000000000000000000000000000000008000000000000000000000000000000000000000000000000000000000000000c0000000000000000000000000000000000000000000000000000000000000010000000000000000000000000000000000000000000000000000000000000001400000000000000000000000000000000000000000000000000000000000000020a086c907b116b1572126a2ccfaa5f6524f347f8a1d8378ce37b958e0cccc88000000000000000000000000000000000000000000000000000000000000000020cc63d19e9a0f97a43bc73dca1ee8b6f4b645d8919747695fa5d1d0da853a84000000000000000000000000000000000000000000000000000000000000000020cdef58c863398f789d9953afd1326207812f448c90165e6886555071b2f484000000000000000000000000000000000000000000000000000000000000000020b3e26d30bbd0fa3e41a1d86cb7844842fbb2638ed221cf36790bbd9c9f3e8000",
          "blockHash": "0xd9814e78c8ae86a86b43a550792bf640453e5be29ae4d3733d214e87cb934368",
          "blockNumber": "0x8cc943",
          "blockTimestamp": "0x68cb92d8",
          "transactionHash": "0xd7d0bc8d9aaa3e5a3423ad8e35072e806fb72e9d1536396c99e95e209e5219cf",
          "transactionIndex": "0x90",
          "logIndex": "0x9f",
          "removed": false
        }
      ],
      "logsBloom": "0x00000000000000000000000000000000080000000000000000000000000000000000000000000000000000000000000000000000008000000000000000000000000000000000000400000000000000000000000008000000000000000000000000000000000000000000000000000000000000000000000000000000000000000000000000000000000001000900000001000000000000000000000000000000000000000000000000000000000000000000000000000000000000000000000000000020000000000000000000000000000000002000080000000000000000000000000000000000000200000000000000000000000000000000020200000010",
      "type": "0x2",
      "transactionHash": "0xd7d0bc8d9aaa3e5a3423ad8e35072e806fb72e9d1536396c99e95e209e5219cf",
      "transactionIndex": "0x90",
      "blockHash": "0xd9814e78c8ae86a86b43a550792bf640453e5be29ae4d3733d214e87cb934368",
      "blockNumber": "0x8cc943",
      "gasUsed": "0x15619",
      "effectiveGasPrice": "0xf4257",
      "from": "0x3e723f6b81431f325e3f08e75544f254c182afe2",
      "to": "0xa502683ee305567d36a7ce8d7ed5952cf816f880",
      "contractAddress": null
    },
    {
      "status": "0x1",
      "cumulativeGasUsed": "0x2c84f85",
      "logs": [
        {
          "address": "0xa502683ee305567d36a7ce8d7ed5952cf816f880",
          "topics": [
            "0xf354ce2d046227bb2a8db43674dab621b47724bc45cbc0b228a001245d53fd77",
            "0xcbb0398086986dc764727c59c966cbc19d7f310144cdcc5ef6f4b8c67d30399e"
          ],
          "data": "0x",
          "blockHash": "0xd9814e78c8ae86a86b43a550792bf640453e5be29ae4d3733d214e87cb934368",
          "blockNumber": "0x8cc943",
          "blockTimestamp": "0x68cb92d8",
          "transactionHash": "0x18915aa195a444f2b75acf0fa5c3cbe44eabaa4f6ba19c0e4d783dc54e823340",
          "transactionIndex": "0x91",
          "logIndex": "0xa0",
          "removed": false
        }
      ],
      "logsBloom": "0x00000800000000000000000000000000000000000000000000000000000000000000000000000000000000000000000000000000000000000000000000000000000000000000000400000000000000000080000000000000000000000000000000000000000000000000000000000000000000000000000000000000000000000000000000000000000001000100000000000000000000000000000000000000000000000000000000000000000000000000000000000000000000000000000000000020000000000000000000000200000000002000000000000000000000000000000000000000000000000000000000000000000000000000000000000010",
      "type": "0x2",
      "transactionHash": "0x18915aa195a444f2b75acf0fa5c3cbe44eabaa4f6ba19c0e4d783dc54e823340",
      "transactionIndex": "0x91",
      "blockHash": "0xd9814e78c8ae86a86b43a550792bf640453e5be29ae4d3733d214e87cb934368",
      "blockNumber": "0x8cc943",
      "gasUsed": "0x7111",
      "effectiveGasPrice": "0xf4257",
      "from": "0x3e723f6b81431f325e3f08e75544f254c182afe2",
      "to": "0xa502683ee305567d36a7ce8d7ed5952cf816f880",
      "contractAddress": null
    },
    {
      "status": "0x1",
      "cumulativeGasUsed": "0x2c90dd4",
      "logs": [
        {
          "address": "0xa502683ee305567d36a7ce8d7ed5952cf816f880",
          "topics": [
            "0xc4be386fe9fd651a56e42b3b831dd4bf6afaa363eb2d21181fe7e23a8ff50279",
            "0xcbb0398086986dc764727c59c966cbc19d7f310144cdcc5ef6f4b8c67d30399e"
          ],
          "data": "0x",
          "blockHash": "0xd9814e78c8ae86a86b43a550792bf640453e5be29ae4d3733d214e87cb934368",
          "blockNumber": "0x8cc943",
          "transactionHash": "0x37d83a023145f38e69dfbbbc407cfd99d3812ba6f66e270129f7e174b42fb861",
          "transactionIndex": "0x92",
          "logIndex": "0xa1",
          "removed": false
        }
      ],
      "logsBloom": "0x00000000000000000000000000000000000000000000000000000000000000000000000000000000000000000000000000000000000000000000000000000000000000000000000400000000000000000000000000000000000000000000000000000000000000000000000000000000000000000000000000000000000000100000000000000000000001000100000004000000000000000000000000000000000000001000000000000000000000000000000000000000000000000000000000000020000000000000000000000000000000002000000000000000000000000000000000000000000000000000000000000000000000000000000000000010",
      "type": "0x2",
      "transactionHash": "0x37d83a023145f38e69dfbbbc407cfd99d3812ba6f66e270129f7e174b42fb861",
      "transactionIndex": "0x92",
      "blockHash": "0xd9814e78c8ae86a86b43a550792bf640453e5be29ae4d3733d214e87cb934368",
      "blockNumber": "0x8cc943",
      "gasUsed": "0xbe4f",
      "effectiveGasPrice": "0xf4257",
      "from": "0x3e723f6b81431f325e3f08e75544f254c182afe2",
      "to": "0xa502683ee305567d36a7ce8d7ed5952cf816f880",
      "contractAddress": null
    },
    {
      "status": "0x1",
      "cumulativeGasUsed": "0x2cded96",
      "logs": [
        {
          "address": "0xea30c4b8b44078bbf8a6ef5b9f1ec1626c7848d9",
          "topics": [
            "0xe9de54a3e7ddf0c48cc6e1134185300d5a71acbf2d8c21fcdefa9d9dd9e20ac1"
          ],
          "data": "0xbb39351b2bc70ad6be41519c393ba92b7146cf5c8fcae77c8a1f6982d55c880000000000000000000000000000000000000000000000000000000000000000a0000000000000000000000000000000000000000000000000000000000000012c00000000000000000000000000000000000000000000000000000000000000080000000000000000000000000000000000000000000000000000000000000000000000000000000000000000000000000000000000000000000000000000000e7472697669616c456e6372797074000000000000000000000000000000000000",
          "blockHash": "0xd9814e78c8ae86a86b43a550792bf640453e5be29ae4d3733d214e87cb934368",
          "blockNumber": "0x8cc943",
          "blockTimestamp": "0x68cb92d8",
          "transactionHash": "0xd91ff8005084242612b34e308aea0aa97ba73c4e6338287ad0ce413f9a92b358",
          "transactionIndex": "0x94",
          "logIndex": "0xa2",
          "removed": false
        },
        {
          "address": "0xea30c4b8b44078bbf8a6ef5b9f1ec1626c7848d9",
          "topics": [
            "0xe9de54a3e7ddf0c48cc6e1134185300d5a71acbf2d8c21fcdefa9d9dd9e20ac1"
          ],
          "data": "0x1253f33bcc7d14ead4330255d5baaf2209a953415c511c19411382f6423f840000000000000000000000000000000000000000000000000000000000000000a000000000000000000000000000000000000000000000000000000000000000b400000000000000000000000000000000000000000000000000000000000000040000000000000000000000000000000000000000000000000000000000000000000000000000000000000000000000000000000000000000000000000000000e7472697669616c456e6372797074000000000000000000000000000000000000",
          "blockHash": "0xd9814e78c8ae86a86b43a550792bf640453e5be29ae4d3733d214e87cb934368",
          "blockNumber": "0x8cc943",
          "blockTimestamp": "0x68cb92d8",
          "transactionHash": "0xd91ff8005084242612b34e308aea0aa97ba73c4e6338287ad0ce413f9a92b358",
          "transactionIndex": "0x94",
          "logIndex": "0xa3",
          "removed": false
        },
        {
          "address": "0xea30c4b8b44078bbf8a6ef5b9f1ec1626c7848d9",
          "topics": [
            "0xe9de54a3e7ddf0c48cc6e1134185300d5a71acbf2d8c21fcdefa9d9dd9e20ac1"
          ],
          "data": "0xe8c638c5370ad54fb6bc7fb3c67f13705c787cf30645cd1b92d5f61704b5840000000000000000000000000000000000000000000000000000000000000000a0000000000000000000000000000000000000000000000000000000000000006400000000000000000000000000000000000000000000000000000000000000040000000000000000000000000000000000000000000000000000000000000000000000000000000000000000000000000000000000000000000000000000000e7472697669616c456e6372797074000000000000000000000000000000000000",
          "blockHash": "0xd9814e78c8ae86a86b43a550792bf640453e5be29ae4d3733d214e87cb934368",
          "blockNumber": "0x8cc943",
          "blockTimestamp": "0x68cb92d8",
          "transactionHash": "0xd91ff8005084242612b34e308aea0aa97ba73c4e6338287ad0ce413f9a92b358",
          "transactionIndex": "0x94",
          "logIndex": "0xa4",
          "removed": false
        },
        {
          "address": "0xea30c4b8b44078bbf8a6ef5b9f1ec1626c7848d9",
          "topics": [
            "0xe9de54a3e7ddf0c48cc6e1134185300d5a71acbf2d8c21fcdefa9d9dd9e20ac1"
          ],
          "data": "0xb3e26d30bbd0fa3e41a1d86cb7844842fbb2638ed221cf36790bbd9c9f3e800000000000000000000000000000000000000000000000000000000000000000a0000000000000000000000000000000000000000000000000000000000000000100000000000000000000000000000000000000000000000000000000000000000000000000000000000000000000000000000000000000000000000000000000000000000000000000000000000000000000000000000000000000000000000e7472697669616c456e6372797074000000000000000000000000000000000000",
          "blockHash": "0xd9814e78c8ae86a86b43a550792bf640453e5be29ae4d3733d214e87cb934368",
          "blockNumber": "0x8cc943",
          "blockTimestamp": "0x68cb92d8",
          "transactionHash": "0xd91ff8005084242612b34e308aea0aa97ba73c4e6338287ad0ce413f9a92b358",
          "transactionIndex": "0x94",
          "logIndex": "0xa5",
          "removed": false
        },
        {
          "address": "0xea30c4b8b44078bbf8a6ef5b9f1ec1626c7848d9",
          "topics": [
            "0xe9de54a3e7ddf0c48cc6e1134185300d5a71acbf2d8c21fcdefa9d9dd9e20ac1"
          ],
          "data": "0xe8c638c5370ad54fb6bc7fb3c67f13705c787cf30645cd1b92d5f61704b5840000000000000000000000000000000000000000000000000000000000000000a0000000000000000000000000000000000000000000000000000000000000006400000000000000000000000000000000000000000000000000000000000000040000000000000000000000000000000000000000000000000000000000000000000000000000000000000000000000000000000000000000000000000000000e7472697669616c456e6372797074000000000000000000000000000000000000",
          "blockHash": "0xd9814e78c8ae86a86b43a550792bf640453e5be29ae4d3733d214e87cb934368",
          "blockNumber": "0x8cc943",
          "blockTimestamp": "0x68cb92d8",
          "transactionHash": "0xd91ff8005084242612b34e308aea0aa97ba73c4e6338287ad0ce413f9a92b358",
          "transactionIndex": "0x94",
          "logIndex": "0xa6",
          "removed": false
        },
        {
          "address": "0xea30c4b8b44078bbf8a6ef5b9f1ec1626c7848d9",
          "topics": [
            "0xe9de54a3e7ddf0c48cc6e1134185300d5a71acbf2d8c21fcdefa9d9dd9e20ac1"
          ],
          "data": "0xd8d542465d641073d3a041fe1808c3ef4b840d59b78f9a8d96485189b1f2880000000000000000000000000000000000000000000000000000000000000000a0000000000000000000000000000000000000000000000000000000000000000000000000000000000000000000000000000000000000000000000000000000080000000000000000000000000000000000000000000000000000000000000000000000000000000000000000000000000000000000000000000000000000000e7472697669616c456e6372797074000000000000000000000000000000000000",
          "blockHash": "0xd9814e78c8ae86a86b43a550792bf640453e5be29ae4d3733d214e87cb934368",
          "blockNumber": "0x8cc943",
          "blockTimestamp": "0x68cb92d8",
          "transactionHash": "0xd91ff8005084242612b34e308aea0aa97ba73c4e6338287ad0ce413f9a92b358",
          "transactionIndex": "0x94",
          "logIndex": "0xa7",
          "removed": false
        },
        {
          "address": "0xe03a1074c86cfedd5c142c4f04f1a1536e203543",
          "topics": [
            "0xdd466e674ea557f56295e2d0218a125ea4b4f0f6f3307b95f85e6110838d6438",
            "0xcbb0398086986dc764727c59c966cbc19d7f310144cdcc5ef6f4b8c67d30399e",
            "0x0000000000000000000000003e68f0f304314495fa45907170a59d0ba5218bcc",
            "0x000000000000000000000000abc0afb70f325f4119cfca4083ea2a580ec40d3f"
          ],
          "data": "0x0000000000000000000000000000000000000000000000000000000000000bb8000000000000000000000000000000000000000000000000000000000000003c000000000000000000000000a502683ee305567d36a7ce8d7ed5952cf816f88000000000000000000000000000000000000000010000000000000000000000000000000000000000000000000000000000000000000000000000000000000000",
          "blockHash": "0xd9814e78c8ae86a86b43a550792bf640453e5be29ae4d3733d214e87cb934368",
          "blockNumber": "0x8cc943",
          "blockTimestamp": "0x68cb92d8",
          "transactionHash": "0xd91ff8005084242612b34e308aea0aa97ba73c4e6338287ad0ce413f9a92b358",
          "transactionIndex": "0x94",
          "logIndex": "0xa8",
          "removed": false
        }
      ],
      "logsBloom": "0x00000000000000000000000000000000080000000000000000000000000000000000000000000000000040000000000000000100008000000000000000000000000000000000000400000000000000000000000000000000000000000000000000000000000000000000000000000010000000000000100000000000000000000000000000000008000002000000000001000001000000000000000000210000000000000000000000000000000000000000000000000000000000000000000000000020000000000000000000000000000000002000000000000000000000001000000000000000000200000000000000000000000000400000020200000400",
      "type": "0x2",
      "transactionHash": "0xd91ff8005084242612b34e308aea0aa97ba73c4e6338287ad0ce413f9a92b358",
      "transactionIndex": "0x94",
      "blockHash": "0xd9814e78c8ae86a86b43a550792bf640453e5be29ae4d3733d214e87cb934368",
      "blockNumber": "0x8cc943",
      "gasUsed": "0x48dba",
      "effectiveGasPrice": "0xf4257",
      "from": "0x3e723f6b81431f325e3f08e75544f254c182afe2",
      "to": "0xe03a1074c86cfedd5c142c4f04f1a1536e203543",
      "contractAddress": null
    },
    {
      "status": "0x1",
      "cumulativeGasUsed": "0x2ce5497",
      "logs": [
        {
          "address": "0xabc0afb70f325f4119cfca4083ea2a580ec40d3f",
          "topics": [
            "0x8c5be1e5ebec7d5bd14f71427d1e84f3dd0314c0f7b2291e5b200ac8c7c3b925",
            "0x0000000000000000000000003e723f6b81431f325e3f08e75544f254c182afe2",
            "0x000000000000000000000000429ba70129df741b2ca2a85bc3a2a3328e5c09b4"
          ],
          "data": "0xffffffffffffffffffffffffffffffffffffffffffffffffffffffffffffffff",
          "blockHash": "0xd9814e78c8ae86a86b43a550792bf640453e5be29ae4d3733d214e87cb934368",
          "blockNumber": "0x8cc943",
          "blockTimestamp": "0x68cb92d8",
          "transactionHash": "0xa06cc5638d8026f39adbb4516925129060a927770b9355447e2ddde46df38d30",
          "transactionIndex": "0x95",
          "logIndex": "0xa9",
          "removed": false
        }
      ],
      "logsBloom": "0x00000000000000000000000000000000000000000000000000000000000000000000000000000040080000000080000000000000080000000000000000200000000000000000000000000000000000100000000000000000000000000000000000000000000000000000000000000000000000000000000000000800000000000000000000000000000000000000000000000000000000000000000000000000020000000000004080000000000000000000000000000000000010000000000000000000000000000000000000000000000000000000000000000000000000000010000000000000000000000000000000000000000000000000000000000000",
      "type": "0x2",
      "transactionHash": "0xa06cc5638d8026f39adbb4516925129060a927770b9355447e2ddde46df38d30",
      "transactionIndex": "0x95",
      "blockHash": "0xd9814e78c8ae86a86b43a550792bf640453e5be29ae4d3733d214e87cb934368",
      "blockNumber": "0x8cc943",
      "gasUsed": "0x6701",
      "effectiveGasPrice": "0xf4257",
      "from": "0x3e723f6b81431f325e3f08e75544f254c182afe2",
      "to": "0xabc0afb70f325f4119cfca4083ea2a580ec40d3f",
      "contractAddress": null
    },
    {
      "status": "0x1",
      "cumulativeGasUsed": "0x2cebb98",
      "logs": [
        {
          "address": "0x3e68f0f304314495fa45907170a59d0ba5218bcc",
          "topics": [
            "0x8c5be1e5ebec7d5bd14f71427d1e84f3dd0314c0f7b2291e5b200ac8c7c3b925",
            "0x0000000000000000000000003e723f6b81431f325e3f08e75544f254c182afe2",
            "0x000000000000000000000000429ba70129df741b2ca2a85bc3a2a3328e5c09b4"
          ],
          "data": "0xffffffffffffffffffffffffffffffffffffffffffffffffffffffffffffffff",
          "blockHash": "0xd9814e78c8ae86a86b43a550792bf640453e5be29ae4d3733d214e87cb934368",
          "blockNumber": "0x8cc943",
          "blockTimestamp": "0x68cb92d8",
          "transactionHash": "0x79b95f9eb8266e3d1b54fb471dfe6cf4222eeae36c8c64331cb86da04a655417",
          "transactionIndex": "0x96",
          "logIndex": "0xaa",
          "removed": false
        }
      ],
      "logsBloom": "0x00000000000000000000000000000000000000000000000000000000000000000000000000000040080000000000000000000000080000800000000000200000000000000000000000000000000000000000000000000000000000000000000000000000000000000000000000000000000000000000000000000800000000000000000000000000000000000000000000000000000000000000000000000000020000000000000080000000000000000000000000002000000010000000000000000000000000000000000000000000000000000000000000000000000000400010000000000000000000000000000000000000000000000000000000000000",
      "type": "0x2",
      "transactionHash": "0x79b95f9eb8266e3d1b54fb471dfe6cf4222eeae36c8c64331cb86da04a655417",
      "transactionIndex": "0x96",
      "blockHash": "0xd9814e78c8ae86a86b43a550792bf640453e5be29ae4d3733d214e87cb934368",
      "blockNumber": "0x8cc943",
      "gasUsed": "0x6701",
      "effectiveGasPrice": "0xf4257",
      "from": "0x3e723f6b81431f325e3f08e75544f254c182afe2",
      "to": "0x3e68f0f304314495fa45907170a59d0ba5218bcc",
      "contractAddress": null
    },
    {
      "status": "0x1",
      "cumulativeGasUsed": "0x31a3582",
      "logs": [
        {
          "address": "0xabc0afb70f325f4119cfca4083ea2a580ec40d3f",
          "topics": [
            "0x8c5be1e5ebec7d5bd14f71427d1e84f3dd0314c0f7b2291e5b200ac8c7c3b925",
            "0x0000000000000000000000003e723f6b81431f325e3f08e75544f254c182afe2",
            "0x000000000000000000000000000000000022d473030f116ddee9f6b43ac78ba3"
          ],
          "data": "0xffffffffffffffffffffffffffffffffffffffffffffffffffffffffffffffff",
          "blockHash": "0xd9814e78c8ae86a86b43a550792bf640453e5be29ae4d3733d214e87cb934368",
          "blockNumber": "0x8cc943",
          "transactionHash": "0x91a4f11f0f80185c60226745325e537ad45fc7d89a409b0f952da84e0a59f27c",
          "transactionIndex": "0x98",
          "logIndex": "0xac",
          "removed": false
        }
      ],
      "logsBloom": "0x00000000000000000000000000000000000000000000000000000000000000000000000000000000000000000080000000000000880000000000000000200000000000000000000000004000000000100000000000000800000000000000000000000000000000000000000000000000000000000000000000000000000000000000000000000000000000000000000000000000000000000000000000000000020000000000004080000000000000000000000000000000000010000000000000000000000000000000000000000000000000000000000000000000000000000010000000000000000000000000000000000000000000000000000000000000",
      "type": "0x2",
      "transactionHash": "0x91a4f11f0f80185c60226745325e537ad45fc7d89a409b0f952da84e0a59f27c",
      "transactionIndex": "0x98",
      "blockHash": "0xd9814e78c8ae86a86b43a550792bf640453e5be29ae4d3733d214e87cb934368",
      "blockNumber": "0x8cc943",
      "gasUsed": "0x66c5",
      "effectiveGasPrice": "0xf4257",
      "from": "0x3e723f6b81431f325e3f08e75544f254c182afe2",
      "to": "0xabc0afb70f325f4119cfca4083ea2a580ec40d3f",
      "contractAddress": null
    },
    {
      "status": "0x1",
      "cumulativeGasUsed": "0x31aa290",
      "logs": [
        {
          "address": "0x000000000022d473030f116ddee9f6b43ac78ba3",
          "topics": [
            "0xda9fa7c1b00402c17d0161b249b1ab8bbec047c5a52207b9c112deffd817036b",
            "0x0000000000000000000000003e723f6b81431f325e3f08e75544f254c182afe2",
            "0x000000000000000000000000abc0afb70f325f4119cfca4083ea2a580ec40d3f",
            "0x000000000000000000000000429ba70129df741b2ca2a85bc3a2a3328e5c09b4"
          ],
          "data": "0x000000000000000000000000ffffffffffffffffffffffffffffffffffffffff0000000000000000000000000000000000000000000000000000ffffffffffff",
          "blockHash": "0xd9814e78c8ae86a86b43a550792bf640453e5be29ae4d3733d214e87cb934368",
          "blockNumber": "0x8cc943",
          "blockTimestamp": "0x68cb92d8",
          "transactionHash": "0x5062eb57679e5ae33eba9b0a0fffc89077282ae48ec004e839b4e974ab194230",
          "transactionIndex": "0x99",
          "logIndex": "0xad",
          "removed": false
        }
      ],
      "logsBloom": "0x00010000000000000000000000000000000000000000000000000000000000000000000000000040080000000000000000000000080000000000000000080000000000000000000000000000000000000000000000000000000000000000000000000000000000000000000000000010000000000000000000000800000000000020000000000000000002000000000000000000000000000000000000000000000000000000000080000000000000000000000000000000000010080000000000000000000000000000000000000000000000000000000040000000000000000000000000000000000000000000000000000000000000400000000000000400",
      "type": "0x2",
      "transactionHash": "0x5062eb57679e5ae33eba9b0a0fffc89077282ae48ec004e839b4e974ab194230",
      "transactionIndex": "0x99",
      "blockHash": "0xd9814e78c8ae86a86b43a550792bf640453e5be29ae4d3733d214e87cb934368",
      "blockNumber": "0x8cc943",
      "gasUsed": "0x6d0e",
      "effectiveGasPrice": "0xf4257",
      "from": "0x3e723f6b81431f325e3f08e75544f254c182afe2",
      "to": "0x000000000022d473030f116ddee9f6b43ac78ba3",
      "contractAddress": null
    },
    {
      "status": "0x1",
      "cumulativeGasUsed": "0x31b0955",
      "logs": [
        {
          "address": "0x3e68f0f304314495fa45907170a59d0ba5218bcc",
          "topics": [
            "0x8c5be1e5ebec7d5bd14f71427d1e84f3dd0314c0f7b2291e5b200ac8c7c3b925",
            "0x0000000000000000000000003e723f6b81431f325e3f08e75544f254c182afe2",
            "0x000000000000000000000000000000000022d473030f116ddee9f6b43ac78ba3"
          ],
          "data": "0xffffffffffffffffffffffffffffffffffffffffffffffffffffffffffffffff",
          "blockHash": "0xd9814e78c8ae86a86b43a550792bf640453e5be29ae4d3733d214e87cb934368",
          "blockNumber": "0x8cc943",
          "blockTimestamp": "0x68cb92d8",
          "transactionHash": "0xb13e9f528ef97804eec323c59ad1712179e4834dbcb62c9fe66c0dbc14637152",
          "transactionIndex": "0x9a",
          "logIndex": "0xae",
          "removed": false
        }
      ],
      "logsBloom": "0x00000000000000000000000000000000000000000000000000000000000000000000000000000000000000000000000000000000880000800000000000200000000000000000000000004000000000000000000000000800000000000000000000000000000000000000000000000000000000000000000000000000000000000000000000000000000000000000000000000000000000000000000000000000020000000000000080000000000000000000000000002000000010000000000000000000000000000000000000000000000000000000000000000000000000400010000000000000000000000000000000000000000000000000000000000000",
      "type": "0x2",
      "transactionHash": "0xb13e9f528ef97804eec323c59ad1712179e4834dbcb62c9fe66c0dbc14637152",
      "transactionIndex": "0x9a",
      "blockHash": "0xd9814e78c8ae86a86b43a550792bf640453e5be29ae4d3733d214e87cb934368",
      "blockNumber": "0x8cc943",
      "gasUsed": "0x66c5",
      "effectiveGasPrice": "0xf4257",
      "from": "0x3e723f6b81431f325e3f08e75544f254c182afe2",
      "to": "0x3e68f0f304314495fa45907170a59d0ba5218bcc",
      "contractAddress": null
    },
    {
      "status": "0x1",
      "cumulativeGasUsed": "0x31b7663",
      "logs": [
        {
          "address": "0x000000000022d473030f116ddee9f6b43ac78ba3",
          "topics": [
            "0xda9fa7c1b00402c17d0161b249b1ab8bbec047c5a52207b9c112deffd817036b",
            "0x0000000000000000000000003e723f6b81431f325e3f08e75544f254c182afe2",
            "0x0000000000000000000000003e68f0f304314495fa45907170a59d0ba5218bcc",
            "0x000000000000000000000000429ba70129df741b2ca2a85bc3a2a3328e5c09b4"
          ],
          "data": "0x000000000000000000000000ffffffffffffffffffffffffffffffffffffffff0000000000000000000000000000000000000000000000000000ffffffffffff",
          "blockHash": "0xd9814e78c8ae86a86b43a550792bf640453e5be29ae4d3733d214e87cb934368",
          "blockNumber": "0x8cc943",
          "transactionHash": "0x5965be32ed56e9050e7a5772e63994291613433f312fed7945769f482e0b05d3",
          "transactionIndex": "0x9b",
          "logIndex": "0xaf",
          "removed": false
        }
      ],
      "logsBloom": "0x00010000000000000000000000000000000000000000000000000000000000000000000000000040080040000000000000000000080000000000000000080000000000000000000000000000000000000000000000000000000000000000000000000000000000000000000000000000000000000000000000000800000000000020000000000000000000000000000000000000000000000000000000010000000000000000000080000000000000000000000000000000000010080000000000000000000000000000000000000000000000000000000040000000000000000000000000000000000000000000000000000000000000000000000000000400",
      "type": "0x2",
      "transactionHash": "0x5965be32ed56e9050e7a5772e63994291613433f312fed7945769f482e0b05d3",
      "transactionIndex": "0x9b",
      "blockHash": "0xd9814e78c8ae86a86b43a550792bf640453e5be29ae4d3733d214e87cb934368",
      "blockNumber": "0x8cc943",
      "gasUsed": "0x6d0e",
      "effectiveGasPrice": "0xf4257",
      "from": "0x3e723f6b81431f325e3f08e75544f254c182afe2",
      "to": "0x000000000022d473030f116ddee9f6b43ac78ba3",
      "contractAddress": null
    },
    {
      "status": "0x1",
      "cumulativeGasUsed": "0x31fcf04",
      "logs": [
        {
          "address": "0x429ba70129df741b2ca2a85bc3a2a3328e5c09b4",
          "topics": [
            "0xddf252ad1be2c89b69c2b068fc378daa952ba7f163c4a11628f55a4df523b3ef",
            "0x0000000000000000000000000000000000000000000000000000000000000000",
            "0x0000000000000000000000003e723f6b81431f325e3f08e75544f254c182afe2",
            "0x000000000000000000000000000000000000000000000000000000000000432d"
          ],
          "data": "0x",
          "blockHash": "0xd9814e78c8ae86a86b43a550792bf640453e5be29ae4d3733d214e87cb934368",
          "blockNumber": "0x8cc943",
          "blockTimestamp": "0x68cb92d8",
          "transactionHash": "0x291c1647db704712b2792c805323d6622bbcf6a62821b4b9ea1e5d2135c339f7",
          "transactionIndex": "0x9c",
          "logIndex": "0xb0",
          "removed": false
        },
        {
          "address": "0xe03a1074c86cfedd5c142c4f04f1a1536e203543",
          "topics": [
            "0xf208f4912782fd25c7f114ca3723a2d5dd6f3bcc3ac8db5af63baa85f711d5ec",
            "0x6c28d2b60906a79ceadbbc225031033505ffc8027aa0d19cfea7a21574375983",
            "0x000000000000000000000000429ba70129df741b2ca2a85bc3a2a3328e5c09b4"
          ],
          "data": "0xfffffffffffffffffffffffffffffffffffffffffffffffffffffffffffffed4000000000000000000000000000000000000000000000000000000000000012c00000000000000000000000000000000000000000000000000000000280984f2000000000000000000000000000000000000000000000000000000000000432d",
          "blockHash": "0xd9814e78c8ae86a86b43a550792bf640453e5be29ae4d3733d214e87cb934368",
          "blockNumber": "0x8cc943",
          "blockTimestamp": "0x68cb92d8",
          "transactionHash": "0x291c1647db704712b2792c805323d6622bbcf6a62821b4b9ea1e5d2135c339f7",
          "transactionIndex": "0x9c",
          "logIndex": "0xb1",
          "removed": false
        },
        {
          "address": "0x3e68f0f304314495fa45907170a59d0ba5218bcc",
          "topics": [
            "0xddf252ad1be2c89b69c2b068fc378daa952ba7f163c4a11628f55a4df523b3ef",
            "0x0000000000000000000000003e723f6b81431f325e3f08e75544f254c182afe2",
            "0x000000000000000000000000e03a1074c86cfedd5c142c4f04f1a1536e203543"
          ],
          "data": "0x0000000000000000000000000000000000000000000000000000000000989680",
          "blockHash": "0xd9814e78c8ae86a86b43a550792bf640453e5be29ae4d3733d214e87cb934368",
          "blockNumber": "0x8cc943",
          "blockTimestamp": "0x68cb92d8",
          "transactionHash": "0x291c1647db704712b2792c805323d6622bbcf6a62821b4b9ea1e5d2135c339f7",
          "transactionIndex": "0x9c",
          "logIndex": "0xb2",
          "removed": false
        },
        {
          "address": "0xabc0afb70f325f4119cfca4083ea2a580ec40d3f",
          "topics": [
            "0xddf252ad1be2c89b69c2b068fc378daa952ba7f163c4a11628f55a4df523b3ef",
            "0x0000000000000000000000003e723f6b81431f325e3f08e75544f254c182afe2",
            "0x000000000000000000000000e03a1074c86cfedd5c142c4f04f1a1536e203543"
          ],
          "data": "0x0000000000000000000000000000000000000000000000000000000000989680",
          "blockHash": "0xd9814e78c8ae86a86b43a550792bf640453e5be29ae4d3733d214e87cb934368",
          "blockNumber": "0x8cc943",
          "blockTimestamp": "0x68cb92d8",
          "transactionHash": "0x291c1647db704712b2792c805323d6622bbcf6a62821b4b9ea1e5d2135c339f7",
          "transactionIndex": "0x9c",
          "logIndex": "0xb3",
          "removed": false
        }
      ],
      "logsBloom": "0x00000000000000800000001000000000000000000000000000000000080000000000000000000040080000000080000000000100080000800000000000000000000000000000000000000008000000100000800000000000000000000000000000000000020000000000000080000840010000000020100000000810000000000000000001000000000030000000000000000000000000000000000000000000000004000000004080000000000000000000000000402000000010000000000000000002000000000000000000000000000000000000000000001000000020401000000000000000000000000000000004000000000000000000000000000000",
      "type": "0x2",
      "transactionHash": "0x291c1647db704712b2792c805323d6622bbcf6a62821b4b9ea1e5d2135c339f7",
      "transactionIndex": "0x9c",
      "blockHash": "0xd9814e78c8ae86a86b43a550792bf640453e5be29ae4d3733d214e87cb934368",
      "blockNumber": "0x8cc943",
      "gasUsed": "0x458a1",
      "effectiveGasPrice": "0xf4257",
      "from": "0x3e723f6b81431f325e3f08e75544f254c182afe2",
      "to": "0x429ba70129df741b2ca2a85bc3a2a3328e5c09b4",
      "contractAddress": null
    },
    {
      "status": "0x1",
      "cumulativeGasUsed": "0x32083b5",
      "logs": [
        {
          "address": "0xabc0afb70f325f4119cfca4083ea2a580ec40d3f",
          "topics": [
            "0x8c5be1e5ebec7d5bd14f71427d1e84f3dd0314c0f7b2291e5b200ac8c7c3b925",
            "0x0000000000000000000000003e723f6b81431f325e3f08e75544f254c182afe2",
            "0x000000000000000000000000f13d190e9117920c703d79b5f33732e10049b115"
          ],
          "data": "0xffffffffffffffffffffffffffffffffffffffffffffffffffffffffffffffff",
          "blockHash": "0xd9814e78c8ae86a86b43a550792bf640453e5be29ae4d3733d214e87cb934368",
          "blockNumber": "0x8cc943",
          "blockTimestamp": "0x68cb92d8",
          "transactionHash": "0x74756f39699313e02575e2a3479c3be8fa9ed4ef53d901c18373726fcfa70fe7",
          "transactionIndex": "0x9d",
          "logIndex": "0xb4",
          "removed": false
        }
      ],
      "logsBloom": "0x00000000000000000000000000000000000000000000000000800000000000000000000000000000000000000080000000000000080000000000000000200000000000000000000000000000000000100000000000000000000000000000000000000000000000000000000000000000000000000000000000000000000000000000000000080000000000000000000000000000000000000000000000000000020000000000004080000000000000000000000000000000000010000000000000000000000000000000000000000000000000000000000000000000000080000010000000000000000000000000000000000000000000000000000000000000",
      "type": "0x2",
      "transactionHash": "0x74756f39699313e02575e2a3479c3be8fa9ed4ef53d901c18373726fcfa70fe7",
      "transactionIndex": "0x9d",
      "blockHash": "0xd9814e78c8ae86a86b43a550792bf640453e5be29ae4d3733d214e87cb934368",
      "blockNumber": "0x8cc943",
      "gasUsed": "0xb4b1",
      "effectiveGasPrice": "0xf4257",
      "from": "0x3e723f6b81431f325e3f08e75544f254c182afe2",
      "to": "0xabc0afb70f325f4119cfca4083ea2a580ec40d3f",
      "contractAddress": null
    },
    {
      "status": "0x1",
      "cumulativeGasUsed": "0x3213866",
      "logs": [
        {
          "address": "0x3e68f0f304314495fa45907170a59d0ba5218bcc",
          "topics": [
            "0x8c5be1e5ebec7d5bd14f71427d1e84f3dd0314c0f7b2291e5b200ac8c7c3b925",
            "0x0000000000000000000000003e723f6b81431f325e3f08e75544f254c182afe2",
            "0x000000000000000000000000f13d190e9117920c703d79b5f33732e10049b115"
          ],
          "data": "0xffffffffffffffffffffffffffffffffffffffffffffffffffffffffffffffff",
          "blockHash": "0xd9814e78c8ae86a86b43a550792bf640453e5be29ae4d3733d214e87cb934368",
          "blockNumber": "0x8cc943",
          "blockTimestamp": "0x68cb92d8",
          "transactionHash": "0xe2f8fc0c40ec667ba36c9e96ba1ee54f30b971308bb72e8edfca5ac78ebdfb94",
          "transactionIndex": "0x9e",
          "logIndex": "0xb5",
          "removed": false
        }
      ],
      "logsBloom": "0x00000000000000000000000000000000000000000000000000800000000000000000000000000000000000000000000000000000080000800000000000200000000000000000000000000000000000000000000000000000000000000000000000000000000000000000000000000000000000000000000000000000000000000000000000080000000000000000000000000000000000000000000000000000020000000000000080000000000000000000000000002000000010000000000000000000000000000000000000000000000000000000000000000000000080400010000000000000000000000000000000000000000000000000000000000000",
      "type": "0x2",
      "transactionHash": "0xe2f8fc0c40ec667ba36c9e96ba1ee54f30b971308bb72e8edfca5ac78ebdfb94",
      "transactionIndex": "0x9e",
      "blockHash": "0xd9814e78c8ae86a86b43a550792bf640453e5be29ae4d3733d214e87cb934368",
      "blockNumber": "0x8cc943",
      "gasUsed": "0xb4b1",
      "effectiveGasPrice": "0xf4257",
      "from": "0x3e723f6b81431f325e3f08e75544f254c182afe2",
      "to": "0x3e68f0f304314495fa45907170a59d0ba5218bcc",
      "contractAddress": null
    },
    {
      "status": "0x1",
      "cumulativeGasUsed": "0x3275af9",
      "logs": [
        {
          "address": "0xe03a1074c86cfedd5c142c4f04f1a1536e203543",
          "topics": [
            "0x40e9cecb9f5f1f1c5b9c97dec2917b7ee92e57ba5563708daca94dd84ad7112f",
            "0xcbb0398086986dc764727c59c966cbc19d7f310144cdcc5ef6f4b8c67d30399e",
            "0x000000000000000000000000f13d190e9117920c703d79b5f33732e10049b115"
          ],
          "data": "0x0000000000000000000000000000000000000000000000000000000000000000000000000000000000000000000000000000000000000000000000000000000000000000000000000000000000000000000000000000000000000001000276a40000000000000000000000000000000000000000000000000000000000000000fffffffffffffffffffffffffffffffffffffffffffffffffffffffffff276180000000000000000000000000000000000000000000000000000000000000bb8",
          "blockHash": "0xd9814e78c8ae86a86b43a550792bf640453e5be29ae4d3733d214e87cb934368",
          "blockNumber": "0x8cc943",
          "blockTimestamp": "0x68cb92d8",
          "transactionHash": "0xc7a3091523e9939e1984cd804523df8dac438456020def652ca8efd7379e251d",
          "transactionIndex": "0x9f",
          "logIndex": "0xb6",
          "removed": false
        }
      ],
      "logsBloom": "0x00000000000000000000000000000000000000000000000000800000000000000000000000000000000000000000000000000100040000000000000000000000000000000000000400000000000000000000000000000020000000000000000000000000000000000000000000000000000000000000100000000000000000000000000000080000000000000000000000000000000000000000000000000000000000000000000000000000000000000000000000000000000000000000000000000020000000000000000000000000000000002000000000000000000080001000000000000000004000000000000000000000000000000000000000000000",
      "type": "0x2",
      "transactionHash": "0xc7a3091523e9939e1984cd804523df8dac438456020def652ca8efd7379e251d",
      "transactionIndex": "0x9f",
      "blockHash": "0xd9814e78c8ae86a86b43a550792bf640453e5be29ae4d3733d214e87cb934368",
      "blockNumber": "0x8cc943",
      "gasUsed": "0x62293",
      "effectiveGasPrice": "0xf4257",
      "from": "0x3e723f6b81431f325e3f08e75544f254c182afe2",
      "to": "0xf13d190e9117920c703d79b5f33732e10049b115",
      "contractAddress": null
    }
  ],
  "libraries": [],
  "pending": [],
  "returns": {},
  "timestamp": 1758171865897,
  "chain": 11155111,
  "commit": "7b9c819"
}