{
  "transactions": [
    {
      "hash": "0xf002c8e0cd2affec60a9866ea1f1130ddb3488dc1354b6acd29b8d3f25381564",
      "transactionType": "CALL",
      "contractName": null,
      "contractAddress": "0x54ce5e7351bf259604f3db6d79fc3653a15ef880",
      "function": "configureEncryptedRebalancingStrategy((address,address,uint24,int24,address),uint24,uint32,int24,bool,uint24)",
      "arguments": [
        "(0x3e68f0F304314495fa45907170a59D0BA5218bCc, 0xabc0Afb70F325F4119cFCA4083EA2A580Ec40D3F, 3000, 60, 0x54Ce5e7351BF259604F3DB6D79fC3653A15EF880)",
        "500",
        "3600",
        "200",
        "true",
        "150"
      ],
      "transaction": {
        "from": "0x3e723f6b81431f325e3f08e75544f254c182afe2",
        "to": "0x54ce5e7351bf259604f3db6d79fc3653a15ef880",
        "gas": "0x3ed1e",
        "value": "0x0",
        "input": "0xa9eb74780000000000000000000000003e68f0f304314495fa45907170a59d0ba5218bcc000000000000000000000000abc0afb70f325f4119cfca4083ea2a580ec40d3f0000000000000000000000000000000000000000000000000000000000000bb8000000000000000000000000000000000000000000000000000000000000003c00000000000000000000000054ce5e7351bf259604f3db6d79fc3653a15ef88000000000000000000000000000000000000000000000000000000000000001f40000000000000000000000000000000000000000000000000000000000000e1000000000000000000000000000000000000000000000000000000000000000c800000000000000000000000000000000000000000000000000000000000000010000000000000000000000000000000000000000000000000000000000000096",
        "nonce": "0x66f",
        "chainId": "0xaa36a7"
      },
      "additionalContracts": [],
      "isFixedGasLimit": false
    },
    {
      "hash": "0x042385cffa245c9b284a2c234b12b2559d354f0d71a49024f33a035763bdcef3",
      "transactionType": "CALL",
      "contractName": null,
      "contractAddress": "0x54ce5e7351bf259604f3db6d79fc3653a15ef880",
      "function": "pausePoolRebalancing((address,address,uint24,int24,address))",
      "arguments": [
        "(0x3e68f0F304314495fa45907170a59D0BA5218bCc, 0xabc0Afb70F325F4119cFCA4083EA2A580Ec40D3F, 3000, 60, 0x54Ce5e7351BF259604F3DB6D79fC3653A15EF880)"
      ],
      "transaction": {
        "from": "0x3e723f6b81431f325e3f08e75544f254c182afe2",
        "to": "0x54ce5e7351bf259604f3db6d79fc3653a15ef880",
        "gas": "0x1d86d",
        "value": "0x0",
        "input": "0xfbdd948f0000000000000000000000003e68f0f304314495fa45907170a59d0ba5218bcc000000000000000000000000abc0afb70f325f4119cfca4083ea2a580ec40d3f0000000000000000000000000000000000000000000000000000000000000bb8000000000000000000000000000000000000000000000000000000000000003c00000000000000000000000054ce5e7351bf259604f3db6d79fc3653a15ef880",
        "nonce": "0x670",
        "chainId": "0xaa36a7"
      },
      "additionalContracts": [],
      "isFixedGasLimit": false
    },
    {
      "hash": "0x83e3da430c75f91b34995c5b0cb25f12759e90a808d756ca5ad0d9f88ff1a946",
      "transactionType": "CALL",
      "contractName": null,
      "contractAddress": "0x54ce5e7351bf259604f3db6d79fc3653a15ef880",
      "function": "resumePoolRebalancing((address,address,uint24,int24,address))",
      "arguments": [
        "(0x3e68f0F304314495fa45907170a59D0BA5218bCc, 0xabc0Afb70F325F4119cFCA4083EA2A580Ec40D3F, 3000, 60, 0x54Ce5e7351BF259604F3DB6D79fC3653A15EF880)"
      ],
      "transaction": {
        "from": "0x3e723f6b81431f325e3f08e75544f254c182afe2",
        "to": "0x54ce5e7351bf259604f3db6d79fc3653a15ef880",
        "gas": "0x1f451",
        "value": "0x0",
        "input": "0xfe0389100000000000000000000000003e68f0f304314495fa45907170a59d0ba5218bcc000000000000000000000000abc0afb70f325f4119cfca4083ea2a580ec40d3f0000000000000000000000000000000000000000000000000000000000000bb8000000000000000000000000000000000000000000000000000000000000003c00000000000000000000000054ce5e7351bf259604f3db6d79fc3653a15ef880",
        "nonce": "0x671",
        "chainId": "0xaa36a7"
      },
      "additionalContracts": [],
      "isFixedGasLimit": false
    },
    {
      "hash": "0x4532501f74862426175eb5e2b9151dbf8c7a48a7f9ed09bbb1f0253d06b98c2f",
      "transactionType": "CALL",
      "contractName": null,
      "contractAddress": "0x54ce5e7351bf259604f3db6d79fc3653a15ef880",
      "function": "deactivatePool((address,address,uint24,int24,address))",
      "arguments": [
        "(0x3e68f0F304314495fa45907170a59D0BA5218bCc, 0xabc0Afb70F325F4119cFCA4083EA2A580Ec40D3F, 3000, 60, 0x54Ce5e7351BF259604F3DB6D79fC3653A15EF880)"
      ],
      "transaction": {
        "from": "0x3e723f6b81431f325e3f08e75544f254c182afe2",
        "to": "0x54ce5e7351bf259604f3db6d79fc3653a15ef880",
        "gas": "0x99ee",
        "value": "0x0",
        "input": "0x7a2486b50000000000000000000000003e68f0f304314495fa45907170a59d0ba5218bcc000000000000000000000000abc0afb70f325f4119cfca4083ea2a580ec40d3f0000000000000000000000000000000000000000000000000000000000000bb8000000000000000000000000000000000000000000000000000000000000003c00000000000000000000000054ce5e7351bf259604f3db6d79fc3653a15ef880",
        "nonce": "0x672",
        "chainId": "0xaa36a7"
      },
      "additionalContracts": [],
      "isFixedGasLimit": false
    },
    {
      "hash": "0x771fcdc0496dd60d777825e93a7a755f3dd6239948b80d80a7d3afdad1fb8c1a",
      "transactionType": "CALL",
      "contractName": null,
      "contractAddress": "0x54ce5e7351bf259604f3db6d79fc3653a15ef880",
      "function": "reactivatePool((address,address,uint24,int24,address))",
      "arguments": [
        "(0x3e68f0F304314495fa45907170a59D0BA5218bCc, 0xabc0Afb70F325F4119cFCA4083EA2A580Ec40D3F, 3000, 60, 0x54Ce5e7351BF259604F3DB6D79fC3653A15EF880)"
      ],
      "transaction": {
        "from": "0x3e723f6b81431f325e3f08e75544f254c182afe2",
        "to": "0x54ce5e7351bf259604f3db6d79fc3653a15ef880",
        "gas": "0x106db",
        "value": "0x0",
        "input": "0x54ee1e530000000000000000000000003e68f0f304314495fa45907170a59d0ba5218bcc000000000000000000000000abc0afb70f325f4119cfca4083ea2a580ec40d3f0000000000000000000000000000000000000000000000000000000000000bb8000000000000000000000000000000000000000000000000000000000000003c00000000000000000000000054ce5e7351bf259604f3db6d79fc3653a15ef880",
        "nonce": "0x673",
        "chainId": "0xaa36a7"
      },
      "additionalContracts": [],
      "isFixedGasLimit": false
    },
    {
      "hash": "0x62adfba53df6fb73fd82d853815b03fd96e317f868e578fef49f153c1b60ca6c",
      "transactionType": "CALL",
      "contractName": null,
      "contractAddress": "0xabc0afb70f325f4119cfca4083ea2a580ec40d3f",
      "function": "approve(address,uint256)",
      "arguments": [
        "0x429ba70129df741B2Ca2a85BC3A2a3328e5c09b4",
        "115792089237316195423570985008687907853269984665640564039457584007913129639935"
      ],
      "transaction": {
        "from": "0x3e723f6b81431f325e3f08e75544f254c182afe2",
        "to": "0xabc0afb70f325f4119cfca4083ea2a580ec40d3f",
        "gas": "0x96a4",
        "value": "0x0",
        "input": "0x095ea7b3000000000000000000000000429ba70129df741b2ca2a85bc3a2a3328e5c09b4ffffffffffffffffffffffffffffffffffffffffffffffffffffffffffffffff",
        "nonce": "0x674",
        "chainId": "0xaa36a7"
      },
      "additionalContracts": [],
      "isFixedGasLimit": false
    },
    {
      "hash": "0x2579ccab77a2632c79a4faa09451a7f78d397048fbbbc631c8143bebac6d85dd",
      "transactionType": "CALL",
      "contractName": null,
      "contractAddress": "0x3e68f0f304314495fa45907170a59d0ba5218bcc",
      "function": "approve(address,uint256)",
      "arguments": [
        "0x429ba70129df741B2Ca2a85BC3A2a3328e5c09b4",
        "115792089237316195423570985008687907853269984665640564039457584007913129639935"
      ],
      "transaction": {
        "from": "0x3e723f6b81431f325e3f08e75544f254c182afe2",
        "to": "0x3e68f0f304314495fa45907170a59d0ba5218bcc",
        "gas": "0x96a4",
        "value": "0x0",
        "input": "0x095ea7b3000000000000000000000000429ba70129df741b2ca2a85bc3a2a3328e5c09b4ffffffffffffffffffffffffffffffffffffffffffffffffffffffffffffffff",
        "nonce": "0x675",
        "chainId": "0xaa36a7"
      },
      "additionalContracts": [],
      "isFixedGasLimit": false
    },
    {
      "hash": "0xbc0c4257980cc5f489c654908fffa523ca66a0e2fce72227dc56e2ee94b11058",
      "transactionType": "CALL",
      "contractName": null,
      "contractAddress": "0xabc0afb70f325f4119cfca4083ea2a580ec40d3f",
      "function": "approve(address,uint256)",
      "arguments": [
        "0x000000000022D473030F116dDEE9F6B43aC78BA3",
        "115792089237316195423570985008687907853269984665640564039457584007913129639935"
      ],
      "transaction": {
        "from": "0x3e723f6b81431f325e3f08e75544f254c182afe2",
        "to": "0xabc0afb70f325f4119cfca4083ea2a580ec40d3f",
        "gas": "0x8df2",
        "value": "0x0",
        "input": "0x095ea7b3000000000000000000000000000000000022d473030f116ddee9f6b43ac78ba3ffffffffffffffffffffffffffffffffffffffffffffffffffffffffffffffff",
        "nonce": "0x676",
        "chainId": "0xaa36a7"
      },
      "additionalContracts": [],
      "isFixedGasLimit": false
    },
    {
      "hash": "0x8cf6a9a959b952822955199e4ed233762932348eba12ce94e17a322e5d5ad58b",
      "transactionType": "CALL",
      "contractName": null,
      "contractAddress": "0x000000000022d473030f116ddee9f6b43ac78ba3",
      "function": "approve(address,address,uint160,uint48)",
      "arguments": [
        "0xabc0Afb70F325F4119cFCA4083EA2A580Ec40D3F",
        "0x429ba70129df741B2Ca2a85BC3A2a3328e5c09b4",
        "1461501637330902918203684832716283019655932542975",
        "281474976710655"
      ],
      "transaction": {
        "from": "0x3e723f6b81431f325e3f08e75544f254c182afe2",
        "to": "0x000000000022d473030f116ddee9f6b43ac78ba3",
        "gas": "0x96a0",
        "value": "0x0",
        "input": "0x87517c45000000000000000000000000abc0afb70f325f4119cfca4083ea2a580ec40d3f000000000000000000000000429ba70129df741b2ca2a85bc3a2a3328e5c09b4000000000000000000000000ffffffffffffffffffffffffffffffffffffffff0000000000000000000000000000000000000000000000000000ffffffffffff",
        "nonce": "0x677",
        "chainId": "0xaa36a7"
      },
      "additionalContracts": [],
      "isFixedGasLimit": false
    },
    {
      "hash": "0x6bb53ef452e2cc05eca59720fc489ca8df6a36e328e5096605d7e45cfdc2490d",
      "transactionType": "CALL",
      "contractName": null,
      "contractAddress": "0x3e68f0f304314495fa45907170a59d0ba5218bcc",
      "function": "approve(address,uint256)",
      "arguments": [
        "0x000000000022D473030F116dDEE9F6B43aC78BA3",
        "115792089237316195423570985008687907853269984665640564039457584007913129639935"
      ],
      "transaction": {
        "from": "0x3e723f6b81431f325e3f08e75544f254c182afe2",
        "to": "0x3e68f0f304314495fa45907170a59d0ba5218bcc",
        "gas": "0x8df2",
        "value": "0x0",
        "input": "0x095ea7b3000000000000000000000000000000000022d473030f116ddee9f6b43ac78ba3ffffffffffffffffffffffffffffffffffffffffffffffffffffffffffffffff",
        "nonce": "0x678",
        "chainId": "0xaa36a7"
      },
      "additionalContracts": [],
      "isFixedGasLimit": false
    },
    {
      "hash": "0xc45ec25561c8ed25614733445c095a572d0dbc96d318fa946b8e4caf0b213f30",
      "transactionType": "CALL",
      "contractName": null,
      "contractAddress": "0x000000000022d473030f116ddee9f6b43ac78ba3",
      "function": "approve(address,address,uint160,uint48)",
      "arguments": [
        "0x3e68f0F304314495fa45907170a59D0BA5218bCc",
        "0x429ba70129df741B2Ca2a85BC3A2a3328e5c09b4",
        "1461501637330902918203684832716283019655932542975",
        "281474976710655"
      ],
      "transaction": {
        "from": "0x3e723f6b81431f325e3f08e75544f254c182afe2",
        "to": "0x000000000022d473030f116ddee9f6b43ac78ba3",
        "gas": "0x96a0",
        "value": "0x0",
        "input": "0x87517c450000000000000000000000003e68f0f304314495fa45907170a59d0ba5218bcc000000000000000000000000429ba70129df741b2ca2a85bc3a2a3328e5c09b4000000000000000000000000ffffffffffffffffffffffffffffffffffffffff0000000000000000000000000000000000000000000000000000ffffffffffff",
        "nonce": "0x679",
        "chainId": "0xaa36a7"
      },
      "additionalContracts": [],
      "isFixedGasLimit": false
    },
    {
      "hash": "0x4aeb7300d0e556a84aab8c0e83ff56dfb6cf23eb5b5d9b608be736b24f01c988",
      "transactionType": "CALL",
      "contractName": null,
      "contractAddress": "0x429ba70129df741b2ca2a85bc3a2a3328e5c09b4",
      "function": "multicall(bytes[])",
      "arguments": [
        "[0xdd46508f00000000000000000000000000000000000000000000000000000000000000400000000000000000000000000000000000000000000000000000000068cba8c80000000000000000000000000000000000000000000000000000000000000400000000000000000000000000000000000000000000000000000000000000004000000000000000000000000000000000000000000000000000000000000000800000000000000000000000000000000000000000000000000000000000000004020d14140000000000000000000000000000000000000000000000000000000000000000000000000000000000000000000000000000000000000000000000040000000000000000000000000000000000000000000000000000000000000080000000000000000000000000000000000000000000000000000000000000024000000000000000000000000000000000000000000000000000000000000002a0000000000000000000000000000000000000000000000000000000000000030000000000000000000000000000000000000000000000000000000000000001a00000000000000000000000003e68f0f304314495fa45907170a59d0ba5218bcc000000000000000000000000abc0afb70f325f4119cfca4083ea2a580ec40d3f0000000000000000000000000000000000000000000000000000000000000bb8000000000000000000000000000000000000000000000000000000000000003c0000000000000000000000000000000000000000000000000000000000000000fffffffffffffffffffffffffffffffffffffffffffffffffffffffffffffed400000000000000000000000000000000000000000000000000000000000000f00000000000000000000000000000000000000000000000000000000000001ada0000000000000000000000000000000000000000000000000027147114878000000000000000000000000000000000000000000000000000000000000000006f0000000000000000000000003e723f6b81431f325e3f08e75544f254c182afe20000000000000000000000000000000000000000000000000000000000000180000000000000000000000000000000000000000000000000000000000000000000000000000000000000000000000000000000000000000000000000000000400000000000000000000000003e68f0f304314495fa45907170a59d0ba5218bcc000000000000000000000000abc0afb70f325f4119cfca4083ea2a580ec40d3f00000000000000000000000000000000000000000000000000000000000000400000000000000000000000003e68f0f304314495fa45907170a59d0ba5218bcc0000000000000000000000003e723f6b81431f325e3f08e75544f254c182afe20000000000000000000000000000000000000000000000000000000000000040000000000000000000000000abc0afb70f325f4119cfca4083ea2a580ec40d3f0000000000000000000000003e723f6b81431f325e3f08e75544f254c182afe2]"
      ],
      "transaction": {
        "from": "0x3e723f6b81431f325e3f08e75544f254c182afe2",
        "to": "0x429ba70129df741b2ca2a85bc3a2a3328e5c09b4",
        "gas": "0x5c819",
        "value": "0x0",
        "input": "0xac9650d80000000000000000000000000000000000000000000000000000000000000020000000000000000000000000000000000000000000000000000000000000000100000000000000000000000000000000000000000000000000000000000000200000000000000000000000000000000000000000000000000000000000000464dd46508f00000000000000000000000000000000000000000000000000000000000000400000000000000000000000000000000000000000000000000000000068cba8c80000000000000000000000000000000000000000000000000000000000000400000000000000000000000000000000000000000000000000000000000000004000000000000000000000000000000000000000000000000000000000000000800000000000000000000000000000000000000000000000000000000000000004020d14140000000000000000000000000000000000000000000000000000000000000000000000000000000000000000000000000000000000000000000000040000000000000000000000000000000000000000000000000000000000000080000000000000000000000000000000000000000000000000000000000000024000000000000000000000000000000000000000000000000000000000000002a0000000000000000000000000000000000000000000000000000000000000030000000000000000000000000000000000000000000000000000000000000001a00000000000000000000000003e68f0f304314495fa45907170a59d0ba5218bcc000000000000000000000000abc0afb70f325f4119cfca4083ea2a580ec40d3f0000000000000000000000000000000000000000000000000000000000000bb8000000000000000000000000000000000000000000000000000000000000003c0000000000000000000000000000000000000000000000000000000000000000fffffffffffffffffffffffffffffffffffffffffffffffffffffffffffffed400000000000000000000000000000000000000000000000000000000000000f00000000000000000000000000000000000000000000000000000000000001ada0000000000000000000000000000000000000000000000000027147114878000000000000000000000000000000000000000000000000000000000000000006f0000000000000000000000003e723f6b81431f325e3f08e75544f254c182afe20000000000000000000000000000000000000000000000000000000000000180000000000000000000000000000000000000000000000000000000000000000000000000000000000000000000000000000000000000000000000000000000400000000000000000000000003e68f0f304314495fa45907170a59d0ba5218bcc000000000000000000000000abc0afb70f325f4119cfca4083ea2a580ec40d3f00000000000000000000000000000000000000000000000000000000000000400000000000000000000000003e68f0f304314495fa45907170a59d0ba5218bcc0000000000000000000000003e723f6b81431f325e3f08e75544f254c182afe20000000000000000000000000000000000000000000000000000000000000040000000000000000000000000abc0afb70f325f4119cfca4083ea2a580ec40d3f0000000000000000000000003e723f6b81431f325e3f08e75544f254c182afe200000000000000000000000000000000000000000000000000000000",
        "nonce": "0x67a",
        "chainId": "0xaa36a7"
      },
      "additionalContracts": [],
      "isFixedGasLimit": false
    },
    {
      "hash": "0x98416507a995b08f538ca3b4e555f33247ebb916e806990883a6a364bff035a9",
      "transactionType": "CALL",
      "contractName": null,
      "contractAddress": "0xabc0afb70f325f4119cfca4083ea2a580ec40d3f",
      "function": "approve(address,uint256)",
      "arguments": [
        "0xf13D190e9117920c703d79B5F33732e10049b115",
        "115792089237316195423570985008687907853269984665640564039457584007913129639935"
      ],
      "transaction": {
        "from": "0x3e723f6b81431f325e3f08e75544f254c182afe2",
        "to": "0xabc0afb70f325f4119cfca4083ea2a580ec40d3f",
        "gas": "0x8e35",
        "value": "0x0",
        "input": "0x095ea7b3000000000000000000000000f13d190e9117920c703d79b5f33732e10049b115ffffffffffffffffffffffffffffffffffffffffffffffffffffffffffffffff",
        "nonce": "0x67b",
        "chainId": "0xaa36a7"
      },
      "additionalContracts": [],
      "isFixedGasLimit": false
    },
    {
      "hash": "0x608c8eded9054f7c5b0fb3d238eac4ce759bf604e8e6beefad205373a1211539",
      "transactionType": "CALL",
      "contractName": null,
      "contractAddress": "0x3e68f0f304314495fa45907170a59d0ba5218bcc",
      "function": "approve(address,uint256)",
      "arguments": [
        "0xf13D190e9117920c703d79B5F33732e10049b115",
        "115792089237316195423570985008687907853269984665640564039457584007913129639935"
      ],
      "transaction": {
        "from": "0x3e723f6b81431f325e3f08e75544f254c182afe2",
        "to": "0x3e68f0f304314495fa45907170a59d0ba5218bcc",
        "gas": "0x8e35",
        "value": "0x0",
        "input": "0x095ea7b3000000000000000000000000f13d190e9117920c703d79b5f33732e10049b115ffffffffffffffffffffffffffffffffffffffffffffffffffffffffffffffff",
        "nonce": "0x67c",
        "chainId": "0xaa36a7"
      },
      "additionalContracts": [],
      "isFixedGasLimit": false
    }
  ],
  "receipts": [
    {
      "status": "0x1",
      "cumulativeGasUsed": "0xeb8321",
      "logs": [
        {
          "address": "0xea30c4b8b44078bbf8a6ef5b9f1ec1626c7848d9",
          "topics": [
            "0xe9de54a3e7ddf0c48cc6e1134185300d5a71acbf2d8c21fcdefa9d9dd9e20ac1"
          ],
          "data": "0xa086c907b116b1572126a2ccfaa5f6524f347f8a1d8378ce37b958e0cccc880000000000000000000000000000000000000000000000000000000000000000a000000000000000000000000000000000000000000000000000000000000001f400000000000000000000000000000000000000000000000000000000000000080000000000000000000000000000000000000000000000000000000000000000000000000000000000000000000000000000000000000000000000000000000e7472697669616c456e6372797074000000000000000000000000000000000000",
          "blockHash": "0xb51296bf65b257bf9d110894d0b58c7a01ba2b8fd16da5bc187ee766e0dca3c6",
          "blockNumber": "0x8ccaf9",
          "blockTimestamp": "0x68cba8b0",
          "transactionHash": "0xf002c8e0cd2affec60a9866ea1f1130ddb3488dc1354b6acd29b8d3f25381564",
          "transactionIndex": "0x66",
          "logIndex": "0x8d",
          "removed": false
        },
        {
          "address": "0xea30c4b8b44078bbf8a6ef5b9f1ec1626c7848d9",
          "topics": [
            "0xe9de54a3e7ddf0c48cc6e1134185300d5a71acbf2d8c21fcdefa9d9dd9e20ac1"
          ],
          "data": "0xcc63d19e9a0f97a43bc73dca1ee8b6f4b645d8919747695fa5d1d0da853a840000000000000000000000000000000000000000000000000000000000000000a00000000000000000000000000000000000000000000000000000000000000e1000000000000000000000000000000000000000000000000000000000000000040000000000000000000000000000000000000000000000000000000000000000000000000000000000000000000000000000000000000000000000000000000e7472697669616c456e6372797074000000000000000000000000000000000000",
          "blockHash": "0xb51296bf65b257bf9d110894d0b58c7a01ba2b8fd16da5bc187ee766e0dca3c6",
          "blockNumber": "0x8ccaf9",
          "blockTimestamp": "0x68cba8b0",
          "transactionHash": "0xf002c8e0cd2affec60a9866ea1f1130ddb3488dc1354b6acd29b8d3f25381564",
          "transactionIndex": "0x66",
          "logIndex": "0x8e",
          "removed": false
        },
        {
          "address": "0xea30c4b8b44078bbf8a6ef5b9f1ec1626c7848d9",
          "topics": [
            "0xe9de54a3e7ddf0c48cc6e1134185300d5a71acbf2d8c21fcdefa9d9dd9e20ac1"
          ],
          "data": "0xcdef58c863398f789d9953afd1326207812f448c90165e6886555071b2f4840000000000000000000000000000000000000000000000000000000000000000a000000000000000000000000000000000000000000000000000000000000000c800000000000000000000000000000000000000000000000000000000000000040000000000000000000000000000000000000000000000000000000000000000000000000000000000000000000000000000000000000000000000000000000e7472697669616c456e6372797074000000000000000000000000000000000000",
          "blockHash": "0xb51296bf65b257bf9d110894d0b58c7a01ba2b8fd16da5bc187ee766e0dca3c6",
          "blockNumber": "0x8ccaf9",
          "blockTimestamp": "0x68cba8b0",
          "transactionHash": "0xf002c8e0cd2affec60a9866ea1f1130ddb3488dc1354b6acd29b8d3f25381564",
          "transactionIndex": "0x66",
          "logIndex": "0x8f",
          "removed": false
        },
        {
          "address": "0xea30c4b8b44078bbf8a6ef5b9f1ec1626c7848d9",
          "topics": [
            "0xe9de54a3e7ddf0c48cc6e1134185300d5a71acbf2d8c21fcdefa9d9dd9e20ac1"
          ],
          "data": "0xb3e26d30bbd0fa3e41a1d86cb7844842fbb2638ed221cf36790bbd9c9f3e800000000000000000000000000000000000000000000000000000000000000000a0000000000000000000000000000000000000000000000000000000000000000100000000000000000000000000000000000000000000000000000000000000000000000000000000000000000000000000000000000000000000000000000000000000000000000000000000000000000000000000000000000000000000000e7472697669616c456e6372797074000000000000000000000000000000000000",
          "blockHash": "0xb51296bf65b257bf9d110894d0b58c7a01ba2b8fd16da5bc187ee766e0dca3c6",
          "blockNumber": "0x8ccaf9",
          "blockTimestamp": "0x68cba8b0",
          "transactionHash": "0xf002c8e0cd2affec60a9866ea1f1130ddb3488dc1354b6acd29b8d3f25381564",
          "transactionIndex": "0x66",
          "logIndex": "0x90",
          "removed": false
        },
        {
          "address": "0xea30c4b8b44078bbf8a6ef5b9f1ec1626c7848d9",
          "topics": [
            "0xe9de54a3e7ddf0c48cc6e1134185300d5a71acbf2d8c21fcdefa9d9dd9e20ac1"
          ],
          "data": "0xbd85f53fc4f2243f9ffcb22983ba1d224d1e77fdca733b69f7215d316181840000000000000000000000000000000000000000000000000000000000000000a0000000000000000000000000000000000000000000000000000000000000009600000000000000000000000000000000000000000000000000000000000000040000000000000000000000000000000000000000000000000000000000000000000000000000000000000000000000000000000000000000000000000000000e7472697669616c456e6372797074000000000000000000000000000000000000",
          "blockHash": "0xb51296bf65b257bf9d110894d0b58c7a01ba2b8fd16da5bc187ee766e0dca3c6",
          "blockNumber": "0x8ccaf9",
          "blockTimestamp": "0x68cba8b0",
          "transactionHash": "0xf002c8e0cd2affec60a9866ea1f1130ddb3488dc1354b6acd29b8d3f25381564",
          "transactionIndex": "0x66",
          "logIndex": "0x91",
          "removed": false
        },
        {
          "address": "0x54ce5e7351bf259604f3db6d79fc3653a15ef880",
          "topics": [
            "0x18ff1c138c5686b85dc8b4338640ccef29de32ff4fec45a3f6f220bee9783e45",
            "0x02d51bf75a51000646945e2e9c31b37ab8849b28b49aeb34aa83ba6c044f37a3"
          ],
          "data": "0x000000000000000000000000000000000000000000000000000000000000008000000000000000000000000000000000000000000000000000000000000000c0000000000000000000000000000000000000000000000000000000000000010000000000000000000000000000000000000000000000000000000000000001400000000000000000000000000000000000000000000000000000000000000020a086c907b116b1572126a2ccfaa5f6524f347f8a1d8378ce37b958e0cccc88000000000000000000000000000000000000000000000000000000000000000020cc63d19e9a0f97a43bc73dca1ee8b6f4b645d8919747695fa5d1d0da853a84000000000000000000000000000000000000000000000000000000000000000020cdef58c863398f789d9953afd1326207812f448c90165e6886555071b2f484000000000000000000000000000000000000000000000000000000000000000020b3e26d30bbd0fa3e41a1d86cb7844842fbb2638ed221cf36790bbd9c9f3e8000",
          "blockHash": "0xb51296bf65b257bf9d110894d0b58c7a01ba2b8fd16da5bc187ee766e0dca3c6",
          "blockNumber": "0x8ccaf9",
          "blockTimestamp": "0x68cba8b0",
          "transactionHash": "0xf002c8e0cd2affec60a9866ea1f1130ddb3488dc1354b6acd29b8d3f25381564",
          "transactionIndex": "0x66",
          "logIndex": "0x92",
          "removed": false
        }
      ],
      "logsBloom": "0x00000000000000000000000000000000080000000000000000000000000000000000000000000000000000000000000000400000008000000000000000000000000010000000000000000000000000000000000008000000000000000000000000000000000000000000000000000000000000000000000020000000000000000000000000000000000000000a20000001000000000000008000000000000000000000000000000000000000000000000000000000000000000000000000000000000000000000000000000000000000000000000000080000000000000000000000000000000000000200000000000000000000000000000000020200000000",
      "type": "0x2",
      "transactionHash": "0xf002c8e0cd2affec60a9866ea1f1130ddb3488dc1354b6acd29b8d3f25381564",
      "transactionIndex": "0x66",
      "blockHash": "0xb51296bf65b257bf9d110894d0b58c7a01ba2b8fd16da5bc187ee766e0dca3c6",
      "blockNumber": "0x8ccaf9",
      "gasUsed": "0x2d7b0",
      "effectiveGasPrice": "0xf4260",
      "from": "0x3e723f6b81431f325e3f08e75544f254c182afe2",
      "to": "0x54ce5e7351bf259604f3db6d79fc3653a15ef880",
      "contractAddress": null
    },
    {
      "status": "0x1",
      "cumulativeGasUsed": "0xecd929",
      "logs": [
        {
          "address": "0xea30c4b8b44078bbf8a6ef5b9f1ec1626c7848d9",
          "topics": [
            "0xe9de54a3e7ddf0c48cc6e1134185300d5a71acbf2d8c21fcdefa9d9dd9e20ac1"
          ],
          "data": "0xc290f19dcf7bceb26e550f2bfc2767777b6b3a2e75644053281b2fc1dc88800000000000000000000000000000000000000000000000000000000000000000a0000000000000000000000000000000000000000000000000000000000000000000000000000000000000000000000000000000000000000000000000000000000000000000000000000000000000000000000000000000000000000000000000000000000000000000000000000000000000000000000000000000000000000e7472697669616c456e6372797074000000000000000000000000000000000000",
          "blockHash": "0xb51296bf65b257bf9d110894d0b58c7a01ba2b8fd16da5bc187ee766e0dca3c6",
          "blockNumber": "0x8ccaf9",
          "blockTimestamp": "0x68cba8b0",
          "transactionHash": "0x042385cffa245c9b284a2c234b12b2559d354f0d71a49024f33a035763bdcef3",
          "transactionIndex": "0x67",
          "logIndex": "0x93",
          "removed": false
        },
        {
          "address": "0x54ce5e7351bf259604f3db6d79fc3653a15ef880",
          "topics": [
            "0x18ff1c138c5686b85dc8b4338640ccef29de32ff4fec45a3f6f220bee9783e45",
            "0x02d51bf75a51000646945e2e9c31b37ab8849b28b49aeb34aa83ba6c044f37a3"
          ],
          "data": "0x000000000000000000000000000000000000000000000000000000000000008000000000000000000000000000000000000000000000000000000000000000c0000000000000000000000000000000000000000000000000000000000000010000000000000000000000000000000000000000000000000000000000000001400000000000000000000000000000000000000000000000000000000000000020a086c907b116b1572126a2ccfaa5f6524f347f8a1d8378ce37b958e0cccc88000000000000000000000000000000000000000000000000000000000000000020cc63d19e9a0f97a43bc73dca1ee8b6f4b645d8919747695fa5d1d0da853a84000000000000000000000000000000000000000000000000000000000000000020cdef58c863398f789d9953afd1326207812f448c90165e6886555071b2f484000000000000000000000000000000000000000000000000000000000000000020c290f19dcf7bceb26e550f2bfc2767777b6b3a2e75644053281b2fc1dc888000",
          "blockHash": "0xb51296bf65b257bf9d110894d0b58c7a01ba2b8fd16da5bc187ee766e0dca3c6",
          "blockNumber": "0x8ccaf9",
          "blockTimestamp": "0x68cba8b0",
          "transactionHash": "0x042385cffa245c9b284a2c234b12b2559d354f0d71a49024f33a035763bdcef3",
          "transactionIndex": "0x67",
          "logIndex": "0x94",
          "removed": false
        }
      ],
      "logsBloom": "0x00000000000000000000000000000000080000000000000000000000000000000000000000000000000000000000000000400000008000000000000000000000000010000000000000000000000000000000000008000000000000000000000000000000000000000000000000000000000000000000000020000000000000000000000000000000000000000a20000001000000000000008000000000000000000000000000000000000000000000000000000000000000000000000000000000000000000000000000000000000000000000000000080000000000000000000000000000000000000200000000000000000000000000000000020200000000",
      "type": "0x2",
      "transactionHash": "0x042385cffa245c9b284a2c234b12b2559d354f0d71a49024f33a035763bdcef3",
      "transactionIndex": "0x67",
      "blockHash": "0xb51296bf65b257bf9d110894d0b58c7a01ba2b8fd16da5bc187ee766e0dca3c6",
      "blockNumber": "0x8ccaf9",
      "gasUsed": "0x15608",
      "effectiveGasPrice": "0xf4260",
      "from": "0x3e723f6b81431f325e3f08e75544f254c182afe2",
      "to": "0x54ce5e7351bf259604f3db6d79fc3653a15ef880",
      "contractAddress": null
    },
    {
      "status": "0x1",
      "cumulativeGasUsed": "0xee2f42",
      "logs": [
        {
          "address": "0xea30c4b8b44078bbf8a6ef5b9f1ec1626c7848d9",
          "topics": [
            "0xe9de54a3e7ddf0c48cc6e1134185300d5a71acbf2d8c21fcdefa9d9dd9e20ac1"
          ],
          "data": "0xb3e26d30bbd0fa3e41a1d86cb7844842fbb2638ed221cf36790bbd9c9f3e800000000000000000000000000000000000000000000000000000000000000000a0000000000000000000000000000000000000000000000000000000000000000100000000000000000000000000000000000000000000000000000000000000000000000000000000000000000000000000000000000000000000000000000000000000000000000000000000000000000000000000000000000000000000000e7472697669616c456e6372797074000000000000000000000000000000000000",
          "blockHash": "0xb51296bf65b257bf9d110894d0b58c7a01ba2b8fd16da5bc187ee766e0dca3c6",
          "blockNumber": "0x8ccaf9",
          "blockTimestamp": "0x68cba8b0",
          "transactionHash": "0x83e3da430c75f91b34995c5b0cb25f12759e90a808d756ca5ad0d9f88ff1a946",
          "transactionIndex": "0x68",
          "logIndex": "0x95",
          "removed": false
        },
        {
          "address": "0x54ce5e7351bf259604f3db6d79fc3653a15ef880",
          "topics": [
            "0x18ff1c138c5686b85dc8b4338640ccef29de32ff4fec45a3f6f220bee9783e45",
            "0x02d51bf75a51000646945e2e9c31b37ab8849b28b49aeb34aa83ba6c044f37a3"
          ],
          "data": "0x000000000000000000000000000000000000000000000000000000000000008000000000000000000000000000000000000000000000000000000000000000c0000000000000000000000000000000000000000000000000000000000000010000000000000000000000000000000000000000000000000000000000000001400000000000000000000000000000000000000000000000000000000000000020a086c907b116b1572126a2ccfaa5f6524f347f8a1d8378ce37b958e0cccc88000000000000000000000000000000000000000000000000000000000000000020cc63d19e9a0f97a43bc73dca1ee8b6f4b645d8919747695fa5d1d0da853a84000000000000000000000000000000000000000000000000000000000000000020cdef58c863398f789d9953afd1326207812f448c90165e6886555071b2f484000000000000000000000000000000000000000000000000000000000000000020b3e26d30bbd0fa3e41a1d86cb7844842fbb2638ed221cf36790bbd9c9f3e8000",
          "blockHash": "0xb51296bf65b257bf9d110894d0b58c7a01ba2b8fd16da5bc187ee766e0dca3c6",
          "blockNumber": "0x8ccaf9",
          "blockTimestamp": "0x68cba8b0",
          "transactionHash": "0x83e3da430c75f91b34995c5b0cb25f12759e90a808d756ca5ad0d9f88ff1a946",
          "transactionIndex": "0x68",
          "logIndex": "0x96",
          "removed": false
        }
      ],
      "logsBloom": "0x00000000000000000000000000000000080000000000000000000000000000000000000000000000000000000000000000400000008000000000000000000000000010000000000000000000000000000000000008000000000000000000000000000000000000000000000000000000000000000000000020000000000000000000000000000000000000000a20000001000000000000008000000000000000000000000000000000000000000000000000000000000000000000000000000000000000000000000000000000000000000000000000080000000000000000000000000000000000000200000000000000000000000000000000020200000000",
      "type": "0x2",
      "transactionHash": "0x83e3da430c75f91b34995c5b0cb25f12759e90a808d756ca5ad0d9f88ff1a946",
      "transactionIndex": "0x68",
      "blockHash": "0xb51296bf65b257bf9d110894d0b58c7a01ba2b8fd16da5bc187ee766e0dca3c6",
      "blockNumber": "0x8ccaf9",
      "gasUsed": "0x15619",
      "effectiveGasPrice": "0xf4260",
      "from": "0x3e723f6b81431f325e3f08e75544f254c182afe2",
      "to": "0x54ce5e7351bf259604f3db6d79fc3653a15ef880",
      "contractAddress": null
    },
    {
      "status": "0x1",
      "cumulativeGasUsed": "0xee9883",
      "logs": [
        {
          "address": "0x54ce5e7351bf259604f3db6d79fc3653a15ef880",
          "topics": [
            "0xf354ce2d046227bb2a8db43674dab621b47724bc45cbc0b228a001245d53fd77",
            "0x02d51bf75a51000646945e2e9c31b37ab8849b28b49aeb34aa83ba6c044f37a3"
          ],
          "data": "0x",
          "blockHash": "0xb51296bf65b257bf9d110894d0b58c7a01ba2b8fd16da5bc187ee766e0dca3c6",
          "blockNumber": "0x8ccaf9",
          "blockTimestamp": "0x68cba8b0",
          "transactionHash": "0x4532501f74862426175eb5e2b9151dbf8c7a48a7f9ed09bbb1f0253d06b98c2f",
          "transactionIndex": "0x69",
          "logIndex": "0x97",
          "removed": false
        }
      ],
      "logsBloom": "0x00000800000000000000000000000000000000000000000000000000000000000000000000000000000000000000000000400000000000000000000000000000000010000000000000000000000000000080000000000000000000000000000000000000000000000000000000000000000000000000000020000000000000000000000000000000000000000220000000000000000000008000000000000000000000000000000000000000000000000000000000000000000000000000000000000000000000000000000000000200000000000000000000000000000000000000000000000000000000000000000000000000000000000000000000000000",
      "type": "0x2",
      "transactionHash": "0x4532501f74862426175eb5e2b9151dbf8c7a48a7f9ed09bbb1f0253d06b98c2f",
      "transactionIndex": "0x69",
      "blockHash": "0xb51296bf65b257bf9d110894d0b58c7a01ba2b8fd16da5bc187ee766e0dca3c6",
      "blockNumber": "0x8ccaf9",
      "gasUsed": "0x6941",
      "effectiveGasPrice": "0xf4260",
      "from": "0x3e723f6b81431f325e3f08e75544f254c182afe2",
      "to": "0x54ce5e7351bf259604f3db6d79fc3653a15ef880",
      "contractAddress": null
    },
    {
      "status": "0x1",
      "cumulativeGasUsed": "0xf0eaf7",
      "logs": [
        {
          "address": "0x54ce5e7351bf259604f3db6d79fc3653a15ef880",
          "topics": [
            "0xc4be386fe9fd651a56e42b3b831dd4bf6afaa363eb2d21181fe7e23a8ff50279",
            "0x02d51bf75a51000646945e2e9c31b37ab8849b28b49aeb34aa83ba6c044f37a3"
          ],
          "data": "0x",
          "blockHash": "0xb51296bf65b257bf9d110894d0b58c7a01ba2b8fd16da5bc187ee766e0dca3c6",
          "blockNumber": "0x8ccaf9",
          "transactionHash": "0x771fcdc0496dd60d777825e93a7a755f3dd6239948b80d80a7d3afdad1fb8c1a",
          "transactionIndex": "0x6b",
          "logIndex": "0x9c",
          "removed": false
        }
      ],
      "logsBloom": "0x00000000000000000000000000000000000000000000000000000000000000000000000000000000000000000000000000400000000000000000000000000000000010000000000000000000000000000000000000000000000000000000000000000000000000000000000000000000000000000000000020000000000000100000000000000000000000000220000004000000000000008000000000000000000000001000000000000000000000000000000000000000000000000000000000000000000000000000000000000000000000000000000000000000000000000000000000000000000000000000000000000000000000000000000000000000",
      "type": "0x2",
      "transactionHash": "0x771fcdc0496dd60d777825e93a7a755f3dd6239948b80d80a7d3afdad1fb8c1a",
      "transactionIndex": "0x6b",
      "blockHash": "0xb51296bf65b257bf9d110894d0b58c7a01ba2b8fd16da5bc187ee766e0dca3c6",
      "blockNumber": "0x8ccaf9",
      "gasUsed": "0xbe4f",
      "effectiveGasPrice": "0xf4260",
      "from": "0x3e723f6b81431f325e3f08e75544f254c182afe2",
      "to": "0x54ce5e7351bf259604f3db6d79fc3653a15ef880",
      "contractAddress": null
    },
    {
      "status": "0x1",
      "cumulativeGasUsed": "0xf151f8",
      "logs": [
        {
          "address": "0xabc0afb70f325f4119cfca4083ea2a580ec40d3f",
          "topics": [
            "0x8c5be1e5ebec7d5bd14f71427d1e84f3dd0314c0f7b2291e5b200ac8c7c3b925",
            "0x0000000000000000000000003e723f6b81431f325e3f08e75544f254c182afe2",
            "0x000000000000000000000000429ba70129df741b2ca2a85bc3a2a3328e5c09b4"
          ],
          "data": "0xffffffffffffffffffffffffffffffffffffffffffffffffffffffffffffffff",
          "blockHash": "0xb51296bf65b257bf9d110894d0b58c7a01ba2b8fd16da5bc187ee766e0dca3c6",
          "blockNumber": "0x8ccaf9",
          "blockTimestamp": "0x68cba8b0",
          "transactionHash": "0x62adfba53df6fb73fd82d853815b03fd96e317f868e578fef49f153c1b60ca6c",
          "transactionIndex": "0x6c",
          "logIndex": "0x9d",
          "removed": false
        }
      ],
      "logsBloom": "0x00000000000000000000000000000000000000000000000000000000000000000000000000000040080000000080000000000000080000000000000000200000000000000000000000000000000000100000000000000000000000000000000000000000000000000000000000000000000000000000000000000800000000000000000000000000000000000000000000000000000000000000000000000000020000000000004080000000000000000000000000000000000010000000000000000000000000000000000000000000000000000000000000000000000000000010000000000000000000000000000000000000000000000000000000000000",
      "type": "0x2",
      "transactionHash": "0x62adfba53df6fb73fd82d853815b03fd96e317f868e578fef49f153c1b60ca6c",
      "transactionIndex": "0x6c",
      "blockHash": "0xb51296bf65b257bf9d110894d0b58c7a01ba2b8fd16da5bc187ee766e0dca3c6",
      "blockNumber": "0x8ccaf9",
      "gasUsed": "0x6701",
      "effectiveGasPrice": "0xf4260",
      "from": "0x3e723f6b81431f325e3f08e75544f254c182afe2",
      "to": "0xabc0afb70f325f4119cfca4083ea2a580ec40d3f",
      "contractAddress": null
    },
    {
      "status": "0x1",
      "cumulativeGasUsed": "0xf1b8f9",
      "logs": [
        {
          "address": "0x3e68f0f304314495fa45907170a59d0ba5218bcc",
          "topics": [
            "0x8c5be1e5ebec7d5bd14f71427d1e84f3dd0314c0f7b2291e5b200ac8c7c3b925",
            "0x0000000000000000000000003e723f6b81431f325e3f08e75544f254c182afe2",
            "0x000000000000000000000000429ba70129df741b2ca2a85bc3a2a3328e5c09b4"
          ],
          "data": "0xffffffffffffffffffffffffffffffffffffffffffffffffffffffffffffffff",
          "blockHash": "0xb51296bf65b257bf9d110894d0b58c7a01ba2b8fd16da5bc187ee766e0dca3c6",
          "blockNumber": "0x8ccaf9",
          "transactionHash": "0x2579ccab77a2632c79a4faa09451a7f78d397048fbbbc631c8143bebac6d85dd",
          "transactionIndex": "0x6d",
          "logIndex": "0x9e",
          "removed": false
        }
      ],
      "logsBloom": "0x00000000000000000000000000000000000000000000000000000000000000000000000000000040080000000000000000000000080000800000000000200000000000000000000000000000000000000000000000000000000000000000000000000000000000000000000000000000000000000000000000000800000000000000000000000000000000000000000000000000000000000000000000000000020000000000000080000000000000000000000000002000000010000000000000000000000000000000000000000000000000000000000000000000000000400010000000000000000000000000000000000000000000000000000000000000",
      "type": "0x2",
      "transactionHash": "0x2579ccab77a2632c79a4faa09451a7f78d397048fbbbc631c8143bebac6d85dd",
      "transactionIndex": "0x6d",
      "blockHash": "0xb51296bf65b257bf9d110894d0b58c7a01ba2b8fd16da5bc187ee766e0dca3c6",
      "blockNumber": "0x8ccaf9",
      "gasUsed": "0x6701",
      "effectiveGasPrice": "0xf4260",
      "from": "0x3e723f6b81431f325e3f08e75544f254c182afe2",
      "to": "0x3e68f0f304314495fa45907170a59d0ba5218bcc",
      "contractAddress": null
    },
    {
      "status": "0x1",
      "cumulativeGasUsed": "0xf21fbe",
      "logs": [
        {
          "address": "0xabc0afb70f325f4119cfca4083ea2a580ec40d3f",
          "topics": [
            "0x8c5be1e5ebec7d5bd14f71427d1e84f3dd0314c0f7b2291e5b200ac8c7c3b925",
            "0x0000000000000000000000003e723f6b81431f325e3f08e75544f254c182afe2",
            "0x000000000000000000000000000000000022d473030f116ddee9f6b43ac78ba3"
          ],
          "data": "0xffffffffffffffffffffffffffffffffffffffffffffffffffffffffffffffff",
          "blockHash": "0xb51296bf65b257bf9d110894d0b58c7a01ba2b8fd16da5bc187ee766e0dca3c6",
          "blockNumber": "0x8ccaf9",
          "blockTimestamp": "0x68cba8b0",
          "transactionHash": "0xbc0c4257980cc5f489c654908fffa523ca66a0e2fce72227dc56e2ee94b11058",
          "transactionIndex": "0x6e",
          "logIndex": "0x9f",
          "removed": false
        }
      ],
      "logsBloom": "0x00000000000000000000000000000000000000000000000000000000000000000000000000000000000000000080000000000000880000000000000000200000000000000000000000004000000000100000000000000800000000000000000000000000000000000000000000000000000000000000000000000000000000000000000000000000000000000000000000000000000000000000000000000000020000000000004080000000000000000000000000000000000010000000000000000000000000000000000000000000000000000000000000000000000000000010000000000000000000000000000000000000000000000000000000000000",
      "type": "0x2",
      "transactionHash": "0xbc0c4257980cc5f489c654908fffa523ca66a0e2fce72227dc56e2ee94b11058",
      "transactionIndex": "0x6e",
      "blockHash": "0xb51296bf65b257bf9d110894d0b58c7a01ba2b8fd16da5bc187ee766e0dca3c6",
      "blockNumber": "0x8ccaf9",
      "gasUsed": "0x66c5",
      "effectiveGasPrice": "0xf4260",
      "from": "0x3e723f6b81431f325e3f08e75544f254c182afe2",
      "to": "0xabc0afb70f325f4119cfca4083ea2a580ec40d3f",
      "contractAddress": null
    },
    {
      "status": "0x1",
      "cumulativeGasUsed": "0xf28ccc",
      "logs": [
        {
          "address": "0x000000000022d473030f116ddee9f6b43ac78ba3",
          "topics": [
            "0xda9fa7c1b00402c17d0161b249b1ab8bbec047c5a52207b9c112deffd817036b",
            "0x0000000000000000000000003e723f6b81431f325e3f08e75544f254c182afe2",
            "0x000000000000000000000000abc0afb70f325f4119cfca4083ea2a580ec40d3f",
            "0x000000000000000000000000429ba70129df741b2ca2a85bc3a2a3328e5c09b4"
          ],
          "data": "0x000000000000000000000000ffffffffffffffffffffffffffffffffffffffff0000000000000000000000000000000000000000000000000000ffffffffffff",
          "blockHash": "0xb51296bf65b257bf9d110894d0b58c7a01ba2b8fd16da5bc187ee766e0dca3c6",
          "blockNumber": "0x8ccaf9",
          "transactionHash": "0x8cf6a9a959b952822955199e4ed233762932348eba12ce94e17a322e5d5ad58b",
          "transactionIndex": "0x6f",
          "logIndex": "0xa0",
          "removed": false
        }
      ],
      "logsBloom": "0x00010000000000000000000000000000000000000000000000000000000000000000000000000040080000000000000000000000080000000000000000080000000000000000000000000000000000000000000000000000000000000000000000000000000000000000000000000010000000000000000000000800000000000020000000000000000002000000000000000000000000000000000000000000000000000000000080000000000000000000000000000000000010080000000000000000000000000000000000000000000000000000000040000000000000000000000000000000000000000000000000000000000000400000000000000400",
      "type": "0x2",
      "transactionHash": "0x8cf6a9a959b952822955199e4ed233762932348eba12ce94e17a322e5d5ad58b",
      "transactionIndex": "0x6f",
      "blockHash": "0xb51296bf65b257bf9d110894d0b58c7a01ba2b8fd16da5bc187ee766e0dca3c6",
      "blockNumber": "0x8ccaf9",
      "gasUsed": "0x6d0e",
      "effectiveGasPrice": "0xf4260",
      "from": "0x3e723f6b81431f325e3f08e75544f254c182afe2",
      "to": "0x000000000022d473030f116ddee9f6b43ac78ba3",
      "contractAddress": null
    },
    {
      "status": "0x1",
      "cumulativeGasUsed": "0xf2f391",
      "logs": [
        {
          "address": "0x3e68f0f304314495fa45907170a59d0ba5218bcc",
          "topics": [
            "0x8c5be1e5ebec7d5bd14f71427d1e84f3dd0314c0f7b2291e5b200ac8c7c3b925",
            "0x0000000000000000000000003e723f6b81431f325e3f08e75544f254c182afe2",
            "0x000000000000000000000000000000000022d473030f116ddee9f6b43ac78ba3"
          ],
          "data": "0xffffffffffffffffffffffffffffffffffffffffffffffffffffffffffffffff",
          "blockHash": "0xb51296bf65b257bf9d110894d0b58c7a01ba2b8fd16da5bc187ee766e0dca3c6",
          "blockNumber": "0x8ccaf9",
          "blockTimestamp": "0x68cba8b0",
          "transactionHash": "0x6bb53ef452e2cc05eca59720fc489ca8df6a36e328e5096605d7e45cfdc2490d",
          "transactionIndex": "0x70",
          "logIndex": "0xa1",
          "removed": false
        }
      ],
      "logsBloom": "0x00000000000000000000000000000000000000000000000000000000000000000000000000000000000000000000000000000000880000800000000000200000000000000000000000004000000000000000000000000800000000000000000000000000000000000000000000000000000000000000000000000000000000000000000000000000000000000000000000000000000000000000000000000000020000000000000080000000000000000000000000002000000010000000000000000000000000000000000000000000000000000000000000000000000000400010000000000000000000000000000000000000000000000000000000000000",
      "type": "0x2",
      "transactionHash": "0x6bb53ef452e2cc05eca59720fc489ca8df6a36e328e5096605d7e45cfdc2490d",
      "transactionIndex": "0x70",
      "blockHash": "0xb51296bf65b257bf9d110894d0b58c7a01ba2b8fd16da5bc187ee766e0dca3c6",
      "blockNumber": "0x8ccaf9",
      "gasUsed": "0x66c5",
      "effectiveGasPrice": "0xf4260",
      "from": "0x3e723f6b81431f325e3f08e75544f254c182afe2",
      "to": "0x3e68f0f304314495fa45907170a59d0ba5218bcc",
      "contractAddress": null
    },
    {
      "status": "0x1",
      "cumulativeGasUsed": "0xf3609f",
      "logs": [
        {
          "address": "0x000000000022d473030f116ddee9f6b43ac78ba3",
          "topics": [
            "0xda9fa7c1b00402c17d0161b249b1ab8bbec047c5a52207b9c112deffd817036b",
            "0x0000000000000000000000003e723f6b81431f325e3f08e75544f254c182afe2",
            "0x0000000000000000000000003e68f0f304314495fa45907170a59d0ba5218bcc",
            "0x000000000000000000000000429ba70129df741b2ca2a85bc3a2a3328e5c09b4"
          ],
          "data": "0x000000000000000000000000ffffffffffffffffffffffffffffffffffffffff0000000000000000000000000000000000000000000000000000ffffffffffff",
          "blockHash": "0xb51296bf65b257bf9d110894d0b58c7a01ba2b8fd16da5bc187ee766e0dca3c6",
          "blockNumber": "0x8ccaf9",
          "blockTimestamp": "0x68cba8b0",
          "transactionHash": "0xc45ec25561c8ed25614733445c095a572d0dbc96d318fa946b8e4caf0b213f30",
          "transactionIndex": "0x71",
          "logIndex": "0xa2",
          "removed": false
        }
      ],
      "logsBloom": "0x00010000000000000000000000000000000000000000000000000000000000000000000000000040080040000000000000000000080000000000000000080000000000000000000000000000000000000000000000000000000000000000000000000000000000000000000000000000000000000000000000000800000000000020000000000000000000000000000000000000000000000000000000010000000000000000000080000000000000000000000000000000000010080000000000000000000000000000000000000000000000000000000040000000000000000000000000000000000000000000000000000000000000000000000000000400",
      "type": "0x2",
      "transactionHash": "0xc45ec25561c8ed25614733445c095a572d0dbc96d318fa946b8e4caf0b213f30",
      "transactionIndex": "0x71",
      "blockHash": "0xb51296bf65b257bf9d110894d0b58c7a01ba2b8fd16da5bc187ee766e0dca3c6",
      "blockNumber": "0x8ccaf9",
      "gasUsed": "0x6d0e",
      "effectiveGasPrice": "0xf4260",
      "from": "0x3e723f6b81431f325e3f08e75544f254c182afe2",
      "to": "0x000000000022d473030f116ddee9f6b43ac78ba3",
      "contractAddress": null
    },
    {
      "status": "0x1",
      "cumulativeGasUsed": "0xf754a8",
      "logs": [
        {
          "address": "0x429ba70129df741b2ca2a85bc3a2a3328e5c09b4",
          "topics": [
            "0xddf252ad1be2c89b69c2b068fc378daa952ba7f163c4a11628f55a4df523b3ef",
            "0x0000000000000000000000000000000000000000000000000000000000000000",
            "0x0000000000000000000000003e723f6b81431f325e3f08e75544f254c182afe2",
            "0x0000000000000000000000000000000000000000000000000000000000004334"
          ],
          "data": "0x",
          "blockHash": "0xb51296bf65b257bf9d110894d0b58c7a01ba2b8fd16da5bc187ee766e0dca3c6",
          "blockNumber": "0x8ccaf9",
          "blockTimestamp": "0x68cba8b0",
          "transactionHash": "0x4aeb7300d0e556a84aab8c0e83ff56dfb6cf23eb5b5d9b608be736b24f01c988",
          "transactionIndex": "0x72",
          "logIndex": "0xa3",
          "removed": false
        },
        {
          "address": "0xe03a1074c86cfedd5c142c4f04f1a1536e203543",
          "topics": [
            "0xf208f4912782fd25c7f114ca3723a2d5dd6f3bcc3ac8db5af63baa85f711d5ec",
            "0x6c28d2b60906a79ceadbbc225031033505ffc8027aa0d19cfea7a21574375983",
            "0x000000000000000000000000429ba70129df741b2ca2a85bc3a2a3328e5c09b4"
          ],
          "data": "0xfffffffffffffffffffffffffffffffffffffffffffffffffffffffffffffed400000000000000000000000000000000000000000000000000000000000000f00000000000000000000000000000000000000000000000000000000000001ada0000000000000000000000000000000000000000000000000000000000004334",
          "blockHash": "0xb51296bf65b257bf9d110894d0b58c7a01ba2b8fd16da5bc187ee766e0dca3c6",
          "blockNumber": "0x8ccaf9",
          "blockTimestamp": "0x68cba8b0",
          "transactionHash": "0x4aeb7300d0e556a84aab8c0e83ff56dfb6cf23eb5b5d9b608be736b24f01c988",
          "transactionIndex": "0x72",
          "logIndex": "0xa4",
          "removed": false
        },
        {
          "address": "0x3e68f0f304314495fa45907170a59d0ba5218bcc",
          "topics": [
            "0xddf252ad1be2c89b69c2b068fc378daa952ba7f163c4a11628f55a4df523b3ef",
            "0x0000000000000000000000003e723f6b81431f325e3f08e75544f254c182afe2",
            "0x000000000000000000000000e03a1074c86cfedd5c142c4f04f1a1536e203543"
          ],
          "data": "0x0000000000000000000000000000000000000000000000000000000000000054",
          "blockHash": "0xb51296bf65b257bf9d110894d0b58c7a01ba2b8fd16da5bc187ee766e0dca3c6",
          "blockNumber": "0x8ccaf9",
          "blockTimestamp": "0x68cba8b0",
          "transactionHash": "0x4aeb7300d0e556a84aab8c0e83ff56dfb6cf23eb5b5d9b608be736b24f01c988",
          "transactionIndex": "0x72",
          "logIndex": "0xa5",
          "removed": false
        },
        {
          "address": "0xabc0afb70f325f4119cfca4083ea2a580ec40d3f",
          "topics": [
            "0xddf252ad1be2c89b69c2b068fc378daa952ba7f163c4a11628f55a4df523b3ef",
            "0x0000000000000000000000003e723f6b81431f325e3f08e75544f254c182afe2",
            "0x000000000000000000000000e03a1074c86cfedd5c142c4f04f1a1536e203543"
          ],
          "data": "0x0000000000000000000000000000000000000000000000000000000000000065",
          "blockHash": "0xb51296bf65b257bf9d110894d0b58c7a01ba2b8fd16da5bc187ee766e0dca3c6",
          "blockNumber": "0x8ccaf9",
          "blockTimestamp": "0x68cba8b0",
          "transactionHash": "0x4aeb7300d0e556a84aab8c0e83ff56dfb6cf23eb5b5d9b608be736b24f01c988",
          "transactionIndex": "0x72",
          "logIndex": "0xa6",
          "removed": false
        }
      ],
      "logsBloom": "0x00000000000000800000001000000000000000000000000000000000080000000000000000000040080000000080000000000100080000800000000000000000000000000000000000000008000000100000000000000000000000000000000000000000020000000000000080000840010000000000100000000810000000000000000001000000000010000200000002000000000000000000000000000000002004000000004080000000000000000000000000402000000010000000000000000002000000000000000000000000000000000000000000001000000020401000000000000000000000000000000004000000000000000000000000000000",
      "type": "0x2",
      "transactionHash": "0x4aeb7300d0e556a84aab8c0e83ff56dfb6cf23eb5b5d9b608be736b24f01c988",
      "transactionIndex": "0x72",
      "blockHash": "0xb51296bf65b257bf9d110894d0b58c7a01ba2b8fd16da5bc187ee766e0dca3c6",
      "blockNumber": "0x8ccaf9",
      "gasUsed": "0x3f409",
      "effectiveGasPrice": "0xf4260",
      "from": "0x3e723f6b81431f325e3f08e75544f254c182afe2",
      "to": "0x429ba70129df741b2ca2a85bc3a2a3328e5c09b4",
      "contractAddress": null
    },
    {
      "status": "0x1",
      "cumulativeGasUsed": "0xf7bb9d",
      "logs": [
        {
          "address": "0xabc0afb70f325f4119cfca4083ea2a580ec40d3f",
          "topics": [
            "0x8c5be1e5ebec7d5bd14f71427d1e84f3dd0314c0f7b2291e5b200ac8c7c3b925",
            "0x0000000000000000000000003e723f6b81431f325e3f08e75544f254c182afe2",
            "0x000000000000000000000000f13d190e9117920c703d79b5f33732e10049b115"
          ],
          "data": "0xffffffffffffffffffffffffffffffffffffffffffffffffffffffffffffffff",
          "blockHash": "0xb51296bf65b257bf9d110894d0b58c7a01ba2b8fd16da5bc187ee766e0dca3c6",
          "blockNumber": "0x8ccaf9",
          "transactionHash": "0x98416507a995b08f538ca3b4e555f33247ebb916e806990883a6a364bff035a9",
          "transactionIndex": "0x73",
          "logIndex": "0xa7",
          "removed": false
        }
      ],
      "logsBloom": "0x00000000000000000000000000000000000000000000000000800000000000000000000000000000000000000080000000000000080000000000000000200000000000000000000000000000000000100000000000000000000000000000000000000000000000000000000000000000000000000000000000000000000000000000000000080000000000000000000000000000000000000000000000000000020000000000004080000000000000000000000000000000000010000000000000000000000000000000000000000000000000000000000000000000000080000010000000000000000000000000000000000000000000000000000000000000",
      "type": "0x2",
      "transactionHash": "0x98416507a995b08f538ca3b4e555f33247ebb916e806990883a6a364bff035a9",
      "transactionIndex": "0x73",
      "blockHash": "0xb51296bf65b257bf9d110894d0b58c7a01ba2b8fd16da5bc187ee766e0dca3c6",
      "blockNumber": "0x8ccaf9",
      "gasUsed": "0x66f5",
      "effectiveGasPrice": "0xf4260",
      "from": "0x3e723f6b81431f325e3f08e75544f254c182afe2",
      "to": "0xabc0afb70f325f4119cfca4083ea2a580ec40d3f",
      "contractAddress": null
    },
    {
      "status": "0x1",
      "cumulativeGasUsed": "0xf82292",
      "logs": [
        {
          "address": "0x3e68f0f304314495fa45907170a59d0ba5218bcc",
          "topics": [
            "0x8c5be1e5ebec7d5bd14f71427d1e84f3dd0314c0f7b2291e5b200ac8c7c3b925",
            "0x0000000000000000000000003e723f6b81431f325e3f08e75544f254c182afe2",
            "0x000000000000000000000000f13d190e9117920c703d79b5f33732e10049b115"
          ],
          "data": "0xffffffffffffffffffffffffffffffffffffffffffffffffffffffffffffffff",
          "blockHash": "0xb51296bf65b257bf9d110894d0b58c7a01ba2b8fd16da5bc187ee766e0dca3c6",
          "blockNumber": "0x8ccaf9",
          "transactionHash": "0x608c8eded9054f7c5b0fb3d238eac4ce759bf604e8e6beefad205373a1211539",
          "transactionIndex": "0x74",
          "logIndex": "0xa8",
          "removed": false
        }
      ],
      "logsBloom": "0x00000000000000000000000000000000000000000000000000800000000000000000000000000000000000000000000000000000080000800000000000200000000000000000000000000000000000000000000000000000000000000000000000000000000000000000000000000000000000000000000000000000000000000000000000080000000000000000000000000000000000000000000000000000020000000000000080000000000000000000000000002000000010000000000000000000000000000000000000000000000000000000000000000000000080400010000000000000000000000000000000000000000000000000000000000000",
      "type": "0x2",
      "transactionHash": "0x608c8eded9054f7c5b0fb3d238eac4ce759bf604e8e6beefad205373a1211539",
      "transactionIndex": "0x74",
      "blockHash": "0xb51296bf65b257bf9d110894d0b58c7a01ba2b8fd16da5bc187ee766e0dca3c6",
      "blockNumber": "0x8ccaf9",
      "gasUsed": "0x66f5",
      "effectiveGasPrice": "0xf4260",
      "from": "0x3e723f6b81431f325e3f08e75544f254c182afe2",
      "to": "0x3e68f0f304314495fa45907170a59d0ba5218bcc",
      "contractAddress": null
    }
  ],
  "libraries": [],
  "pending": [],
  "returns": {},
  "timestamp": 1758177458385,
  "chain": 11155111,
  "commit": "8893880"
}