{
  "transactions": [
    {
      "hash": "0x52d147bcac13f32054d7a819a54bf18949be5853483be353c9e674a78effbcc6",
      "transactionType": "CALL",
      "contractName": null,
      "contractAddress": "0x98fb6db4104df971db052a2fc8b7cb760135f880",
      "function": "configureEncryptedRebalancingStrategy((address,address,uint24,int24,address),uint24,uint32,int24,bool,uint24)",
      "arguments": [
        "(0x3e68f0F304314495fa45907170a59D0BA5218bCc, 0xabc0Afb70F325F4119cFCA4083EA2A580Ec40D3F, 3000, 60, 0x98FB6Db4104dF971db052a2fc8B7CB760135F880)",
        "500",
        "3600",
        "200",
        "true",
        "150"
      ],
      "transaction": {
        "from": "0x3e723f6b81431f325e3f08e75544f254c182afe2",
        "to": "0x98fb6db4104df971db052a2fc8b7cb760135f880",
        "gas": "0x3ed1e",
        "value": "0x0",
        "input": "0xa9eb74780000000000000000000000003e68f0f304314495fa45907170a59d0ba5218bcc000000000000000000000000abc0afb70f325f4119cfca4083ea2a580ec40d3f0000000000000000000000000000000000000000000000000000000000000bb8000000000000000000000000000000000000000000000000000000000000003c00000000000000000000000098fb6db4104df971db052a2fc8b7cb760135f88000000000000000000000000000000000000000000000000000000000000001f40000000000000000000000000000000000000000000000000000000000000e1000000000000000000000000000000000000000000000000000000000000000c800000000000000000000000000000000000000000000000000000000000000010000000000000000000000000000000000000000000000000000000000000096",
        "nonce": "0x633",
        "chainId": "0xaa36a7"
      },
      "additionalContracts": [],
      "isFixedGasLimit": false
    },
    {
      "hash": "0x6da398c149279a8cb8dde76be29887f8bccfaaa0b0028865a74d84e49679799e",
      "transactionType": "CALL",
      "contractName": null,
      "contractAddress": "0x98fb6db4104df971db052a2fc8b7cb760135f880",
      "function": "pausePoolRebalancing((address,address,uint24,int24,address))",
      "arguments": [
        "(0x3e68f0F304314495fa45907170a59D0BA5218bCc, 0xabc0Afb70F325F4119cFCA4083EA2A580Ec40D3F, 3000, 60, 0x98FB6Db4104dF971db052a2fc8B7CB760135F880)"
      ],
      "transaction": {
        "from": "0x3e723f6b81431f325e3f08e75544f254c182afe2",
        "to": "0x98fb6db4104df971db052a2fc8b7cb760135f880",
        "gas": "0x1d86d",
        "value": "0x0",
        "input": "0xfbdd948f0000000000000000000000003e68f0f304314495fa45907170a59d0ba5218bcc000000000000000000000000abc0afb70f325f4119cfca4083ea2a580ec40d3f0000000000000000000000000000000000000000000000000000000000000bb8000000000000000000000000000000000000000000000000000000000000003c00000000000000000000000098fb6db4104df971db052a2fc8b7cb760135f880",
        "nonce": "0x634",
        "chainId": "0xaa36a7"
      },
      "additionalContracts": [],
      "isFixedGasLimit": false
    },
    {
      "hash": "0xbf8f66e671a74eaef453143041c1413be82b539bb5336d0823b5d1e4d857feb7",
      "transactionType": "CALL",
      "contractName": null,
      "contractAddress": "0x98fb6db4104df971db052a2fc8b7cb760135f880",
      "function": "resumePoolRebalancing((address,address,uint24,int24,address))",
      "arguments": [
        "(0x3e68f0F304314495fa45907170a59D0BA5218bCc, 0xabc0Afb70F325F4119cFCA4083EA2A580Ec40D3F, 3000, 60, 0x98FB6Db4104dF971db052a2fc8B7CB760135F880)"
      ],
      "transaction": {
        "from": "0x3e723f6b81431f325e3f08e75544f254c182afe2",
        "to": "0x98fb6db4104df971db052a2fc8b7cb760135f880",
        "gas": "0x1f451",
        "value": "0x0",
        "input": "0xfe0389100000000000000000000000003e68f0f304314495fa45907170a59d0ba5218bcc000000000000000000000000abc0afb70f325f4119cfca4083ea2a580ec40d3f0000000000000000000000000000000000000000000000000000000000000bb8000000000000000000000000000000000000000000000000000000000000003c00000000000000000000000098fb6db4104df971db052a2fc8b7cb760135f880",
        "nonce": "0x635",
        "chainId": "0xaa36a7"
      },
      "additionalContracts": [],
      "isFixedGasLimit": false
    },
    {
      "hash": "0xb7c011453fcef3ba7ed90ba7d48d882f52da14d909c0674918759eadccc7657a",
      "transactionType": "CALL",
      "contractName": null,
      "contractAddress": "0x98fb6db4104df971db052a2fc8b7cb760135f880",
      "function": "deactivatePool((address,address,uint24,int24,address))",
      "arguments": [
        "(0x3e68f0F304314495fa45907170a59D0BA5218bCc, 0xabc0Afb70F325F4119cFCA4083EA2A580Ec40D3F, 3000, 60, 0x98FB6Db4104dF971db052a2fc8B7CB760135F880)"
      ],
      "transaction": {
        "from": "0x3e723f6b81431f325e3f08e75544f254c182afe2",
        "to": "0x98fb6db4104df971db052a2fc8b7cb760135f880",
        "gas": "0x99ee",
        "value": "0x0",
        "input": "0x7a2486b50000000000000000000000003e68f0f304314495fa45907170a59d0ba5218bcc000000000000000000000000abc0afb70f325f4119cfca4083ea2a580ec40d3f0000000000000000000000000000000000000000000000000000000000000bb8000000000000000000000000000000000000000000000000000000000000003c00000000000000000000000098fb6db4104df971db052a2fc8b7cb760135f880",
        "nonce": "0x636",
        "chainId": "0xaa36a7"
      },
      "additionalContracts": [],
      "isFixedGasLimit": false
    },
    {
      "hash": "0x3cfbbae2e1df8e8df578ac3111383ee7c38aa0b78dc4308f243272f80a96022f",
      "transactionType": "CALL",
      "contractName": null,
      "contractAddress": "0x98fb6db4104df971db052a2fc8b7cb760135f880",
      "function": "reactivatePool((address,address,uint24,int24,address))",
      "arguments": [
        "(0x3e68f0F304314495fa45907170a59D0BA5218bCc, 0xabc0Afb70F325F4119cFCA4083EA2A580Ec40D3F, 3000, 60, 0x98FB6Db4104dF971db052a2fc8B7CB760135F880)"
      ],
      "transaction": {
        "from": "0x3e723f6b81431f325e3f08e75544f254c182afe2",
        "to": "0x98fb6db4104df971db052a2fc8b7cb760135f880",
        "gas": "0x106db",
        "value": "0x0",
        "input": "0x54ee1e530000000000000000000000003e68f0f304314495fa45907170a59d0ba5218bcc000000000000000000000000abc0afb70f325f4119cfca4083ea2a580ec40d3f0000000000000000000000000000000000000000000000000000000000000bb8000000000000000000000000000000000000000000000000000000000000003c00000000000000000000000098fb6db4104df971db052a2fc8b7cb760135f880",
        "nonce": "0x637",
        "chainId": "0xaa36a7"
      },
      "additionalContracts": [],
      "isFixedGasLimit": false
    },
    {
      "hash": "0x55a3ddf3880354be4925cdfec24cdc6125164fccd2fa5ac18b107e09f70b40b9",
      "transactionType": "CALL",
      "contractName": null,
      "contractAddress": "0xabc0afb70f325f4119cfca4083ea2a580ec40d3f",
      "function": "approve(address,uint256)",
      "arguments": [
        "0x429ba70129df741B2Ca2a85BC3A2a3328e5c09b4",
        "115792089237316195423570985008687907853269984665640564039457584007913129639935"
      ],
      "transaction": {
        "from": "0x3e723f6b81431f325e3f08e75544f254c182afe2",
        "to": "0xabc0afb70f325f4119cfca4083ea2a580ec40d3f",
        "gas": "0x96a4",
        "value": "0x0",
        "input": "0x095ea7b3000000000000000000000000429ba70129df741b2ca2a85bc3a2a3328e5c09b4ffffffffffffffffffffffffffffffffffffffffffffffffffffffffffffffff",
        "nonce": "0x638",
        "chainId": "0xaa36a7"
      },
      "additionalContracts": [],
      "isFixedGasLimit": false
    },
    {
      "hash": "0xa9aa426af006445c5b156307669ef999131e93a40985a8799491a037410aac10",
      "transactionType": "CALL",
      "contractName": null,
      "contractAddress": "0x3e68f0f304314495fa45907170a59d0ba5218bcc",
      "function": "approve(address,uint256)",
      "arguments": [
        "0x429ba70129df741B2Ca2a85BC3A2a3328e5c09b4",
        "115792089237316195423570985008687907853269984665640564039457584007913129639935"
      ],
      "transaction": {
        "from": "0x3e723f6b81431f325e3f08e75544f254c182afe2",
        "to": "0x3e68f0f304314495fa45907170a59d0ba5218bcc",
        "gas": "0x96a4",
        "value": "0x0",
        "input": "0x095ea7b3000000000000000000000000429ba70129df741b2ca2a85bc3a2a3328e5c09b4ffffffffffffffffffffffffffffffffffffffffffffffffffffffffffffffff",
        "nonce": "0x639",
        "chainId": "0xaa36a7"
      },
      "additionalContracts": [],
      "isFixedGasLimit": false
    },
    {
      "hash": "0x88c8f281bc45f9f57a08ac7f76ea19fe1720200844122423846b88c6d01200a6",
      "transactionType": "CALL",
      "contractName": null,
      "contractAddress": "0xabc0afb70f325f4119cfca4083ea2a580ec40d3f",
      "function": "approve(address,uint256)",
      "arguments": [
        "0x000000000022D473030F116dDEE9F6B43aC78BA3",
        "115792089237316195423570985008687907853269984665640564039457584007913129639935"
      ],
      "transaction": {
        "from": "0x3e723f6b81431f325e3f08e75544f254c182afe2",
        "to": "0xabc0afb70f325f4119cfca4083ea2a580ec40d3f",
        "gas": "0x8df2",
        "value": "0x0",
        "input": "0x095ea7b3000000000000000000000000000000000022d473030f116ddee9f6b43ac78ba3ffffffffffffffffffffffffffffffffffffffffffffffffffffffffffffffff",
        "nonce": "0x63a",
        "chainId": "0xaa36a7"
      },
      "additionalContracts": [],
      "isFixedGasLimit": false
    },
    {
      "hash": "0xe833ff51d0e80fd51b61093f5440155c8d51ada11a26cb8864875c41d9924f7a",
      "transactionType": "CALL",
      "contractName": null,
      "contractAddress": "0x000000000022d473030f116ddee9f6b43ac78ba3",
      "function": "approve(address,address,uint160,uint48)",
      "arguments": [
        "0xabc0Afb70F325F4119cFCA4083EA2A580Ec40D3F",
        "0x429ba70129df741B2Ca2a85BC3A2a3328e5c09b4",
        "1461501637330902918203684832716283019655932542975",
        "281474976710655"
      ],
      "transaction": {
        "from": "0x3e723f6b81431f325e3f08e75544f254c182afe2",
        "to": "0x000000000022d473030f116ddee9f6b43ac78ba3",
        "gas": "0x96a0",
        "value": "0x0",
        "input": "0x87517c45000000000000000000000000abc0afb70f325f4119cfca4083ea2a580ec40d3f000000000000000000000000429ba70129df741b2ca2a85bc3a2a3328e5c09b4000000000000000000000000ffffffffffffffffffffffffffffffffffffffff0000000000000000000000000000000000000000000000000000ffffffffffff",
        "nonce": "0x63b",
        "chainId": "0xaa36a7"
      },
      "additionalContracts": [],
      "isFixedGasLimit": false
    },
    {
      "hash": "0xfa6e1b5d206fc79c580cbe9313f7237488d65502d8d7fb6a01480ad932164f7f",
      "transactionType": "CALL",
      "contractName": null,
      "contractAddress": "0x3e68f0f304314495fa45907170a59d0ba5218bcc",
      "function": "approve(address,uint256)",
      "arguments": [
        "0x000000000022D473030F116dDEE9F6B43aC78BA3",
        "115792089237316195423570985008687907853269984665640564039457584007913129639935"
      ],
      "transaction": {
        "from": "0x3e723f6b81431f325e3f08e75544f254c182afe2",
        "to": "0x3e68f0f304314495fa45907170a59d0ba5218bcc",
        "gas": "0x8df2",
        "value": "0x0",
        "input": "0x095ea7b3000000000000000000000000000000000022d473030f116ddee9f6b43ac78ba3ffffffffffffffffffffffffffffffffffffffffffffffffffffffffffffffff",
        "nonce": "0x63c",
        "chainId": "0xaa36a7"
      },
      "additionalContracts": [],
      "isFixedGasLimit": false
    },
    {
      "hash": "0x1c26486a5db9d61ae72de3d7de01e711ff5eea2a70e97efe6674cb344204ddc7",
      "transactionType": "CALL",
      "contractName": null,
      "contractAddress": "0x000000000022d473030f116ddee9f6b43ac78ba3",
      "function": "approve(address,address,uint160,uint48)",
      "arguments": [
        "0x3e68f0F304314495fa45907170a59D0BA5218bCc",
        "0x429ba70129df741B2Ca2a85BC3A2a3328e5c09b4",
        "1461501637330902918203684832716283019655932542975",
        "281474976710655"
      ],
      "transaction": {
        "from": "0x3e723f6b81431f325e3f08e75544f254c182afe2",
        "to": "0x000000000022d473030f116ddee9f6b43ac78ba3",
        "gas": "0x96a0",
        "value": "0x0",
        "input": "0x87517c450000000000000000000000003e68f0f304314495fa45907170a59d0ba5218bcc000000000000000000000000429ba70129df741b2ca2a85bc3a2a3328e5c09b4000000000000000000000000ffffffffffffffffffffffffffffffffffffffff0000000000000000000000000000000000000000000000000000ffffffffffff",
        "nonce": "0x63d",
        "chainId": "0xaa36a7"
      },
      "additionalContracts": [],
      "isFixedGasLimit": false
    },
    {
      "hash": "0x6c09c96622befe0be075b24d19499768aef4b22c49348df3f2eac11a363a9f81",
      "transactionType": "CALL",
      "contractName": null,
      "contractAddress": "0x429ba70129df741b2ca2a85bc3a2a3328e5c09b4",
      "function": "multicall(bytes[])",
      "arguments": [
        "[0xdd46508f00000000000000000000000000000000000000000000000000000000000000400000000000000000000000000000000000000000000000000000000068cb980c0000000000000000000000000000000000000000000000000000000000000400000000000000000000000000000000000000000000000000000000000000004000000000000000000000000000000000000000000000000000000000000000800000000000000000000000000000000000000000000000000000000000000004020d14140000000000000000000000000000000000000000000000000000000000000000000000000000000000000000000000000000000000000000000000040000000000000000000000000000000000000000000000000000000000000080000000000000000000000000000000000000000000000000000000000000024000000000000000000000000000000000000000000000000000000000000002a0000000000000000000000000000000000000000000000000000000000000030000000000000000000000000000000000000000000000000000000000000001a00000000000000000000000003e68f0f304314495fa45907170a59d0ba5218bcc000000000000000000000000abc0afb70f325f4119cfca4083ea2a580ec40d3f0000000000000000000000000000000000000000000000000000000000000bb8000000000000000000000000000000000000000000000000000000000000003c0000000000000000000000000000000000000000000000000000000000000000fffffffffffffffffffffffffffffffffffffffffffffffffffffffffffffed4000000000000000000000000000000000000000000000000000000000000012c0000000000000000000000000000000000000000000000000000000000001a800000000000000000000000000000000000000000000000000027147114878000000000000000000000000000000000000000000000000000000000000000006f0000000000000000000000003e723f6b81431f325e3f08e75544f254c182afe20000000000000000000000000000000000000000000000000000000000000180000000000000000000000000000000000000000000000000000000000000000000000000000000000000000000000000000000000000000000000000000000400000000000000000000000003e68f0f304314495fa45907170a59d0ba5218bcc000000000000000000000000abc0afb70f325f4119cfca4083ea2a580ec40d3f00000000000000000000000000000000000000000000000000000000000000400000000000000000000000003e68f0f304314495fa45907170a59d0ba5218bcc0000000000000000000000003e723f6b81431f325e3f08e75544f254c182afe20000000000000000000000000000000000000000000000000000000000000040000000000000000000000000abc0afb70f325f4119cfca4083ea2a580ec40d3f0000000000000000000000003e723f6b81431f325e3f08e75544f254c182afe2]"
      ],
      "transaction": {
        "from": "0x3e723f6b81431f325e3f08e75544f254c182afe2",
        "to": "0x429ba70129df741b2ca2a85bc3a2a3328e5c09b4",
        "gas": "0x5567b",
        "value": "0x0",
        "input": "0xac9650d80000000000000000000000000000000000000000000000000000000000000020000000000000000000000000000000000000000000000000000000000000000100000000000000000000000000000000000000000000000000000000000000200000000000000000000000000000000000000000000000000000000000000464dd46508f00000000000000000000000000000000000000000000000000000000000000400000000000000000000000000000000000000000000000000000000068cb980c0000000000000000000000000000000000000000000000000000000000000400000000000000000000000000000000000000000000000000000000000000004000000000000000000000000000000000000000000000000000000000000000800000000000000000000000000000000000000000000000000000000000000004020d14140000000000000000000000000000000000000000000000000000000000000000000000000000000000000000000000000000000000000000000000040000000000000000000000000000000000000000000000000000000000000080000000000000000000000000000000000000000000000000000000000000024000000000000000000000000000000000000000000000000000000000000002a0000000000000000000000000000000000000000000000000000000000000030000000000000000000000000000000000000000000000000000000000000001a00000000000000000000000003e68f0f304314495fa45907170a59d0ba5218bcc000000000000000000000000abc0afb70f325f4119cfca4083ea2a580ec40d3f0000000000000000000000000000000000000000000000000000000000000bb8000000000000000000000000000000000000000000000000000000000000003c0000000000000000000000000000000000000000000000000000000000000000fffffffffffffffffffffffffffffffffffffffffffffffffffffffffffffed4000000000000000000000000000000000000000000000000000000000000012c0000000000000000000000000000000000000000000000000000000000001a800000000000000000000000000000000000000000000000000027147114878000000000000000000000000000000000000000000000000000000000000000006f0000000000000000000000003e723f6b81431f325e3f08e75544f254c182afe20000000000000000000000000000000000000000000000000000000000000180000000000000000000000000000000000000000000000000000000000000000000000000000000000000000000000000000000000000000000000000000000400000000000000000000000003e68f0f304314495fa45907170a59d0ba5218bcc000000000000000000000000abc0afb70f325f4119cfca4083ea2a580ec40d3f00000000000000000000000000000000000000000000000000000000000000400000000000000000000000003e68f0f304314495fa45907170a59d0ba5218bcc0000000000000000000000003e723f6b81431f325e3f08e75544f254c182afe20000000000000000000000000000000000000000000000000000000000000040000000000000000000000000abc0afb70f325f4119cfca4083ea2a580ec40d3f0000000000000000000000003e723f6b81431f325e3f08e75544f254c182afe200000000000000000000000000000000000000000000000000000000",
        "nonce": "0x63e",
        "chainId": "0xaa36a7"
      },
      "additionalContracts": [],
      "isFixedGasLimit": false
    },
    {
      "hash": "0x9766c72e147e6da1350f56819649f6582d78b7ac740deedc13a7ebeb64941038",
      "transactionType": "CALL",
      "contractName": null,
      "contractAddress": "0xabc0afb70f325f4119cfca4083ea2a580ec40d3f",
      "function": "approve(address,uint256)",
      "arguments": [
        "0xf13D190e9117920c703d79B5F33732e10049b115",
        "115792089237316195423570985008687907853269984665640564039457584007913129639935"
      ],
      "transaction": {
        "from": "0x3e723f6b81431f325e3f08e75544f254c182afe2",
        "to": "0xabc0afb70f325f4119cfca4083ea2a580ec40d3f",
        "gas": "0x8e35",
        "value": "0x0",
        "input": "0x095ea7b3000000000000000000000000f13d190e9117920c703d79b5f33732e10049b115ffffffffffffffffffffffffffffffffffffffffffffffffffffffffffffffff",
        "nonce": "0x63f",
        "chainId": "0xaa36a7"
      },
      "additionalContracts": [],
      "isFixedGasLimit": false
    },
    {
      "hash": "0xa67fc28e911e6a3b75aaa0e340315dcf95a5fd8731134fb7746c16df7fda2334",
      "transactionType": "CALL",
      "contractName": null,
      "contractAddress": "0x3e68f0f304314495fa45907170a59d0ba5218bcc",
      "function": "approve(address,uint256)",
      "arguments": [
        "0xf13D190e9117920c703d79B5F33732e10049b115",
        "115792089237316195423570985008687907853269984665640564039457584007913129639935"
      ],
      "transaction": {
        "from": "0x3e723f6b81431f325e3f08e75544f254c182afe2",
        "to": "0x3e68f0f304314495fa45907170a59d0ba5218bcc",
        "gas": "0x8e35",
        "value": "0x0",
        "input": "0x095ea7b3000000000000000000000000f13d190e9117920c703d79b5f33732e10049b115ffffffffffffffffffffffffffffffffffffffffffffffffffffffffffffffff",
        "nonce": "0x640",
        "chainId": "0xaa36a7"
      },
      "additionalContracts": [],
      "isFixedGasLimit": false
    }
  ],
  "receipts": [
    {
      "status": "0x1",
      "cumulativeGasUsed": "0x74a0e8",
      "logs": [
        {
          "address": "0xea30c4b8b44078bbf8a6ef5b9f1ec1626c7848d9",
          "topics": [
            "0xe9de54a3e7ddf0c48cc6e1134185300d5a71acbf2d8c21fcdefa9d9dd9e20ac1"
          ],
          "data": "0xa086c907b116b1572126a2ccfaa5f6524f347f8a1d8378ce37b958e0cccc880000000000000000000000000000000000000000000000000000000000000000a000000000000000000000000000000000000000000000000000000000000001f400000000000000000000000000000000000000000000000000000000000000080000000000000000000000000000000000000000000000000000000000000000000000000000000000000000000000000000000000000000000000000000000e7472697669616c456e6372797074000000000000000000000000000000000000",
          "blockHash": "0xcaa2eb4e1f4c28372412516920a0940d2739f5ef57c4c76d0ac8e7ef9e6ec1d4",
          "blockNumber": "0x8cc9ae",
          "transactionHash": "0x52d147bcac13f32054d7a819a54bf18949be5853483be353c9e674a78effbcc6",
          "transactionIndex": "0x5e",
          "logIndex": "0x50",
          "removed": false
        },
        {
          "address": "0xea30c4b8b44078bbf8a6ef5b9f1ec1626c7848d9",
          "topics": [
            "0xe9de54a3e7ddf0c48cc6e1134185300d5a71acbf2d8c21fcdefa9d9dd9e20ac1"
          ],
          "data": "0xcc63d19e9a0f97a43bc73dca1ee8b6f4b645d8919747695fa5d1d0da853a840000000000000000000000000000000000000000000000000000000000000000a00000000000000000000000000000000000000000000000000000000000000e1000000000000000000000000000000000000000000000000000000000000000040000000000000000000000000000000000000000000000000000000000000000000000000000000000000000000000000000000000000000000000000000000e7472697669616c456e6372797074000000000000000000000000000000000000",
          "blockHash": "0xcaa2eb4e1f4c28372412516920a0940d2739f5ef57c4c76d0ac8e7ef9e6ec1d4",
          "blockNumber": "0x8cc9ae",
          "transactionHash": "0x52d147bcac13f32054d7a819a54bf18949be5853483be353c9e674a78effbcc6",
          "transactionIndex": "0x5e",
          "logIndex": "0x51",
          "removed": false
        },
        {
          "address": "0xea30c4b8b44078bbf8a6ef5b9f1ec1626c7848d9",
          "topics": [
            "0xe9de54a3e7ddf0c48cc6e1134185300d5a71acbf2d8c21fcdefa9d9dd9e20ac1"
          ],
          "data": "0xcdef58c863398f789d9953afd1326207812f448c90165e6886555071b2f4840000000000000000000000000000000000000000000000000000000000000000a000000000000000000000000000000000000000000000000000000000000000c800000000000000000000000000000000000000000000000000000000000000040000000000000000000000000000000000000000000000000000000000000000000000000000000000000000000000000000000000000000000000000000000e7472697669616c456e6372797074000000000000000000000000000000000000",
          "blockHash": "0xcaa2eb4e1f4c28372412516920a0940d2739f5ef57c4c76d0ac8e7ef9e6ec1d4",
          "blockNumber": "0x8cc9ae",
          "transactionHash": "0x52d147bcac13f32054d7a819a54bf18949be5853483be353c9e674a78effbcc6",
          "transactionIndex": "0x5e",
          "logIndex": "0x52",
          "removed": false
        },
        {
          "address": "0xea30c4b8b44078bbf8a6ef5b9f1ec1626c7848d9",
          "topics": [
            "0xe9de54a3e7ddf0c48cc6e1134185300d5a71acbf2d8c21fcdefa9d9dd9e20ac1"
          ],
          "data": "0xb3e26d30bbd0fa3e41a1d86cb7844842fbb2638ed221cf36790bbd9c9f3e800000000000000000000000000000000000000000000000000000000000000000a0000000000000000000000000000000000000000000000000000000000000000100000000000000000000000000000000000000000000000000000000000000000000000000000000000000000000000000000000000000000000000000000000000000000000000000000000000000000000000000000000000000000000000e7472697669616c456e6372797074000000000000000000000000000000000000",
          "blockHash": "0xcaa2eb4e1f4c28372412516920a0940d2739f5ef57c4c76d0ac8e7ef9e6ec1d4",
          "blockNumber": "0x8cc9ae",
          "transactionHash": "0x52d147bcac13f32054d7a819a54bf18949be5853483be353c9e674a78effbcc6",
          "transactionIndex": "0x5e",
          "logIndex": "0x53",
          "removed": false
        },
        {
          "address": "0xea30c4b8b44078bbf8a6ef5b9f1ec1626c7848d9",
          "topics": [
            "0xe9de54a3e7ddf0c48cc6e1134185300d5a71acbf2d8c21fcdefa9d9dd9e20ac1"
          ],
          "data": "0xbd85f53fc4f2243f9ffcb22983ba1d224d1e77fdca733b69f7215d316181840000000000000000000000000000000000000000000000000000000000000000a0000000000000000000000000000000000000000000000000000000000000009600000000000000000000000000000000000000000000000000000000000000040000000000000000000000000000000000000000000000000000000000000000000000000000000000000000000000000000000000000000000000000000000e7472697669616c456e6372797074000000000000000000000000000000000000",
          "blockHash": "0xcaa2eb4e1f4c28372412516920a0940d2739f5ef57c4c76d0ac8e7ef9e6ec1d4",
          "blockNumber": "0x8cc9ae",
          "transactionHash": "0x52d147bcac13f32054d7a819a54bf18949be5853483be353c9e674a78effbcc6",
          "transactionIndex": "0x5e",
          "logIndex": "0x54",
          "removed": false
        },
        {
          "address": "0x98fb6db4104df971db052a2fc8b7cb760135f880",
          "topics": [
            "0x18ff1c138c5686b85dc8b4338640ccef29de32ff4fec45a3f6f220bee9783e45",
            "0x4dcf687a49efb8ad9f5870afcc7e5b54eb574d69f28d75eb378e46400196541c"
          ],
          "data": "0x000000000000000000000000000000000000000000000000000000000000008000000000000000000000000000000000000000000000000000000000000000c0000000000000000000000000000000000000000000000000000000000000010000000000000000000000000000000000000000000000000000000000000001400000000000000000000000000000000000000000000000000000000000000020a086c907b116b1572126a2ccfaa5f6524f347f8a1d8378ce37b958e0cccc88000000000000000000000000000000000000000000000000000000000000000020cc63d19e9a0f97a43bc73dca1ee8b6f4b645d8919747695fa5d1d0da853a84000000000000000000000000000000000000000000000000000000000000000020cdef58c863398f789d9953afd1326207812f448c90165e6886555071b2f484000000000000000000000000000000000000000000000000000000000000000020b3e26d30bbd0fa3e41a1d86cb7844842fbb2638ed221cf36790bbd9c9f3e8000",
          "blockHash": "0xcaa2eb4e1f4c28372412516920a0940d2739f5ef57c4c76d0ac8e7ef9e6ec1d4",
          "blockNumber": "0x8cc9ae",
          "transactionHash": "0x52d147bcac13f32054d7a819a54bf18949be5853483be353c9e674a78effbcc6",
          "transactionIndex": "0x5e",
          "logIndex": "0x55",
          "removed": false
        }
      ],
      "logsBloom": "0x00000000000000000000000000000000080000000000000000000000000000000000000000000000000000000000000000000000008000000000000000200000000000000000000000000000000000000000000008000000000000000000000040000000000000000000000000000000000000000000000000000000000000000000000000000000000000000800000001000000000000000010000000000000000004000000000000000000000000000000000000000000000000000000000000000000000000000000000000000000000000000000080000000000020000000000000000000400000200000000000000000000000000000000020200000000",
      "type": "0x2",
      "transactionHash": "0x52d147bcac13f32054d7a819a54bf18949be5853483be353c9e674a78effbcc6",
      "transactionIndex": "0x5e",
      "blockHash": "0xcaa2eb4e1f4c28372412516920a0940d2739f5ef57c4c76d0ac8e7ef9e6ec1d4",
      "blockNumber": "0x8cc9ae",
      "gasUsed": "0x2d7b0",
      "effectiveGasPrice": "0xf4250",
      "from": "0x3e723f6b81431f325e3f08e75544f254c182afe2",
      "to": "0x98fb6db4104df971db052a2fc8b7cb760135f880",
      "contractAddress": null
    },
    {
      "status": "0x1",
      "cumulativeGasUsed": "0x7aa7a4",
      "logs": [
        {
          "address": "0xea30c4b8b44078bbf8a6ef5b9f1ec1626c7848d9",
          "topics": [
            "0xe9de54a3e7ddf0c48cc6e1134185300d5a71acbf2d8c21fcdefa9d9dd9e20ac1"
          ],
          "data": "0xc290f19dcf7bceb26e550f2bfc2767777b6b3a2e75644053281b2fc1dc88800000000000000000000000000000000000000000000000000000000000000000a0000000000000000000000000000000000000000000000000000000000000000000000000000000000000000000000000000000000000000000000000000000000000000000000000000000000000000000000000000000000000000000000000000000000000000000000000000000000000000000000000000000000000000e7472697669616c456e6372797074000000000000000000000000000000000000",
          "blockHash": "0xcaa2eb4e1f4c28372412516920a0940d2739f5ef57c4c76d0ac8e7ef9e6ec1d4",
          "blockNumber": "0x8cc9ae",
          "blockTimestamp": "0x68cb9800",
          "transactionHash": "0x6da398c149279a8cb8dde76be29887f8bccfaaa0b0028865a74d84e49679799e",
          "transactionIndex": "0x61",
          "logIndex": "0x58",
          "removed": false
        },
        {
          "address": "0x98fb6db4104df971db052a2fc8b7cb760135f880",
          "topics": [
            "0x18ff1c138c5686b85dc8b4338640ccef29de32ff4fec45a3f6f220bee9783e45",
            "0x4dcf687a49efb8ad9f5870afcc7e5b54eb574d69f28d75eb378e46400196541c"
          ],
          "data": "0x000000000000000000000000000000000000000000000000000000000000008000000000000000000000000000000000000000000000000000000000000000c0000000000000000000000000000000000000000000000000000000000000010000000000000000000000000000000000000000000000000000000000000001400000000000000000000000000000000000000000000000000000000000000020a086c907b116b1572126a2ccfaa5f6524f347f8a1d8378ce37b958e0cccc88000000000000000000000000000000000000000000000000000000000000000020cc63d19e9a0f97a43bc73dca1ee8b6f4b645d8919747695fa5d1d0da853a84000000000000000000000000000000000000000000000000000000000000000020cdef58c863398f789d9953afd1326207812f448c90165e6886555071b2f484000000000000000000000000000000000000000000000000000000000000000020c290f19dcf7bceb26e550f2bfc2767777b6b3a2e75644053281b2fc1dc888000",
          "blockHash": "0xcaa2eb4e1f4c28372412516920a0940d2739f5ef57c4c76d0ac8e7ef9e6ec1d4",
          "blockNumber": "0x8cc9ae",
          "blockTimestamp": "0x68cb9800",
          "transactionHash": "0x6da398c149279a8cb8dde76be29887f8bccfaaa0b0028865a74d84e49679799e",
          "transactionIndex": "0x61",
          "logIndex": "0x59",
          "removed": false
        }
      ],
      "logsBloom": "0x00000000000000000000000000000000080000000000000000000000000000000000000000000000000000000000000000000000008000000000000000200000000000000000000000000000000000000000000008000000000000000000000040000000000000000000000000000000000000000000000000000000000000000000000000000000000000000800000001000000000000000010000000000000000004000000000000000000000000000000000000000000000000000000000000000000000000000000000000000000000000000000080000000000020000000000000000000400000200000000000000000000000000000000020200000000",
      "type": "0x2",
      "transactionHash": "0x6da398c149279a8cb8dde76be29887f8bccfaaa0b0028865a74d84e49679799e",
      "transactionIndex": "0x61",
      "blockHash": "0xcaa2eb4e1f4c28372412516920a0940d2739f5ef57c4c76d0ac8e7ef9e6ec1d4",
      "blockNumber": "0x8cc9ae",
      "gasUsed": "0x15608",
      "effectiveGasPrice": "0xf4250",
      "from": "0x3e723f6b81431f325e3f08e75544f254c182afe2",
      "to": "0x98fb6db4104df971db052a2fc8b7cb760135f880",
      "contractAddress": null
    },
    {
      "status": "0x1",
      "cumulativeGasUsed": "0x7bfdbd",
      "logs": [
        {
          "address": "0xea30c4b8b44078bbf8a6ef5b9f1ec1626c7848d9",
          "topics": [
            "0xe9de54a3e7ddf0c48cc6e1134185300d5a71acbf2d8c21fcdefa9d9dd9e20ac1"
          ],
          "data": "0xb3e26d30bbd0fa3e41a1d86cb7844842fbb2638ed221cf36790bbd9c9f3e800000000000000000000000000000000000000000000000000000000000000000a0000000000000000000000000000000000000000000000000000000000000000100000000000000000000000000000000000000000000000000000000000000000000000000000000000000000000000000000000000000000000000000000000000000000000000000000000000000000000000000000000000000000000000e7472697669616c456e6372797074000000000000000000000000000000000000",
          "blockHash": "0xcaa2eb4e1f4c28372412516920a0940d2739f5ef57c4c76d0ac8e7ef9e6ec1d4",
          "blockNumber": "0x8cc9ae",
          "blockTimestamp": "0x68cb9800",
          "transactionHash": "0xbf8f66e671a74eaef453143041c1413be82b539bb5336d0823b5d1e4d857feb7",
          "transactionIndex": "0x62",
          "logIndex": "0x5a",
          "removed": false
        },
        {
          "address": "0x98fb6db4104df971db052a2fc8b7cb760135f880",
          "topics": [
            "0x18ff1c138c5686b85dc8b4338640ccef29de32ff4fec45a3f6f220bee9783e45",
            "0x4dcf687a49efb8ad9f5870afcc7e5b54eb574d69f28d75eb378e46400196541c"
          ],
          "data": "0x000000000000000000000000000000000000000000000000000000000000008000000000000000000000000000000000000000000000000000000000000000c0000000000000000000000000000000000000000000000000000000000000010000000000000000000000000000000000000000000000000000000000000001400000000000000000000000000000000000000000000000000000000000000020a086c907b116b1572126a2ccfaa5f6524f347f8a1d8378ce37b958e0cccc88000000000000000000000000000000000000000000000000000000000000000020cc63d19e9a0f97a43bc73dca1ee8b6f4b645d8919747695fa5d1d0da853a84000000000000000000000000000000000000000000000000000000000000000020cdef58c863398f789d9953afd1326207812f448c90165e6886555071b2f484000000000000000000000000000000000000000000000000000000000000000020b3e26d30bbd0fa3e41a1d86cb7844842fbb2638ed221cf36790bbd9c9f3e8000",
          "blockHash": "0xcaa2eb4e1f4c28372412516920a0940d2739f5ef57c4c76d0ac8e7ef9e6ec1d4",
          "blockNumber": "0x8cc9ae",
          "blockTimestamp": "0x68cb9800",
          "transactionHash": "0xbf8f66e671a74eaef453143041c1413be82b539bb5336d0823b5d1e4d857feb7",
          "transactionIndex": "0x62",
          "logIndex": "0x5b",
          "removed": false
        }
      ],
      "logsBloom": "0x00000000000000000000000000000000080000000000000000000000000000000000000000000000000000000000000000000000008000000000000000200000000000000000000000000000000000000000000008000000000000000000000040000000000000000000000000000000000000000000000000000000000000000000000000000000000000000800000001000000000000000010000000000000000004000000000000000000000000000000000000000000000000000000000000000000000000000000000000000000000000000000080000000000020000000000000000000400000200000000000000000000000000000000020200000000",
      "type": "0x2",
      "transactionHash": "0xbf8f66e671a74eaef453143041c1413be82b539bb5336d0823b5d1e4d857feb7",
      "transactionIndex": "0x62",
      "blockHash": "0xcaa2eb4e1f4c28372412516920a0940d2739f5ef57c4c76d0ac8e7ef9e6ec1d4",
      "blockNumber": "0x8cc9ae",
      "gasUsed": "0x15619",
      "effectiveGasPrice": "0xf4250",
      "from": "0x3e723f6b81431f325e3f08e75544f254c182afe2",
      "to": "0x98fb6db4104df971db052a2fc8b7cb760135f880",
      "contractAddress": null
    },
    {
      "status": "0x1",
      "cumulativeGasUsed": "0x7c66fe",
      "logs": [
        {
          "address": "0x98fb6db4104df971db052a2fc8b7cb760135f880",
          "topics": [
            "0xf354ce2d046227bb2a8db43674dab621b47724bc45cbc0b228a001245d53fd77",
            "0x4dcf687a49efb8ad9f5870afcc7e5b54eb574d69f28d75eb378e46400196541c"
          ],
          "data": "0x",
          "blockHash": "0xcaa2eb4e1f4c28372412516920a0940d2739f5ef57c4c76d0ac8e7ef9e6ec1d4",
          "blockNumber": "0x8cc9ae",
          "blockTimestamp": "0x68cb9800",
          "transactionHash": "0xb7c011453fcef3ba7ed90ba7d48d882f52da14d909c0674918759eadccc7657a",
          "transactionIndex": "0x63",
          "logIndex": "0x5c",
          "removed": false
        }
      ],
      "logsBloom": "0x00000800000000000000000000000000000000000000000000000000000000000000000000000000000000000000000000000000000000000000000000200000000000000000000000000000000000000080000000000000000000000000000040000000000000000000000000000000000000000000000000000000000000000000000000000000000000000000000000000000000000000010000000000000000004000000000000000000000000000000000000000000000000000000000000000000000000000000000000000200000000000000000000000000020000000000000000000400000000000000000000000000000000000000000000000000",
      "type": "0x2",
      "transactionHash": "0xb7c011453fcef3ba7ed90ba7d48d882f52da14d909c0674918759eadccc7657a",
      "transactionIndex": "0x63",
      "blockHash": "0xcaa2eb4e1f4c28372412516920a0940d2739f5ef57c4c76d0ac8e7ef9e6ec1d4",
      "blockNumber": "0x8cc9ae",
      "gasUsed": "0x6941",
      "effectiveGasPrice": "0xf4250",
      "from": "0x3e723f6b81431f325e3f08e75544f254c182afe2",
      "to": "0x98fb6db4104df971db052a2fc8b7cb760135f880",
      "contractAddress": null
    },
    {
      "status": "0x1",
      "cumulativeGasUsed": "0x7d254d",
      "logs": [
        {
          "address": "0x98fb6db4104df971db052a2fc8b7cb760135f880",
          "topics": [
            "0xc4be386fe9fd651a56e42b3b831dd4bf6afaa363eb2d21181fe7e23a8ff50279",
            "0x4dcf687a49efb8ad9f5870afcc7e5b54eb574d69f28d75eb378e46400196541c"
          ],
          "data": "0x",
          "blockHash": "0xcaa2eb4e1f4c28372412516920a0940d2739f5ef57c4c76d0ac8e7ef9e6ec1d4",
          "blockNumber": "0x8cc9ae",
          "transactionHash": "0x3cfbbae2e1df8e8df578ac3111383ee7c38aa0b78dc4308f243272f80a96022f",
          "transactionIndex": "0x64",
          "logIndex": "0x5d",
          "removed": false
        }
      ],
      "logsBloom": "0x00000000000000000000000000000000000000000000000000000000000000000000000000000000000000000000000000000000000000000000000000200000000000000000000000000000000000000000000000000000000000000000000040000000000000000000000000000000000000000000000000000000000000100000000000000000000000000000000004000000000000000010000000000000000004001000000000000000000000000000000000000000000000000000000000000000000000000000000000000000000000000000000000000000020000000000000000000400000000000000000000000000000000000000000000000000",
      "type": "0x2",
      "transactionHash": "0x3cfbbae2e1df8e8df578ac3111383ee7c38aa0b78dc4308f243272f80a96022f",
      "transactionIndex": "0x64",
      "blockHash": "0xcaa2eb4e1f4c28372412516920a0940d2739f5ef57c4c76d0ac8e7ef9e6ec1d4",
      "blockNumber": "0x8cc9ae",
      "gasUsed": "0xbe4f",
      "effectiveGasPrice": "0xf4250",
      "from": "0x3e723f6b81431f325e3f08e75544f254c182afe2",
      "to": "0x98fb6db4104df971db052a2fc8b7cb760135f880",
      "contractAddress": null
    },
    {
      "status": "0x1",
      "cumulativeGasUsed": "0x7d8c4e",
      "logs": [
        {
          "address": "0xabc0afb70f325f4119cfca4083ea2a580ec40d3f",
          "topics": [
            "0x8c5be1e5ebec7d5bd14f71427d1e84f3dd0314c0f7b2291e5b200ac8c7c3b925",
            "0x0000000000000000000000003e723f6b81431f325e3f08e75544f254c182afe2",
            "0x000000000000000000000000429ba70129df741b2ca2a85bc3a2a3328e5c09b4"
          ],
          "data": "0xffffffffffffffffffffffffffffffffffffffffffffffffffffffffffffffff",
          "blockHash": "0xcaa2eb4e1f4c28372412516920a0940d2739f5ef57c4c76d0ac8e7ef9e6ec1d4",
          "blockNumber": "0x8cc9ae",
          "blockTimestamp": "0x68cb9800",
          "transactionHash": "0x55a3ddf3880354be4925cdfec24cdc6125164fccd2fa5ac18b107e09f70b40b9",
          "transactionIndex": "0x65",
          "logIndex": "0x5e",
          "removed": false
        }
      ],
      "logsBloom": "0x00000000000000000000000000000000000000000000000000000000000000000000000000000040080000000080000000000000080000000000000000200000000000000000000000000000000000100000000000000000000000000000000000000000000000000000000000000000000000000000000000000800000000000000000000000000000000000000000000000000000000000000000000000000020000000000004080000000000000000000000000000000000010000000000000000000000000000000000000000000000000000000000000000000000000000010000000000000000000000000000000000000000000000000000000000000",
      "type": "0x2",
      "transactionHash": "0x55a3ddf3880354be4925cdfec24cdc6125164fccd2fa5ac18b107e09f70b40b9",
      "transactionIndex": "0x65",
      "blockHash": "0xcaa2eb4e1f4c28372412516920a0940d2739f5ef57c4c76d0ac8e7ef9e6ec1d4",
      "blockNumber": "0x8cc9ae",
      "gasUsed": "0x6701",
      "effectiveGasPrice": "0xf4250",
      "from": "0x3e723f6b81431f325e3f08e75544f254c182afe2",
      "to": "0xabc0afb70f325f4119cfca4083ea2a580ec40d3f",
      "contractAddress": null
    },
    {
      "status": "0x1",
      "cumulativeGasUsed": "0x7df34f",
      "logs": [
        {
          "address": "0x3e68f0f304314495fa45907170a59d0ba5218bcc",
          "topics": [
            "0x8c5be1e5ebec7d5bd14f71427d1e84f3dd0314c0f7b2291e5b200ac8c7c3b925",
            "0x0000000000000000000000003e723f6b81431f325e3f08e75544f254c182afe2",
            "0x000000000000000000000000429ba70129df741b2ca2a85bc3a2a3328e5c09b4"
          ],
          "data": "0xffffffffffffffffffffffffffffffffffffffffffffffffffffffffffffffff",
          "blockHash": "0xcaa2eb4e1f4c28372412516920a0940d2739f5ef57c4c76d0ac8e7ef9e6ec1d4",
          "blockNumber": "0x8cc9ae",
          "blockTimestamp": "0x68cb9800",
          "transactionHash": "0xa9aa426af006445c5b156307669ef999131e93a40985a8799491a037410aac10",
          "transactionIndex": "0x66",
          "logIndex": "0x5f",
          "removed": false
        }
      ],
      "logsBloom": "0x00000000000000000000000000000000000000000000000000000000000000000000000000000040080000000000000000000000080000800000000000200000000000000000000000000000000000000000000000000000000000000000000000000000000000000000000000000000000000000000000000000800000000000000000000000000000000000000000000000000000000000000000000000000020000000000000080000000000000000000000000002000000010000000000000000000000000000000000000000000000000000000000000000000000000400010000000000000000000000000000000000000000000000000000000000000",
      "type": "0x2",
      "transactionHash": "0xa9aa426af006445c5b156307669ef999131e93a40985a8799491a037410aac10",
      "transactionIndex": "0x66",
      "blockHash": "0xcaa2eb4e1f4c28372412516920a0940d2739f5ef57c4c76d0ac8e7ef9e6ec1d4",
      "blockNumber": "0x8cc9ae",
      "gasUsed": "0x6701",
      "effectiveGasPrice": "0xf4250",
      "from": "0x3e723f6b81431f325e3f08e75544f254c182afe2",
      "to": "0x3e68f0f304314495fa45907170a59d0ba5218bcc",
      "contractAddress": null
    },
    {
      "status": "0x1",
      "cumulativeGasUsed": "0x7e5a14",
      "logs": [
        {
          "address": "0xabc0afb70f325f4119cfca4083ea2a580ec40d3f",
          "topics": [
            "0x8c5be1e5ebec7d5bd14f71427d1e84f3dd0314c0f7b2291e5b200ac8c7c3b925",
            "0x0000000000000000000000003e723f6b81431f325e3f08e75544f254c182afe2",
            "0x000000000000000000000000000000000022d473030f116ddee9f6b43ac78ba3"
          ],
          "data": "0xffffffffffffffffffffffffffffffffffffffffffffffffffffffffffffffff",
          "blockHash": "0xcaa2eb4e1f4c28372412516920a0940d2739f5ef57c4c76d0ac8e7ef9e6ec1d4",
          "blockNumber": "0x8cc9ae",
          "blockTimestamp": "0x68cb9800",
          "transactionHash": "0x88c8f281bc45f9f57a08ac7f76ea19fe1720200844122423846b88c6d01200a6",
          "transactionIndex": "0x67",
          "logIndex": "0x60",
          "removed": false
        }
      ],
      "logsBloom": "0x00000000000000000000000000000000000000000000000000000000000000000000000000000000000000000080000000000000880000000000000000200000000000000000000000004000000000100000000000000800000000000000000000000000000000000000000000000000000000000000000000000000000000000000000000000000000000000000000000000000000000000000000000000000020000000000004080000000000000000000000000000000000010000000000000000000000000000000000000000000000000000000000000000000000000000010000000000000000000000000000000000000000000000000000000000000",
      "type": "0x2",
      "transactionHash": "0x88c8f281bc45f9f57a08ac7f76ea19fe1720200844122423846b88c6d01200a6",
      "transactionIndex": "0x67",
      "blockHash": "0xcaa2eb4e1f4c28372412516920a0940d2739f5ef57c4c76d0ac8e7ef9e6ec1d4",
      "blockNumber": "0x8cc9ae",
      "gasUsed": "0x66c5",
      "effectiveGasPrice": "0xf4250",
      "from": "0x3e723f6b81431f325e3f08e75544f254c182afe2",
      "to": "0xabc0afb70f325f4119cfca4083ea2a580ec40d3f",
      "contractAddress": null
    },
    {
      "status": "0x1",
      "cumulativeGasUsed": "0x7f192a",
      "logs": [
        {
          "address": "0x000000000022d473030f116ddee9f6b43ac78ba3",
          "topics": [
            "0xda9fa7c1b00402c17d0161b249b1ab8bbec047c5a52207b9c112deffd817036b",
            "0x0000000000000000000000003e723f6b81431f325e3f08e75544f254c182afe2",
            "0x000000000000000000000000abc0afb70f325f4119cfca4083ea2a580ec40d3f",
            "0x000000000000000000000000429ba70129df741b2ca2a85bc3a2a3328e5c09b4"
          ],
          "data": "0x000000000000000000000000ffffffffffffffffffffffffffffffffffffffff0000000000000000000000000000000000000000000000000000ffffffffffff",
          "blockHash": "0xcaa2eb4e1f4c28372412516920a0940d2739f5ef57c4c76d0ac8e7ef9e6ec1d4",
          "blockNumber": "0x8cc9ae",
          "blockTimestamp": "0x68cb9800",
          "transactionHash": "0xe833ff51d0e80fd51b61093f5440155c8d51ada11a26cb8864875c41d9924f7a",
          "transactionIndex": "0x69",
          "logIndex": "0x61",
          "removed": false
        }
      ],
      "logsBloom": "0x00010000000000000000000000000000000000000000000000000000000000000000000000000040080000000000000000000000080000000000000000080000000000000000000000000000000000000000000000000000000000000000000000000000000000000000000000000010000000000000000000000800000000000020000000000000000002000000000000000000000000000000000000000000000000000000000080000000000000000000000000000000000010080000000000000000000000000000000000000000000000000000000040000000000000000000000000000000000000000000000000000000000000400000000000000400",
      "type": "0x2",
      "transactionHash": "0xe833ff51d0e80fd51b61093f5440155c8d51ada11a26cb8864875c41d9924f7a",
      "transactionIndex": "0x69",
      "blockHash": "0xcaa2eb4e1f4c28372412516920a0940d2739f5ef57c4c76d0ac8e7ef9e6ec1d4",
      "blockNumber": "0x8cc9ae",
      "gasUsed": "0x6d0e",
      "effectiveGasPrice": "0xf4250",
      "from": "0x3e723f6b81431f325e3f08e75544f254c182afe2",
      "to": "0x000000000022d473030f116ddee9f6b43ac78ba3",
      "contractAddress": null
    },
    {
      "status": "0x1",
      "cumulativeGasUsed": "0x7f7fef",
      "logs": [
        {
          "address": "0x3e68f0f304314495fa45907170a59d0ba5218bcc",
          "topics": [
            "0x8c5be1e5ebec7d5bd14f71427d1e84f3dd0314c0f7b2291e5b200ac8c7c3b925",
            "0x0000000000000000000000003e723f6b81431f325e3f08e75544f254c182afe2",
            "0x000000000000000000000000000000000022d473030f116ddee9f6b43ac78ba3"
          ],
          "data": "0xffffffffffffffffffffffffffffffffffffffffffffffffffffffffffffffff",
          "blockHash": "0xcaa2eb4e1f4c28372412516920a0940d2739f5ef57c4c76d0ac8e7ef9e6ec1d4",
          "blockNumber": "0x8cc9ae",
          "transactionHash": "0xfa6e1b5d206fc79c580cbe9313f7237488d65502d8d7fb6a01480ad932164f7f",
          "transactionIndex": "0x6a",
          "logIndex": "0x62",
          "removed": false
        }
      ],
      "logsBloom": "0x00000000000000000000000000000000000000000000000000000000000000000000000000000000000000000000000000000000880000800000000000200000000000000000000000004000000000000000000000000800000000000000000000000000000000000000000000000000000000000000000000000000000000000000000000000000000000000000000000000000000000000000000000000000020000000000000080000000000000000000000000002000000010000000000000000000000000000000000000000000000000000000000000000000000000400010000000000000000000000000000000000000000000000000000000000000",
      "type": "0x2",
      "transactionHash": "0xfa6e1b5d206fc79c580cbe9313f7237488d65502d8d7fb6a01480ad932164f7f",
      "transactionIndex": "0x6a",
      "blockHash": "0xcaa2eb4e1f4c28372412516920a0940d2739f5ef57c4c76d0ac8e7ef9e6ec1d4",
      "blockNumber": "0x8cc9ae",
      "gasUsed": "0x66c5",
      "effectiveGasPrice": "0xf4250",
      "from": "0x3e723f6b81431f325e3f08e75544f254c182afe2",
      "to": "0x3e68f0f304314495fa45907170a59d0ba5218bcc",
      "contractAddress": null
    },
    {
      "status": "0x1",
      "cumulativeGasUsed": "0x7fecfd",
      "logs": [
        {
          "address": "0x000000000022d473030f116ddee9f6b43ac78ba3",
          "topics": [
            "0xda9fa7c1b00402c17d0161b249b1ab8bbec047c5a52207b9c112deffd817036b",
            "0x0000000000000000000000003e723f6b81431f325e3f08e75544f254c182afe2",
            "0x0000000000000000000000003e68f0f304314495fa45907170a59d0ba5218bcc",
            "0x000000000000000000000000429ba70129df741b2ca2a85bc3a2a3328e5c09b4"
          ],
          "data": "0x000000000000000000000000ffffffffffffffffffffffffffffffffffffffff0000000000000000000000000000000000000000000000000000ffffffffffff",
          "blockHash": "0xcaa2eb4e1f4c28372412516920a0940d2739f5ef57c4c76d0ac8e7ef9e6ec1d4",
          "blockNumber": "0x8cc9ae",
          "blockTimestamp": "0x68cb9800",
          "transactionHash": "0x1c26486a5db9d61ae72de3d7de01e711ff5eea2a70e97efe6674cb344204ddc7",
          "transactionIndex": "0x6b",
          "logIndex": "0x63",
          "removed": false
        }
      ],
      "logsBloom": "0x00010000000000000000000000000000000000000000000000000000000000000000000000000040080040000000000000000000080000000000000000080000000000000000000000000000000000000000000000000000000000000000000000000000000000000000000000000000000000000000000000000800000000000020000000000000000000000000000000000000000000000000000000010000000000000000000080000000000000000000000000000000000010080000000000000000000000000000000000000000000000000000000040000000000000000000000000000000000000000000000000000000000000000000000000000400",
      "type": "0x2",
      "transactionHash": "0x1c26486a5db9d61ae72de3d7de01e711ff5eea2a70e97efe6674cb344204ddc7",
      "transactionIndex": "0x6b",
      "blockHash": "0xcaa2eb4e1f4c28372412516920a0940d2739f5ef57c4c76d0ac8e7ef9e6ec1d4",
      "blockNumber": "0x8cc9ae",
      "gasUsed": "0x6d0e",
      "effectiveGasPrice": "0xf4250",
      "from": "0x3e723f6b81431f325e3f08e75544f254c182afe2",
      "to": "0x000000000022d473030f116ddee9f6b43ac78ba3",
      "contractAddress": null
    },
    {
      "status": "0x1",
      "cumulativeGasUsed": "0x839356",
      "logs": [
        {
          "address": "0x429ba70129df741b2ca2a85bc3a2a3328e5c09b4",
          "topics": [
            "0xddf252ad1be2c89b69c2b068fc378daa952ba7f163c4a11628f55a4df523b3ef",
            "0x0000000000000000000000000000000000000000000000000000000000000000",
            "0x0000000000000000000000003e723f6b81431f325e3f08e75544f254c182afe2",
            "0x0000000000000000000000000000000000000000000000000000000000004330"
          ],
          "data": "0x",
          "blockHash": "0xcaa2eb4e1f4c28372412516920a0940d2739f5ef57c4c76d0ac8e7ef9e6ec1d4",
          "blockNumber": "0x8cc9ae",
          "transactionHash": "0x6c09c96622befe0be075b24d19499768aef4b22c49348df3f2eac11a363a9f81",
          "transactionIndex": "0x6c",
          "logIndex": "0x64",
          "removed": false
        },
        {
          "address": "0xe03a1074c86cfedd5c142c4f04f1a1536e203543",
          "topics": [
            "0xf208f4912782fd25c7f114ca3723a2d5dd6f3bcc3ac8db5af63baa85f711d5ec",
            "0x6c28d2b60906a79ceadbbc225031033505ffc8027aa0d19cfea7a21574375983",
            "0x000000000000000000000000429ba70129df741b2ca2a85bc3a2a3328e5c09b4"
          ],
          "data": "0xfffffffffffffffffffffffffffffffffffffffffffffffffffffffffffffed4000000000000000000000000000000000000000000000000000000000000012c0000000000000000000000000000000000000000000000000000000000001a800000000000000000000000000000000000000000000000000000000000004330",
          "blockHash": "0xcaa2eb4e1f4c28372412516920a0940d2739f5ef57c4c76d0ac8e7ef9e6ec1d4",
          "blockNumber": "0x8cc9ae",
          "transactionHash": "0x6c09c96622befe0be075b24d19499768aef4b22c49348df3f2eac11a363a9f81",
          "transactionIndex": "0x6c",
          "logIndex": "0x65",
          "removed": false
        },
        {
          "address": "0x3e68f0f304314495fa45907170a59d0ba5218bcc",
          "topics": [
            "0xddf252ad1be2c89b69c2b068fc378daa952ba7f163c4a11628f55a4df523b3ef",
            "0x0000000000000000000000003e723f6b81431f325e3f08e75544f254c182afe2",
            "0x000000000000000000000000e03a1074c86cfedd5c142c4f04f1a1536e203543"
          ],
          "data": "0x0000000000000000000000000000000000000000000000000000000000000065",
          "blockHash": "0xcaa2eb4e1f4c28372412516920a0940d2739f5ef57c4c76d0ac8e7ef9e6ec1d4",
          "blockNumber": "0x8cc9ae",
          "transactionHash": "0x6c09c96622befe0be075b24d19499768aef4b22c49348df3f2eac11a363a9f81",
          "transactionIndex": "0x6c",
          "logIndex": "0x66",
          "removed": false
        },
        {
          "address": "0xabc0afb70f325f4119cfca4083ea2a580ec40d3f",
          "topics": [
            "0xddf252ad1be2c89b69c2b068fc378daa952ba7f163c4a11628f55a4df523b3ef",
            "0x0000000000000000000000003e723f6b81431f325e3f08e75544f254c182afe2",
            "0x000000000000000000000000e03a1074c86cfedd5c142c4f04f1a1536e203543"
          ],
          "data": "0x0000000000000000000000000000000000000000000000000000000000000065",
          "blockHash": "0xcaa2eb4e1f4c28372412516920a0940d2739f5ef57c4c76d0ac8e7ef9e6ec1d4",
          "blockNumber": "0x8cc9ae",
          "transactionHash": "0x6c09c96622befe0be075b24d19499768aef4b22c49348df3f2eac11a363a9f81",
          "transactionIndex": "0x6c",
          "logIndex": "0x67",
          "removed": false
        }
      ],
      "logsBloom": "0x00000000000000800000001000000000000000000000000000000000080000000000000000000040080000000080000000000100080000800000080000000000000000000800000000000008000000100000000080000000000000000000000000000000020000000000000080000840010000000000100000000810000000000000000001000000000010000000000000000000000000000000000000000000000004000000004080000000000000000000000000402000000010000000000000000002000000000000000000000000000000000000000000001000000020401000000000000000000000000000000004000000000000000000000000000000",
      "type": "0x2",
      "transactionHash": "0x6c09c96622befe0be075b24d19499768aef4b22c49348df3f2eac11a363a9f81",
      "transactionIndex": "0x6c",
      "blockHash": "0xcaa2eb4e1f4c28372412516920a0940d2739f5ef57c4c76d0ac8e7ef9e6ec1d4",
      "blockNumber": "0x8cc9ae",
      "gasUsed": "0x3a659",
      "effectiveGasPrice": "0xf4250",
      "from": "0x3e723f6b81431f325e3f08e75544f254c182afe2",
      "to": "0x429ba70129df741b2ca2a85bc3a2a3328e5c09b4",
      "contractAddress": null
    },
    {
      "status": "0x1",
      "cumulativeGasUsed": "0x83fa4b",
      "logs": [
        {
          "address": "0xabc0afb70f325f4119cfca4083ea2a580ec40d3f",
          "topics": [
            "0x8c5be1e5ebec7d5bd14f71427d1e84f3dd0314c0f7b2291e5b200ac8c7c3b925",
            "0x0000000000000000000000003e723f6b81431f325e3f08e75544f254c182afe2",
            "0x000000000000000000000000f13d190e9117920c703d79b5f33732e10049b115"
          ],
          "data": "0xffffffffffffffffffffffffffffffffffffffffffffffffffffffffffffffff",
          "blockHash": "0xcaa2eb4e1f4c28372412516920a0940d2739f5ef57c4c76d0ac8e7ef9e6ec1d4",
          "blockNumber": "0x8cc9ae",
          "transactionHash": "0x9766c72e147e6da1350f56819649f6582d78b7ac740deedc13a7ebeb64941038",
          "transactionIndex": "0x6d",
          "logIndex": "0x68",
          "removed": false
        }
      ],
      "logsBloom": "0x00000000000000000000000000000000000000000000000000800000000000000000000000000000000000000080000000000000080000000000000000200000000000000000000000000000000000100000000000000000000000000000000000000000000000000000000000000000000000000000000000000000000000000000000000080000000000000000000000000000000000000000000000000000020000000000004080000000000000000000000000000000000010000000000000000000000000000000000000000000000000000000000000000000000080000010000000000000000000000000000000000000000000000000000000000000",
      "type": "0x2",
      "transactionHash": "0x9766c72e147e6da1350f56819649f6582d78b7ac740deedc13a7ebeb64941038",
      "transactionIndex": "0x6d",
      "blockHash": "0xcaa2eb4e1f4c28372412516920a0940d2739f5ef57c4c76d0ac8e7ef9e6ec1d4",
      "blockNumber": "0x8cc9ae",
      "gasUsed": "0x66f5",
      "effectiveGasPrice": "0xf4250",
      "from": "0x3e723f6b81431f325e3f08e75544f254c182afe2",
      "to": "0xabc0afb70f325f4119cfca4083ea2a580ec40d3f",
      "contractAddress": null
    },
    {
      "status": "0x1",
      "cumulativeGasUsed": "0x846140",
      "logs": [
        {
          "address": "0x3e68f0f304314495fa45907170a59d0ba5218bcc",
          "topics": [
            "0x8c5be1e5ebec7d5bd14f71427d1e84f3dd0314c0f7b2291e5b200ac8c7c3b925",
            "0x0000000000000000000000003e723f6b81431f325e3f08e75544f254c182afe2",
            "0x000000000000000000000000f13d190e9117920c703d79b5f33732e10049b115"
          ],
          "data": "0xffffffffffffffffffffffffffffffffffffffffffffffffffffffffffffffff",
          "blockHash": "0xcaa2eb4e1f4c28372412516920a0940d2739f5ef57c4c76d0ac8e7ef9e6ec1d4",
          "blockNumber": "0x8cc9ae",
          "transactionHash": "0xa67fc28e911e6a3b75aaa0e340315dcf95a5fd8731134fb7746c16df7fda2334",
          "transactionIndex": "0x6e",
          "logIndex": "0x69",
          "removed": false
        }
      ],
      "logsBloom": "0x00000000000000000000000000000000000000000000000000800000000000000000000000000000000000000000000000000000080000800000000000200000000000000000000000000000000000000000000000000000000000000000000000000000000000000000000000000000000000000000000000000000000000000000000000080000000000000000000000000000000000000000000000000000020000000000000080000000000000000000000000002000000010000000000000000000000000000000000000000000000000000000000000000000000080400010000000000000000000000000000000000000000000000000000000000000",
      "type": "0x2",
      "transactionHash": "0xa67fc28e911e6a3b75aaa0e340315dcf95a5fd8731134fb7746c16df7fda2334",
      "transactionIndex": "0x6e",
      "blockHash": "0xcaa2eb4e1f4c28372412516920a0940d2739f5ef57c4c76d0ac8e7ef9e6ec1d4",
      "blockNumber": "0x8cc9ae",
      "gasUsed": "0x66f5",
      "effectiveGasPrice": "0xf4250",
      "from": "0x3e723f6b81431f325e3f08e75544f254c182afe2",
      "to": "0x3e68f0f304314495fa45907170a59d0ba5218bcc",
      "contractAddress": null
    }
  ],
  "libraries": [],
  "pending": [],
  "returns": {},
  "timestamp": 1758173187428,
  "chain": 11155111,
  "commit": "7b9c819"
}