{
  "transactions": [
    {
      "hash": "0x51e0d72930412e0d8761bd3c4f53a6b60b05d2671f1b97aac50627df266cf16c",
      "transactionType": "CALL",
      "contractName": null,
      "contractAddress": "0xa502683ee305567d36a7ce8d7ed5952cf816f880",
      "function": "configureEncryptedRebalancingStrategy((address,address,uint24,int24,address),uint24,uint32,int24,bool,uint24)",
      "arguments": [
        "(0x0058863bB78B4325caB9d50Ab75ca43601a9eF6b, 0x5abeC0563014C1C02Eb7a4f6924896e5F92579FC, 3000, 60, 0xa502683Ee305567D36a7Ce8d7ED5952CF816f880)",
        "500",
        "3600",
        "200",
        "true",
        "150"
      ],
      "transaction": {
        "from": "0x3e723f6b81431f325e3f08e75544f254c182afe2",
        "to": "0xa502683ee305567d36a7ce8d7ed5952cf816f880",
        "gas": "0x3ed0d",
        "value": "0x0",
        "input": "0xa9eb74780000000000000000000000000058863bb78b4325cab9d50ab75ca43601a9ef6b0000000000000000000000005abec0563014c1c02eb7a4f6924896e5f92579fc0000000000000000000000000000000000000000000000000000000000000bb8000000000000000000000000000000000000000000000000000000000000003c000000000000000000000000a502683ee305567d36a7ce8d7ed5952cf816f88000000000000000000000000000000000000000000000000000000000000001f40000000000000000000000000000000000000000000000000000000000000e1000000000000000000000000000000000000000000000000000000000000000c800000000000000000000000000000000000000000000000000000000000000010000000000000000000000000000000000000000000000000000000000000096",
        "nonce": "0x5e4",
        "chainId": "0xaa36a7"
      },
      "additionalContracts": [],
      "isFixedGasLimit": false
    },
    {
      "hash": "0xb70c7162951dce3dcee0317630c5b9dedd99cfe4b566fabfe98d2ae7c79a3559",
      "transactionType": "CALL",
      "contractName": null,
      "contractAddress": "0xa502683ee305567d36a7ce8d7ed5952cf816f880",
      "function": "pausePoolRebalancing((address,address,uint24,int24,address))",
      "arguments": [
        "(0x0058863bB78B4325caB9d50Ab75ca43601a9eF6b, 0x5abeC0563014C1C02Eb7a4f6924896e5F92579FC, 3000, 60, 0xa502683Ee305567D36a7Ce8d7ED5952CF816f880)"
      ],
      "transaction": {
        "from": "0x3e723f6b81431f325e3f08e75544f254c182afe2",
        "to": "0xa502683ee305567d36a7ce8d7ed5952cf816f880",
        "gas": "0x1d85c",
        "value": "0x0",
        "input": "0xfbdd948f0000000000000000000000000058863bb78b4325cab9d50ab75ca43601a9ef6b0000000000000000000000005abec0563014c1c02eb7a4f6924896e5f92579fc0000000000000000000000000000000000000000000000000000000000000bb8000000000000000000000000000000000000000000000000000000000000003c000000000000000000000000a502683ee305567d36a7ce8d7ed5952cf816f880",
        "nonce": "0x5e5",
        "chainId": "0xaa36a7"
      },
      "additionalContracts": [],
      "isFixedGasLimit": false
    },
    {
      "hash": "0x6b989973f02b2ab97e50c35c3826d8be8cc63bce38762f032acfd8c94e6778c7",
      "transactionType": "CALL",
      "contractName": null,
      "contractAddress": "0xa502683ee305567d36a7ce8d7ed5952cf816f880",
      "function": "resumePoolRebalancing((address,address,uint24,int24,address))",
      "arguments": [
        "(0x0058863bB78B4325caB9d50Ab75ca43601a9eF6b, 0x5abeC0563014C1C02Eb7a4f6924896e5F92579FC, 3000, 60, 0xa502683Ee305567D36a7Ce8d7ED5952CF816f880)"
      ],
      "transaction": {
        "from": "0x3e723f6b81431f325e3f08e75544f254c182afe2",
        "to": "0xa502683ee305567d36a7ce8d7ed5952cf816f880",
        "gas": "0x1d874",
        "value": "0x0",
        "input": "0xfe0389100000000000000000000000000058863bb78b4325cab9d50ab75ca43601a9ef6b0000000000000000000000005abec0563014c1c02eb7a4f6924896e5f92579fc0000000000000000000000000000000000000000000000000000000000000bb8000000000000000000000000000000000000000000000000000000000000003c000000000000000000000000a502683ee305567d36a7ce8d7ed5952cf816f880",
        "nonce": "0x5e6",
        "chainId": "0xaa36a7"
      },
      "additionalContracts": [],
      "isFixedGasLimit": false
    },
    {
      "hash": "0x26c559f1b011d95488118cf2fcf0ef693fd0c03eb18a2e2531db0e8dfc4bd0d2",
      "transactionType": "CALL",
      "contractName": null,
      "contractAddress": "0xa502683ee305567d36a7ce8d7ed5952cf816f880",
      "function": "deactivatePool((address,address,uint24,int24,address))",
      "arguments": [
        "(0x0058863bB78B4325caB9d50Ab75ca43601a9eF6b, 0x5abeC0563014C1C02Eb7a4f6924896e5F92579FC, 3000, 60, 0xa502683Ee305567D36a7Ce8d7ED5952CF816f880)"
      ],
      "transaction": {
        "from": "0x3e723f6b81431f325e3f08e75544f254c182afe2",
        "to": "0xa502683ee305567d36a7ce8d7ed5952cf816f880",
        "gas": "0xab36",
        "value": "0x0",
        "input": "0x7a2486b50000000000000000000000000058863bb78b4325cab9d50ab75ca43601a9ef6b0000000000000000000000005abec0563014c1c02eb7a4f6924896e5f92579fc0000000000000000000000000000000000000000000000000000000000000bb8000000000000000000000000000000000000000000000000000000000000003c000000000000000000000000a502683ee305567d36a7ce8d7ed5952cf816f880",
        "nonce": "0x5e7",
        "chainId": "0xaa36a7"
      },
      "additionalContracts": [],
      "isFixedGasLimit": false
    },
    {
      "hash": "0xbca013065d28b9e102ae6e5ebefe6e6ff2d3c0c2583217a0b8245ffbe5c498f6",
      "transactionType": "CALL",
      "contractName": null,
      "contractAddress": "0xa502683ee305567d36a7ce8d7ed5952cf816f880",
      "function": "reactivatePool((address,address,uint24,int24,address))",
      "arguments": [
        "(0x0058863bB78B4325caB9d50Ab75ca43601a9eF6b, 0x5abeC0563014C1C02Eb7a4f6924896e5F92579FC, 3000, 60, 0xa502683Ee305567D36a7Ce8d7ED5952CF816f880)"
      ],
      "transaction": {
        "from": "0x3e723f6b81431f325e3f08e75544f254c182afe2",
        "to": "0xa502683ee305567d36a7ce8d7ed5952cf816f880",
        "gas": "0xaa88",
        "value": "0x0",
        "input": "0x54ee1e530000000000000000000000000058863bb78b4325cab9d50ab75ca43601a9ef6b0000000000000000000000005abec0563014c1c02eb7a4f6924896e5f92579fc0000000000000000000000000000000000000000000000000000000000000bb8000000000000000000000000000000000000000000000000000000000000003c000000000000000000000000a502683ee305567d36a7ce8d7ed5952cf816f880",
        "nonce": "0x5e8",
        "chainId": "0xaa36a7"
      },
      "additionalContracts": [],
      "isFixedGasLimit": false
    },
    {
      "hash": "0xfa4001903b2cee00e437afa0f49faadb1010854c6f8ba0528b18cd49177f2ea7",
      "transactionType": "CALL",
      "contractName": null,
      "contractAddress": "0x5abec0563014c1c02eb7a4f6924896e5f92579fc",
      "function": "approve(address,uint256)",
      "arguments": [
        "0x429ba70129df741B2Ca2a85BC3A2a3328e5c09b4",
        "115792089237316195423570985008687907853269984665640564039457584007913129639935"
      ],
      "transaction": {
        "from": "0x3e723f6b81431f325e3f08e75544f254c182afe2",
        "to": "0x5abec0563014c1c02eb7a4f6924896e5f92579fc",
        "gas": "0x96a4",
        "value": "0x0",
        "input": "0x095ea7b3000000000000000000000000429ba70129df741b2ca2a85bc3a2a3328e5c09b4ffffffffffffffffffffffffffffffffffffffffffffffffffffffffffffffff",
        "nonce": "0x5e9",
        "chainId": "0xaa36a7"
      },
      "additionalContracts": [],
      "isFixedGasLimit": false
    },
    {
      "hash": "0xc152674e28ceb1c33e1ae77ecbff731e0a9fa3f7ae7967638798518205e609f1",
      "transactionType": "CALL",
      "contractName": null,
      "contractAddress": "0x0058863bb78b4325cab9d50ab75ca43601a9ef6b",
      "function": "approve(address,uint256)",
      "arguments": [
        "0x429ba70129df741B2Ca2a85BC3A2a3328e5c09b4",
        "115792089237316195423570985008687907853269984665640564039457584007913129639935"
      ],
      "transaction": {
        "from": "0x3e723f6b81431f325e3f08e75544f254c182afe2",
        "to": "0x0058863bb78b4325cab9d50ab75ca43601a9ef6b",
        "gas": "0x96a4",
        "value": "0x0",
        "input": "0x095ea7b3000000000000000000000000429ba70129df741b2ca2a85bc3a2a3328e5c09b4ffffffffffffffffffffffffffffffffffffffffffffffffffffffffffffffff",
        "nonce": "0x5ea",
        "chainId": "0xaa36a7"
      },
      "additionalContracts": [],
      "isFixedGasLimit": false
    },
    {
      "hash": "0x9c8e3869452e370fb15e5066efcd2b9e7eecb59c01622d54d3aba79813d59a2a",
      "transactionType": "CALL",
      "contractName": null,
      "contractAddress": "0x5abec0563014c1c02eb7a4f6924896e5f92579fc",
      "function": "approve(address,uint256)",
      "arguments": [
        "0x000000000022D473030F116dDEE9F6B43aC78BA3",
        "115792089237316195423570985008687907853269984665640564039457584007913129639935"
      ],
      "transaction": {
        "from": "0x3e723f6b81431f325e3f08e75544f254c182afe2",
        "to": "0x5abec0563014c1c02eb7a4f6924896e5f92579fc",
        "gas": "0x8df2",
        "value": "0x0",
        "input": "0x095ea7b3000000000000000000000000000000000022d473030f116ddee9f6b43ac78ba3ffffffffffffffffffffffffffffffffffffffffffffffffffffffffffffffff",
        "nonce": "0x5eb",
        "chainId": "0xaa36a7"
      },
      "additionalContracts": [],
      "isFixedGasLimit": false
    },
    {
      "hash": "0x9c7273611a47e2024876c058dd906ce88b564a721c641a880a5a3110e54ef756",
      "transactionType": "CALL",
      "contractName": null,
      "contractAddress": "0x000000000022d473030f116ddee9f6b43ac78ba3",
      "function": "approve(address,address,uint160,uint48)",
      "arguments": [
        "0x5abeC0563014C1C02Eb7a4f6924896e5F92579FC",
        "0x429ba70129df741B2Ca2a85BC3A2a3328e5c09b4",
        "1461501637330902918203684832716283019655932542975",
        "281474976710655"
      ],
      "transaction": {
        "from": "0x3e723f6b81431f325e3f08e75544f254c182afe2",
        "to": "0x000000000022d473030f116ddee9f6b43ac78ba3",
        "gas": "0x96a0",
        "value": "0x0",
        "input": "0x87517c450000000000000000000000005abec0563014c1c02eb7a4f6924896e5f92579fc000000000000000000000000429ba70129df741b2ca2a85bc3a2a3328e5c09b4000000000000000000000000ffffffffffffffffffffffffffffffffffffffff0000000000000000000000000000000000000000000000000000ffffffffffff",
        "nonce": "0x5ec",
        "chainId": "0xaa36a7"
      },
      "additionalContracts": [],
      "isFixedGasLimit": false
    },
    {
      "hash": "0xd2ca48464629748c9affe344a28bdef271d62e6924b86e13befd68895858db4d",
      "transactionType": "CALL",
      "contractName": null,
      "contractAddress": "0x0058863bb78b4325cab9d50ab75ca43601a9ef6b",
      "function": "approve(address,uint256)",
      "arguments": [
        "0x000000000022D473030F116dDEE9F6B43aC78BA3",
        "115792089237316195423570985008687907853269984665640564039457584007913129639935"
      ],
      "transaction": {
        "from": "0x3e723f6b81431f325e3f08e75544f254c182afe2",
        "to": "0x0058863bb78b4325cab9d50ab75ca43601a9ef6b",
        "gas": "0x8df2",
        "value": "0x0",
        "input": "0x095ea7b3000000000000000000000000000000000022d473030f116ddee9f6b43ac78ba3ffffffffffffffffffffffffffffffffffffffffffffffffffffffffffffffff",
        "nonce": "0x5ed",
        "chainId": "0xaa36a7"
      },
      "additionalContracts": [],
      "isFixedGasLimit": false
    },
    {
      "hash": "0x92ab8223f8560e87d2fe63710c27fc860280ba4c2774f5556bc5482480b27351",
      "transactionType": "CALL",
      "contractName": null,
      "contractAddress": "0x000000000022d473030f116ddee9f6b43ac78ba3",
      "function": "approve(address,address,uint160,uint48)",
      "arguments": [
        "0x0058863bB78B4325caB9d50Ab75ca43601a9eF6b",
        "0x429ba70129df741B2Ca2a85BC3A2a3328e5c09b4",
        "1461501637330902918203684832716283019655932542975",
        "281474976710655"
      ],
      "transaction": {
        "from": "0x3e723f6b81431f325e3f08e75544f254c182afe2",
        "to": "0x000000000022d473030f116ddee9f6b43ac78ba3",
        "gas": "0x9f6c",
        "value": "0x0",
        "input": "0x87517c450000000000000000000000000058863bb78b4325cab9d50ab75ca43601a9ef6b000000000000000000000000429ba70129df741b2ca2a85bc3a2a3328e5c09b4000000000000000000000000ffffffffffffffffffffffffffffffffffffffff0000000000000000000000000000000000000000000000000000ffffffffffff",
        "nonce": "0x5ee",
        "chainId": "0xaa36a7"
      },
      "additionalContracts": [],
      "isFixedGasLimit": false
    },
    {
      "hash": "0x361b51125d1ffdd0424b8eae77eaa835289a562c57f73b60bc8778fa68a7eb3d",
      "transactionType": "CALL",
      "contractName": null,
      "contractAddress": "0x429ba70129df741b2ca2a85bc3a2a3328e5c09b4",
      "function": "multicall(bytes[])",
      "arguments": [
        "[0xdd46508f00000000000000000000000000000000000000000000000000000000000000400000000000000000000000000000000000000000000000000000000068cb90680000000000000000000000000000000000000000000000000000000000000400000000000000000000000000000000000000000000000000000000000000004000000000000000000000000000000000000000000000000000000000000000800000000000000000000000000000000000000000000000000000000000000004020d14140000000000000000000000000000000000000000000000000000000000000000000000000000000000000000000000000000000000000000000000040000000000000000000000000000000000000000000000000000000000000080000000000000000000000000000000000000000000000000000000000000024000000000000000000000000000000000000000000000000000000000000002a0000000000000000000000000000000000000000000000000000000000000030000000000000000000000000000000000000000000000000000000000000001a00000000000000000000000000058863bb78b4325cab9d50ab75ca43601a9ef6b0000000000000000000000005abec0563014c1c02eb7a4f6924896e5f92579fc0000000000000000000000000000000000000000000000000000000000000bb8000000000000000000000000000000000000000000000000000000000000003c0000000000000000000000000000000000000000000000000000000000000000fffffffffffffffffffffffffffffffffffffffffffffffffffffffffffffed400000000000000000000000000000000000000000000000000000000000000f00000000000000000000000000000000000000000000000000000000028d8683900000000000000000000000000000000000000000000000000271471148780000000000000000000000000000000000000000000000000000000000000a7d8c00000000000000000000000003e723f6b81431f325e3f08e75544f254c182afe20000000000000000000000000000000000000000000000000000000000000180000000000000000000000000000000000000000000000000000000000000000000000000000000000000000000000000000000000000000000000000000000400000000000000000000000000058863bb78b4325cab9d50ab75ca43601a9ef6b0000000000000000000000005abec0563014c1c02eb7a4f6924896e5f92579fc00000000000000000000000000000000000000000000000000000000000000400000000000000000000000000058863bb78b4325cab9d50ab75ca43601a9ef6b0000000000000000000000003e723f6b81431f325e3f08e75544f254c182afe200000000000000000000000000000000000000000000000000000000000000400000000000000000000000005abec0563014c1c02eb7a4f6924896e5f92579fc0000000000000000000000003e723f6b81431f325e3f08e75544f254c182afe2]"
      ],
      "transaction": {
        "from": "0x3e723f6b81431f325e3f08e75544f254c182afe2",
        "to": "0x429ba70129df741b2ca2a85bc3a2a3328e5c09b4",
        "gas": "0x5567b",
        "value": "0x0",
        "input": "0xac9650d80000000000000000000000000000000000000000000000000000000000000020000000000000000000000000000000000000000000000000000000000000000100000000000000000000000000000000000000000000000000000000000000200000000000000000000000000000000000000000000000000000000000000464dd46508f00000000000000000000000000000000000000000000000000000000000000400000000000000000000000000000000000000000000000000000000068cb90680000000000000000000000000000000000000000000000000000000000000400000000000000000000000000000000000000000000000000000000000000004000000000000000000000000000000000000000000000000000000000000000800000000000000000000000000000000000000000000000000000000000000004020d14140000000000000000000000000000000000000000000000000000000000000000000000000000000000000000000000000000000000000000000000040000000000000000000000000000000000000000000000000000000000000080000000000000000000000000000000000000000000000000000000000000024000000000000000000000000000000000000000000000000000000000000002a0000000000000000000000000000000000000000000000000000000000000030000000000000000000000000000000000000000000000000000000000000001a00000000000000000000000000058863bb78b4325cab9d50ab75ca43601a9ef6b0000000000000000000000005abec0563014c1c02eb7a4f6924896e5f92579fc0000000000000000000000000000000000000000000000000000000000000bb8000000000000000000000000000000000000000000000000000000000000003c0000000000000000000000000000000000000000000000000000000000000000fffffffffffffffffffffffffffffffffffffffffffffffffffffffffffffed400000000000000000000000000000000000000000000000000000000000000f00000000000000000000000000000000000000000000000000000000028d8683900000000000000000000000000000000000000000000000000271471148780000000000000000000000000000000000000000000000000000000000000a7d8c00000000000000000000000003e723f6b81431f325e3f08e75544f254c182afe20000000000000000000000000000000000000000000000000000000000000180000000000000000000000000000000000000000000000000000000000000000000000000000000000000000000000000000000000000000000000000000000400000000000000000000000000058863bb78b4325cab9d50ab75ca43601a9ef6b0000000000000000000000005abec0563014c1c02eb7a4f6924896e5f92579fc00000000000000000000000000000000000000000000000000000000000000400000000000000000000000000058863bb78b4325cab9d50ab75ca43601a9ef6b0000000000000000000000003e723f6b81431f325e3f08e75544f254c182afe200000000000000000000000000000000000000000000000000000000000000400000000000000000000000005abec0563014c1c02eb7a4f6924896e5f92579fc0000000000000000000000003e723f6b81431f325e3f08e75544f254c182afe200000000000000000000000000000000000000000000000000000000",
        "nonce": "0x5ef",
        "chainId": "0xaa36a7"
      },
      "additionalContracts": [],
      "isFixedGasLimit": false
    },
    {
      "hash": "0xee70c434e8a6a130f1807d7991382dc72fbbded38ab4826cde07bb095b0d1eb3",
      "transactionType": "CALL",
      "contractName": null,
      "contractAddress": "0x5abec0563014c1c02eb7a4f6924896e5f92579fc",
      "function": "approve(address,uint256)",
      "arguments": [
        "0xf13D190e9117920c703d79B5F33732e10049b115",
        "115792089237316195423570985008687907853269984665640564039457584007913129639935"
      ],
      "transaction": {
        "from": "0x3e723f6b81431f325e3f08e75544f254c182afe2",
        "to": "0x5abec0563014c1c02eb7a4f6924896e5f92579fc",
        "gas": "0x8e35",
        "value": "0x0",
        "input": "0x095ea7b3000000000000000000000000f13d190e9117920c703d79b5f33732e10049b115ffffffffffffffffffffffffffffffffffffffffffffffffffffffffffffffff",
        "nonce": "0x5f0",
        "chainId": "0xaa36a7"
      },
      "additionalContracts": [],
      "isFixedGasLimit": false
    },
    {
      "hash": "0x2528b5ea7946c20d72f10b4a6cf13fa89a38049d28c60010f5ce92ed0f5cda1d",
      "transactionType": "CALL",
      "contractName": null,
      "contractAddress": "0x0058863bb78b4325cab9d50ab75ca43601a9ef6b",
      "function": "approve(address,uint256)",
      "arguments": [
        "0xf13D190e9117920c703d79B5F33732e10049b115",
        "115792089237316195423570985008687907853269984665640564039457584007913129639935"
      ],
      "transaction": {
        "from": "0x3e723f6b81431f325e3f08e75544f254c182afe2",
        "to": "0x0058863bb78b4325cab9d50ab75ca43601a9ef6b",
        "gas": "0x8e35",
        "value": "0x0",
        "input": "0x095ea7b3000000000000000000000000f13d190e9117920c703d79b5f33732e10049b115ffffffffffffffffffffffffffffffffffffffffffffffffffffffffffffffff",
        "nonce": "0x5f1",
        "chainId": "0xaa36a7"
      },
      "additionalContracts": [],
      "isFixedGasLimit": false
    },
    {
      "hash": "0x1654d89fd84316a42c2dce679725c205de088f310f0cff998c7dd2a9deba7bf6",
      "transactionType": "CALL",
      "contractName": null,
      "contractAddress": "0xf13d190e9117920c703d79b5f33732e10049b115",
      "function": "swapExactTokensForTokens(uint256,uint256,bool,(address,address,uint24,int24,address),bytes,address,uint256)",
      "arguments": [
        "1000",
        "0",
        "true",
        "(0x0058863bB78B4325caB9d50Ab75ca43601a9eF6b, 0x5abeC0563014C1C02Eb7a4f6924896e5F92579FC, 3000, 60, 0xa502683Ee305567D36a7Ce8d7ED5952CF816f880)",
        "0x",
        "0x3e723f6B81431f325E3F08e75544F254C182AFE2",
        "1758174780"
      ],
      "transaction": {
        "from": "0x3e723f6b81431f325e3f08e75544f254c182afe2",
        "to": "0xf13d190e9117920c703d79b5f33732e10049b115",
        "gas": "0x4d496",
        "value": "0x0",
        "input": "0xb1a0d57100000000000000000000000000000000000000000000000000000000000003e8000000000000000000000000000000000000000000000000000000000000000000000000000000000000000000000000000000000000000000000000000000010000000000000000000000000058863bb78b4325cab9d50ab75ca43601a9ef6b0000000000000000000000005abec0563014c1c02eb7a4f6924896e5f92579fc0000000000000000000000000000000000000000000000000000000000000bb8000000000000000000000000000000000000000000000000000000000000003c000000000000000000000000a502683ee305567d36a7ce8d7ed5952cf816f88000000000000000000000000000000000000000000000000000000000000001600000000000000000000000003e723f6b81431f325e3f08e75544f254c182afe20000000000000000000000000000000000000000000000000000000068cb9e3c0000000000000000000000000000000000000000000000000000000000000000",
        "nonce": "0x5f2",
        "chainId": "0xaa36a7"
      },
      "additionalContracts": [],
      "isFixedGasLimit": false
    }
  ],
  "receipts": [
    {
      "status": "0x1",
      "cumulativeGasUsed": "0xcd3408",
      "logs": [
        {
          "address": "0xea30c4b8b44078bbf8a6ef5b9f1ec1626c7848d9",
          "topics": [
            "0xe9de54a3e7ddf0c48cc6e1134185300d5a71acbf2d8c21fcdefa9d9dd9e20ac1"
          ],
          "data": "0xa086c907b116b1572126a2ccfaa5f6524f347f8a1d8378ce37b958e0cccc880000000000000000000000000000000000000000000000000000000000000000a000000000000000000000000000000000000000000000000000000000000001f400000000000000000000000000000000000000000000000000000000000000080000000000000000000000000000000000000000000000000000000000000000000000000000000000000000000000000000000000000000000000000000000e7472697669616c456e6372797074000000000000000000000000000000000000",
          "blockHash": "0x8009063fc29c3d6911f1845ca99c4b1a294f780f256f6741fb39c46dcb7e2094",
          "blockNumber": "0x8cc914",
          "blockTimestamp": "0x68cb905c",
          "transactionHash": "0x51e0d72930412e0d8761bd3c4f53a6b60b05d2671f1b97aac50627df266cf16c",
          "transactionIndex": "0x4b",
          "logIndex": "0x7f",
          "removed": false
        },
        {
          "address": "0xea30c4b8b44078bbf8a6ef5b9f1ec1626c7848d9",
          "topics": [
            "0xe9de54a3e7ddf0c48cc6e1134185300d5a71acbf2d8c21fcdefa9d9dd9e20ac1"
          ],
          "data": "0xcc63d19e9a0f97a43bc73dca1ee8b6f4b645d8919747695fa5d1d0da853a840000000000000000000000000000000000000000000000000000000000000000a00000000000000000000000000000000000000000000000000000000000000e1000000000000000000000000000000000000000000000000000000000000000040000000000000000000000000000000000000000000000000000000000000000000000000000000000000000000000000000000000000000000000000000000e7472697669616c456e6372797074000000000000000000000000000000000000",
          "blockHash": "0x8009063fc29c3d6911f1845ca99c4b1a294f780f256f6741fb39c46dcb7e2094",
          "blockNumber": "0x8cc914",
          "blockTimestamp": "0x68cb905c",
          "transactionHash": "0x51e0d72930412e0d8761bd3c4f53a6b60b05d2671f1b97aac50627df266cf16c",
          "transactionIndex": "0x4b",
          "logIndex": "0x80",
          "removed": false
        },
        {
          "address": "0xea30c4b8b44078bbf8a6ef5b9f1ec1626c7848d9",
          "topics": [
            "0xe9de54a3e7ddf0c48cc6e1134185300d5a71acbf2d8c21fcdefa9d9dd9e20ac1"
          ],
          "data": "0xcdef58c863398f789d9953afd1326207812f448c90165e6886555071b2f4840000000000000000000000000000000000000000000000000000000000000000a000000000000000000000000000000000000000000000000000000000000000c800000000000000000000000000000000000000000000000000000000000000040000000000000000000000000000000000000000000000000000000000000000000000000000000000000000000000000000000000000000000000000000000e7472697669616c456e6372797074000000000000000000000000000000000000",
          "blockHash": "0x8009063fc29c3d6911f1845ca99c4b1a294f780f256f6741fb39c46dcb7e2094",
          "blockNumber": "0x8cc914",
          "blockTimestamp": "0x68cb905c",
          "transactionHash": "0x51e0d72930412e0d8761bd3c4f53a6b60b05d2671f1b97aac50627df266cf16c",
          "transactionIndex": "0x4b",
          "logIndex": "0x81",
          "removed": false
        },
        {
          "address": "0xea30c4b8b44078bbf8a6ef5b9f1ec1626c7848d9",
          "topics": [
            "0xe9de54a3e7ddf0c48cc6e1134185300d5a71acbf2d8c21fcdefa9d9dd9e20ac1"
          ],
          "data": "0xb3e26d30bbd0fa3e41a1d86cb7844842fbb2638ed221cf36790bbd9c9f3e800000000000000000000000000000000000000000000000000000000000000000a0000000000000000000000000000000000000000000000000000000000000000100000000000000000000000000000000000000000000000000000000000000000000000000000000000000000000000000000000000000000000000000000000000000000000000000000000000000000000000000000000000000000000000e7472697669616c456e6372797074000000000000000000000000000000000000",
          "blockHash": "0x8009063fc29c3d6911f1845ca99c4b1a294f780f256f6741fb39c46dcb7e2094",
          "blockNumber": "0x8cc914",
          "blockTimestamp": "0x68cb905c",
          "transactionHash": "0x51e0d72930412e0d8761bd3c4f53a6b60b05d2671f1b97aac50627df266cf16c",
          "transactionIndex": "0x4b",
          "logIndex": "0x82",
          "removed": false
        },
        {
          "address": "0xea30c4b8b44078bbf8a6ef5b9f1ec1626c7848d9",
          "topics": [
            "0xe9de54a3e7ddf0c48cc6e1134185300d5a71acbf2d8c21fcdefa9d9dd9e20ac1"
          ],
          "data": "0xbd85f53fc4f2243f9ffcb22983ba1d224d1e77fdca733b69f7215d316181840000000000000000000000000000000000000000000000000000000000000000a0000000000000000000000000000000000000000000000000000000000000009600000000000000000000000000000000000000000000000000000000000000040000000000000000000000000000000000000000000000000000000000000000000000000000000000000000000000000000000000000000000000000000000e7472697669616c456e6372797074000000000000000000000000000000000000",
          "blockHash": "0x8009063fc29c3d6911f1845ca99c4b1a294f780f256f6741fb39c46dcb7e2094",
          "blockNumber": "0x8cc914",
          "blockTimestamp": "0x68cb905c",
          "transactionHash": "0x51e0d72930412e0d8761bd3c4f53a6b60b05d2671f1b97aac50627df266cf16c",
          "transactionIndex": "0x4b",
          "logIndex": "0x83",
          "removed": false
        },
        {
          "address": "0xa502683ee305567d36a7ce8d7ed5952cf816f880",
          "topics": [
            "0x18ff1c138c5686b85dc8b4338640ccef29de32ff4fec45a3f6f220bee9783e45",
            "0xd47c8f2b728c4b7a250e388d6c9371694e26ededa185062520abd55732a2935b"
          ],
          "data": "0x000000000000000000000000000000000000000000000000000000000000008000000000000000000000000000000000000000000000000000000000000000c0000000000000000000000000000000000000000000000000000000000000010000000000000000000000000000000000000000000000000000000000000001400000000000000000000000000000000000000000000000000000000000000020a086c907b116b1572126a2ccfaa5f6524f347f8a1d8378ce37b958e0cccc88000000000000000000000000000000000000000000000000000000000000000020cc63d19e9a0f97a43bc73dca1ee8b6f4b645d8919747695fa5d1d0da853a84000000000000000000000000000000000000000000000000000000000000000020cdef58c863398f789d9953afd1326207812f448c90165e6886555071b2f484000000000000000000000000000000000000000000000000000000000000000020b3e26d30bbd0fa3e41a1d86cb7844842fbb2638ed221cf36790bbd9c9f3e8000",
          "blockHash": "0x8009063fc29c3d6911f1845ca99c4b1a294f780f256f6741fb39c46dcb7e2094",
          "blockNumber": "0x8cc914",
          "blockTimestamp": "0x68cb905c",
          "transactionHash": "0x51e0d72930412e0d8761bd3c4f53a6b60b05d2671f1b97aac50627df266cf16c",
          "transactionIndex": "0x4b",
          "logIndex": "0x84",
          "removed": false
        }
      ],
      "logsBloom": "0x00000000000000000000000000000000080000000000000000000000000000000000000000000000000000000000000000000000008180000000000000000000000000000000000000000000000000000000000008000000000000000000000000000000000000000000000000000000000000000000000000000000000000000000000000000000000001000900000001000000000000000000000000000000000000000000000000000000000000000000000000000000000000000080000000000000000000000000000000000000000000000000080000000000000000000000000000000000000200000000000000000000000000000000020200000010",
      "type": "0x2",
      "transactionHash": "0x51e0d72930412e0d8761bd3c4f53a6b60b05d2671f1b97aac50627df266cf16c",
      "transactionIndex": "0x4b",
      "blockHash": "0x8009063fc29c3d6911f1845ca99c4b1a294f780f256f6741fb39c46dcb7e2094",
      "blockNumber": "0x8cc914",
      "gasUsed": "0x2d7a4",
      "effectiveGasPrice": "0xf4255",
      "from": "0x3e723f6b81431f325e3f08e75544f254c182afe2",
      "to": "0xa502683ee305567d36a7ce8d7ed5952cf816f880",
      "contractAddress": null
    },
    {
      "status": "0x1",
      "cumulativeGasUsed": "0xce8a04",
      "logs": [
        {
          "address": "0xea30c4b8b44078bbf8a6ef5b9f1ec1626c7848d9",
          "topics": [
            "0xe9de54a3e7ddf0c48cc6e1134185300d5a71acbf2d8c21fcdefa9d9dd9e20ac1"
          ],
          "data": "0xc290f19dcf7bceb26e550f2bfc2767777b6b3a2e75644053281b2fc1dc88800000000000000000000000000000000000000000000000000000000000000000a0000000000000000000000000000000000000000000000000000000000000000000000000000000000000000000000000000000000000000000000000000000000000000000000000000000000000000000000000000000000000000000000000000000000000000000000000000000000000000000000000000000000000000e7472697669616c456e6372797074000000000000000000000000000000000000",
          "blockHash": "0x8009063fc29c3d6911f1845ca99c4b1a294f780f256f6741fb39c46dcb7e2094",
          "blockNumber": "0x8cc914",
          "blockTimestamp": "0x68cb905c",
          "transactionHash": "0xb70c7162951dce3dcee0317630c5b9dedd99cfe4b566fabfe98d2ae7c79a3559",
          "transactionIndex": "0x4c",
          "logIndex": "0x85",
          "removed": false
        },
        {
          "address": "0xa502683ee305567d36a7ce8d7ed5952cf816f880",
          "topics": [
            "0x18ff1c138c5686b85dc8b4338640ccef29de32ff4fec45a3f6f220bee9783e45",
            "0xd47c8f2b728c4b7a250e388d6c9371694e26ededa185062520abd55732a2935b"
          ],
          "data": "0x000000000000000000000000000000000000000000000000000000000000008000000000000000000000000000000000000000000000000000000000000000c0000000000000000000000000000000000000000000000000000000000000010000000000000000000000000000000000000000000000000000000000000001400000000000000000000000000000000000000000000000000000000000000020a086c907b116b1572126a2ccfaa5f6524f347f8a1d8378ce37b958e0cccc88000000000000000000000000000000000000000000000000000000000000000020cc63d19e9a0f97a43bc73dca1ee8b6f4b645d8919747695fa5d1d0da853a84000000000000000000000000000000000000000000000000000000000000000020cdef58c863398f789d9953afd1326207812f448c90165e6886555071b2f484000000000000000000000000000000000000000000000000000000000000000020c290f19dcf7bceb26e550f2bfc2767777b6b3a2e75644053281b2fc1dc888000",
          "blockHash": "0x8009063fc29c3d6911f1845ca99c4b1a294f780f256f6741fb39c46dcb7e2094",
          "blockNumber": "0x8cc914",
          "blockTimestamp": "0x68cb905c",
          "transactionHash": "0xb70c7162951dce3dcee0317630c5b9dedd99cfe4b566fabfe98d2ae7c79a3559",
          "transactionIndex": "0x4c",
          "logIndex": "0x86",
          "removed": false
        }
      ],
      "logsBloom": "0x00000000000000000000000000000000080000000000000000000000000000000000000000000000000000000000000000000000008180000000000000000000000000000000000000000000000000000000000008000000000000000000000000000000000000000000000000000000000000000000000000000000000000000000000000000000000001000900000001000000000000000000000000000000000000000000000000000000000000000000000000000000000000000080000000000000000000000000000000000000000000000000080000000000000000000000000000000000000200000000000000000000000000000000020200000010",
      "type": "0x2",
      "transactionHash": "0xb70c7162951dce3dcee0317630c5b9dedd99cfe4b566fabfe98d2ae7c79a3559",
      "transactionIndex": "0x4c",
      "blockHash": "0x8009063fc29c3d6911f1845ca99c4b1a294f780f256f6741fb39c46dcb7e2094",
      "blockNumber": "0x8cc914",
      "gasUsed": "0x155fc",
      "effectiveGasPrice": "0xf4255",
      "from": "0x3e723f6b81431f325e3f08e75544f254c182afe2",
      "to": "0xa502683ee305567d36a7ce8d7ed5952cf816f880",
      "contractAddress": null
    },
    {
      "status": "0x1",
      "cumulativeGasUsed": "0xcfe011",
      "logs": [
        {
          "address": "0xea30c4b8b44078bbf8a6ef5b9f1ec1626c7848d9",
          "topics": [
            "0xe9de54a3e7ddf0c48cc6e1134185300d5a71acbf2d8c21fcdefa9d9dd9e20ac1"
          ],
          "data": "0xb3e26d30bbd0fa3e41a1d86cb7844842fbb2638ed221cf36790bbd9c9f3e800000000000000000000000000000000000000000000000000000000000000000a0000000000000000000000000000000000000000000000000000000000000000100000000000000000000000000000000000000000000000000000000000000000000000000000000000000000000000000000000000000000000000000000000000000000000000000000000000000000000000000000000000000000000000e7472697669616c456e6372797074000000000000000000000000000000000000",
          "blockHash": "0x8009063fc29c3d6911f1845ca99c4b1a294f780f256f6741fb39c46dcb7e2094",
          "blockNumber": "0x8cc914",
          "blockTimestamp": "0x68cb905c",
          "transactionHash": "0x6b989973f02b2ab97e50c35c3826d8be8cc63bce38762f032acfd8c94e6778c7",
          "transactionIndex": "0x4d",
          "logIndex": "0x87",
          "removed": false
        },
        {
          "address": "0xa502683ee305567d36a7ce8d7ed5952cf816f880",
          "topics": [
            "0x18ff1c138c5686b85dc8b4338640ccef29de32ff4fec45a3f6f220bee9783e45",
            "0xd47c8f2b728c4b7a250e388d6c9371694e26ededa185062520abd55732a2935b"
          ],
          "data": "0x000000000000000000000000000000000000000000000000000000000000008000000000000000000000000000000000000000000000000000000000000000c0000000000000000000000000000000000000000000000000000000000000010000000000000000000000000000000000000000000000000000000000000001400000000000000000000000000000000000000000000000000000000000000020a086c907b116b1572126a2ccfaa5f6524f347f8a1d8378ce37b958e0cccc88000000000000000000000000000000000000000000000000000000000000000020cc63d19e9a0f97a43bc73dca1ee8b6f4b645d8919747695fa5d1d0da853a84000000000000000000000000000000000000000000000000000000000000000020cdef58c863398f789d9953afd1326207812f448c90165e6886555071b2f484000000000000000000000000000000000000000000000000000000000000000020b3e26d30bbd0fa3e41a1d86cb7844842fbb2638ed221cf36790bbd9c9f3e8000",
          "blockHash": "0x8009063fc29c3d6911f1845ca99c4b1a294f780f256f6741fb39c46dcb7e2094",
          "blockNumber": "0x8cc914",
          "blockTimestamp": "0x68cb905c",
          "transactionHash": "0x6b989973f02b2ab97e50c35c3826d8be8cc63bce38762f032acfd8c94e6778c7",
          "transactionIndex": "0x4d",
          "logIndex": "0x88",
          "removed": false
        }
      ],
      "logsBloom": "0x00000000000000000000000000000000080000000000000000000000000000000000000000000000000000000000000000000000008180000000000000000000000000000000000000000000000000000000000008000000000000000000000000000000000000000000000000000000000000000000000000000000000000000000000000000000000001000900000001000000000000000000000000000000000000000000000000000000000000000000000000000000000000000080000000000000000000000000000000000000000000000000080000000000000000000000000000000000000200000000000000000000000000000000020200000010",
      "type": "0x2",
      "transactionHash": "0x6b989973f02b2ab97e50c35c3826d8be8cc63bce38762f032acfd8c94e6778c7",
      "transactionIndex": "0x4d",
      "blockHash": "0x8009063fc29c3d6911f1845ca99c4b1a294f780f256f6741fb39c46dcb7e2094",
      "blockNumber": "0x8cc914",
      "gasUsed": "0x1560d",
      "effectiveGasPrice": "0xf4255",
      "from": "0x3e723f6b81431f325e3f08e75544f254c182afe2",
      "to": "0xa502683ee305567d36a7ce8d7ed5952cf816f880",
      "contractAddress": null
    },
    {
      "status": "0x1",
      "cumulativeGasUsed": "0xd05c06",
      "logs": [
        {
          "address": "0xa502683ee305567d36a7ce8d7ed5952cf816f880",
          "topics": [
            "0xf354ce2d046227bb2a8db43674dab621b47724bc45cbc0b228a001245d53fd77",
            "0xd47c8f2b728c4b7a250e388d6c9371694e26ededa185062520abd55732a2935b"
          ],
          "data": "0x",
          "blockHash": "0x8009063fc29c3d6911f1845ca99c4b1a294f780f256f6741fb39c46dcb7e2094",
          "blockNumber": "0x8cc914",
          "blockTimestamp": "0x68cb905c",
          "transactionHash": "0x26c559f1b011d95488118cf2fcf0ef693fd0c03eb18a2e2531db0e8dfc4bd0d2",
          "transactionIndex": "0x4e",
          "logIndex": "0x89",
          "removed": false
        }
      ],
      "logsBloom": "0x00000800000000000000000000000000000000000000000000000000000000000000000000000000000000000000000000000000000180000000000000000000000000000000000000000000000000000080000000000000000000000000000000000000000000000000000000000000000000000000000000000000000000000000000000000000000001000100000000000000000000000000000000000000000000000000000000000000000000000000000000000000000000000080000000000000000000000000000000000200000000000000000000000000000000000000000000000000000000000000000000000000000000000000000000000010",
      "type": "0x2",
      "transactionHash": "0x26c559f1b011d95488118cf2fcf0ef693fd0c03eb18a2e2531db0e8dfc4bd0d2",
      "transactionIndex": "0x4e",
      "blockHash": "0x8009063fc29c3d6911f1845ca99c4b1a294f780f256f6741fb39c46dcb7e2094",
      "blockNumber": "0x8cc914",
      "gasUsed": "0x7bf5",
      "effectiveGasPrice": "0xf4255",
      "from": "0x3e723f6b81431f325e3f08e75544f254c182afe2",
      "to": "0xa502683ee305567d36a7ce8d7ed5952cf816f880",
      "contractAddress": null
    },
    {
      "status": "0x1",
      "cumulativeGasUsed": "0xd0d77d",
      "logs": [
        {
          "address": "0xa502683ee305567d36a7ce8d7ed5952cf816f880",
          "topics": [
            "0xc4be386fe9fd651a56e42b3b831dd4bf6afaa363eb2d21181fe7e23a8ff50279",
            "0xd47c8f2b728c4b7a250e388d6c9371694e26ededa185062520abd55732a2935b"
          ],
          "data": "0x",
          "blockHash": "0x8009063fc29c3d6911f1845ca99c4b1a294f780f256f6741fb39c46dcb7e2094",
          "blockNumber": "0x8cc914",
          "blockTimestamp": "0x68cb905c",
          "transactionHash": "0xbca013065d28b9e102ae6e5ebefe6e6ff2d3c0c2583217a0b8245ffbe5c498f6",
          "transactionIndex": "0x4f",
          "logIndex": "0x8a",
          "removed": false
        }
      ],
      "logsBloom": "0x00000000000000000000000000000000000000000000000000000000000000000000000000000000000000000000000000000000000180000000000000000000000000000000000000000000000000000000000000000000000000000000000000000000000000000000000000000000000000000000000000000000000000100000000000000000000001000100000004000000000000000000000000000000000000001000000000000000000000000000000000000000000000000080000000000000000000000000000000000000000000000000000000000000000000000000000000000000000000000000000000000000000000000000000000000010",
      "type": "0x2",
      "transactionHash": "0xbca013065d28b9e102ae6e5ebefe6e6ff2d3c0c2583217a0b8245ffbe5c498f6",
      "transactionIndex": "0x4f",
      "blockHash": "0x8009063fc29c3d6911f1845ca99c4b1a294f780f256f6741fb39c46dcb7e2094",
      "blockNumber": "0x8cc914",
      "gasUsed": "0x7b77",
      "effectiveGasPrice": "0xf4255",
      "from": "0x3e723f6b81431f325e3f08e75544f254c182afe2",
      "to": "0xa502683ee305567d36a7ce8d7ed5952cf816f880",
      "contractAddress": null
    },
    {
      "status": "0x1",
      "cumulativeGasUsed": "0xd13e7e",
      "logs": [
        {
          "address": "0x5abec0563014c1c02eb7a4f6924896e5f92579fc",
          "topics": [
            "0x8c5be1e5ebec7d5bd14f71427d1e84f3dd0314c0f7b2291e5b200ac8c7c3b925",
            "0x0000000000000000000000003e723f6b81431f325e3f08e75544f254c182afe2",
            "0x000000000000000000000000429ba70129df741b2ca2a85bc3a2a3328e5c09b4"
          ],
          "data": "0xffffffffffffffffffffffffffffffffffffffffffffffffffffffffffffffff",
          "blockHash": "0x8009063fc29c3d6911f1845ca99c4b1a294f780f256f6741fb39c46dcb7e2094",
          "blockNumber": "0x8cc914",
          "transactionHash": "0xfa4001903b2cee00e437afa0f49faadb1010854c6f8ba0528b18cd49177f2ea7",
          "transactionIndex": "0x50",
          "logIndex": "0x8b",
          "removed": false
        }
      ],
      "logsBloom": "0x00000000000000000000000000000000000000000000000000000000000000000000000000000040080000000000000000000000080000000000000000200000000000000000000000000000000000000000000000000000000000000000000000000000000000000000000000000000000000000000000000000800000004000000000000000000000000000000000000000000000000000000000000000000020000000000000080000000000000000000000000000000000030000000000000000000000000000000000000000000000000000000000000000000000000000010000000000004000000000000000000000000000000000000000000000000",
      "type": "0x2",
      "transactionHash": "0xfa4001903b2cee00e437afa0f49faadb1010854c6f8ba0528b18cd49177f2ea7",
      "transactionIndex": "0x50",
      "blockHash": "0x8009063fc29c3d6911f1845ca99c4b1a294f780f256f6741fb39c46dcb7e2094",
      "blockNumber": "0x8cc914",
      "gasUsed": "0x6701",
      "effectiveGasPrice": "0xf4255",
      "from": "0x3e723f6b81431f325e3f08e75544f254c182afe2",
      "to": "0x5abec0563014c1c02eb7a4f6924896e5f92579fc",
      "contractAddress": null
    },
    {
      "status": "0x1",
      "cumulativeGasUsed": "0xd1a57f",
      "logs": [
        {
          "address": "0x0058863bb78b4325cab9d50ab75ca43601a9ef6b",
          "topics": [
            "0x8c5be1e5ebec7d5bd14f71427d1e84f3dd0314c0f7b2291e5b200ac8c7c3b925",
            "0x0000000000000000000000003e723f6b81431f325e3f08e75544f254c182afe2",
            "0x000000000000000000000000429ba70129df741b2ca2a85bc3a2a3328e5c09b4"
          ],
          "data": "0xffffffffffffffffffffffffffffffffffffffffffffffffffffffffffffffff",
          "blockHash": "0x8009063fc29c3d6911f1845ca99c4b1a294f780f256f6741fb39c46dcb7e2094",
          "blockNumber": "0x8cc914",
          "blockTimestamp": "0x68cb905c",
          "transactionHash": "0xc152674e28ceb1c33e1ae77ecbff731e0a9fa3f7ae7967638798518205e609f1",
          "transactionIndex": "0x51",
          "logIndex": "0x8c",
          "removed": false
        }
      ],
      "logsBloom": "0x00000000000000000000000000000000000000000000000080000000000000000000000000000040080000000000000000000000080000000000000000200000000000000000000000000000000000000000000000000000000000000000000000000000000000000000000000000000000000000000000000000800000000000000000000000000000000000000000000000000000000000000000000000000020000000000000080810000000000000000000000000000000010000000000000000000000000000000000000000000000000000000000000000000000000000010000000000000000000000000000000000000000000000000000000000000",
      "type": "0x2",
      "transactionHash": "0xc152674e28ceb1c33e1ae77ecbff731e0a9fa3f7ae7967638798518205e609f1",
      "transactionIndex": "0x51",
      "blockHash": "0x8009063fc29c3d6911f1845ca99c4b1a294f780f256f6741fb39c46dcb7e2094",
      "blockNumber": "0x8cc914",
      "gasUsed": "0x6701",
      "effectiveGasPrice": "0xf4255",
      "from": "0x3e723f6b81431f325e3f08e75544f254c182afe2",
      "to": "0x0058863bb78b4325cab9d50ab75ca43601a9ef6b",
      "contractAddress": null
    },
    {
      "status": "0x1",
      "cumulativeGasUsed": "0xd20c44",
      "logs": [
        {
          "address": "0x5abec0563014c1c02eb7a4f6924896e5f92579fc",
          "topics": [
            "0x8c5be1e5ebec7d5bd14f71427d1e84f3dd0314c0f7b2291e5b200ac8c7c3b925",
            "0x0000000000000000000000003e723f6b81431f325e3f08e75544f254c182afe2",
            "0x000000000000000000000000000000000022d473030f116ddee9f6b43ac78ba3"
          ],
          "data": "0xffffffffffffffffffffffffffffffffffffffffffffffffffffffffffffffff",
          "blockHash": "0x8009063fc29c3d6911f1845ca99c4b1a294f780f256f6741fb39c46dcb7e2094",
          "blockNumber": "0x8cc914",
          "blockTimestamp": "0x68cb905c",
          "transactionHash": "0x9c8e3869452e370fb15e5066efcd2b9e7eecb59c01622d54d3aba79813d59a2a",
          "transactionIndex": "0x52",
          "logIndex": "0x8d",
          "removed": false
        }
      ],
      "logsBloom": "0x00000000000000000000000000000000000000000000000000000000000000000000000000000000000000000000000000000000880000000000000000200000000000000000000000004000000000000000000000000800000000000000000000000000000000000000000000000000000000000000000000000000000004000000000000000000000000000000000000000000000000000000000000000000020000000000000080000000000000000000000000000000000030000000000000000000000000000000000000000000000000000000000000000000000000000010000000000004000000000000000000000000000000000000000000000000",
      "type": "0x2",
      "transactionHash": "0x9c8e3869452e370fb15e5066efcd2b9e7eecb59c01622d54d3aba79813d59a2a",
      "transactionIndex": "0x52",
      "blockHash": "0x8009063fc29c3d6911f1845ca99c4b1a294f780f256f6741fb39c46dcb7e2094",
      "blockNumber": "0x8cc914",
      "gasUsed": "0x66c5",
      "effectiveGasPrice": "0xf4255",
      "from": "0x3e723f6b81431f325e3f08e75544f254c182afe2",
      "to": "0x5abec0563014c1c02eb7a4f6924896e5f92579fc",
      "contractAddress": null
    },
    {
      "status": "0x1",
      "cumulativeGasUsed": "0xd27952",
      "logs": [
        {
          "address": "0x000000000022d473030f116ddee9f6b43ac78ba3",
          "topics": [
            "0xda9fa7c1b00402c17d0161b249b1ab8bbec047c5a52207b9c112deffd817036b",
            "0x0000000000000000000000003e723f6b81431f325e3f08e75544f254c182afe2",
            "0x0000000000000000000000005abec0563014c1c02eb7a4f6924896e5f92579fc",
            "0x000000000000000000000000429ba70129df741b2ca2a85bc3a2a3328e5c09b4"
          ],
          "data": "0x000000000000000000000000ffffffffffffffffffffffffffffffffffffffff0000000000000000000000000000000000000000000000000000ffffffffffff",
          "blockHash": "0x8009063fc29c3d6911f1845ca99c4b1a294f780f256f6741fb39c46dcb7e2094",
          "blockNumber": "0x8cc914",
          "blockTimestamp": "0x68cb905c",
          "transactionHash": "0x9c7273611a47e2024876c058dd906ce88b564a721c641a880a5a3110e54ef756",
          "transactionIndex": "0x53",
          "logIndex": "0x8e",
          "removed": false
        }
      ],
      "logsBloom": "0x00010000000000000000000000000000000000000000000000000000000000000000080000000040080000000000000000000000080000000000000000080000000000000000000000000000000000000000000000000000000000000000000000000000000080000000000000000000000000000000000000000800000000000020000000000000000000000000000000000000000000000000000000000000000000000000000080000000000000000000000000000000000010080000000000000000000000000000000000000000000000000000000040000000000000000000000000000000000000000000000000000000000000000800000000000400",
      "type": "0x2",
      "transactionHash": "0x9c7273611a47e2024876c058dd906ce88b564a721c641a880a5a3110e54ef756",
      "transactionIndex": "0x53",
      "blockHash": "0x8009063fc29c3d6911f1845ca99c4b1a294f780f256f6741fb39c46dcb7e2094",
      "blockNumber": "0x8cc914",
      "gasUsed": "0x6d0e",
      "effectiveGasPrice": "0xf4255",
      "from": "0x3e723f6b81431f325e3f08e75544f254c182afe2",
      "to": "0x000000000022d473030f116ddee9f6b43ac78ba3",
      "contractAddress": null
    },
    {
      "status": "0x1",
      "cumulativeGasUsed": "0xd2e017",
      "logs": [
        {
          "address": "0x0058863bb78b4325cab9d50ab75ca43601a9ef6b",
          "topics": [
            "0x8c5be1e5ebec7d5bd14f71427d1e84f3dd0314c0f7b2291e5b200ac8c7c3b925",
            "0x0000000000000000000000003e723f6b81431f325e3f08e75544f254c182afe2",
            "0x000000000000000000000000000000000022d473030f116ddee9f6b43ac78ba3"
          ],
          "data": "0xffffffffffffffffffffffffffffffffffffffffffffffffffffffffffffffff",
          "blockHash": "0x8009063fc29c3d6911f1845ca99c4b1a294f780f256f6741fb39c46dcb7e2094",
          "blockNumber": "0x8cc914",
          "transactionHash": "0xd2ca48464629748c9affe344a28bdef271d62e6924b86e13befd68895858db4d",
          "transactionIndex": "0x54",
          "logIndex": "0x8f",
          "removed": false
        }
      ],
      "logsBloom": "0x00000000000000000000000000000000000000000000000080000000000000000000000000000000000000000000000000000000880000000000000000200000000000000000000000004000000000000000000000000800000000000000000000000000000000000000000000000000000000000000000000000000000000000000000000000000000000000000000000000000000000000000000000000000020000000000000080810000000000000000000000000000000010000000000000000000000000000000000000000000000000000000000000000000000000000010000000000000000000000000000000000000000000000000000000000000",
      "type": "0x2",
      "transactionHash": "0xd2ca48464629748c9affe344a28bdef271d62e6924b86e13befd68895858db4d",
      "transactionIndex": "0x54",
      "blockHash": "0x8009063fc29c3d6911f1845ca99c4b1a294f780f256f6741fb39c46dcb7e2094",
      "blockNumber": "0x8cc914",
      "gasUsed": "0x66c5",
      "effectiveGasPrice": "0xf4255",
      "from": "0x3e723f6b81431f325e3f08e75544f254c182afe2",
      "to": "0x0058863bb78b4325cab9d50ab75ca43601a9ef6b",
      "contractAddress": null
    },
    {
      "status": "0x1",
      "cumulativeGasUsed": "0xd34d19",
      "logs": [
        {
          "address": "0x000000000022d473030f116ddee9f6b43ac78ba3",
          "topics": [
            "0xda9fa7c1b00402c17d0161b249b1ab8bbec047c5a52207b9c112deffd817036b",
            "0x0000000000000000000000003e723f6b81431f325e3f08e75544f254c182afe2",
            "0x0000000000000000000000000058863bb78b4325cab9d50ab75ca43601a9ef6b",
            "0x000000000000000000000000429ba70129df741b2ca2a85bc3a2a3328e5c09b4"
          ],
          "data": "0x000000000000000000000000ffffffffffffffffffffffffffffffffffffffff0000000000000000000000000000000000000000000000000000ffffffffffff",
          "blockHash": "0x8009063fc29c3d6911f1845ca99c4b1a294f780f256f6741fb39c46dcb7e2094",
          "blockNumber": "0x8cc914",
          "transactionHash": "0x92ab8223f8560e87d2fe63710c27fc860280ba4c2774f5556bc5482480b27351",
          "transactionIndex": "0x55",
          "logIndex": "0x90",
          "removed": false
        }
      ],
      "logsBloom": "0x00010000000000000000000000000000000000000000000000000000000000000000000000000040080000000000000000000000080000000000000000080000000000000000000000000000000000000000000000004000000000000000000000000000000000000000000000000000000000000000080000000800000000000020000000000000000000000000000000000000000000000000000000000000000000000000000080000000000000000000000000000000000010080000000000000000000000000000000000000000000000000000000040000000000000000000000000080000000000000000000000000000000000000000000000000400",
      "type": "0x2",
      "transactionHash": "0x92ab8223f8560e87d2fe63710c27fc860280ba4c2774f5556bc5482480b27351",
      "transactionIndex": "0x55",
      "blockHash": "0x8009063fc29c3d6911f1845ca99c4b1a294f780f256f6741fb39c46dcb7e2094",
      "blockNumber": "0x8cc914",
      "gasUsed": "0x6d02",
      "effectiveGasPrice": "0xf4255",
      "from": "0x3e723f6b81431f325e3f08e75544f254c182afe2",
      "to": "0x000000000022d473030f116ddee9f6b43ac78ba3",
      "contractAddress": null
    },
    {
      "status": "0x1",
      "cumulativeGasUsed": "0xd8814c",
      "logs": [
        {
          "address": "0x429ba70129df741b2ca2a85bc3a2a3328e5c09b4",
          "topics": [
            "0xddf252ad1be2c89b69c2b068fc378daa952ba7f163c4a11628f55a4df523b3ef",
            "0x0000000000000000000000000000000000000000000000000000000000000000",
            "0x0000000000000000000000003e723f6b81431f325e3f08e75544f254c182afe2",
            "0x000000000000000000000000000000000000000000000000000000000000432b"
          ],
          "data": "0x",
          "blockHash": "0x8009063fc29c3d6911f1845ca99c4b1a294f780f256f6741fb39c46dcb7e2094",
          "blockNumber": "0x8cc914",
          "transactionHash": "0x361b51125d1ffdd0424b8eae77eaa835289a562c57f73b60bc8778fa68a7eb3d",
          "transactionIndex": "0x57",
          "logIndex": "0x94",
          "removed": false
        },
        {
          "address": "0xe03a1074c86cfedd5c142c4f04f1a1536e203543",
          "topics": [
            "0xf208f4912782fd25c7f114ca3723a2d5dd6f3bcc3ac8db5af63baa85f711d5ec",
            "0xdf9d2413ceeb4837095451060aa03b4f4a2d3bd9e9a3dd2b8bb738f18d7aec7f",
            "0x000000000000000000000000429ba70129df741b2ca2a85bc3a2a3328e5c09b4"
          ],
          "data": "0xfffffffffffffffffffffffffffffffffffffffffffffffffffffffffffffed400000000000000000000000000000000000000000000000000000000000000f00000000000000000000000000000000000000000000000000000000028d86839000000000000000000000000000000000000000000000000000000000000432b",
          "blockHash": "0x8009063fc29c3d6911f1845ca99c4b1a294f780f256f6741fb39c46dcb7e2094",
          "blockNumber": "0x8cc914",
          "transactionHash": "0x361b51125d1ffdd0424b8eae77eaa835289a562c57f73b60bc8778fa68a7eb3d",
          "transactionIndex": "0x57",
          "logIndex": "0x95",
          "removed": false
        },
        {
          "address": "0x0058863bb78b4325cab9d50ab75ca43601a9ef6b",
          "topics": [
            "0xddf252ad1be2c89b69c2b068fc378daa952ba7f163c4a11628f55a4df523b3ef",
            "0x0000000000000000000000003e723f6b81431f325e3f08e75544f254c182afe2",
            "0x000000000000000000000000e03a1074c86cfedd5c142c4f04f1a1536e203543"
          ],
          "data": "0x00000000000000000000000000000000000000000000000000000000007fcd3f",
          "blockHash": "0x8009063fc29c3d6911f1845ca99c4b1a294f780f256f6741fb39c46dcb7e2094",
          "blockNumber": "0x8cc914",
          "transactionHash": "0x361b51125d1ffdd0424b8eae77eaa835289a562c57f73b60bc8778fa68a7eb3d",
          "transactionIndex": "0x57",
          "logIndex": "0x96",
          "removed": false
        },
        {
          "address": "0x5abec0563014c1c02eb7a4f6924896e5f92579fc",
          "topics": [
            "0xddf252ad1be2c89b69c2b068fc378daa952ba7f163c4a11628f55a4df523b3ef",
            "0x0000000000000000000000003e723f6b81431f325e3f08e75544f254c182afe2",
            "0x000000000000000000000000e03a1074c86cfedd5c142c4f04f1a1536e203543"
          ],
          "data": "0x0000000000000000000000000000000000000000000000000000000000989680",
          "blockHash": "0x8009063fc29c3d6911f1845ca99c4b1a294f780f256f6741fb39c46dcb7e2094",
          "blockNumber": "0x8cc914",
          "transactionHash": "0x361b51125d1ffdd0424b8eae77eaa835289a562c57f73b60bc8778fa68a7eb3d",
          "transactionIndex": "0x57",
          "logIndex": "0x97",
          "removed": false
        }
      ],
      "logsBloom": "0x00000000000000000000001000000000000000000000000090000000080000000000000000000040080000000000000001000100080000000000000000000000000000000400000000000008000000000000000000000080000000000000000000000000020000000000000080000800000000000000100000000810010004000000000001000000000010000000000000000000000000000000000000000000000004000000000080810000000000000000000000400000000030000000000000000002000000000000000000000000000000000000000000001080000020001000000000000004000000000000000004000000000000000000000000000000",
      "type": "0x2",
      "transactionHash": "0x361b51125d1ffdd0424b8eae77eaa835289a562c57f73b60bc8778fa68a7eb3d",
      "transactionIndex": "0x57",
      "blockHash": "0x8009063fc29c3d6911f1845ca99c4b1a294f780f256f6741fb39c46dcb7e2094",
      "blockNumber": "0x8cc914",
      "gasUsed": "0x3a659",
      "effectiveGasPrice": "0xf4255",
      "from": "0x3e723f6b81431f325e3f08e75544f254c182afe2",
      "to": "0x429ba70129df741b2ca2a85bc3a2a3328e5c09b4",
      "contractAddress": null
    },
    {
      "status": "0x1",
      "cumulativeGasUsed": "0xd8e841",
      "logs": [
        {
          "address": "0x5abec0563014c1c02eb7a4f6924896e5f92579fc",
          "topics": [
            "0x8c5be1e5ebec7d5bd14f71427d1e84f3dd0314c0f7b2291e5b200ac8c7c3b925",
            "0x0000000000000000000000003e723f6b81431f325e3f08e75544f254c182afe2",
            "0x000000000000000000000000f13d190e9117920c703d79b5f33732e10049b115"
          ],
          "data": "0xffffffffffffffffffffffffffffffffffffffffffffffffffffffffffffffff",
          "blockHash": "0x8009063fc29c3d6911f1845ca99c4b1a294f780f256f6741fb39c46dcb7e2094",
          "blockNumber": "0x8cc914",
          "transactionHash": "0xee70c434e8a6a130f1807d7991382dc72fbbded38ab4826cde07bb095b0d1eb3",
          "transactionIndex": "0x58",
          "logIndex": "0x98",
          "removed": false
        }
      ],
      "logsBloom": "0x00000000000000000000000000000000000000000000000000800000000000000000000000000000000000000000000000000000080000000000000000200000000000000000000000000000000000000000000000000000000000000000000000000000000000000000000000000000000000000000000000000000000004000000000000080000000000000000000000000000000000000000000000000000020000000000000080000000000000000000000000000000000030000000000000000000000000000000000000000000000000000000000000000000000080000010000000000004000000000000000000000000000000000000000000000000",
      "type": "0x2",
      "transactionHash": "0xee70c434e8a6a130f1807d7991382dc72fbbded38ab4826cde07bb095b0d1eb3",
      "transactionIndex": "0x58",
      "blockHash": "0x8009063fc29c3d6911f1845ca99c4b1a294f780f256f6741fb39c46dcb7e2094",
      "blockNumber": "0x8cc914",
      "gasUsed": "0x66f5",
      "effectiveGasPrice": "0xf4255",
      "from": "0x3e723f6b81431f325e3f08e75544f254c182afe2",
      "to": "0x5abec0563014c1c02eb7a4f6924896e5f92579fc",
      "contractAddress": null
    },
    {
      "status": "0x1",
      "cumulativeGasUsed": "0xd94f36",
      "logs": [
        {
          "address": "0x0058863bb78b4325cab9d50ab75ca43601a9ef6b",
          "topics": [
            "0x8c5be1e5ebec7d5bd14f71427d1e84f3dd0314c0f7b2291e5b200ac8c7c3b925",
            "0x0000000000000000000000003e723f6b81431f325e3f08e75544f254c182afe2",
            "0x000000000000000000000000f13d190e9117920c703d79b5f33732e10049b115"
          ],
          "data": "0xffffffffffffffffffffffffffffffffffffffffffffffffffffffffffffffff",
          "blockHash": "0x8009063fc29c3d6911f1845ca99c4b1a294f780f256f6741fb39c46dcb7e2094",
          "blockNumber": "0x8cc914",
          "transactionHash": "0x2528b5ea7946c20d72f10b4a6cf13fa89a38049d28c60010f5ce92ed0f5cda1d",
          "transactionIndex": "0x59",
          "logIndex": "0x99",
          "removed": false
        }
      ],
      "logsBloom": "0x00000000000000000000000000000000000000000000000080800000000000000000000000000000000000000000000000000000080000000000000000200000000000000000000000000000000000000000000000000000000000000000000000000000000000000000000000000000000000000000000000000000000000000000000000080000000000000000000000000000000000000000000000000000020000000000000080810000000000000000000000000000000010000000000000000000000000000000000000000000000000000000000000000000000080000010000000000000000000000000000000000000000000000000000000000000",
      "type": "0x2",
      "transactionHash": "0x2528b5ea7946c20d72f10b4a6cf13fa89a38049d28c60010f5ce92ed0f5cda1d",
      "transactionIndex": "0x59",
      "blockHash": "0x8009063fc29c3d6911f1845ca99c4b1a294f780f256f6741fb39c46dcb7e2094",
      "blockNumber": "0x8cc914",
      "gasUsed": "0x66f5",
      "effectiveGasPrice": "0xf4255",
      "from": "0x3e723f6b81431f325e3f08e75544f254c182afe2",
      "to": "0x0058863bb78b4325cab9d50ab75ca43601a9ef6b",
      "contractAddress": null
    },
    {
      "status": "0x1",
      "cumulativeGasUsed": "0xdd4f79",
      "logs": [
        {
          "address": "0xe03a1074c86cfedd5c142c4f04f1a1536e203543",
          "topics": [
            "0x40e9cecb9f5f1f1c5b9c97dec2917b7ee92e57ba5563708daca94dd84ad7112f",
            "0xd47c8f2b728c4b7a250e388d6c9371694e26ededa185062520abd55732a2935b",
            "0x000000000000000000000000f13d190e9117920c703d79b5f33732e10049b115"
          ],
          "data": "0xfffffffffffffffffffffffffffffffffffffffffffffffffffffffffffffc1800000000000000000000000000000000000000000000000000000000000003e40000000000000000000000000000000000000000ffffb6c5daf7dae3678d79c70000000000000000000000000000000000000000000000000000000028d86839ffffffffffffffffffffffffffffffffffffffffffffffffffffffffffffffff0000000000000000000000000000000000000000000000000000000000000bb8",
          "blockHash": "0x8009063fc29c3d6911f1845ca99c4b1a294f780f256f6741fb39c46dcb7e2094",
          "blockNumber": "0x8cc914",
          "transactionHash": "0x1654d89fd84316a42c2dce679725c205de088f310f0cff998c7dd2a9deba7bf6",
          "transactionIndex": "0x5b",
          "logIndex": "0x9b",
          "removed": false
        },
        {
          "address": "0x0058863bb78b4325cab9d50ab75ca43601a9ef6b",
          "topics": [
            "0xddf252ad1be2c89b69c2b068fc378daa952ba7f163c4a11628f55a4df523b3ef",
            "0x0000000000000000000000003e723f6b81431f325e3f08e75544f254c182afe2",
            "0x000000000000000000000000e03a1074c86cfedd5c142c4f04f1a1536e203543"
          ],
          "data": "0x00000000000000000000000000000000000000000000000000000000000003e8",
          "blockHash": "0x8009063fc29c3d6911f1845ca99c4b1a294f780f256f6741fb39c46dcb7e2094",
          "blockNumber": "0x8cc914",
          "transactionHash": "0x1654d89fd84316a42c2dce679725c205de088f310f0cff998c7dd2a9deba7bf6",
          "transactionIndex": "0x5b",
          "logIndex": "0x9c",
          "removed": false
        },
        {
          "address": "0x5abec0563014c1c02eb7a4f6924896e5f92579fc",
          "topics": [
            "0xddf252ad1be2c89b69c2b068fc378daa952ba7f163c4a11628f55a4df523b3ef",
            "0x000000000000000000000000e03a1074c86cfedd5c142c4f04f1a1536e203543",
            "0x0000000000000000000000003e723f6b81431f325e3f08e75544f254c182afe2"
          ],
          "data": "0x00000000000000000000000000000000000000000000000000000000000003e4",
          "blockHash": "0x8009063fc29c3d6911f1845ca99c4b1a294f780f256f6741fb39c46dcb7e2094",
          "blockNumber": "0x8cc914",
          "transactionHash": "0x1654d89fd84316a42c2dce679725c205de088f310f0cff998c7dd2a9deba7bf6",
          "transactionIndex": "0x5b",
          "logIndex": "0x9d",
          "removed": false
        }
      ],
      "logsBloom": "0x000000000000000000000000000000000000000000000000808000000000000000000000000000000000000000000000000001000c0180000000000000000000000000000000000000000008000000000000000000000020000000000000000000000000000000000000000080000000000000000000100000000010000004000000000000080000000010000000000000000000000000000000000000000000000000000000000080810000000000000000000000000000000030000080000000000002000000000000000000000000000000000000000000001000000080001000000000000004004000000000000000000000000000000000000000000000",
      "type": "0x2",
      "transactionHash": "0x1654d89fd84316a42c2dce679725c205de088f310f0cff998c7dd2a9deba7bf6",
      "transactionIndex": "0x5b",
      "blockHash": "0x8009063fc29c3d6911f1845ca99c4b1a294f780f256f6741fb39c46dcb7e2094",
      "blockNumber": "0x8cc914",
      "gasUsed": "0x37f45",
      "effectiveGasPrice": "0xf4255",
      "from": "0x3e723f6b81431f325e3f08e75544f254c182afe2",
      "to": "0xf13d190e9117920c703d79b5f33732e10049b115",
      "contractAddress": null
    }
  ],
  "libraries": [],
  "pending": [],
  "returns": {},
  "timestamp": 1758171230071,
  "chain": 11155111,
  "commit": "7b9c819"
}