{
  "transactions": [
    {
      "hash": "0xa7ac99639a89af3c00a05d8dffed2d07db16e1c557998d50cbfdd3396f6a9914",
      "transactionType": "CALL",
      "contractName": null,
      "contractAddress": "0x54ce5e7351bf259604f3db6d79fc3653a15ef880",
      "function": "configureEncryptedRebalancingStrategy((address,address,uint24,int24,address),uint24,uint32,int24,bool,uint24)",
      "arguments": [
        "(0x3e68f0F304314495fa45907170a59D0BA5218bCc, 0xabc0Afb70F325F4119cFCA4083EA2A580Ec40D3F, 3000, 60, 0x54Ce5e7351BF259604F3DB6D79fC3653A15EF880)",
        "500",
        "3600",
        "200",
        "true",
        "150"
      ],
      "transaction": {
        "from": "0x3e723f6b81431f325e3f08e75544f254c182afe2",
        "to": "0x54ce5e7351bf259604f3db6d79fc3653a15ef880",
        "gas": "0x605f7",
        "value": "0x0",
        "input": "0xa9eb74780000000000000000000000003e68f0f304314495fa45907170a59d0ba5218bcc000000000000000000000000abc0afb70f325f4119cfca4083ea2a580ec40d3f0000000000000000000000000000000000000000000000000000000000000bb8000000000000000000000000000000000000000000000000000000000000003c00000000000000000000000054ce5e7351bf259604f3db6d79fc3653a15ef88000000000000000000000000000000000000000000000000000000000000001f40000000000000000000000000000000000000000000000000000000000000e1000000000000000000000000000000000000000000000000000000000000000c800000000000000000000000000000000000000000000000000000000000000010000000000000000000000000000000000000000000000000000000000000096",
        "nonce": "0x649",
        "chainId": "0xaa36a7"
      },
      "additionalContracts": [],
      "isFixedGasLimit": false
    },
    {
      "hash": "0x00aa75dd80c4c35c68060f47d49323d2b737a71789e802083b81a76b9e407b9e",
      "transactionType": "CALL",
      "contractName": null,
      "contractAddress": "0x54ce5e7351bf259604f3db6d79fc3653a15ef880",
      "function": "pausePoolRebalancing((address,address,uint24,int24,address))",
      "arguments": [
        "(0x3e68f0F304314495fa45907170a59D0BA5218bCc, 0xabc0Afb70F325F4119cFCA4083EA2A580Ec40D3F, 3000, 60, 0x54Ce5e7351BF259604F3DB6D79fC3653A15EF880)"
      ],
      "transaction": {
        "from": "0x3e723f6b81431f325e3f08e75544f254c182afe2",
        "to": "0x54ce5e7351bf259604f3db6d79fc3653a15ef880",
        "gas": "0x1d86d",
        "value": "0x0",
        "input": "0xfbdd948f0000000000000000000000003e68f0f304314495fa45907170a59d0ba5218bcc000000000000000000000000abc0afb70f325f4119cfca4083ea2a580ec40d3f0000000000000000000000000000000000000000000000000000000000000bb8000000000000000000000000000000000000000000000000000000000000003c00000000000000000000000054ce5e7351bf259604f3db6d79fc3653a15ef880",
        "nonce": "0x64a",
        "chainId": "0xaa36a7"
      },
      "additionalContracts": [],
      "isFixedGasLimit": false
    },
    {
      "hash": "0x1603907641a1f0dc454db634f6191f181872c560ca245220e793194ab2721a2e",
      "transactionType": "CALL",
      "contractName": null,
      "contractAddress": "0x54ce5e7351bf259604f3db6d79fc3653a15ef880",
      "function": "resumePoolRebalancing((address,address,uint24,int24,address))",
      "arguments": [
        "(0x3e68f0F304314495fa45907170a59D0BA5218bCc, 0xabc0Afb70F325F4119cFCA4083EA2A580Ec40D3F, 3000, 60, 0x54Ce5e7351BF259604F3DB6D79fC3653A15EF880)"
      ],
      "transaction": {
        "from": "0x3e723f6b81431f325e3f08e75544f254c182afe2",
        "to": "0x54ce5e7351bf259604f3db6d79fc3653a15ef880",
        "gas": "0x1f451",
        "value": "0x0",
        "input": "0xfe0389100000000000000000000000003e68f0f304314495fa45907170a59d0ba5218bcc000000000000000000000000abc0afb70f325f4119cfca4083ea2a580ec40d3f0000000000000000000000000000000000000000000000000000000000000bb8000000000000000000000000000000000000000000000000000000000000003c00000000000000000000000054ce5e7351bf259604f3db6d79fc3653a15ef880",
        "nonce": "0x64b",
        "chainId": "0xaa36a7"
      },
      "additionalContracts": [],
      "isFixedGasLimit": false
    },
    {
      "hash": "0xf03a3590b4dcbe594d4843677224a23a97bf9d100a1f14dff6802d70e6966501",
      "transactionType": "CALL",
      "contractName": null,
      "contractAddress": "0x54ce5e7351bf259604f3db6d79fc3653a15ef880",
      "function": "deactivatePool((address,address,uint24,int24,address))",
      "arguments": [
        "(0x3e68f0F304314495fa45907170a59D0BA5218bCc, 0xabc0Afb70F325F4119cFCA4083EA2A580Ec40D3F, 3000, 60, 0x54Ce5e7351BF259604F3DB6D79fC3653A15EF880)"
      ],
      "transaction": {
        "from": "0x3e723f6b81431f325e3f08e75544f254c182afe2",
        "to": "0x54ce5e7351bf259604f3db6d79fc3653a15ef880",
        "gas": "0xa55b",
        "value": "0x0",
        "input": "0x7a2486b50000000000000000000000003e68f0f304314495fa45907170a59d0ba5218bcc000000000000000000000000abc0afb70f325f4119cfca4083ea2a580ec40d3f0000000000000000000000000000000000000000000000000000000000000bb8000000000000000000000000000000000000000000000000000000000000003c00000000000000000000000054ce5e7351bf259604f3db6d79fc3653a15ef880",
        "nonce": "0x64c",
        "chainId": "0xaa36a7"
      },
      "additionalContracts": [],
      "isFixedGasLimit": false
    },
    {
      "hash": "0xcd16f326feea6aa16a1d28fa6284592c2d1e8577c6f53712f856b9dae5fddb80",
      "transactionType": "CALL",
      "contractName": null,
      "contractAddress": "0x54ce5e7351bf259604f3db6d79fc3653a15ef880",
      "function": "reactivatePool((address,address,uint24,int24,address))",
      "arguments": [
        "(0x3e68f0F304314495fa45907170a59D0BA5218bCc, 0xabc0Afb70F325F4119cFCA4083EA2A580Ec40D3F, 3000, 60, 0x54Ce5e7351BF259604F3DB6D79fC3653A15EF880)"
      ],
      "transaction": {
        "from": "0x3e723f6b81431f325e3f08e75544f254c182afe2",
        "to": "0x54ce5e7351bf259604f3db6d79fc3653a15ef880",
        "gas": "0x106db",
        "value": "0x0",
        "input": "0x54ee1e530000000000000000000000003e68f0f304314495fa45907170a59d0ba5218bcc000000000000000000000000abc0afb70f325f4119cfca4083ea2a580ec40d3f0000000000000000000000000000000000000000000000000000000000000bb8000000000000000000000000000000000000000000000000000000000000003c00000000000000000000000054ce5e7351bf259604f3db6d79fc3653a15ef880",
        "nonce": "0x64d",
        "chainId": "0xaa36a7"
      },
      "additionalContracts": [],
      "isFixedGasLimit": false
    },
    {
      "hash": "0xf87c64f5731426c2228ef0f0362914ae0afc638ee9abd7ff3715001be6c0d660",
      "transactionType": "CALL",
      "contractName": null,
      "contractAddress": "0xe03a1074c86cfedd5c142c4f04f1a1536e203543",
      "function": "initialize((address,address,uint24,int24,address),uint160)",
      "arguments": [
        "(0x3e68f0F304314495fa45907170a59D0BA5218bCc, 0xabc0Afb70F325F4119cFCA4083EA2A580Ec40D3F, 3000, 60, 0x54Ce5e7351BF259604F3DB6D79fC3653A15EF880)",
        "79228162514264337593543950336"
      ],
      "transaction": {
        "from": "0x3e723f6b81431f325e3f08e75544f254c182afe2",
        "to": "0xe03a1074c86cfedd5c142c4f04f1a1536e203543",
        "gas": "0x6a8df",
        "value": "0x0",
        "input": "0x6276cbbe0000000000000000000000003e68f0f304314495fa45907170a59d0ba5218bcc000000000000000000000000abc0afb70f325f4119cfca4083ea2a580ec40d3f0000000000000000000000000000000000000000000000000000000000000bb8000000000000000000000000000000000000000000000000000000000000003c00000000000000000000000054ce5e7351bf259604f3db6d79fc3653a15ef8800000000000000000000000000000000000000001000000000000000000000000",
        "nonce": "0x64e",
        "chainId": "0xaa36a7"
      },
      "additionalContracts": [],
      "isFixedGasLimit": false
    },
    {
      "hash": "0x9bdd89e6f5e2a7cc4bf9e60cdbfb459ce9d49971f2814a03a71e2eef5f4b3c90",
      "transactionType": "CALL",
      "contractName": null,
      "contractAddress": "0xabc0afb70f325f4119cfca4083ea2a580ec40d3f",
      "function": "approve(address,uint256)",
      "arguments": [
        "0x429ba70129df741B2Ca2a85BC3A2a3328e5c09b4",
        "115792089237316195423570985008687907853269984665640564039457584007913129639935"
      ],
      "transaction": {
        "from": "0x3e723f6b81431f325e3f08e75544f254c182afe2",
        "to": "0xabc0afb70f325f4119cfca4083ea2a580ec40d3f",
        "gas": "0x96a4",
        "value": "0x0",
        "input": "0x095ea7b3000000000000000000000000429ba70129df741b2ca2a85bc3a2a3328e5c09b4ffffffffffffffffffffffffffffffffffffffffffffffffffffffffffffffff",
        "nonce": "0x64f",
        "chainId": "0xaa36a7"
      },
      "additionalContracts": [],
      "isFixedGasLimit": false
    },
    {
      "hash": "0x1c611779be2d1d307be94632c65e411d1e181c6f0ca665f6f090bc7d2937ae6f",
      "transactionType": "CALL",
      "contractName": null,
      "contractAddress": "0x3e68f0f304314495fa45907170a59d0ba5218bcc",
      "function": "approve(address,uint256)",
      "arguments": [
        "0x429ba70129df741B2Ca2a85BC3A2a3328e5c09b4",
        "115792089237316195423570985008687907853269984665640564039457584007913129639935"
      ],
      "transaction": {
        "from": "0x3e723f6b81431f325e3f08e75544f254c182afe2",
        "to": "0x3e68f0f304314495fa45907170a59d0ba5218bcc",
        "gas": "0x96a4",
        "value": "0x0",
        "input": "0x095ea7b3000000000000000000000000429ba70129df741b2ca2a85bc3a2a3328e5c09b4ffffffffffffffffffffffffffffffffffffffffffffffffffffffffffffffff",
        "nonce": "0x650",
        "chainId": "0xaa36a7"
      },
      "additionalContracts": [],
      "isFixedGasLimit": false
    },
    {
      "hash": "0x926313e21f4ff9ef82f0d17cbaa366a03303572260a0e3145359603851e9dc66",
      "transactionType": "CALL",
      "contractName": null,
      "contractAddress": "0xabc0afb70f325f4119cfca4083ea2a580ec40d3f",
      "function": "approve(address,uint256)",
      "arguments": [
        "0x000000000022D473030F116dDEE9F6B43aC78BA3",
        "115792089237316195423570985008687907853269984665640564039457584007913129639935"
      ],
      "transaction": {
        "from": "0x3e723f6b81431f325e3f08e75544f254c182afe2",
        "to": "0xabc0afb70f325f4119cfca4083ea2a580ec40d3f",
        "gas": "0x8df2",
        "value": "0x0",
        "input": "0x095ea7b3000000000000000000000000000000000022d473030f116ddee9f6b43ac78ba3ffffffffffffffffffffffffffffffffffffffffffffffffffffffffffffffff",
        "nonce": "0x651",
        "chainId": "0xaa36a7"
      },
      "additionalContracts": [],
      "isFixedGasLimit": false
    },
    {
      "hash": "0x60c7abb12d96db2cc5be2884b852bdbc10170655bf55503e27a5e88c57d5a919",
      "transactionType": "CALL",
      "contractName": null,
      "contractAddress": "0x000000000022d473030f116ddee9f6b43ac78ba3",
      "function": "approve(address,address,uint160,uint48)",
      "arguments": [
        "0xabc0Afb70F325F4119cFCA4083EA2A580Ec40D3F",
        "0x429ba70129df741B2Ca2a85BC3A2a3328e5c09b4",
        "1461501637330902918203684832716283019655932542975",
        "281474976710655"
      ],
      "transaction": {
        "from": "0x3e723f6b81431f325e3f08e75544f254c182afe2",
        "to": "0x000000000022d473030f116ddee9f6b43ac78ba3",
        "gas": "0x96a0",
        "value": "0x0",
        "input": "0x87517c45000000000000000000000000abc0afb70f325f4119cfca4083ea2a580ec40d3f000000000000000000000000429ba70129df741b2ca2a85bc3a2a3328e5c09b4000000000000000000000000ffffffffffffffffffffffffffffffffffffffff0000000000000000000000000000000000000000000000000000ffffffffffff",
        "nonce": "0x652",
        "chainId": "0xaa36a7"
      },
      "additionalContracts": [],
      "isFixedGasLimit": false
    },
    {
      "hash": "0x67ca86c498e2eb4e5e9f010abbe73388213ac436fcc48fbaf9f0586d21ff5da6",
      "transactionType": "CALL",
      "contractName": null,
      "contractAddress": "0x3e68f0f304314495fa45907170a59d0ba5218bcc",
      "function": "approve(address,uint256)",
      "arguments": [
        "0x000000000022D473030F116dDEE9F6B43aC78BA3",
        "115792089237316195423570985008687907853269984665640564039457584007913129639935"
      ],
      "transaction": {
        "from": "0x3e723f6b81431f325e3f08e75544f254c182afe2",
        "to": "0x3e68f0f304314495fa45907170a59d0ba5218bcc",
        "gas": "0x8df2",
        "value": "0x0",
        "input": "0x095ea7b3000000000000000000000000000000000022d473030f116ddee9f6b43ac78ba3ffffffffffffffffffffffffffffffffffffffffffffffffffffffffffffffff",
        "nonce": "0x653",
        "chainId": "0xaa36a7"
      },
      "additionalContracts": [],
      "isFixedGasLimit": false
    },
    {
      "hash": "0xa1c70e9e08541f10bdd38e50d9113f16f8619f416dabf4f397671a072beff48b",
      "transactionType": "CALL",
      "contractName": null,
      "contractAddress": "0x000000000022d473030f116ddee9f6b43ac78ba3",
      "function": "approve(address,address,uint160,uint48)",
      "arguments": [
        "0x3e68f0F304314495fa45907170a59D0BA5218bCc",
        "0x429ba70129df741B2Ca2a85BC3A2a3328e5c09b4",
        "1461501637330902918203684832716283019655932542975",
        "281474976710655"
      ],
      "transaction": {
        "from": "0x3e723f6b81431f325e3f08e75544f254c182afe2",
        "to": "0x000000000022d473030f116ddee9f6b43ac78ba3",
        "gas": "0x96a0",
        "value": "0x0",
        "input": "0x87517c450000000000000000000000003e68f0f304314495fa45907170a59d0ba5218bcc000000000000000000000000429ba70129df741b2ca2a85bc3a2a3328e5c09b4000000000000000000000000ffffffffffffffffffffffffffffffffffffffff0000000000000000000000000000000000000000000000000000ffffffffffff",
        "nonce": "0x654",
        "chainId": "0xaa36a7"
      },
      "additionalContracts": [],
      "isFixedGasLimit": false
    },
    {
      "hash": "0x59d9add04bfeeb2d4b213a3fd501159bd8098d4ddac4e8e399f3108f99838f34",
      "transactionType": "CALL",
      "contractName": null,
      "contractAddress": "0x429ba70129df741b2ca2a85bc3a2a3328e5c09b4",
      "function": "multicall(bytes[])",
      "arguments": [
        "[0xdd46508f00000000000000000000000000000000000000000000000000000000000000400000000000000000000000000000000000000000000000000000000068cb98f00000000000000000000000000000000000000000000000000000000000000400000000000000000000000000000000000000000000000000000000000000004000000000000000000000000000000000000000000000000000000000000000800000000000000000000000000000000000000000000000000000000000000004020d14140000000000000000000000000000000000000000000000000000000000000000000000000000000000000000000000000000000000000000000000040000000000000000000000000000000000000000000000000000000000000080000000000000000000000000000000000000000000000000000000000000024000000000000000000000000000000000000000000000000000000000000002a0000000000000000000000000000000000000000000000000000000000000030000000000000000000000000000000000000000000000000000000000000001a00000000000000000000000003e68f0f304314495fa45907170a59d0ba5218bcc000000000000000000000000abc0afb70f325f4119cfca4083ea2a580ec40d3f0000000000000000000000000000000000000000000000000000000000000bb8000000000000000000000000000000000000000000000000000000000000003c0000000000000000000000000000000000000000000000000000000000000000fffffffffffffffffffffffffffffffffffffffffffffffffffffffffffffed4000000000000000000000000000000000000000000000000000000000000012c0000000000000000000000000000000000000000000000000000000000001a800000000000000000000000000000000000000000000000000027147114878000000000000000000000000000000000000000000000000000000000000000006f0000000000000000000000003e723f6b81431f325e3f08e75544f254c182afe20000000000000000000000000000000000000000000000000000000000000180000000000000000000000000000000000000000000000000000000000000000000000000000000000000000000000000000000000000000000000000000000400000000000000000000000003e68f0f304314495fa45907170a59d0ba5218bcc000000000000000000000000abc0afb70f325f4119cfca4083ea2a580ec40d3f00000000000000000000000000000000000000000000000000000000000000400000000000000000000000003e68f0f304314495fa45907170a59d0ba5218bcc0000000000000000000000003e723f6b81431f325e3f08e75544f254c182afe20000000000000000000000000000000000000000000000000000000000000040000000000000000000000000abc0afb70f325f4119cfca4083ea2a580ec40d3f0000000000000000000000003e723f6b81431f325e3f08e75544f254c182afe2]"
      ],
      "transaction": {
        "from": "0x3e723f6b81431f325e3f08e75544f254c182afe2",
        "to": "0x429ba70129df741b2ca2a85bc3a2a3328e5c09b4",
        "gas": "0x5567b",
        "value": "0x0",
        "input": "0xac9650d80000000000000000000000000000000000000000000000000000000000000020000000000000000000000000000000000000000000000000000000000000000100000000000000000000000000000000000000000000000000000000000000200000000000000000000000000000000000000000000000000000000000000464dd46508f00000000000000000000000000000000000000000000000000000000000000400000000000000000000000000000000000000000000000000000000068cb98f00000000000000000000000000000000000000000000000000000000000000400000000000000000000000000000000000000000000000000000000000000004000000000000000000000000000000000000000000000000000000000000000800000000000000000000000000000000000000000000000000000000000000004020d14140000000000000000000000000000000000000000000000000000000000000000000000000000000000000000000000000000000000000000000000040000000000000000000000000000000000000000000000000000000000000080000000000000000000000000000000000000000000000000000000000000024000000000000000000000000000000000000000000000000000000000000002a0000000000000000000000000000000000000000000000000000000000000030000000000000000000000000000000000000000000000000000000000000001a00000000000000000000000003e68f0f304314495fa45907170a59d0ba5218bcc000000000000000000000000abc0afb70f325f4119cfca4083ea2a580ec40d3f0000000000000000000000000000000000000000000000000000000000000bb8000000000000000000000000000000000000000000000000000000000000003c0000000000000000000000000000000000000000000000000000000000000000fffffffffffffffffffffffffffffffffffffffffffffffffffffffffffffed4000000000000000000000000000000000000000000000000000000000000012c0000000000000000000000000000000000000000000000000000000000001a800000000000000000000000000000000000000000000000000027147114878000000000000000000000000000000000000000000000000000000000000000006f0000000000000000000000003e723f6b81431f325e3f08e75544f254c182afe20000000000000000000000000000000000000000000000000000000000000180000000000000000000000000000000000000000000000000000000000000000000000000000000000000000000000000000000000000000000000000000000400000000000000000000000003e68f0f304314495fa45907170a59d0ba5218bcc000000000000000000000000abc0afb70f325f4119cfca4083ea2a580ec40d3f00000000000000000000000000000000000000000000000000000000000000400000000000000000000000003e68f0f304314495fa45907170a59d0ba5218bcc0000000000000000000000003e723f6b81431f325e3f08e75544f254c182afe20000000000000000000000000000000000000000000000000000000000000040000000000000000000000000abc0afb70f325f4119cfca4083ea2a580ec40d3f0000000000000000000000003e723f6b81431f325e3f08e75544f254c182afe200000000000000000000000000000000000000000000000000000000",
        "nonce": "0x655",
        "chainId": "0xaa36a7"
      },
      "additionalContracts": [],
      "isFixedGasLimit": false
    },
    {
      "hash": "0xd1cb9065472a0cb1dacedbd57fdbbe4f490fdf055cb84206c1bb9c7dd537ca31",
      "transactionType": "CALL",
      "contractName": null,
      "contractAddress": "0xabc0afb70f325f4119cfca4083ea2a580ec40d3f",
      "function": "approve(address,uint256)",
      "arguments": [
        "0xf13D190e9117920c703d79B5F33732e10049b115",
        "115792089237316195423570985008687907853269984665640564039457584007913129639935"
      ],
      "transaction": {
        "from": "0x3e723f6b81431f325e3f08e75544f254c182afe2",
        "to": "0xabc0afb70f325f4119cfca4083ea2a580ec40d3f",
        "gas": "0x8e35",
        "value": "0x0",
        "input": "0x095ea7b3000000000000000000000000f13d190e9117920c703d79b5f33732e10049b115ffffffffffffffffffffffffffffffffffffffffffffffffffffffffffffffff",
        "nonce": "0x656",
        "chainId": "0xaa36a7"
      },
      "additionalContracts": [],
      "isFixedGasLimit": false
    },
    {
      "hash": "0xb6f469c3bcf8e5cf06fa376788cf0227a40a2d7dbeeb483cb5d18d9ebc69279e",
      "transactionType": "CALL",
      "contractName": null,
      "contractAddress": "0x3e68f0f304314495fa45907170a59d0ba5218bcc",
      "function": "approve(address,uint256)",
      "arguments": [
        "0xf13D190e9117920c703d79B5F33732e10049b115",
        "115792089237316195423570985008687907853269984665640564039457584007913129639935"
      ],
      "transaction": {
        "from": "0x3e723f6b81431f325e3f08e75544f254c182afe2",
        "to": "0x3e68f0f304314495fa45907170a59d0ba5218bcc",
        "gas": "0x8e35",
        "value": "0x0",
        "input": "0x095ea7b3000000000000000000000000f13d190e9117920c703d79b5f33732e10049b115ffffffffffffffffffffffffffffffffffffffffffffffffffffffffffffffff",
        "nonce": "0x657",
        "chainId": "0xaa36a7"
      },
      "additionalContracts": [],
      "isFixedGasLimit": false
    }
  ],
  "receipts": [
    {
      "status": "0x1",
      "cumulativeGasUsed": "0x1ff5fe8",
      "logs": [
        {
          "address": "0xea30c4b8b44078bbf8a6ef5b9f1ec1626c7848d9",
          "topics": [
            "0xe9de54a3e7ddf0c48cc6e1134185300d5a71acbf2d8c21fcdefa9d9dd9e20ac1"
          ],
          "data": "0xa086c907b116b1572126a2ccfaa5f6524f347f8a1d8378ce37b958e0cccc880000000000000000000000000000000000000000000000000000000000000000a000000000000000000000000000000000000000000000000000000000000001f400000000000000000000000000000000000000000000000000000000000000080000000000000000000000000000000000000000000000000000000000000000000000000000000000000000000000000000000000000000000000000000000e7472697669616c456e6372797074000000000000000000000000000000000000",
          "blockHash": "0x178ea3d706cddee978e044a10d79468e22208c1f68d310022ce9f2c6341fa790",
          "blockNumber": "0x8cc9bf",
          "blockTimestamp": "0x68cb98e4",
          "transactionHash": "0xa7ac99639a89af3c00a05d8dffed2d07db16e1c557998d50cbfdd3396f6a9914",
          "transactionIndex": "0xa3",
          "logIndex": "0x10b",
          "removed": false
        },
        {
          "address": "0xea30c4b8b44078bbf8a6ef5b9f1ec1626c7848d9",
          "topics": [
            "0xe9de54a3e7ddf0c48cc6e1134185300d5a71acbf2d8c21fcdefa9d9dd9e20ac1"
          ],
          "data": "0xcc63d19e9a0f97a43bc73dca1ee8b6f4b645d8919747695fa5d1d0da853a840000000000000000000000000000000000000000000000000000000000000000a00000000000000000000000000000000000000000000000000000000000000e1000000000000000000000000000000000000000000000000000000000000000040000000000000000000000000000000000000000000000000000000000000000000000000000000000000000000000000000000000000000000000000000000e7472697669616c456e6372797074000000000000000000000000000000000000",
          "blockHash": "0x178ea3d706cddee978e044a10d79468e22208c1f68d310022ce9f2c6341fa790",
          "blockNumber": "0x8cc9bf",
          "blockTimestamp": "0x68cb98e4",
          "transactionHash": "0xa7ac99639a89af3c00a05d8dffed2d07db16e1c557998d50cbfdd3396f6a9914",
          "transactionIndex": "0xa3",
          "logIndex": "0x10c",
          "removed": false
        },
        {
          "address": "0xea30c4b8b44078bbf8a6ef5b9f1ec1626c7848d9",
          "topics": [
            "0xe9de54a3e7ddf0c48cc6e1134185300d5a71acbf2d8c21fcdefa9d9dd9e20ac1"
          ],
          "data": "0xcdef58c863398f789d9953afd1326207812f448c90165e6886555071b2f4840000000000000000000000000000000000000000000000000000000000000000a000000000000000000000000000000000000000000000000000000000000000c800000000000000000000000000000000000000000000000000000000000000040000000000000000000000000000000000000000000000000000000000000000000000000000000000000000000000000000000000000000000000000000000e7472697669616c456e6372797074000000000000000000000000000000000000",
          "blockHash": "0x178ea3d706cddee978e044a10d79468e22208c1f68d310022ce9f2c6341fa790",
          "blockNumber": "0x8cc9bf",
          "blockTimestamp": "0x68cb98e4",
          "transactionHash": "0xa7ac99639a89af3c00a05d8dffed2d07db16e1c557998d50cbfdd3396f6a9914",
          "transactionIndex": "0xa3",
          "logIndex": "0x10d",
          "removed": false
        },
        {
          "address": "0xea30c4b8b44078bbf8a6ef5b9f1ec1626c7848d9",
          "topics": [
            "0xe9de54a3e7ddf0c48cc6e1134185300d5a71acbf2d8c21fcdefa9d9dd9e20ac1"
          ],
          "data": "0xb3e26d30bbd0fa3e41a1d86cb7844842fbb2638ed221cf36790bbd9c9f3e800000000000000000000000000000000000000000000000000000000000000000a0000000000000000000000000000000000000000000000000000000000000000100000000000000000000000000000000000000000000000000000000000000000000000000000000000000000000000000000000000000000000000000000000000000000000000000000000000000000000000000000000000000000000000e7472697669616c456e6372797074000000000000000000000000000000000000",
          "blockHash": "0x178ea3d706cddee978e044a10d79468e22208c1f68d310022ce9f2c6341fa790",
          "blockNumber": "0x8cc9bf",
          "blockTimestamp": "0x68cb98e4",
          "transactionHash": "0xa7ac99639a89af3c00a05d8dffed2d07db16e1c557998d50cbfdd3396f6a9914",
          "transactionIndex": "0xa3",
          "logIndex": "0x10e",
          "removed": false
        },
        {
          "address": "0xea30c4b8b44078bbf8a6ef5b9f1ec1626c7848d9",
          "topics": [
            "0xe9de54a3e7ddf0c48cc6e1134185300d5a71acbf2d8c21fcdefa9d9dd9e20ac1"
          ],
          "data": "0xbd85f53fc4f2243f9ffcb22983ba1d224d1e77fdca733b69f7215d316181840000000000000000000000000000000000000000000000000000000000000000a0000000000000000000000000000000000000000000000000000000000000009600000000000000000000000000000000000000000000000000000000000000040000000000000000000000000000000000000000000000000000000000000000000000000000000000000000000000000000000000000000000000000000000e7472697669616c456e6372797074000000000000000000000000000000000000",
          "blockHash": "0x178ea3d706cddee978e044a10d79468e22208c1f68d310022ce9f2c6341fa790",
          "blockNumber": "0x8cc9bf",
          "blockTimestamp": "0x68cb98e4",
          "transactionHash": "0xa7ac99639a89af3c00a05d8dffed2d07db16e1c557998d50cbfdd3396f6a9914",
          "transactionIndex": "0xa3",
          "logIndex": "0x10f",
          "removed": false
        },
        {
          "address": "0x54ce5e7351bf259604f3db6d79fc3653a15ef880",
          "topics": [
            "0x18ff1c138c5686b85dc8b4338640ccef29de32ff4fec45a3f6f220bee9783e45",
            "0x02d51bf75a51000646945e2e9c31b37ab8849b28b49aeb34aa83ba6c044f37a3"
          ],
          "data": "0x000000000000000000000000000000000000000000000000000000000000008000000000000000000000000000000000000000000000000000000000000000c0000000000000000000000000000000000000000000000000000000000000010000000000000000000000000000000000000000000000000000000000000001400000000000000000000000000000000000000000000000000000000000000020a086c907b116b1572126a2ccfaa5f6524f347f8a1d8378ce37b958e0cccc88000000000000000000000000000000000000000000000000000000000000000020cc63d19e9a0f97a43bc73dca1ee8b6f4b645d8919747695fa5d1d0da853a84000000000000000000000000000000000000000000000000000000000000000020cdef58c863398f789d9953afd1326207812f448c90165e6886555071b2f484000000000000000000000000000000000000000000000000000000000000000020b3e26d30bbd0fa3e41a1d86cb7844842fbb2638ed221cf36790bbd9c9f3e8000",
          "blockHash": "0x178ea3d706cddee978e044a10d79468e22208c1f68d310022ce9f2c6341fa790",
          "blockNumber": "0x8cc9bf",
          "blockTimestamp": "0x68cb98e4",
          "transactionHash": "0xa7ac99639a89af3c00a05d8dffed2d07db16e1c557998d50cbfdd3396f6a9914",
          "transactionIndex": "0xa3",
          "logIndex": "0x110",
          "removed": false
        }
      ],
      "logsBloom": "0x00000000000000000000000000000000080000000000000000000000000000000000000000000000000000000000000000400000008000000000000000000000000010000000000000000000000000000000000008000000000000000000000000000000000000000000000000000000000000000000000020000000000000000000000000000000000000000a20000001000000000000008000000000000000000000000000000000000000000000000000000000000000000000000000000000000000000000000000000000000000000000000000080000000000000000000000000000000000000200000000000000000000000000000000020200000000",
      "type": "0x2",
      "transactionHash": "0xa7ac99639a89af3c00a05d8dffed2d07db16e1c557998d50cbfdd3396f6a9914",
      "transactionIndex": "0xa3",
      "blockHash": "0x178ea3d706cddee978e044a10d79468e22208c1f68d310022ce9f2c6341fa790",
      "blockNumber": "0x8cc9bf",
      "gasUsed": "0x45c5c",
      "effectiveGasPrice": "0xf424f",
      "from": "0x3e723f6b81431f325e3f08e75544f254c182afe2",
      "to": "0x54ce5e7351bf259604f3db6d79fc3653a15ef880",
      "contractAddress": null
    },
    {
      "status": "0x1",
      "cumulativeGasUsed": "0x200b5f0",
      "logs": [
        {
          "address": "0xea30c4b8b44078bbf8a6ef5b9f1ec1626c7848d9",
          "topics": [
            "0xe9de54a3e7ddf0c48cc6e1134185300d5a71acbf2d8c21fcdefa9d9dd9e20ac1"
          ],
          "data": "0xc290f19dcf7bceb26e550f2bfc2767777b6b3a2e75644053281b2fc1dc88800000000000000000000000000000000000000000000000000000000000000000a0000000000000000000000000000000000000000000000000000000000000000000000000000000000000000000000000000000000000000000000000000000000000000000000000000000000000000000000000000000000000000000000000000000000000000000000000000000000000000000000000000000000000000e7472697669616c456e6372797074000000000000000000000000000000000000",
          "blockHash": "0x178ea3d706cddee978e044a10d79468e22208c1f68d310022ce9f2c6341fa790",
          "blockNumber": "0x8cc9bf",
          "transactionHash": "0x00aa75dd80c4c35c68060f47d49323d2b737a71789e802083b81a76b9e407b9e",
          "transactionIndex": "0xa4",
          "logIndex": "0x111",
          "removed": false
        },
        {
          "address": "0x54ce5e7351bf259604f3db6d79fc3653a15ef880",
          "topics": [
            "0x18ff1c138c5686b85dc8b4338640ccef29de32ff4fec45a3f6f220bee9783e45",
            "0x02d51bf75a51000646945e2e9c31b37ab8849b28b49aeb34aa83ba6c044f37a3"
          ],
          "data": "0x000000000000000000000000000000000000000000000000000000000000008000000000000000000000000000000000000000000000000000000000000000c0000000000000000000000000000000000000000000000000000000000000010000000000000000000000000000000000000000000000000000000000000001400000000000000000000000000000000000000000000000000000000000000020a086c907b116b1572126a2ccfaa5f6524f347f8a1d8378ce37b958e0cccc88000000000000000000000000000000000000000000000000000000000000000020cc63d19e9a0f97a43bc73dca1ee8b6f4b645d8919747695fa5d1d0da853a84000000000000000000000000000000000000000000000000000000000000000020cdef58c863398f789d9953afd1326207812f448c90165e6886555071b2f484000000000000000000000000000000000000000000000000000000000000000020c290f19dcf7bceb26e550f2bfc2767777b6b3a2e75644053281b2fc1dc888000",
          "blockHash": "0x178ea3d706cddee978e044a10d79468e22208c1f68d310022ce9f2c6341fa790",
          "blockNumber": "0x8cc9bf",
          "transactionHash": "0x00aa75dd80c4c35c68060f47d49323d2b737a71789e802083b81a76b9e407b9e",
          "transactionIndex": "0xa4",
          "logIndex": "0x112",
          "removed": false
        }
      ],
      "logsBloom": "0x00000000000000000000000000000000080000000000000000000000000000000000000000000000000000000000000000400000008000000000000000000000000010000000000000000000000000000000000008000000000000000000000000000000000000000000000000000000000000000000000020000000000000000000000000000000000000000a20000001000000000000008000000000000000000000000000000000000000000000000000000000000000000000000000000000000000000000000000000000000000000000000000080000000000000000000000000000000000000200000000000000000000000000000000020200000000",
      "type": "0x2",
      "transactionHash": "0x00aa75dd80c4c35c68060f47d49323d2b737a71789e802083b81a76b9e407b9e",
      "transactionIndex": "0xa4",
      "blockHash": "0x178ea3d706cddee978e044a10d79468e22208c1f68d310022ce9f2c6341fa790",
      "blockNumber": "0x8cc9bf",
      "gasUsed": "0x15608",
      "effectiveGasPrice": "0xf424f",
      "from": "0x3e723f6b81431f325e3f08e75544f254c182afe2",
      "to": "0x54ce5e7351bf259604f3db6d79fc3653a15ef880",
      "contractAddress": null
    },
    {
      "status": "0x1",
      "cumulativeGasUsed": "0x2020c09",
      "logs": [
        {
          "address": "0xea30c4b8b44078bbf8a6ef5b9f1ec1626c7848d9",
          "topics": [
            "0xe9de54a3e7ddf0c48cc6e1134185300d5a71acbf2d8c21fcdefa9d9dd9e20ac1"
          ],
          "data": "0xb3e26d30bbd0fa3e41a1d86cb7844842fbb2638ed221cf36790bbd9c9f3e800000000000000000000000000000000000000000000000000000000000000000a0000000000000000000000000000000000000000000000000000000000000000100000000000000000000000000000000000000000000000000000000000000000000000000000000000000000000000000000000000000000000000000000000000000000000000000000000000000000000000000000000000000000000000e7472697669616c456e6372797074000000000000000000000000000000000000",
          "blockHash": "0x178ea3d706cddee978e044a10d79468e22208c1f68d310022ce9f2c6341fa790",
          "blockNumber": "0x8cc9bf",
          "transactionHash": "0x1603907641a1f0dc454db634f6191f181872c560ca245220e793194ab2721a2e",
          "transactionIndex": "0xa5",
          "logIndex": "0x113",
          "removed": false
        },
        {
          "address": "0x54ce5e7351bf259604f3db6d79fc3653a15ef880",
          "topics": [
            "0x18ff1c138c5686b85dc8b4338640ccef29de32ff4fec45a3f6f220bee9783e45",
            "0x02d51bf75a51000646945e2e9c31b37ab8849b28b49aeb34aa83ba6c044f37a3"
          ],
          "data": "0x000000000000000000000000000000000000000000000000000000000000008000000000000000000000000000000000000000000000000000000000000000c0000000000000000000000000000000000000000000000000000000000000010000000000000000000000000000000000000000000000000000000000000001400000000000000000000000000000000000000000000000000000000000000020a086c907b116b1572126a2ccfaa5f6524f347f8a1d8378ce37b958e0cccc88000000000000000000000000000000000000000000000000000000000000000020cc63d19e9a0f97a43bc73dca1ee8b6f4b645d8919747695fa5d1d0da853a84000000000000000000000000000000000000000000000000000000000000000020cdef58c863398f789d9953afd1326207812f448c90165e6886555071b2f484000000000000000000000000000000000000000000000000000000000000000020b3e26d30bbd0fa3e41a1d86cb7844842fbb2638ed221cf36790bbd9c9f3e8000",
          "blockHash": "0x178ea3d706cddee978e044a10d79468e22208c1f68d310022ce9f2c6341fa790",
          "blockNumber": "0x8cc9bf",
          "transactionHash": "0x1603907641a1f0dc454db634f6191f181872c560ca245220e793194ab2721a2e",
          "transactionIndex": "0xa5",
          "logIndex": "0x114",
          "removed": false
        }
      ],
      "logsBloom": "0x00000000000000000000000000000000080000000000000000000000000000000000000000000000000000000000000000400000008000000000000000000000000010000000000000000000000000000000000008000000000000000000000000000000000000000000000000000000000000000000000020000000000000000000000000000000000000000a20000001000000000000008000000000000000000000000000000000000000000000000000000000000000000000000000000000000000000000000000000000000000000000000000080000000000000000000000000000000000000200000000000000000000000000000000020200000000",
      "type": "0x2",
      "transactionHash": "0x1603907641a1f0dc454db634f6191f181872c560ca245220e793194ab2721a2e",
      "transactionIndex": "0xa5",
      "blockHash": "0x178ea3d706cddee978e044a10d79468e22208c1f68d310022ce9f2c6341fa790",
      "blockNumber": "0x8cc9bf",
      "gasUsed": "0x15619",
      "effectiveGasPrice": "0xf424f",
      "from": "0x3e723f6b81431f325e3f08e75544f254c182afe2",
      "to": "0x54ce5e7351bf259604f3db6d79fc3653a15ef880",
      "contractAddress": null
    },
    {
      "status": "0x1",
      "cumulativeGasUsed": "0x2027d1a",
      "logs": [
        {
          "address": "0x54ce5e7351bf259604f3db6d79fc3653a15ef880",
          "topics": [
            "0xf354ce2d046227bb2a8db43674dab621b47724bc45cbc0b228a001245d53fd77",
            "0x02d51bf75a51000646945e2e9c31b37ab8849b28b49aeb34aa83ba6c044f37a3"
          ],
          "data": "0x",
          "blockHash": "0x178ea3d706cddee978e044a10d79468e22208c1f68d310022ce9f2c6341fa790",
          "blockNumber": "0x8cc9bf",
          "blockTimestamp": "0x68cb98e4",
          "transactionHash": "0xf03a3590b4dcbe594d4843677224a23a97bf9d100a1f14dff6802d70e6966501",
          "transactionIndex": "0xa6",
          "logIndex": "0x115",
          "removed": false
        }
      ],
      "logsBloom": "0x00000800000000000000000000000000000000000000000000000000000000000000000000000000000000000000000000400000000000000000000000000000000010000000000000000000000000000080000000000000000000000000000000000000000000000000000000000000000000000000000020000000000000000000000000000000000000000220000000000000000000008000000000000000000000000000000000000000000000000000000000000000000000000000000000000000000000000000000000000200000000000000000000000000000000000000000000000000000000000000000000000000000000000000000000000000",
      "type": "0x2",
      "transactionHash": "0xf03a3590b4dcbe594d4843677224a23a97bf9d100a1f14dff6802d70e6966501",
      "transactionIndex": "0xa6",
      "blockHash": "0x178ea3d706cddee978e044a10d79468e22208c1f68d310022ce9f2c6341fa790",
      "blockNumber": "0x8cc9bf",
      "gasUsed": "0x7111",
      "effectiveGasPrice": "0xf424f",
      "from": "0x3e723f6b81431f325e3f08e75544f254c182afe2",
      "to": "0x54ce5e7351bf259604f3db6d79fc3653a15ef880",
      "contractAddress": null
    },
    {
      "status": "0x1",
      "cumulativeGasUsed": "0x2033b69",
      "logs": [
        {
          "address": "0x54ce5e7351bf259604f3db6d79fc3653a15ef880",
          "topics": [
            "0xc4be386fe9fd651a56e42b3b831dd4bf6afaa363eb2d21181fe7e23a8ff50279",
            "0x02d51bf75a51000646945e2e9c31b37ab8849b28b49aeb34aa83ba6c044f37a3"
          ],
          "data": "0x",
          "blockHash": "0x178ea3d706cddee978e044a10d79468e22208c1f68d310022ce9f2c6341fa790",
          "blockNumber": "0x8cc9bf",
          "blockTimestamp": "0x68cb98e4",
          "transactionHash": "0xcd16f326feea6aa16a1d28fa6284592c2d1e8577c6f53712f856b9dae5fddb80",
          "transactionIndex": "0xa7",
          "logIndex": "0x116",
          "removed": false
        }
      ],
      "logsBloom": "0x00000000000000000000000000000000000000000000000000000000000000000000000000000000000000000000000000400000000000000000000000000000000010000000000000000000000000000000000000000000000000000000000000000000000000000000000000000000000000000000000020000000000000100000000000000000000000000220000004000000000000008000000000000000000000001000000000000000000000000000000000000000000000000000000000000000000000000000000000000000000000000000000000000000000000000000000000000000000000000000000000000000000000000000000000000000",
      "type": "0x2",
      "transactionHash": "0xcd16f326feea6aa16a1d28fa6284592c2d1e8577c6f53712f856b9dae5fddb80",
      "transactionIndex": "0xa7",
      "blockHash": "0x178ea3d706cddee978e044a10d79468e22208c1f68d310022ce9f2c6341fa790",
      "blockNumber": "0x8cc9bf",
      "gasUsed": "0xbe4f",
      "effectiveGasPrice": "0xf424f",
      "from": "0x3e723f6b81431f325e3f08e75544f254c182afe2",
      "to": "0x54ce5e7351bf259604f3db6d79fc3653a15ef880",
      "contractAddress": null
    },
    {
      "status": "0x1",
      "cumulativeGasUsed": "0x207c923",
      "logs": [
        {
          "address": "0xea30c4b8b44078bbf8a6ef5b9f1ec1626c7848d9",
          "topics": [
            "0xe9de54a3e7ddf0c48cc6e1134185300d5a71acbf2d8c21fcdefa9d9dd9e20ac1"
          ],
          "data": "0xbb39351b2bc70ad6be41519c393ba92b7146cf5c8fcae77c8a1f6982d55c880000000000000000000000000000000000000000000000000000000000000000a0000000000000000000000000000000000000000000000000000000000000012c00000000000000000000000000000000000000000000000000000000000000080000000000000000000000000000000000000000000000000000000000000000000000000000000000000000000000000000000000000000000000000000000e7472697669616c456e6372797074000000000000000000000000000000000000",
          "blockHash": "0x178ea3d706cddee978e044a10d79468e22208c1f68d310022ce9f2c6341fa790",
          "blockNumber": "0x8cc9bf",
          "blockTimestamp": "0x68cb98e4",
          "transactionHash": "0xf87c64f5731426c2228ef0f0362914ae0afc638ee9abd7ff3715001be6c0d660",
          "transactionIndex": "0xa8",
          "logIndex": "0x117",
          "removed": false
        },
        {
          "address": "0xea30c4b8b44078bbf8a6ef5b9f1ec1626c7848d9",
          "topics": [
            "0xe9de54a3e7ddf0c48cc6e1134185300d5a71acbf2d8c21fcdefa9d9dd9e20ac1"
          ],
          "data": "0x1253f33bcc7d14ead4330255d5baaf2209a953415c511c19411382f6423f840000000000000000000000000000000000000000000000000000000000000000a000000000000000000000000000000000000000000000000000000000000000b400000000000000000000000000000000000000000000000000000000000000040000000000000000000000000000000000000000000000000000000000000000000000000000000000000000000000000000000000000000000000000000000e7472697669616c456e6372797074000000000000000000000000000000000000",
          "blockHash": "0x178ea3d706cddee978e044a10d79468e22208c1f68d310022ce9f2c6341fa790",
          "blockNumber": "0x8cc9bf",
          "blockTimestamp": "0x68cb98e4",
          "transactionHash": "0xf87c64f5731426c2228ef0f0362914ae0afc638ee9abd7ff3715001be6c0d660",
          "transactionIndex": "0xa8",
          "logIndex": "0x118",
          "removed": false
        },
        {
          "address": "0xea30c4b8b44078bbf8a6ef5b9f1ec1626c7848d9",
          "topics": [
            "0xe9de54a3e7ddf0c48cc6e1134185300d5a71acbf2d8c21fcdefa9d9dd9e20ac1"
          ],
          "data": "0xe8c638c5370ad54fb6bc7fb3c67f13705c787cf30645cd1b92d5f61704b5840000000000000000000000000000000000000000000000000000000000000000a0000000000000000000000000000000000000000000000000000000000000006400000000000000000000000000000000000000000000000000000000000000040000000000000000000000000000000000000000000000000000000000000000000000000000000000000000000000000000000000000000000000000000000e7472697669616c456e6372797074000000000000000000000000000000000000",
          "blockHash": "0x178ea3d706cddee978e044a10d79468e22208c1f68d310022ce9f2c6341fa790",
          "blockNumber": "0x8cc9bf",
          "blockTimestamp": "0x68cb98e4",
          "transactionHash": "0xf87c64f5731426c2228ef0f0362914ae0afc638ee9abd7ff3715001be6c0d660",
          "transactionIndex": "0xa8",
          "logIndex": "0x119",
          "removed": false
        },
        {
          "address": "0xea30c4b8b44078bbf8a6ef5b9f1ec1626c7848d9",
          "topics": [
            "0xe9de54a3e7ddf0c48cc6e1134185300d5a71acbf2d8c21fcdefa9d9dd9e20ac1"
          ],
          "data": "0xb3e26d30bbd0fa3e41a1d86cb7844842fbb2638ed221cf36790bbd9c9f3e800000000000000000000000000000000000000000000000000000000000000000a0000000000000000000000000000000000000000000000000000000000000000100000000000000000000000000000000000000000000000000000000000000000000000000000000000000000000000000000000000000000000000000000000000000000000000000000000000000000000000000000000000000000000000e7472697669616c456e6372797074000000000000000000000000000000000000",
          "blockHash": "0x178ea3d706cddee978e044a10d79468e22208c1f68d310022ce9f2c6341fa790",
          "blockNumber": "0x8cc9bf",
          "blockTimestamp": "0x68cb98e4",
          "transactionHash": "0xf87c64f5731426c2228ef0f0362914ae0afc638ee9abd7ff3715001be6c0d660",
          "transactionIndex": "0xa8",
          "logIndex": "0x11a",
          "removed": false
        },
        {
          "address": "0xea30c4b8b44078bbf8a6ef5b9f1ec1626c7848d9",
          "topics": [
            "0xe9de54a3e7ddf0c48cc6e1134185300d5a71acbf2d8c21fcdefa9d9dd9e20ac1"
          ],
          "data": "0xe8c638c5370ad54fb6bc7fb3c67f13705c787cf30645cd1b92d5f61704b5840000000000000000000000000000000000000000000000000000000000000000a0000000000000000000000000000000000000000000000000000000000000006400000000000000000000000000000000000000000000000000000000000000040000000000000000000000000000000000000000000000000000000000000000000000000000000000000000000000000000000000000000000000000000000e7472697669616c456e6372797074000000000000000000000000000000000000",
          "blockHash": "0x178ea3d706cddee978e044a10d79468e22208c1f68d310022ce9f2c6341fa790",
          "blockNumber": "0x8cc9bf",
          "blockTimestamp": "0x68cb98e4",
          "transactionHash": "0xf87c64f5731426c2228ef0f0362914ae0afc638ee9abd7ff3715001be6c0d660",
          "transactionIndex": "0xa8",
          "logIndex": "0x11b",
          "removed": false
        },
        {
          "address": "0xea30c4b8b44078bbf8a6ef5b9f1ec1626c7848d9",
          "topics": [
            "0xe9de54a3e7ddf0c48cc6e1134185300d5a71acbf2d8c21fcdefa9d9dd9e20ac1"
          ],
          "data": "0xd8d542465d641073d3a041fe1808c3ef4b840d59b78f9a8d96485189b1f2880000000000000000000000000000000000000000000000000000000000000000a0000000000000000000000000000000000000000000000000000000000000000000000000000000000000000000000000000000000000000000000000000000080000000000000000000000000000000000000000000000000000000000000000000000000000000000000000000000000000000000000000000000000000000e7472697669616c456e6372797074000000000000000000000000000000000000",
          "blockHash": "0x178ea3d706cddee978e044a10d79468e22208c1f68d310022ce9f2c6341fa790",
          "blockNumber": "0x8cc9bf",
          "blockTimestamp": "0x68cb98e4",
          "transactionHash": "0xf87c64f5731426c2228ef0f0362914ae0afc638ee9abd7ff3715001be6c0d660",
          "transactionIndex": "0xa8",
          "logIndex": "0x11c",
          "removed": false
        },
        {
          "address": "0xe03a1074c86cfedd5c142c4f04f1a1536e203543",
          "topics": [
            "0xdd466e674ea557f56295e2d0218a125ea4b4f0f6f3307b95f85e6110838d6438",
            "0x02d51bf75a51000646945e2e9c31b37ab8849b28b49aeb34aa83ba6c044f37a3",
            "0x0000000000000000000000003e68f0f304314495fa45907170a59d0ba5218bcc",
            "0x000000000000000000000000abc0afb70f325f4119cfca4083ea2a580ec40d3f"
          ],
          "data": "0x0000000000000000000000000000000000000000000000000000000000000bb8000000000000000000000000000000000000000000000000000000000000003c00000000000000000000000054ce5e7351bf259604f3db6d79fc3653a15ef88000000000000000000000000000000000000000010000000000000000000000000000000000000000000000000000000000000000000000000000000000000000",
          "blockHash": "0x178ea3d706cddee978e044a10d79468e22208c1f68d310022ce9f2c6341fa790",
          "blockNumber": "0x8cc9bf",
          "blockTimestamp": "0x68cb98e4",
          "transactionHash": "0xf87c64f5731426c2228ef0f0362914ae0afc638ee9abd7ff3715001be6c0d660",
          "transactionIndex": "0xa8",
          "logIndex": "0x11d",
          "removed": false
        }
      ],
      "logsBloom": "0x00000000000000000000000000000000080000000000000000000000000000000000000000000000000040000000000000400100008000000000000000000000000000000000000000000000000000000000000000000000000000000000000000000000000000000000000000000010000000000000100000000000000000000000000000000008000002000200000001000001000000008000000000210000000000000000000000000000000000000000000000000000000000000000000000000000000000000000000000000000000000000000000000000000000000001000000000000000000200000000000000000000000000400000020200000400",
      "type": "0x2",
      "transactionHash": "0xf87c64f5731426c2228ef0f0362914ae0afc638ee9abd7ff3715001be6c0d660",
      "transactionIndex": "0xa8",
      "blockHash": "0x178ea3d706cddee978e044a10d79468e22208c1f68d310022ce9f2c6341fa790",
      "blockNumber": "0x8cc9bf",
      "gasUsed": "0x48dba",
      "effectiveGasPrice": "0xf424f",
      "from": "0x3e723f6b81431f325e3f08e75544f254c182afe2",
      "to": "0xe03a1074c86cfedd5c142c4f04f1a1536e203543",
      "contractAddress": null
    },
    {
      "status": "0x1",
      "cumulativeGasUsed": "0x2083024",
      "logs": [
        {
          "address": "0xabc0afb70f325f4119cfca4083ea2a580ec40d3f",
          "topics": [
            "0x8c5be1e5ebec7d5bd14f71427d1e84f3dd0314c0f7b2291e5b200ac8c7c3b925",
            "0x0000000000000000000000003e723f6b81431f325e3f08e75544f254c182afe2",
            "0x000000000000000000000000429ba70129df741b2ca2a85bc3a2a3328e5c09b4"
          ],
          "data": "0xffffffffffffffffffffffffffffffffffffffffffffffffffffffffffffffff",
          "blockHash": "0x178ea3d706cddee978e044a10d79468e22208c1f68d310022ce9f2c6341fa790",
          "blockNumber": "0x8cc9bf",
          "blockTimestamp": "0x68cb98e4",
          "transactionHash": "0x9bdd89e6f5e2a7cc4bf9e60cdbfb459ce9d49971f2814a03a71e2eef5f4b3c90",
          "transactionIndex": "0xa9",
          "logIndex": "0x11e",
          "removed": false
        }
      ],
      "logsBloom": "0x00000000000000000000000000000000000000000000000000000000000000000000000000000040080000000080000000000000080000000000000000200000000000000000000000000000000000100000000000000000000000000000000000000000000000000000000000000000000000000000000000000800000000000000000000000000000000000000000000000000000000000000000000000000020000000000004080000000000000000000000000000000000010000000000000000000000000000000000000000000000000000000000000000000000000000010000000000000000000000000000000000000000000000000000000000000",
      "type": "0x2",
      "transactionHash": "0x9bdd89e6f5e2a7cc4bf9e60cdbfb459ce9d49971f2814a03a71e2eef5f4b3c90",
      "transactionIndex": "0xa9",
      "blockHash": "0x178ea3d706cddee978e044a10d79468e22208c1f68d310022ce9f2c6341fa790",
      "blockNumber": "0x8cc9bf",
      "gasUsed": "0x6701",
      "effectiveGasPrice": "0xf424f",
      "from": "0x3e723f6b81431f325e3f08e75544f254c182afe2",
      "to": "0xabc0afb70f325f4119cfca4083ea2a580ec40d3f",
      "contractAddress": null
    },
    {
      "status": "0x1",
      "cumulativeGasUsed": "0x2089725",
      "logs": [
        {
          "address": "0x3e68f0f304314495fa45907170a59d0ba5218bcc",
          "topics": [
            "0x8c5be1e5ebec7d5bd14f71427d1e84f3dd0314c0f7b2291e5b200ac8c7c3b925",
            "0x0000000000000000000000003e723f6b81431f325e3f08e75544f254c182afe2",
            "0x000000000000000000000000429ba70129df741b2ca2a85bc3a2a3328e5c09b4"
          ],
          "data": "0xffffffffffffffffffffffffffffffffffffffffffffffffffffffffffffffff",
          "blockHash": "0x178ea3d706cddee978e044a10d79468e22208c1f68d310022ce9f2c6341fa790",
          "blockNumber": "0x8cc9bf",
          "transactionHash": "0x1c611779be2d1d307be94632c65e411d1e181c6f0ca665f6f090bc7d2937ae6f",
          "transactionIndex": "0xaa",
          "logIndex": "0x11f",
          "removed": false
        }
      ],
      "logsBloom": "0x00000000000000000000000000000000000000000000000000000000000000000000000000000040080000000000000000000000080000800000000000200000000000000000000000000000000000000000000000000000000000000000000000000000000000000000000000000000000000000000000000000800000000000000000000000000000000000000000000000000000000000000000000000000020000000000000080000000000000000000000000002000000010000000000000000000000000000000000000000000000000000000000000000000000000400010000000000000000000000000000000000000000000000000000000000000",
      "type": "0x2",
      "transactionHash": "0x1c611779be2d1d307be94632c65e411d1e181c6f0ca665f6f090bc7d2937ae6f",
      "transactionIndex": "0xaa",
      "blockHash": "0x178ea3d706cddee978e044a10d79468e22208c1f68d310022ce9f2c6341fa790",
      "blockNumber": "0x8cc9bf",
      "gasUsed": "0x6701",
      "effectiveGasPrice": "0xf424f",
      "from": "0x3e723f6b81431f325e3f08e75544f254c182afe2",
      "to": "0x3e68f0f304314495fa45907170a59d0ba5218bcc",
      "contractAddress": null
    },
    {
      "status": "0x1",
      "cumulativeGasUsed": "0x208fdea",
      "logs": [
        {
          "address": "0xabc0afb70f325f4119cfca4083ea2a580ec40d3f",
          "topics": [
            "0x8c5be1e5ebec7d5bd14f71427d1e84f3dd0314c0f7b2291e5b200ac8c7c3b925",
            "0x0000000000000000000000003e723f6b81431f325e3f08e75544f254c182afe2",
            "0x000000000000000000000000000000000022d473030f116ddee9f6b43ac78ba3"
          ],
          "data": "0xffffffffffffffffffffffffffffffffffffffffffffffffffffffffffffffff",
          "blockHash": "0x178ea3d706cddee978e044a10d79468e22208c1f68d310022ce9f2c6341fa790",
          "blockNumber": "0x8cc9bf",
          "blockTimestamp": "0x68cb98e4",
          "transactionHash": "0x926313e21f4ff9ef82f0d17cbaa366a03303572260a0e3145359603851e9dc66",
          "transactionIndex": "0xab",
          "logIndex": "0x120",
          "removed": false
        }
      ],
      "logsBloom": "0x00000000000000000000000000000000000000000000000000000000000000000000000000000000000000000080000000000000880000000000000000200000000000000000000000004000000000100000000000000800000000000000000000000000000000000000000000000000000000000000000000000000000000000000000000000000000000000000000000000000000000000000000000000000020000000000004080000000000000000000000000000000000010000000000000000000000000000000000000000000000000000000000000000000000000000010000000000000000000000000000000000000000000000000000000000000",
      "type": "0x2",
      "transactionHash": "0x926313e21f4ff9ef82f0d17cbaa366a03303572260a0e3145359603851e9dc66",
      "transactionIndex": "0xab",
      "blockHash": "0x178ea3d706cddee978e044a10d79468e22208c1f68d310022ce9f2c6341fa790",
      "blockNumber": "0x8cc9bf",
      "gasUsed": "0x66c5",
      "effectiveGasPrice": "0xf424f",
      "from": "0x3e723f6b81431f325e3f08e75544f254c182afe2",
      "to": "0xabc0afb70f325f4119cfca4083ea2a580ec40d3f",
      "contractAddress": null
    },
    {
      "status": "0x1",
      "cumulativeGasUsed": "0x2096af8",
      "logs": [
        {
          "address": "0x000000000022d473030f116ddee9f6b43ac78ba3",
          "topics": [
            "0xda9fa7c1b00402c17d0161b249b1ab8bbec047c5a52207b9c112deffd817036b",
            "0x0000000000000000000000003e723f6b81431f325e3f08e75544f254c182afe2",
            "0x000000000000000000000000abc0afb70f325f4119cfca4083ea2a580ec40d3f",
            "0x000000000000000000000000429ba70129df741b2ca2a85bc3a2a3328e5c09b4"
          ],
          "data": "0x000000000000000000000000ffffffffffffffffffffffffffffffffffffffff0000000000000000000000000000000000000000000000000000ffffffffffff",
          "blockHash": "0x178ea3d706cddee978e044a10d79468e22208c1f68d310022ce9f2c6341fa790",
          "blockNumber": "0x8cc9bf",
          "blockTimestamp": "0x68cb98e4",
          "transactionHash": "0x60c7abb12d96db2cc5be2884b852bdbc10170655bf55503e27a5e88c57d5a919",
          "transactionIndex": "0xac",
          "logIndex": "0x121",
          "removed": false
        }
      ],
      "logsBloom": "0x00010000000000000000000000000000000000000000000000000000000000000000000000000040080000000000000000000000080000000000000000080000000000000000000000000000000000000000000000000000000000000000000000000000000000000000000000000010000000000000000000000800000000000020000000000000000002000000000000000000000000000000000000000000000000000000000080000000000000000000000000000000000010080000000000000000000000000000000000000000000000000000000040000000000000000000000000000000000000000000000000000000000000400000000000000400",
      "type": "0x2",
      "transactionHash": "0x60c7abb12d96db2cc5be2884b852bdbc10170655bf55503e27a5e88c57d5a919",
      "transactionIndex": "0xac",
      "blockHash": "0x178ea3d706cddee978e044a10d79468e22208c1f68d310022ce9f2c6341fa790",
      "blockNumber": "0x8cc9bf",
      "gasUsed": "0x6d0e",
      "effectiveGasPrice": "0xf424f",
      "from": "0x3e723f6b81431f325e3f08e75544f254c182afe2",
      "to": "0x000000000022d473030f116ddee9f6b43ac78ba3",
      "contractAddress": null
    },
    {
      "status": "0x1",
      "cumulativeGasUsed": "0x209d1bd",
      "logs": [
        {
          "address": "0x3e68f0f304314495fa45907170a59d0ba5218bcc",
          "topics": [
            "0x8c5be1e5ebec7d5bd14f71427d1e84f3dd0314c0f7b2291e5b200ac8c7c3b925",
            "0x0000000000000000000000003e723f6b81431f325e3f08e75544f254c182afe2",
            "0x000000000000000000000000000000000022d473030f116ddee9f6b43ac78ba3"
          ],
          "data": "0xffffffffffffffffffffffffffffffffffffffffffffffffffffffffffffffff",
          "blockHash": "0x178ea3d706cddee978e044a10d79468e22208c1f68d310022ce9f2c6341fa790",
          "blockNumber": "0x8cc9bf",
          "blockTimestamp": "0x68cb98e4",
          "transactionHash": "0x67ca86c498e2eb4e5e9f010abbe73388213ac436fcc48fbaf9f0586d21ff5da6",
          "transactionIndex": "0xad",
          "logIndex": "0x122",
          "removed": false
        }
      ],
      "logsBloom": "0x00000000000000000000000000000000000000000000000000000000000000000000000000000000000000000000000000000000880000800000000000200000000000000000000000004000000000000000000000000800000000000000000000000000000000000000000000000000000000000000000000000000000000000000000000000000000000000000000000000000000000000000000000000000020000000000000080000000000000000000000000002000000010000000000000000000000000000000000000000000000000000000000000000000000000400010000000000000000000000000000000000000000000000000000000000000",
      "type": "0x2",
      "transactionHash": "0x67ca86c498e2eb4e5e9f010abbe73388213ac436fcc48fbaf9f0586d21ff5da6",
      "transactionIndex": "0xad",
      "blockHash": "0x178ea3d706cddee978e044a10d79468e22208c1f68d310022ce9f2c6341fa790",
      "blockNumber": "0x8cc9bf",
      "gasUsed": "0x66c5",
      "effectiveGasPrice": "0xf424f",
      "from": "0x3e723f6b81431f325e3f08e75544f254c182afe2",
      "to": "0x3e68f0f304314495fa45907170a59d0ba5218bcc",
      "contractAddress": null
    },
    {
      "status": "0x1",
      "cumulativeGasUsed": "0x20a3ecb",
      "logs": [
        {
          "address": "0x000000000022d473030f116ddee9f6b43ac78ba3",
          "topics": [
            "0xda9fa7c1b00402c17d0161b249b1ab8bbec047c5a52207b9c112deffd817036b",
            "0x0000000000000000000000003e723f6b81431f325e3f08e75544f254c182afe2",
            "0x0000000000000000000000003e68f0f304314495fa45907170a59d0ba5218bcc",
            "0x000000000000000000000000429ba70129df741b2ca2a85bc3a2a3328e5c09b4"
          ],
          "data": "0x000000000000000000000000ffffffffffffffffffffffffffffffffffffffff0000000000000000000000000000000000000000000000000000ffffffffffff",
          "blockHash": "0x178ea3d706cddee978e044a10d79468e22208c1f68d310022ce9f2c6341fa790",
          "blockNumber": "0x8cc9bf",
          "transactionHash": "0xa1c70e9e08541f10bdd38e50d9113f16f8619f416dabf4f397671a072beff48b",
          "transactionIndex": "0xae",
          "logIndex": "0x123",
          "removed": false
        }
      ],
      "logsBloom": "0x00010000000000000000000000000000000000000000000000000000000000000000000000000040080040000000000000000000080000000000000000080000000000000000000000000000000000000000000000000000000000000000000000000000000000000000000000000000000000000000000000000800000000000020000000000000000000000000000000000000000000000000000000010000000000000000000080000000000000000000000000000000000010080000000000000000000000000000000000000000000000000000000040000000000000000000000000000000000000000000000000000000000000000000000000000400",
      "type": "0x2",
      "transactionHash": "0xa1c70e9e08541f10bdd38e50d9113f16f8619f416dabf4f397671a072beff48b",
      "transactionIndex": "0xae",
      "blockHash": "0x178ea3d706cddee978e044a10d79468e22208c1f68d310022ce9f2c6341fa790",
      "blockNumber": "0x8cc9bf",
      "gasUsed": "0x6d0e",
      "effectiveGasPrice": "0xf424f",
      "from": "0x3e723f6b81431f325e3f08e75544f254c182afe2",
      "to": "0x000000000022d473030f116ddee9f6b43ac78ba3",
      "contractAddress": null
    },
    {
      "status": "0x1",
      "cumulativeGasUsed": "0x20de524",
      "logs": [
        {
          "address": "0x429ba70129df741b2ca2a85bc3a2a3328e5c09b4",
          "topics": [
            "0xddf252ad1be2c89b69c2b068fc378daa952ba7f163c4a11628f55a4df523b3ef",
            "0x0000000000000000000000000000000000000000000000000000000000000000",
            "0x0000000000000000000000003e723f6b81431f325e3f08e75544f254c182afe2",
            "0x0000000000000000000000000000000000000000000000000000000000004332"
          ],
          "data": "0x",
          "blockHash": "0x178ea3d706cddee978e044a10d79468e22208c1f68d310022ce9f2c6341fa790",
          "blockNumber": "0x8cc9bf",
          "blockTimestamp": "0x68cb98e4",
          "transactionHash": "0x59d9add04bfeeb2d4b213a3fd501159bd8098d4ddac4e8e399f3108f99838f34",
          "transactionIndex": "0xaf",
          "logIndex": "0x124",
          "removed": false
        },
        {
          "address": "0xe03a1074c86cfedd5c142c4f04f1a1536e203543",
          "topics": [
            "0xf208f4912782fd25c7f114ca3723a2d5dd6f3bcc3ac8db5af63baa85f711d5ec",
            "0x6c28d2b60906a79ceadbbc225031033505ffc8027aa0d19cfea7a21574375983",
            "0x000000000000000000000000429ba70129df741b2ca2a85bc3a2a3328e5c09b4"
          ],
          "data": "0xfffffffffffffffffffffffffffffffffffffffffffffffffffffffffffffed4000000000000000000000000000000000000000000000000000000000000012c0000000000000000000000000000000000000000000000000000000000001a800000000000000000000000000000000000000000000000000000000000004332",
          "blockHash": "0x178ea3d706cddee978e044a10d79468e22208c1f68d310022ce9f2c6341fa790",
          "blockNumber": "0x8cc9bf",
          "blockTimestamp": "0x68cb98e4",
          "transactionHash": "0x59d9add04bfeeb2d4b213a3fd501159bd8098d4ddac4e8e399f3108f99838f34",
          "transactionIndex": "0xaf",
          "logIndex": "0x125",
          "removed": false
        },
        {
          "address": "0x3e68f0f304314495fa45907170a59d0ba5218bcc",
          "topics": [
            "0xddf252ad1be2c89b69c2b068fc378daa952ba7f163c4a11628f55a4df523b3ef",
            "0x0000000000000000000000003e723f6b81431f325e3f08e75544f254c182afe2",
            "0x000000000000000000000000e03a1074c86cfedd5c142c4f04f1a1536e203543"
          ],
          "data": "0x0000000000000000000000000000000000000000000000000000000000000065",
          "blockHash": "0x178ea3d706cddee978e044a10d79468e22208c1f68d310022ce9f2c6341fa790",
          "blockNumber": "0x8cc9bf",
          "blockTimestamp": "0x68cb98e4",
          "transactionHash": "0x59d9add04bfeeb2d4b213a3fd501159bd8098d4ddac4e8e399f3108f99838f34",
          "transactionIndex": "0xaf",
          "logIndex": "0x126",
          "removed": false
        },
        {
          "address": "0xabc0afb70f325f4119cfca4083ea2a580ec40d3f",
          "topics": [
            "0xddf252ad1be2c89b69c2b068fc378daa952ba7f163c4a11628f55a4df523b3ef",
            "0x0000000000000000000000003e723f6b81431f325e3f08e75544f254c182afe2",
            "0x000000000000000000000000e03a1074c86cfedd5c142c4f04f1a1536e203543"
          ],
          "data": "0x0000000000000000000000000000000000000000000000000000000000000065",
          "blockHash": "0x178ea3d706cddee978e044a10d79468e22208c1f68d310022ce9f2c6341fa790",
          "blockNumber": "0x8cc9bf",
          "blockTimestamp": "0x68cb98e4",
          "transactionHash": "0x59d9add04bfeeb2d4b213a3fd501159bd8098d4ddac4e8e399f3108f99838f34",
          "transactionIndex": "0xaf",
          "logIndex": "0x127",
          "removed": false
        }
      ],
      "logsBloom": "0x00000000000000800000001000000000000000000000000000080000080000000000000000000040080000000080000000000100080000800000000000000000000000000000000000000008000000100000000000000000000000000000000000000000020000000000000080000840010000000000100000000810000000000000000001000000000010000000000000000000000000000000000000000000000004000000004080400000000000000000000000402000000010000000000000000002000001000000000000000000000000000000000000001000000020401000000000000000000000000000000004000000000000000000000000000000",
      "type": "0x2",
      "transactionHash": "0x59d9add04bfeeb2d4b213a3fd501159bd8098d4ddac4e8e399f3108f99838f34",
      "transactionIndex": "0xaf",
      "blockHash": "0x178ea3d706cddee978e044a10d79468e22208c1f68d310022ce9f2c6341fa790",
      "blockNumber": "0x8cc9bf",
      "gasUsed": "0x3a659",
      "effectiveGasPrice": "0xf424f",
      "from": "0x3e723f6b81431f325e3f08e75544f254c182afe2",
      "to": "0x429ba70129df741b2ca2a85bc3a2a3328e5c09b4",
      "contractAddress": null
    },
    {
      "status": "0x1",
      "cumulativeGasUsed": "0x20e4c19",
      "logs": [
        {
          "address": "0xabc0afb70f325f4119cfca4083ea2a580ec40d3f",
          "topics": [
            "0x8c5be1e5ebec7d5bd14f71427d1e84f3dd0314c0f7b2291e5b200ac8c7c3b925",
            "0x0000000000000000000000003e723f6b81431f325e3f08e75544f254c182afe2",
            "0x000000000000000000000000f13d190e9117920c703d79b5f33732e10049b115"
          ],
          "data": "0xffffffffffffffffffffffffffffffffffffffffffffffffffffffffffffffff",
          "blockHash": "0x178ea3d706cddee978e044a10d79468e22208c1f68d310022ce9f2c6341fa790",
          "blockNumber": "0x8cc9bf",
          "transactionHash": "0xd1cb9065472a0cb1dacedbd57fdbbe4f490fdf055cb84206c1bb9c7dd537ca31",
          "transactionIndex": "0xb0",
          "logIndex": "0x128",
          "removed": false
        }
      ],
      "logsBloom": "0x00000000000000000000000000000000000000000000000000800000000000000000000000000000000000000080000000000000080000000000000000200000000000000000000000000000000000100000000000000000000000000000000000000000000000000000000000000000000000000000000000000000000000000000000000080000000000000000000000000000000000000000000000000000020000000000004080000000000000000000000000000000000010000000000000000000000000000000000000000000000000000000000000000000000080000010000000000000000000000000000000000000000000000000000000000000",
      "type": "0x2",
      "transactionHash": "0xd1cb9065472a0cb1dacedbd57fdbbe4f490fdf055cb84206c1bb9c7dd537ca31",
      "transactionIndex": "0xb0",
      "blockHash": "0x178ea3d706cddee978e044a10d79468e22208c1f68d310022ce9f2c6341fa790",
      "blockNumber": "0x8cc9bf",
      "gasUsed": "0x66f5",
      "effectiveGasPrice": "0xf424f",
      "from": "0x3e723f6b81431f325e3f08e75544f254c182afe2",
      "to": "0xabc0afb70f325f4119cfca4083ea2a580ec40d3f",
      "contractAddress": null
    },
    {
      "status": "0x1",
      "cumulativeGasUsed": "0x20f340c",
      "logs": [
        {
          "address": "0x3e68f0f304314495fa45907170a59d0ba5218bcc",
          "topics": [
            "0x8c5be1e5ebec7d5bd14f71427d1e84f3dd0314c0f7b2291e5b200ac8c7c3b925",
            "0x0000000000000000000000003e723f6b81431f325e3f08e75544f254c182afe2",
            "0x000000000000000000000000f13d190e9117920c703d79b5f33732e10049b115"
          ],
          "data": "0xffffffffffffffffffffffffffffffffffffffffffffffffffffffffffffffff",
          "blockHash": "0x178ea3d706cddee978e044a10d79468e22208c1f68d310022ce9f2c6341fa790",
          "blockNumber": "0x8cc9bf",
          "blockTimestamp": "0x68cb98e4",
          "transactionHash": "0xb6f469c3bcf8e5cf06fa376788cf0227a40a2d7dbeeb483cb5d18d9ebc69279e",
          "transactionIndex": "0xb2",
          "logIndex": "0x12a",
          "removed": false
        }
      ],
      "logsBloom": "0x00000000000000000000000000000000000000000000000000800000000000000000000000000000000000000000000000000000080000800000000000200000000000000000000000000000000000000000000000000000000000000000000000000000000000000000000000000000000000000000000000000000000000000000000000080000000000000000000000000000000000000000000000000000020000000000000080000000000000000000000000002000000010000000000000000000000000000000000000000000000000000000000000000000000080400010000000000000000000000000000000000000000000000000000000000000",
      "type": "0x2",
      "transactionHash": "0xb6f469c3bcf8e5cf06fa376788cf0227a40a2d7dbeeb483cb5d18d9ebc69279e",
      "transactionIndex": "0xb2",
      "blockHash": "0x178ea3d706cddee978e044a10d79468e22208c1f68d310022ce9f2c6341fa790",
      "blockNumber": "0x8cc9bf",
      "gasUsed": "0x66f5",
      "effectiveGasPrice": "0xf424f",
      "from": "0x3e723f6b81431f325e3f08e75544f254c182afe2",
      "to": "0x3e68f0f304314495fa45907170a59d0ba5218bcc",
      "contractAddress": null
    }
  ],
  "libraries": [],
  "pending": [],
  "returns": {},
  "timestamp": 1758173414193,
  "chain": 11155111,
  "commit": "7b9c819"
}