{
  "transactions": [
    {
      "hash": "0x52371a07d32690760d4ed5ba6e7f4c3c7207adb81de46ce22ea9d40719a0c610",
      "transactionType": "CALL",
      "contractName": null,
      "contractAddress": "0x54ce5e7351bf259604f3db6d79fc3653a15ef880",
      "function": "configureEncryptedRebalancingStrategy((address,address,uint24,int24,address),uint24,uint32,int24,bool,uint24)",
      "arguments": [
        "(0x3e68f0F304314495fa45907170a59D0BA5218bCc, 0xabc0Afb70F325F4119cFCA4083EA2A580Ec40D3F, 3000, 60, 0x54Ce5e7351BF259604F3DB6D79fC3653A15EF880)",
        "500",
        "3600",
        "200",
        "true",
        "150"
      ],
      "transaction": {
        "from": "0x3e723f6b81431f325e3f08e75544f254c182afe2",
        "to": "0x54ce5e7351bf259604f3db6d79fc3653a15ef880",
        "gas": "0x4298c",
        "value": "0x0",
        "input": "0xa9eb74780000000000000000000000003e68f0f304314495fa45907170a59d0ba5218bcc000000000000000000000000abc0afb70f325f4119cfca4083ea2a580ec40d3f0000000000000000000000000000000000000000000000000000000000000bb8000000000000000000000000000000000000000000000000000000000000003c00000000000000000000000054ce5e7351bf259604f3db6d79fc3653a15ef88000000000000000000000000000000000000000000000000000000000000001f40000000000000000000000000000000000000000000000000000000000000e1000000000000000000000000000000000000000000000000000000000000000c800000000000000000000000000000000000000000000000000000000000000010000000000000000000000000000000000000000000000000000000000000096",
        "nonce": "0x661",
        "chainId": "0xaa36a7"
      },
      "additionalContracts": [],
      "isFixedGasLimit": false
    },
    {
      "hash": "0x44739a57f464f09d8b30328bfce774c77762d9abfa608777e820d6c643ccf59f",
      "transactionType": "CALL",
      "contractName": null,
      "contractAddress": "0x54ce5e7351bf259604f3db6d79fc3653a15ef880",
      "function": "pausePoolRebalancing((address,address,uint24,int24,address))",
      "arguments": [
        "(0x3e68f0F304314495fa45907170a59D0BA5218bCc, 0xabc0Afb70F325F4119cFCA4083EA2A580Ec40D3F, 3000, 60, 0x54Ce5e7351BF259604F3DB6D79fC3653A15EF880)"
      ],
      "transaction": {
        "from": "0x3e723f6b81431f325e3f08e75544f254c182afe2",
        "to": "0x54ce5e7351bf259604f3db6d79fc3653a15ef880",
        "gas": "0x1d86d",
        "value": "0x0",
        "input": "0xfbdd948f0000000000000000000000003e68f0f304314495fa45907170a59d0ba5218bcc000000000000000000000000abc0afb70f325f4119cfca4083ea2a580ec40d3f0000000000000000000000000000000000000000000000000000000000000bb8000000000000000000000000000000000000000000000000000000000000003c00000000000000000000000054ce5e7351bf259604f3db6d79fc3653a15ef880",
        "nonce": "0x662",
        "chainId": "0xaa36a7"
      },
      "additionalContracts": [],
      "isFixedGasLimit": false
    },
    {
      "hash": "0xa4c727da641aeb79d6f4d8c9bc28ba269c1d7b09b7a128a6453fc3ab1d70e34c",
      "transactionType": "CALL",
      "contractName": null,
      "contractAddress": "0x54ce5e7351bf259604f3db6d79fc3653a15ef880",
      "function": "resumePoolRebalancing((address,address,uint24,int24,address))",
      "arguments": [
        "(0x3e68f0F304314495fa45907170a59D0BA5218bCc, 0xabc0Afb70F325F4119cFCA4083EA2A580Ec40D3F, 3000, 60, 0x54Ce5e7351BF259604F3DB6D79fC3653A15EF880)"
      ],
      "transaction": {
        "from": "0x3e723f6b81431f325e3f08e75544f254c182afe2",
        "to": "0x54ce5e7351bf259604f3db6d79fc3653a15ef880",
        "gas": "0x1f451",
        "value": "0x0",
        "input": "0xfe0389100000000000000000000000003e68f0f304314495fa45907170a59d0ba5218bcc000000000000000000000000abc0afb70f325f4119cfca4083ea2a580ec40d3f0000000000000000000000000000000000000000000000000000000000000bb8000000000000000000000000000000000000000000000000000000000000003c00000000000000000000000054ce5e7351bf259604f3db6d79fc3653a15ef880",
        "nonce": "0x663",
        "chainId": "0xaa36a7"
      },
      "additionalContracts": [],
      "isFixedGasLimit": false
    },
    {
      "hash": "0xd8689ebf74d22e2afa8a2181dc119ae7e75ab088f2701f79c88d3fbc7a30b463",
      "transactionType": "CALL",
      "contractName": null,
      "contractAddress": "0x54ce5e7351bf259604f3db6d79fc3653a15ef880",
      "function": "deactivatePool((address,address,uint24,int24,address))",
      "arguments": [
        "(0x3e68f0F304314495fa45907170a59D0BA5218bCc, 0xabc0Afb70F325F4119cFCA4083EA2A580Ec40D3F, 3000, 60, 0x54Ce5e7351BF259604F3DB6D79fC3653A15EF880)"
      ],
      "transaction": {
        "from": "0x3e723f6b81431f325e3f08e75544f254c182afe2",
        "to": "0x54ce5e7351bf259604f3db6d79fc3653a15ef880",
        "gas": "0x99ee",
        "value": "0x0",
        "input": "0x7a2486b50000000000000000000000003e68f0f304314495fa45907170a59d0ba5218bcc000000000000000000000000abc0afb70f325f4119cfca4083ea2a580ec40d3f0000000000000000000000000000000000000000000000000000000000000bb8000000000000000000000000000000000000000000000000000000000000003c00000000000000000000000054ce5e7351bf259604f3db6d79fc3653a15ef880",
        "nonce": "0x664",
        "chainId": "0xaa36a7"
      },
      "additionalContracts": [],
      "isFixedGasLimit": false
    },
    {
      "hash": "0xa18c8f90a4a9834cb3fbbe802a79fb8a8d8ba8d74c5b7e646ce18763b8029fe9",
      "transactionType": "CALL",
      "contractName": null,
      "contractAddress": "0x54ce5e7351bf259604f3db6d79fc3653a15ef880",
      "function": "reactivatePool((address,address,uint24,int24,address))",
      "arguments": [
        "(0x3e68f0F304314495fa45907170a59D0BA5218bCc, 0xabc0Afb70F325F4119cFCA4083EA2A580Ec40D3F, 3000, 60, 0x54Ce5e7351BF259604F3DB6D79fC3653A15EF880)"
      ],
      "transaction": {
        "from": "0x3e723f6b81431f325e3f08e75544f254c182afe2",
        "to": "0x54ce5e7351bf259604f3db6d79fc3653a15ef880",
        "gas": "0x106db",
        "value": "0x0",
        "input": "0x54ee1e530000000000000000000000003e68f0f304314495fa45907170a59d0ba5218bcc000000000000000000000000abc0afb70f325f4119cfca4083ea2a580ec40d3f0000000000000000000000000000000000000000000000000000000000000bb8000000000000000000000000000000000000000000000000000000000000003c00000000000000000000000054ce5e7351bf259604f3db6d79fc3653a15ef880",
        "nonce": "0x665",
        "chainId": "0xaa36a7"
      },
      "additionalContracts": [],
      "isFixedGasLimit": false
    },
    {
      "hash": "0xc1e7c9b6d680e01d520b21c26be81dfe32eed5177d9aa13a07c832ff33693f1a",
      "transactionType": "CALL",
      "contractName": null,
      "contractAddress": "0xabc0afb70f325f4119cfca4083ea2a580ec40d3f",
      "function": "approve(address,uint256)",
      "arguments": [
        "0x429ba70129df741B2Ca2a85BC3A2a3328e5c09b4",
        "115792089237316195423570985008687907853269984665640564039457584007913129639935"
      ],
      "transaction": {
        "from": "0x3e723f6b81431f325e3f08e75544f254c182afe2",
        "to": "0xabc0afb70f325f4119cfca4083ea2a580ec40d3f",
        "gas": "0x96a4",
        "value": "0x0",
        "input": "0x095ea7b3000000000000000000000000429ba70129df741b2ca2a85bc3a2a3328e5c09b4ffffffffffffffffffffffffffffffffffffffffffffffffffffffffffffffff",
        "nonce": "0x666",
        "chainId": "0xaa36a7"
      },
      "additionalContracts": [],
      "isFixedGasLimit": false
    },
    {
      "hash": "0x83cbe7a2de1b764443071efcd4f8419be78614efc1194e461118c5787ab2183c",
      "transactionType": "CALL",
      "contractName": null,
      "contractAddress": "0x3e68f0f304314495fa45907170a59d0ba5218bcc",
      "function": "approve(address,uint256)",
      "arguments": [
        "0x429ba70129df741B2Ca2a85BC3A2a3328e5c09b4",
        "115792089237316195423570985008687907853269984665640564039457584007913129639935"
      ],
      "transaction": {
        "from": "0x3e723f6b81431f325e3f08e75544f254c182afe2",
        "to": "0x3e68f0f304314495fa45907170a59d0ba5218bcc",
        "gas": "0x96a4",
        "value": "0x0",
        "input": "0x095ea7b3000000000000000000000000429ba70129df741b2ca2a85bc3a2a3328e5c09b4ffffffffffffffffffffffffffffffffffffffffffffffffffffffffffffffff",
        "nonce": "0x667",
        "chainId": "0xaa36a7"
      },
      "additionalContracts": [],
      "isFixedGasLimit": false
    },
    {
      "hash": "0xb75db17b9cbfd377f576f2c0547e205b5d7b57cdea5635912491f01fb69dc43f",
      "transactionType": "CALL",
      "contractName": null,
      "contractAddress": "0xabc0afb70f325f4119cfca4083ea2a580ec40d3f",
      "function": "approve(address,uint256)",
      "arguments": [
        "0x000000000022D473030F116dDEE9F6B43aC78BA3",
        "115792089237316195423570985008687907853269984665640564039457584007913129639935"
      ],
      "transaction": {
        "from": "0x3e723f6b81431f325e3f08e75544f254c182afe2",
        "to": "0xabc0afb70f325f4119cfca4083ea2a580ec40d3f",
        "gas": "0x8df2",
        "value": "0x0",
        "input": "0x095ea7b3000000000000000000000000000000000022d473030f116ddee9f6b43ac78ba3ffffffffffffffffffffffffffffffffffffffffffffffffffffffffffffffff",
        "nonce": "0x668",
        "chainId": "0xaa36a7"
      },
      "additionalContracts": [],
      "isFixedGasLimit": false
    },
    {
      "hash": "0x86a096345012b60909ad2c96c1a0f5f3ee67128dc7a5253ad4b2ecd22b96b376",
      "transactionType": "CALL",
      "contractName": null,
      "contractAddress": "0x000000000022d473030f116ddee9f6b43ac78ba3",
      "function": "approve(address,address,uint160,uint48)",
      "arguments": [
        "0xabc0Afb70F325F4119cFCA4083EA2A580Ec40D3F",
        "0x429ba70129df741B2Ca2a85BC3A2a3328e5c09b4",
        "1461501637330902918203684832716283019655932542975",
        "281474976710655"
      ],
      "transaction": {
        "from": "0x3e723f6b81431f325e3f08e75544f254c182afe2",
        "to": "0x000000000022d473030f116ddee9f6b43ac78ba3",
        "gas": "0x96a0",
        "value": "0x0",
        "input": "0x87517c45000000000000000000000000abc0afb70f325f4119cfca4083ea2a580ec40d3f000000000000000000000000429ba70129df741b2ca2a85bc3a2a3328e5c09b4000000000000000000000000ffffffffffffffffffffffffffffffffffffffff0000000000000000000000000000000000000000000000000000ffffffffffff",
        "nonce": "0x669",
        "chainId": "0xaa36a7"
      },
      "additionalContracts": [],
      "isFixedGasLimit": false
    },
    {
      "hash": "0x130714855f3ace566b2152fd410c8077516cffcf4f06f9eac053b65304c27a88",
      "transactionType": "CALL",
      "contractName": null,
      "contractAddress": "0x3e68f0f304314495fa45907170a59d0ba5218bcc",
      "function": "approve(address,uint256)",
      "arguments": [
        "0x000000000022D473030F116dDEE9F6B43aC78BA3",
        "115792089237316195423570985008687907853269984665640564039457584007913129639935"
      ],
      "transaction": {
        "from": "0x3e723f6b81431f325e3f08e75544f254c182afe2",
        "to": "0x3e68f0f304314495fa45907170a59d0ba5218bcc",
        "gas": "0x8df2",
        "value": "0x0",
        "input": "0x095ea7b3000000000000000000000000000000000022d473030f116ddee9f6b43ac78ba3ffffffffffffffffffffffffffffffffffffffffffffffffffffffffffffffff",
        "nonce": "0x66a",
        "chainId": "0xaa36a7"
      },
      "additionalContracts": [],
      "isFixedGasLimit": false
    },
    {
      "hash": "0x2698f99d7faccb8ad196f580538681e0ecdcf66ce2b75341ed49ca165ea580c0",
      "transactionType": "CALL",
      "contractName": null,
      "contractAddress": "0x000000000022d473030f116ddee9f6b43ac78ba3",
      "function": "approve(address,address,uint160,uint48)",
      "arguments": [
        "0x3e68f0F304314495fa45907170a59D0BA5218bCc",
        "0x429ba70129df741B2Ca2a85BC3A2a3328e5c09b4",
        "1461501637330902918203684832716283019655932542975",
        "281474976710655"
      ],
      "transaction": {
        "from": "0x3e723f6b81431f325e3f08e75544f254c182afe2",
        "to": "0x000000000022d473030f116ddee9f6b43ac78ba3",
        "gas": "0x96a0",
        "value": "0x0",
        "input": "0x87517c450000000000000000000000003e68f0f304314495fa45907170a59d0ba5218bcc000000000000000000000000429ba70129df741b2ca2a85bc3a2a3328e5c09b4000000000000000000000000ffffffffffffffffffffffffffffffffffffffff0000000000000000000000000000000000000000000000000000ffffffffffff",
        "nonce": "0x66b",
        "chainId": "0xaa36a7"
      },
      "additionalContracts": [],
      "isFixedGasLimit": false
    },
    {
      "hash": "0xa2e21ef0817d088b54fda76862854e3f471f4092735cf0739e547874954939cf",
      "transactionType": "CALL",
      "contractName": null,
      "contractAddress": "0x429ba70129df741b2ca2a85bc3a2a3328e5c09b4",
      "function": "multicall(bytes[])",
      "arguments": [
        "[0xdd46508f00000000000000000000000000000000000000000000000000000000000000400000000000000000000000000000000000000000000000000000000068cba79c0000000000000000000000000000000000000000000000000000000000000400000000000000000000000000000000000000000000000000000000000000004000000000000000000000000000000000000000000000000000000000000000800000000000000000000000000000000000000000000000000000000000000004020d14140000000000000000000000000000000000000000000000000000000000000000000000000000000000000000000000000000000000000000000000040000000000000000000000000000000000000000000000000000000000000080000000000000000000000000000000000000000000000000000000000000024000000000000000000000000000000000000000000000000000000000000002a0000000000000000000000000000000000000000000000000000000000000030000000000000000000000000000000000000000000000000000000000000001a00000000000000000000000003e68f0f304314495fa45907170a59d0ba5218bcc000000000000000000000000abc0afb70f325f4119cfca4083ea2a580ec40d3f0000000000000000000000000000000000000000000000000000000000000bb8000000000000000000000000000000000000000000000000000000000000003c0000000000000000000000000000000000000000000000000000000000000000fffffffffffffffffffffffffffffffffffffffffffffffffffffffffffffed400000000000000000000000000000000000000000000000000000000000000f00000000000000000000000000000000000000000000000000000000000001ada0000000000000000000000000000000000000000000000000027147114878000000000000000000000000000000000000000000000000000000000000000006f0000000000000000000000003e723f6b81431f325e3f08e75544f254c182afe20000000000000000000000000000000000000000000000000000000000000180000000000000000000000000000000000000000000000000000000000000000000000000000000000000000000000000000000000000000000000000000000400000000000000000000000003e68f0f304314495fa45907170a59d0ba5218bcc000000000000000000000000abc0afb70f325f4119cfca4083ea2a580ec40d3f00000000000000000000000000000000000000000000000000000000000000400000000000000000000000003e68f0f304314495fa45907170a59d0ba5218bcc0000000000000000000000003e723f6b81431f325e3f08e75544f254c182afe20000000000000000000000000000000000000000000000000000000000000040000000000000000000000000abc0afb70f325f4119cfca4083ea2a580ec40d3f0000000000000000000000003e723f6b81431f325e3f08e75544f254c182afe2]"
      ],
      "transaction": {
        "from": "0x3e723f6b81431f325e3f08e75544f254c182afe2",
        "to": "0x429ba70129df741b2ca2a85bc3a2a3328e5c09b4",
        "gas": "0x5ef0f",
        "value": "0x0",
        "input": "0xac9650d80000000000000000000000000000000000000000000000000000000000000020000000000000000000000000000000000000000000000000000000000000000100000000000000000000000000000000000000000000000000000000000000200000000000000000000000000000000000000000000000000000000000000464dd46508f00000000000000000000000000000000000000000000000000000000000000400000000000000000000000000000000000000000000000000000000068cba79c0000000000000000000000000000000000000000000000000000000000000400000000000000000000000000000000000000000000000000000000000000004000000000000000000000000000000000000000000000000000000000000000800000000000000000000000000000000000000000000000000000000000000004020d14140000000000000000000000000000000000000000000000000000000000000000000000000000000000000000000000000000000000000000000000040000000000000000000000000000000000000000000000000000000000000080000000000000000000000000000000000000000000000000000000000000024000000000000000000000000000000000000000000000000000000000000002a0000000000000000000000000000000000000000000000000000000000000030000000000000000000000000000000000000000000000000000000000000001a00000000000000000000000003e68f0f304314495fa45907170a59d0ba5218bcc000000000000000000000000abc0afb70f325f4119cfca4083ea2a580ec40d3f0000000000000000000000000000000000000000000000000000000000000bb8000000000000000000000000000000000000000000000000000000000000003c0000000000000000000000000000000000000000000000000000000000000000fffffffffffffffffffffffffffffffffffffffffffffffffffffffffffffed400000000000000000000000000000000000000000000000000000000000000f00000000000000000000000000000000000000000000000000000000000001ada0000000000000000000000000000000000000000000000000027147114878000000000000000000000000000000000000000000000000000000000000000006f0000000000000000000000003e723f6b81431f325e3f08e75544f254c182afe20000000000000000000000000000000000000000000000000000000000000180000000000000000000000000000000000000000000000000000000000000000000000000000000000000000000000000000000000000000000000000000000400000000000000000000000003e68f0f304314495fa45907170a59d0ba5218bcc000000000000000000000000abc0afb70f325f4119cfca4083ea2a580ec40d3f00000000000000000000000000000000000000000000000000000000000000400000000000000000000000003e68f0f304314495fa45907170a59d0ba5218bcc0000000000000000000000003e723f6b81431f325e3f08e75544f254c182afe20000000000000000000000000000000000000000000000000000000000000040000000000000000000000000abc0afb70f325f4119cfca4083ea2a580ec40d3f0000000000000000000000003e723f6b81431f325e3f08e75544f254c182afe200000000000000000000000000000000000000000000000000000000",
        "nonce": "0x66c",
        "chainId": "0xaa36a7"
      },
      "additionalContracts": [],
      "isFixedGasLimit": false
    },
    {
      "hash": "0x0fd7c42fd916fec4f17be6c224a7631d7f792def4ba64aa414dbfa9c3c575edd",
      "transactionType": "CALL",
      "contractName": null,
      "contractAddress": "0xabc0afb70f325f4119cfca4083ea2a580ec40d3f",
      "function": "approve(address,uint256)",
      "arguments": [
        "0xf13D190e9117920c703d79B5F33732e10049b115",
        "115792089237316195423570985008687907853269984665640564039457584007913129639935"
      ],
      "transaction": {
        "from": "0x3e723f6b81431f325e3f08e75544f254c182afe2",
        "to": "0xabc0afb70f325f4119cfca4083ea2a580ec40d3f",
        "gas": "0x8e35",
        "value": "0x0",
        "input": "0x095ea7b3000000000000000000000000f13d190e9117920c703d79b5f33732e10049b115ffffffffffffffffffffffffffffffffffffffffffffffffffffffffffffffff",
        "nonce": "0x66d",
        "chainId": "0xaa36a7"
      },
      "additionalContracts": [],
      "isFixedGasLimit": false
    },
    {
      "hash": "0x87d20c4b9d2bce8e9e9113ed2aab399e9cea26f42dd90695bfb0732445f52b0f",
      "transactionType": "CALL",
      "contractName": null,
      "contractAddress": "0x3e68f0f304314495fa45907170a59d0ba5218bcc",
      "function": "approve(address,uint256)",
      "arguments": [
        "0xf13D190e9117920c703d79B5F33732e10049b115",
        "115792089237316195423570985008687907853269984665640564039457584007913129639935"
      ],
      "transaction": {
        "from": "0x3e723f6b81431f325e3f08e75544f254c182afe2",
        "to": "0x3e68f0f304314495fa45907170a59d0ba5218bcc",
        "gas": "0x8e35",
        "value": "0x0",
        "input": "0x095ea7b3000000000000000000000000f13d190e9117920c703d79b5f33732e10049b115ffffffffffffffffffffffffffffffffffffffffffffffffffffffffffffffff",
        "nonce": "0x66e",
        "chainId": "0xaa36a7"
      },
      "additionalContracts": [],
      "isFixedGasLimit": false
    }
  ],
  "receipts": [
    {
      "status": "0x1",
      "cumulativeGasUsed": "0x14fca94",
      "logs": [
        {
          "address": "0xea30c4b8b44078bbf8a6ef5b9f1ec1626c7848d9",
          "topics": [
            "0xe9de54a3e7ddf0c48cc6e1134185300d5a71acbf2d8c21fcdefa9d9dd9e20ac1"
          ],
          "data": "0xa086c907b116b1572126a2ccfaa5f6524f347f8a1d8378ce37b958e0cccc880000000000000000000000000000000000000000000000000000000000000000a000000000000000000000000000000000000000000000000000000000000001f400000000000000000000000000000000000000000000000000000000000000080000000000000000000000000000000000000000000000000000000000000000000000000000000000000000000000000000000000000000000000000000000e7472697669616c456e6372797074000000000000000000000000000000000000",
          "blockHash": "0x7a0ccc3a27a873946286faa447d5fdbc86a7137444b605ae9673ffa215530724",
          "blockNumber": "0x8ccae2",
          "blockTimestamp": "0x68cba784",
          "transactionHash": "0x52371a07d32690760d4ed5ba6e7f4c3c7207adb81de46ce22ea9d40719a0c610",
          "transactionIndex": "0x6b",
          "logIndex": "0xce",
          "removed": false
        },
        {
          "address": "0xea30c4b8b44078bbf8a6ef5b9f1ec1626c7848d9",
          "topics": [
            "0xe9de54a3e7ddf0c48cc6e1134185300d5a71acbf2d8c21fcdefa9d9dd9e20ac1"
          ],
          "data": "0xcc63d19e9a0f97a43bc73dca1ee8b6f4b645d8919747695fa5d1d0da853a840000000000000000000000000000000000000000000000000000000000000000a00000000000000000000000000000000000000000000000000000000000000e1000000000000000000000000000000000000000000000000000000000000000040000000000000000000000000000000000000000000000000000000000000000000000000000000000000000000000000000000000000000000000000000000e7472697669616c456e6372797074000000000000000000000000000000000000",
          "blockHash": "0x7a0ccc3a27a873946286faa447d5fdbc86a7137444b605ae9673ffa215530724",
          "blockNumber": "0x8ccae2",
          "blockTimestamp": "0x68cba784",
          "transactionHash": "0x52371a07d32690760d4ed5ba6e7f4c3c7207adb81de46ce22ea9d40719a0c610",
          "transactionIndex": "0x6b",
          "logIndex": "0xcf",
          "removed": false
        },
        {
          "address": "0xea30c4b8b44078bbf8a6ef5b9f1ec1626c7848d9",
          "topics": [
            "0xe9de54a3e7ddf0c48cc6e1134185300d5a71acbf2d8c21fcdefa9d9dd9e20ac1"
          ],
          "data": "0xcdef58c863398f789d9953afd1326207812f448c90165e6886555071b2f4840000000000000000000000000000000000000000000000000000000000000000a000000000000000000000000000000000000000000000000000000000000000c800000000000000000000000000000000000000000000000000000000000000040000000000000000000000000000000000000000000000000000000000000000000000000000000000000000000000000000000000000000000000000000000e7472697669616c456e6372797074000000000000000000000000000000000000",
          "blockHash": "0x7a0ccc3a27a873946286faa447d5fdbc86a7137444b605ae9673ffa215530724",
          "blockNumber": "0x8ccae2",
          "blockTimestamp": "0x68cba784",
          "transactionHash": "0x52371a07d32690760d4ed5ba6e7f4c3c7207adb81de46ce22ea9d40719a0c610",
          "transactionIndex": "0x6b",
          "logIndex": "0xd0",
          "removed": false
        },
        {
          "address": "0xea30c4b8b44078bbf8a6ef5b9f1ec1626c7848d9",
          "topics": [
            "0xe9de54a3e7ddf0c48cc6e1134185300d5a71acbf2d8c21fcdefa9d9dd9e20ac1"
          ],
          "data": "0xb3e26d30bbd0fa3e41a1d86cb7844842fbb2638ed221cf36790bbd9c9f3e800000000000000000000000000000000000000000000000000000000000000000a0000000000000000000000000000000000000000000000000000000000000000100000000000000000000000000000000000000000000000000000000000000000000000000000000000000000000000000000000000000000000000000000000000000000000000000000000000000000000000000000000000000000000000e7472697669616c456e6372797074000000000000000000000000000000000000",
          "blockHash": "0x7a0ccc3a27a873946286faa447d5fdbc86a7137444b605ae9673ffa215530724",
          "blockNumber": "0x8ccae2",
          "blockTimestamp": "0x68cba784",
          "transactionHash": "0x52371a07d32690760d4ed5ba6e7f4c3c7207adb81de46ce22ea9d40719a0c610",
          "transactionIndex": "0x6b",
          "logIndex": "0xd1",
          "removed": false
        },
        {
          "address": "0xea30c4b8b44078bbf8a6ef5b9f1ec1626c7848d9",
          "topics": [
            "0xe9de54a3e7ddf0c48cc6e1134185300d5a71acbf2d8c21fcdefa9d9dd9e20ac1"
          ],
          "data": "0xbd85f53fc4f2243f9ffcb22983ba1d224d1e77fdca733b69f7215d316181840000000000000000000000000000000000000000000000000000000000000000a0000000000000000000000000000000000000000000000000000000000000009600000000000000000000000000000000000000000000000000000000000000040000000000000000000000000000000000000000000000000000000000000000000000000000000000000000000000000000000000000000000000000000000e7472697669616c456e6372797074000000000000000000000000000000000000",
          "blockHash": "0x7a0ccc3a27a873946286faa447d5fdbc86a7137444b605ae9673ffa215530724",
          "blockNumber": "0x8ccae2",
          "blockTimestamp": "0x68cba784",
          "transactionHash": "0x52371a07d32690760d4ed5ba6e7f4c3c7207adb81de46ce22ea9d40719a0c610",
          "transactionIndex": "0x6b",
          "logIndex": "0xd2",
          "removed": false
        },
        {
          "address": "0x54ce5e7351bf259604f3db6d79fc3653a15ef880",
          "topics": [
            "0x18ff1c138c5686b85dc8b4338640ccef29de32ff4fec45a3f6f220bee9783e45",
            "0x02d51bf75a51000646945e2e9c31b37ab8849b28b49aeb34aa83ba6c044f37a3"
          ],
          "data": "0x000000000000000000000000000000000000000000000000000000000000008000000000000000000000000000000000000000000000000000000000000000c0000000000000000000000000000000000000000000000000000000000000010000000000000000000000000000000000000000000000000000000000000001400000000000000000000000000000000000000000000000000000000000000020a086c907b116b1572126a2ccfaa5f6524f347f8a1d8378ce37b958e0cccc88000000000000000000000000000000000000000000000000000000000000000020cc63d19e9a0f97a43bc73dca1ee8b6f4b645d8919747695fa5d1d0da853a84000000000000000000000000000000000000000000000000000000000000000020cdef58c863398f789d9953afd1326207812f448c90165e6886555071b2f484000000000000000000000000000000000000000000000000000000000000000020b3e26d30bbd0fa3e41a1d86cb7844842fbb2638ed221cf36790bbd9c9f3e8000",
          "blockHash": "0x7a0ccc3a27a873946286faa447d5fdbc86a7137444b605ae9673ffa215530724",
          "blockNumber": "0x8ccae2",
          "blockTimestamp": "0x68cba784",
          "transactionHash": "0x52371a07d32690760d4ed5ba6e7f4c3c7207adb81de46ce22ea9d40719a0c610",
          "transactionIndex": "0x6b",
          "logIndex": "0xd3",
          "removed": false
        }
      ],
      "logsBloom": "0x00000000000000000000000000000000080000000000000000000000000000000000000000000000000000000000000000400000008000000000000000000000000010000000000000000000000000000000000008000000000000000000000000000000000000000000000000000000000000000000000020000000000000000000000000000000000000000a20000001000000000000008000000000000000000000000000000000000000000000000000000000000000000000000000000000000000000000000000000000000000000000000000080000000000000000000000000000000000000200000000000000000000000000000000020200000000",
      "type": "0x2",
      "transactionHash": "0x52371a07d32690760d4ed5ba6e7f4c3c7207adb81de46ce22ea9d40719a0c610",
      "transactionIndex": "0x6b",
      "blockHash": "0x7a0ccc3a27a873946286faa447d5fdbc86a7137444b605ae9673ffa215530724",
      "blockNumber": "0x8ccae2",
      "gasUsed": "0x30370",
      "effectiveGasPrice": "0xf425f",
      "from": "0x3e723f6b81431f325e3f08e75544f254c182afe2",
      "to": "0x54ce5e7351bf259604f3db6d79fc3653a15ef880",
      "contractAddress": null
    },
    {
      "status": "0x1",
      "cumulativeGasUsed": "0x151209c",
      "logs": [
        {
          "address": "0xea30c4b8b44078bbf8a6ef5b9f1ec1626c7848d9",
          "topics": [
            "0xe9de54a3e7ddf0c48cc6e1134185300d5a71acbf2d8c21fcdefa9d9dd9e20ac1"
          ],
          "data": "0xc290f19dcf7bceb26e550f2bfc2767777b6b3a2e75644053281b2fc1dc88800000000000000000000000000000000000000000000000000000000000000000a0000000000000000000000000000000000000000000000000000000000000000000000000000000000000000000000000000000000000000000000000000000000000000000000000000000000000000000000000000000000000000000000000000000000000000000000000000000000000000000000000000000000000000e7472697669616c456e6372797074000000000000000000000000000000000000",
          "blockHash": "0x7a0ccc3a27a873946286faa447d5fdbc86a7137444b605ae9673ffa215530724",
          "blockNumber": "0x8ccae2",
          "blockTimestamp": "0x68cba784",
          "transactionHash": "0x44739a57f464f09d8b30328bfce774c77762d9abfa608777e820d6c643ccf59f",
          "transactionIndex": "0x6c",
          "logIndex": "0xd4",
          "removed": false
        },
        {
          "address": "0x54ce5e7351bf259604f3db6d79fc3653a15ef880",
          "topics": [
            "0x18ff1c138c5686b85dc8b4338640ccef29de32ff4fec45a3f6f220bee9783e45",
            "0x02d51bf75a51000646945e2e9c31b37ab8849b28b49aeb34aa83ba6c044f37a3"
          ],
          "data": "0x000000000000000000000000000000000000000000000000000000000000008000000000000000000000000000000000000000000000000000000000000000c0000000000000000000000000000000000000000000000000000000000000010000000000000000000000000000000000000000000000000000000000000001400000000000000000000000000000000000000000000000000000000000000020a086c907b116b1572126a2ccfaa5f6524f347f8a1d8378ce37b958e0cccc88000000000000000000000000000000000000000000000000000000000000000020cc63d19e9a0f97a43bc73dca1ee8b6f4b645d8919747695fa5d1d0da853a84000000000000000000000000000000000000000000000000000000000000000020cdef58c863398f789d9953afd1326207812f448c90165e6886555071b2f484000000000000000000000000000000000000000000000000000000000000000020c290f19dcf7bceb26e550f2bfc2767777b6b3a2e75644053281b2fc1dc888000",
          "blockHash": "0x7a0ccc3a27a873946286faa447d5fdbc86a7137444b605ae9673ffa215530724",
          "blockNumber": "0x8ccae2",
          "blockTimestamp": "0x68cba784",
          "transactionHash": "0x44739a57f464f09d8b30328bfce774c77762d9abfa608777e820d6c643ccf59f",
          "transactionIndex": "0x6c",
          "logIndex": "0xd5",
          "removed": false
        }
      ],
      "logsBloom": "0x00000000000000000000000000000000080000000000000000000000000000000000000000000000000000000000000000400000008000000000000000000000000010000000000000000000000000000000000008000000000000000000000000000000000000000000000000000000000000000000000020000000000000000000000000000000000000000a20000001000000000000008000000000000000000000000000000000000000000000000000000000000000000000000000000000000000000000000000000000000000000000000000080000000000000000000000000000000000000200000000000000000000000000000000020200000000",
      "type": "0x2",
      "transactionHash": "0x44739a57f464f09d8b30328bfce774c77762d9abfa608777e820d6c643ccf59f",
      "transactionIndex": "0x6c",
      "blockHash": "0x7a0ccc3a27a873946286faa447d5fdbc86a7137444b605ae9673ffa215530724",
      "blockNumber": "0x8ccae2",
      "gasUsed": "0x15608",
      "effectiveGasPrice": "0xf425f",
      "from": "0x3e723f6b81431f325e3f08e75544f254c182afe2",
      "to": "0x54ce5e7351bf259604f3db6d79fc3653a15ef880",
      "contractAddress": null
    },
    {
      "status": "0x1",
      "cumulativeGasUsed": "0x15276b5",
      "logs": [
        {
          "address": "0xea30c4b8b44078bbf8a6ef5b9f1ec1626c7848d9",
          "topics": [
            "0xe9de54a3e7ddf0c48cc6e1134185300d5a71acbf2d8c21fcdefa9d9dd9e20ac1"
          ],
          "data": "0xb3e26d30bbd0fa3e41a1d86cb7844842fbb2638ed221cf36790bbd9c9f3e800000000000000000000000000000000000000000000000000000000000000000a0000000000000000000000000000000000000000000000000000000000000000100000000000000000000000000000000000000000000000000000000000000000000000000000000000000000000000000000000000000000000000000000000000000000000000000000000000000000000000000000000000000000000000e7472697669616c456e6372797074000000000000000000000000000000000000",
          "blockHash": "0x7a0ccc3a27a873946286faa447d5fdbc86a7137444b605ae9673ffa215530724",
          "blockNumber": "0x8ccae2",
          "blockTimestamp": "0x68cba784",
          "transactionHash": "0xa4c727da641aeb79d6f4d8c9bc28ba269c1d7b09b7a128a6453fc3ab1d70e34c",
          "transactionIndex": "0x6d",
          "logIndex": "0xd6",
          "removed": false
        },
        {
          "address": "0x54ce5e7351bf259604f3db6d79fc3653a15ef880",
          "topics": [
            "0x18ff1c138c5686b85dc8b4338640ccef29de32ff4fec45a3f6f220bee9783e45",
            "0x02d51bf75a51000646945e2e9c31b37ab8849b28b49aeb34aa83ba6c044f37a3"
          ],
          "data": "0x000000000000000000000000000000000000000000000000000000000000008000000000000000000000000000000000000000000000000000000000000000c0000000000000000000000000000000000000000000000000000000000000010000000000000000000000000000000000000000000000000000000000000001400000000000000000000000000000000000000000000000000000000000000020a086c907b116b1572126a2ccfaa5f6524f347f8a1d8378ce37b958e0cccc88000000000000000000000000000000000000000000000000000000000000000020cc63d19e9a0f97a43bc73dca1ee8b6f4b645d8919747695fa5d1d0da853a84000000000000000000000000000000000000000000000000000000000000000020cdef58c863398f789d9953afd1326207812f448c90165e6886555071b2f484000000000000000000000000000000000000000000000000000000000000000020b3e26d30bbd0fa3e41a1d86cb7844842fbb2638ed221cf36790bbd9c9f3e8000",
          "blockHash": "0x7a0ccc3a27a873946286faa447d5fdbc86a7137444b605ae9673ffa215530724",
          "blockNumber": "0x8ccae2",
          "blockTimestamp": "0x68cba784",
          "transactionHash": "0xa4c727da641aeb79d6f4d8c9bc28ba269c1d7b09b7a128a6453fc3ab1d70e34c",
          "transactionIndex": "0x6d",
          "logIndex": "0xd7",
          "removed": false
        }
      ],
      "logsBloom": "0x00000000000000000000000000000000080000000000000000000000000000000000000000000000000000000000000000400000008000000000000000000000000010000000000000000000000000000000000008000000000000000000000000000000000000000000000000000000000000000000000020000000000000000000000000000000000000000a20000001000000000000008000000000000000000000000000000000000000000000000000000000000000000000000000000000000000000000000000000000000000000000000000080000000000000000000000000000000000000200000000000000000000000000000000020200000000",
      "type": "0x2",
      "transactionHash": "0xa4c727da641aeb79d6f4d8c9bc28ba269c1d7b09b7a128a6453fc3ab1d70e34c",
      "transactionIndex": "0x6d",
      "blockHash": "0x7a0ccc3a27a873946286faa447d5fdbc86a7137444b605ae9673ffa215530724",
      "blockNumber": "0x8ccae2",
      "gasUsed": "0x15619",
      "effectiveGasPrice": "0xf425f",
      "from": "0x3e723f6b81431f325e3f08e75544f254c182afe2",
      "to": "0x54ce5e7351bf259604f3db6d79fc3653a15ef880",
      "contractAddress": null
    },
    {
      "status": "0x1",
      "cumulativeGasUsed": "0x152dff6",
      "logs": [
        {
          "address": "0x54ce5e7351bf259604f3db6d79fc3653a15ef880",
          "topics": [
            "0xf354ce2d046227bb2a8db43674dab621b47724bc45cbc0b228a001245d53fd77",
            "0x02d51bf75a51000646945e2e9c31b37ab8849b28b49aeb34aa83ba6c044f37a3"
          ],
          "data": "0x",
          "blockHash": "0x7a0ccc3a27a873946286faa447d5fdbc86a7137444b605ae9673ffa215530724",
          "blockNumber": "0x8ccae2",
          "blockTimestamp": "0x68cba784",
          "transactionHash": "0xd8689ebf74d22e2afa8a2181dc119ae7e75ab088f2701f79c88d3fbc7a30b463",
          "transactionIndex": "0x6e",
          "logIndex": "0xd8",
          "removed": false
        }
      ],
      "logsBloom": "0x00000800000000000000000000000000000000000000000000000000000000000000000000000000000000000000000000400000000000000000000000000000000010000000000000000000000000000080000000000000000000000000000000000000000000000000000000000000000000000000000020000000000000000000000000000000000000000220000000000000000000008000000000000000000000000000000000000000000000000000000000000000000000000000000000000000000000000000000000000200000000000000000000000000000000000000000000000000000000000000000000000000000000000000000000000000",
      "type": "0x2",
      "transactionHash": "0xd8689ebf74d22e2afa8a2181dc119ae7e75ab088f2701f79c88d3fbc7a30b463",
      "transactionIndex": "0x6e",
      "blockHash": "0x7a0ccc3a27a873946286faa447d5fdbc86a7137444b605ae9673ffa215530724",
      "blockNumber": "0x8ccae2",
      "gasUsed": "0x6941",
      "effectiveGasPrice": "0xf425f",
      "from": "0x3e723f6b81431f325e3f08e75544f254c182afe2",
      "to": "0x54ce5e7351bf259604f3db6d79fc3653a15ef880",
      "contractAddress": null
    },
    {
      "status": "0x1",
      "cumulativeGasUsed": "0x1539e45",
      "logs": [
        {
          "address": "0x54ce5e7351bf259604f3db6d79fc3653a15ef880",
          "topics": [
            "0xc4be386fe9fd651a56e42b3b831dd4bf6afaa363eb2d21181fe7e23a8ff50279",
            "0x02d51bf75a51000646945e2e9c31b37ab8849b28b49aeb34aa83ba6c044f37a3"
          ],
          "data": "0x",
          "blockHash": "0x7a0ccc3a27a873946286faa447d5fdbc86a7137444b605ae9673ffa215530724",
          "blockNumber": "0x8ccae2",
          "blockTimestamp": "0x68cba784",
          "transactionHash": "0xa18c8f90a4a9834cb3fbbe802a79fb8a8d8ba8d74c5b7e646ce18763b8029fe9",
          "transactionIndex": "0x6f",
          "logIndex": "0xd9",
          "removed": false
        }
      ],
      "logsBloom": "0x00000000000000000000000000000000000000000000000000000000000000000000000000000000000000000000000000400000000000000000000000000000000010000000000000000000000000000000000000000000000000000000000000000000000000000000000000000000000000000000000020000000000000100000000000000000000000000220000004000000000000008000000000000000000000001000000000000000000000000000000000000000000000000000000000000000000000000000000000000000000000000000000000000000000000000000000000000000000000000000000000000000000000000000000000000000",
      "type": "0x2",
      "transactionHash": "0xa18c8f90a4a9834cb3fbbe802a79fb8a8d8ba8d74c5b7e646ce18763b8029fe9",
      "transactionIndex": "0x6f",
      "blockHash": "0x7a0ccc3a27a873946286faa447d5fdbc86a7137444b605ae9673ffa215530724",
      "blockNumber": "0x8ccae2",
      "gasUsed": "0xbe4f",
      "effectiveGasPrice": "0xf425f",
      "from": "0x3e723f6b81431f325e3f08e75544f254c182afe2",
      "to": "0x54ce5e7351bf259604f3db6d79fc3653a15ef880",
      "contractAddress": null
    },
    {
      "status": "0x1",
      "cumulativeGasUsed": "0x1540546",
      "logs": [
        {
          "address": "0xabc0afb70f325f4119cfca4083ea2a580ec40d3f",
          "topics": [
            "0x8c5be1e5ebec7d5bd14f71427d1e84f3dd0314c0f7b2291e5b200ac8c7c3b925",
            "0x0000000000000000000000003e723f6b81431f325e3f08e75544f254c182afe2",
            "0x000000000000000000000000429ba70129df741b2ca2a85bc3a2a3328e5c09b4"
          ],
          "data": "0xffffffffffffffffffffffffffffffffffffffffffffffffffffffffffffffff",
          "blockHash": "0x7a0ccc3a27a873946286faa447d5fdbc86a7137444b605ae9673ffa215530724",
          "blockNumber": "0x8ccae2",
          "transactionHash": "0xc1e7c9b6d680e01d520b21c26be81dfe32eed5177d9aa13a07c832ff33693f1a",
          "transactionIndex": "0x70",
          "logIndex": "0xda",
          "removed": false
        }
      ],
      "logsBloom": "0x00000000000000000000000000000000000000000000000000000000000000000000000000000040080000000080000000000000080000000000000000200000000000000000000000000000000000100000000000000000000000000000000000000000000000000000000000000000000000000000000000000800000000000000000000000000000000000000000000000000000000000000000000000000020000000000004080000000000000000000000000000000000010000000000000000000000000000000000000000000000000000000000000000000000000000010000000000000000000000000000000000000000000000000000000000000",
      "type": "0x2",
      "transactionHash": "0xc1e7c9b6d680e01d520b21c26be81dfe32eed5177d9aa13a07c832ff33693f1a",
      "transactionIndex": "0x70",
      "blockHash": "0x7a0ccc3a27a873946286faa447d5fdbc86a7137444b605ae9673ffa215530724",
      "blockNumber": "0x8ccae2",
      "gasUsed": "0x6701",
      "effectiveGasPrice": "0xf425f",
      "from": "0x3e723f6b81431f325e3f08e75544f254c182afe2",
      "to": "0xabc0afb70f325f4119cfca4083ea2a580ec40d3f",
      "contractAddress": null
    },
    {
      "status": "0x1",
      "cumulativeGasUsed": "0x1546c47",
      "logs": [
        {
          "address": "0x3e68f0f304314495fa45907170a59d0ba5218bcc",
          "topics": [
            "0x8c5be1e5ebec7d5bd14f71427d1e84f3dd0314c0f7b2291e5b200ac8c7c3b925",
            "0x0000000000000000000000003e723f6b81431f325e3f08e75544f254c182afe2",
            "0x000000000000000000000000429ba70129df741b2ca2a85bc3a2a3328e5c09b4"
          ],
          "data": "0xffffffffffffffffffffffffffffffffffffffffffffffffffffffffffffffff",
          "blockHash": "0x7a0ccc3a27a873946286faa447d5fdbc86a7137444b605ae9673ffa215530724",
          "blockNumber": "0x8ccae2",
          "blockTimestamp": "0x68cba784",
          "transactionHash": "0x83cbe7a2de1b764443071efcd4f8419be78614efc1194e461118c5787ab2183c",
          "transactionIndex": "0x71",
          "logIndex": "0xdb",
          "removed": false
        }
      ],
      "logsBloom": "0x00000000000000000000000000000000000000000000000000000000000000000000000000000040080000000000000000000000080000800000000000200000000000000000000000000000000000000000000000000000000000000000000000000000000000000000000000000000000000000000000000000800000000000000000000000000000000000000000000000000000000000000000000000000020000000000000080000000000000000000000000002000000010000000000000000000000000000000000000000000000000000000000000000000000000400010000000000000000000000000000000000000000000000000000000000000",
      "type": "0x2",
      "transactionHash": "0x83cbe7a2de1b764443071efcd4f8419be78614efc1194e461118c5787ab2183c",
      "transactionIndex": "0x71",
      "blockHash": "0x7a0ccc3a27a873946286faa447d5fdbc86a7137444b605ae9673ffa215530724",
      "blockNumber": "0x8ccae2",
      "gasUsed": "0x6701",
      "effectiveGasPrice": "0xf425f",
      "from": "0x3e723f6b81431f325e3f08e75544f254c182afe2",
      "to": "0x3e68f0f304314495fa45907170a59d0ba5218bcc",
      "contractAddress": null
    },
    {
      "status": "0x1",
      "cumulativeGasUsed": "0x154d30c",
      "logs": [
        {
          "address": "0xabc0afb70f325f4119cfca4083ea2a580ec40d3f",
          "topics": [
            "0x8c5be1e5ebec7d5bd14f71427d1e84f3dd0314c0f7b2291e5b200ac8c7c3b925",
            "0x0000000000000000000000003e723f6b81431f325e3f08e75544f254c182afe2",
            "0x000000000000000000000000000000000022d473030f116ddee9f6b43ac78ba3"
          ],
          "data": "0xffffffffffffffffffffffffffffffffffffffffffffffffffffffffffffffff",
          "blockHash": "0x7a0ccc3a27a873946286faa447d5fdbc86a7137444b605ae9673ffa215530724",
          "blockNumber": "0x8ccae2",
          "transactionHash": "0xb75db17b9cbfd377f576f2c0547e205b5d7b57cdea5635912491f01fb69dc43f",
          "transactionIndex": "0x72",
          "logIndex": "0xdc",
          "removed": false
        }
      ],
      "logsBloom": "0x00000000000000000000000000000000000000000000000000000000000000000000000000000000000000000080000000000000880000000000000000200000000000000000000000004000000000100000000000000800000000000000000000000000000000000000000000000000000000000000000000000000000000000000000000000000000000000000000000000000000000000000000000000000020000000000004080000000000000000000000000000000000010000000000000000000000000000000000000000000000000000000000000000000000000000010000000000000000000000000000000000000000000000000000000000000",
      "type": "0x2",
      "transactionHash": "0xb75db17b9cbfd377f576f2c0547e205b5d7b57cdea5635912491f01fb69dc43f",
      "transactionIndex": "0x72",
      "blockHash": "0x7a0ccc3a27a873946286faa447d5fdbc86a7137444b605ae9673ffa215530724",
      "blockNumber": "0x8ccae2",
      "gasUsed": "0x66c5",
      "effectiveGasPrice": "0xf425f",
      "from": "0x3e723f6b81431f325e3f08e75544f254c182afe2",
      "to": "0xabc0afb70f325f4119cfca4083ea2a580ec40d3f",
      "contractAddress": null
    },
    {
      "status": "0x1",
      "cumulativeGasUsed": "0x155aecb",
      "logs": [
        {
          "address": "0x000000000022d473030f116ddee9f6b43ac78ba3",
          "topics": [
            "0xda9fa7c1b00402c17d0161b249b1ab8bbec047c5a52207b9c112deffd817036b",
            "0x0000000000000000000000003e723f6b81431f325e3f08e75544f254c182afe2",
            "0x000000000000000000000000abc0afb70f325f4119cfca4083ea2a580ec40d3f",
            "0x000000000000000000000000429ba70129df741b2ca2a85bc3a2a3328e5c09b4"
          ],
          "data": "0x000000000000000000000000ffffffffffffffffffffffffffffffffffffffff0000000000000000000000000000000000000000000000000000ffffffffffff",
          "blockHash": "0x7a0ccc3a27a873946286faa447d5fdbc86a7137444b605ae9673ffa215530724",
          "blockNumber": "0x8ccae2",
          "blockTimestamp": "0x68cba784",
          "transactionHash": "0x86a096345012b60909ad2c96c1a0f5f3ee67128dc7a5253ad4b2ecd22b96b376",
          "transactionIndex": "0x74",
          "logIndex": "0xde",
          "removed": false
        }
      ],
      "logsBloom": "0x00010000000000000000000000000000000000000000000000000000000000000000000000000040080000000000000000000000080000000000000000080000000000000000000000000000000000000000000000000000000000000000000000000000000000000000000000000010000000000000000000000800000000000020000000000000000002000000000000000000000000000000000000000000000000000000000080000000000000000000000000000000000010080000000000000000000000000000000000000000000000000000000040000000000000000000000000000000000000000000000000000000000000400000000000000400",
      "type": "0x2",
      "transactionHash": "0x86a096345012b60909ad2c96c1a0f5f3ee67128dc7a5253ad4b2ecd22b96b376",
      "transactionIndex": "0x74",
      "blockHash": "0x7a0ccc3a27a873946286faa447d5fdbc86a7137444b605ae9673ffa215530724",
      "blockNumber": "0x8ccae2",
      "gasUsed": "0x6d0e",
      "effectiveGasPrice": "0xf425f",
      "from": "0x3e723f6b81431f325e3f08e75544f254c182afe2",
      "to": "0x000000000022d473030f116ddee9f6b43ac78ba3",
      "contractAddress": null
    },
    {
      "status": "0x1",
      "cumulativeGasUsed": "0x1561590",
      "logs": [
        {
          "address": "0x3e68f0f304314495fa45907170a59d0ba5218bcc",
          "topics": [
            "0x8c5be1e5ebec7d5bd14f71427d1e84f3dd0314c0f7b2291e5b200ac8c7c3b925",
            "0x0000000000000000000000003e723f6b81431f325e3f08e75544f254c182afe2",
            "0x000000000000000000000000000000000022d473030f116ddee9f6b43ac78ba3"
          ],
          "data": "0xffffffffffffffffffffffffffffffffffffffffffffffffffffffffffffffff",
          "blockHash": "0x7a0ccc3a27a873946286faa447d5fdbc86a7137444b605ae9673ffa215530724",
          "blockNumber": "0x8ccae2",
          "transactionHash": "0x130714855f3ace566b2152fd410c8077516cffcf4f06f9eac053b65304c27a88",
          "transactionIndex": "0x75",
          "logIndex": "0xdf",
          "removed": false
        }
      ],
      "logsBloom": "0x00000000000000000000000000000000000000000000000000000000000000000000000000000000000000000000000000000000880000800000000000200000000000000000000000004000000000000000000000000800000000000000000000000000000000000000000000000000000000000000000000000000000000000000000000000000000000000000000000000000000000000000000000000000020000000000000080000000000000000000000000002000000010000000000000000000000000000000000000000000000000000000000000000000000000400010000000000000000000000000000000000000000000000000000000000000",
      "type": "0x2",
      "transactionHash": "0x130714855f3ace566b2152fd410c8077516cffcf4f06f9eac053b65304c27a88",
      "transactionIndex": "0x75",
      "blockHash": "0x7a0ccc3a27a873946286faa447d5fdbc86a7137444b605ae9673ffa215530724",
      "blockNumber": "0x8ccae2",
      "gasUsed": "0x66c5",
      "effectiveGasPrice": "0xf425f",
      "from": "0x3e723f6b81431f325e3f08e75544f254c182afe2",
      "to": "0x3e68f0f304314495fa45907170a59d0ba5218bcc",
      "contractAddress": null
    },
    {
      "status": "0x1",
      "cumulativeGasUsed": "0x156829e",
      "logs": [
        {
          "address": "0x000000000022d473030f116ddee9f6b43ac78ba3",
          "topics": [
            "0xda9fa7c1b00402c17d0161b249b1ab8bbec047c5a52207b9c112deffd817036b",
            "0x0000000000000000000000003e723f6b81431f325e3f08e75544f254c182afe2",
            "0x0000000000000000000000003e68f0f304314495fa45907170a59d0ba5218bcc",
            "0x000000000000000000000000429ba70129df741b2ca2a85bc3a2a3328e5c09b4"
          ],
          "data": "0x000000000000000000000000ffffffffffffffffffffffffffffffffffffffff0000000000000000000000000000000000000000000000000000ffffffffffff",
          "blockHash": "0x7a0ccc3a27a873946286faa447d5fdbc86a7137444b605ae9673ffa215530724",
          "blockNumber": "0x8ccae2",
          "transactionHash": "0x2698f99d7faccb8ad196f580538681e0ecdcf66ce2b75341ed49ca165ea580c0",
          "transactionIndex": "0x76",
          "logIndex": "0xe0",
          "removed": false
        }
      ],
      "logsBloom": "0x00010000000000000000000000000000000000000000000000000000000000000000000000000040080040000000000000000000080000000000000000080000000000000000000000000000000000000000000000000000000000000000000000000000000000000000000000000000000000000000000000000800000000000020000000000000000000000000000000000000000000000000000000010000000000000000000080000000000000000000000000000000000010080000000000000000000000000000000000000000000000000000000040000000000000000000000000000000000000000000000000000000000000000000000000000400",
      "type": "0x2",
      "transactionHash": "0x2698f99d7faccb8ad196f580538681e0ecdcf66ce2b75341ed49ca165ea580c0",
      "transactionIndex": "0x76",
      "blockHash": "0x7a0ccc3a27a873946286faa447d5fdbc86a7137444b605ae9673ffa215530724",
      "blockNumber": "0x8ccae2",
      "gasUsed": "0x6d0e",
      "effectiveGasPrice": "0xf425f",
      "from": "0x3e723f6b81431f325e3f08e75544f254c182afe2",
      "to": "0x000000000022d473030f116ddee9f6b43ac78ba3",
      "contractAddress": null
    },
    {
      "status": "0x1",
      "cumulativeGasUsed": "0x15c55b6",
      "logs": [
        {
          "address": "0x429ba70129df741b2ca2a85bc3a2a3328e5c09b4",
          "topics": [
            "0xddf252ad1be2c89b69c2b068fc378daa952ba7f163c4a11628f55a4df523b3ef",
            "0x0000000000000000000000000000000000000000000000000000000000000000",
            "0x0000000000000000000000003e723f6b81431f325e3f08e75544f254c182afe2",
            "0x0000000000000000000000000000000000000000000000000000000000004333"
          ],
          "data": "0x",
          "blockHash": "0x7a0ccc3a27a873946286faa447d5fdbc86a7137444b605ae9673ffa215530724",
          "blockNumber": "0x8ccae2",
          "blockTimestamp": "0x68cba784",
          "transactionHash": "0xa2e21ef0817d088b54fda76862854e3f471f4092735cf0739e547874954939cf",
          "transactionIndex": "0x78",
          "logIndex": "0xe5",
          "removed": false
        },
        {
          "address": "0xe03a1074c86cfedd5c142c4f04f1a1536e203543",
          "topics": [
            "0xf208f4912782fd25c7f114ca3723a2d5dd6f3bcc3ac8db5af63baa85f711d5ec",
            "0x6c28d2b60906a79ceadbbc225031033505ffc8027aa0d19cfea7a21574375983",
            "0x000000000000000000000000429ba70129df741b2ca2a85bc3a2a3328e5c09b4"
          ],
          "data": "0xfffffffffffffffffffffffffffffffffffffffffffffffffffffffffffffed400000000000000000000000000000000000000000000000000000000000000f00000000000000000000000000000000000000000000000000000000000001ada0000000000000000000000000000000000000000000000000000000000004333",
          "blockHash": "0x7a0ccc3a27a873946286faa447d5fdbc86a7137444b605ae9673ffa215530724",
          "blockNumber": "0x8ccae2",
          "blockTimestamp": "0x68cba784",
          "transactionHash": "0xa2e21ef0817d088b54fda76862854e3f471f4092735cf0739e547874954939cf",
          "transactionIndex": "0x78",
          "logIndex": "0xe6",
          "removed": false
        },
        {
          "address": "0x3e68f0f304314495fa45907170a59d0ba5218bcc",
          "topics": [
            "0xddf252ad1be2c89b69c2b068fc378daa952ba7f163c4a11628f55a4df523b3ef",
            "0x0000000000000000000000003e723f6b81431f325e3f08e75544f254c182afe2",
            "0x000000000000000000000000e03a1074c86cfedd5c142c4f04f1a1536e203543"
          ],
          "data": "0x0000000000000000000000000000000000000000000000000000000000000054",
          "blockHash": "0x7a0ccc3a27a873946286faa447d5fdbc86a7137444b605ae9673ffa215530724",
          "blockNumber": "0x8ccae2",
          "blockTimestamp": "0x68cba784",
          "transactionHash": "0xa2e21ef0817d088b54fda76862854e3f471f4092735cf0739e547874954939cf",
          "transactionIndex": "0x78",
          "logIndex": "0xe7",
          "removed": false
        },
        {
          "address": "0xabc0afb70f325f4119cfca4083ea2a580ec40d3f",
          "topics": [
            "0xddf252ad1be2c89b69c2b068fc378daa952ba7f163c4a11628f55a4df523b3ef",
            "0x0000000000000000000000003e723f6b81431f325e3f08e75544f254c182afe2",
            "0x000000000000000000000000e03a1074c86cfedd5c142c4f04f1a1536e203543"
          ],
          "data": "0x0000000000000000000000000000000000000000000000000000000000000065",
          "blockHash": "0x7a0ccc3a27a873946286faa447d5fdbc86a7137444b605ae9673ffa215530724",
          "blockNumber": "0x8ccae2",
          "blockTimestamp": "0x68cba784",
          "transactionHash": "0xa2e21ef0817d088b54fda76862854e3f471f4092735cf0739e547874954939cf",
          "transactionIndex": "0x78",
          "logIndex": "0xe8",
          "removed": false
        }
      ],
      "logsBloom": "0x00000000000000800000001000000000000000000000000000000000080000000000000000000040080000000080000000000100080000800000000000000000000000000000000000000008000000100000000000000000000000000000000040000000020000000000000080000840010000000000100400000810000000000000000001000000000010000000002000000000000000000000000000000000000004000000004080000000000000000000000000402000000010000000000000000002000000000000000000000000000000000000000000001000000020401000000000000000000000000000000004000000000000000000000000000000",
      "type": "0x2",
      "transactionHash": "0xa2e21ef0817d088b54fda76862854e3f471f4092735cf0739e547874954939cf",
      "transactionIndex": "0x78",
      "blockHash": "0x7a0ccc3a27a873946286faa447d5fdbc86a7137444b605ae9673ffa215530724",
      "blockNumber": "0x8ccae2",
      "gasUsed": "0x44bc6",
      "effectiveGasPrice": "0xf425f",
      "from": "0x3e723f6b81431f325e3f08e75544f254c182afe2",
      "to": "0x429ba70129df741b2ca2a85bc3a2a3328e5c09b4",
      "contractAddress": null
    },
    {
      "status": "0x1",
      "cumulativeGasUsed": "0x15cbcab",
      "logs": [
        {
          "address": "0xabc0afb70f325f4119cfca4083ea2a580ec40d3f",
          "topics": [
            "0x8c5be1e5ebec7d5bd14f71427d1e84f3dd0314c0f7b2291e5b200ac8c7c3b925",
            "0x0000000000000000000000003e723f6b81431f325e3f08e75544f254c182afe2",
            "0x000000000000000000000000f13d190e9117920c703d79b5f33732e10049b115"
          ],
          "data": "0xffffffffffffffffffffffffffffffffffffffffffffffffffffffffffffffff",
          "blockHash": "0x7a0ccc3a27a873946286faa447d5fdbc86a7137444b605ae9673ffa215530724",
          "blockNumber": "0x8ccae2",
          "transactionHash": "0x0fd7c42fd916fec4f17be6c224a7631d7f792def4ba64aa414dbfa9c3c575edd",
          "transactionIndex": "0x79",
          "logIndex": "0xe9",
          "removed": false
        }
      ],
      "logsBloom": "0x00000000000000000000000000000000000000000000000000800000000000000000000000000000000000000080000000000000080000000000000000200000000000000000000000000000000000100000000000000000000000000000000000000000000000000000000000000000000000000000000000000000000000000000000000080000000000000000000000000000000000000000000000000000020000000000004080000000000000000000000000000000000010000000000000000000000000000000000000000000000000000000000000000000000080000010000000000000000000000000000000000000000000000000000000000000",
      "type": "0x2",
      "transactionHash": "0x0fd7c42fd916fec4f17be6c224a7631d7f792def4ba64aa414dbfa9c3c575edd",
      "transactionIndex": "0x79",
      "blockHash": "0x7a0ccc3a27a873946286faa447d5fdbc86a7137444b605ae9673ffa215530724",
      "blockNumber": "0x8ccae2",
      "gasUsed": "0x66f5",
      "effectiveGasPrice": "0xf425f",
      "from": "0x3e723f6b81431f325e3f08e75544f254c182afe2",
      "to": "0xabc0afb70f325f4119cfca4083ea2a580ec40d3f",
      "contractAddress": null
    },
    {
      "status": "0x1",
      "cumulativeGasUsed": "0x15d23a0",
      "logs": [
        {
          "address": "0x3e68f0f304314495fa45907170a59d0ba5218bcc",
          "topics": [
            "0x8c5be1e5ebec7d5bd14f71427d1e84f3dd0314c0f7b2291e5b200ac8c7c3b925",
            "0x0000000000000000000000003e723f6b81431f325e3f08e75544f254c182afe2",
            "0x000000000000000000000000f13d190e9117920c703d79b5f33732e10049b115"
          ],
          "data": "0xffffffffffffffffffffffffffffffffffffffffffffffffffffffffffffffff",
          "blockHash": "0x7a0ccc3a27a873946286faa447d5fdbc86a7137444b605ae9673ffa215530724",
          "blockNumber": "0x8ccae2",
          "transactionHash": "0x87d20c4b9d2bce8e9e9113ed2aab399e9cea26f42dd90695bfb0732445f52b0f",
          "transactionIndex": "0x7a",
          "logIndex": "0xea",
          "removed": false
        }
      ],
      "logsBloom": "0x00000000000000000000000000000000000000000000000000800000000000000000000000000000000000000000000000000000080000800000000000200000000000000000000000000000000000000000000000000000000000000000000000000000000000000000000000000000000000000000000000000000000000000000000000080000000000000000000000000000000000000000000000000000020000000000000080000000000000000000000000002000000010000000000000000000000000000000000000000000000000000000000000000000000080400010000000000000000000000000000000000000000000000000000000000000",
      "type": "0x2",
      "transactionHash": "0x87d20c4b9d2bce8e9e9113ed2aab399e9cea26f42dd90695bfb0732445f52b0f",
      "transactionIndex": "0x7a",
      "blockHash": "0x7a0ccc3a27a873946286faa447d5fdbc86a7137444b605ae9673ffa215530724",
      "blockNumber": "0x8ccae2",
      "gasUsed": "0x66f5",
      "effectiveGasPrice": "0xf425f",
      "from": "0x3e723f6b81431f325e3f08e75544f254c182afe2",
      "to": "0x3e68f0f304314495fa45907170a59d0ba5218bcc",
      "contractAddress": null
    }
  ],
  "libraries": [],
  "pending": [],
  "returns": {},
  "timestamp": 1758177157274,
  "chain": 11155111,
  "commit": "8893880"
}