{
  "transactions": [
    {
      "hash": "0x4ccc1bd18df8027a3bffabb4823e445afd52459516bef99be0320e7987aac7ee",
      "transactionType": "CALL",
      "contractName": null,
      "contractAddress": "0x0faf3047dc05328c5251a7beef8408c4d3a23880",
      "function": "configureEncryptedRebalancingStrategy((address,address,uint24,int24,address),uint24,uint32,int24,bool,uint24)",
      "arguments": [
        "(0x0E42Efc341d5ef175dB4CE9516d13eecC379e9Ec, 0xf7eC23380BB7adEdaf4c69239B66e444B4aaffDb, 3000, 60, 0x0faF3047Dc05328c5251a7BeEF8408c4d3A23880)",
        "500",
        "3600",
        "200",
        "true",
        "150"
      ],
      "transaction": {
        "from": "0x3e723f6b81431f325e3f08e75544f254c182afe2",
        "to": "0x0faf3047dc05328c5251a7beef8408c4d3a23880",
        "gas": "0x3ed1e",
        "value": "0x0",
        "input": "0xa9eb74780000000000000000000000000e42efc341d5ef175db4ce9516d13eecc379e9ec000000000000000000000000f7ec23380bb7adedaf4c69239b66e444b4aaffdb0000000000000000000000000000000000000000000000000000000000000bb8000000000000000000000000000000000000000000000000000000000000003c0000000000000000000000000faf3047dc05328c5251a7beef8408c4d3a2388000000000000000000000000000000000000000000000000000000000000001f40000000000000000000000000000000000000000000000000000000000000e1000000000000000000000000000000000000000000000000000000000000000c800000000000000000000000000000000000000000000000000000000000000010000000000000000000000000000000000000000000000000000000000000096",
        "nonce": "0x58b",
        "chainId": "0xaa36a7"
      },
      "additionalContracts": [],
      "isFixedGasLimit": false
    },
    {
      "hash": "0x9c19065a3d89fbaf92aab0734af01e42a5a955720041a1db4e616004bdacaa9e",
      "transactionType": "CALL",
      "contractName": null,
      "contractAddress": "0x0faf3047dc05328c5251a7beef8408c4d3a23880",
      "function": "pausePoolRebalancing((address,address,uint24,int24,address))",
      "arguments": [
        "(0x0E42Efc341d5ef175dB4CE9516d13eecC379e9Ec, 0xf7eC23380BB7adEdaf4c69239B66e444B4aaffDb, 3000, 60, 0x0faF3047Dc05328c5251a7BeEF8408c4d3A23880)"
      ],
      "transaction": {
        "from": "0x3e723f6b81431f325e3f08e75544f254c182afe2",
        "to": "0x0faf3047dc05328c5251a7beef8408c4d3a23880",
        "gas": "0x1d86d",
        "value": "0x0",
        "input": "0xfbdd948f0000000000000000000000000e42efc341d5ef175db4ce9516d13eecc379e9ec000000000000000000000000f7ec23380bb7adedaf4c69239b66e444b4aaffdb0000000000000000000000000000000000000000000000000000000000000bb8000000000000000000000000000000000000000000000000000000000000003c0000000000000000000000000faf3047dc05328c5251a7beef8408c4d3a23880",
        "nonce": "0x58c",
        "chainId": "0xaa36a7"
      },
      "additionalContracts": [],
      "isFixedGasLimit": false
    },
    {
      "hash": "0xff6a233bf85b3ba58432c9dad2983fd82ae234a01e7c3daeabeef3720e064578",
      "transactionType": "CALL",
      "contractName": null,
      "contractAddress": "0x0faf3047dc05328c5251a7beef8408c4d3a23880",
      "function": "resumePoolRebalancing((address,address,uint24,int24,address))",
      "arguments": [
        "(0x0E42Efc341d5ef175dB4CE9516d13eecC379e9Ec, 0xf7eC23380BB7adEdaf4c69239B66e444B4aaffDb, 3000, 60, 0x0faF3047Dc05328c5251a7BeEF8408c4d3A23880)"
      ],
      "transaction": {
        "from": "0x3e723f6b81431f325e3f08e75544f254c182afe2",
        "to": "0x0faf3047dc05328c5251a7beef8408c4d3a23880",
        "gas": "0x1f451",
        "value": "0x0",
        "input": "0xfe0389100000000000000000000000000e42efc341d5ef175db4ce9516d13eecc379e9ec000000000000000000000000f7ec23380bb7adedaf4c69239b66e444b4aaffdb0000000000000000000000000000000000000000000000000000000000000bb8000000000000000000000000000000000000000000000000000000000000003c0000000000000000000000000faf3047dc05328c5251a7beef8408c4d3a23880",
        "nonce": "0x58d",
        "chainId": "0xaa36a7"
      },
      "additionalContracts": [],
      "isFixedGasLimit": false
    },
    {
      "hash": "0x384d059de990e9436159230b69e7a9112e597673d01d40fcad073462bd41c482",
      "transactionType": "CALL",
      "contractName": null,
      "contractAddress": "0x0faf3047dc05328c5251a7beef8408c4d3a23880",
      "function": "deactivatePool((address,address,uint24,int24,address))",
      "arguments": [
        "(0x0E42Efc341d5ef175dB4CE9516d13eecC379e9Ec, 0xf7eC23380BB7adEdaf4c69239B66e444B4aaffDb, 3000, 60, 0x0faF3047Dc05328c5251a7BeEF8408c4d3A23880)"
      ],
      "transaction": {
        "from": "0x3e723f6b81431f325e3f08e75544f254c182afe2",
        "to": "0x0faf3047dc05328c5251a7beef8408c4d3a23880",
        "gas": "0xb55a",
        "value": "0x0",
        "input": "0x7a2486b50000000000000000000000000e42efc341d5ef175db4ce9516d13eecc379e9ec000000000000000000000000f7ec23380bb7adedaf4c69239b66e444b4aaffdb0000000000000000000000000000000000000000000000000000000000000bb8000000000000000000000000000000000000000000000000000000000000003c0000000000000000000000000faf3047dc05328c5251a7beef8408c4d3a23880",
        "nonce": "0x58e",
        "chainId": "0xaa36a7"
      },
      "additionalContracts": [],
      "isFixedGasLimit": false
    },
    {
      "hash": "0x085daa2b88aba8bb9f4ba1c57219f16b5defa3c5f99454865d6a2d271950c8fe",
      "transactionType": "CALL",
      "contractName": null,
      "contractAddress": "0x0faf3047dc05328c5251a7beef8408c4d3a23880",
      "function": "reactivatePool((address,address,uint24,int24,address))",
      "arguments": [
        "(0x0E42Efc341d5ef175dB4CE9516d13eecC379e9Ec, 0xf7eC23380BB7adEdaf4c69239B66e444B4aaffDb, 3000, 60, 0x0faF3047Dc05328c5251a7BeEF8408c4d3A23880)"
      ],
      "transaction": {
        "from": "0x3e723f6b81431f325e3f08e75544f254c182afe2",
        "to": "0x0faf3047dc05328c5251a7beef8408c4d3a23880",
        "gas": "0xb4a2",
        "value": "0x0",
        "input": "0x54ee1e530000000000000000000000000e42efc341d5ef175db4ce9516d13eecc379e9ec000000000000000000000000f7ec23380bb7adedaf4c69239b66e444b4aaffdb0000000000000000000000000000000000000000000000000000000000000bb8000000000000000000000000000000000000000000000000000000000000003c0000000000000000000000000faf3047dc05328c5251a7beef8408c4d3a23880",
        "nonce": "0x58f",
        "chainId": "0xaa36a7"
      },
      "additionalContracts": [],
      "isFixedGasLimit": false
    },
    {
      "hash": "0x319134b51efe945ed9b7813f78ceb3089b72186cf9cd2911beaac5c5d835da55",
      "transactionType": "CALL",
      "contractName": null,
      "contractAddress": "0xf7ec23380bb7adedaf4c69239b66e444b4aaffdb",
      "function": "approve(address,uint256)",
      "arguments": [
        "0x429ba70129df741B2Ca2a85BC3A2a3328e5c09b4",
        "115792089237316195423570985008687907853269984665640564039457584007913129639935"
      ],
      "transaction": {
        "from": "0x3e723f6b81431f325e3f08e75544f254c182afe2",
        "to": "0xf7ec23380bb7adedaf4c69239b66e444b4aaffdb",
        "gas": "0x96a4",
        "value": "0x0",
        "input": "0x095ea7b3000000000000000000000000429ba70129df741b2ca2a85bc3a2a3328e5c09b4ffffffffffffffffffffffffffffffffffffffffffffffffffffffffffffffff",
        "nonce": "0x590",
        "chainId": "0xaa36a7"
      },
      "additionalContracts": [],
      "isFixedGasLimit": false
    },
    {
      "hash": "0x957e4608acb46907e4f1cba3a74ee82b2a5d1399efc7ad3ab0847e054d508c58",
      "transactionType": "CALL",
      "contractName": null,
      "contractAddress": "0x0e42efc341d5ef175db4ce9516d13eecc379e9ec",
      "function": "approve(address,uint256)",
      "arguments": [
        "0x429ba70129df741B2Ca2a85BC3A2a3328e5c09b4",
        "115792089237316195423570985008687907853269984665640564039457584007913129639935"
      ],
      "transaction": {
        "from": "0x3e723f6b81431f325e3f08e75544f254c182afe2",
        "to": "0x0e42efc341d5ef175db4ce9516d13eecc379e9ec",
        "gas": "0x96a4",
        "value": "0x0",
        "input": "0x095ea7b3000000000000000000000000429ba70129df741b2ca2a85bc3a2a3328e5c09b4ffffffffffffffffffffffffffffffffffffffffffffffffffffffffffffffff",
        "nonce": "0x591",
        "chainId": "0xaa36a7"
      },
      "additionalContracts": [],
      "isFixedGasLimit": false
    },
    {
      "hash": "0x2405049309b4fa6d6519ca50a0b8821445c8037ec1cf754ad9275aa81cc0604e",
      "transactionType": "CALL",
      "contractName": null,
      "contractAddress": "0x429ba70129df741b2ca2a85bc3a2a3328e5c09b4",
      "function": "multicall(bytes[])",
      "arguments": [
        "[0xdd46508f00000000000000000000000000000000000000000000000000000000000000400000000000000000000000000000000000000000000000000000000068cb02f00000000000000000000000000000000000000000000000000000000000000400000000000000000000000000000000000000000000000000000000000000004000000000000000000000000000000000000000000000000000000000000000800000000000000000000000000000000000000000000000000000000000000004020d14140000000000000000000000000000000000000000000000000000000000000000000000000000000000000000000000000000000000000000000000040000000000000000000000000000000000000000000000000000000000000080000000000000000000000000000000000000000000000000000000000000024000000000000000000000000000000000000000000000000000000000000002a0000000000000000000000000000000000000000000000000000000000000030000000000000000000000000000000000000000000000000000000000000001a00000000000000000000000000e42efc341d5ef175db4ce9516d13eecc379e9ec000000000000000000000000f7ec23380bb7adedaf4c69239b66e444b4aaffdb0000000000000000000000000000000000000000000000000000000000000bb8000000000000000000000000000000000000000000000000000000000000003c0000000000000000000000000000000000000000000000000000000000000000000000000000000000000000000000000000000000000000000000000000000000000000000000000000000000000000000000000000000000000000000002580000000000000000000000000000000000000000000000002ef57eae08ae2b56000000000000000000000000000000000000000000000000016345785d8a00010000000000000000000000000000000000000000000000000000000005f5e1010000000000000000000000003e723f6b81431f325e3f08e75544f254c182afe20000000000000000000000000000000000000000000000000000000000000180000000000000000000000000000000000000000000000000000000000000000000000000000000000000000000000000000000000000000000000000000000400000000000000000000000000e42efc341d5ef175db4ce9516d13eecc379e9ec000000000000000000000000f7ec23380bb7adedaf4c69239b66e444b4aaffdb00000000000000000000000000000000000000000000000000000000000000400000000000000000000000000e42efc341d5ef175db4ce9516d13eecc379e9ec0000000000000000000000003e723f6b81431f325e3f08e75544f254c182afe20000000000000000000000000000000000000000000000000000000000000040000000000000000000000000f7ec23380bb7adedaf4c69239b66e444b4aaffdb0000000000000000000000003e723f6b81431f325e3f08e75544f254c182afe2]"
      ],
      "transaction": {
        "from": "0x3e723f6b81431f325e3f08e75544f254c182afe2",
        "to": "0x429ba70129df741b2ca2a85bc3a2a3328e5c09b4",
        "gas": "0x48318",
        "value": "0x0",
        "input": "0xac9650d80000000000000000000000000000000000000000000000000000000000000020000000000000000000000000000000000000000000000000000000000000000100000000000000000000000000000000000000000000000000000000000000200000000000000000000000000000000000000000000000000000000000000464dd46508f00000000000000000000000000000000000000000000000000000000000000400000000000000000000000000000000000000000000000000000000068cb02f00000000000000000000000000000000000000000000000000000000000000400000000000000000000000000000000000000000000000000000000000000004000000000000000000000000000000000000000000000000000000000000000800000000000000000000000000000000000000000000000000000000000000004020d14140000000000000000000000000000000000000000000000000000000000000000000000000000000000000000000000000000000000000000000000040000000000000000000000000000000000000000000000000000000000000080000000000000000000000000000000000000000000000000000000000000024000000000000000000000000000000000000000000000000000000000000002a0000000000000000000000000000000000000000000000000000000000000030000000000000000000000000000000000000000000000000000000000000001a00000000000000000000000000e42efc341d5ef175db4ce9516d13eecc379e9ec000000000000000000000000f7ec23380bb7adedaf4c69239b66e444b4aaffdb0000000000000000000000000000000000000000000000000000000000000bb8000000000000000000000000000000000000000000000000000000000000003c0000000000000000000000000000000000000000000000000000000000000000000000000000000000000000000000000000000000000000000000000000000000000000000000000000000000000000000000000000000000000000000002580000000000000000000000000000000000000000000000002ef57eae08ae2b56000000000000000000000000000000000000000000000000016345785d8a00010000000000000000000000000000000000000000000000000000000005f5e1010000000000000000000000003e723f6b81431f325e3f08e75544f254c182afe20000000000000000000000000000000000000000000000000000000000000180000000000000000000000000000000000000000000000000000000000000000000000000000000000000000000000000000000000000000000000000000000400000000000000000000000000e42efc341d5ef175db4ce9516d13eecc379e9ec000000000000000000000000f7ec23380bb7adedaf4c69239b66e444b4aaffdb00000000000000000000000000000000000000000000000000000000000000400000000000000000000000000e42efc341d5ef175db4ce9516d13eecc379e9ec0000000000000000000000003e723f6b81431f325e3f08e75544f254c182afe20000000000000000000000000000000000000000000000000000000000000040000000000000000000000000f7ec23380bb7adedaf4c69239b66e444b4aaffdb0000000000000000000000003e723f6b81431f325e3f08e75544f254c182afe200000000000000000000000000000000000000000000000000000000",
        "nonce": "0x592",
        "chainId": "0xaa36a7"
      },
      "additionalContracts": [],
      "isFixedGasLimit": false
    },
    {
      "hash": "0x5158c481389b0828ff3f66c64e2f5bd236b065d1bb95678a52f9b9836bcf82d7",
      "transactionType": "CALL",
      "contractName": null,
      "contractAddress": "0xf7ec23380bb7adedaf4c69239b66e444b4aaffdb",
      "function": "approve(address,uint256)",
      "arguments": [
        "0xf13D190e9117920c703d79B5F33732e10049b115",
        "115792089237316195423570985008687907853269984665640564039457584007913129639935"
      ],
      "transaction": {
        "from": "0x3e723f6b81431f325e3f08e75544f254c182afe2",
        "to": "0xf7ec23380bb7adedaf4c69239b66e444b4aaffdb",
        "gas": "0x8e35",
        "value": "0x0",
        "input": "0x095ea7b3000000000000000000000000f13d190e9117920c703d79b5f33732e10049b115ffffffffffffffffffffffffffffffffffffffffffffffffffffffffffffffff",
        "nonce": "0x593",
        "chainId": "0xaa36a7"
      },
      "additionalContracts": [],
      "isFixedGasLimit": false
    },
    {
      "hash": "0x62b25a7c5ca614cd8c95d230f340b37e64d76ce2899bf0c5002cfd5f9ab2e962",
      "transactionType": "CALL",
      "contractName": null,
      "contractAddress": "0x0e42efc341d5ef175db4ce9516d13eecc379e9ec",
      "function": "approve(address,uint256)",
      "arguments": [
        "0xf13D190e9117920c703d79B5F33732e10049b115",
        "115792089237316195423570985008687907853269984665640564039457584007913129639935"
      ],
      "transaction": {
        "from": "0x3e723f6b81431f325e3f08e75544f254c182afe2",
        "to": "0x0e42efc341d5ef175db4ce9516d13eecc379e9ec",
        "gas": "0x8e35",
        "value": "0x0",
        "input": "0x095ea7b3000000000000000000000000f13d190e9117920c703d79b5f33732e10049b115ffffffffffffffffffffffffffffffffffffffffffffffffffffffffffffffff",
        "nonce": "0x594",
        "chainId": "0xaa36a7"
      },
      "additionalContracts": [],
      "isFixedGasLimit": false
    },
    {
      "hash": "0xd05de8ed2b3eb04e82ce595c6bfdbd046b78442aec4ef433051f82d52f499774",
      "transactionType": "CALL",
      "contractName": null,
      "contractAddress": "0xf13d190e9117920c703d79b5f33732e10049b115",
      "function": "swapExactTokensForTokens(uint256,uint256,bool,(address,address,uint24,int24,address),bytes,address,uint256)",
      "arguments": [
        "1000000",
        "0",
        "true",
        "(0x0E42Efc341d5ef175dB4CE9516d13eecC379e9Ec, 0xf7eC23380BB7adEdaf4c69239B66e444B4aaffDb, 3000, 60, 0x0faF3047Dc05328c5251a7BeEF8408c4d3A23880)",
        "0x",
        "0x3e723f6B81431f325E3F08e75544F254C182AFE2",
        "1758138564"
      ],
      "transaction": {
        "from": "0x3e723f6b81431f325e3f08e75544f254c182afe2",
        "to": "0xf13d190e9117920c703d79b5f33732e10049b115",
        "gas": "0x4d6d4",
        "value": "0x0",
        "input": "0xb1a0d57100000000000000000000000000000000000000000000000000000000000f4240000000000000000000000000000000000000000000000000000000000000000000000000000000000000000000000000000000000000000000000000000000010000000000000000000000000e42efc341d5ef175db4ce9516d13eecc379e9ec000000000000000000000000f7ec23380bb7adedaf4c69239b66e444b4aaffdb0000000000000000000000000000000000000000000000000000000000000bb8000000000000000000000000000000000000000000000000000000000000003c0000000000000000000000000faf3047dc05328c5251a7beef8408c4d3a2388000000000000000000000000000000000000000000000000000000000000001600000000000000000000000003e723f6b81431f325e3f08e75544f254c182afe20000000000000000000000000000000000000000000000000000000068cb10c40000000000000000000000000000000000000000000000000000000000000000",
        "nonce": "0x595",
        "chainId": "0xaa36a7"
      },
      "additionalContracts": [],
      "isFixedGasLimit": false
    }
  ],
  "receipts": [
    {
      "status": "0x1",
      "cumulativeGasUsed": "0x136be24",
      "logs": [
        {
          "address": "0xea30c4b8b44078bbf8a6ef5b9f1ec1626c7848d9",
          "topics": [
            "0xe9de54a3e7ddf0c48cc6e1134185300d5a71acbf2d8c21fcdefa9d9dd9e20ac1"
          ],
          "data": "0xa086c907b116b1572126a2ccfaa5f6524f347f8a1d8378ce37b958e0cccc880000000000000000000000000000000000000000000000000000000000000000a000000000000000000000000000000000000000000000000000000000000001f400000000000000000000000000000000000000000000000000000000000000080000000000000000000000000000000000000000000000000000000000000000000000000000000000000000000000000000000000000000000000000000000e7472697669616c456e6372797074000000000000000000000000000000000000",
          "blockHash": "0x5ce55b18d1feea045201abf57d24bac3aec05ea89b905d13c01822b42ec4a337",
          "blockNumber": "0x8cbe08",
          "blockTimestamp": "0x68cb02e4",
          "transactionHash": "0x4ccc1bd18df8027a3bffabb4823e445afd52459516bef99be0320e7987aac7ee",
          "transactionIndex": "0x7f",
          "logIndex": "0x95",
          "removed": false
        },
        {
          "address": "0xea30c4b8b44078bbf8a6ef5b9f1ec1626c7848d9",
          "topics": [
            "0xe9de54a3e7ddf0c48cc6e1134185300d5a71acbf2d8c21fcdefa9d9dd9e20ac1"
          ],
          "data": "0xcc63d19e9a0f97a43bc73dca1ee8b6f4b645d8919747695fa5d1d0da853a840000000000000000000000000000000000000000000000000000000000000000a00000000000000000000000000000000000000000000000000000000000000e1000000000000000000000000000000000000000000000000000000000000000040000000000000000000000000000000000000000000000000000000000000000000000000000000000000000000000000000000000000000000000000000000e7472697669616c456e6372797074000000000000000000000000000000000000",
          "blockHash": "0x5ce55b18d1feea045201abf57d24bac3aec05ea89b905d13c01822b42ec4a337",
          "blockNumber": "0x8cbe08",
          "blockTimestamp": "0x68cb02e4",
          "transactionHash": "0x4ccc1bd18df8027a3bffabb4823e445afd52459516bef99be0320e7987aac7ee",
          "transactionIndex": "0x7f",
          "logIndex": "0x96",
          "removed": false
        },
        {
          "address": "0xea30c4b8b44078bbf8a6ef5b9f1ec1626c7848d9",
          "topics": [
            "0xe9de54a3e7ddf0c48cc6e1134185300d5a71acbf2d8c21fcdefa9d9dd9e20ac1"
          ],
          "data": "0xcdef58c863398f789d9953afd1326207812f448c90165e6886555071b2f4840000000000000000000000000000000000000000000000000000000000000000a000000000000000000000000000000000000000000000000000000000000000c800000000000000000000000000000000000000000000000000000000000000040000000000000000000000000000000000000000000000000000000000000000000000000000000000000000000000000000000000000000000000000000000e7472697669616c456e6372797074000000000000000000000000000000000000",
          "blockHash": "0x5ce55b18d1feea045201abf57d24bac3aec05ea89b905d13c01822b42ec4a337",
          "blockNumber": "0x8cbe08",
          "blockTimestamp": "0x68cb02e4",
          "transactionHash": "0x4ccc1bd18df8027a3bffabb4823e445afd52459516bef99be0320e7987aac7ee",
          "transactionIndex": "0x7f",
          "logIndex": "0x97",
          "removed": false
        },
        {
          "address": "0xea30c4b8b44078bbf8a6ef5b9f1ec1626c7848d9",
          "topics": [
            "0xe9de54a3e7ddf0c48cc6e1134185300d5a71acbf2d8c21fcdefa9d9dd9e20ac1"
          ],
          "data": "0xb3e26d30bbd0fa3e41a1d86cb7844842fbb2638ed221cf36790bbd9c9f3e800000000000000000000000000000000000000000000000000000000000000000a0000000000000000000000000000000000000000000000000000000000000000100000000000000000000000000000000000000000000000000000000000000000000000000000000000000000000000000000000000000000000000000000000000000000000000000000000000000000000000000000000000000000000000e7472697669616c456e6372797074000000000000000000000000000000000000",
          "blockHash": "0x5ce55b18d1feea045201abf57d24bac3aec05ea89b905d13c01822b42ec4a337",
          "blockNumber": "0x8cbe08",
          "blockTimestamp": "0x68cb02e4",
          "transactionHash": "0x4ccc1bd18df8027a3bffabb4823e445afd52459516bef99be0320e7987aac7ee",
          "transactionIndex": "0x7f",
          "logIndex": "0x98",
          "removed": false
        },
        {
          "address": "0xea30c4b8b44078bbf8a6ef5b9f1ec1626c7848d9",
          "topics": [
            "0xe9de54a3e7ddf0c48cc6e1134185300d5a71acbf2d8c21fcdefa9d9dd9e20ac1"
          ],
          "data": "0xbd85f53fc4f2243f9ffcb22983ba1d224d1e77fdca733b69f7215d316181840000000000000000000000000000000000000000000000000000000000000000a0000000000000000000000000000000000000000000000000000000000000009600000000000000000000000000000000000000000000000000000000000000040000000000000000000000000000000000000000000000000000000000000000000000000000000000000000000000000000000000000000000000000000000e7472697669616c456e6372797074000000000000000000000000000000000000",
          "blockHash": "0x5ce55b18d1feea045201abf57d24bac3aec05ea89b905d13c01822b42ec4a337",
          "blockNumber": "0x8cbe08",
          "blockTimestamp": "0x68cb02e4",
          "transactionHash": "0x4ccc1bd18df8027a3bffabb4823e445afd52459516bef99be0320e7987aac7ee",
          "transactionIndex": "0x7f",
          "logIndex": "0x99",
          "removed": false
        },
        {
          "address": "0x0faf3047dc05328c5251a7beef8408c4d3a23880",
          "topics": [
            "0x18ff1c138c5686b85dc8b4338640ccef29de32ff4fec45a3f6f220bee9783e45",
            "0x07c01ba9ea6c38fed25d1b727430d1ca3e7f621782afc74d25e9f7648367e882"
          ],
          "data": "0x000000000000000000000000000000000000000000000000000000000000008000000000000000000000000000000000000000000000000000000000000000c0000000000000000000000000000000000000000000000000000000000000010000000000000000000000000000000000000000000000000000000000000001400000000000000000000000000000000000000000000000000000000000000020a086c907b116b1572126a2ccfaa5f6524f347f8a1d8378ce37b958e0cccc88000000000000000000000000000000000000000000000000000000000000000020cc63d19e9a0f97a43bc73dca1ee8b6f4b645d8919747695fa5d1d0da853a84000000000000000000000000000000000000000000000000000000000000000020cdef58c863398f789d9953afd1326207812f448c90165e6886555071b2f484000000000000000000000000000000000000000000000000000000000000000020b3e26d30bbd0fa3e41a1d86cb7844842fbb2638ed221cf36790bbd9c9f3e8000",
          "blockHash": "0x5ce55b18d1feea045201abf57d24bac3aec05ea89b905d13c01822b42ec4a337",
          "blockNumber": "0x8cbe08",
          "blockTimestamp": "0x68cb02e4",
          "transactionHash": "0x4ccc1bd18df8027a3bffabb4823e445afd52459516bef99be0320e7987aac7ee",
          "transactionIndex": "0x7f",
          "logIndex": "0x9a",
          "removed": false
        }
      ],
      "logsBloom": "0x00000000000000000000000000000000080000000000000000000000000000000000000000400000000000000000000000000000008000000000000000000000000000100000000000000000000000000000000008000000000000000000000000000000000000000000000000000000000000000000000000000000000000000000000000000000000080000800000001080000000000800000000000000000000000000000000000000000000000000000000000000000000000000000800000000000000000000000000000000000000000000000080000000000000000000000000000000000000200000000000000000000000000000000020200000000",
      "type": "0x2",
      "transactionHash": "0x4ccc1bd18df8027a3bffabb4823e445afd52459516bef99be0320e7987aac7ee",
      "transactionIndex": "0x7f",
      "blockHash": "0x5ce55b18d1feea045201abf57d24bac3aec05ea89b905d13c01822b42ec4a337",
      "blockNumber": "0x8cbe08",
      "gasUsed": "0x2d7b0",
      "effectiveGasPrice": "0x11162c8",
      "from": "0x3e723f6b81431f325e3f08e75544f254c182afe2",
      "to": "0x0faf3047dc05328c5251a7beef8408c4d3a23880",
      "contractAddress": null
    },
    {
      "status": "0x1",
      "cumulativeGasUsed": "0x1386634",
      "logs": [
        {
          "address": "0xea30c4b8b44078bbf8a6ef5b9f1ec1626c7848d9",
          "topics": [
            "0xe9de54a3e7ddf0c48cc6e1134185300d5a71acbf2d8c21fcdefa9d9dd9e20ac1"
          ],
          "data": "0xc290f19dcf7bceb26e550f2bfc2767777b6b3a2e75644053281b2fc1dc88800000000000000000000000000000000000000000000000000000000000000000a0000000000000000000000000000000000000000000000000000000000000000000000000000000000000000000000000000000000000000000000000000000000000000000000000000000000000000000000000000000000000000000000000000000000000000000000000000000000000000000000000000000000000000e7472697669616c456e6372797074000000000000000000000000000000000000",
          "blockHash": "0x5ce55b18d1feea045201abf57d24bac3aec05ea89b905d13c01822b42ec4a337",
          "blockNumber": "0x8cbe08",
          "blockTimestamp": "0x68cb02e4",
          "transactionHash": "0x9c19065a3d89fbaf92aab0734af01e42a5a955720041a1db4e616004bdacaa9e",
          "transactionIndex": "0x81",
          "logIndex": "0x9b",
          "removed": false
        },
        {
          "address": "0x0faf3047dc05328c5251a7beef8408c4d3a23880",
          "topics": [
            "0x18ff1c138c5686b85dc8b4338640ccef29de32ff4fec45a3f6f220bee9783e45",
            "0x07c01ba9ea6c38fed25d1b727430d1ca3e7f621782afc74d25e9f7648367e882"
          ],
          "data": "0x000000000000000000000000000000000000000000000000000000000000008000000000000000000000000000000000000000000000000000000000000000c0000000000000000000000000000000000000000000000000000000000000010000000000000000000000000000000000000000000000000000000000000001400000000000000000000000000000000000000000000000000000000000000020a086c907b116b1572126a2ccfaa5f6524f347f8a1d8378ce37b958e0cccc88000000000000000000000000000000000000000000000000000000000000000020cc63d19e9a0f97a43bc73dca1ee8b6f4b645d8919747695fa5d1d0da853a84000000000000000000000000000000000000000000000000000000000000000020cdef58c863398f789d9953afd1326207812f448c90165e6886555071b2f484000000000000000000000000000000000000000000000000000000000000000020c290f19dcf7bceb26e550f2bfc2767777b6b3a2e75644053281b2fc1dc888000",
          "blockHash": "0x5ce55b18d1feea045201abf57d24bac3aec05ea89b905d13c01822b42ec4a337",
          "blockNumber": "0x8cbe08",
          "blockTimestamp": "0x68cb02e4",
          "transactionHash": "0x9c19065a3d89fbaf92aab0734af01e42a5a955720041a1db4e616004bdacaa9e",
          "transactionIndex": "0x81",
          "logIndex": "0x9c",
          "removed": false
        }
      ],
      "logsBloom": "0x00000000000000000000000000000000080000000000000000000000000000000000000000400000000000000000000000000000008000000000000000000000000000100000000000000000000000000000000008000000000000000000000000000000000000000000000000000000000000000000000000000000000000000000000000000000000080000800000001080000000000800000000000000000000000000000000000000000000000000000000000000000000000000000800000000000000000000000000000000000000000000000080000000000000000000000000000000000000200000000000000000000000000000000020200000000",
      "type": "0x2",
      "transactionHash": "0x9c19065a3d89fbaf92aab0734af01e42a5a955720041a1db4e616004bdacaa9e",
      "transactionIndex": "0x81",
      "blockHash": "0x5ce55b18d1feea045201abf57d24bac3aec05ea89b905d13c01822b42ec4a337",
      "blockNumber": "0x8cbe08",
      "gasUsed": "0x15608",
      "effectiveGasPrice": "0x11162c8",
      "from": "0x3e723f6b81431f325e3f08e75544f254c182afe2",
      "to": "0x0faf3047dc05328c5251a7beef8408c4d3a23880",
      "contractAddress": null
    },
    {
      "status": "0x1",
      "cumulativeGasUsed": "0x139bc4d",
      "logs": [
        {
          "address": "0xea30c4b8b44078bbf8a6ef5b9f1ec1626c7848d9",
          "topics": [
            "0xe9de54a3e7ddf0c48cc6e1134185300d5a71acbf2d8c21fcdefa9d9dd9e20ac1"
          ],
          "data": "0xb3e26d30bbd0fa3e41a1d86cb7844842fbb2638ed221cf36790bbd9c9f3e800000000000000000000000000000000000000000000000000000000000000000a0000000000000000000000000000000000000000000000000000000000000000100000000000000000000000000000000000000000000000000000000000000000000000000000000000000000000000000000000000000000000000000000000000000000000000000000000000000000000000000000000000000000000000e7472697669616c456e6372797074000000000000000000000000000000000000",
          "blockHash": "0x5ce55b18d1feea045201abf57d24bac3aec05ea89b905d13c01822b42ec4a337",
          "blockNumber": "0x8cbe08",
          "blockTimestamp": "0x68cb02e4",
          "transactionHash": "0xff6a233bf85b3ba58432c9dad2983fd82ae234a01e7c3daeabeef3720e064578",
          "transactionIndex": "0x82",
          "logIndex": "0x9d",
          "removed": false
        },
        {
          "address": "0x0faf3047dc05328c5251a7beef8408c4d3a23880",
          "topics": [
            "0x18ff1c138c5686b85dc8b4338640ccef29de32ff4fec45a3f6f220bee9783e45",
            "0x07c01ba9ea6c38fed25d1b727430d1ca3e7f621782afc74d25e9f7648367e882"
          ],
          "data": "0x000000000000000000000000000000000000000000000000000000000000008000000000000000000000000000000000000000000000000000000000000000c0000000000000000000000000000000000000000000000000000000000000010000000000000000000000000000000000000000000000000000000000000001400000000000000000000000000000000000000000000000000000000000000020a086c907b116b1572126a2ccfaa5f6524f347f8a1d8378ce37b958e0cccc88000000000000000000000000000000000000000000000000000000000000000020cc63d19e9a0f97a43bc73dca1ee8b6f4b645d8919747695fa5d1d0da853a84000000000000000000000000000000000000000000000000000000000000000020cdef58c863398f789d9953afd1326207812f448c90165e6886555071b2f484000000000000000000000000000000000000000000000000000000000000000020b3e26d30bbd0fa3e41a1d86cb7844842fbb2638ed221cf36790bbd9c9f3e8000",
          "blockHash": "0x5ce55b18d1feea045201abf57d24bac3aec05ea89b905d13c01822b42ec4a337",
          "blockNumber": "0x8cbe08",
          "blockTimestamp": "0x68cb02e4",
          "transactionHash": "0xff6a233bf85b3ba58432c9dad2983fd82ae234a01e7c3daeabeef3720e064578",
          "transactionIndex": "0x82",
          "logIndex": "0x9e",
          "removed": false
        }
      ],
      "logsBloom": "0x00000000000000000000000000000000080000000000000000000000000000000000000000400000000000000000000000000000008000000000000000000000000000100000000000000000000000000000000008000000000000000000000000000000000000000000000000000000000000000000000000000000000000000000000000000000000080000800000001080000000000800000000000000000000000000000000000000000000000000000000000000000000000000000800000000000000000000000000000000000000000000000080000000000000000000000000000000000000200000000000000000000000000000000020200000000",
      "type": "0x2",
      "transactionHash": "0xff6a233bf85b3ba58432c9dad2983fd82ae234a01e7c3daeabeef3720e064578",
      "transactionIndex": "0x82",
      "blockHash": "0x5ce55b18d1feea045201abf57d24bac3aec05ea89b905d13c01822b42ec4a337",
      "blockNumber": "0x8cbe08",
      "gasUsed": "0x15619",
      "effectiveGasPrice": "0x11162c8",
      "from": "0x3e723f6b81431f325e3f08e75544f254c182afe2",
      "to": "0x0faf3047dc05328c5251a7beef8408c4d3a23880",
      "contractAddress": null
    },
    {
      "status": "0x1",
      "cumulativeGasUsed": "0x13a384e",
      "logs": [
        {
          "address": "0x0faf3047dc05328c5251a7beef8408c4d3a23880",
          "topics": [
            "0xf354ce2d046227bb2a8db43674dab621b47724bc45cbc0b228a001245d53fd77",
            "0x07c01ba9ea6c38fed25d1b727430d1ca3e7f621782afc74d25e9f7648367e882"
          ],
          "data": "0x",
          "blockHash": "0x5ce55b18d1feea045201abf57d24bac3aec05ea89b905d13c01822b42ec4a337",
          "blockNumber": "0x8cbe08",
          "blockTimestamp": "0x68cb02e4",
          "transactionHash": "0x384d059de990e9436159230b69e7a9112e597673d01d40fcad073462bd41c482",
          "transactionIndex": "0x83",
          "logIndex": "0x9f",
          "removed": false
        }
      ],
      "logsBloom": "0x00000800000000000000000000000000000000000000000000000000000000000000000000400000000000000000000000000000000000000000000000000000000000100000000000000000000000000080000000000000000000000000000000000000000000000000000000000000000000000000000000000000000000000000000000000000000080000000000000080000000000800000000000000000000000000000000000000000000000000000000000000000000000000000800000000000000000000000000000000200000000000000000000000000000000000000000000000000000000000000000000000000000000000000000000000000",
      "type": "0x2",
      "transactionHash": "0x384d059de990e9436159230b69e7a9112e597673d01d40fcad073462bd41c482",
      "transactionIndex": "0x83",
      "blockHash": "0x5ce55b18d1feea045201abf57d24bac3aec05ea89b905d13c01822b42ec4a337",
      "blockNumber": "0x8cbe08",
      "gasUsed": "0x7c01",
      "effectiveGasPrice": "0x11162c8",
      "from": "0x3e723f6b81431f325e3f08e75544f254c182afe2",
      "to": "0x0faf3047dc05328c5251a7beef8408c4d3a23880",
      "contractAddress": null
    },
    {
      "status": "0x1",
      "cumulativeGasUsed": "0x13ab3d1",
      "logs": [
        {
          "address": "0x0faf3047dc05328c5251a7beef8408c4d3a23880",
          "topics": [
            "0xc4be386fe9fd651a56e42b3b831dd4bf6afaa363eb2d21181fe7e23a8ff50279",
            "0x07c01ba9ea6c38fed25d1b727430d1ca3e7f621782afc74d25e9f7648367e882"
          ],
          "data": "0x",
          "blockHash": "0x5ce55b18d1feea045201abf57d24bac3aec05ea89b905d13c01822b42ec4a337",
          "blockNumber": "0x8cbe08",
          "blockTimestamp": "0x68cb02e4",
          "transactionHash": "0x085daa2b88aba8bb9f4ba1c57219f16b5defa3c5f99454865d6a2d271950c8fe",
          "transactionIndex": "0x84",
          "logIndex": "0xa0",
          "removed": false
        }
      ],
      "logsBloom": "0x00000000000000000000000000000000000000000000000000000000000000000000000000400000000000000000000000000000000000000000000000000000000000100000000000000000000000000000000000000000000000000000000000000000000000000000000000000000000000000000000000000000000000100000000000000000000080000000000004080000000000800000000000000000000000001000000000000000000000000000000000000000000000000000800000000000000000000000000000000000000000000000000000000000000000000000000000000000000000000000000000000000000000000000000000000000",
      "type": "0x2",
      "transactionHash": "0x085daa2b88aba8bb9f4ba1c57219f16b5defa3c5f99454865d6a2d271950c8fe",
      "transactionIndex": "0x84",
      "blockHash": "0x5ce55b18d1feea045201abf57d24bac3aec05ea89b905d13c01822b42ec4a337",
      "blockNumber": "0x8cbe08",
      "gasUsed": "0x7b83",
      "effectiveGasPrice": "0x11162c8",
      "from": "0x3e723f6b81431f325e3f08e75544f254c182afe2",
      "to": "0x0faf3047dc05328c5251a7beef8408c4d3a23880",
      "contractAddress": null
    },
    {
      "status": "0x1",
      "cumulativeGasUsed": "0x13b1ad2",
      "logs": [
        {
          "address": "0xf7ec23380bb7adedaf4c69239b66e444b4aaffdb",
          "topics": [
            "0x8c5be1e5ebec7d5bd14f71427d1e84f3dd0314c0f7b2291e5b200ac8c7c3b925",
            "0x0000000000000000000000003e723f6b81431f325e3f08e75544f254c182afe2",
            "0x000000000000000000000000429ba70129df741b2ca2a85bc3a2a3328e5c09b4"
          ],
          "data": "0xffffffffffffffffffffffffffffffffffffffffffffffffffffffffffffffff",
          "blockHash": "0x5ce55b18d1feea045201abf57d24bac3aec05ea89b905d13c01822b42ec4a337",
          "blockNumber": "0x8cbe08",
          "blockTimestamp": "0x68cb02e4",
          "transactionHash": "0x319134b51efe945ed9b7813f78ceb3089b72186cf9cd2911beaac5c5d835da55",
          "transactionIndex": "0x85",
          "logIndex": "0xa1",
          "removed": false
        }
      ],
      "logsBloom": "0x00000000000000000000000000000000000000000000040000000000000000000000000000000040080000000000000020000000080000000000000000200000000000000000000000000100000000000000000000000000000000000000000000000000000000000000000000000000000000000000000000000800000000000000000000000000000000000000000000000000000000000000000000000000020000000000000080000000000000000000000000000000000010000000000000000000000000000000000000000000000000000000000000000000000000000010000000000000000000000000000000000000000000000000000000000000",
      "type": "0x2",
      "transactionHash": "0x319134b51efe945ed9b7813f78ceb3089b72186cf9cd2911beaac5c5d835da55",
      "transactionIndex": "0x85",
      "blockHash": "0x5ce55b18d1feea045201abf57d24bac3aec05ea89b905d13c01822b42ec4a337",
      "blockNumber": "0x8cbe08",
      "gasUsed": "0x6701",
      "effectiveGasPrice": "0x11162c8",
      "from": "0x3e723f6b81431f325e3f08e75544f254c182afe2",
      "to": "0xf7ec23380bb7adedaf4c69239b66e444b4aaffdb",
      "contractAddress": null
    },
    {
      "status": "0x1",
      "cumulativeGasUsed": "0x13b81d3",
      "logs": [
        {
          "address": "0x0e42efc341d5ef175db4ce9516d13eecc379e9ec",
          "topics": [
            "0x8c5be1e5ebec7d5bd14f71427d1e84f3dd0314c0f7b2291e5b200ac8c7c3b925",
            "0x0000000000000000000000003e723f6b81431f325e3f08e75544f254c182afe2",
            "0x000000000000000000000000429ba70129df741b2ca2a85bc3a2a3328e5c09b4"
          ],
          "data": "0xffffffffffffffffffffffffffffffffffffffffffffffffffffffffffffffff",
          "blockHash": "0x5ce55b18d1feea045201abf57d24bac3aec05ea89b905d13c01822b42ec4a337",
          "blockNumber": "0x8cbe08",
          "blockTimestamp": "0x68cb02e4",
          "transactionHash": "0x957e4608acb46907e4f1cba3a74ee82b2a5d1399efc7ad3ab0847e054d508c58",
          "transactionIndex": "0x86",
          "logIndex": "0xa2",
          "removed": false
        }
      ],
      "logsBloom": "0x00000000080000000000000000000000000000000000000000000000000000000000000000000040080000000000080000000000080000000000000000200000000000000000000000000008000000000000000000000000000000000000000000000000000000000000000000000000000000000000000000000800000000000000000000000000000000000000000000000000000000000000000000000000020000000000000080000000000000000000000000000000000010000000000000000000000000000000000000000000000000000000000000000000000000000010000000000000000000000000000000000000000000000000000000000000",
      "type": "0x2",
      "transactionHash": "0x957e4608acb46907e4f1cba3a74ee82b2a5d1399efc7ad3ab0847e054d508c58",
      "transactionIndex": "0x86",
      "blockHash": "0x5ce55b18d1feea045201abf57d24bac3aec05ea89b905d13c01822b42ec4a337",
      "blockNumber": "0x8cbe08",
      "gasUsed": "0x6701",
      "effectiveGasPrice": "0x11162c8",
      "from": "0x3e723f6b81431f325e3f08e75544f254c182afe2",
      "to": "0x0e42efc341d5ef175db4ce9516d13eecc379e9ec",
      "contractAddress": null
    },
    {
      "status": "0x1",
      "cumulativeGasUsed": "0x13ec618",
      "logs": [
        {
          "address": "0x429ba70129df741b2ca2a85bc3a2a3328e5c09b4",
          "topics": [
            "0xddf252ad1be2c89b69c2b068fc378daa952ba7f163c4a11628f55a4df523b3ef",
            "0x0000000000000000000000000000000000000000000000000000000000000000",
            "0x0000000000000000000000003e723f6b81431f325e3f08e75544f254c182afe2",
            "0x0000000000000000000000000000000000000000000000000000000000004320"
          ],
          "data": "0x",
          "blockHash": "0x5ce55b18d1feea045201abf57d24bac3aec05ea89b905d13c01822b42ec4a337",
          "blockNumber": "0x8cbe08",
          "blockTimestamp": "0x68cb02e4",
          "transactionHash": "0x2405049309b4fa6d6519ca50a0b8821445c8037ec1cf754ad9275aa81cc0604e",
          "transactionIndex": "0x87",
          "logIndex": "0xa3",
          "removed": false
        },
        {
          "address": "0xe03a1074c86cfedd5c142c4f04f1a1536e203543",
          "topics": [
            "0xf208f4912782fd25c7f114ca3723a2d5dd6f3bcc3ac8db5af63baa85f711d5ec",
            "0x41a36aeca49dedb0ecb60f7f1051a4f6c02ccd756217aa04964655d2f245623c",
            "0x000000000000000000000000429ba70129df741b2ca2a85bc3a2a3328e5c09b4"
          ],
          "data": "0x000000000000000000000000000000000000000000000000000000000000000000000000000000000000000000000000000000000000000000000000000002580000000000000000000000000000000000000000000000002ef57eae08ae2b560000000000000000000000000000000000000000000000000000000000004320",
          "blockHash": "0x5ce55b18d1feea045201abf57d24bac3aec05ea89b905d13c01822b42ec4a337",
          "blockNumber": "0x8cbe08",
          "blockTimestamp": "0x68cb02e4",
          "transactionHash": "0x2405049309b4fa6d6519ca50a0b8821445c8037ec1cf754ad9275aa81cc0604e",
          "transactionIndex": "0x87",
          "logIndex": "0xa4",
          "removed": false
        },
        {
          "address": "0x0e42efc341d5ef175db4ce9516d13eecc379e9ec",
          "topics": [
            "0xddf252ad1be2c89b69c2b068fc378daa952ba7f163c4a11628f55a4df523b3ef",
            "0x0000000000000000000000003e723f6b81431f325e3f08e75544f254c182afe2",
            "0x000000000000000000000000e03a1074c86cfedd5c142c4f04f1a1536e203543"
          ],
          "data": "0x000000000000000000000000000000000000000000000000016345785d8a0000",
          "blockHash": "0x5ce55b18d1feea045201abf57d24bac3aec05ea89b905d13c01822b42ec4a337",
          "blockNumber": "0x8cbe08",
          "blockTimestamp": "0x68cb02e4",
          "transactionHash": "0x2405049309b4fa6d6519ca50a0b8821445c8037ec1cf754ad9275aa81cc0604e",
          "transactionIndex": "0x87",
          "logIndex": "0xa5",
          "removed": false
        }
      ],
      "logsBloom": "0x00000000080000000000001000000000000000000000000000000000280000000000000000000040080000000000080000000100080000000000000000000000000000000000000000000008000000000000000000000000000000000000000000000000020000000000000080000800000000000000100000000810000000000000000001000000000010000000000000000000008200000000000000000000000004000000000080000000000000000000000000400000000010000400000000000102000000000000000000000000000000000000000000001000000020001000000000000000000000000000000004000000000000000000000000000000",
      "type": "0x2",
      "transactionHash": "0x2405049309b4fa6d6519ca50a0b8821445c8037ec1cf754ad9275aa81cc0604e",
      "transactionIndex": "0x87",
      "blockHash": "0x5ce55b18d1feea045201abf57d24bac3aec05ea89b905d13c01822b42ec4a337",
      "blockNumber": "0x8cbe08",
      "gasUsed": "0x34445",
      "effectiveGasPrice": "0x11162c8",
      "from": "0x3e723f6b81431f325e3f08e75544f254c182afe2",
      "to": "0x429ba70129df741b2ca2a85bc3a2a3328e5c09b4",
      "contractAddress": null
    },
    {
      "status": "0x1",
      "cumulativeGasUsed": "0x13f2d0d",
      "logs": [
        {
          "address": "0xf7ec23380bb7adedaf4c69239b66e444b4aaffdb",
          "topics": [
            "0x8c5be1e5ebec7d5bd14f71427d1e84f3dd0314c0f7b2291e5b200ac8c7c3b925",
            "0x0000000000000000000000003e723f6b81431f325e3f08e75544f254c182afe2",
            "0x000000000000000000000000f13d190e9117920c703d79b5f33732e10049b115"
          ],
          "data": "0xffffffffffffffffffffffffffffffffffffffffffffffffffffffffffffffff",
          "blockHash": "0x5ce55b18d1feea045201abf57d24bac3aec05ea89b905d13c01822b42ec4a337",
          "blockNumber": "0x8cbe08",
          "blockTimestamp": "0x68cb02e4",
          "transactionHash": "0x5158c481389b0828ff3f66c64e2f5bd236b065d1bb95678a52f9b9836bcf82d7",
          "transactionIndex": "0x88",
          "logIndex": "0xa6",
          "removed": false
        }
      ],
      "logsBloom": "0x00000000000000000000000000000000000000000000040000800000000000000000000000000000000000000000000020000000080000000000000000200000000000000000000000000100000000000000000000000000000000000000000000000000000000000000000000000000000000000000000000000000000000000000000000080000000000000000000000000000000000000000000000000000020000000000000080000000000000000000000000000000000010000000000000000000000000000000000000000000000000000000000000000000000080000010000000000000000000000000000000000000000000000000000000000000",
      "type": "0x2",
      "transactionHash": "0x5158c481389b0828ff3f66c64e2f5bd236b065d1bb95678a52f9b9836bcf82d7",
      "transactionIndex": "0x88",
      "blockHash": "0x5ce55b18d1feea045201abf57d24bac3aec05ea89b905d13c01822b42ec4a337",
      "blockNumber": "0x8cbe08",
      "gasUsed": "0x66f5",
      "effectiveGasPrice": "0x11162c8",
      "from": "0x3e723f6b81431f325e3f08e75544f254c182afe2",
      "to": "0xf7ec23380bb7adedaf4c69239b66e444b4aaffdb",
      "contractAddress": null
    },
    {
      "status": "0x1",
      "cumulativeGasUsed": "0x13f9402",
      "logs": [
        {
          "address": "0x0e42efc341d5ef175db4ce9516d13eecc379e9ec",
          "topics": [
            "0x8c5be1e5ebec7d5bd14f71427d1e84f3dd0314c0f7b2291e5b200ac8c7c3b925",
            "0x0000000000000000000000003e723f6b81431f325e3f08e75544f254c182afe2",
            "0x000000000000000000000000f13d190e9117920c703d79b5f33732e10049b115"
          ],
          "data": "0xffffffffffffffffffffffffffffffffffffffffffffffffffffffffffffffff",
          "blockHash": "0x5ce55b18d1feea045201abf57d24bac3aec05ea89b905d13c01822b42ec4a337",
          "blockNumber": "0x8cbe08",
          "blockTimestamp": "0x68cb02e4",
          "transactionHash": "0x62b25a7c5ca614cd8c95d230f340b37e64d76ce2899bf0c5002cfd5f9ab2e962",
          "transactionIndex": "0x89",
          "logIndex": "0xa7",
          "removed": false
        }
      ],
      "logsBloom": "0x00000000080000000000000000000000000000000000000000800000000000000000000000000000000000000000080000000000080000000000000000200000000000000000000000000008000000000000000000000000000000000000000000000000000000000000000000000000000000000000000000000000000000000000000000080000000000000000000000000000000000000000000000000000020000000000000080000000000000000000000000000000000010000000000000000000000000000000000000000000000000000000000000000000000080000010000000000000000000000000000000000000000000000000000000000000",
      "type": "0x2",
      "transactionHash": "0x62b25a7c5ca614cd8c95d230f340b37e64d76ce2899bf0c5002cfd5f9ab2e962",
      "transactionIndex": "0x89",
      "blockHash": "0x5ce55b18d1feea045201abf57d24bac3aec05ea89b905d13c01822b42ec4a337",
      "blockNumber": "0x8cbe08",
      "gasUsed": "0x66f5",
      "effectiveGasPrice": "0x11162c8",
      "from": "0x3e723f6b81431f325e3f08e75544f254c182afe2",
      "to": "0x0e42efc341d5ef175db4ce9516d13eecc379e9ec",
      "contractAddress": null
    },
    {
      "status": "0x1",
      "cumulativeGasUsed": "0x14314e6",
      "logs": [
        {
          "address": "0xe03a1074c86cfedd5c142c4f04f1a1536e203543",
          "topics": [
            "0x40e9cecb9f5f1f1c5b9c97dec2917b7ee92e57ba5563708daca94dd84ad7112f",
            "0x07c01ba9ea6c38fed25d1b727430d1ca3e7f621782afc74d25e9f7648367e882",
            "0x000000000000000000000000f13d190e9117920c703d79b5f33732e10049b115"
          ],
          "data": "0xfffffffffffffffffffffffffffffffffffffffffffffffffffffffffff0bdc000000000000000000000000000000000000000000000000000000000000ef1fa0000000000000000000000000000000000000000fdbca5f77c225b35bf0908ec0000000000000000000000000000000000000000000000060f4da7fe284f5deaffffffffffffffffffffffffffffffffffffffffffffffffffffffffffffff4e0000000000000000000000000000000000000000000000000000000000000bb8",
          "blockHash": "0x5ce55b18d1feea045201abf57d24bac3aec05ea89b905d13c01822b42ec4a337",
          "blockNumber": "0x8cbe08",
          "blockTimestamp": "0x68cb02e4",
          "transactionHash": "0xd05de8ed2b3eb04e82ce595c6bfdbd046b78442aec4ef433051f82d52f499774",
          "transactionIndex": "0x8a",
          "logIndex": "0xa8",
          "removed": false
        },
        {
          "address": "0x0e42efc341d5ef175db4ce9516d13eecc379e9ec",
          "topics": [
            "0xddf252ad1be2c89b69c2b068fc378daa952ba7f163c4a11628f55a4df523b3ef",
            "0x0000000000000000000000003e723f6b81431f325e3f08e75544f254c182afe2",
            "0x000000000000000000000000e03a1074c86cfedd5c142c4f04f1a1536e203543"
          ],
          "data": "0x00000000000000000000000000000000000000000000000000000000000f4240",
          "blockHash": "0x5ce55b18d1feea045201abf57d24bac3aec05ea89b905d13c01822b42ec4a337",
          "blockNumber": "0x8cbe08",
          "blockTimestamp": "0x68cb02e4",
          "transactionHash": "0xd05de8ed2b3eb04e82ce595c6bfdbd046b78442aec4ef433051f82d52f499774",
          "transactionIndex": "0x8a",
          "logIndex": "0xa9",
          "removed": false
        },
        {
          "address": "0xf7ec23380bb7adedaf4c69239b66e444b4aaffdb",
          "topics": [
            "0xddf252ad1be2c89b69c2b068fc378daa952ba7f163c4a11628f55a4df523b3ef",
            "0x000000000000000000000000e03a1074c86cfedd5c142c4f04f1a1536e203543",
            "0x0000000000000000000000003e723f6b81431f325e3f08e75544f254c182afe2"
          ],
          "data": "0x00000000000000000000000000000000000000000000000000000000000ef1fa",
          "blockHash": "0x5ce55b18d1feea045201abf57d24bac3aec05ea89b905d13c01822b42ec4a337",
          "blockNumber": "0x8cbe08",
          "blockTimestamp": "0x68cb02e4",
          "transactionHash": "0xd05de8ed2b3eb04e82ce595c6bfdbd046b78442aec4ef433051f82d52f499774",
          "transactionIndex": "0x8a",
          "logIndex": "0xaa",
          "removed": false
        }
      ],
      "logsBloom": "0x000000000800000000000000000000000000000000000400008000000000000000000000004000000000000000000800200001000c0000000000000000000000000000100000000000000108000000000000000000000020000000000000000000000000000000000000000080000000000000000000100000000010000000000000000000080000000010000000000000080000000000000000000000000000000000000000000080000000000000000000000000000000000010000000000000000002000000000000000000000000000000000000000000001000000080001000000000000000004000000000000000000000000000000000000000000000",
      "type": "0x2",
      "transactionHash": "0xd05de8ed2b3eb04e82ce595c6bfdbd046b78442aec4ef433051f82d52f499774",
      "transactionIndex": "0x8a",
      "blockHash": "0x5ce55b18d1feea045201abf57d24bac3aec05ea89b905d13c01822b42ec4a337",
      "blockNumber": "0x8cbe08",
      "gasUsed": "0x380e4",
      "effectiveGasPrice": "0x11162c8",
      "from": "0x3e723f6b81431f325e3f08e75544f254c182afe2",
      "to": "0xf13d190e9117920c703d79b5f33732e10049b115",
      "contractAddress": null
    }
  ],
  "libraries": [],
  "pending": [],
  "returns": {},
  "timestamp": 1758135015033,
  "chain": 11155111,
  "commit": "7b9c819"
}