{
  "transactions": [
    {
      "hash": "0x31c68c5eec6735b94c77137cb2bd765be81c49b46181eb45407f928fbe4a1674",
      "transactionType": "CALL",
      "contractName": null,
      "contractAddress": "0xa502683ee305567d36a7ce8d7ed5952cf816f880",
      "function": "configureEncryptedRebalancingStrategy((address,address,uint24,int24,address),uint24,uint32,int24,bool,uint24)",
      "arguments": [
        "(0x0058863bB78B4325caB9d50Ab75ca43601a9eF6b, 0x5abeC0563014C1C02Eb7a4f6924896e5F92579FC, 3000, 60, 0xa502683Ee305567D36a7Ce8d7ED5952CF816f880)",
        "500",
        "3600",
        "200",
        "true",
        "150"
      ],
      "transaction": {
        "from": "0x3e723f6b81431f325e3f08e75544f254c182afe2",
        "to": "0xa502683ee305567d36a7ce8d7ed5952cf816f880",
        "gas": "0x4297b",
        "value": "0x0",
        "input": "0xa9eb74780000000000000000000000000058863bb78b4325cab9d50ab75ca43601a9ef6b0000000000000000000000005abec0563014c1c02eb7a4f6924896e5f92579fc0000000000000000000000000000000000000000000000000000000000000bb8000000000000000000000000000000000000000000000000000000000000003c000000000000000000000000a502683ee305567d36a7ce8d7ed5952cf816f88000000000000000000000000000000000000000000000000000000000000001f40000000000000000000000000000000000000000000000000000000000000e1000000000000000000000000000000000000000000000000000000000000000c800000000000000000000000000000000000000000000000000000000000000010000000000000000000000000000000000000000000000000000000000000096",
        "nonce": "0x5d5",
        "chainId": "0xaa36a7"
      },
      "additionalContracts": [],
      "isFixedGasLimit": false
    },
    {
      "hash": "0x8212597a3dd6774f5cfc606d616ac7a2107883528ca6af95d07a95316d7801af",
      "transactionType": "CALL",
      "contractName": null,
      "contractAddress": "0xa502683ee305567d36a7ce8d7ed5952cf816f880",
      "function": "pausePoolRebalancing((address,address,uint24,int24,address))",
      "arguments": [
        "(0x0058863bB78B4325caB9d50Ab75ca43601a9eF6b, 0x5abeC0563014C1C02Eb7a4f6924896e5F92579FC, 3000, 60, 0xa502683Ee305567D36a7Ce8d7ED5952CF816f880)"
      ],
      "transaction": {
        "from": "0x3e723f6b81431f325e3f08e75544f254c182afe2",
        "to": "0xa502683ee305567d36a7ce8d7ed5952cf816f880",
        "gas": "0x1d85c",
        "value": "0x0",
        "input": "0xfbdd948f0000000000000000000000000058863bb78b4325cab9d50ab75ca43601a9ef6b0000000000000000000000005abec0563014c1c02eb7a4f6924896e5f92579fc0000000000000000000000000000000000000000000000000000000000000bb8000000000000000000000000000000000000000000000000000000000000003c000000000000000000000000a502683ee305567d36a7ce8d7ed5952cf816f880",
        "nonce": "0x5d6",
        "chainId": "0xaa36a7"
      },
      "additionalContracts": [],
      "isFixedGasLimit": false
    },
    {
      "hash": "0x4c192b60fdffeb46a0b67109c8c5a3eab442ddd66c71dbf4b5e18766d6c9a445",
      "transactionType": "CALL",
      "contractName": null,
      "contractAddress": "0xa502683ee305567d36a7ce8d7ed5952cf816f880",
      "function": "resumePoolRebalancing((address,address,uint24,int24,address))",
      "arguments": [
        "(0x0058863bB78B4325caB9d50Ab75ca43601a9eF6b, 0x5abeC0563014C1C02Eb7a4f6924896e5F92579FC, 3000, 60, 0xa502683Ee305567D36a7Ce8d7ED5952CF816f880)"
      ],
      "transaction": {
        "from": "0x3e723f6b81431f325e3f08e75544f254c182afe2",
        "to": "0xa502683ee305567d36a7ce8d7ed5952cf816f880",
        "gas": "0x1d874",
        "value": "0x0",
        "input": "0xfe0389100000000000000000000000000058863bb78b4325cab9d50ab75ca43601a9ef6b0000000000000000000000005abec0563014c1c02eb7a4f6924896e5f92579fc0000000000000000000000000000000000000000000000000000000000000bb8000000000000000000000000000000000000000000000000000000000000003c000000000000000000000000a502683ee305567d36a7ce8d7ed5952cf816f880",
        "nonce": "0x5d7",
        "chainId": "0xaa36a7"
      },
      "additionalContracts": [],
      "isFixedGasLimit": false
    },
    {
      "hash": "0x06c7d7ecaacd243ab5fb186905d44c08790ce4605fccdd3ee854ae64e3e27f07",
      "transactionType": "CALL",
      "contractName": null,
      "contractAddress": "0xa502683ee305567d36a7ce8d7ed5952cf816f880",
      "function": "deactivatePool((address,address,uint24,int24,address))",
      "arguments": [
        "(0x0058863bB78B4325caB9d50Ab75ca43601a9eF6b, 0x5abeC0563014C1C02Eb7a4f6924896e5F92579FC, 3000, 60, 0xa502683Ee305567D36a7Ce8d7ED5952CF816f880)"
      ],
      "transaction": {
        "from": "0x3e723f6b81431f325e3f08e75544f254c182afe2",
        "to": "0xa502683ee305567d36a7ce8d7ed5952cf816f880",
        "gas": "0xab36",
        "value": "0x0",
        "input": "0x7a2486b50000000000000000000000000058863bb78b4325cab9d50ab75ca43601a9ef6b0000000000000000000000005abec0563014c1c02eb7a4f6924896e5f92579fc0000000000000000000000000000000000000000000000000000000000000bb8000000000000000000000000000000000000000000000000000000000000003c000000000000000000000000a502683ee305567d36a7ce8d7ed5952cf816f880",
        "nonce": "0x5d8",
        "chainId": "0xaa36a7"
      },
      "additionalContracts": [],
      "isFixedGasLimit": false
    },
    {
      "hash": "0xde168387b05517c9626227d0a6b8fb6a06332206e751a6731bdb7e407ad49d54",
      "transactionType": "CALL",
      "contractName": null,
      "contractAddress": "0xa502683ee305567d36a7ce8d7ed5952cf816f880",
      "function": "reactivatePool((address,address,uint24,int24,address))",
      "arguments": [
        "(0x0058863bB78B4325caB9d50Ab75ca43601a9eF6b, 0x5abeC0563014C1C02Eb7a4f6924896e5F92579FC, 3000, 60, 0xa502683Ee305567D36a7Ce8d7ED5952CF816f880)"
      ],
      "transaction": {
        "from": "0x3e723f6b81431f325e3f08e75544f254c182afe2",
        "to": "0xa502683ee305567d36a7ce8d7ed5952cf816f880",
        "gas": "0xaa88",
        "value": "0x0",
        "input": "0x54ee1e530000000000000000000000000058863bb78b4325cab9d50ab75ca43601a9ef6b0000000000000000000000005abec0563014c1c02eb7a4f6924896e5f92579fc0000000000000000000000000000000000000000000000000000000000000bb8000000000000000000000000000000000000000000000000000000000000003c000000000000000000000000a502683ee305567d36a7ce8d7ed5952cf816f880",
        "nonce": "0x5d9",
        "chainId": "0xaa36a7"
      },
      "additionalContracts": [],
      "isFixedGasLimit": false
    },
    {
      "hash": "0x62fb3f0eb8f7eb5dbe43fd76d212b1b9fdd64265f795744028533aff8546709b",
      "transactionType": "CALL",
      "contractName": null,
      "contractAddress": "0x5abec0563014c1c02eb7a4f6924896e5f92579fc",
      "function": "approve(address,uint256)",
      "arguments": [
        "0x429ba70129df741B2Ca2a85BC3A2a3328e5c09b4",
        "115792089237316195423570985008687907853269984665640564039457584007913129639935"
      ],
      "transaction": {
        "from": "0x3e723f6b81431f325e3f08e75544f254c182afe2",
        "to": "0x5abec0563014c1c02eb7a4f6924896e5f92579fc",
        "gas": "0x96a4",
        "value": "0x0",
        "input": "0x095ea7b3000000000000000000000000429ba70129df741b2ca2a85bc3a2a3328e5c09b4ffffffffffffffffffffffffffffffffffffffffffffffffffffffffffffffff",
        "nonce": "0x5da",
        "chainId": "0xaa36a7"
      },
      "additionalContracts": [],
      "isFixedGasLimit": false
    },
    {
      "hash": "0xcd8508e4b786c9b85e60c0e7926c810b6b73a193e41dc26696c56636b732dc65",
      "transactionType": "CALL",
      "contractName": null,
      "contractAddress": "0x0058863bb78b4325cab9d50ab75ca43601a9ef6b",
      "function": "approve(address,uint256)",
      "arguments": [
        "0x429ba70129df741B2Ca2a85BC3A2a3328e5c09b4",
        "115792089237316195423570985008687907853269984665640564039457584007913129639935"
      ],
      "transaction": {
        "from": "0x3e723f6b81431f325e3f08e75544f254c182afe2",
        "to": "0x0058863bb78b4325cab9d50ab75ca43601a9ef6b",
        "gas": "0x96a4",
        "value": "0x0",
        "input": "0x095ea7b3000000000000000000000000429ba70129df741b2ca2a85bc3a2a3328e5c09b4ffffffffffffffffffffffffffffffffffffffffffffffffffffffffffffffff",
        "nonce": "0x5db",
        "chainId": "0xaa36a7"
      },
      "additionalContracts": [],
      "isFixedGasLimit": false
    },
    {
      "hash": "0xb14455a5985be8c1526bccf507535e920d5d17a58230cd46daf5f40b5a5589eb",
      "transactionType": "CALL",
      "contractName": null,
      "contractAddress": "0x5abec0563014c1c02eb7a4f6924896e5f92579fc",
      "function": "approve(address,uint256)",
      "arguments": [
        "0x000000000022D473030F116dDEE9F6B43aC78BA3",
        "115792089237316195423570985008687907853269984665640564039457584007913129639935"
      ],
      "transaction": {
        "from": "0x3e723f6b81431f325e3f08e75544f254c182afe2",
        "to": "0x5abec0563014c1c02eb7a4f6924896e5f92579fc",
        "gas": "0x8df2",
        "value": "0x0",
        "input": "0x095ea7b3000000000000000000000000000000000022d473030f116ddee9f6b43ac78ba3ffffffffffffffffffffffffffffffffffffffffffffffffffffffffffffffff",
        "nonce": "0x5dc",
        "chainId": "0xaa36a7"
      },
      "additionalContracts": [],
      "isFixedGasLimit": false
    },
    {
      "hash": "0x7d03b115422fa0bc6e1ae52d45a06c1e08626c2543797a496f1d0630604d9f92",
      "transactionType": "CALL",
      "contractName": null,
      "contractAddress": "0x000000000022d473030f116ddee9f6b43ac78ba3",
      "function": "approve(address,address,uint160,uint48)",
      "arguments": [
        "0x5abeC0563014C1C02Eb7a4f6924896e5F92579FC",
        "0x429ba70129df741B2Ca2a85BC3A2a3328e5c09b4",
        "1461501637330902918203684832716283019655932542975",
        "281474976710655"
      ],
      "transaction": {
        "from": "0x3e723f6b81431f325e3f08e75544f254c182afe2",
        "to": "0x000000000022d473030f116ddee9f6b43ac78ba3",
        "gas": "0x96a0",
        "value": "0x0",
        "input": "0x87517c450000000000000000000000005abec0563014c1c02eb7a4f6924896e5f92579fc000000000000000000000000429ba70129df741b2ca2a85bc3a2a3328e5c09b4000000000000000000000000ffffffffffffffffffffffffffffffffffffffff0000000000000000000000000000000000000000000000000000ffffffffffff",
        "nonce": "0x5dd",
        "chainId": "0xaa36a7"
      },
      "additionalContracts": [],
      "isFixedGasLimit": false
    },
    {
      "hash": "0xea25836913c3412af47c81e412cc6a37ca872ec5a463e59f10c90cd6fc6c4d45",
      "transactionType": "CALL",
      "contractName": null,
      "contractAddress": "0x0058863bb78b4325cab9d50ab75ca43601a9ef6b",
      "function": "approve(address,uint256)",
      "arguments": [
        "0x000000000022D473030F116dDEE9F6B43aC78BA3",
        "115792089237316195423570985008687907853269984665640564039457584007913129639935"
      ],
      "transaction": {
        "from": "0x3e723f6b81431f325e3f08e75544f254c182afe2",
        "to": "0x0058863bb78b4325cab9d50ab75ca43601a9ef6b",
        "gas": "0x8df2",
        "value": "0x0",
        "input": "0x095ea7b3000000000000000000000000000000000022d473030f116ddee9f6b43ac78ba3ffffffffffffffffffffffffffffffffffffffffffffffffffffffffffffffff",
        "nonce": "0x5de",
        "chainId": "0xaa36a7"
      },
      "additionalContracts": [],
      "isFixedGasLimit": false
    },
    {
      "hash": "0x0058e3b07cf8b32baa793ec73366fb7314d1f390cd2eaedc0a782470787a271c",
      "transactionType": "CALL",
      "contractName": null,
      "contractAddress": "0x000000000022d473030f116ddee9f6b43ac78ba3",
      "function": "approve(address,address,uint160,uint48)",
      "arguments": [
        "0x0058863bB78B4325caB9d50Ab75ca43601a9eF6b",
        "0x429ba70129df741B2Ca2a85BC3A2a3328e5c09b4",
        "1461501637330902918203684832716283019655932542975",
        "281474976710655"
      ],
      "transaction": {
        "from": "0x3e723f6b81431f325e3f08e75544f254c182afe2",
        "to": "0x000000000022d473030f116ddee9f6b43ac78ba3",
        "gas": "0x9f6c",
        "value": "0x0",
        "input": "0x87517c450000000000000000000000000058863bb78b4325cab9d50ab75ca43601a9ef6b000000000000000000000000429ba70129df741b2ca2a85bc3a2a3328e5c09b4000000000000000000000000ffffffffffffffffffffffffffffffffffffffff0000000000000000000000000000000000000000000000000000ffffffffffff",
        "nonce": "0x5df",
        "chainId": "0xaa36a7"
      },
      "additionalContracts": [],
      "isFixedGasLimit": false
    },
    {
      "hash": "0xdeaba0d42e9f41308e546ecbc0baf25fc492e2742c74a0709780f6eddf40a614",
      "transactionType": "CALL",
      "contractName": null,
      "contractAddress": "0x429ba70129df741b2ca2a85bc3a2a3328e5c09b4",
      "function": "multicall(bytes[])",
      "arguments": [
        "[0xdd46508f00000000000000000000000000000000000000000000000000000000000000400000000000000000000000000000000000000000000000000000000068cb8ee80000000000000000000000000000000000000000000000000000000000000400000000000000000000000000000000000000000000000000000000000000004000000000000000000000000000000000000000000000000000000000000000800000000000000000000000000000000000000000000000000000000000000004020d14140000000000000000000000000000000000000000000000000000000000000000000000000000000000000000000000000000000000000000000000040000000000000000000000000000000000000000000000000000000000000080000000000000000000000000000000000000000000000000000000000000024000000000000000000000000000000000000000000000000000000000000002a0000000000000000000000000000000000000000000000000000000000000030000000000000000000000000000000000000000000000000000000000000001a00000000000000000000000000058863bb78b4325cab9d50ab75ca43601a9ef6b0000000000000000000000005abec0563014c1c02eb7a4f6924896e5f92579fc0000000000000000000000000000000000000000000000000000000000000bb8000000000000000000000000000000000000000000000000000000000000003c0000000000000000000000000000000000000000000000000000000000000000fffffffffffffffffffffffffffffffffffffffffffffffffffffffffffffed400000000000000000000000000000000000000000000000000000000000000f00000000000000000000000000000000000000000000000000000000028d8683900000000000000000000000000000000000000000000000000271471148780000000000000000000000000000000000000000000000000000000000000a7d8c00000000000000000000000003e723f6b81431f325e3f08e75544f254c182afe20000000000000000000000000000000000000000000000000000000000000180000000000000000000000000000000000000000000000000000000000000000000000000000000000000000000000000000000000000000000000000000000400000000000000000000000000058863bb78b4325cab9d50ab75ca43601a9ef6b0000000000000000000000005abec0563014c1c02eb7a4f6924896e5f92579fc00000000000000000000000000000000000000000000000000000000000000400000000000000000000000000058863bb78b4325cab9d50ab75ca43601a9ef6b0000000000000000000000003e723f6b81431f325e3f08e75544f254c182afe200000000000000000000000000000000000000000000000000000000000000400000000000000000000000005abec0563014c1c02eb7a4f6924896e5f92579fc0000000000000000000000003e723f6b81431f325e3f08e75544f254c182afe2]"
      ],
      "transaction": {
        "from": "0x3e723f6b81431f325e3f08e75544f254c182afe2",
        "to": "0x429ba70129df741b2ca2a85bc3a2a3328e5c09b4",
        "gas": "0x66bed",
        "value": "0x0",
        "input": "0xac9650d80000000000000000000000000000000000000000000000000000000000000020000000000000000000000000000000000000000000000000000000000000000100000000000000000000000000000000000000000000000000000000000000200000000000000000000000000000000000000000000000000000000000000464dd46508f00000000000000000000000000000000000000000000000000000000000000400000000000000000000000000000000000000000000000000000000068cb8ee80000000000000000000000000000000000000000000000000000000000000400000000000000000000000000000000000000000000000000000000000000004000000000000000000000000000000000000000000000000000000000000000800000000000000000000000000000000000000000000000000000000000000004020d14140000000000000000000000000000000000000000000000000000000000000000000000000000000000000000000000000000000000000000000000040000000000000000000000000000000000000000000000000000000000000080000000000000000000000000000000000000000000000000000000000000024000000000000000000000000000000000000000000000000000000000000002a0000000000000000000000000000000000000000000000000000000000000030000000000000000000000000000000000000000000000000000000000000001a00000000000000000000000000058863bb78b4325cab9d50ab75ca43601a9ef6b0000000000000000000000005abec0563014c1c02eb7a4f6924896e5f92579fc0000000000000000000000000000000000000000000000000000000000000bb8000000000000000000000000000000000000000000000000000000000000003c0000000000000000000000000000000000000000000000000000000000000000fffffffffffffffffffffffffffffffffffffffffffffffffffffffffffffed400000000000000000000000000000000000000000000000000000000000000f00000000000000000000000000000000000000000000000000000000028d8683900000000000000000000000000000000000000000000000000271471148780000000000000000000000000000000000000000000000000000000000000a7d8c00000000000000000000000003e723f6b81431f325e3f08e75544f254c182afe20000000000000000000000000000000000000000000000000000000000000180000000000000000000000000000000000000000000000000000000000000000000000000000000000000000000000000000000000000000000000000000000400000000000000000000000000058863bb78b4325cab9d50ab75ca43601a9ef6b0000000000000000000000005abec0563014c1c02eb7a4f6924896e5f92579fc00000000000000000000000000000000000000000000000000000000000000400000000000000000000000000058863bb78b4325cab9d50ab75ca43601a9ef6b0000000000000000000000003e723f6b81431f325e3f08e75544f254c182afe200000000000000000000000000000000000000000000000000000000000000400000000000000000000000005abec0563014c1c02eb7a4f6924896e5f92579fc0000000000000000000000003e723f6b81431f325e3f08e75544f254c182afe200000000000000000000000000000000000000000000000000000000",
        "nonce": "0x5e0",
        "chainId": "0xaa36a7"
      },
      "additionalContracts": [],
      "isFixedGasLimit": false
    },
    {
      "hash": "0xa457da95299acb58dc7b1d180ca17b006ee6be567dae110ce47b1badeb13d7dd",
      "transactionType": "CALL",
      "contractName": null,
      "contractAddress": "0x5abec0563014c1c02eb7a4f6924896e5f92579fc",
      "function": "approve(address,uint256)",
      "arguments": [
        "0xf13D190e9117920c703d79B5F33732e10049b115",
        "115792089237316195423570985008687907853269984665640564039457584007913129639935"
      ],
      "transaction": {
        "from": "0x3e723f6b81431f325e3f08e75544f254c182afe2",
        "to": "0x5abec0563014c1c02eb7a4f6924896e5f92579fc",
        "gas": "0x8e35",
        "value": "0x0",
        "input": "0x095ea7b3000000000000000000000000f13d190e9117920c703d79b5f33732e10049b115ffffffffffffffffffffffffffffffffffffffffffffffffffffffffffffffff",
        "nonce": "0x5e1",
        "chainId": "0xaa36a7"
      },
      "additionalContracts": [],
      "isFixedGasLimit": false
    },
    {
      "hash": "0x9a2b21d4c8d163d50cd53843820bc00d44ade79f6fbe23d75b8701f61de56c72",
      "transactionType": "CALL",
      "contractName": null,
      "contractAddress": "0x0058863bb78b4325cab9d50ab75ca43601a9ef6b",
      "function": "approve(address,uint256)",
      "arguments": [
        "0xf13D190e9117920c703d79B5F33732e10049b115",
        "115792089237316195423570985008687907853269984665640564039457584007913129639935"
      ],
      "transaction": {
        "from": "0x3e723f6b81431f325e3f08e75544f254c182afe2",
        "to": "0x0058863bb78b4325cab9d50ab75ca43601a9ef6b",
        "gas": "0x8e35",
        "value": "0x0",
        "input": "0x095ea7b3000000000000000000000000f13d190e9117920c703d79b5f33732e10049b115ffffffffffffffffffffffffffffffffffffffffffffffffffffffffffffffff",
        "nonce": "0x5e2",
        "chainId": "0xaa36a7"
      },
      "additionalContracts": [],
      "isFixedGasLimit": false
    },
    {
      "hash": "0x67f07dc9362f396db4f851c14b2f70d05b7e58e06f3c6a467578dea36ad91183",
      "transactionType": "CALL",
      "contractName": null,
      "contractAddress": "0xf13d190e9117920c703d79b5f33732e10049b115",
      "function": "swapExactTokensForTokens(uint256,uint256,bool,(address,address,uint24,int24,address),bytes,address,uint256)",
      "arguments": [
        "1000",
        "0",
        "true",
        "(0x0058863bB78B4325caB9d50Ab75ca43601a9eF6b, 0x5abeC0563014C1C02Eb7a4f6924896e5F92579FC, 3000, 60, 0xa502683Ee305567D36a7Ce8d7ED5952CF816f880)",
        "0x",
        "0x3e723f6B81431f325E3F08e75544F254C182AFE2",
        "1758174396"
      ],
      "transaction": {
        "from": "0x3e723f6b81431f325e3f08e75544f254c182afe2",
        "to": "0xf13d190e9117920c703d79b5f33732e10049b115",
        "gas": "0x4d496",
        "value": "0x0",
        "input": "0xb1a0d57100000000000000000000000000000000000000000000000000000000000003e8000000000000000000000000000000000000000000000000000000000000000000000000000000000000000000000000000000000000000000000000000000010000000000000000000000000058863bb78b4325cab9d50ab75ca43601a9ef6b0000000000000000000000005abec0563014c1c02eb7a4f6924896e5f92579fc0000000000000000000000000000000000000000000000000000000000000bb8000000000000000000000000000000000000000000000000000000000000003c000000000000000000000000a502683ee305567d36a7ce8d7ed5952cf816f88000000000000000000000000000000000000000000000000000000000000001600000000000000000000000003e723f6b81431f325e3f08e75544f254c182afe20000000000000000000000000000000000000000000000000000000068cb9cbc0000000000000000000000000000000000000000000000000000000000000000",
        "nonce": "0x5e3",
        "chainId": "0xaa36a7"
      },
      "additionalContracts": [],
      "isFixedGasLimit": false
    }
  ],
  "receipts": [
    {
      "status": "0x1",
      "cumulativeGasUsed": "0xd10ae6",
      "logs": [
        {
          "address": "0xea30c4b8b44078bbf8a6ef5b9f1ec1626c7848d9",
          "topics": [
            "0xe9de54a3e7ddf0c48cc6e1134185300d5a71acbf2d8c21fcdefa9d9dd9e20ac1"
          ],
          "data": "0xa086c907b116b1572126a2ccfaa5f6524f347f8a1d8378ce37b958e0cccc880000000000000000000000000000000000000000000000000000000000000000a000000000000000000000000000000000000000000000000000000000000001f400000000000000000000000000000000000000000000000000000000000000080000000000000000000000000000000000000000000000000000000000000000000000000000000000000000000000000000000000000000000000000000000e7472697669616c456e6372797074000000000000000000000000000000000000",
          "blockHash": "0x172b97daaa62ad0d7249420beefb67c150189131a1ee2e150702ab4f4293cfb9",
          "blockNumber": "0x8cc8f8",
          "transactionHash": "0x31c68c5eec6735b94c77137cb2bd765be81c49b46181eb45407f928fbe4a1674",
          "transactionIndex": "0x4d",
          "logIndex": "0x95",
          "removed": false
        },
        {
          "address": "0xea30c4b8b44078bbf8a6ef5b9f1ec1626c7848d9",
          "topics": [
            "0xe9de54a3e7ddf0c48cc6e1134185300d5a71acbf2d8c21fcdefa9d9dd9e20ac1"
          ],
          "data": "0xcc63d19e9a0f97a43bc73dca1ee8b6f4b645d8919747695fa5d1d0da853a840000000000000000000000000000000000000000000000000000000000000000a00000000000000000000000000000000000000000000000000000000000000e1000000000000000000000000000000000000000000000000000000000000000040000000000000000000000000000000000000000000000000000000000000000000000000000000000000000000000000000000000000000000000000000000e7472697669616c456e6372797074000000000000000000000000000000000000",
          "blockHash": "0x172b97daaa62ad0d7249420beefb67c150189131a1ee2e150702ab4f4293cfb9",
          "blockNumber": "0x8cc8f8",
          "transactionHash": "0x31c68c5eec6735b94c77137cb2bd765be81c49b46181eb45407f928fbe4a1674",
          "transactionIndex": "0x4d",
          "logIndex": "0x96",
          "removed": false
        },
        {
          "address": "0xea30c4b8b44078bbf8a6ef5b9f1ec1626c7848d9",
          "topics": [
            "0xe9de54a3e7ddf0c48cc6e1134185300d5a71acbf2d8c21fcdefa9d9dd9e20ac1"
          ],
          "data": "0xcdef58c863398f789d9953afd1326207812f448c90165e6886555071b2f4840000000000000000000000000000000000000000000000000000000000000000a000000000000000000000000000000000000000000000000000000000000000c800000000000000000000000000000000000000000000000000000000000000040000000000000000000000000000000000000000000000000000000000000000000000000000000000000000000000000000000000000000000000000000000e7472697669616c456e6372797074000000000000000000000000000000000000",
          "blockHash": "0x172b97daaa62ad0d7249420beefb67c150189131a1ee2e150702ab4f4293cfb9",
          "blockNumber": "0x8cc8f8",
          "transactionHash": "0x31c68c5eec6735b94c77137cb2bd765be81c49b46181eb45407f928fbe4a1674",
          "transactionIndex": "0x4d",
          "logIndex": "0x97",
          "removed": false
        },
        {
          "address": "0xea30c4b8b44078bbf8a6ef5b9f1ec1626c7848d9",
          "topics": [
            "0xe9de54a3e7ddf0c48cc6e1134185300d5a71acbf2d8c21fcdefa9d9dd9e20ac1"
          ],
          "data": "0xb3e26d30bbd0fa3e41a1d86cb7844842fbb2638ed221cf36790bbd9c9f3e800000000000000000000000000000000000000000000000000000000000000000a0000000000000000000000000000000000000000000000000000000000000000100000000000000000000000000000000000000000000000000000000000000000000000000000000000000000000000000000000000000000000000000000000000000000000000000000000000000000000000000000000000000000000000e7472697669616c456e6372797074000000000000000000000000000000000000",
          "blockHash": "0x172b97daaa62ad0d7249420beefb67c150189131a1ee2e150702ab4f4293cfb9",
          "blockNumber": "0x8cc8f8",
          "transactionHash": "0x31c68c5eec6735b94c77137cb2bd765be81c49b46181eb45407f928fbe4a1674",
          "transactionIndex": "0x4d",
          "logIndex": "0x98",
          "removed": false
        },
        {
          "address": "0xea30c4b8b44078bbf8a6ef5b9f1ec1626c7848d9",
          "topics": [
            "0xe9de54a3e7ddf0c48cc6e1134185300d5a71acbf2d8c21fcdefa9d9dd9e20ac1"
          ],
          "data": "0xbd85f53fc4f2243f9ffcb22983ba1d224d1e77fdca733b69f7215d316181840000000000000000000000000000000000000000000000000000000000000000a0000000000000000000000000000000000000000000000000000000000000009600000000000000000000000000000000000000000000000000000000000000040000000000000000000000000000000000000000000000000000000000000000000000000000000000000000000000000000000000000000000000000000000e7472697669616c456e6372797074000000000000000000000000000000000000",
          "blockHash": "0x172b97daaa62ad0d7249420beefb67c150189131a1ee2e150702ab4f4293cfb9",
          "blockNumber": "0x8cc8f8",
          "transactionHash": "0x31c68c5eec6735b94c77137cb2bd765be81c49b46181eb45407f928fbe4a1674",
          "transactionIndex": "0x4d",
          "logIndex": "0x99",
          "removed": false
        },
        {
          "address": "0xa502683ee305567d36a7ce8d7ed5952cf816f880",
          "topics": [
            "0x18ff1c138c5686b85dc8b4338640ccef29de32ff4fec45a3f6f220bee9783e45",
            "0xd47c8f2b728c4b7a250e388d6c9371694e26ededa185062520abd55732a2935b"
          ],
          "data": "0x000000000000000000000000000000000000000000000000000000000000008000000000000000000000000000000000000000000000000000000000000000c0000000000000000000000000000000000000000000000000000000000000010000000000000000000000000000000000000000000000000000000000000001400000000000000000000000000000000000000000000000000000000000000020a086c907b116b1572126a2ccfaa5f6524f347f8a1d8378ce37b958e0cccc88000000000000000000000000000000000000000000000000000000000000000020cc63d19e9a0f97a43bc73dca1ee8b6f4b645d8919747695fa5d1d0da853a84000000000000000000000000000000000000000000000000000000000000000020cdef58c863398f789d9953afd1326207812f448c90165e6886555071b2f484000000000000000000000000000000000000000000000000000000000000000020b3e26d30bbd0fa3e41a1d86cb7844842fbb2638ed221cf36790bbd9c9f3e8000",
          "blockHash": "0x172b97daaa62ad0d7249420beefb67c150189131a1ee2e150702ab4f4293cfb9",
          "blockNumber": "0x8cc8f8",
          "transactionHash": "0x31c68c5eec6735b94c77137cb2bd765be81c49b46181eb45407f928fbe4a1674",
          "transactionIndex": "0x4d",
          "logIndex": "0x9a",
          "removed": false
        }
      ],
      "logsBloom": "0x00000000000000000000000000000000080000000000000000000000000000000000000000000000000000000000000000000000008180000000000000000000000000000000000000000000000000000000000008000000000000000000000000000000000000000000000000000000000000000000000000000000000000000000000000000000000001000900000001000000000000000000000000000000000000000000000000000000000000000000000000000000000000000080000000000000000000000000000000000000000000000000080000000000000000000000000000000000000200000000000000000000000000000000020200000010",
      "type": "0x2",
      "transactionHash": "0x31c68c5eec6735b94c77137cb2bd765be81c49b46181eb45407f928fbe4a1674",
      "transactionIndex": "0x4d",
      "blockHash": "0x172b97daaa62ad0d7249420beefb67c150189131a1ee2e150702ab4f4293cfb9",
      "blockNumber": "0x8cc8f8",
      "gasUsed": "0x30364",
      "effectiveGasPrice": "0xf4251",
      "from": "0x3e723f6b81431f325e3f08e75544f254c182afe2",
      "to": "0xa502683ee305567d36a7ce8d7ed5952cf816f880",
      "contractAddress": null
    },
    {
      "status": "0x1",
      "cumulativeGasUsed": "0xd260e2",
      "logs": [
        {
          "address": "0xea30c4b8b44078bbf8a6ef5b9f1ec1626c7848d9",
          "topics": [
            "0xe9de54a3e7ddf0c48cc6e1134185300d5a71acbf2d8c21fcdefa9d9dd9e20ac1"
          ],
          "data": "0xc290f19dcf7bceb26e550f2bfc2767777b6b3a2e75644053281b2fc1dc88800000000000000000000000000000000000000000000000000000000000000000a0000000000000000000000000000000000000000000000000000000000000000000000000000000000000000000000000000000000000000000000000000000000000000000000000000000000000000000000000000000000000000000000000000000000000000000000000000000000000000000000000000000000000000e7472697669616c456e6372797074000000000000000000000000000000000000",
          "blockHash": "0x172b97daaa62ad0d7249420beefb67c150189131a1ee2e150702ab4f4293cfb9",
          "blockNumber": "0x8cc8f8",
          "transactionHash": "0x8212597a3dd6774f5cfc606d616ac7a2107883528ca6af95d07a95316d7801af",
          "transactionIndex": "0x4e",
          "logIndex": "0x9b",
          "removed": false
        },
        {
          "address": "0xa502683ee305567d36a7ce8d7ed5952cf816f880",
          "topics": [
            "0x18ff1c138c5686b85dc8b4338640ccef29de32ff4fec45a3f6f220bee9783e45",
            "0xd47c8f2b728c4b7a250e388d6c9371694e26ededa185062520abd55732a2935b"
          ],
          "data": "0x000000000000000000000000000000000000000000000000000000000000008000000000000000000000000000000000000000000000000000000000000000c0000000000000000000000000000000000000000000000000000000000000010000000000000000000000000000000000000000000000000000000000000001400000000000000000000000000000000000000000000000000000000000000020a086c907b116b1572126a2ccfaa5f6524f347f8a1d8378ce37b958e0cccc88000000000000000000000000000000000000000000000000000000000000000020cc63d19e9a0f97a43bc73dca1ee8b6f4b645d8919747695fa5d1d0da853a84000000000000000000000000000000000000000000000000000000000000000020cdef58c863398f789d9953afd1326207812f448c90165e6886555071b2f484000000000000000000000000000000000000000000000000000000000000000020c290f19dcf7bceb26e550f2bfc2767777b6b3a2e75644053281b2fc1dc888000",
          "blockHash": "0x172b97daaa62ad0d7249420beefb67c150189131a1ee2e150702ab4f4293cfb9",
          "blockNumber": "0x8cc8f8",
          "transactionHash": "0x8212597a3dd6774f5cfc606d616ac7a2107883528ca6af95d07a95316d7801af",
          "transactionIndex": "0x4e",
          "logIndex": "0x9c",
          "removed": false
        }
      ],
      "logsBloom": "0x00000000000000000000000000000000080000000000000000000000000000000000000000000000000000000000000000000000008180000000000000000000000000000000000000000000000000000000000008000000000000000000000000000000000000000000000000000000000000000000000000000000000000000000000000000000000001000900000001000000000000000000000000000000000000000000000000000000000000000000000000000000000000000080000000000000000000000000000000000000000000000000080000000000000000000000000000000000000200000000000000000000000000000000020200000010",
      "type": "0x2",
      "transactionHash": "0x8212597a3dd6774f5cfc606d616ac7a2107883528ca6af95d07a95316d7801af",
      "transactionIndex": "0x4e",
      "blockHash": "0x172b97daaa62ad0d7249420beefb67c150189131a1ee2e150702ab4f4293cfb9",
      "blockNumber": "0x8cc8f8",
      "gasUsed": "0x155fc",
      "effectiveGasPrice": "0xf4251",
      "from": "0x3e723f6b81431f325e3f08e75544f254c182afe2",
      "to": "0xa502683ee305567d36a7ce8d7ed5952cf816f880",
      "contractAddress": null
    },
    {
      "status": "0x1",
      "cumulativeGasUsed": "0xd3b6ef",
      "logs": [
        {
          "address": "0xea30c4b8b44078bbf8a6ef5b9f1ec1626c7848d9",
          "topics": [
            "0xe9de54a3e7ddf0c48cc6e1134185300d5a71acbf2d8c21fcdefa9d9dd9e20ac1"
          ],
          "data": "0xb3e26d30bbd0fa3e41a1d86cb7844842fbb2638ed221cf36790bbd9c9f3e800000000000000000000000000000000000000000000000000000000000000000a0000000000000000000000000000000000000000000000000000000000000000100000000000000000000000000000000000000000000000000000000000000000000000000000000000000000000000000000000000000000000000000000000000000000000000000000000000000000000000000000000000000000000000e7472697669616c456e6372797074000000000000000000000000000000000000",
          "blockHash": "0x172b97daaa62ad0d7249420beefb67c150189131a1ee2e150702ab4f4293cfb9",
          "blockNumber": "0x8cc8f8",
          "transactionHash": "0x4c192b60fdffeb46a0b67109c8c5a3eab442ddd66c71dbf4b5e18766d6c9a445",
          "transactionIndex": "0x4f",
          "logIndex": "0x9d",
          "removed": false
        },
        {
          "address": "0xa502683ee305567d36a7ce8d7ed5952cf816f880",
          "topics": [
            "0x18ff1c138c5686b85dc8b4338640ccef29de32ff4fec45a3f6f220bee9783e45",
            "0xd47c8f2b728c4b7a250e388d6c9371694e26ededa185062520abd55732a2935b"
          ],
          "data": "0x000000000000000000000000000000000000000000000000000000000000008000000000000000000000000000000000000000000000000000000000000000c0000000000000000000000000000000000000000000000000000000000000010000000000000000000000000000000000000000000000000000000000000001400000000000000000000000000000000000000000000000000000000000000020a086c907b116b1572126a2ccfaa5f6524f347f8a1d8378ce37b958e0cccc88000000000000000000000000000000000000000000000000000000000000000020cc63d19e9a0f97a43bc73dca1ee8b6f4b645d8919747695fa5d1d0da853a84000000000000000000000000000000000000000000000000000000000000000020cdef58c863398f789d9953afd1326207812f448c90165e6886555071b2f484000000000000000000000000000000000000000000000000000000000000000020b3e26d30bbd0fa3e41a1d86cb7844842fbb2638ed221cf36790bbd9c9f3e8000",
          "blockHash": "0x172b97daaa62ad0d7249420beefb67c150189131a1ee2e150702ab4f4293cfb9",
          "blockNumber": "0x8cc8f8",
          "transactionHash": "0x4c192b60fdffeb46a0b67109c8c5a3eab442ddd66c71dbf4b5e18766d6c9a445",
          "transactionIndex": "0x4f",
          "logIndex": "0x9e",
          "removed": false
        }
      ],
      "logsBloom": "0x00000000000000000000000000000000080000000000000000000000000000000000000000000000000000000000000000000000008180000000000000000000000000000000000000000000000000000000000008000000000000000000000000000000000000000000000000000000000000000000000000000000000000000000000000000000000001000900000001000000000000000000000000000000000000000000000000000000000000000000000000000000000000000080000000000000000000000000000000000000000000000000080000000000000000000000000000000000000200000000000000000000000000000000020200000010",
      "type": "0x2",
      "transactionHash": "0x4c192b60fdffeb46a0b67109c8c5a3eab442ddd66c71dbf4b5e18766d6c9a445",
      "transactionIndex": "0x4f",
      "blockHash": "0x172b97daaa62ad0d7249420beefb67c150189131a1ee2e150702ab4f4293cfb9",
      "blockNumber": "0x8cc8f8",
      "gasUsed": "0x1560d",
      "effectiveGasPrice": "0xf4251",
      "from": "0x3e723f6b81431f325e3f08e75544f254c182afe2",
      "to": "0xa502683ee305567d36a7ce8d7ed5952cf816f880",
      "contractAddress": null
    },
    {
      "status": "0x1",
      "cumulativeGasUsed": "0xd432e4",
      "logs": [
        {
          "address": "0xa502683ee305567d36a7ce8d7ed5952cf816f880",
          "topics": [
            "0xf354ce2d046227bb2a8db43674dab621b47724bc45cbc0b228a001245d53fd77",
            "0xd47c8f2b728c4b7a250e388d6c9371694e26ededa185062520abd55732a2935b"
          ],
          "data": "0x",
          "blockHash": "0x172b97daaa62ad0d7249420beefb67c150189131a1ee2e150702ab4f4293cfb9",
          "blockNumber": "0x8cc8f8",
          "blockTimestamp": "0x68cb8edc",
          "transactionHash": "0x06c7d7ecaacd243ab5fb186905d44c08790ce4605fccdd3ee854ae64e3e27f07",
          "transactionIndex": "0x50",
          "logIndex": "0x9f",
          "removed": false
        }
      ],
      "logsBloom": "0x00000800000000000000000000000000000000000000000000000000000000000000000000000000000000000000000000000000000180000000000000000000000000000000000000000000000000000080000000000000000000000000000000000000000000000000000000000000000000000000000000000000000000000000000000000000000001000100000000000000000000000000000000000000000000000000000000000000000000000000000000000000000000000080000000000000000000000000000000000200000000000000000000000000000000000000000000000000000000000000000000000000000000000000000000000010",
      "type": "0x2",
      "transactionHash": "0x06c7d7ecaacd243ab5fb186905d44c08790ce4605fccdd3ee854ae64e3e27f07",
      "transactionIndex": "0x50",
      "blockHash": "0x172b97daaa62ad0d7249420beefb67c150189131a1ee2e150702ab4f4293cfb9",
      "blockNumber": "0x8cc8f8",
      "gasUsed": "0x7bf5",
      "effectiveGasPrice": "0xf4251",
      "from": "0x3e723f6b81431f325e3f08e75544f254c182afe2",
      "to": "0xa502683ee305567d36a7ce8d7ed5952cf816f880",
      "contractAddress": null
    },
    {
      "status": "0x1",
      "cumulativeGasUsed": "0xd4ae5b",
      "logs": [
        {
          "address": "0xa502683ee305567d36a7ce8d7ed5952cf816f880",
          "topics": [
            "0xc4be386fe9fd651a56e42b3b831dd4bf6afaa363eb2d21181fe7e23a8ff50279",
            "0xd47c8f2b728c4b7a250e388d6c9371694e26ededa185062520abd55732a2935b"
          ],
          "data": "0x",
          "blockHash": "0x172b97daaa62ad0d7249420beefb67c150189131a1ee2e150702ab4f4293cfb9",
          "blockNumber": "0x8cc8f8",
          "transactionHash": "0xde168387b05517c9626227d0a6b8fb6a06332206e751a6731bdb7e407ad49d54",
          "transactionIndex": "0x51",
          "logIndex": "0xa0",
          "removed": false
        }
      ],
      "logsBloom": "0x00000000000000000000000000000000000000000000000000000000000000000000000000000000000000000000000000000000000180000000000000000000000000000000000000000000000000000000000000000000000000000000000000000000000000000000000000000000000000000000000000000000000000100000000000000000000001000100000004000000000000000000000000000000000000001000000000000000000000000000000000000000000000000080000000000000000000000000000000000000000000000000000000000000000000000000000000000000000000000000000000000000000000000000000000000010",
      "type": "0x2",
      "transactionHash": "0xde168387b05517c9626227d0a6b8fb6a06332206e751a6731bdb7e407ad49d54",
      "transactionIndex": "0x51",
      "blockHash": "0x172b97daaa62ad0d7249420beefb67c150189131a1ee2e150702ab4f4293cfb9",
      "blockNumber": "0x8cc8f8",
      "gasUsed": "0x7b77",
      "effectiveGasPrice": "0xf4251",
      "from": "0x3e723f6b81431f325e3f08e75544f254c182afe2",
      "to": "0xa502683ee305567d36a7ce8d7ed5952cf816f880",
      "contractAddress": null
    },
    {
      "status": "0x1",
      "cumulativeGasUsed": "0xd5155c",
      "logs": [
        {
          "address": "0x5abec0563014c1c02eb7a4f6924896e5f92579fc",
          "topics": [
            "0x8c5be1e5ebec7d5bd14f71427d1e84f3dd0314c0f7b2291e5b200ac8c7c3b925",
            "0x0000000000000000000000003e723f6b81431f325e3f08e75544f254c182afe2",
            "0x000000000000000000000000429ba70129df741b2ca2a85bc3a2a3328e5c09b4"
          ],
          "data": "0xffffffffffffffffffffffffffffffffffffffffffffffffffffffffffffffff",
          "blockHash": "0x172b97daaa62ad0d7249420beefb67c150189131a1ee2e150702ab4f4293cfb9",
          "blockNumber": "0x8cc8f8",
          "transactionHash": "0x62fb3f0eb8f7eb5dbe43fd76d212b1b9fdd64265f795744028533aff8546709b",
          "transactionIndex": "0x52",
          "logIndex": "0xa1",
          "removed": false
        }
      ],
      "logsBloom": "0x00000000000000000000000000000000000000000000000000000000000000000000000000000040080000000000000000000000080000000000000000200000000000000000000000000000000000000000000000000000000000000000000000000000000000000000000000000000000000000000000000000800000004000000000000000000000000000000000000000000000000000000000000000000020000000000000080000000000000000000000000000000000030000000000000000000000000000000000000000000000000000000000000000000000000000010000000000004000000000000000000000000000000000000000000000000",
      "type": "0x2",
      "transactionHash": "0x62fb3f0eb8f7eb5dbe43fd76d212b1b9fdd64265f795744028533aff8546709b",
      "transactionIndex": "0x52",
      "blockHash": "0x172b97daaa62ad0d7249420beefb67c150189131a1ee2e150702ab4f4293cfb9",
      "blockNumber": "0x8cc8f8",
      "gasUsed": "0x6701",
      "effectiveGasPrice": "0xf4251",
      "from": "0x3e723f6b81431f325e3f08e75544f254c182afe2",
      "to": "0x5abec0563014c1c02eb7a4f6924896e5f92579fc",
      "contractAddress": null
    },
    {
      "status": "0x1",
      "cumulativeGasUsed": "0xd57c5d",
      "logs": [
        {
          "address": "0x0058863bb78b4325cab9d50ab75ca43601a9ef6b",
          "topics": [
            "0x8c5be1e5ebec7d5bd14f71427d1e84f3dd0314c0f7b2291e5b200ac8c7c3b925",
            "0x0000000000000000000000003e723f6b81431f325e3f08e75544f254c182afe2",
            "0x000000000000000000000000429ba70129df741b2ca2a85bc3a2a3328e5c09b4"
          ],
          "data": "0xffffffffffffffffffffffffffffffffffffffffffffffffffffffffffffffff",
          "blockHash": "0x172b97daaa62ad0d7249420beefb67c150189131a1ee2e150702ab4f4293cfb9",
          "blockNumber": "0x8cc8f8",
          "transactionHash": "0xcd8508e4b786c9b85e60c0e7926c810b6b73a193e41dc26696c56636b732dc65",
          "transactionIndex": "0x53",
          "logIndex": "0xa2",
          "removed": false
        }
      ],
      "logsBloom": "0x00000000000000000000000000000000000000000000000080000000000000000000000000000040080000000000000000000000080000000000000000200000000000000000000000000000000000000000000000000000000000000000000000000000000000000000000000000000000000000000000000000800000000000000000000000000000000000000000000000000000000000000000000000000020000000000000080810000000000000000000000000000000010000000000000000000000000000000000000000000000000000000000000000000000000000010000000000000000000000000000000000000000000000000000000000000",
      "type": "0x2",
      "transactionHash": "0xcd8508e4b786c9b85e60c0e7926c810b6b73a193e41dc26696c56636b732dc65",
      "transactionIndex": "0x53",
      "blockHash": "0x172b97daaa62ad0d7249420beefb67c150189131a1ee2e150702ab4f4293cfb9",
      "blockNumber": "0x8cc8f8",
      "gasUsed": "0x6701",
      "effectiveGasPrice": "0xf4251",
      "from": "0x3e723f6b81431f325e3f08e75544f254c182afe2",
      "to": "0x0058863bb78b4325cab9d50ab75ca43601a9ef6b",
      "contractAddress": null
    },
    {
      "status": "0x1",
      "cumulativeGasUsed": "0xd6ef1e",
      "logs": [
        {
          "address": "0x5abec0563014c1c02eb7a4f6924896e5f92579fc",
          "topics": [
            "0x8c5be1e5ebec7d5bd14f71427d1e84f3dd0314c0f7b2291e5b200ac8c7c3b925",
            "0x0000000000000000000000003e723f6b81431f325e3f08e75544f254c182afe2",
            "0x000000000000000000000000000000000022d473030f116ddee9f6b43ac78ba3"
          ],
          "data": "0xffffffffffffffffffffffffffffffffffffffffffffffffffffffffffffffff",
          "blockHash": "0x172b97daaa62ad0d7249420beefb67c150189131a1ee2e150702ab4f4293cfb9",
          "blockNumber": "0x8cc8f8",
          "transactionHash": "0xb14455a5985be8c1526bccf507535e920d5d17a58230cd46daf5f40b5a5589eb",
          "transactionIndex": "0x55",
          "logIndex": "0xa5",
          "removed": false
        }
      ],
      "logsBloom": "0x00000000000000000000000000000000000000000000000000000000000000000000000000000000000000000000000000000000880000000000000000200000000000000000000000004000000000000000000000000800000000000000000000000000000000000000000000000000000000000000000000000000000004000000000000000000000000000000000000000000000000000000000000000000020000000000000080000000000000000000000000000000000030000000000000000000000000000000000000000000000000000000000000000000000000000010000000000004000000000000000000000000000000000000000000000000",
      "type": "0x2",
      "transactionHash": "0xb14455a5985be8c1526bccf507535e920d5d17a58230cd46daf5f40b5a5589eb",
      "transactionIndex": "0x55",
      "blockHash": "0x172b97daaa62ad0d7249420beefb67c150189131a1ee2e150702ab4f4293cfb9",
      "blockNumber": "0x8cc8f8",
      "gasUsed": "0x66c5",
      "effectiveGasPrice": "0xf4251",
      "from": "0x3e723f6b81431f325e3f08e75544f254c182afe2",
      "to": "0x5abec0563014c1c02eb7a4f6924896e5f92579fc",
      "contractAddress": null
    },
    {
      "status": "0x1",
      "cumulativeGasUsed": "0xd75c2c",
      "logs": [
        {
          "address": "0x000000000022d473030f116ddee9f6b43ac78ba3",
          "topics": [
            "0xda9fa7c1b00402c17d0161b249b1ab8bbec047c5a52207b9c112deffd817036b",
            "0x0000000000000000000000003e723f6b81431f325e3f08e75544f254c182afe2",
            "0x0000000000000000000000005abec0563014c1c02eb7a4f6924896e5f92579fc",
            "0x000000000000000000000000429ba70129df741b2ca2a85bc3a2a3328e5c09b4"
          ],
          "data": "0x000000000000000000000000ffffffffffffffffffffffffffffffffffffffff0000000000000000000000000000000000000000000000000000ffffffffffff",
          "blockHash": "0x172b97daaa62ad0d7249420beefb67c150189131a1ee2e150702ab4f4293cfb9",
          "blockNumber": "0x8cc8f8",
          "blockTimestamp": "0x68cb8edc",
          "transactionHash": "0x7d03b115422fa0bc6e1ae52d45a06c1e08626c2543797a496f1d0630604d9f92",
          "transactionIndex": "0x56",
          "logIndex": "0xa6",
          "removed": false
        }
      ],
      "logsBloom": "0x00010000000000000000000000000000000000000000000000000000000000000000080000000040080000000000000000000000080000000000000000080000000000000000000000000000000000000000000000000000000000000000000000000000000080000000000000000000000000000000000000000800000000000020000000000000000000000000000000000000000000000000000000000000000000000000000080000000000000000000000000000000000010080000000000000000000000000000000000000000000000000000000040000000000000000000000000000000000000000000000000000000000000000800000000000400",
      "type": "0x2",
      "transactionHash": "0x7d03b115422fa0bc6e1ae52d45a06c1e08626c2543797a496f1d0630604d9f92",
      "transactionIndex": "0x56",
      "blockHash": "0x172b97daaa62ad0d7249420beefb67c150189131a1ee2e150702ab4f4293cfb9",
      "blockNumber": "0x8cc8f8",
      "gasUsed": "0x6d0e",
      "effectiveGasPrice": "0xf4251",
      "from": "0x3e723f6b81431f325e3f08e75544f254c182afe2",
      "to": "0x000000000022d473030f116ddee9f6b43ac78ba3",
      "contractAddress": null
    },
    {
      "status": "0x1",
      "cumulativeGasUsed": "0xd7c2f1",
      "logs": [
        {
          "address": "0x0058863bb78b4325cab9d50ab75ca43601a9ef6b",
          "topics": [
            "0x8c5be1e5ebec7d5bd14f71427d1e84f3dd0314c0f7b2291e5b200ac8c7c3b925",
            "0x0000000000000000000000003e723f6b81431f325e3f08e75544f254c182afe2",
            "0x000000000000000000000000000000000022d473030f116ddee9f6b43ac78ba3"
          ],
          "data": "0xffffffffffffffffffffffffffffffffffffffffffffffffffffffffffffffff",
          "blockHash": "0x172b97daaa62ad0d7249420beefb67c150189131a1ee2e150702ab4f4293cfb9",
          "blockNumber": "0x8cc8f8",
          "transactionHash": "0xea25836913c3412af47c81e412cc6a37ca872ec5a463e59f10c90cd6fc6c4d45",
          "transactionIndex": "0x57",
          "logIndex": "0xa7",
          "removed": false
        }
      ],
      "logsBloom": "0x00000000000000000000000000000000000000000000000080000000000000000000000000000000000000000000000000000000880000000000000000200000000000000000000000004000000000000000000000000800000000000000000000000000000000000000000000000000000000000000000000000000000000000000000000000000000000000000000000000000000000000000000000000000020000000000000080810000000000000000000000000000000010000000000000000000000000000000000000000000000000000000000000000000000000000010000000000000000000000000000000000000000000000000000000000000",
      "type": "0x2",
      "transactionHash": "0xea25836913c3412af47c81e412cc6a37ca872ec5a463e59f10c90cd6fc6c4d45",
      "transactionIndex": "0x57",
      "blockHash": "0x172b97daaa62ad0d7249420beefb67c150189131a1ee2e150702ab4f4293cfb9",
      "blockNumber": "0x8cc8f8",
      "gasUsed": "0x66c5",
      "effectiveGasPrice": "0xf4251",
      "from": "0x3e723f6b81431f325e3f08e75544f254c182afe2",
      "to": "0x0058863bb78b4325cab9d50ab75ca43601a9ef6b",
      "contractAddress": null
    },
    {
      "status": "0x1",
      "cumulativeGasUsed": "0xd82ff3",
      "logs": [
        {
          "address": "0x000000000022d473030f116ddee9f6b43ac78ba3",
          "topics": [
            "0xda9fa7c1b00402c17d0161b249b1ab8bbec047c5a52207b9c112deffd817036b",
            "0x0000000000000000000000003e723f6b81431f325e3f08e75544f254c182afe2",
            "0x0000000000000000000000000058863bb78b4325cab9d50ab75ca43601a9ef6b",
            "0x000000000000000000000000429ba70129df741b2ca2a85bc3a2a3328e5c09b4"
          ],
          "data": "0x000000000000000000000000ffffffffffffffffffffffffffffffffffffffff0000000000000000000000000000000000000000000000000000ffffffffffff",
          "blockHash": "0x172b97daaa62ad0d7249420beefb67c150189131a1ee2e150702ab4f4293cfb9",
          "blockNumber": "0x8cc8f8",
          "transactionHash": "0x0058e3b07cf8b32baa793ec73366fb7314d1f390cd2eaedc0a782470787a271c",
          "transactionIndex": "0x58",
          "logIndex": "0xa8",
          "removed": false
        }
      ],
      "logsBloom": "0x00010000000000000000000000000000000000000000000000000000000000000000000000000040080000000000000000000000080000000000000000080000000000000000000000000000000000000000000000004000000000000000000000000000000000000000000000000000000000000000080000000800000000000020000000000000000000000000000000000000000000000000000000000000000000000000000080000000000000000000000000000000000010080000000000000000000000000000000000000000000000000000000040000000000000000000000000080000000000000000000000000000000000000000000000000400",
      "type": "0x2",
      "transactionHash": "0x0058e3b07cf8b32baa793ec73366fb7314d1f390cd2eaedc0a782470787a271c",
      "transactionIndex": "0x58",
      "blockHash": "0x172b97daaa62ad0d7249420beefb67c150189131a1ee2e150702ab4f4293cfb9",
      "blockNumber": "0x8cc8f8",
      "gasUsed": "0x6d02",
      "effectiveGasPrice": "0xf4251",
      "from": "0x3e723f6b81431f325e3f08e75544f254c182afe2",
      "to": "0x000000000022d473030f116ddee9f6b43ac78ba3",
      "contractAddress": null
    },
    {
      "status": "0x1",
      "cumulativeGasUsed": "0xdcd620",
      "logs": [
        {
          "address": "0x429ba70129df741b2ca2a85bc3a2a3328e5c09b4",
          "topics": [
            "0xddf252ad1be2c89b69c2b068fc378daa952ba7f163c4a11628f55a4df523b3ef",
            "0x0000000000000000000000000000000000000000000000000000000000000000",
            "0x0000000000000000000000003e723f6b81431f325e3f08e75544f254c182afe2",
            "0x0000000000000000000000000000000000000000000000000000000000004329"
          ],
          "data": "0x",
          "blockHash": "0x172b97daaa62ad0d7249420beefb67c150189131a1ee2e150702ab4f4293cfb9",
          "blockNumber": "0x8cc8f8",
          "blockTimestamp": "0x68cb8edc",
          "transactionHash": "0xdeaba0d42e9f41308e546ecbc0baf25fc492e2742c74a0709780f6eddf40a614",
          "transactionIndex": "0x59",
          "logIndex": "0xa9",
          "removed": false
        },
        {
          "address": "0xe03a1074c86cfedd5c142c4f04f1a1536e203543",
          "topics": [
            "0xf208f4912782fd25c7f114ca3723a2d5dd6f3bcc3ac8db5af63baa85f711d5ec",
            "0xdf9d2413ceeb4837095451060aa03b4f4a2d3bd9e9a3dd2b8bb738f18d7aec7f",
            "0x000000000000000000000000429ba70129df741b2ca2a85bc3a2a3328e5c09b4"
          ],
          "data": "0xfffffffffffffffffffffffffffffffffffffffffffffffffffffffffffffed400000000000000000000000000000000000000000000000000000000000000f00000000000000000000000000000000000000000000000000000000028d868390000000000000000000000000000000000000000000000000000000000004329",
          "blockHash": "0x172b97daaa62ad0d7249420beefb67c150189131a1ee2e150702ab4f4293cfb9",
          "blockNumber": "0x8cc8f8",
          "blockTimestamp": "0x68cb8edc",
          "transactionHash": "0xdeaba0d42e9f41308e546ecbc0baf25fc492e2742c74a0709780f6eddf40a614",
          "transactionIndex": "0x59",
          "logIndex": "0xaa",
          "removed": false
        },
        {
          "address": "0x0058863bb78b4325cab9d50ab75ca43601a9ef6b",
          "topics": [
            "0xddf252ad1be2c89b69c2b068fc378daa952ba7f163c4a11628f55a4df523b3ef",
            "0x0000000000000000000000003e723f6b81431f325e3f08e75544f254c182afe2",
            "0x000000000000000000000000e03a1074c86cfedd5c142c4f04f1a1536e203543"
          ],
          "data": "0x00000000000000000000000000000000000000000000000000000000007fcd3f",
          "blockHash": "0x172b97daaa62ad0d7249420beefb67c150189131a1ee2e150702ab4f4293cfb9",
          "blockNumber": "0x8cc8f8",
          "blockTimestamp": "0x68cb8edc",
          "transactionHash": "0xdeaba0d42e9f41308e546ecbc0baf25fc492e2742c74a0709780f6eddf40a614",
          "transactionIndex": "0x59",
          "logIndex": "0xab",
          "removed": false
        },
        {
          "address": "0x5abec0563014c1c02eb7a4f6924896e5f92579fc",
          "topics": [
            "0xddf252ad1be2c89b69c2b068fc378daa952ba7f163c4a11628f55a4df523b3ef",
            "0x0000000000000000000000003e723f6b81431f325e3f08e75544f254c182afe2",
            "0x000000000000000000000000e03a1074c86cfedd5c142c4f04f1a1536e203543"
          ],
          "data": "0x0000000000000000000000000000000000000000000000000000000000989680",
          "blockHash": "0x172b97daaa62ad0d7249420beefb67c150189131a1ee2e150702ab4f4293cfb9",
          "blockNumber": "0x8cc8f8",
          "blockTimestamp": "0x68cb8edc",
          "transactionHash": "0xdeaba0d42e9f41308e546ecbc0baf25fc492e2742c74a0709780f6eddf40a614",
          "transactionIndex": "0x59",
          "logIndex": "0xac",
          "removed": false
        }
      ],
      "logsBloom": "0x00000000000000000000001000000000000000004000000080000000080000000000000000000040080000000000000001000100080000000000000000000000000000000000000000000008000000000000000000000080000000000000000000000000020020000000000080000800000000000000100000000810010004000000000001000000000010000000000000000000000000000000000000000000000004000000000080810000000000000000000000400000000030000000000000000002000000000000000000000000000000000000000000001000000020001000004000000004000000000000000004000000000000000000000000000000",
      "type": "0x2",
      "transactionHash": "0xdeaba0d42e9f41308e546ecbc0baf25fc492e2742c74a0709780f6eddf40a614",
      "transactionIndex": "0x59",
      "blockHash": "0x172b97daaa62ad0d7249420beefb67c150189131a1ee2e150702ab4f4293cfb9",
      "blockNumber": "0x8cc8f8",
      "gasUsed": "0x4a62d",
      "effectiveGasPrice": "0xf4251",
      "from": "0x3e723f6b81431f325e3f08e75544f254c182afe2",
      "to": "0x429ba70129df741b2ca2a85bc3a2a3328e5c09b4",
      "contractAddress": null
    },
    {
      "status": "0x1",
      "cumulativeGasUsed": "0xdd3d15",
      "logs": [
        {
          "address": "0x5abec0563014c1c02eb7a4f6924896e5f92579fc",
          "topics": [
            "0x8c5be1e5ebec7d5bd14f71427d1e84f3dd0314c0f7b2291e5b200ac8c7c3b925",
            "0x0000000000000000000000003e723f6b81431f325e3f08e75544f254c182afe2",
            "0x000000000000000000000000f13d190e9117920c703d79b5f33732e10049b115"
          ],
          "data": "0xffffffffffffffffffffffffffffffffffffffffffffffffffffffffffffffff",
          "blockHash": "0x172b97daaa62ad0d7249420beefb67c150189131a1ee2e150702ab4f4293cfb9",
          "blockNumber": "0x8cc8f8",
          "transactionHash": "0xa457da95299acb58dc7b1d180ca17b006ee6be567dae110ce47b1badeb13d7dd",
          "transactionIndex": "0x5a",
          "logIndex": "0xad",
          "removed": false
        }
      ],
      "logsBloom": "0x00000000000000000000000000000000000000000000000000800000000000000000000000000000000000000000000000000000080000000000000000200000000000000000000000000000000000000000000000000000000000000000000000000000000000000000000000000000000000000000000000000000000004000000000000080000000000000000000000000000000000000000000000000000020000000000000080000000000000000000000000000000000030000000000000000000000000000000000000000000000000000000000000000000000080000010000000000004000000000000000000000000000000000000000000000000",
      "type": "0x2",
      "transactionHash": "0xa457da95299acb58dc7b1d180ca17b006ee6be567dae110ce47b1badeb13d7dd",
      "transactionIndex": "0x5a",
      "blockHash": "0x172b97daaa62ad0d7249420beefb67c150189131a1ee2e150702ab4f4293cfb9",
      "blockNumber": "0x8cc8f8",
      "gasUsed": "0x66f5",
      "effectiveGasPrice": "0xf4251",
      "from": "0x3e723f6b81431f325e3f08e75544f254c182afe2",
      "to": "0x5abec0563014c1c02eb7a4f6924896e5f92579fc",
      "contractAddress": null
    },
    {
      "status": "0x1",
      "cumulativeGasUsed": "0xdda40a",
      "logs": [
        {
          "address": "0x0058863bb78b4325cab9d50ab75ca43601a9ef6b",
          "topics": [
            "0x8c5be1e5ebec7d5bd14f71427d1e84f3dd0314c0f7b2291e5b200ac8c7c3b925",
            "0x0000000000000000000000003e723f6b81431f325e3f08e75544f254c182afe2",
            "0x000000000000000000000000f13d190e9117920c703d79b5f33732e10049b115"
          ],
          "data": "0xffffffffffffffffffffffffffffffffffffffffffffffffffffffffffffffff",
          "blockHash": "0x172b97daaa62ad0d7249420beefb67c150189131a1ee2e150702ab4f4293cfb9",
          "blockNumber": "0x8cc8f8",
          "blockTimestamp": "0x68cb8edc",
          "transactionHash": "0x9a2b21d4c8d163d50cd53843820bc00d44ade79f6fbe23d75b8701f61de56c72",
          "transactionIndex": "0x5b",
          "logIndex": "0xae",
          "removed": false
        }
      ],
      "logsBloom": "0x00000000000000000000000000000000000000000000000080800000000000000000000000000000000000000000000000000000080000000000000000200000000000000000000000000000000000000000000000000000000000000000000000000000000000000000000000000000000000000000000000000000000000000000000000080000000000000000000000000000000000000000000000000000020000000000000080810000000000000000000000000000000010000000000000000000000000000000000000000000000000000000000000000000000080000010000000000000000000000000000000000000000000000000000000000000",
      "type": "0x2",
      "transactionHash": "0x9a2b21d4c8d163d50cd53843820bc00d44ade79f6fbe23d75b8701f61de56c72",
      "transactionIndex": "0x5b",
      "blockHash": "0x172b97daaa62ad0d7249420beefb67c150189131a1ee2e150702ab4f4293cfb9",
      "blockNumber": "0x8cc8f8",
      "gasUsed": "0x66f5",
      "effectiveGasPrice": "0xf4251",
      "from": "0x3e723f6b81431f325e3f08e75544f254c182afe2",
      "to": "0x0058863bb78b4325cab9d50ab75ca43601a9ef6b",
      "contractAddress": null
    },
    {
      "status": "0x1",
      "cumulativeGasUsed": "0xe1a44d",
      "logs": [
        {
          "address": "0xe03a1074c86cfedd5c142c4f04f1a1536e203543",
          "topics": [
            "0x40e9cecb9f5f1f1c5b9c97dec2917b7ee92e57ba5563708daca94dd84ad7112f",
            "0xd47c8f2b728c4b7a250e388d6c9371694e26ededa185062520abd55732a2935b",
            "0x000000000000000000000000f13d190e9117920c703d79b5f33732e10049b115"
          ],
          "data": "0xfffffffffffffffffffffffffffffffffffffffffffffffffffffffffffffc1800000000000000000000000000000000000000000000000000000000000003e40000000000000000000000000000000000000000ffffcf2e8d52f72fe3106e4e0000000000000000000000000000000000000000000000000000000028d86839ffffffffffffffffffffffffffffffffffffffffffffffffffffffffffffffff0000000000000000000000000000000000000000000000000000000000000bb8",
          "blockHash": "0x172b97daaa62ad0d7249420beefb67c150189131a1ee2e150702ab4f4293cfb9",
          "blockNumber": "0x8cc8f8",
          "blockTimestamp": "0x68cb8edc",
          "transactionHash": "0x67f07dc9362f396db4f851c14b2f70d05b7e58e06f3c6a467578dea36ad91183",
          "transactionIndex": "0x5d",
          "logIndex": "0xb0",
          "removed": false
        },
        {
          "address": "0x0058863bb78b4325cab9d50ab75ca43601a9ef6b",
          "topics": [
            "0xddf252ad1be2c89b69c2b068fc378daa952ba7f163c4a11628f55a4df523b3ef",
            "0x0000000000000000000000003e723f6b81431f325e3f08e75544f254c182afe2",
            "0x000000000000000000000000e03a1074c86cfedd5c142c4f04f1a1536e203543"
          ],
          "data": "0x00000000000000000000000000000000000000000000000000000000000003e8",
          "blockHash": "0x172b97daaa62ad0d7249420beefb67c150189131a1ee2e150702ab4f4293cfb9",
          "blockNumber": "0x8cc8f8",
          "blockTimestamp": "0x68cb8edc",
          "transactionHash": "0x67f07dc9362f396db4f851c14b2f70d05b7e58e06f3c6a467578dea36ad91183",
          "transactionIndex": "0x5d",
          "logIndex": "0xb1",
          "removed": false
        },
        {
          "address": "0x5abec0563014c1c02eb7a4f6924896e5f92579fc",
          "topics": [
            "0xddf252ad1be2c89b69c2b068fc378daa952ba7f163c4a11628f55a4df523b3ef",
            "0x000000000000000000000000e03a1074c86cfedd5c142c4f04f1a1536e203543",
            "0x0000000000000000000000003e723f6b81431f325e3f08e75544f254c182afe2"
          ],
          "data": "0x00000000000000000000000000000000000000000000000000000000000003e4",
          "blockHash": "0x172b97daaa62ad0d7249420beefb67c150189131a1ee2e150702ab4f4293cfb9",
          "blockNumber": "0x8cc8f8",
          "blockTimestamp": "0x68cb8edc",
          "transactionHash": "0x67f07dc9362f396db4f851c14b2f70d05b7e58e06f3c6a467578dea36ad91183",
          "transactionIndex": "0x5d",
          "logIndex": "0xb2",
          "removed": false
        }
      ],
      "logsBloom": "0x000000000000000000000000000000000000000000000000808000000000000000000000000000000000000000000000000001000c0180000000000000000000000000000000000000000008000000000000000000000020000000000000000000000000000000000000000080000000000000000000100000000010000004000000000000080000000010000000000000000000000000000000000000000000000000000000000080810000000000000000000000000000000030000080000000000002000000000000000000000000000000000000000000001000000080001000000000000004004000000000000000000000000000000000000000000000",
      "type": "0x2",
      "transactionHash": "0x67f07dc9362f396db4f851c14b2f70d05b7e58e06f3c6a467578dea36ad91183",
      "transactionIndex": "0x5d",
      "blockHash": "0x172b97daaa62ad0d7249420beefb67c150189131a1ee2e150702ab4f4293cfb9",
      "blockNumber": "0x8cc8f8",
      "gasUsed": "0x37f45",
      "effectiveGasPrice": "0xf4251",
      "from": "0x3e723f6b81431f325e3f08e75544f254c182afe2",
      "to": "0xf13d190e9117920c703d79b5f33732e10049b115",
      "contractAddress": null
    }
  ],
  "libraries": [],
  "pending": [],
  "returns": {},
  "timestamp": 1758170847264,
  "chain": 11155111,
  "commit": "7b9c819"
}