{
  "transactions": [
    {
      "hash": "0xc8eabb61e32caa0e8e2029bd157294d5fc0fcac58e5ace35b147b2f13c607c95",
      "transactionType": "CALL",
      "contractName": null,
      "contractAddress": "0x98fb6db4104df971db052a2fc8b7cb760135f880",
      "function": "configureEncryptedRebalancingStrategy((address,address,uint24,int24,address),uint24,uint32,int24,bool,uint24)",
      "arguments": [
        "(0x3e68f0F304314495fa45907170a59D0BA5218bCc, 0xabc0Afb70F325F4119cFCA4083EA2A580Ec40D3F, 3000, 60, 0x98FB6Db4104dF971db052a2fc8B7CB760135F880)",
        "500",
        "3600",
        "200",
        "true",
        "150"
      ],
      "transaction": {
        "from": "0x3e723f6b81431f325e3f08e75544f254c182afe2",
        "to": "0x98fb6db4104df971db052a2fc8b7cb760135f880",
        "gas": "0x605f7",
        "value": "0x0",
        "input": "0xa9eb74780000000000000000000000003e68f0f304314495fa45907170a59d0ba5218bcc000000000000000000000000abc0afb70f325f4119cfca4083ea2a580ec40d3f0000000000000000000000000000000000000000000000000000000000000bb8000000000000000000000000000000000000000000000000000000000000003c00000000000000000000000098fb6db4104df971db052a2fc8b7cb760135f88000000000000000000000000000000000000000000000000000000000000001f40000000000000000000000000000000000000000000000000000000000000e1000000000000000000000000000000000000000000000000000000000000000c800000000000000000000000000000000000000000000000000000000000000010000000000000000000000000000000000000000000000000000000000000096",
        "nonce": "0x615",
        "chainId": "0xaa36a7"
      },
      "additionalContracts": [],
      "isFixedGasLimit": false
    },
    {
      "hash": "0x3673e6db9d2543e6a8fcee2ed42495ec8d8817a6c03ed8a922f1940d81a462cc",
      "transactionType": "CALL",
      "contractName": null,
      "contractAddress": "0x98fb6db4104df971db052a2fc8b7cb760135f880",
      "function": "pausePoolRebalancing((address,address,uint24,int24,address))",
      "arguments": [
        "(0x3e68f0F304314495fa45907170a59D0BA5218bCc, 0xabc0Afb70F325F4119cFCA4083EA2A580Ec40D3F, 3000, 60, 0x98FB6Db4104dF971db052a2fc8B7CB760135F880)"
      ],
      "transaction": {
        "from": "0x3e723f6b81431f325e3f08e75544f254c182afe2",
        "to": "0x98fb6db4104df971db052a2fc8b7cb760135f880",
        "gas": "0x1d86d",
        "value": "0x0",
        "input": "0xfbdd948f0000000000000000000000003e68f0f304314495fa45907170a59d0ba5218bcc000000000000000000000000abc0afb70f325f4119cfca4083ea2a580ec40d3f0000000000000000000000000000000000000000000000000000000000000bb8000000000000000000000000000000000000000000000000000000000000003c00000000000000000000000098fb6db4104df971db052a2fc8b7cb760135f880",
        "nonce": "0x616",
        "chainId": "0xaa36a7"
      },
      "additionalContracts": [],
      "isFixedGasLimit": false
    },
    {
      "hash": "0x651c9ef1170ea80060f3f5b5b0518e978eaa93a574d9c94604f3b6b1bfba4cd4",
      "transactionType": "CALL",
      "contractName": null,
      "contractAddress": "0x98fb6db4104df971db052a2fc8b7cb760135f880",
      "function": "resumePoolRebalancing((address,address,uint24,int24,address))",
      "arguments": [
        "(0x3e68f0F304314495fa45907170a59D0BA5218bCc, 0xabc0Afb70F325F4119cFCA4083EA2A580Ec40D3F, 3000, 60, 0x98FB6Db4104dF971db052a2fc8B7CB760135F880)"
      ],
      "transaction": {
        "from": "0x3e723f6b81431f325e3f08e75544f254c182afe2",
        "to": "0x98fb6db4104df971db052a2fc8b7cb760135f880",
        "gas": "0x1f451",
        "value": "0x0",
        "input": "0xfe0389100000000000000000000000003e68f0f304314495fa45907170a59d0ba5218bcc000000000000000000000000abc0afb70f325f4119cfca4083ea2a580ec40d3f0000000000000000000000000000000000000000000000000000000000000bb8000000000000000000000000000000000000000000000000000000000000003c00000000000000000000000098fb6db4104df971db052a2fc8b7cb760135f880",
        "nonce": "0x617",
        "chainId": "0xaa36a7"
      },
      "additionalContracts": [],
      "isFixedGasLimit": false
    },
    {
      "hash": "0x064f68f775f0dad5e64293da1359141574196653868c9a159a01e93290e868c6",
      "transactionType": "CALL",
      "contractName": null,
      "contractAddress": "0x98fb6db4104df971db052a2fc8b7cb760135f880",
      "function": "deactivatePool((address,address,uint24,int24,address))",
      "arguments": [
        "(0x3e68f0F304314495fa45907170a59D0BA5218bCc, 0xabc0Afb70F325F4119cFCA4083EA2A580Ec40D3F, 3000, 60, 0x98FB6Db4104dF971db052a2fc8B7CB760135F880)"
      ],
      "transaction": {
        "from": "0x3e723f6b81431f325e3f08e75544f254c182afe2",
        "to": "0x98fb6db4104df971db052a2fc8b7cb760135f880",
        "gas": "0xa55b",
        "value": "0x0",
        "input": "0x7a2486b50000000000000000000000003e68f0f304314495fa45907170a59d0ba5218bcc000000000000000000000000abc0afb70f325f4119cfca4083ea2a580ec40d3f0000000000000000000000000000000000000000000000000000000000000bb8000000000000000000000000000000000000000000000000000000000000003c00000000000000000000000098fb6db4104df971db052a2fc8b7cb760135f880",
        "nonce": "0x618",
        "chainId": "0xaa36a7"
      },
      "additionalContracts": [],
      "isFixedGasLimit": false
    },
    {
      "hash": "0xe7c921fb19377a12d3dab4109f221136830e2f4fc00f728ff5a0fba9cf304f6f",
      "transactionType": "CALL",
      "contractName": null,
      "contractAddress": "0x98fb6db4104df971db052a2fc8b7cb760135f880",
      "function": "reactivatePool((address,address,uint24,int24,address))",
      "arguments": [
        "(0x3e68f0F304314495fa45907170a59D0BA5218bCc, 0xabc0Afb70F325F4119cFCA4083EA2A580Ec40D3F, 3000, 60, 0x98FB6Db4104dF971db052a2fc8B7CB760135F880)"
      ],
      "transaction": {
        "from": "0x3e723f6b81431f325e3f08e75544f254c182afe2",
        "to": "0x98fb6db4104df971db052a2fc8b7cb760135f880",
        "gas": "0x106db",
        "value": "0x0",
        "input": "0x54ee1e530000000000000000000000003e68f0f304314495fa45907170a59d0ba5218bcc000000000000000000000000abc0afb70f325f4119cfca4083ea2a580ec40d3f0000000000000000000000000000000000000000000000000000000000000bb8000000000000000000000000000000000000000000000000000000000000003c00000000000000000000000098fb6db4104df971db052a2fc8b7cb760135f880",
        "nonce": "0x619",
        "chainId": "0xaa36a7"
      },
      "additionalContracts": [],
      "isFixedGasLimit": false
    },
    {
      "hash": "0x8bd6b8c9f51112e0a97ed94715da02da08bbc3a6d4a8c2ac109dc8fc3d903bf1",
      "transactionType": "CALL",
      "contractName": null,
      "contractAddress": "0xe03a1074c86cfedd5c142c4f04f1a1536e203543",
      "function": "initialize((address,address,uint24,int24,address),uint160)",
      "arguments": [
        "(0x3e68f0F304314495fa45907170a59D0BA5218bCc, 0xabc0Afb70F325F4119cFCA4083EA2A580Ec40D3F, 3000, 60, 0x98FB6Db4104dF971db052a2fc8B7CB760135F880)",
        "79228162514264337593543950336"
      ],
      "transaction": {
        "from": "0x3e723f6b81431f325e3f08e75544f254c182afe2",
        "to": "0xe03a1074c86cfedd5c142c4f04f1a1536e203543",
        "gas": "0x6a8df",
        "value": "0x0",
        "input": "0x6276cbbe0000000000000000000000003e68f0f304314495fa45907170a59d0ba5218bcc000000000000000000000000abc0afb70f325f4119cfca4083ea2a580ec40d3f0000000000000000000000000000000000000000000000000000000000000bb8000000000000000000000000000000000000000000000000000000000000003c00000000000000000000000098fb6db4104df971db052a2fc8b7cb760135f8800000000000000000000000000000000000000001000000000000000000000000",
        "nonce": "0x61a",
        "chainId": "0xaa36a7"
      },
      "additionalContracts": [],
      "isFixedGasLimit": false
    },
    {
      "hash": "0x00ac0dfdef08483c5cb0cd07762f9cc0561a439e1a5af58cf36c40d366257c18",
      "transactionType": "CALL",
      "contractName": null,
      "contractAddress": "0xabc0afb70f325f4119cfca4083ea2a580ec40d3f",
      "function": "approve(address,uint256)",
      "arguments": [
        "0x429ba70129df741B2Ca2a85BC3A2a3328e5c09b4",
        "115792089237316195423570985008687907853269984665640564039457584007913129639935"
      ],
      "transaction": {
        "from": "0x3e723f6b81431f325e3f08e75544f254c182afe2",
        "to": "0xabc0afb70f325f4119cfca4083ea2a580ec40d3f",
        "gas": "0x96a4",
        "value": "0x0",
        "input": "0x095ea7b3000000000000000000000000429ba70129df741b2ca2a85bc3a2a3328e5c09b4ffffffffffffffffffffffffffffffffffffffffffffffffffffffffffffffff",
        "nonce": "0x61b",
        "chainId": "0xaa36a7"
      },
      "additionalContracts": [],
      "isFixedGasLimit": false
    },
    {
      "hash": "0xfbdca35c165e6695dd85407d4abff371b36c8acee93c05c46c7bdbfe1712cfed",
      "transactionType": "CALL",
      "contractName": null,
      "contractAddress": "0x3e68f0f304314495fa45907170a59d0ba5218bcc",
      "function": "approve(address,uint256)",
      "arguments": [
        "0x429ba70129df741B2Ca2a85BC3A2a3328e5c09b4",
        "115792089237316195423570985008687907853269984665640564039457584007913129639935"
      ],
      "transaction": {
        "from": "0x3e723f6b81431f325e3f08e75544f254c182afe2",
        "to": "0x3e68f0f304314495fa45907170a59d0ba5218bcc",
        "gas": "0x96a4",
        "value": "0x0",
        "input": "0x095ea7b3000000000000000000000000429ba70129df741b2ca2a85bc3a2a3328e5c09b4ffffffffffffffffffffffffffffffffffffffffffffffffffffffffffffffff",
        "nonce": "0x61c",
        "chainId": "0xaa36a7"
      },
      "additionalContracts": [],
      "isFixedGasLimit": false
    },
    {
      "hash": "0x765f86972ea5b0adb472b7a91e3624cbebcd324cbabbe2e6636c9ac22a87c543",
      "transactionType": "CALL",
      "contractName": null,
      "contractAddress": "0xabc0afb70f325f4119cfca4083ea2a580ec40d3f",
      "function": "approve(address,uint256)",
      "arguments": [
        "0x000000000022D473030F116dDEE9F6B43aC78BA3",
        "115792089237316195423570985008687907853269984665640564039457584007913129639935"
      ],
      "transaction": {
        "from": "0x3e723f6b81431f325e3f08e75544f254c182afe2",
        "to": "0xabc0afb70f325f4119cfca4083ea2a580ec40d3f",
        "gas": "0x8df2",
        "value": "0x0",
        "input": "0x095ea7b3000000000000000000000000000000000022d473030f116ddee9f6b43ac78ba3ffffffffffffffffffffffffffffffffffffffffffffffffffffffffffffffff",
        "nonce": "0x61d",
        "chainId": "0xaa36a7"
      },
      "additionalContracts": [],
      "isFixedGasLimit": false
    },
    {
      "hash": "0xe883d4a9fa9eb2a6e77b7415e993ea2b8717bac545cc9934ff145d4cf3d27cd5",
      "transactionType": "CALL",
      "contractName": null,
      "contractAddress": "0x000000000022d473030f116ddee9f6b43ac78ba3",
      "function": "approve(address,address,uint160,uint48)",
      "arguments": [
        "0xabc0Afb70F325F4119cFCA4083EA2A580Ec40D3F",
        "0x429ba70129df741B2Ca2a85BC3A2a3328e5c09b4",
        "1461501637330902918203684832716283019655932542975",
        "281474976710655"
      ],
      "transaction": {
        "from": "0x3e723f6b81431f325e3f08e75544f254c182afe2",
        "to": "0x000000000022d473030f116ddee9f6b43ac78ba3",
        "gas": "0x96a0",
        "value": "0x0",
        "input": "0x87517c45000000000000000000000000abc0afb70f325f4119cfca4083ea2a580ec40d3f000000000000000000000000429ba70129df741b2ca2a85bc3a2a3328e5c09b4000000000000000000000000ffffffffffffffffffffffffffffffffffffffff0000000000000000000000000000000000000000000000000000ffffffffffff",
        "nonce": "0x61e",
        "chainId": "0xaa36a7"
      },
      "additionalContracts": [],
      "isFixedGasLimit": false
    },
    {
      "hash": "0x47979ca671f103d915c17dafcc14c08f8ff21bb8e311a707fbdd2767cce990eb",
      "transactionType": "CALL",
      "contractName": null,
      "contractAddress": "0x3e68f0f304314495fa45907170a59d0ba5218bcc",
      "function": "approve(address,uint256)",
      "arguments": [
        "0x000000000022D473030F116dDEE9F6B43aC78BA3",
        "115792089237316195423570985008687907853269984665640564039457584007913129639935"
      ],
      "transaction": {
        "from": "0x3e723f6b81431f325e3f08e75544f254c182afe2",
        "to": "0x3e68f0f304314495fa45907170a59d0ba5218bcc",
        "gas": "0x8df2",
        "value": "0x0",
        "input": "0x095ea7b3000000000000000000000000000000000022d473030f116ddee9f6b43ac78ba3ffffffffffffffffffffffffffffffffffffffffffffffffffffffffffffffff",
        "nonce": "0x61f",
        "chainId": "0xaa36a7"
      },
      "additionalContracts": [],
      "isFixedGasLimit": false
    },
    {
      "hash": "0x09391da1e330a73f97708cf4691a3d8f42637f495a8e43f1b63e418f8441c73a",
      "transactionType": "CALL",
      "contractName": null,
      "contractAddress": "0x000000000022d473030f116ddee9f6b43ac78ba3",
      "function": "approve(address,address,uint160,uint48)",
      "arguments": [
        "0x3e68f0F304314495fa45907170a59D0BA5218bCc",
        "0x429ba70129df741B2Ca2a85BC3A2a3328e5c09b4",
        "1461501637330902918203684832716283019655932542975",
        "281474976710655"
      ],
      "transaction": {
        "from": "0x3e723f6b81431f325e3f08e75544f254c182afe2",
        "to": "0x000000000022d473030f116ddee9f6b43ac78ba3",
        "gas": "0x96a0",
        "value": "0x0",
        "input": "0x87517c450000000000000000000000003e68f0f304314495fa45907170a59d0ba5218bcc000000000000000000000000429ba70129df741b2ca2a85bc3a2a3328e5c09b4000000000000000000000000ffffffffffffffffffffffffffffffffffffffff0000000000000000000000000000000000000000000000000000ffffffffffff",
        "nonce": "0x620",
        "chainId": "0xaa36a7"
      },
      "additionalContracts": [],
      "isFixedGasLimit": false
    },
    {
      "hash": "0x6c41516821a76db88d2aad70d24faa5e8c7aceb57c9cbfef88a660d33dc392c5",
      "transactionType": "CALL",
      "contractName": null,
      "contractAddress": "0x429ba70129df741b2ca2a85bc3a2a3328e5c09b4",
      "function": "multicall(bytes[])",
      "arguments": [
        "[0xdd46508f00000000000000000000000000000000000000000000000000000000000000400000000000000000000000000000000000000000000000000000000068cb94a00000000000000000000000000000000000000000000000000000000000000400000000000000000000000000000000000000000000000000000000000000004000000000000000000000000000000000000000000000000000000000000000800000000000000000000000000000000000000000000000000000000000000004020d14140000000000000000000000000000000000000000000000000000000000000000000000000000000000000000000000000000000000000000000000040000000000000000000000000000000000000000000000000000000000000080000000000000000000000000000000000000000000000000000000000000024000000000000000000000000000000000000000000000000000000000000002a0000000000000000000000000000000000000000000000000000000000000030000000000000000000000000000000000000000000000000000000000000001a00000000000000000000000003e68f0f304314495fa45907170a59d0ba5218bcc000000000000000000000000abc0afb70f325f4119cfca4083ea2a580ec40d3f0000000000000000000000000000000000000000000000000000000000000bb8000000000000000000000000000000000000000000000000000000000000003c0000000000000000000000000000000000000000000000000000000000000000fffffffffffffffffffffffffffffffffffffffffffffffffffffffffffffed4000000000000000000000000000000000000000000000000000000000000012c00000000000000000000000000000000000000000000000000000000280984f200000000000000000000000000000000000000000000000000271471148780000000000000000000000000000000000000000000000000000000000000a7d8c00000000000000000000000003e723f6b81431f325e3f08e75544f254c182afe20000000000000000000000000000000000000000000000000000000000000180000000000000000000000000000000000000000000000000000000000000000000000000000000000000000000000000000000000000000000000000000000400000000000000000000000003e68f0f304314495fa45907170a59d0ba5218bcc000000000000000000000000abc0afb70f325f4119cfca4083ea2a580ec40d3f00000000000000000000000000000000000000000000000000000000000000400000000000000000000000003e68f0f304314495fa45907170a59d0ba5218bcc0000000000000000000000003e723f6b81431f325e3f08e75544f254c182afe20000000000000000000000000000000000000000000000000000000000000040000000000000000000000000abc0afb70f325f4119cfca4083ea2a580ec40d3f0000000000000000000000003e723f6b81431f325e3f08e75544f254c182afe2]"
      ],
      "transaction": {
        "from": "0x3e723f6b81431f325e3f08e75544f254c182afe2",
        "to": "0x429ba70129df741b2ca2a85bc3a2a3328e5c09b4",
        "gas": "0x556c1",
        "value": "0x0",
        "input": "0xac9650d80000000000000000000000000000000000000000000000000000000000000020000000000000000000000000000000000000000000000000000000000000000100000000000000000000000000000000000000000000000000000000000000200000000000000000000000000000000000000000000000000000000000000464dd46508f00000000000000000000000000000000000000000000000000000000000000400000000000000000000000000000000000000000000000000000000068cb94a00000000000000000000000000000000000000000000000000000000000000400000000000000000000000000000000000000000000000000000000000000004000000000000000000000000000000000000000000000000000000000000000800000000000000000000000000000000000000000000000000000000000000004020d14140000000000000000000000000000000000000000000000000000000000000000000000000000000000000000000000000000000000000000000000040000000000000000000000000000000000000000000000000000000000000080000000000000000000000000000000000000000000000000000000000000024000000000000000000000000000000000000000000000000000000000000002a0000000000000000000000000000000000000000000000000000000000000030000000000000000000000000000000000000000000000000000000000000001a00000000000000000000000003e68f0f304314495fa45907170a59d0ba5218bcc000000000000000000000000abc0afb70f325f4119cfca4083ea2a580ec40d3f0000000000000000000000000000000000000000000000000000000000000bb8000000000000000000000000000000000000000000000000000000000000003c0000000000000000000000000000000000000000000000000000000000000000fffffffffffffffffffffffffffffffffffffffffffffffffffffffffffffed4000000000000000000000000000000000000000000000000000000000000012c00000000000000000000000000000000000000000000000000000000280984f200000000000000000000000000000000000000000000000000271471148780000000000000000000000000000000000000000000000000000000000000a7d8c00000000000000000000000003e723f6b81431f325e3f08e75544f254c182afe20000000000000000000000000000000000000000000000000000000000000180000000000000000000000000000000000000000000000000000000000000000000000000000000000000000000000000000000000000000000000000000000400000000000000000000000003e68f0f304314495fa45907170a59d0ba5218bcc000000000000000000000000abc0afb70f325f4119cfca4083ea2a580ec40d3f00000000000000000000000000000000000000000000000000000000000000400000000000000000000000003e68f0f304314495fa45907170a59d0ba5218bcc0000000000000000000000003e723f6b81431f325e3f08e75544f254c182afe20000000000000000000000000000000000000000000000000000000000000040000000000000000000000000abc0afb70f325f4119cfca4083ea2a580ec40d3f0000000000000000000000003e723f6b81431f325e3f08e75544f254c182afe200000000000000000000000000000000000000000000000000000000",
        "nonce": "0x621",
        "chainId": "0xaa36a7"
      },
      "additionalContracts": [],
      "isFixedGasLimit": false
    },
    {
      "hash": "0x8c31881746ba7fcc58070ec39e74364f010dc63b6b4642bec59add963fb52d89",
      "transactionType": "CALL",
      "contractName": null,
      "contractAddress": "0xabc0afb70f325f4119cfca4083ea2a580ec40d3f",
      "function": "approve(address,uint256)",
      "arguments": [
        "0xf13D190e9117920c703d79B5F33732e10049b115",
        "115792089237316195423570985008687907853269984665640564039457584007913129639935"
      ],
      "transaction": {
        "from": "0x3e723f6b81431f325e3f08e75544f254c182afe2",
        "to": "0xabc0afb70f325f4119cfca4083ea2a580ec40d3f",
        "gas": "0x8e35",
        "value": "0x0",
        "input": "0x095ea7b3000000000000000000000000f13d190e9117920c703d79b5f33732e10049b115ffffffffffffffffffffffffffffffffffffffffffffffffffffffffffffffff",
        "nonce": "0x622",
        "chainId": "0xaa36a7"
      },
      "additionalContracts": [],
      "isFixedGasLimit": false
    },
    {
      "hash": "0x3a0414722a0a37067dd5b1ccc49bc9fcbbb7947acd591cb3bab16c5686a1cf2f",
      "transactionType": "CALL",
      "contractName": null,
      "contractAddress": "0x3e68f0f304314495fa45907170a59d0ba5218bcc",
      "function": "approve(address,uint256)",
      "arguments": [
        "0xf13D190e9117920c703d79B5F33732e10049b115",
        "115792089237316195423570985008687907853269984665640564039457584007913129639935"
      ],
      "transaction": {
        "from": "0x3e723f6b81431f325e3f08e75544f254c182afe2",
        "to": "0x3e68f0f304314495fa45907170a59d0ba5218bcc",
        "gas": "0x8e35",
        "value": "0x0",
        "input": "0x095ea7b3000000000000000000000000f13d190e9117920c703d79b5f33732e10049b115ffffffffffffffffffffffffffffffffffffffffffffffffffffffffffffffff",
        "nonce": "0x623",
        "chainId": "0xaa36a7"
      },
      "additionalContracts": [],
      "isFixedGasLimit": false
    },
    {
      "hash": "0x1fd18edc26498d157868e4cf223ce0e68317af51353a2c864d66ace50c9a1382",
      "transactionType": "CALL",
      "contractName": null,
      "contractAddress": "0xf13d190e9117920c703d79b5f33732e10049b115",
      "function": "swapExactTokensForTokens(uint256,uint256,bool,(address,address,uint24,int24,address),bytes,address,uint256)",
      "arguments": [
        "1000",
        "0",
        "true",
        "(0x3e68f0F304314495fa45907170a59D0BA5218bCc, 0xabc0Afb70F325F4119cFCA4083EA2A580Ec40D3F, 3000, 60, 0x98FB6Db4104dF971db052a2fc8B7CB760135F880)",
        "0x",
        "0x3e723f6B81431f325E3F08e75544F254C182AFE2",
        "1758175860"
      ],
      "transaction": {
        "from": "0x3e723f6b81431f325e3f08e75544f254c182afe2",
        "to": "0xf13d190e9117920c703d79b5f33732e10049b115",
        "gas": "0x8f8f6",
        "value": "0x0",
        "input": "0xb1a0d57100000000000000000000000000000000000000000000000000000000000003e8000000000000000000000000000000000000000000000000000000000000000000000000000000000000000000000000000000000000000000000000000000010000000000000000000000003e68f0f304314495fa45907170a59d0ba5218bcc000000000000000000000000abc0afb70f325f4119cfca4083ea2a580ec40d3f0000000000000000000000000000000000000000000000000000000000000bb8000000000000000000000000000000000000000000000000000000000000003c00000000000000000000000098fb6db4104df971db052a2fc8b7cb760135f88000000000000000000000000000000000000000000000000000000000000001600000000000000000000000003e723f6b81431f325e3f08e75544f254c182afe20000000000000000000000000000000000000000000000000000000068cba2740000000000000000000000000000000000000000000000000000000000000000",
        "nonce": "0x624",
        "chainId": "0xaa36a7"
      },
      "additionalContracts": [],
      "isFixedGasLimit": false
    }
  ],
  "receipts": [
    {
      "status": "0x1",
      "cumulativeGasUsed": "0x2d74db9",
      "logs": [
        {
          "address": "0xea30c4b8b44078bbf8a6ef5b9f1ec1626c7848d9",
          "topics": [
            "0xe9de54a3e7ddf0c48cc6e1134185300d5a71acbf2d8c21fcdefa9d9dd9e20ac1"
          ],
          "data": "0xa086c907b116b1572126a2ccfaa5f6524f347f8a1d8378ce37b958e0cccc880000000000000000000000000000000000000000000000000000000000000000a000000000000000000000000000000000000000000000000000000000000001f400000000000000000000000000000000000000000000000000000000000000080000000000000000000000000000000000000000000000000000000000000000000000000000000000000000000000000000000000000000000000000000000e7472697669616c456e6372797074000000000000000000000000000000000000",
          "blockHash": "0x601049bd0c6fba942fdd792abfbb097c3ed6bbecf38fa58c87b269d7f6434b2f",
          "blockNumber": "0x8cc968",
          "blockTimestamp": "0x68cb94a0",
          "transactionHash": "0xc8eabb61e32caa0e8e2029bd157294d5fc0fcac58e5ace35b147b2f13c607c95",
          "transactionIndex": "0x87",
          "logIndex": "0x9f",
          "removed": false
        },
        {
          "address": "0xea30c4b8b44078bbf8a6ef5b9f1ec1626c7848d9",
          "topics": [
            "0xe9de54a3e7ddf0c48cc6e1134185300d5a71acbf2d8c21fcdefa9d9dd9e20ac1"
          ],
          "data": "0xcc63d19e9a0f97a43bc73dca1ee8b6f4b645d8919747695fa5d1d0da853a840000000000000000000000000000000000000000000000000000000000000000a00000000000000000000000000000000000000000000000000000000000000e1000000000000000000000000000000000000000000000000000000000000000040000000000000000000000000000000000000000000000000000000000000000000000000000000000000000000000000000000000000000000000000000000e7472697669616c456e6372797074000000000000000000000000000000000000",
          "blockHash": "0x601049bd0c6fba942fdd792abfbb097c3ed6bbecf38fa58c87b269d7f6434b2f",
          "blockNumber": "0x8cc968",
          "blockTimestamp": "0x68cb94a0",
          "transactionHash": "0xc8eabb61e32caa0e8e2029bd157294d5fc0fcac58e5ace35b147b2f13c607c95",
          "transactionIndex": "0x87",
          "logIndex": "0xa0",
          "removed": false
        },
        {
          "address": "0xea30c4b8b44078bbf8a6ef5b9f1ec1626c7848d9",
          "topics": [
            "0xe9de54a3e7ddf0c48cc6e1134185300d5a71acbf2d8c21fcdefa9d9dd9e20ac1"
          ],
          "data": "0xcdef58c863398f789d9953afd1326207812f448c90165e6886555071b2f4840000000000000000000000000000000000000000000000000000000000000000a000000000000000000000000000000000000000000000000000000000000000c800000000000000000000000000000000000000000000000000000000000000040000000000000000000000000000000000000000000000000000000000000000000000000000000000000000000000000000000000000000000000000000000e7472697669616c456e6372797074000000000000000000000000000000000000",
          "blockHash": "0x601049bd0c6fba942fdd792abfbb097c3ed6bbecf38fa58c87b269d7f6434b2f",
          "blockNumber": "0x8cc968",
          "blockTimestamp": "0x68cb94a0",
          "transactionHash": "0xc8eabb61e32caa0e8e2029bd157294d5fc0fcac58e5ace35b147b2f13c607c95",
          "transactionIndex": "0x87",
          "logIndex": "0xa1",
          "removed": false
        },
        {
          "address": "0xea30c4b8b44078bbf8a6ef5b9f1ec1626c7848d9",
          "topics": [
            "0xe9de54a3e7ddf0c48cc6e1134185300d5a71acbf2d8c21fcdefa9d9dd9e20ac1"
          ],
          "data": "0xb3e26d30bbd0fa3e41a1d86cb7844842fbb2638ed221cf36790bbd9c9f3e800000000000000000000000000000000000000000000000000000000000000000a0000000000000000000000000000000000000000000000000000000000000000100000000000000000000000000000000000000000000000000000000000000000000000000000000000000000000000000000000000000000000000000000000000000000000000000000000000000000000000000000000000000000000000e7472697669616c456e6372797074000000000000000000000000000000000000",
          "blockHash": "0x601049bd0c6fba942fdd792abfbb097c3ed6bbecf38fa58c87b269d7f6434b2f",
          "blockNumber": "0x8cc968",
          "blockTimestamp": "0x68cb94a0",
          "transactionHash": "0xc8eabb61e32caa0e8e2029bd157294d5fc0fcac58e5ace35b147b2f13c607c95",
          "transactionIndex": "0x87",
          "logIndex": "0xa2",
          "removed": false
        },
        {
          "address": "0xea30c4b8b44078bbf8a6ef5b9f1ec1626c7848d9",
          "topics": [
            "0xe9de54a3e7ddf0c48cc6e1134185300d5a71acbf2d8c21fcdefa9d9dd9e20ac1"
          ],
          "data": "0xbd85f53fc4f2243f9ffcb22983ba1d224d1e77fdca733b69f7215d316181840000000000000000000000000000000000000000000000000000000000000000a0000000000000000000000000000000000000000000000000000000000000009600000000000000000000000000000000000000000000000000000000000000040000000000000000000000000000000000000000000000000000000000000000000000000000000000000000000000000000000000000000000000000000000e7472697669616c456e6372797074000000000000000000000000000000000000",
          "blockHash": "0x601049bd0c6fba942fdd792abfbb097c3ed6bbecf38fa58c87b269d7f6434b2f",
          "blockNumber": "0x8cc968",
          "blockTimestamp": "0x68cb94a0",
          "transactionHash": "0xc8eabb61e32caa0e8e2029bd157294d5fc0fcac58e5ace35b147b2f13c607c95",
          "transactionIndex": "0x87",
          "logIndex": "0xa3",
          "removed": false
        },
        {
          "address": "0x98fb6db4104df971db052a2fc8b7cb760135f880",
          "topics": [
            "0x18ff1c138c5686b85dc8b4338640ccef29de32ff4fec45a3f6f220bee9783e45",
            "0x4dcf687a49efb8ad9f5870afcc7e5b54eb574d69f28d75eb378e46400196541c"
          ],
          "data": "0x000000000000000000000000000000000000000000000000000000000000008000000000000000000000000000000000000000000000000000000000000000c0000000000000000000000000000000000000000000000000000000000000010000000000000000000000000000000000000000000000000000000000000001400000000000000000000000000000000000000000000000000000000000000020a086c907b116b1572126a2ccfaa5f6524f347f8a1d8378ce37b958e0cccc88000000000000000000000000000000000000000000000000000000000000000020cc63d19e9a0f97a43bc73dca1ee8b6f4b645d8919747695fa5d1d0da853a84000000000000000000000000000000000000000000000000000000000000000020cdef58c863398f789d9953afd1326207812f448c90165e6886555071b2f484000000000000000000000000000000000000000000000000000000000000000020b3e26d30bbd0fa3e41a1d86cb7844842fbb2638ed221cf36790bbd9c9f3e8000",
          "blockHash": "0x601049bd0c6fba942fdd792abfbb097c3ed6bbecf38fa58c87b269d7f6434b2f",
          "blockNumber": "0x8cc968",
          "blockTimestamp": "0x68cb94a0",
          "transactionHash": "0xc8eabb61e32caa0e8e2029bd157294d5fc0fcac58e5ace35b147b2f13c607c95",
          "transactionIndex": "0x87",
          "logIndex": "0xa4",
          "removed": false
        }
      ],
      "logsBloom": "0x00000000000000000000000000000000080000000000000000000000000000000000000000000000000000000000000000000000008000000000000000200000000000000000000000000000000000000000000008000000000000000000000040000000000000000000000000000000000000000000000000000000000000000000000000000000000000000800000001000000000000000010000000000000000004000000000000000000000000000000000000000000000000000000000000000000000000000000000000000000000000000000080000000000020000000000000000000400000200000000000000000000000000000000020200000000",
      "type": "0x2",
      "transactionHash": "0xc8eabb61e32caa0e8e2029bd157294d5fc0fcac58e5ace35b147b2f13c607c95",
      "transactionIndex": "0x87",
      "blockHash": "0x601049bd0c6fba942fdd792abfbb097c3ed6bbecf38fa58c87b269d7f6434b2f",
      "blockNumber": "0x8cc968",
      "gasUsed": "0x45c5c",
      "effectiveGasPrice": "0xf4255",
      "from": "0x3e723f6b81431f325e3f08e75544f254c182afe2",
      "to": "0x98fb6db4104df971db052a2fc8b7cb760135f880",
      "contractAddress": null
    },
    {
      "status": "0x1",
      "cumulativeGasUsed": "0x2d8a3c1",
      "logs": [
        {
          "address": "0xea30c4b8b44078bbf8a6ef5b9f1ec1626c7848d9",
          "topics": [
            "0xe9de54a3e7ddf0c48cc6e1134185300d5a71acbf2d8c21fcdefa9d9dd9e20ac1"
          ],
          "data": "0xc290f19dcf7bceb26e550f2bfc2767777b6b3a2e75644053281b2fc1dc88800000000000000000000000000000000000000000000000000000000000000000a0000000000000000000000000000000000000000000000000000000000000000000000000000000000000000000000000000000000000000000000000000000000000000000000000000000000000000000000000000000000000000000000000000000000000000000000000000000000000000000000000000000000000000e7472697669616c456e6372797074000000000000000000000000000000000000",
          "blockHash": "0x601049bd0c6fba942fdd792abfbb097c3ed6bbecf38fa58c87b269d7f6434b2f",
          "blockNumber": "0x8cc968",
          "blockTimestamp": "0x68cb94a0",
          "transactionHash": "0x3673e6db9d2543e6a8fcee2ed42495ec8d8817a6c03ed8a922f1940d81a462cc",
          "transactionIndex": "0x88",
          "logIndex": "0xa5",
          "removed": false
        },
        {
          "address": "0x98fb6db4104df971db052a2fc8b7cb760135f880",
          "topics": [
            "0x18ff1c138c5686b85dc8b4338640ccef29de32ff4fec45a3f6f220bee9783e45",
            "0x4dcf687a49efb8ad9f5870afcc7e5b54eb574d69f28d75eb378e46400196541c"
          ],
          "data": "0x000000000000000000000000000000000000000000000000000000000000008000000000000000000000000000000000000000000000000000000000000000c0000000000000000000000000000000000000000000000000000000000000010000000000000000000000000000000000000000000000000000000000000001400000000000000000000000000000000000000000000000000000000000000020a086c907b116b1572126a2ccfaa5f6524f347f8a1d8378ce37b958e0cccc88000000000000000000000000000000000000000000000000000000000000000020cc63d19e9a0f97a43bc73dca1ee8b6f4b645d8919747695fa5d1d0da853a84000000000000000000000000000000000000000000000000000000000000000020cdef58c863398f789d9953afd1326207812f448c90165e6886555071b2f484000000000000000000000000000000000000000000000000000000000000000020c290f19dcf7bceb26e550f2bfc2767777b6b3a2e75644053281b2fc1dc888000",
          "blockHash": "0x601049bd0c6fba942fdd792abfbb097c3ed6bbecf38fa58c87b269d7f6434b2f",
          "blockNumber": "0x8cc968",
          "blockTimestamp": "0x68cb94a0",
          "transactionHash": "0x3673e6db9d2543e6a8fcee2ed42495ec8d8817a6c03ed8a922f1940d81a462cc",
          "transactionIndex": "0x88",
          "logIndex": "0xa6",
          "removed": false
        }
      ],
      "logsBloom": "0x00000000000000000000000000000000080000000000000000000000000000000000000000000000000000000000000000000000008000000000000000200000000000000000000000000000000000000000000008000000000000000000000040000000000000000000000000000000000000000000000000000000000000000000000000000000000000000800000001000000000000000010000000000000000004000000000000000000000000000000000000000000000000000000000000000000000000000000000000000000000000000000080000000000020000000000000000000400000200000000000000000000000000000000020200000000",
      "type": "0x2",
      "transactionHash": "0x3673e6db9d2543e6a8fcee2ed42495ec8d8817a6c03ed8a922f1940d81a462cc",
      "transactionIndex": "0x88",
      "blockHash": "0x601049bd0c6fba942fdd792abfbb097c3ed6bbecf38fa58c87b269d7f6434b2f",
      "blockNumber": "0x8cc968",
      "gasUsed": "0x15608",
      "effectiveGasPrice": "0xf4255",
      "from": "0x3e723f6b81431f325e3f08e75544f254c182afe2",
      "to": "0x98fb6db4104df971db052a2fc8b7cb760135f880",
      "contractAddress": null
    },
    {
      "status": "0x1",
      "cumulativeGasUsed": "0x2d9f9da",
      "logs": [
        {
          "address": "0xea30c4b8b44078bbf8a6ef5b9f1ec1626c7848d9",
          "topics": [
            "0xe9de54a3e7ddf0c48cc6e1134185300d5a71acbf2d8c21fcdefa9d9dd9e20ac1"
          ],
          "data": "0xb3e26d30bbd0fa3e41a1d86cb7844842fbb2638ed221cf36790bbd9c9f3e800000000000000000000000000000000000000000000000000000000000000000a0000000000000000000000000000000000000000000000000000000000000000100000000000000000000000000000000000000000000000000000000000000000000000000000000000000000000000000000000000000000000000000000000000000000000000000000000000000000000000000000000000000000000000e7472697669616c456e6372797074000000000000000000000000000000000000",
          "blockHash": "0x601049bd0c6fba942fdd792abfbb097c3ed6bbecf38fa58c87b269d7f6434b2f",
          "blockNumber": "0x8cc968",
          "blockTimestamp": "0x68cb94a0",
          "transactionHash": "0x651c9ef1170ea80060f3f5b5b0518e978eaa93a574d9c94604f3b6b1bfba4cd4",
          "transactionIndex": "0x89",
          "logIndex": "0xa7",
          "removed": false
        },
        {
          "address": "0x98fb6db4104df971db052a2fc8b7cb760135f880",
          "topics": [
            "0x18ff1c138c5686b85dc8b4338640ccef29de32ff4fec45a3f6f220bee9783e45",
            "0x4dcf687a49efb8ad9f5870afcc7e5b54eb574d69f28d75eb378e46400196541c"
          ],
          "data": "0x000000000000000000000000000000000000000000000000000000000000008000000000000000000000000000000000000000000000000000000000000000c0000000000000000000000000000000000000000000000000000000000000010000000000000000000000000000000000000000000000000000000000000001400000000000000000000000000000000000000000000000000000000000000020a086c907b116b1572126a2ccfaa5f6524f347f8a1d8378ce37b958e0cccc88000000000000000000000000000000000000000000000000000000000000000020cc63d19e9a0f97a43bc73dca1ee8b6f4b645d8919747695fa5d1d0da853a84000000000000000000000000000000000000000000000000000000000000000020cdef58c863398f789d9953afd1326207812f448c90165e6886555071b2f484000000000000000000000000000000000000000000000000000000000000000020b3e26d30bbd0fa3e41a1d86cb7844842fbb2638ed221cf36790bbd9c9f3e8000",
          "blockHash": "0x601049bd0c6fba942fdd792abfbb097c3ed6bbecf38fa58c87b269d7f6434b2f",
          "blockNumber": "0x8cc968",
          "blockTimestamp": "0x68cb94a0",
          "transactionHash": "0x651c9ef1170ea80060f3f5b5b0518e978eaa93a574d9c94604f3b6b1bfba4cd4",
          "transactionIndex": "0x89",
          "logIndex": "0xa8",
          "removed": false
        }
      ],
      "logsBloom": "0x00000000000000000000000000000000080000000000000000000000000000000000000000000000000000000000000000000000008000000000000000200000000000000000000000000000000000000000000008000000000000000000000040000000000000000000000000000000000000000000000000000000000000000000000000000000000000000800000001000000000000000010000000000000000004000000000000000000000000000000000000000000000000000000000000000000000000000000000000000000000000000000080000000000020000000000000000000400000200000000000000000000000000000000020200000000",
      "type": "0x2",
      "transactionHash": "0x651c9ef1170ea80060f3f5b5b0518e978eaa93a574d9c94604f3b6b1bfba4cd4",
      "transactionIndex": "0x89",
      "blockHash": "0x601049bd0c6fba942fdd792abfbb097c3ed6bbecf38fa58c87b269d7f6434b2f",
      "blockNumber": "0x8cc968",
      "gasUsed": "0x15619",
      "effectiveGasPrice": "0xf4255",
      "from": "0x3e723f6b81431f325e3f08e75544f254c182afe2",
      "to": "0x98fb6db4104df971db052a2fc8b7cb760135f880",
      "contractAddress": null
    },
    {
      "status": "0x1",
      "cumulativeGasUsed": "0x2da6aeb",
      "logs": [
        {
          "address": "0x98fb6db4104df971db052a2fc8b7cb760135f880",
          "topics": [
            "0xf354ce2d046227bb2a8db43674dab621b47724bc45cbc0b228a001245d53fd77",
            "0x4dcf687a49efb8ad9f5870afcc7e5b54eb574d69f28d75eb378e46400196541c"
          ],
          "data": "0x",
          "blockHash": "0x601049bd0c6fba942fdd792abfbb097c3ed6bbecf38fa58c87b269d7f6434b2f",
          "blockNumber": "0x8cc968",
          "blockTimestamp": "0x68cb94a0",
          "transactionHash": "0x064f68f775f0dad5e64293da1359141574196653868c9a159a01e93290e868c6",
          "transactionIndex": "0x8a",
          "logIndex": "0xa9",
          "removed": false
        }
      ],
      "logsBloom": "0x00000800000000000000000000000000000000000000000000000000000000000000000000000000000000000000000000000000000000000000000000200000000000000000000000000000000000000080000000000000000000000000000040000000000000000000000000000000000000000000000000000000000000000000000000000000000000000000000000000000000000000010000000000000000004000000000000000000000000000000000000000000000000000000000000000000000000000000000000000200000000000000000000000000020000000000000000000400000000000000000000000000000000000000000000000000",
      "type": "0x2",
      "transactionHash": "0x064f68f775f0dad5e64293da1359141574196653868c9a159a01e93290e868c6",
      "transactionIndex": "0x8a",
      "blockHash": "0x601049bd0c6fba942fdd792abfbb097c3ed6bbecf38fa58c87b269d7f6434b2f",
      "blockNumber": "0x8cc968",
      "gasUsed": "0x7111",
      "effectiveGasPrice": "0xf4255",
      "from": "0x3e723f6b81431f325e3f08e75544f254c182afe2",
      "to": "0x98fb6db4104df971db052a2fc8b7cb760135f880",
      "contractAddress": null
    },
    {
      "status": "0x1",
      "cumulativeGasUsed": "0x2db293a",
      "logs": [
        {
          "address": "0x98fb6db4104df971db052a2fc8b7cb760135f880",
          "topics": [
            "0xc4be386fe9fd651a56e42b3b831dd4bf6afaa363eb2d21181fe7e23a8ff50279",
            "0x4dcf687a49efb8ad9f5870afcc7e5b54eb574d69f28d75eb378e46400196541c"
          ],
          "data": "0x",
          "blockHash": "0x601049bd0c6fba942fdd792abfbb097c3ed6bbecf38fa58c87b269d7f6434b2f",
          "blockNumber": "0x8cc968",
          "blockTimestamp": "0x68cb94a0",
          "transactionHash": "0xe7c921fb19377a12d3dab4109f221136830e2f4fc00f728ff5a0fba9cf304f6f",
          "transactionIndex": "0x8b",
          "logIndex": "0xaa",
          "removed": false
        }
      ],
      "logsBloom": "0x00000000000000000000000000000000000000000000000000000000000000000000000000000000000000000000000000000000000000000000000000200000000000000000000000000000000000000000000000000000000000000000000040000000000000000000000000000000000000000000000000000000000000100000000000000000000000000000000004000000000000000010000000000000000004001000000000000000000000000000000000000000000000000000000000000000000000000000000000000000000000000000000000000000020000000000000000000400000000000000000000000000000000000000000000000000",
      "type": "0x2",
      "transactionHash": "0xe7c921fb19377a12d3dab4109f221136830e2f4fc00f728ff5a0fba9cf304f6f",
      "transactionIndex": "0x8b",
      "blockHash": "0x601049bd0c6fba942fdd792abfbb097c3ed6bbecf38fa58c87b269d7f6434b2f",
      "blockNumber": "0x8cc968",
      "gasUsed": "0xbe4f",
      "effectiveGasPrice": "0xf4255",
      "from": "0x3e723f6b81431f325e3f08e75544f254c182afe2",
      "to": "0x98fb6db4104df971db052a2fc8b7cb760135f880",
      "contractAddress": null
    },
    {
      "status": "0x1",
      "cumulativeGasUsed": "0x2dfb6f4",
      "logs": [
        {
          "address": "0xea30c4b8b44078bbf8a6ef5b9f1ec1626c7848d9",
          "topics": [
            "0xe9de54a3e7ddf0c48cc6e1134185300d5a71acbf2d8c21fcdefa9d9dd9e20ac1"
          ],
          "data": "0xbb39351b2bc70ad6be41519c393ba92b7146cf5c8fcae77c8a1f6982d55c880000000000000000000000000000000000000000000000000000000000000000a0000000000000000000000000000000000000000000000000000000000000012c00000000000000000000000000000000000000000000000000000000000000080000000000000000000000000000000000000000000000000000000000000000000000000000000000000000000000000000000000000000000000000000000e7472697669616c456e6372797074000000000000000000000000000000000000",
          "blockHash": "0x601049bd0c6fba942fdd792abfbb097c3ed6bbecf38fa58c87b269d7f6434b2f",
          "blockNumber": "0x8cc968",
          "blockTimestamp": "0x68cb94a0",
          "transactionHash": "0x8bd6b8c9f51112e0a97ed94715da02da08bbc3a6d4a8c2ac109dc8fc3d903bf1",
          "transactionIndex": "0x8c",
          "logIndex": "0xab",
          "removed": false
        },
        {
          "address": "0xea30c4b8b44078bbf8a6ef5b9f1ec1626c7848d9",
          "topics": [
            "0xe9de54a3e7ddf0c48cc6e1134185300d5a71acbf2d8c21fcdefa9d9dd9e20ac1"
          ],
          "data": "0x1253f33bcc7d14ead4330255d5baaf2209a953415c511c19411382f6423f840000000000000000000000000000000000000000000000000000000000000000a000000000000000000000000000000000000000000000000000000000000000b400000000000000000000000000000000000000000000000000000000000000040000000000000000000000000000000000000000000000000000000000000000000000000000000000000000000000000000000000000000000000000000000e7472697669616c456e6372797074000000000000000000000000000000000000",
          "blockHash": "0x601049bd0c6fba942fdd792abfbb097c3ed6bbecf38fa58c87b269d7f6434b2f",
          "blockNumber": "0x8cc968",
          "blockTimestamp": "0x68cb94a0",
          "transactionHash": "0x8bd6b8c9f51112e0a97ed94715da02da08bbc3a6d4a8c2ac109dc8fc3d903bf1",
          "transactionIndex": "0x8c",
          "logIndex": "0xac",
          "removed": false
        },
        {
          "address": "0xea30c4b8b44078bbf8a6ef5b9f1ec1626c7848d9",
          "topics": [
            "0xe9de54a3e7ddf0c48cc6e1134185300d5a71acbf2d8c21fcdefa9d9dd9e20ac1"
          ],
          "data": "0xe8c638c5370ad54fb6bc7fb3c67f13705c787cf30645cd1b92d5f61704b5840000000000000000000000000000000000000000000000000000000000000000a0000000000000000000000000000000000000000000000000000000000000006400000000000000000000000000000000000000000000000000000000000000040000000000000000000000000000000000000000000000000000000000000000000000000000000000000000000000000000000000000000000000000000000e7472697669616c456e6372797074000000000000000000000000000000000000",
          "blockHash": "0x601049bd0c6fba942fdd792abfbb097c3ed6bbecf38fa58c87b269d7f6434b2f",
          "blockNumber": "0x8cc968",
          "blockTimestamp": "0x68cb94a0",
          "transactionHash": "0x8bd6b8c9f51112e0a97ed94715da02da08bbc3a6d4a8c2ac109dc8fc3d903bf1",
          "transactionIndex": "0x8c",
          "logIndex": "0xad",
          "removed": false
        },
        {
          "address": "0xea30c4b8b44078bbf8a6ef5b9f1ec1626c7848d9",
          "topics": [
            "0xe9de54a3e7ddf0c48cc6e1134185300d5a71acbf2d8c21fcdefa9d9dd9e20ac1"
          ],
          "data": "0xb3e26d30bbd0fa3e41a1d86cb7844842fbb2638ed221cf36790bbd9c9f3e800000000000000000000000000000000000000000000000000000000000000000a0000000000000000000000000000000000000000000000000000000000000000100000000000000000000000000000000000000000000000000000000000000000000000000000000000000000000000000000000000000000000000000000000000000000000000000000000000000000000000000000000000000000000000e7472697669616c456e6372797074000000000000000000000000000000000000",
          "blockHash": "0x601049bd0c6fba942fdd792abfbb097c3ed6bbecf38fa58c87b269d7f6434b2f",
          "blockNumber": "0x8cc968",
          "blockTimestamp": "0x68cb94a0",
          "transactionHash": "0x8bd6b8c9f51112e0a97ed94715da02da08bbc3a6d4a8c2ac109dc8fc3d903bf1",
          "transactionIndex": "0x8c",
          "logIndex": "0xae",
          "removed": false
        },
        {
          "address": "0xea30c4b8b44078bbf8a6ef5b9f1ec1626c7848d9",
          "topics": [
            "0xe9de54a3e7ddf0c48cc6e1134185300d5a71acbf2d8c21fcdefa9d9dd9e20ac1"
          ],
          "data": "0xe8c638c5370ad54fb6bc7fb3c67f13705c787cf30645cd1b92d5f61704b5840000000000000000000000000000000000000000000000000000000000000000a0000000000000000000000000000000000000000000000000000000000000006400000000000000000000000000000000000000000000000000000000000000040000000000000000000000000000000000000000000000000000000000000000000000000000000000000000000000000000000000000000000000000000000e7472697669616c456e6372797074000000000000000000000000000000000000",
          "blockHash": "0x601049bd0c6fba942fdd792abfbb097c3ed6bbecf38fa58c87b269d7f6434b2f",
          "blockNumber": "0x8cc968",
          "blockTimestamp": "0x68cb94a0",
          "transactionHash": "0x8bd6b8c9f51112e0a97ed94715da02da08bbc3a6d4a8c2ac109dc8fc3d903bf1",
          "transactionIndex": "0x8c",
          "logIndex": "0xaf",
          "removed": false
        },
        {
          "address": "0xea30c4b8b44078bbf8a6ef5b9f1ec1626c7848d9",
          "topics": [
            "0xe9de54a3e7ddf0c48cc6e1134185300d5a71acbf2d8c21fcdefa9d9dd9e20ac1"
          ],
          "data": "0xd8d542465d641073d3a041fe1808c3ef4b840d59b78f9a8d96485189b1f2880000000000000000000000000000000000000000000000000000000000000000a0000000000000000000000000000000000000000000000000000000000000000000000000000000000000000000000000000000000000000000000000000000080000000000000000000000000000000000000000000000000000000000000000000000000000000000000000000000000000000000000000000000000000000e7472697669616c456e6372797074000000000000000000000000000000000000",
          "blockHash": "0x601049bd0c6fba942fdd792abfbb097c3ed6bbecf38fa58c87b269d7f6434b2f",
          "blockNumber": "0x8cc968",
          "blockTimestamp": "0x68cb94a0",
          "transactionHash": "0x8bd6b8c9f51112e0a97ed94715da02da08bbc3a6d4a8c2ac109dc8fc3d903bf1",
          "transactionIndex": "0x8c",
          "logIndex": "0xb0",
          "removed": false
        },
        {
          "address": "0xe03a1074c86cfedd5c142c4f04f1a1536e203543",
          "topics": [
            "0xdd466e674ea557f56295e2d0218a125ea4b4f0f6f3307b95f85e6110838d6438",
            "0x4dcf687a49efb8ad9f5870afcc7e5b54eb574d69f28d75eb378e46400196541c",
            "0x0000000000000000000000003e68f0f304314495fa45907170a59d0ba5218bcc",
            "0x000000000000000000000000abc0afb70f325f4119cfca4083ea2a580ec40d3f"
          ],
          "data": "0x0000000000000000000000000000000000000000000000000000000000000bb8000000000000000000000000000000000000000000000000000000000000003c00000000000000000000000098fb6db4104df971db052a2fc8b7cb760135f88000000000000000000000000000000000000000010000000000000000000000000000000000000000000000000000000000000000000000000000000000000000",
          "blockHash": "0x601049bd0c6fba942fdd792abfbb097c3ed6bbecf38fa58c87b269d7f6434b2f",
          "blockNumber": "0x8cc968",
          "blockTimestamp": "0x68cb94a0",
          "transactionHash": "0x8bd6b8c9f51112e0a97ed94715da02da08bbc3a6d4a8c2ac109dc8fc3d903bf1",
          "transactionIndex": "0x8c",
          "logIndex": "0xb1",
          "removed": false
        }
      ],
      "logsBloom": "0x00000000000000000000000000000000080000000000000000000000000000000000000000000000000040000000000000000100008000000000000000200000000000000000000000000000000000000000000000000000000000000000000000000000000000000000000000000010000000000000100000000000000000000000000000000008000002000000000001000001000000000010000000210000000000000000000000000000000000000000000000000000000000000000000000000000000000000000000000000000000000000000000000000000000000001000000000000400000200000000000000000000000000400000020200000400",
      "type": "0x2",
      "transactionHash": "0x8bd6b8c9f51112e0a97ed94715da02da08bbc3a6d4a8c2ac109dc8fc3d903bf1",
      "transactionIndex": "0x8c",
      "blockHash": "0x601049bd0c6fba942fdd792abfbb097c3ed6bbecf38fa58c87b269d7f6434b2f",
      "blockNumber": "0x8cc968",
      "gasUsed": "0x48dba",
      "effectiveGasPrice": "0xf4255",
      "from": "0x3e723f6b81431f325e3f08e75544f254c182afe2",
      "to": "0xe03a1074c86cfedd5c142c4f04f1a1536e203543",
      "contractAddress": null
    },
    {
      "status": "0x1",
      "cumulativeGasUsed": "0x2e01df5",
      "logs": [
        {
          "address": "0xabc0afb70f325f4119cfca4083ea2a580ec40d3f",
          "topics": [
            "0x8c5be1e5ebec7d5bd14f71427d1e84f3dd0314c0f7b2291e5b200ac8c7c3b925",
            "0x0000000000000000000000003e723f6b81431f325e3f08e75544f254c182afe2",
            "0x000000000000000000000000429ba70129df741b2ca2a85bc3a2a3328e5c09b4"
          ],
          "data": "0xffffffffffffffffffffffffffffffffffffffffffffffffffffffffffffffff",
          "blockHash": "0x601049bd0c6fba942fdd792abfbb097c3ed6bbecf38fa58c87b269d7f6434b2f",
          "blockNumber": "0x8cc968",
          "blockTimestamp": "0x68cb94a0",
          "transactionHash": "0x00ac0dfdef08483c5cb0cd07762f9cc0561a439e1a5af58cf36c40d366257c18",
          "transactionIndex": "0x8d",
          "logIndex": "0xb2",
          "removed": false
        }
      ],
      "logsBloom": "0x00000000000000000000000000000000000000000000000000000000000000000000000000000040080000000080000000000000080000000000000000200000000000000000000000000000000000100000000000000000000000000000000000000000000000000000000000000000000000000000000000000800000000000000000000000000000000000000000000000000000000000000000000000000020000000000004080000000000000000000000000000000000010000000000000000000000000000000000000000000000000000000000000000000000000000010000000000000000000000000000000000000000000000000000000000000",
      "type": "0x2",
      "transactionHash": "0x00ac0dfdef08483c5cb0cd07762f9cc0561a439e1a5af58cf36c40d366257c18",
      "transactionIndex": "0x8d",
      "blockHash": "0x601049bd0c6fba942fdd792abfbb097c3ed6bbecf38fa58c87b269d7f6434b2f",
      "blockNumber": "0x8cc968",
      "gasUsed": "0x6701",
      "effectiveGasPrice": "0xf4255",
      "from": "0x3e723f6b81431f325e3f08e75544f254c182afe2",
      "to": "0xabc0afb70f325f4119cfca4083ea2a580ec40d3f",
      "contractAddress": null
    },
    {
      "status": "0x1",
      "cumulativeGasUsed": "0x2e084f6",
      "logs": [
        {
          "address": "0x3e68f0f304314495fa45907170a59d0ba5218bcc",
          "topics": [
            "0x8c5be1e5ebec7d5bd14f71427d1e84f3dd0314c0f7b2291e5b200ac8c7c3b925",
            "0x0000000000000000000000003e723f6b81431f325e3f08e75544f254c182afe2",
            "0x000000000000000000000000429ba70129df741b2ca2a85bc3a2a3328e5c09b4"
          ],
          "data": "0xffffffffffffffffffffffffffffffffffffffffffffffffffffffffffffffff",
          "blockHash": "0x601049bd0c6fba942fdd792abfbb097c3ed6bbecf38fa58c87b269d7f6434b2f",
          "blockNumber": "0x8cc968",
          "blockTimestamp": "0x68cb94a0",
          "transactionHash": "0xfbdca35c165e6695dd85407d4abff371b36c8acee93c05c46c7bdbfe1712cfed",
          "transactionIndex": "0x8e",
          "logIndex": "0xb3",
          "removed": false
        }
      ],
      "logsBloom": "0x00000000000000000000000000000000000000000000000000000000000000000000000000000040080000000000000000000000080000800000000000200000000000000000000000000000000000000000000000000000000000000000000000000000000000000000000000000000000000000000000000000800000000000000000000000000000000000000000000000000000000000000000000000000020000000000000080000000000000000000000000002000000010000000000000000000000000000000000000000000000000000000000000000000000000400010000000000000000000000000000000000000000000000000000000000000",
      "type": "0x2",
      "transactionHash": "0xfbdca35c165e6695dd85407d4abff371b36c8acee93c05c46c7bdbfe1712cfed",
      "transactionIndex": "0x8e",
      "blockHash": "0x601049bd0c6fba942fdd792abfbb097c3ed6bbecf38fa58c87b269d7f6434b2f",
      "blockNumber": "0x8cc968",
      "gasUsed": "0x6701",
      "effectiveGasPrice": "0xf4255",
      "from": "0x3e723f6b81431f325e3f08e75544f254c182afe2",
      "to": "0x3e68f0f304314495fa45907170a59d0ba5218bcc",
      "contractAddress": null
    },
    {
      "status": "0x1",
      "cumulativeGasUsed": "0x2e13dc3",
      "logs": [
        {
          "address": "0xabc0afb70f325f4119cfca4083ea2a580ec40d3f",
          "topics": [
            "0x8c5be1e5ebec7d5bd14f71427d1e84f3dd0314c0f7b2291e5b200ac8c7c3b925",
            "0x0000000000000000000000003e723f6b81431f325e3f08e75544f254c182afe2",
            "0x000000000000000000000000000000000022d473030f116ddee9f6b43ac78ba3"
          ],
          "data": "0xffffffffffffffffffffffffffffffffffffffffffffffffffffffffffffffff",
          "blockHash": "0x601049bd0c6fba942fdd792abfbb097c3ed6bbecf38fa58c87b269d7f6434b2f",
          "blockNumber": "0x8cc968",
          "blockTimestamp": "0x68cb94a0",
          "transactionHash": "0x765f86972ea5b0adb472b7a91e3624cbebcd324cbabbe2e6636c9ac22a87c543",
          "transactionIndex": "0x90",
          "logIndex": "0xb4",
          "removed": false
        }
      ],
      "logsBloom": "0x00000000000000000000000000000000000000000000000000000000000000000000000000000000000000000080000000000000880000000000000000200000000000000000000000004000000000100000000000000800000000000000000000000000000000000000000000000000000000000000000000000000000000000000000000000000000000000000000000000000000000000000000000000000020000000000004080000000000000000000000000000000000010000000000000000000000000000000000000000000000000000000000000000000000000000010000000000000000000000000000000000000000000000000000000000000",
      "type": "0x2",
      "transactionHash": "0x765f86972ea5b0adb472b7a91e3624cbebcd324cbabbe2e6636c9ac22a87c543",
      "transactionIndex": "0x90",
      "blockHash": "0x601049bd0c6fba942fdd792abfbb097c3ed6bbecf38fa58c87b269d7f6434b2f",
      "blockNumber": "0x8cc968",
      "gasUsed": "0x66c5",
      "effectiveGasPrice": "0xf4255",
      "from": "0x3e723f6b81431f325e3f08e75544f254c182afe2",
      "to": "0xabc0afb70f325f4119cfca4083ea2a580ec40d3f",
      "contractAddress": null
    },
    {
      "status": "0x1",
      "cumulativeGasUsed": "0x2e1aad1",
      "logs": [
        {
          "address": "0x000000000022d473030f116ddee9f6b43ac78ba3",
          "topics": [
            "0xda9fa7c1b00402c17d0161b249b1ab8bbec047c5a52207b9c112deffd817036b",
            "0x0000000000000000000000003e723f6b81431f325e3f08e75544f254c182afe2",
            "0x000000000000000000000000abc0afb70f325f4119cfca4083ea2a580ec40d3f",
            "0x000000000000000000000000429ba70129df741b2ca2a85bc3a2a3328e5c09b4"
          ],
          "data": "0x000000000000000000000000ffffffffffffffffffffffffffffffffffffffff0000000000000000000000000000000000000000000000000000ffffffffffff",
          "blockHash": "0x601049bd0c6fba942fdd792abfbb097c3ed6bbecf38fa58c87b269d7f6434b2f",
          "blockNumber": "0x8cc968",
          "blockTimestamp": "0x68cb94a0",
          "transactionHash": "0xe883d4a9fa9eb2a6e77b7415e993ea2b8717bac545cc9934ff145d4cf3d27cd5",
          "transactionIndex": "0x91",
          "logIndex": "0xb5",
          "removed": false
        }
      ],
      "logsBloom": "0x00010000000000000000000000000000000000000000000000000000000000000000000000000040080000000000000000000000080000000000000000080000000000000000000000000000000000000000000000000000000000000000000000000000000000000000000000000010000000000000000000000800000000000020000000000000000002000000000000000000000000000000000000000000000000000000000080000000000000000000000000000000000010080000000000000000000000000000000000000000000000000000000040000000000000000000000000000000000000000000000000000000000000400000000000000400",
      "type": "0x2",
      "transactionHash": "0xe883d4a9fa9eb2a6e77b7415e993ea2b8717bac545cc9934ff145d4cf3d27cd5",
      "transactionIndex": "0x91",
      "blockHash": "0x601049bd0c6fba942fdd792abfbb097c3ed6bbecf38fa58c87b269d7f6434b2f",
      "blockNumber": "0x8cc968",
      "gasUsed": "0x6d0e",
      "effectiveGasPrice": "0xf4255",
      "from": "0x3e723f6b81431f325e3f08e75544f254c182afe2",
      "to": "0x000000000022d473030f116ddee9f6b43ac78ba3",
      "contractAddress": null
    },
    {
      "status": "0x1",
      "cumulativeGasUsed": "0x2e21196",
      "logs": [
        {
          "address": "0x3e68f0f304314495fa45907170a59d0ba5218bcc",
          "topics": [
            "0x8c5be1e5ebec7d5bd14f71427d1e84f3dd0314c0f7b2291e5b200ac8c7c3b925",
            "0x0000000000000000000000003e723f6b81431f325e3f08e75544f254c182afe2",
            "0x000000000000000000000000000000000022d473030f116ddee9f6b43ac78ba3"
          ],
          "data": "0xffffffffffffffffffffffffffffffffffffffffffffffffffffffffffffffff",
          "blockHash": "0x601049bd0c6fba942fdd792abfbb097c3ed6bbecf38fa58c87b269d7f6434b2f",
          "blockNumber": "0x8cc968",
          "blockTimestamp": "0x68cb94a0",
          "transactionHash": "0x47979ca671f103d915c17dafcc14c08f8ff21bb8e311a707fbdd2767cce990eb",
          "transactionIndex": "0x92",
          "logIndex": "0xb6",
          "removed": false
        }
      ],
      "logsBloom": "0x00000000000000000000000000000000000000000000000000000000000000000000000000000000000000000000000000000000880000800000000000200000000000000000000000004000000000000000000000000800000000000000000000000000000000000000000000000000000000000000000000000000000000000000000000000000000000000000000000000000000000000000000000000000020000000000000080000000000000000000000000002000000010000000000000000000000000000000000000000000000000000000000000000000000000400010000000000000000000000000000000000000000000000000000000000000",
      "type": "0x2",
      "transactionHash": "0x47979ca671f103d915c17dafcc14c08f8ff21bb8e311a707fbdd2767cce990eb",
      "transactionIndex": "0x92",
      "blockHash": "0x601049bd0c6fba942fdd792abfbb097c3ed6bbecf38fa58c87b269d7f6434b2f",
      "blockNumber": "0x8cc968",
      "gasUsed": "0x66c5",
      "effectiveGasPrice": "0xf4255",
      "from": "0x3e723f6b81431f325e3f08e75544f254c182afe2",
      "to": "0x3e68f0f304314495fa45907170a59d0ba5218bcc",
      "contractAddress": null
    },
    {
      "status": "0x1",
      "cumulativeGasUsed": "0x534147",
      "logs": [
        {
          "address": "0x000000000022d473030f116ddee9f6b43ac78ba3",
          "topics": [
            "0xda9fa7c1b00402c17d0161b249b1ab8bbec047c5a52207b9c112deffd817036b",
            "0x0000000000000000000000003e723f6b81431f325e3f08e75544f254c182afe2",
            "0x0000000000000000000000003e68f0f304314495fa45907170a59d0ba5218bcc",
            "0x000000000000000000000000429ba70129df741b2ca2a85bc3a2a3328e5c09b4"
          ],
          "data": "0x000000000000000000000000ffffffffffffffffffffffffffffffffffffffff0000000000000000000000000000000000000000000000000000ffffffffffff",
          "blockHash": "0x0b0229d45d4719f9c2204e1e79d6769eb7362d4a397466f7bb6df61105b44d76",
          "blockNumber": "0x8cc969",
          "transactionHash": "0x09391da1e330a73f97708cf4691a3d8f42637f495a8e43f1b63e418f8441c73a",
          "transactionIndex": "0x3f",
          "logIndex": "0x43",
          "removed": false
        }
      ],
      "logsBloom": "0x00010000000000000000000000000000000000000000000000000000000000000000000000000040080040000000000000000000080000000000000000080000000000000000000000000000000000000000000000000000000000000000000000000000000000000000000000000000000000000000000000000800000000000020000000000000000000000000000000000000000000000000000000010000000000000000000080000000000000000000000000000000000010080000000000000000000000000000000000000000000000000000000040000000000000000000000000000000000000000000000000000000000000000000000000000400",
      "type": "0x2",
      "transactionHash": "0x09391da1e330a73f97708cf4691a3d8f42637f495a8e43f1b63e418f8441c73a",
      "transactionIndex": "0x3f",
      "blockHash": "0x0b0229d45d4719f9c2204e1e79d6769eb7362d4a397466f7bb6df61105b44d76",
      "blockNumber": "0x8cc969",
      "gasUsed": "0x6d0e",
      "effectiveGasPrice": "0xf4256",
      "from": "0x3e723f6b81431f325e3f08e75544f254c182afe2",
      "to": "0x000000000022d473030f116ddee9f6b43ac78ba3",
      "contractAddress": null
    },
    {
      "status": "0x1",
      "cumulativeGasUsed": "0x544c10",
      "logs": [
        {
          "address": "0xabc0afb70f325f4119cfca4083ea2a580ec40d3f",
          "topics": [
            "0x8c5be1e5ebec7d5bd14f71427d1e84f3dd0314c0f7b2291e5b200ac8c7c3b925",
            "0x0000000000000000000000003e723f6b81431f325e3f08e75544f254c182afe2",
            "0x000000000000000000000000f13d190e9117920c703d79b5f33732e10049b115"
          ],
          "data": "0xffffffffffffffffffffffffffffffffffffffffffffffffffffffffffffffff",
          "blockHash": "0x0b0229d45d4719f9c2204e1e79d6769eb7362d4a397466f7bb6df61105b44d76",
          "blockNumber": "0x8cc969",
          "transactionHash": "0x8c31881746ba7fcc58070ec39e74364f010dc63b6b4642bec59add963fb52d89",
          "transactionIndex": "0x41",
          "logIndex": "0x44",
          "removed": false
        }
      ],
      "logsBloom": "0x00000000000000000000000000000000000000000000000000800000000000000000000000000000000000000080000000000000080000000000000000200000000000000000000000000000000000100000000000000000000000000000000000000000000000000000000000000000000000000000000000000000000000000000000000080000000000000000000000000000000000000000000000000000020000000000004080000000000000000000000000000000000010000000000000000000000000000000000000000000000000000000000000000000000080000010000000000000000000000000000000000000000000000000000000000000",
      "type": "0x2",
      "transactionHash": "0x8c31881746ba7fcc58070ec39e74364f010dc63b6b4642bec59add963fb52d89",
      "transactionIndex": "0x41",
      "blockHash": "0x0b0229d45d4719f9c2204e1e79d6769eb7362d4a397466f7bb6df61105b44d76",
      "blockNumber": "0x8cc969",
      "gasUsed": "0x66f5",
      "effectiveGasPrice": "0xf4256",
      "from": "0x3e723f6b81431f325e3f08e75544f254c182afe2",
      "to": "0xabc0afb70f325f4119cfca4083ea2a580ec40d3f",
      "contractAddress": null
    },
    {
      "status": "0x1",
      "cumulativeGasUsed": "0x54b305",
      "logs": [
        {
          "address": "0x3e68f0f304314495fa45907170a59d0ba5218bcc",
          "topics": [
            "0x8c5be1e5ebec7d5bd14f71427d1e84f3dd0314c0f7b2291e5b200ac8c7c3b925",
            "0x0000000000000000000000003e723f6b81431f325e3f08e75544f254c182afe2",
            "0x000000000000000000000000f13d190e9117920c703d79b5f33732e10049b115"
          ],
          "data": "0xffffffffffffffffffffffffffffffffffffffffffffffffffffffffffffffff",
          "blockHash": "0x0b0229d45d4719f9c2204e1e79d6769eb7362d4a397466f7bb6df61105b44d76",
          "blockNumber": "0x8cc969",
          "transactionHash": "0x3a0414722a0a37067dd5b1ccc49bc9fcbbb7947acd591cb3bab16c5686a1cf2f",
          "transactionIndex": "0x42",
          "logIndex": "0x45",
          "removed": false
        }
      ],
      "logsBloom": "0x00000000000000000000000000000000000000000000000000800000000000000000000000000000000000000000000000000000080000800000000000200000000000000000000000000000000000000000000000000000000000000000000000000000000000000000000000000000000000000000000000000000000000000000000000080000000000000000000000000000000000000000000000000000020000000000000080000000000000000000000000002000000010000000000000000000000000000000000000000000000000000000000000000000000080400010000000000000000000000000000000000000000000000000000000000000",
      "type": "0x2",
      "transactionHash": "0x3a0414722a0a37067dd5b1ccc49bc9fcbbb7947acd591cb3bab16c5686a1cf2f",
      "transactionIndex": "0x42",
      "blockHash": "0x0b0229d45d4719f9c2204e1e79d6769eb7362d4a397466f7bb6df61105b44d76",
      "blockNumber": "0x8cc969",
      "gasUsed": "0x66f5",
      "effectiveGasPrice": "0xf4256",
      "from": "0x3e723f6b81431f325e3f08e75544f254c182afe2",
      "to": "0x3e68f0f304314495fa45907170a59d0ba5218bcc",
      "contractAddress": null
    },
    {
      "status": "0x1",
      "cumulativeGasUsed": "0x5b8ad9",
      "logs": [
        {
          "address": "0xe03a1074c86cfedd5c142c4f04f1a1536e203543",
          "topics": [
            "0x40e9cecb9f5f1f1c5b9c97dec2917b7ee92e57ba5563708daca94dd84ad7112f",
            "0x4dcf687a49efb8ad9f5870afcc7e5b54eb574d69f28d75eb378e46400196541c",
            "0x000000000000000000000000f13d190e9117920c703d79b5f33732e10049b115"
          ],
          "data": "0x0000000000000000000000000000000000000000000000000000000000000000000000000000000000000000000000000000000000000000000000000000000000000000000000000000000000000000000000000000000000000001000276a40000000000000000000000000000000000000000000000000000000000000000fffffffffffffffffffffffffffffffffffffffffffffffffffffffffff276180000000000000000000000000000000000000000000000000000000000000bb8",
          "blockHash": "0x0b0229d45d4719f9c2204e1e79d6769eb7362d4a397466f7bb6df61105b44d76",
          "blockNumber": "0x8cc969",
          "blockTimestamp": "0x68cb94ac",
          "transactionHash": "0x1fd18edc26498d157868e4cf223ce0e68317af51353a2c864d66ace50c9a1382",
          "transactionIndex": "0x44",
          "logIndex": "0x47",
          "removed": false
        }
      ],
      "logsBloom": "0x00000000000000000000000000000000000000000000000000800000000000000000000000000000000000000000000000000100040000000000000000200000000000000000000000000000000000000000000000000020000000000000000000000000000000000000000000000000000000000000100000000000000000000000000000080000000000000000000000000000000000000010000000000000000000000000000000000000000000000000000000000000000000000000000000000000000000000000000000000000000000000000000000000000000080001000000000000400004000000000000000000000000000000000000000000000",
      "type": "0x2",
      "transactionHash": "0x1fd18edc26498d157868e4cf223ce0e68317af51353a2c864d66ace50c9a1382",
      "transactionIndex": "0x44",
      "blockHash": "0x0b0229d45d4719f9c2204e1e79d6769eb7362d4a397466f7bb6df61105b44d76",
      "blockNumber": "0x8cc969",
      "gasUsed": "0x62293",
      "effectiveGasPrice": "0xf4256",
      "from": "0x3e723f6b81431f325e3f08e75544f254c182afe2",
      "to": "0xf13d190e9117920c703d79b5f33732e10049b115",
      "contractAddress": null
    }
  ],
  "libraries": [],
  "pending": [],
  "returns": {},
  "timestamp": 1758172333615,
  "chain": 11155111,
  "commit": "7b9c819"
}