{
  "transactions": [
    {
      "hash": "0x009db5c720eb8d0a04a822420988560d754d88e7b1331db3261d40f76db19473",
      "transactionType": "CALL",
      "contractName": null,
      "contractAddress": "0x0faf3047dc05328c5251a7beef8408c4d3a23880",
      "function": "configureEncryptedRebalancingStrategy((address,address,uint24,int24,address),uint24,uint32,int24,bool,uint24)",
      "arguments": [
        "(0x0E42Efc341d5ef175dB4CE9516d13eecC379e9Ec, 0xf7eC23380BB7adEdaf4c69239B66e444B4aaffDb, 3000, 60, 0x0faF3047Dc05328c5251a7BeEF8408c4d3A23880)",
        "500",
        "3600",
        "200",
        "true",
        "150"
      ],
      "transaction": {
        "from": "0x3e723f6b81431f325e3f08e75544f254c182afe2",
        "to": "0x0faf3047dc05328c5251a7beef8408c4d3a23880",
        "gas": "0x4298c",
        "value": "0x0",
        "input": "0xa9eb74780000000000000000000000000e42efc341d5ef175db4ce9516d13eecc379e9ec000000000000000000000000f7ec23380bb7adedaf4c69239b66e444b4aaffdb0000000000000000000000000000000000000000000000000000000000000bb8000000000000000000000000000000000000000000000000000000000000003c0000000000000000000000000faf3047dc05328c5251a7beef8408c4d3a2388000000000000000000000000000000000000000000000000000000000000001f40000000000000000000000000000000000000000000000000000000000000e1000000000000000000000000000000000000000000000000000000000000000c800000000000000000000000000000000000000000000000000000000000000010000000000000000000000000000000000000000000000000000000000000096",
        "nonce": "0x580",
        "chainId": "0xaa36a7"
      },
      "additionalContracts": [],
      "isFixedGasLimit": false
    },
    {
      "hash": "0x610a1118b14c0e67470dd0f537a4fc03ba4948a737646ceb50d0a54bf5bcacee",
      "transactionType": "CALL",
      "contractName": null,
      "contractAddress": "0x0faf3047dc05328c5251a7beef8408c4d3a23880",
      "function": "pausePoolRebalancing((address,address,uint24,int24,address))",
      "arguments": [
        "(0x0E42Efc341d5ef175dB4CE9516d13eecC379e9Ec, 0xf7eC23380BB7adEdaf4c69239B66e444B4aaffDb, 3000, 60, 0x0faF3047Dc05328c5251a7BeEF8408c4d3A23880)"
      ],
      "transaction": {
        "from": "0x3e723f6b81431f325e3f08e75544f254c182afe2",
        "to": "0x0faf3047dc05328c5251a7beef8408c4d3a23880",
        "gas": "0x1d86d",
        "value": "0x0",
        "input": "0xfbdd948f0000000000000000000000000e42efc341d5ef175db4ce9516d13eecc379e9ec000000000000000000000000f7ec23380bb7adedaf4c69239b66e444b4aaffdb0000000000000000000000000000000000000000000000000000000000000bb8000000000000000000000000000000000000000000000000000000000000003c0000000000000000000000000faf3047dc05328c5251a7beef8408c4d3a23880",
        "nonce": "0x581",
        "chainId": "0xaa36a7"
      },
      "additionalContracts": [],
      "isFixedGasLimit": false
    },
    {
      "hash": "0x5ed382aa5ddb1636b57f8ae1f2527778ce52c87969c18136ccc9e9ea535e3c2c",
      "transactionType": "CALL",
      "contractName": null,
      "contractAddress": "0x0faf3047dc05328c5251a7beef8408c4d3a23880",
      "function": "resumePoolRebalancing((address,address,uint24,int24,address))",
      "arguments": [
        "(0x0E42Efc341d5ef175dB4CE9516d13eecC379e9Ec, 0xf7eC23380BB7adEdaf4c69239B66e444B4aaffDb, 3000, 60, 0x0faF3047Dc05328c5251a7BeEF8408c4d3A23880)"
      ],
      "transaction": {
        "from": "0x3e723f6b81431f325e3f08e75544f254c182afe2",
        "to": "0x0faf3047dc05328c5251a7beef8408c4d3a23880",
        "gas": "0x1f451",
        "value": "0x0",
        "input": "0xfe0389100000000000000000000000000e42efc341d5ef175db4ce9516d13eecc379e9ec000000000000000000000000f7ec23380bb7adedaf4c69239b66e444b4aaffdb0000000000000000000000000000000000000000000000000000000000000bb8000000000000000000000000000000000000000000000000000000000000003c0000000000000000000000000faf3047dc05328c5251a7beef8408c4d3a23880",
        "nonce": "0x582",
        "chainId": "0xaa36a7"
      },
      "additionalContracts": [],
      "isFixedGasLimit": false
    },
    {
      "hash": "0x3ce0492b84ef4dc29897c53afd775b4cabf5e8aac43e13080574b281a118f796",
      "transactionType": "CALL",
      "contractName": null,
      "contractAddress": "0x0faf3047dc05328c5251a7beef8408c4d3a23880",
      "function": "deactivatePool((address,address,uint24,int24,address))",
      "arguments": [
        "(0x0E42Efc341d5ef175dB4CE9516d13eecC379e9Ec, 0xf7eC23380BB7adEdaf4c69239B66e444B4aaffDb, 3000, 60, 0x0faF3047Dc05328c5251a7BeEF8408c4d3A23880)"
      ],
      "transaction": {
        "from": "0x3e723f6b81431f325e3f08e75544f254c182afe2",
        "to": "0x0faf3047dc05328c5251a7beef8408c4d3a23880",
        "gas": "0xb55a",
        "value": "0x0",
        "input": "0x7a2486b50000000000000000000000000e42efc341d5ef175db4ce9516d13eecc379e9ec000000000000000000000000f7ec23380bb7adedaf4c69239b66e444b4aaffdb0000000000000000000000000000000000000000000000000000000000000bb8000000000000000000000000000000000000000000000000000000000000003c0000000000000000000000000faf3047dc05328c5251a7beef8408c4d3a23880",
        "nonce": "0x583",
        "chainId": "0xaa36a7"
      },
      "additionalContracts": [],
      "isFixedGasLimit": false
    },
    {
      "hash": "0xddd24b68f52a67bfd8524b10a9183acb2515ed3849c1c27412d6601d59e4c4e4",
      "transactionType": "CALL",
      "contractName": null,
      "contractAddress": "0x0faf3047dc05328c5251a7beef8408c4d3a23880",
      "function": "reactivatePool((address,address,uint24,int24,address))",
      "arguments": [
        "(0x0E42Efc341d5ef175dB4CE9516d13eecC379e9Ec, 0xf7eC23380BB7adEdaf4c69239B66e444B4aaffDb, 3000, 60, 0x0faF3047Dc05328c5251a7BeEF8408c4d3A23880)"
      ],
      "transaction": {
        "from": "0x3e723f6b81431f325e3f08e75544f254c182afe2",
        "to": "0x0faf3047dc05328c5251a7beef8408c4d3a23880",
        "gas": "0xb4a2",
        "value": "0x0",
        "input": "0x54ee1e530000000000000000000000000e42efc341d5ef175db4ce9516d13eecc379e9ec000000000000000000000000f7ec23380bb7adedaf4c69239b66e444b4aaffdb0000000000000000000000000000000000000000000000000000000000000bb8000000000000000000000000000000000000000000000000000000000000003c0000000000000000000000000faf3047dc05328c5251a7beef8408c4d3a23880",
        "nonce": "0x584",
        "chainId": "0xaa36a7"
      },
      "additionalContracts": [],
      "isFixedGasLimit": false
    },
    {
      "hash": "0x35261e8420c0de84cbf3d5da37c211f344bbacece4f4d2c0986b2955923e5e10",
      "transactionType": "CALL",
      "contractName": null,
      "contractAddress": "0xf7ec23380bb7adedaf4c69239b66e444b4aaffdb",
      "function": "approve(address,uint256)",
      "arguments": [
        "0x429ba70129df741B2Ca2a85BC3A2a3328e5c09b4",
        "115792089237316195423570985008687907853269984665640564039457584007913129639935"
      ],
      "transaction": {
        "from": "0x3e723f6b81431f325e3f08e75544f254c182afe2",
        "to": "0xf7ec23380bb7adedaf4c69239b66e444b4aaffdb",
        "gas": "0x96a4",
        "value": "0x0",
        "input": "0x095ea7b3000000000000000000000000429ba70129df741b2ca2a85bc3a2a3328e5c09b4ffffffffffffffffffffffffffffffffffffffffffffffffffffffffffffffff",
        "nonce": "0x585",
        "chainId": "0xaa36a7"
      },
      "additionalContracts": [],
      "isFixedGasLimit": false
    },
    {
      "hash": "0x8fe93e2f8db12235e16d81d29b4817beadf61c41311b415e4fc9ea43fe40db42",
      "transactionType": "CALL",
      "contractName": null,
      "contractAddress": "0x0e42efc341d5ef175db4ce9516d13eecc379e9ec",
      "function": "approve(address,uint256)",
      "arguments": [
        "0x429ba70129df741B2Ca2a85BC3A2a3328e5c09b4",
        "115792089237316195423570985008687907853269984665640564039457584007913129639935"
      ],
      "transaction": {
        "from": "0x3e723f6b81431f325e3f08e75544f254c182afe2",
        "to": "0x0e42efc341d5ef175db4ce9516d13eecc379e9ec",
        "gas": "0x96a4",
        "value": "0x0",
        "input": "0x095ea7b3000000000000000000000000429ba70129df741b2ca2a85bc3a2a3328e5c09b4ffffffffffffffffffffffffffffffffffffffffffffffffffffffffffffffff",
        "nonce": "0x586",
        "chainId": "0xaa36a7"
      },
      "additionalContracts": [],
      "isFixedGasLimit": false
    },
    {
      "hash": "0x2f42056048e9a1473d39406e844a4d01e18048495f3b36c0a30b0edd4801c699",
      "transactionType": "CALL",
      "contractName": null,
      "contractAddress": "0x429ba70129df741b2ca2a85bc3a2a3328e5c09b4",
      "function": "multicall(bytes[])",
      "arguments": [
        "[0xdd46508f00000000000000000000000000000000000000000000000000000000000000400000000000000000000000000000000000000000000000000000000068cb02540000000000000000000000000000000000000000000000000000000000000400000000000000000000000000000000000000000000000000000000000000004000000000000000000000000000000000000000000000000000000000000000800000000000000000000000000000000000000000000000000000000000000004020d14140000000000000000000000000000000000000000000000000000000000000000000000000000000000000000000000000000000000000000000000040000000000000000000000000000000000000000000000000000000000000080000000000000000000000000000000000000000000000000000000000000024000000000000000000000000000000000000000000000000000000000000002a0000000000000000000000000000000000000000000000000000000000000030000000000000000000000000000000000000000000000000000000000000001a00000000000000000000000000e42efc341d5ef175db4ce9516d13eecc379e9ec000000000000000000000000f7ec23380bb7adedaf4c69239b66e444b4aaffdb0000000000000000000000000000000000000000000000000000000000000bb8000000000000000000000000000000000000000000000000000000000000003c0000000000000000000000000000000000000000000000000000000000000000000000000000000000000000000000000000000000000000000000000000000000000000000000000000000000000000000000000000000000000000000002580000000000000000000000000000000000000000000000002ef57eae08ae2b56000000000000000000000000000000000000000000000000016345785d8a00010000000000000000000000000000000000000000000000000000000005f5e1010000000000000000000000003e723f6b81431f325e3f08e75544f254c182afe20000000000000000000000000000000000000000000000000000000000000180000000000000000000000000000000000000000000000000000000000000000000000000000000000000000000000000000000000000000000000000000000400000000000000000000000000e42efc341d5ef175db4ce9516d13eecc379e9ec000000000000000000000000f7ec23380bb7adedaf4c69239b66e444b4aaffdb00000000000000000000000000000000000000000000000000000000000000400000000000000000000000000e42efc341d5ef175db4ce9516d13eecc379e9ec0000000000000000000000003e723f6b81431f325e3f08e75544f254c182afe20000000000000000000000000000000000000000000000000000000000000040000000000000000000000000f7ec23380bb7adedaf4c69239b66e444b4aaffdb0000000000000000000000003e723f6b81431f325e3f08e75544f254c182afe2]"
      ],
      "transaction": {
        "from": "0x3e723f6b81431f325e3f08e75544f254c182afe2",
        "to": "0x429ba70129df741b2ca2a85bc3a2a3328e5c09b4",
        "gas": "0x4ffe6",
        "value": "0x0",
        "input": "0xac9650d80000000000000000000000000000000000000000000000000000000000000020000000000000000000000000000000000000000000000000000000000000000100000000000000000000000000000000000000000000000000000000000000200000000000000000000000000000000000000000000000000000000000000464dd46508f00000000000000000000000000000000000000000000000000000000000000400000000000000000000000000000000000000000000000000000000068cb02540000000000000000000000000000000000000000000000000000000000000400000000000000000000000000000000000000000000000000000000000000004000000000000000000000000000000000000000000000000000000000000000800000000000000000000000000000000000000000000000000000000000000004020d14140000000000000000000000000000000000000000000000000000000000000000000000000000000000000000000000000000000000000000000000040000000000000000000000000000000000000000000000000000000000000080000000000000000000000000000000000000000000000000000000000000024000000000000000000000000000000000000000000000000000000000000002a0000000000000000000000000000000000000000000000000000000000000030000000000000000000000000000000000000000000000000000000000000001a00000000000000000000000000e42efc341d5ef175db4ce9516d13eecc379e9ec000000000000000000000000f7ec23380bb7adedaf4c69239b66e444b4aaffdb0000000000000000000000000000000000000000000000000000000000000bb8000000000000000000000000000000000000000000000000000000000000003c0000000000000000000000000000000000000000000000000000000000000000000000000000000000000000000000000000000000000000000000000000000000000000000000000000000000000000000000000000000000000000000002580000000000000000000000000000000000000000000000002ef57eae08ae2b56000000000000000000000000000000000000000000000000016345785d8a00010000000000000000000000000000000000000000000000000000000005f5e1010000000000000000000000003e723f6b81431f325e3f08e75544f254c182afe20000000000000000000000000000000000000000000000000000000000000180000000000000000000000000000000000000000000000000000000000000000000000000000000000000000000000000000000000000000000000000000000400000000000000000000000000e42efc341d5ef175db4ce9516d13eecc379e9ec000000000000000000000000f7ec23380bb7adedaf4c69239b66e444b4aaffdb00000000000000000000000000000000000000000000000000000000000000400000000000000000000000000e42efc341d5ef175db4ce9516d13eecc379e9ec0000000000000000000000003e723f6b81431f325e3f08e75544f254c182afe20000000000000000000000000000000000000000000000000000000000000040000000000000000000000000f7ec23380bb7adedaf4c69239b66e444b4aaffdb0000000000000000000000003e723f6b81431f325e3f08e75544f254c182afe200000000000000000000000000000000000000000000000000000000",
        "nonce": "0x587",
        "chainId": "0xaa36a7"
      },
      "additionalContracts": [],
      "isFixedGasLimit": false
    },
    {
      "hash": "0x231f2256777977dff9295fc2dddc81e0a05843e180ac8f38c4235840f31a308c",
      "transactionType": "CALL",
      "contractName": null,
      "contractAddress": "0xf7ec23380bb7adedaf4c69239b66e444b4aaffdb",
      "function": "approve(address,uint256)",
      "arguments": [
        "0xf13D190e9117920c703d79B5F33732e10049b115",
        "115792089237316195423570985008687907853269984665640564039457584007913129639935"
      ],
      "transaction": {
        "from": "0x3e723f6b81431f325e3f08e75544f254c182afe2",
        "to": "0xf7ec23380bb7adedaf4c69239b66e444b4aaffdb",
        "gas": "0x8e35",
        "value": "0x0",
        "input": "0x095ea7b3000000000000000000000000f13d190e9117920c703d79b5f33732e10049b115ffffffffffffffffffffffffffffffffffffffffffffffffffffffffffffffff",
        "nonce": "0x588",
        "chainId": "0xaa36a7"
      },
      "additionalContracts": [],
      "isFixedGasLimit": false
    },
    {
      "hash": "0xd22e670b7efd513607ef6ffb07c63b84204cf9e52d354420166ea8e3fea7fc55",
      "transactionType": "CALL",
      "contractName": null,
      "contractAddress": "0x0e42efc341d5ef175db4ce9516d13eecc379e9ec",
      "function": "approve(address,uint256)",
      "arguments": [
        "0xf13D190e9117920c703d79B5F33732e10049b115",
        "115792089237316195423570985008687907853269984665640564039457584007913129639935"
      ],
      "transaction": {
        "from": "0x3e723f6b81431f325e3f08e75544f254c182afe2",
        "to": "0x0e42efc341d5ef175db4ce9516d13eecc379e9ec",
        "gas": "0x8e35",
        "value": "0x0",
        "input": "0x095ea7b3000000000000000000000000f13d190e9117920c703d79b5f33732e10049b115ffffffffffffffffffffffffffffffffffffffffffffffffffffffffffffffff",
        "nonce": "0x589",
        "chainId": "0xaa36a7"
      },
      "additionalContracts": [],
      "isFixedGasLimit": false
    },
    {
      "hash": "0x7e33fb115b938cf2dc9e5b659070ac7add83717ef0aa5bc06f60960de3d5db4f",
      "transactionType": "CALL",
      "contractName": null,
      "contractAddress": "0xf13d190e9117920c703d79b5f33732e10049b115",
      "function": "swapExactTokensForTokens(uint256,uint256,bool,(address,address,uint24,int24,address),bytes,address,uint256)",
      "arguments": [
        "1000000",
        "0",
        "true",
        "(0x0E42Efc341d5ef175dB4CE9516d13eecC379e9Ec, 0xf7eC23380BB7adEdaf4c69239B66e444B4aaffDb, 3000, 60, 0x0faF3047Dc05328c5251a7BeEF8408c4d3A23880)",
        "0x",
        "0x3e723f6B81431f325E3F08e75544F254C182AFE2",
        "1758138408"
      ],
      "transaction": {
        "from": "0x3e723f6b81431f325e3f08e75544f254c182afe2",
        "to": "0xf13d190e9117920c703d79b5f33732e10049b115",
        "gas": "0x4d6d4",
        "value": "0x0",
        "input": "0xb1a0d57100000000000000000000000000000000000000000000000000000000000f4240000000000000000000000000000000000000000000000000000000000000000000000000000000000000000000000000000000000000000000000000000000010000000000000000000000000e42efc341d5ef175db4ce9516d13eecc379e9ec000000000000000000000000f7ec23380bb7adedaf4c69239b66e444b4aaffdb0000000000000000000000000000000000000000000000000000000000000bb8000000000000000000000000000000000000000000000000000000000000003c0000000000000000000000000faf3047dc05328c5251a7beef8408c4d3a2388000000000000000000000000000000000000000000000000000000000000001600000000000000000000000003e723f6b81431f325e3f08e75544f254c182afe20000000000000000000000000000000000000000000000000000000068cb10280000000000000000000000000000000000000000000000000000000000000000",
        "nonce": "0x58a",
        "chainId": "0xaa36a7"
      },
      "additionalContracts": [],
      "isFixedGasLimit": false
    }
  ],
  "receipts": [
    {
      "status": "0x1",
      "cumulativeGasUsed": "0x172c3fe",
      "logs": [
        {
          "address": "0xea30c4b8b44078bbf8a6ef5b9f1ec1626c7848d9",
          "topics": [
            "0xe9de54a3e7ddf0c48cc6e1134185300d5a71acbf2d8c21fcdefa9d9dd9e20ac1"
          ],
          "data": "0xa086c907b116b1572126a2ccfaa5f6524f347f8a1d8378ce37b958e0cccc880000000000000000000000000000000000000000000000000000000000000000a000000000000000000000000000000000000000000000000000000000000001f400000000000000000000000000000000000000000000000000000000000000080000000000000000000000000000000000000000000000000000000000000000000000000000000000000000000000000000000000000000000000000000000e7472697669616c456e6372797074000000000000000000000000000000000000",
          "blockHash": "0x5e363d3211d0d1f05458397dcc3281f55a1c1ba6491a77dc5d79ad2ddf283d09",
          "blockNumber": "0x8cbdfb",
          "blockTimestamp": "0x68cb0248",
          "transactionHash": "0x009db5c720eb8d0a04a822420988560d754d88e7b1331db3261d40f76db19473",
          "transactionIndex": "0x3c",
          "logIndex": "0x14d",
          "removed": false
        },
        {
          "address": "0xea30c4b8b44078bbf8a6ef5b9f1ec1626c7848d9",
          "topics": [
            "0xe9de54a3e7ddf0c48cc6e1134185300d5a71acbf2d8c21fcdefa9d9dd9e20ac1"
          ],
          "data": "0xcc63d19e9a0f97a43bc73dca1ee8b6f4b645d8919747695fa5d1d0da853a840000000000000000000000000000000000000000000000000000000000000000a00000000000000000000000000000000000000000000000000000000000000e1000000000000000000000000000000000000000000000000000000000000000040000000000000000000000000000000000000000000000000000000000000000000000000000000000000000000000000000000000000000000000000000000e7472697669616c456e6372797074000000000000000000000000000000000000",
          "blockHash": "0x5e363d3211d0d1f05458397dcc3281f55a1c1ba6491a77dc5d79ad2ddf283d09",
          "blockNumber": "0x8cbdfb",
          "blockTimestamp": "0x68cb0248",
          "transactionHash": "0x009db5c720eb8d0a04a822420988560d754d88e7b1331db3261d40f76db19473",
          "transactionIndex": "0x3c",
          "logIndex": "0x14e",
          "removed": false
        },
        {
          "address": "0xea30c4b8b44078bbf8a6ef5b9f1ec1626c7848d9",
          "topics": [
            "0xe9de54a3e7ddf0c48cc6e1134185300d5a71acbf2d8c21fcdefa9d9dd9e20ac1"
          ],
          "data": "0xcdef58c863398f789d9953afd1326207812f448c90165e6886555071b2f4840000000000000000000000000000000000000000000000000000000000000000a000000000000000000000000000000000000000000000000000000000000000c800000000000000000000000000000000000000000000000000000000000000040000000000000000000000000000000000000000000000000000000000000000000000000000000000000000000000000000000000000000000000000000000e7472697669616c456e6372797074000000000000000000000000000000000000",
          "blockHash": "0x5e363d3211d0d1f05458397dcc3281f55a1c1ba6491a77dc5d79ad2ddf283d09",
          "blockNumber": "0x8cbdfb",
          "blockTimestamp": "0x68cb0248",
          "transactionHash": "0x009db5c720eb8d0a04a822420988560d754d88e7b1331db3261d40f76db19473",
          "transactionIndex": "0x3c",
          "logIndex": "0x14f",
          "removed": false
        },
        {
          "address": "0xea30c4b8b44078bbf8a6ef5b9f1ec1626c7848d9",
          "topics": [
            "0xe9de54a3e7ddf0c48cc6e1134185300d5a71acbf2d8c21fcdefa9d9dd9e20ac1"
          ],
          "data": "0xb3e26d30bbd0fa3e41a1d86cb7844842fbb2638ed221cf36790bbd9c9f3e800000000000000000000000000000000000000000000000000000000000000000a0000000000000000000000000000000000000000000000000000000000000000100000000000000000000000000000000000000000000000000000000000000000000000000000000000000000000000000000000000000000000000000000000000000000000000000000000000000000000000000000000000000000000000e7472697669616c456e6372797074000000000000000000000000000000000000",
          "blockHash": "0x5e363d3211d0d1f05458397dcc3281f55a1c1ba6491a77dc5d79ad2ddf283d09",
          "blockNumber": "0x8cbdfb",
          "blockTimestamp": "0x68cb0248",
          "transactionHash": "0x009db5c720eb8d0a04a822420988560d754d88e7b1331db3261d40f76db19473",
          "transactionIndex": "0x3c",
          "logIndex": "0x150",
          "removed": false
        },
        {
          "address": "0xea30c4b8b44078bbf8a6ef5b9f1ec1626c7848d9",
          "topics": [
            "0xe9de54a3e7ddf0c48cc6e1134185300d5a71acbf2d8c21fcdefa9d9dd9e20ac1"
          ],
          "data": "0xbd85f53fc4f2243f9ffcb22983ba1d224d1e77fdca733b69f7215d316181840000000000000000000000000000000000000000000000000000000000000000a0000000000000000000000000000000000000000000000000000000000000009600000000000000000000000000000000000000000000000000000000000000040000000000000000000000000000000000000000000000000000000000000000000000000000000000000000000000000000000000000000000000000000000e7472697669616c456e6372797074000000000000000000000000000000000000",
          "blockHash": "0x5e363d3211d0d1f05458397dcc3281f55a1c1ba6491a77dc5d79ad2ddf283d09",
          "blockNumber": "0x8cbdfb",
          "blockTimestamp": "0x68cb0248",
          "transactionHash": "0x009db5c720eb8d0a04a822420988560d754d88e7b1331db3261d40f76db19473",
          "transactionIndex": "0x3c",
          "logIndex": "0x151",
          "removed": false
        },
        {
          "address": "0x0faf3047dc05328c5251a7beef8408c4d3a23880",
          "topics": [
            "0x18ff1c138c5686b85dc8b4338640ccef29de32ff4fec45a3f6f220bee9783e45",
            "0x07c01ba9ea6c38fed25d1b727430d1ca3e7f621782afc74d25e9f7648367e882"
          ],
          "data": "0x000000000000000000000000000000000000000000000000000000000000008000000000000000000000000000000000000000000000000000000000000000c0000000000000000000000000000000000000000000000000000000000000010000000000000000000000000000000000000000000000000000000000000001400000000000000000000000000000000000000000000000000000000000000020a086c907b116b1572126a2ccfaa5f6524f347f8a1d8378ce37b958e0cccc88000000000000000000000000000000000000000000000000000000000000000020cc63d19e9a0f97a43bc73dca1ee8b6f4b645d8919747695fa5d1d0da853a84000000000000000000000000000000000000000000000000000000000000000020cdef58c863398f789d9953afd1326207812f448c90165e6886555071b2f484000000000000000000000000000000000000000000000000000000000000000020b3e26d30bbd0fa3e41a1d86cb7844842fbb2638ed221cf36790bbd9c9f3e8000",
          "blockHash": "0x5e363d3211d0d1f05458397dcc3281f55a1c1ba6491a77dc5d79ad2ddf283d09",
          "blockNumber": "0x8cbdfb",
          "blockTimestamp": "0x68cb0248",
          "transactionHash": "0x009db5c720eb8d0a04a822420988560d754d88e7b1331db3261d40f76db19473",
          "transactionIndex": "0x3c",
          "logIndex": "0x152",
          "removed": false
        }
      ],
      "logsBloom": "0x00000000000000000000000000000000080000000000000000000000000000000000000000400000000000000000000000000000008000000000000000000000000000100000000000000000000000000000000008000000000000000000000000000000000000000000000000000000000000000000000000000000000000000000000000000000000080000800000001080000000000800000000000000000000000000000000000000000000000000000000000000000000000000000800000000000000000000000000000000000000000000000080000000000000000000000000000000000000200000000000000000000000000000000020200000000",
      "type": "0x2",
      "transactionHash": "0x009db5c720eb8d0a04a822420988560d754d88e7b1331db3261d40f76db19473",
      "transactionIndex": "0x3c",
      "blockHash": "0x5e363d3211d0d1f05458397dcc3281f55a1c1ba6491a77dc5d79ad2ddf283d09",
      "blockNumber": "0x8cbdfb",
      "gasUsed": "0x30370",
      "effectiveGasPrice": "0x1186744",
      "from": "0x3e723f6b81431f325e3f08e75544f254c182afe2",
      "to": "0x0faf3047dc05328c5251a7beef8408c4d3a23880",
      "contractAddress": null
    },
    {
      "status": "0x1",
      "cumulativeGasUsed": "0x1741a06",
      "logs": [
        {
          "address": "0xea30c4b8b44078bbf8a6ef5b9f1ec1626c7848d9",
          "topics": [
            "0xe9de54a3e7ddf0c48cc6e1134185300d5a71acbf2d8c21fcdefa9d9dd9e20ac1"
          ],
          "data": "0xc290f19dcf7bceb26e550f2bfc2767777b6b3a2e75644053281b2fc1dc88800000000000000000000000000000000000000000000000000000000000000000a0000000000000000000000000000000000000000000000000000000000000000000000000000000000000000000000000000000000000000000000000000000000000000000000000000000000000000000000000000000000000000000000000000000000000000000000000000000000000000000000000000000000000000e7472697669616c456e6372797074000000000000000000000000000000000000",
          "blockHash": "0x5e363d3211d0d1f05458397dcc3281f55a1c1ba6491a77dc5d79ad2ddf283d09",
          "blockNumber": "0x8cbdfb",
          "blockTimestamp": "0x68cb0248",
          "transactionHash": "0x610a1118b14c0e67470dd0f537a4fc03ba4948a737646ceb50d0a54bf5bcacee",
          "transactionIndex": "0x3d",
          "logIndex": "0x153",
          "removed": false
        },
        {
          "address": "0x0faf3047dc05328c5251a7beef8408c4d3a23880",
          "topics": [
            "0x18ff1c138c5686b85dc8b4338640ccef29de32ff4fec45a3f6f220bee9783e45",
            "0x07c01ba9ea6c38fed25d1b727430d1ca3e7f621782afc74d25e9f7648367e882"
          ],
          "data": "0x000000000000000000000000000000000000000000000000000000000000008000000000000000000000000000000000000000000000000000000000000000c0000000000000000000000000000000000000000000000000000000000000010000000000000000000000000000000000000000000000000000000000000001400000000000000000000000000000000000000000000000000000000000000020a086c907b116b1572126a2ccfaa5f6524f347f8a1d8378ce37b958e0cccc88000000000000000000000000000000000000000000000000000000000000000020cc63d19e9a0f97a43bc73dca1ee8b6f4b645d8919747695fa5d1d0da853a84000000000000000000000000000000000000000000000000000000000000000020cdef58c863398f789d9953afd1326207812f448c90165e6886555071b2f484000000000000000000000000000000000000000000000000000000000000000020c290f19dcf7bceb26e550f2bfc2767777b6b3a2e75644053281b2fc1dc888000",
          "blockHash": "0x5e363d3211d0d1f05458397dcc3281f55a1c1ba6491a77dc5d79ad2ddf283d09",
          "blockNumber": "0x8cbdfb",
          "blockTimestamp": "0x68cb0248",
          "transactionHash": "0x610a1118b14c0e67470dd0f537a4fc03ba4948a737646ceb50d0a54bf5bcacee",
          "transactionIndex": "0x3d",
          "logIndex": "0x154",
          "removed": false
        }
      ],
      "logsBloom": "0x00000000000000000000000000000000080000000000000000000000000000000000000000400000000000000000000000000000008000000000000000000000000000100000000000000000000000000000000008000000000000000000000000000000000000000000000000000000000000000000000000000000000000000000000000000000000080000800000001080000000000800000000000000000000000000000000000000000000000000000000000000000000000000000800000000000000000000000000000000000000000000000080000000000000000000000000000000000000200000000000000000000000000000000020200000000",
      "type": "0x2",
      "transactionHash": "0x610a1118b14c0e67470dd0f537a4fc03ba4948a737646ceb50d0a54bf5bcacee",
      "transactionIndex": "0x3d",
      "blockHash": "0x5e363d3211d0d1f05458397dcc3281f55a1c1ba6491a77dc5d79ad2ddf283d09",
      "blockNumber": "0x8cbdfb",
      "gasUsed": "0x15608",
      "effectiveGasPrice": "0x1186744",
      "from": "0x3e723f6b81431f325e3f08e75544f254c182afe2",
      "to": "0x0faf3047dc05328c5251a7beef8408c4d3a23880",
      "contractAddress": null
    },
    {
      "status": "0x1",
      "cumulativeGasUsed": "0x175701f",
      "logs": [
        {
          "address": "0xea30c4b8b44078bbf8a6ef5b9f1ec1626c7848d9",
          "topics": [
            "0xe9de54a3e7ddf0c48cc6e1134185300d5a71acbf2d8c21fcdefa9d9dd9e20ac1"
          ],
          "data": "0xb3e26d30bbd0fa3e41a1d86cb7844842fbb2638ed221cf36790bbd9c9f3e800000000000000000000000000000000000000000000000000000000000000000a0000000000000000000000000000000000000000000000000000000000000000100000000000000000000000000000000000000000000000000000000000000000000000000000000000000000000000000000000000000000000000000000000000000000000000000000000000000000000000000000000000000000000000e7472697669616c456e6372797074000000000000000000000000000000000000",
          "blockHash": "0x5e363d3211d0d1f05458397dcc3281f55a1c1ba6491a77dc5d79ad2ddf283d09",
          "blockNumber": "0x8cbdfb",
          "blockTimestamp": "0x68cb0248",
          "transactionHash": "0x5ed382aa5ddb1636b57f8ae1f2527778ce52c87969c18136ccc9e9ea535e3c2c",
          "transactionIndex": "0x3e",
          "logIndex": "0x155",
          "removed": false
        },
        {
          "address": "0x0faf3047dc05328c5251a7beef8408c4d3a23880",
          "topics": [
            "0x18ff1c138c5686b85dc8b4338640ccef29de32ff4fec45a3f6f220bee9783e45",
            "0x07c01ba9ea6c38fed25d1b727430d1ca3e7f621782afc74d25e9f7648367e882"
          ],
          "data": "0x000000000000000000000000000000000000000000000000000000000000008000000000000000000000000000000000000000000000000000000000000000c0000000000000000000000000000000000000000000000000000000000000010000000000000000000000000000000000000000000000000000000000000001400000000000000000000000000000000000000000000000000000000000000020a086c907b116b1572126a2ccfaa5f6524f347f8a1d8378ce37b958e0cccc88000000000000000000000000000000000000000000000000000000000000000020cc63d19e9a0f97a43bc73dca1ee8b6f4b645d8919747695fa5d1d0da853a84000000000000000000000000000000000000000000000000000000000000000020cdef58c863398f789d9953afd1326207812f448c90165e6886555071b2f484000000000000000000000000000000000000000000000000000000000000000020b3e26d30bbd0fa3e41a1d86cb7844842fbb2638ed221cf36790bbd9c9f3e8000",
          "blockHash": "0x5e363d3211d0d1f05458397dcc3281f55a1c1ba6491a77dc5d79ad2ddf283d09",
          "blockNumber": "0x8cbdfb",
          "blockTimestamp": "0x68cb0248",
          "transactionHash": "0x5ed382aa5ddb1636b57f8ae1f2527778ce52c87969c18136ccc9e9ea535e3c2c",
          "transactionIndex": "0x3e",
          "logIndex": "0x156",
          "removed": false
        }
      ],
      "logsBloom": "0x00000000000000000000000000000000080000000000000000000000000000000000000000400000000000000000000000000000008000000000000000000000000000100000000000000000000000000000000008000000000000000000000000000000000000000000000000000000000000000000000000000000000000000000000000000000000080000800000001080000000000800000000000000000000000000000000000000000000000000000000000000000000000000000800000000000000000000000000000000000000000000000080000000000000000000000000000000000000200000000000000000000000000000000020200000000",
      "type": "0x2",
      "transactionHash": "0x5ed382aa5ddb1636b57f8ae1f2527778ce52c87969c18136ccc9e9ea535e3c2c",
      "transactionIndex": "0x3e",
      "blockHash": "0x5e363d3211d0d1f05458397dcc3281f55a1c1ba6491a77dc5d79ad2ddf283d09",
      "blockNumber": "0x8cbdfb",
      "gasUsed": "0x15619",
      "effectiveGasPrice": "0x1186744",
      "from": "0x3e723f6b81431f325e3f08e75544f254c182afe2",
      "to": "0x0faf3047dc05328c5251a7beef8408c4d3a23880",
      "contractAddress": null
    },
    {
      "status": "0x1",
      "cumulativeGasUsed": "0x175ec20",
      "logs": [
        {
          "address": "0x0faf3047dc05328c5251a7beef8408c4d3a23880",
          "topics": [
            "0xf354ce2d046227bb2a8db43674dab621b47724bc45cbc0b228a001245d53fd77",
            "0x07c01ba9ea6c38fed25d1b727430d1ca3e7f621782afc74d25e9f7648367e882"
          ],
          "data": "0x",
          "blockHash": "0x5e363d3211d0d1f05458397dcc3281f55a1c1ba6491a77dc5d79ad2ddf283d09",
          "blockNumber": "0x8cbdfb",
          "blockTimestamp": "0x68cb0248",
          "transactionHash": "0x3ce0492b84ef4dc29897c53afd775b4cabf5e8aac43e13080574b281a118f796",
          "transactionIndex": "0x3f",
          "logIndex": "0x157",
          "removed": false
        }
      ],
      "logsBloom": "0x00000800000000000000000000000000000000000000000000000000000000000000000000400000000000000000000000000000000000000000000000000000000000100000000000000000000000000080000000000000000000000000000000000000000000000000000000000000000000000000000000000000000000000000000000000000000080000000000000080000000000800000000000000000000000000000000000000000000000000000000000000000000000000000800000000000000000000000000000000200000000000000000000000000000000000000000000000000000000000000000000000000000000000000000000000000",
      "type": "0x2",
      "transactionHash": "0x3ce0492b84ef4dc29897c53afd775b4cabf5e8aac43e13080574b281a118f796",
      "transactionIndex": "0x3f",
      "blockHash": "0x5e363d3211d0d1f05458397dcc3281f55a1c1ba6491a77dc5d79ad2ddf283d09",
      "blockNumber": "0x8cbdfb",
      "gasUsed": "0x7c01",
      "effectiveGasPrice": "0x1186744",
      "from": "0x3e723f6b81431f325e3f08e75544f254c182afe2",
      "to": "0x0faf3047dc05328c5251a7beef8408c4d3a23880",
      "contractAddress": null
    },
    {
      "status": "0x1",
      "cumulativeGasUsed": "0x17667a3",
      "logs": [
        {
          "address": "0x0faf3047dc05328c5251a7beef8408c4d3a23880",
          "topics": [
            "0xc4be386fe9fd651a56e42b3b831dd4bf6afaa363eb2d21181fe7e23a8ff50279",
            "0x07c01ba9ea6c38fed25d1b727430d1ca3e7f621782afc74d25e9f7648367e882"
          ],
          "data": "0x",
          "blockHash": "0x5e363d3211d0d1f05458397dcc3281f55a1c1ba6491a77dc5d79ad2ddf283d09",
          "blockNumber": "0x8cbdfb",
          "blockTimestamp": "0x68cb0248",
          "transactionHash": "0xddd24b68f52a67bfd8524b10a9183acb2515ed3849c1c27412d6601d59e4c4e4",
          "transactionIndex": "0x40",
          "logIndex": "0x158",
          "removed": false
        }
      ],
      "logsBloom": "0x00000000000000000000000000000000000000000000000000000000000000000000000000400000000000000000000000000000000000000000000000000000000000100000000000000000000000000000000000000000000000000000000000000000000000000000000000000000000000000000000000000000000000100000000000000000000080000000000004080000000000800000000000000000000000001000000000000000000000000000000000000000000000000000800000000000000000000000000000000000000000000000000000000000000000000000000000000000000000000000000000000000000000000000000000000000",
      "type": "0x2",
      "transactionHash": "0xddd24b68f52a67bfd8524b10a9183acb2515ed3849c1c27412d6601d59e4c4e4",
      "transactionIndex": "0x40",
      "blockHash": "0x5e363d3211d0d1f05458397dcc3281f55a1c1ba6491a77dc5d79ad2ddf283d09",
      "blockNumber": "0x8cbdfb",
      "gasUsed": "0x7b83",
      "effectiveGasPrice": "0x1186744",
      "from": "0x3e723f6b81431f325e3f08e75544f254c182afe2",
      "to": "0x0faf3047dc05328c5251a7beef8408c4d3a23880",
      "contractAddress": null
    },
    {
      "status": "0x1",
      "cumulativeGasUsed": "0x176cea4",
      "logs": [
        {
          "address": "0xf7ec23380bb7adedaf4c69239b66e444b4aaffdb",
          "topics": [
            "0x8c5be1e5ebec7d5bd14f71427d1e84f3dd0314c0f7b2291e5b200ac8c7c3b925",
            "0x0000000000000000000000003e723f6b81431f325e3f08e75544f254c182afe2",
            "0x000000000000000000000000429ba70129df741b2ca2a85bc3a2a3328e5c09b4"
          ],
          "data": "0xffffffffffffffffffffffffffffffffffffffffffffffffffffffffffffffff",
          "blockHash": "0x5e363d3211d0d1f05458397dcc3281f55a1c1ba6491a77dc5d79ad2ddf283d09",
          "blockNumber": "0x8cbdfb",
          "blockTimestamp": "0x68cb0248",
          "transactionHash": "0x35261e8420c0de84cbf3d5da37c211f344bbacece4f4d2c0986b2955923e5e10",
          "transactionIndex": "0x41",
          "logIndex": "0x159",
          "removed": false
        }
      ],
      "logsBloom": "0x00000000000000000000000000000000000000000000040000000000000000000000000000000040080000000000000020000000080000000000000000200000000000000000000000000100000000000000000000000000000000000000000000000000000000000000000000000000000000000000000000000800000000000000000000000000000000000000000000000000000000000000000000000000020000000000000080000000000000000000000000000000000010000000000000000000000000000000000000000000000000000000000000000000000000000010000000000000000000000000000000000000000000000000000000000000",
      "type": "0x2",
      "transactionHash": "0x35261e8420c0de84cbf3d5da37c211f344bbacece4f4d2c0986b2955923e5e10",
      "transactionIndex": "0x41",
      "blockHash": "0x5e363d3211d0d1f05458397dcc3281f55a1c1ba6491a77dc5d79ad2ddf283d09",
      "blockNumber": "0x8cbdfb",
      "gasUsed": "0x6701",
      "effectiveGasPrice": "0x1186744",
      "from": "0x3e723f6b81431f325e3f08e75544f254c182afe2",
      "to": "0xf7ec23380bb7adedaf4c69239b66e444b4aaffdb",
      "contractAddress": null
    },
    {
      "status": "0x1",
      "cumulativeGasUsed": "0x17735a5",
      "logs": [
        {
          "address": "0x0e42efc341d5ef175db4ce9516d13eecc379e9ec",
          "topics": [
            "0x8c5be1e5ebec7d5bd14f71427d1e84f3dd0314c0f7b2291e5b200ac8c7c3b925",
            "0x0000000000000000000000003e723f6b81431f325e3f08e75544f254c182afe2",
            "0x000000000000000000000000429ba70129df741b2ca2a85bc3a2a3328e5c09b4"
          ],
          "data": "0xffffffffffffffffffffffffffffffffffffffffffffffffffffffffffffffff",
          "blockHash": "0x5e363d3211d0d1f05458397dcc3281f55a1c1ba6491a77dc5d79ad2ddf283d09",
          "blockNumber": "0x8cbdfb",
          "blockTimestamp": "0x68cb0248",
          "transactionHash": "0x8fe93e2f8db12235e16d81d29b4817beadf61c41311b415e4fc9ea43fe40db42",
          "transactionIndex": "0x42",
          "logIndex": "0x15a",
          "removed": false
        }
      ],
      "logsBloom": "0x00000000080000000000000000000000000000000000000000000000000000000000000000000040080000000000080000000000080000000000000000200000000000000000000000000008000000000000000000000000000000000000000000000000000000000000000000000000000000000000000000000800000000000000000000000000000000000000000000000000000000000000000000000000020000000000000080000000000000000000000000000000000010000000000000000000000000000000000000000000000000000000000000000000000000000010000000000000000000000000000000000000000000000000000000000000",
      "type": "0x2",
      "transactionHash": "0x8fe93e2f8db12235e16d81d29b4817beadf61c41311b415e4fc9ea43fe40db42",
      "transactionIndex": "0x42",
      "blockHash": "0x5e363d3211d0d1f05458397dcc3281f55a1c1ba6491a77dc5d79ad2ddf283d09",
      "blockNumber": "0x8cbdfb",
      "gasUsed": "0x6701",
      "effectiveGasPrice": "0x1186744",
      "from": "0x3e723f6b81431f325e3f08e75544f254c182afe2",
      "to": "0x0e42efc341d5ef175db4ce9516d13eecc379e9ec",
      "contractAddress": null
    },
    {
      "status": "0x1",
      "cumulativeGasUsed": "0x17ad445",
      "logs": [
        {
          "address": "0x429ba70129df741b2ca2a85bc3a2a3328e5c09b4",
          "topics": [
            "0xddf252ad1be2c89b69c2b068fc378daa952ba7f163c4a11628f55a4df523b3ef",
            "0x0000000000000000000000000000000000000000000000000000000000000000",
            "0x0000000000000000000000003e723f6b81431f325e3f08e75544f254c182afe2",
            "0x000000000000000000000000000000000000000000000000000000000000431f"
          ],
          "data": "0x",
          "blockHash": "0x5e363d3211d0d1f05458397dcc3281f55a1c1ba6491a77dc5d79ad2ddf283d09",
          "blockNumber": "0x8cbdfb",
          "blockTimestamp": "0x68cb0248",
          "transactionHash": "0x2f42056048e9a1473d39406e844a4d01e18048495f3b36c0a30b0edd4801c699",
          "transactionIndex": "0x43",
          "logIndex": "0x15b",
          "removed": false
        },
        {
          "address": "0xe03a1074c86cfedd5c142c4f04f1a1536e203543",
          "topics": [
            "0xf208f4912782fd25c7f114ca3723a2d5dd6f3bcc3ac8db5af63baa85f711d5ec",
            "0x41a36aeca49dedb0ecb60f7f1051a4f6c02ccd756217aa04964655d2f245623c",
            "0x000000000000000000000000429ba70129df741b2ca2a85bc3a2a3328e5c09b4"
          ],
          "data": "0x000000000000000000000000000000000000000000000000000000000000000000000000000000000000000000000000000000000000000000000000000002580000000000000000000000000000000000000000000000002ef57eae08ae2b56000000000000000000000000000000000000000000000000000000000000431f",
          "blockHash": "0x5e363d3211d0d1f05458397dcc3281f55a1c1ba6491a77dc5d79ad2ddf283d09",
          "blockNumber": "0x8cbdfb",
          "blockTimestamp": "0x68cb0248",
          "transactionHash": "0x2f42056048e9a1473d39406e844a4d01e18048495f3b36c0a30b0edd4801c699",
          "transactionIndex": "0x43",
          "logIndex": "0x15c",
          "removed": false
        },
        {
          "address": "0x0e42efc341d5ef175db4ce9516d13eecc379e9ec",
          "topics": [
            "0xddf252ad1be2c89b69c2b068fc378daa952ba7f163c4a11628f55a4df523b3ef",
            "0x0000000000000000000000003e723f6b81431f325e3f08e75544f254c182afe2",
            "0x000000000000000000000000e03a1074c86cfedd5c142c4f04f1a1536e203543"
          ],
          "data": "0x000000000000000000000000000000000000000000000000016345785d8a0000",
          "blockHash": "0x5e363d3211d0d1f05458397dcc3281f55a1c1ba6491a77dc5d79ad2ddf283d09",
          "blockNumber": "0x8cbdfb",
          "blockTimestamp": "0x68cb0248",
          "transactionHash": "0x2f42056048e9a1473d39406e844a4d01e18048495f3b36c0a30b0edd4801c699",
          "transactionIndex": "0x43",
          "logIndex": "0x15d",
          "removed": false
        }
      ],
      "logsBloom": "0x00000000080000000000001000000000000000000000000000000000280000000000000000000040080000000000080000000100080000000000000000000000000000000000000000000008000000000000000000000000000000000000000000000000020000000000000080000800000000000000100000000810000000000000000001000000000010000000000000000000008200000002000000000000000004000000000080000000000000000000000000408000000010000000000000000002000000000000000000000000000400000000000000001000000020001000000000000000000000000000000004000000000000000000000000000000",
      "type": "0x2",
      "transactionHash": "0x2f42056048e9a1473d39406e844a4d01e18048495f3b36c0a30b0edd4801c699",
      "transactionIndex": "0x43",
      "blockHash": "0x5e363d3211d0d1f05458397dcc3281f55a1c1ba6491a77dc5d79ad2ddf283d09",
      "blockNumber": "0x8cbdfb",
      "gasUsed": "0x39ea0",
      "effectiveGasPrice": "0x1186744",
      "from": "0x3e723f6b81431f325e3f08e75544f254c182afe2",
      "to": "0x429ba70129df741b2ca2a85bc3a2a3328e5c09b4",
      "contractAddress": null
    },
    {
      "status": "0x1",
      "cumulativeGasUsed": "0x17b3b3a",
      "logs": [
        {
          "address": "0xf7ec23380bb7adedaf4c69239b66e444b4aaffdb",
          "topics": [
            "0x8c5be1e5ebec7d5bd14f71427d1e84f3dd0314c0f7b2291e5b200ac8c7c3b925",
            "0x0000000000000000000000003e723f6b81431f325e3f08e75544f254c182afe2",
            "0x000000000000000000000000f13d190e9117920c703d79b5f33732e10049b115"
          ],
          "data": "0xffffffffffffffffffffffffffffffffffffffffffffffffffffffffffffffff",
          "blockHash": "0x5e363d3211d0d1f05458397dcc3281f55a1c1ba6491a77dc5d79ad2ddf283d09",
          "blockNumber": "0x8cbdfb",
          "blockTimestamp": "0x68cb0248",
          "transactionHash": "0x231f2256777977dff9295fc2dddc81e0a05843e180ac8f38c4235840f31a308c",
          "transactionIndex": "0x44",
          "logIndex": "0x15e",
          "removed": false
        }
      ],
      "logsBloom": "0x00000000000000000000000000000000000000000000040000800000000000000000000000000000000000000000000020000000080000000000000000200000000000000000000000000100000000000000000000000000000000000000000000000000000000000000000000000000000000000000000000000000000000000000000000080000000000000000000000000000000000000000000000000000020000000000000080000000000000000000000000000000000010000000000000000000000000000000000000000000000000000000000000000000000080000010000000000000000000000000000000000000000000000000000000000000",
      "type": "0x2",
      "transactionHash": "0x231f2256777977dff9295fc2dddc81e0a05843e180ac8f38c4235840f31a308c",
      "transactionIndex": "0x44",
      "blockHash": "0x5e363d3211d0d1f05458397dcc3281f55a1c1ba6491a77dc5d79ad2ddf283d09",
      "blockNumber": "0x8cbdfb",
      "gasUsed": "0x66f5",
      "effectiveGasPrice": "0x1186744",
      "from": "0x3e723f6b81431f325e3f08e75544f254c182afe2",
      "to": "0xf7ec23380bb7adedaf4c69239b66e444b4aaffdb",
      "contractAddress": null
    },
    {
      "status": "0x1",
      "cumulativeGasUsed": "0x17ba22f",
      "logs": [
        {
          "address": "0x0e42efc341d5ef175db4ce9516d13eecc379e9ec",
          "topics": [
            "0x8c5be1e5ebec7d5bd14f71427d1e84f3dd0314c0f7b2291e5b200ac8c7c3b925",
            "0x0000000000000000000000003e723f6b81431f325e3f08e75544f254c182afe2",
            "0x000000000000000000000000f13d190e9117920c703d79b5f33732e10049b115"
          ],
          "data": "0xffffffffffffffffffffffffffffffffffffffffffffffffffffffffffffffff",
          "blockHash": "0x5e363d3211d0d1f05458397dcc3281f55a1c1ba6491a77dc5d79ad2ddf283d09",
          "blockNumber": "0x8cbdfb",
          "blockTimestamp": "0x68cb0248",
          "transactionHash": "0xd22e670b7efd513607ef6ffb07c63b84204cf9e52d354420166ea8e3fea7fc55",
          "transactionIndex": "0x45",
          "logIndex": "0x15f",
          "removed": false
        }
      ],
      "logsBloom": "0x00000000080000000000000000000000000000000000000000800000000000000000000000000000000000000000080000000000080000000000000000200000000000000000000000000008000000000000000000000000000000000000000000000000000000000000000000000000000000000000000000000000000000000000000000080000000000000000000000000000000000000000000000000000020000000000000080000000000000000000000000000000000010000000000000000000000000000000000000000000000000000000000000000000000080000010000000000000000000000000000000000000000000000000000000000000",
      "type": "0x2",
      "transactionHash": "0xd22e670b7efd513607ef6ffb07c63b84204cf9e52d354420166ea8e3fea7fc55",
      "transactionIndex": "0x45",
      "blockHash": "0x5e363d3211d0d1f05458397dcc3281f55a1c1ba6491a77dc5d79ad2ddf283d09",
      "blockNumber": "0x8cbdfb",
      "gasUsed": "0x66f5",
      "effectiveGasPrice": "0x1186744",
      "from": "0x3e723f6b81431f325e3f08e75544f254c182afe2",
      "to": "0x0e42efc341d5ef175db4ce9516d13eecc379e9ec",
      "contractAddress": null
    },
    {
      "status": "0x1",
      "cumulativeGasUsed": "0x17f2313",
      "logs": [
        {
          "address": "0xe03a1074c86cfedd5c142c4f04f1a1536e203543",
          "topics": [
            "0x40e9cecb9f5f1f1c5b9c97dec2917b7ee92e57ba5563708daca94dd84ad7112f",
            "0x07c01ba9ea6c38fed25d1b727430d1ca3e7f621782afc74d25e9f7648367e882",
            "0x000000000000000000000000f13d190e9117920c703d79b5f33732e10049b115"
          ],
          "data": "0xfffffffffffffffffffffffffffffffffffffffffffffffffffffffffff0bdc000000000000000000000000000000000000000000000000000000000000ef1fa0000000000000000000000000000000000000000fdbca5f77c24d29526caff5a0000000000000000000000000000000000000000000000060f4da7fe284f5deaffffffffffffffffffffffffffffffffffffffffffffffffffffffffffffff4e0000000000000000000000000000000000000000000000000000000000000bb8",
          "blockHash": "0x5e363d3211d0d1f05458397dcc3281f55a1c1ba6491a77dc5d79ad2ddf283d09",
          "blockNumber": "0x8cbdfb",
          "blockTimestamp": "0x68cb0248",
          "transactionHash": "0x7e33fb115b938cf2dc9e5b659070ac7add83717ef0aa5bc06f60960de3d5db4f",
          "transactionIndex": "0x46",
          "logIndex": "0x160",
          "removed": false
        },
        {
          "address": "0x0e42efc341d5ef175db4ce9516d13eecc379e9ec",
          "topics": [
            "0xddf252ad1be2c89b69c2b068fc378daa952ba7f163c4a11628f55a4df523b3ef",
            "0x0000000000000000000000003e723f6b81431f325e3f08e75544f254c182afe2",
            "0x000000000000000000000000e03a1074c86cfedd5c142c4f04f1a1536e203543"
          ],
          "data": "0x00000000000000000000000000000000000000000000000000000000000f4240",
          "blockHash": "0x5e363d3211d0d1f05458397dcc3281f55a1c1ba6491a77dc5d79ad2ddf283d09",
          "blockNumber": "0x8cbdfb",
          "blockTimestamp": "0x68cb0248",
          "transactionHash": "0x7e33fb115b938cf2dc9e5b659070ac7add83717ef0aa5bc06f60960de3d5db4f",
          "transactionIndex": "0x46",
          "logIndex": "0x161",
          "removed": false
        },
        {
          "address": "0xf7ec23380bb7adedaf4c69239b66e444b4aaffdb",
          "topics": [
            "0xddf252ad1be2c89b69c2b068fc378daa952ba7f163c4a11628f55a4df523b3ef",
            "0x000000000000000000000000e03a1074c86cfedd5c142c4f04f1a1536e203543",
            "0x0000000000000000000000003e723f6b81431f325e3f08e75544f254c182afe2"
          ],
          "data": "0x00000000000000000000000000000000000000000000000000000000000ef1fa",
          "blockHash": "0x5e363d3211d0d1f05458397dcc3281f55a1c1ba6491a77dc5d79ad2ddf283d09",
          "blockNumber": "0x8cbdfb",
          "blockTimestamp": "0x68cb0248",
          "transactionHash": "0x7e33fb115b938cf2dc9e5b659070ac7add83717ef0aa5bc06f60960de3d5db4f",
          "transactionIndex": "0x46",
          "logIndex": "0x162",
          "removed": false
        }
      ],
      "logsBloom": "0x000000000800000000000000000000000000000000000400008000000000000000000000004000000000000000000800200001000c0000000000000000000000000000100000000000000108000000000000000000000020000000000000000000000000000000000000000080000000000000000000100000000010000000000000000000080000000010000000000000080000000000000000000000000000000000000000000080000000000000000000000000000000000010000000000000000002000000000000000000000000000000000000000000001000000080001000000000000000004000000000000000000000000000000000000000000000",
      "type": "0x2",
      "transactionHash": "0x7e33fb115b938cf2dc9e5b659070ac7add83717ef0aa5bc06f60960de3d5db4f",
      "transactionIndex": "0x46",
      "blockHash": "0x5e363d3211d0d1f05458397dcc3281f55a1c1ba6491a77dc5d79ad2ddf283d09",
      "blockNumber": "0x8cbdfb",
      "gasUsed": "0x380e4",
      "effectiveGasPrice": "0x1186744",
      "from": "0x3e723f6b81431f325e3f08e75544f254c182afe2",
      "to": "0xf13d190e9117920c703d79b5f33732e10049b115",
      "contractAddress": null
    }
  ],
  "libraries": [],
  "pending": [],
  "returns": {},
  "timestamp": 1758134858443,
  "chain": 11155111,
  "commit": "7b9c819"
}